:020000040800F2
:10000000A8110020E9010008EB1000087B1000088F
:10001000E910000891020008BD120008000000006D
:100020000000000000000000000000004501000882
:100030009302000800000000890100083311000845
:10004000030200080302000803020008030200087C
:10005000030200080302000803020008030200086C
:10006000030200080302000803020008030200085C
:10007000030200080302000803020008030200084C
:10008000030200080302000803020008030200083C
:10009000030200080302000803020008030200082C
:1000A00003020008FD110008030200080302000813
:1000B000030200080302000803020008030200080C
:1000C00003020008030200080302000803020008FC
:1000D00003020008030200080302000803020008EC
:1000E00003020008030200080302000803020008DC
:1000F00003020008030200080302000803020008CC
:1001000003020008030200080302000803020008BB
:1001100003020008030200080302000803020008AB
:10012000030200080302000803020008030200089B
:10013000DFF80CD000F08EF800480047E912000804
:10014000A8110020204B19680868B0E8F00F80F370
:100150000988BFF36F8F4FF0000080F311884EF0D5
:100160000D0E70470000000006480068006880F32C
:10017000088862B661B6BFF34F8FBFF36F8F00DFA1
:1001800000BF00BF08ED00E0EFF30980BFF36F8F01
:100190000D4B1A6820E9F00F106008B54FF05000C1
:1001A00080F3118801F058FB4FF0000080F31188B4
:1001B000BDE8084019680868B0E8F00F80F30988C6
:1001C000BFF36F8F704700BF00000020EFF3118076
:1001D0004FF0500181F31188704780F31188704708
:1001E000EFF3058070470000064880470648004747
:1001F000FEE7FEE7FEE7FEE7FEE7FEE7FEE7FEE7D7
:10020000FEE7FEE7B51100083101000840EA0103EE
:100210009B0703D009E008C9121F08C0042AFAD2BC
:1002200003E011F8013B00F8013B521EF9D2704780
:10023000D2B201E000F8012B491EFBD27047002228
:10024000F6E710B513460A4604461946FFF7F0FFD5
:10025000204610BD064C074D06E0E06840F0010363
:1002600094E8070098471034AC42F6D3FFF764FFD8
:10027000B01E0008D01E00080349044A31F81010CF
:1002800052F8200000F006B9741E00085C0000203F
:10029000FEE7704731B500F007F9044600F004F9B5
:1002A0000099001B8842F9D338BD00002DE9F84FB2
:1002B000DFF8B8A100220AF1040B144601274FF021
:1002C0000F090BF1040E00BF0B6807FA04F52B4071
:1002D000AB4274D1DFF898C14E68A6EB0C086645B6
:1002E0002BD00DDC032E34D005DC36B3012E19D013
:1002F000022E2FD11BE0112E16D0122E2AD119E07A
:10030000B8F5881F19D006DCB8F5803F15D0B8F5D0
:10031000801F1FD111E0B8F5001F0ED0B8F5041FE3
:1003200018D10AE0CA6815E0CA68121D12E0CA684E
:1003300008320FE0CA680C320CE08A682AB1012A40
:100340004FF0080203D0456104E0042202E0056199
:1003500000E00022FF2B01D8064601E000F1040670
:100360004FEA840501D9A5F12005D6F800C009FAA5
:1003700005F82CEA080C02FA05F54CEA050CC6F85B
:1003800000C04D68ED006AD53A4DAE6946F00106F1
:10039000AE61AD6924F0030605F001050095364D08
:1003A00006EB050CDCF80850A6074FEA167809FAA8
:1003B00008F6B543314EB04202D100261AE04EE0B5
:1003C0002F4EB04201D1012614E02E4EB04201D191
:1003D00002260FE02C4EB04201D103260AE02B4E3C
:1003E000B04201D1042605E0294EB04201D10526D4
:1003F00000E0062606FA08F62E43CCF808604D68A1
:10040000DAF80060ED03554601D51E4300E09E4337
:100410002E604D68AD0305D5DBF800601E43CBF8B8
:10042000006004E0DBF800509D43CBF800504D68BD
:10043000DEF80060ED02754601D51E4300E09E43E4
:100440002E604D68AD0205D5084D0C352E681E4353
:100450002E6004E0054E0C3635689D433560641C03
:10046000102CFFF431AFBDE8F88F0000000401400C
:10047000000011100010024000000140000801407F
:10048000000C014000100140001401400018014020
:10049000001C0140C2684A40C26070470AB1016155
:1004A00070470904FBE7000001480068704700003E
:1004B0007800002002480168491C01607047000074
:1004C00078000020074810B5016841F01001016074
:1004D000032000F0AFF8002000F006F800F03EF82E
:1004E000002010BD0020024000B5014687B0002268
:1004F000192000F07FF8192000F070F81348816986
:1005000041F400618161806905A900F400600690F2
:10051000684600F065F900F089F90D490D4AB0FB15
:10052000F1F10D48491E0260416040F2E7320021BE
:10053000C0E90321816000F0B6FC10B1012007B0D2
:1005400000BD054800F0CBFCF9E7000000100240B8
:1005500040420F00002C01406C0D00201D4808B5E2
:10056000816941F001018161806900F00100009022
:10057000032000F05FF8002211466FF00B0000F03E
:1005800039F8002211466FF00A0000F033F800221B
:1005900011466FF0090000F02DF800221146501F9F
:1005A00000F028F800221146101F00F023F8002266
:1005B0000F21901E00F01EF800220F21501E00F0A7
:1005C00019F80548416821F0E06141F0806141601F
:1005D00008BD0000001002400000014000F01F02B2
:1005E000012191404009800000F1E020C0F8001195
:1005F00070470000F0B40E4B1B680C46C3F3022397
:10060000C3F10705042D00D90425191D072901D2BE
:10061000002300E0DB1E012606FA05F1491E2140F9
:1006200099409E40761E16403143F0BC00F05EBDFE
:100630000CED00E0064900F0070208684FF6FF03E2
:10064000184040EA0220034A104308607047000047
:100650000CED00E00000FA052DE9F047DFF87081AD
:1006600005460E46D8F8000000F00700B0420CD254
:10067000D8F8001021F007013143C8F80010D8F86D
:10068000000000F00700B04277D12878514C800775
:1006900005D56068A96820F0F000084360602878FC
:1006A000C00759D06968012001290DD0022929D03D
:1006B0005FF0020393FAA3F2B2FA82F242F0200250
:1006C000520904D0226803E04FF40033F2E7626A73
:1006D00093FAA3F3B3FA83F303F01F0398400242A3
:1006E0004BD0606820F0030008436060FFF7DCFE39
:1006F0006968074641F2883001290DD002298146F8
:1007000017D025E04FF00073D4E700BFFFF7CCFE11
:10071000C11B494501D918E081466068C0F38100DA
:100720000128F3D118E000BFFFF7BEFEC11B494509
:100730000BD86068C0F381000228F5D10CE000BF3F
:10074000FFF7B2FEC11B494502D90320BDE8F0877F
:10075000606810F00C0FF3D1D8F80010404601F09B
:100760000701B1420BD9016821F007013143016053
:10077000006800F00700B04201D00120E6E72878C9
:10078000400705D56068E96820F4E06008436060D0
:100790002878000706D56068296920F4605040EA8F
:1007A000C100606000F05AF86168F02292FAA2F28B
:1007B00001F0F001B2FA82F2D140074A515CC84020
:1007C000064908600020FFF78FFE0020BEE700000A
:1007D0000020024000100240901E0008740000201B
:1007E0000F2202600C4A536803F00303436053680E
:1007F00003F0F0038360536803F4E063C36052685E
:100800004FF4E06303EAD20202610448006800F09A
:1008100007000860704700000010024000200240FE
:10082000014800687047000074000020084809492A
:10083000006849684FF4605292FAA2F201F46051E4
:10084000B2FA82F2D140044A515CC84070470000BD
:100850007400002000100240A01E000810B519A36B
:1008600085B00FCB8DE80F001AA01B4B00680490D9
:100870005A681A4802F00C0104291DD008291BD11E
:100880004FF4701494FAA4F402F47011B4FA84F4DE
:10089000E140D2031DF8011010D55A684FF400331F
:1008A00093FAA3F302F40032B3FA83F3DA4004AB11
:1008B0009A5CB0FBF2F0484305B010BD08484843CD
:1008C000FAE7000002030405060708090A0B0C0DED
:1008D0000E0F1010010200000010024000127A00FA
:1008E00000093D002DE9F84F04460078F74DC00798
:1008F0004FF0010625D068687704C0F38100012815
:1009000007D06868C0F3810002281BD16868C00363
:1009100018D597FAA7F0B0FA80F040F0200040090F
:1009200001D0286800E0686A97FAA7F1B1FA81F16E
:1009300001F01F0106FA01F108425ED0606800284C
:100940007CD05AE06068B0F5803F0BD010B1B0F5B4
:10095000A02F11D0286820F480302860286820F467
:10096000802002E0286840F480302860606828B366
:10097000FFF79AFD80460BE0286840F4802028604D
:10098000F0E700BFFFF790FDA0EB0800642871D8E6
:1009900097FAA7F0B0FA80F040F02000400901D0AB
:1009A000286800E0686A97FAA7F1B1FA81F101F0CE
:1009B0001F0106FA01F10842E4D01EE0FFF774FDC2
:1009C000804605E0FFF770FDA0EB08006428DED844
:1009D00097FAA7F0B0FA80F040F02000400901D06B
:1009E000286800E0686A97FAA7F1B1FA81F101F08E
:1009F0001F0106FA01F10842E4D12078DFF8D08225
:100A000080074FF000094FF002075BD568684FF090
:100A1000F80B10F00C0F07D06868C0F381000228B3
:100A20001CD16868C00319D497FAA7F0B0FA80F017
:100A300040F02000400902D0286801E08BE0686A9D
:100A400097FAA7F1B1FA81F101F01F0106FA01F15D
:100A500008422CD0206901287DD128E0206990B37C
:100A600096FAA6F0B0FA80F048F82060FFF71CFD77
:100A7000824607E011E100BFFFF716FDA0EB0A0078
:100A8000022884D897FAA7F0B0FA80F040F020004E
:100A9000400901D0286800E0686A97FAA7F1B1FA26
:100AA00081F101F01F0106FA01F10842E4D0286843
:100AB0009BFAABF26169B2FA82F220F0F800914041
:100AC0000843286025E0FFE796FAA6F1B1FA81F124
:100AD00048F82190FFF7E8FC824605E0FFF7E4FCC8
:100AE000A0EB0A000228CCD897FAA7F0B0FA80F061
:100AF00040F02000400901D0286800E0686A97FAB9
:100B0000A7F1B1FA81F101F01F0106FA01F10842E3
:100B1000E4D1207800076ED5A069B8B396FAA6F0A4
:100B2000B0FA80F008EB8000C0F88064FFF7BCFCEE
:100B3000824605E0FFF7B8FCA0EB0A000228A0D827
:100B400097FAA7F0B0FA80F040F06000B6EB501FC3
:100B500002D128680CE062E197FAA7F0B0FA80F0C1
:100B600040F06000B7EB501F01D1286A00E0686ACE
:100B700097FAA7F1B1FA81F101F01F0106FA01F22B
:100B80001042D7D00120FFF785FB34E0FFE796FA4B
:100B9000A6F1B1FA81F108EB8101C1F88094FFF769
:100BA00083FC824606E000BFFFF77EFCA0EB0A0054
:100BB000022872D897FAA7F0B0FA80F040F06000EF
:100BC000B6EB501F01D128680BE097FAA7F0B0FAF6
:100BD00080F040F06000B7EB501F01D1286A00E0C0
:100BE000686A97FAA7F1B1FA81F101F01F0106FADC
:100BF00001F21042D8D12078400765D5E86940F06D
:100C00008050E861E869DFF8CCB000F080500090D7
:100C1000DBF8001041F48071CBF80010FFF744FCC2
:100C2000824605E0FFF740FCA0EB0A00642834D8B8
:100C3000DBF80000C005F5D5E06801280AD008B14E
:100C4000052813D0286A20F001002862286A20F0C5
:100C5000040002E0286A40F001002862E06841F2E6
:100C6000883B90B3FFF720FC82460BE0286A40F0F7
:100C700004002862EEE700BFFFF716FCA0EB0A01B4
:100C800059450AD897FAA7F0B0FA80F040F0400032
:100C9000B6EB501F02D128680CE0A3E097FAA7F04A
:100CA000B0FA80F040F04000B7EB501F01D1286A45
:100CB00000E0686A97FAA7F1B1FA81F101F01F022A
:100CC00006FA02F10842D7D031E005E000100240F8
:100CD0000000424200700040FFF7E6FB824605E05C
:100CE000FFF7E2FBA0EB0A0159457BD897FAA7F082
:100CF000B0FA80F040F04000B6EB501F01D12868F8
:100D00000BE097FAA7F0B0FA80F040F04000B7EBA4
:100D1000501F01D1286A00E0686A97FAA7F1B1FA7A
:100D200081F101F01F0206FA02F10842D8D1E06910
:100D300080B36968C1F38101022970D04FF08071DE
:100D40004F000228484609D091FAA1F1B1FA81F189
:100D500048F82100FFF7A8FB044669E08A4691FAAB
:100D6000A1F1B1FA81F1C14648F82100FFF79CFBDF
:100D7000804605E0FFF798FBA0EB0800022854D856
:100D800097FAA7F0B0FA80F040F02000400902D0B6
:100D9000286801E061E0686A97FAA7F1B1FA81F189
:100DA00001F01F0106FA01F10842E3D1206AB0F513
:100DB000803F05D16868A16820F40030084368606E
:100DC000D4E908010843696821F474110843686094
:100DD0009AFAAAF0B0FA80F049F82060FFF764FBB5
:100DE000044606E021E000BFFFF75EFB001B02287F
:100DF0001BD897FAA7F0B0FA80F040F02000400925
:100E000001D0286800E0686A97FAA7F1B1FA81F189
:100E100001F01F0106FA01F10842E5D01DE01EE0D5
:100E2000FFF742FB001B022802D90320BDE8F88F20
:100E300097FAA7F0B0FA80F040F02000400901D006
:100E4000286800E0686A97FAA7F1B1FA81F101F029
:100E50001F0106FA01F10842E2D10020E6E7012075
:100E6000E4E74FF0E0210428086903D020F00400F3
:100E70000861704740F00400FAE710B5401EB0F179
:100E8000807F01D3012010BD4FF0E02460610F216D
:100E9000601700F02BF90020A061072020610020DE
:100EA00010BD7047704710B5040003D094F83900A6
:100EB00010B107E0012010BD002084F83800204662
:100EC00000F00CF8022084F83900211D206800F0A1
:100ED0009BF9012084F83900002010BD704701689B
:100EE000CA6842F00102CA600068016841F001016D
:100EF000016000207047704770B5044600680169C2
:100F00004FF00005C943890715D4C168C943890753
:100F100011D4E91E016101202076206880698007D4
:100F2000204602D0FFF7E7FF04E000F098F82046E3
:100F300000F096F8257620680169C943490717D45F
:100F4000C168C943490713D46FF00401016102204D
:100F500020762068806910F4407F204602D0FFF799
:100F6000CAFF04E000F07BF8204600F079F825760F
:100F700020680169C943090716D4C168C943090734
:100F800012D46FF008010161042020762068C06946
:100F90008007204602D0FFF7AEFF04E000F05FF8C4
:100FA000204600F05DF8257620680169C943C9062E
:100FB00017D4C168C943C90613D46FF01001016189
:100FC000082020762068C06910F4407F204602D0B7
:100FD000FFF791FF04E000F042F8204600F040F8EF
:100FE000257620680169C943C90708D1C168C9438A
:100FF000C90704D1891E0161204600F033F820683A
:101000000169C943090609D4C168C943090605D461
:101010006FF0800101612046FFF743FF20680169FE
:10102000C943490609D4C168C943490605D46FF0CC
:1010300040010161204600F01FF820680169C943A2
:1010400089060BD4C168C943890607D46FF0200113
:1010500001612046BDE87040FFF724BF70BD7047B6
:101060007047000000680349884201D1FFF722BAA7
:1010700070470000002C01407047FEE700B585B0C6
:10108000142206496846FFF7C1F80021684600F0BF
:101090009EF90349486005B000BD00007C1E0008B1
:1010A0006C00002030B50E4885B0816941F08001A8
:1010B000816180690B4D00F080004FF470740490E2
:1010C000002221462846FFF7E9F90120CDE900403A
:1010D0000220039069462846FFF7E8F805B030BDC6
:1010E00000100240001C0140FEE770470907090E8E
:1010F000002806DA00F00F0000F1E02080F8141D4F
:10110000704700F1E02080F8001470470EB54FF0F2
:10111000FF3422460621684600F024F9019806288B
:1011200005D00228F5D10120FFF7A6F8F1E700204D
:10113000FAE710B500F041F900F084FD012803D072
:10114000BDE8104000F0A2B810BD30B58FB001214D
:101150000804CDE900100024029402250491CDE991
:1011600007504FF4E01009906846FFF7BBFB00B151
:10117000FEE70F20CDE90A054FF48060CDE90C4071
:1011800002210AA80E94FFF767FA00B1FEE7FFF705
:1011900047FB4FF47A71B0FBF1F0FFF76EFE0420CD
:1011A000FFF75FFE00220F21501EFFF723FA0FB05A
:1011B00030BD00000D48016841F001010160416847
:1011C0000B4A1140416001680A4A11400160016800
:1011D00021F480210160416821F4FE0141604FF457
:1011E0001F0181600449C00308607047001002407D
:1011F0000000FFF8FFFFF6FE08ED00E00148FFF7F2
:101200007BBE00006C0D0020F0B502681A4B1B4D30
:101210001B4E1C4F1C4C4FF0804C984209D0A042F2
:1012200007D0604505D0A84203D0B04201D0B842F3
:1012300004D122F0700E4A6842EA0E02984209D0A8
:10124000A04207D0604505D0A84203D0B04201D0EB
:10125000B84203D122F44075CA682A4302608A6802
:10126000C2620A688262984201D0A04201D1096933
:10127000016301214161F0BD002C014000040040E8
:1012800000080040000C00400034014010B50A4C3A
:10129000206818B90221606800F03CF82068411C01
:1012A0002160B0F57A7F05D30621606800F032F83E
:1012B0000020206010BD00006C000020FEE702E06E
:1012C00008C8121F08C1002AFAD1704770470020D1
:1012D00001E001C1121F002AFBD17047EFF3058026
:1012E000002800D001207047FFF7ECF8FFF72DFF32
:1012F000FFF7D8FEFFF7C2FE00F007F8FEE7014651
:101300000020842900D0C81C704710B500F072FA84
:10131000002010BD7CB5054600200C460190FFF76B
:10132000DDFF80B101A8009000230122214628465C
:1013300000F022FC01280ED1019870B108494FF04D
:101340008050086009E0002301222146284600F071
:10135000BFFB012801D0FF207CBD00207CBD000028
:1013600004ED00E0FEB5002506460F462C4601952B
:10137000501C06D002B11446FFF7B0FF20B1822006
:1013800015E04FF0FF34F7E723463946002001AA65
:1013900000F0C6FC012804D00CB1402007E0009505
:1013A00006E00198002801DA862000E0082000907D
:1013B0009DE8070086E80700FEBD10B500F042FC7E
:1013C000012803D0BDE8104000F0AABA10BD30B526
:1013D000044685B00D46B0F90800FFF790FF0021E4
:1013E00004AA0090CDE901210391208A2B4682B204
:1013F000D4E9001000F0A6FA012802D0002005B0C0
:1014000030BD0498FBE7000070B50B4C0546206822
:101410004560E0682168854205D2606BBDE8704098
:10142000091D00F037B9206B091D00F033F9A06ADF
:10143000854200D2A56270BD0000002070B5124E3A
:10144000124C1AE000F000FA3068D0B100F0BCFC99
:1014500000F044F9F068C568281D00F0FBF8A068AA
:10146000401EA0606068401E606000F051F9286B6B
:1014700000F060F9284600F05DF960680028E1D1CD
:1014800070BD00F0A1FCF8E744010020000000203E
:1014900010484FF44061420706D0C01D0D4920F0AE
:1014A0000700411AC1F540610B4A00230144C2E91B
:1014B00000030839103A21F0070111604B600B60FE
:1014C0000B1AC0E9001393604FF000405360D060E6
:1014D000704700006C01002054000020044C00BF45
:1014E000FFF7ACFF20680128FAD900F077F9F7E799
:1014F0007C00002030B5114900E011460A688242A4
:10150000FBD34B685C18844203D1406818444860A0
:10151000084643681C18944209D1084C103C2468C2
:10152000A24209D052681A4442600A6812680260F6
:10153000814200D0086030BD0460F9E7540000200B
:101540000648016B096829B1016BC968C968496817
:10155000816270474FF0FF31FAE700000000002081
:1015600004484068401C02D0FEF730FEFEE7FEF75C
:101570002DFEFEE7380000202DE9F041054600274A
:1015800000F062F92A4E306808B9FFF781FFF06871
:10159000054242D1F5B30835680709D005F00700C8
:1015A000C0F108000544680702D0FEF70FFEFEE711
:1015B00085B37068854230D81D48103001460C68EC
:1015C00001E020460C466168A94202D22168002948
:1015D000F7D131688C4220D00768216801606068CB
:1015E0000837411B102909D96019420702D0FEF7BC
:1015F000EDFDFEE741606560FFF77CFF61687068A4
:10160000401A7060B268904200D2B060F068014346
:10161000002000E001E0C4E9000100F0D5FB7807FC
:1016200002D0FEF7D3FDFEE73846BDE8F0810000AA
:101630004400002010B5031F4FF080741C601B1F76
:101640001960191F024B0B60143940380A6010BD35
:1016500061150008D0E9013201699A60D0E90123DF
:101660005A604A68824201D182684A60002202615F
:101670000868401E0860704700F108014FF0FF3213
:10168000C0E90112C16001610021016070470021C1
:101690000161704730B50B685A1C02D000F1080296
:1016A00002E0026904E02246546825689D42FAD9A6
:1016B00053684B6099608A60516008610168491CF9
:1016C000016030BD42684A6093688B6093685960DE
:1016D000916008610168491C0160704710B5FEF710
:1016E00075FD09484168491CBFF34F8FBFF36F8FE9
:1016F0004160012907D10548006810F0FF0F02D0B2
:10170000FEF764FDFEE710BD3800002004ED00E0A8
:10171000074910B5486830B1401E486006D1BDE8A1
:101720001040FEF75ABDFEF751FDFEE710BD000068
:101730003800002070B500281DD00F4DA0F108041E
:101740006068E968084202D1FEF740FDFEE72268C2
:1017500012B1FEF73BFDFEE78843606000F074F8CD
:1017600060686968084468602046FFF7C3FEBDE80A
:10177000704000F029BB70BD4400002006484FF4C3
:101780007A710068B0FBF1F14FF0E020491E416131
:1017900007210161704700007400002010B5FEF7BA
:1017A0001FFD0C49102809D300F1E02090F8F00348
:1017B0000A78904202D2FEF709FDFEE7064800686B
:1017C000896800F4E060884202D9FEF7FFFCFEE77A
:1017D00010BD0000380000200CED00E004494FF07F
:1017E00080500860BFF34F8FBFF36F8F70470000CA
:1017F00004ED00E01FB500240094019402942346F8
:1018000080220DA10E48039400F09CF8012804D01A
:1018100000280FD1FEF7DAFCFEE7FEF7D7FC0948F7
:101820004FF0FF31816201214161C460BDE81F407A
:1018300000F03CB81FBD000049444C4500000000CA
:10184000DD140008000000200248C16A491CC16282
:101850007047000000000020124810B5C16A11B1A5
:101860000121C16110BD0021C16101690E4AB1FAB7
:1018700081F1C1F11F0101EB810152F821306BB1FF
:1018800002EB810101F108034A6852684A609A42FA
:1018900001D152684A60D168016010BDFEF796FC24
:1018A000FEE70000000000207C0000201CB5194964
:1018B00008780190FF20087008788DF800009DF8E6
:1018C0000000154A00F0500010700720906005E0FD
:1018D0009DF800305B008DF80030401E9DF8003010
:1018E0001B06F5D4000200F4E060906001980870D7
:1018F0000A48016841F470010160016841F07041DB
:101900000160FFF73BFF00205060FEF72DFC002038
:101910001CBD000000E400E03800002020ED00E0E5
:1019200010B5FEF753FC00F09BF918B104494FF0D5
:1019300080500860BDE810400020FEF74EBC00005B
:1019400004ED00E02DE9FF5F5FEA000BDDE90F9099
:101950000E9E15468A4604D0072E05D3FEF736FCA8
:10196000FEE7FEF733FCFEE7A900884610B90846FB
:10197000FFF702FE070019D05C20FFF7FDFD040011
:10198000384611D0A52241462063FEF751FC6FF086
:101990000301206B01EB8501084420F0070778075D
:1019A00007D0FEF713FCFEE7FFF7C4FE4FF0FF344D
:1019B00086E051463546002022180B5C82F8343010
:1019C0000A5C12B1401C1028F6D3002084F84300B2
:1019D000072D00D30625E562C4E913508046201D7B
:1019E000FFF755FE04F11800FFF751FE2461C5F121
:1019F00007016462A161C4F8548084F85880594694
:101A00003846039AFFF716FE2060B9F1000F01D0A7
:101A1000C9F80040FFF762FE2B4DA868401CA86083
:101A20002868DFF8A88010B1686940B32CE02C600A
:101A3000A868012828D1002707EB870108EB81005F
:101A4000FFF71AFE7F1C072FF6D320488C30FFF7D4
:101A500013FE1E48A030FFF70FFE1C48B430FFF7FE
:101A60000BFE1A48C830FFF707FE1848DC30FFF7B6
:101A700003FE16488C3028631430686304E028683D
:101A8000C06AB04200D82C60686A401C686260641A
:101A9000E16A01202A6988401043286101EB810135
:101AA00008EB8100211DFFF70DFE0124FFF730FE3A
:101AB000686928B12868C06AB04201D2FFF78EFE7B
:101AC00004B02046BDE8F09F000000207C0000200C
:101AD0002DE9F0411F4690460D46012690B104467F
:101AE000FFF7FCFD0FB1606D386094F858000221DB
:101AF00084F85810B8F1050F11D2DFE808F010068D
:101B0000090F0D00FEF762FBFEE7616D294301E05E
:101B1000616D491C616502E0022803D065650128FA
:101B200002D01FE000261DE0201DFFF793FD104DA1
:101B3000E06A01212A698140114329610D4900EBC6
:101B4000800001EB8000211DFFF7BCFDA06A10B1F1
:101B5000FEF73CFBFEE7E06A2968C96A884201D9C2
:101B6000FFF73CFEFFF7D4FD3046BDE8F0810000F2
:101B7000000000207C0000202DE9F0471F46DDF822
:101B8000208091460D4604004FF0010614D0FFF767
:101B900005FEFEF71BFB82460FB1606D386094F8BE
:101BA0005800022184F85810B9F1050F11D2DFE86E
:101BB00009F01006090F0D00FEF708FBFEE7616D46
:101BC000294301E0616D491C616502E0022803D0F0
:101BD0006565012802D019E0002617E0A06A10B15F
:101BE000FEF7F4FAFEE7154DE86A0127A0B104F10B
:101BF00018011348FFF766FDE06A2968C96A884240
:101C000004D9B8F1000F01D0C8F800705046FEF7B3
:101C1000E4FA3046BDE8F087201DFFF71BFDE16ABE
:101C20002A6907FA01F01043286101EB8100044999
:101C3000B43901EB8000211DDCE70000000000202A
:101C4000300100200548416919B1C06A18B100206F
:101C500070470120704702207047000000000020FC
:101C60002DE9F0412C4C0026E06A40B1A069401CEF
:101C7000A061E06900B101263046BDE8F081E0686E
:101C8000401CE060E76877B9206B006810B1FEF790
:101C90009DFAFEE7206B616B21636063206A401C44
:101CA0002062FFF74DFCA06ADFF87080874209D3FD
:101CB000206B006880B1206BC068C5686868874287
:101CC0000DD2A0622068C06A00EB800158F82100A4
:101CD0000128CED90126CCE74FF0FF30F1E7281DCF
:101CE000FFF7B8FCA86A18B105F11800FFF7B2FCBD
:101CF000E96A0120226988401043206101EB8101DB
:101D000008EB8100291DFFF7DDFCE86A2168C96A3C
:101D10008842CDD30126CBE7000000207C000020C4
:101D20002DE9F0411D46164688460746FFF7D6FCCA
:101D3000234C206890F8580002281DD02068416D7F
:101D4000B94341652068012780F85870A5B1206823
:101D5000001DFFF77FFC30B9206890F82C00874009
:101D60002069B8432061681C22D0E0682844FFF74E
:101D70004BFB00BFFFF732FDFFF7CAFCFFF7AEFCDD
:101D800016B12068406D3060206890F85800012836
:101D900014D02068416D21EA0801416501252168C0
:101DA000002081F85800FFF7B3FC2846BDE8F08119
:101DB00021680448091DFFF785FCDBE70025EEE7F5
:101DC00000000020580100202DE9F047274C002694
:101DD000E06A38B1FFF782FCE06A401EE062E06A28
:101DE00018B13DE0FEF7F2F9FEE7A168204D0120B1
:101DF00079B3A5F1B40980462868E8B1E868C768F6
:101E000007F11800FFF726FC381DFFF723FCF96ADD
:101E1000226908FA01F01043206101EB810109EB0E
:101E20008100391DFFF74EFCF86A2168C96A8842B3
:101E3000E2D3C4F81C80DFE7A06958B14546A06929
:101E400040B1FFF70DFF00B1E561A069401EA06140
:101E5000F5E705E0E069012802D10126FFF7BEFCA5
:101E6000FFF756FC3046BDE8F08700000000002078
:101E7000300100204000800000010002A81E000880
:101E80000D110008000000000000000080000000AC
:101E9000000000000000000001020304060708091A
:101EA00000000000010203044C45445461736B00C0
:101EB000D01E0008000000207C000000BE120008B8
:101EC0004C1F00087C0000202C110000CE120008DE
:101ED0000000000000000000000000000000000002
:101EE00000000000000000000000000000000000F2
:101EF00000000000000000000000000000000000E2
:101F0000000000000000000000000000AAAAAAAA29
:101F100000000000000000000000000000000000C1
:101F2000000000000000000000000000001C014054
:101F3000001C0140001C0140001C0140000000008A
:0C1F40000000000000A24A0400000000A5
:0400000508000131BD
:00000001FF
