:020000040800F2
:10000000E850002045010008531D00089F18000813
:10001000511D000871040008293300080000000089
:10002000000000000000000000000000D9200008CF
:100030001D05000800000000D7200008DB20000894
:100040005F0100085F0100085F0100085F01000810
:100050005F0100085F0100085F0100085F01000800
:100060005F0100085F0100085F0100085F010008F0
:100070005F0100085F0100085F0100085F010008E0
:100080005F0100085F0100085F0100085F010008D0
:10009000C13200085F0100085F0100085F0100082D
:1000A0005F0100085F0100085F0100085F010008B0
:1000B0005F0100085F0100085F0100085F010008A0
:1000C0005F0100085F0100085F0100085F01000890
:1000D0005F0100085F0100085F0100085F01000880
:1000E0005F0100085F0100085F0100085F01000870
:1000F0005F0100085F0100085F0100085F01000860
:100100005F0100085F0100085F0100085F0100084F
:100110005F0100085F0100085F0100085F0100083F
:100120005F0100085F0100085F0100085F0100082F
:10013000DFF80CD000F02AF800480047D939000851
:10014000E85000200648804706480047FEE7FEE7E3
:10015000FEE7FEE7FEE7FEE7FEE7FEE7FEE7FEE777
:10016000612100083101000840EA01039B0703D028
:1001700009E008C9121F08C0042AFAD203E011F8E6
:10018000013B00F8013B521EF9D27047064C074D67
:1001900006E0E06840F0010394E807009847103457
:1001A000AC42F6D3FFF7C8FF7070000890700008EB
:1001B00070B58C1810F8015B15F0070301D110F829
:1001C000013B2A1106D110F8012B03E010F8016B56
:1001D00001F8016B5B1EF9D12B0705D40023521ED9
:1001E0000DD401F8013BFAE710F8013BCB1A921C41
:1001F00003E013F8015B01F8015B521EF9D5A1423F
:10020000D8D3002070BD000070B50A4E00243568B8
:10021000306007E000F0ECF882B2A1B2002000F0FC
:10022000A3F8641C00F0EAF8A042F3D8A8B230604A
:1002300070BD0000D0070020074B30B49B68DD88FC
:100240001C689B88DB1DDB08203A534305FB0342F7
:1002500030BC01F025BB0000D00700202DE9F0479D
:100260000446002799468A461546B846104601E0DE
:1002700008F1010810F8011B0029F9D100F0B8F8C5
:100280001C4E4A46B9F1010FB1688988B0FBF1F004
:1002900002D0022A17D105E0A0EB0800484304EB86
:1002A000500003E0A0EB08004843001B84B20AE0C2
:1002B00051462046FFF7C0FFB0687F1CBFB2808860
:1002C0006D1C204484B200F093F80146B068808829
:1002D00007FB101189B2814201D3012000E0002008
:1002E0002A780AB1012100E000210842E0D1BDE8EE
:1002F000F0870000D0070020054A03239268D288C7
:10030000424390B20A4601460020FFF7A7BF000013
:10031000D007002070B50D460646508A117D144660
:1003200040EA0140D18A127E41EA02418BB282B298
:100330002946304601F022FC0A480068036B1BB1D5
:10034000224629463046984700F058F884B200F01B
:100350004FF82346BDE8704082B20021084601F004
:100360000DBC0000380000202DE9F04106460F4882
:1003700000240F4F006815468846D0F820C0BCF115
:10038000000F0FD0134638880A463146BDE8F041C9
:1003900080B260473888414682B2301980B201F09D
:1003A000EFFA641CAC42F5D3BDE8F08138000020C0
:1003B000D00700202DE9F041064609480F461C46AB
:1003C0000188154689B201603946781C87B22A46F1
:1003D0003046FFF7C9FF641EA4B2F5D2BDE8F08134
:1003E000D00700200148806870470000D007002037
:1003F00001480068806A0047380000200148006812
:10040000C06A00473800002070B50D4C4FF6FF70F1
:10041000012660600B48A0600B4D002020606868DA
:100420008047A0F51341253907D10648001F056014
:100430002868804703480026A060304670BD000051
:10044000D00700203C000020000000200149486047
:1004500070470000D0070020014988607047000005
:10046000D00700200149086070470000D007002035
:10047000FEE70020704700207047000010B5002202
:100480000549064801F060FF03490448091F01F0CF
:1004900055FF002010BD00006C000020DC0700208C
:1004A0002DE9F041054608680E46401C03F0EAFAC3
:1004B00004460D4801F026FF0746002004E000BF77
:1004C00015F8011B2154401C31688142F8D80021E5
:1004D0002154214605A002F029FF7DB2204603F0F9
:1004E00031F82846BDE8F081DC07002025730A00BA
:1004F000094A10B5D2F81822D2F814220AB1012004
:1005000010BD0A460146044801F01EFFBDE8104038
:10051000014801F059BF0000DC0700207047FEE7EA
:1005200070B5B3F5804F05D06FF0704140F82210E0
:10053000002070BD8C690B68F025234395FAA5F562
:100540004C68B5FA85F5AC404FF47F4696FAA6F6AE
:100550008D68B6FA86F6B5402C4323434FF47024D9
:10056000C96894FAA4F4B4FA84F4A1400B4350F897
:100570002210034C21400B4340F82230D8E7000002
:100580000000F0CF30B50A6850F8223023F00103A4
:1005900040F822308C68204B4A68082C1ED0224339
:1005A000D1E903452C4322434C6922438C69224301
:1005B000CC6922430C6A22434C6A22438C6A224350
:1005C000CC6A22430C6B0968224350F821401C403E
:1005D00052EA040240F82120002030BDD1E9034551
:1005E00042F008022C4322434C6922438C69224387
:1005F000CC6922430C6A22434C6A22438C6A224310
:10060000CC6A22430C6B0968224350F821401C40FD
:10061000224342F04002DDE78100F7FF70B5F0258C
:10062000D1E9003495FAA5F5B5FA85F5AC40234338
:100630004FF47F4595FAA5F58C68B5FA85F5AC4081
:100640004FF4702696FAA6F6CD68B6FA86F6B5404F
:100650002C4323434FF470050C6995FAA5F5B5FAC0
:1006600085F5641EAC4023434FF070654C6995FAE4
:10067000A5F5B5FA85F5A41EAC408969234300EBC6
:1006800082000B43416801F040410B43436000206E
:1006900070BD31B500F03CF9044600F039F900991D
:1006A000001B8842F9D338BD30B5174885B00168C2
:1006B000002927D1012101601448416941F480716A
:1006C00041614069022400F4807004904FF680700C
:1006D000CDE900040325694603950D4800F01EF896
:1006E0004CF23370CDE9000469460395094800F0E7
:1006F00015F84FF48150CDE900046946039506488A
:1007000000F00CF805B030BDA4000020001002403D
:100710000018014000140140002001402DE9F84F6D
:10072000DFF8B8A100220AF1040B144601274FF0AC
:100730000F090BF1040E00BF0B6807FA04F52B40FC
:10074000AB4274D1DFF898C14E68A6EB0C08664541
:100750002BD00DDC032E34D005DC36B3012E19D09E
:10076000022E2FD11BE0112E16D0122E2AD119E005
:10077000B8F5881F19D006DCB8F5803F15D0B8F55C
:10078000801F1FD111E0B8F5001F0ED0B8F5041F6F
:1007900018D10AE0CA6815E0CA68121D12E0CA68DA
:1007A00008320FE0CA680C320CE08A682AB1012ACC
:1007B0004FF0080203D0456104E0042202E0056125
:1007C00000E00022FF2B01D8064601E000F10406FC
:1007D0004FEA840501D9A5F12005D6F800C009FA31
:1007E00005F82CEA080C02FA05F54CEA050CC6F8E7
:1007F00000C04D68ED006AD53A4DAE6946F001067D
:10080000AE61AD6924F0030605F001050095364D93
:1008100006EB050CDCF80850A6074FEA167809FA33
:1008200008F6B543314EB04202D100261AE04EE040
:100830002F4EB04201D1012614E02E4EB04201D11C
:1008400002260FE02C4EB04201D103260AE02B4EC7
:10085000B04201D1042605E0294EB04201D105265F
:1008600000E0062606FA08F62E43CCF808604D682C
:10087000DAF80060ED03554601D51E4300E09E43C3
:100880002E604D68AD0305D5DBF800601E43CBF844
:10089000006004E0DBF800509D43CBF800504D6849
:1008A000DEF80060ED02754601D51E4300E09E4370
:1008B0002E604D68AD0205D5084D0C352E681E43DF
:1008C0002E6004E0054E0C3635689D433560641C8F
:1008D000102CFFF431AFBDE8F88F00000004014098
:1008E000000011100010024000000140000801400B
:1008F000000C0140001001400014014000180140AC
:10090000001C01400AB1016170470904FBE70000C7
:100910000148006870470000AC00002002480168F0
:10092000491C016070470000AC000020074810B56A
:10093000016841F010010160032000F087F80020F9
:1009400000F006F800F016F8002010BD002002406C
:1009500010B5044600F048FC4FF47A71B0FBF1F09A
:1009600000F085FF00222146501E00F04FF80020C5
:1009700010BD00001D4808B5816941F00101816189
:10098000806900F001000090032000F05FF8002271
:1009900011466FF00B0000F039F8002211466FF09D
:1009A0000A0000F033F8002211466FF0090000F051
:1009B0002DF800221146501F00F028F800221146A1
:1009C000101F00F023F800221146901E00F01EF8C0
:1009D00000221146501E00F019F80548416821F028
:1009E000E06141F08061416008BD000000100240FC
:1009F0000000014000F01F020121914040098000E9
:100A000000F1E020C0F8001170470000F0B40E4B78
:100A10001B680C46C3F30223C3F10705042D00D95C
:100A20000425191D072901D2002300E0DB1E012641
:100A300006FA05F1491E214099409E40761E164057
:100A40003143F0BC01F086B90CED00E0064900F03E
:100A5000070208684FF6FF03184040EA0220034AE5
:100A600010430860704700000CED00E00000FA053C
:100A700010B50C0605D501F07F0100EB41102830C0
:100A800003E000EB411000F5027099B232B101228F
:100A90008272C180190C0181002010BD0022827277
:100AA0008180F9E7704700EB4112D0F81C04D26B4B
:100AB00001F016BE00EB4112D0F81C04D2F81C2243
:100AC00001F063BE10B504460A460B0601F07F0034
:100AD00004EB401101D5283101E001F502710870E5
:100AE000D009487094F8E803012809D0012084F85F
:100AF000E803206802F006FA002084F8E80310BD3D
:100B0000022010BD70B50A460446090602F07F00B7
:100B100003D504EB4011283103E004EB421101F549
:100B2000027100258D700870D009487094F8E803B0
:100B3000012809D0012084F8E803206802F08AFA2D
:100B400084F8E853002070BD022070BD01F07F01E1
:100B500000EB4110B0F8240280B2704770B5044633
:100B60000D460E0601F07F0004EB401101D528313F
:100B700001E001F502710870E80948700A61CB7064
:100B800094F8E803012809D0012084F8E8032068DC
:100B900002F088F8002084F8E80370BD022070BDE0
:100BA00070B504460E4601F07F0004EB401101F5DC
:100BB000077100252CC101F81F5C01F8200D94F885
:100BC000E80301280AD0012084F8E80370062068B1
:100BD00002F09AFA84F8E853002070BD022070BD3C
:100BE00070B50D460446090605F07F0003D504EBF9
:100BF0004011283103E004EB451101F50271012297
:100C00008A700870E809487094F8E803012807D052
:100C100084F8E823206802F052FA680602D006E061
:100C2000022070BD04F57B71206802F011FA0020EB
:100C300084F8E80370BD70B504460E4601F07F00ED
:100C400004EB40113C3100252CC1012201F81F2C7E
:100C500001F8200D94F8E803012809D084F8E8236E
:100C60007006206802F050FA84F8E853002070BD46
:100C7000022070BD10B50446006802F027FB000496
:100C800002D5204601F076F8206802F01FFB4005EF
:100C90000CD5206830F8441F21F480610180204683
:100CA00000F0ECF80021204600F0FDF8206802F08A
:100CB0000DFB400405D5206830F8441F21F4804125
:100CC0000180206802F002FB800405D5206830F81E
:100CD000441F21F400510180206802F0F7FAC0049B
:100CE00013D5206830F8401F21F0040101802168ED
:100CF0004FF43D40A1F84000204600F0CCF82068B9
:100D000030F8441F21F480510180206802F0DEFA9F
:100D100000051AD5206830F8441F21F400610180D5
:100D2000206830F8401F41F008010180206830F849
:100D3000401F41F004010180206802F0C7FAC0435F
:100D4000C00402D5204600F0E3F8206802F0BEFAA5
:100D5000800508D5206830F8441F21F40071018017
:100D6000204600F09CF8206802F0B0FAC00505D5D6
:100D7000206830F8441F21F48071018010BD00000C
:100D80002DE9F04186B004004FF0000504D094F83E
:100D9000E903002620B108E0012006B0BDE8F0819B
:100DA00084F8E863204600F04BF8032084F8E90358
:100DB000206802F046F904F11001142288466846C2
:100DC000FFF7D2F994E80F0002F09AF800212068AA
:100DD00002F08FFA5FF0010704EB451080F82970EC
:100DE00000F8285F8581C670066146616D1C8661CA
:100DF0000F2DF1D35FF0000004EB401181F8096280
:100E000081F80802888681F80B62C1F81862C1F87F
:100E10001C62401CC1F820620F28EDD31422414609
:100E20006846FFF7A1F994E80F0002F001F984F891
:100E3000246084F8E973206802F0F8F80020ACE739
:100E400008B500680B49884212D10B48C16941F4CA
:100E50000001C161C069002200F400000090114649
:100E60001420FFF7D3FDBDE808401420FFF7C2BDF2
:100E700008BD0000005C00400010024010B50446B0
:100E80000121D0F81C0401F04BFDD4F81C04BDE88E
:100E9000104001F014BDD0F81C0401F02FBDD0F8B3
:100EA0001C0401F031BD10B5044690F8E803012898
:100EB0000BD0012084F8E80384F82410206802F0A5
:100EC0001AFA002084F8E80310BD022010BDD0F803
:100ED0001C2400F57B71104601F02CBD10B50446B2
:100EE00090F8E803012810D0012084F8E8030146B7
:100EF0002046FFF7D7FD206802F096F8206802F040
:100F0000D8F9002084F8E80310BD022010BD0000CD
:100F100010B50446D0F81C0401F047FDA069002874
:100F200004D00348016841F00601016010BD0000D3
:100F300010ED00E02DE9F84305460078454CC00768
:100F400074D0E06940F08050E061E069424E00F00A
:100F500080500090306840F480703060FFF7D8FC1B
:100F6000074604E0FFF7D4FCC01B642833D8306880
:100F7000C005F7D5206A10F4407051D0A98801F45B
:100F8000407181424CD0206A0126310491FAA1F2CD
:100F9000B2FA82F29300314A20F440701344C3F84D
:100FA000006491FAA1F1B1FA81F102EB8101002311
:100FB000C1F800342062C00732D0FFF7A9FC074611
:100FC00041F288394FF0020808E000BFFFF7A0FCAB
:100FD000C11B494502D90320BDE8F88398FAA8F15E
:100FE000B1FA81F141F040014046B6EB511F01D109
:100FF00021680BE090FAA0F1B1FA81F141F04001D3
:10100000B0EB511F01D1216A00E0616A98FAA8F0A3
:10101000B0FA80F000F01F0206FA02F00142D5D0CB
:10102000206A696820F440700843206228788007AD
:1010300005D56068A96820F44040084360602878BE
:10104000C00605D56068696920F4800008436060C7
:101050000020C1E700100240007000400000424242
:101060002DE9F047DFF8708105460E46D8F80000FC
:1010700000F00700B0420CD2D8F8001021F00701B0
:101080003143C8F80010D8F8000000F00700B04263
:1010900077D12878514C800705D56068A96820F081
:1010A000F000084360602878C00759D069680120C3
:1010B00001290DD0022929D05FF0020393FAA3F28F
:1010C000B2FA82F242F02002520904D0226803E010
:1010D0004FF40033F2E7626A93FAA3F3B3FA83F3AF
:1010E00003F01F03984002424BD0606820F00300D9
:1010F00008436060FFF70CFC6968074641F28830DE
:1011000001290DD00229814617D025E04FF0007348
:10111000D4E700BFFFF7FCFBC11B494501D918E02C
:1011200081466068C0F381000128F3D118E000BF58
:10113000FFF7EEFBC11B49450BD86068C0F3810087
:101140000228F5D10CE000BFFFF7E2FBC11B4945C7
:1011500002D90320BDE8F087606810F00C0FF3D1CE
:10116000D8F80010404601F00701B1420BD90168E0
:1011700021F0070131430160006800F00700B04230
:1011800001D00120E6E72878400705D56068E968C6
:1011900020F4E060084360602878000706D56068A6
:1011A000296920F4605040EAC100606000F022F834
:1011B0006168F02292FAA2F201F0F001B2FA82F232
:1011C000D140074A515CC840064908600020FFF73B
:1011D000BFFB0020BEE700000020024000100240DC
:1011E000607000085400002001480068704700004B
:1011F0005400002010B519A385B00FCB8DE80F0067
:101200001AA01B4B006804905A681A4802F00C019F
:1012100004291DD008291BD14FF4701494FAA4F4AA
:1012200002F47011B4FA84F4E140D2031DF8011005
:1012300010D55A684FF4003393FAA3F302F4003246
:10124000B3FA83F3DA4004AB9A5CB0FBF2F04843A4
:1012500005B010BD08484843FAE700000203040542
:10126000060708090A0B0C0D0E0F101001020000F2
:101270000010024000127A0000093D002DE9F84FED
:1012800004460078F74DC0074FF0010625D0686886
:101290007704C0F38100012807D06868C0F381009B
:1012A00002281BD16868C00318D597FAA7F0B0FAD6
:1012B00080F040F02000400901D0286800E0686A12
:1012C00097FAA7F1B1FA81F101F01F0106FA01F1D5
:1012D00008425ED0606800287CD05AE06068B0F5B3
:1012E000803F0BD010B1B0F5A02F11D0286820F4AA
:1012F00080302860286820F4802002E0286840F4CC
:1013000080302860606828B3FFF702FB80460BE05E
:10131000286840F480202860F0E700BFFFF7F8FA63
:10132000A0EB0800642871D897FAA7F0B0FA80F013
:1013300040F02000400901D0286800E0686A97FA70
:10134000A7F1B1FA81F101F01F0106FA01F108429B
:10135000E4D01EE0FFF7DCFA804605E0FFF7D8FA9C
:10136000A0EB08006428DED897FAA7F0B0FA80F066
:1013700040F02000400901D0286800E0686A97FA30
:10138000A7F1B1FA81F101F01F0106FA01F108425B
:10139000E4D12078DFF8D08280074FF000094FF0C9
:1013A00002075BD568684FF0F80B10F00C0F07D000
:1013B0006868C0F3810002281CD16868C00319D492
:1013C00097FAA7F0B0FA80F040F02000400902D070
:1013D000286801E08BE0686A97FAA7F1B1FA81F119
:1013E00001F01F0106FA01F108422CD02069012802
:1013F0007DD128E0206990B396FAA6F0B0FA80F08B
:1014000048F82060FFF784FA824607E011E100BF48
:10141000FFF77EFAA0EB0A00022884D897FAA7F01B
:10142000B0FA80F040F02000400901D0286800E0C8
:10143000686A97FAA7F1B1FA81F101F01F0106FA83
:1014400001F10842E4D028689BFAABF26169B2FA74
:1014500082F220F0F80091400843286025E0FFE781
:1014600096FAA6F1B1FA81F148F82190FFF750FA07
:10147000824605E0FFF74CFAA0EB0A000228CCD820
:1014800097FAA7F0B0FA80F040F02000400901D0B0
:10149000286800E0686A97FAA7F1B1FA81F101F0D3
:1014A0001F0106FA01F10842E4D1207800076ED549
:1014B000A069B8B396FAA6F0B0FA80F008EB800005
:1014C000C0F88064FFF724FA824605E0FFF720FAAF
:1014D000A0EB0A000228A0D897FAA7F0B0FA80F093
:1014E00040F06000B6EB501F02D128680CE062E1CA
:1014F00097FAA7F0B0FA80F040F06000B7EB501F09
:1015000001D1286A00E0686A97FAA7F1B1FA81F17F
:1015100001F01F0106FA01F21042D7D00120FFF7B7
:10152000B8F834E0FFE796FAA6F1B1FA81F108EBDA
:101530008101C1F88094FFF7EBF9824606E000BF15
:10154000FFF7E6F9A0EB0A00022872D897FAA7F095
:10155000B0FA80F040F06000B6EB501F01D128686F
:101560000BE097FAA7F0B0FA80F040F06000B7EB1C
:10157000501F01D1286A00E0686A97FAA7F1B1FA12
:1015800081F101F01F0106FA01F21042D8D1207852
:10159000400765D5E86940F08050E861E869DFF808
:1015A000CCB000F080500090DBF8001041F4807166
:1015B000CBF80010FFF7ACF9824605E0FFF7A8F979
:1015C000A0EB0A00642834D8DBF80000C005F5D58C
:1015D000E06801280AD008B1052813D0286A20F055
:1015E00001002862286A20F0040002E0286A40F026
:1015F00001002862E06841F2883B90B3FFF788F968
:1016000082460BE0286A40F004002862EEE700BF43
:10161000FFF77EF9A0EB0A0159450AD897FAA7F01F
:10162000B0FA80F040F04000B6EB501F02D12868BD
:101630000CE0A3E097FAA7F0B0FA80F040F0400089
:10164000B7EB501F01D1286A00E0686A97FAA7F14A
:10165000B1FA81F101F01F0206FA02F10842D7D077
:1016600031E005E0001002400000424200700040FE
:10167000FFF74EF9824605E0FFF74AF9A0EB0A01B1
:1016800059457BD897FAA7F0B0FA80F040F04000B7
:10169000B6EB501F01D128680BE097FAA7F0B0FA1B
:1016A00080F040F04000B7EB501F01D1286A00E005
:1016B000686A97FAA7F1B1FA81F101F01F0206FA00
:1016C00002F10842D8D1E06980B36968C1F38101B1
:1016D000022970D04FF080714F000228484609D08F
:1016E00091FAA1F1B1FA81F148F82100FFF710F960
:1016F000044669E08A4691FAA1F1B1FA81F1C14646
:1017000048F82100FFF704F9804605E0FFF700F9EB
:10171000A0EB0800022854D897FAA7F0B0FA80F09E
:1017200040F02000400902D0286801E061E0686ACA
:1017300097FAA7F1B1FA81F101F01F0106FA01F160
:101740000842E3D1206AB0F5803F05D16868A168FE
:1017500020F4003008436860D4E908010843696850
:1017600021F47411084368609AFAAAF0B0FA80F084
:1017700049F82060FFF7CCF8044606E021E000BFFE
:10178000FFF7C6F8001B02281BD897FAA7F0B0FA9B
:1017900080F040F02000400901D0286800E0686A2D
:1017A00097FAA7F1B1FA81F101F01F0106FA01F1F0
:1017B0000842E5D01DE01EE0FFF7AAF8001B022852
:1017C00002D90320BDE8F88F97FAA7F0B0FA80F0AD
:1017D00040F02000400901D0286800E0686A97FACC
:1017E000A7F1B1FA81F101F01F0106FA01F10842F7
:1017F000E2D10020E6E70120E4E770B515460E4689
:10180000040003D094F83D0010B107E0012070BD42
:10181000002084F83C00204600F01AF804F108018A
:101820002068FEF7AFFE3146A2682068FEF7F6FE9C
:10183000D4E901022946236BFEF772FEA1682068F5
:1018400050F8212042F0010240F82120002070BD14
:10185000FEF72ABF4FF0E0210428086903D020F0EA
:1018600004000861704740F00400FAE7704710B5C3
:10187000401EB0F1807F01D3012010BD4FF0E02465
:1018800060610F21601700F065FA0020A061072059
:101890002061002010BD10B5FFF7E8FF10BDFEE786
:1018A0002DE9F74FDFF8D0A04FF0360BAAF55A79A3
:1018B000DAF8080000252A468188C488C81D04FB80
:1018C00001F30BEB4306A9F80260360CA9F804609B
:1018D000A9F80AB0A9F81210A9F8145020F00703CB
:1018E000A9F816405B1AA9F8185003F0FF084FF04A
:1018F000010E37E0029BC60806FB05330326B6EB54
:10190000D00F06D11A785E78120442EA06229E7839
:1019100032430226B6EBD00F01D11A8852BABEEB81
:10192000D00F00D11A78002319E0661B761E06FB43
:1019300001370BEB4706CF1A07EB080CACF1010C93
:101940000EFA0CF7174202D0BAF8007001E0BAF8AC
:10195000047009F806703F0A4E445B1C77708B4296
:10196000E3D36D1CA542C5D3DDE9000103B0034AF2
:10197000BDE8F04FFEF7CEBCD00700206804002081
:10198000034B1B685B69002B00D0184770470000B1
:101990003800002010B50C4C012211462046FEF7FD
:1019A000B1FF002202212046FEF7ACFF6420FEF7C3
:1019B00070FE012202212046FEF7A4FFBDE8104080
:1019C0004FF49670FEF765BE000C0140002906D06A
:1019D000034A00BF30F8023B1380891EFAD17047DA
:1019E0000000016F08484FF4FC6101610021818013
:1019F000C180018141818181012202704170817029
:101A0000C170C18170470000C801002010B5FFF708
:101A1000E9FFBDE810400020FEF7F6BB70B50646B2
:101A20001948FEF719FD1F20FEF71CFDFEF7E0FC2C
:101A300084B2FEF7E3FC144DEA88801A001F121DE1
:101A400081B293B222460020FEF7B4FC4FF6FF703D
:101A5000FEF708FD1F20FEF7F9FCFEF7CFFCE98832
:101A60000123401A81B232460020FEF7F7FB002026
:101A7000FEF7ECFC4FF4FC60FEF7F4FCBDE87040B0
:101A80000248FEF7E9BC0000440000204C000020A2
:101A900070B506461548FEF7DFFC1F20FEF7E2FC96
:101AA000FEF7A6FC114C82B24FF6FF75E0880021CC
:101AB00005EA40030846FEF77DFC2846FEF7D2FC07
:101AC0001F20FEF7C3FCE0880123410832460020B6
:101AD000FEF7C4FB0020FEF7B9FC4FF4FC60FEF7F4
:101AE000C1FCBDE870400248FEF7B6BC44000020CF
:101AF0004C0000202DE9F0411E4E00243046318973
:101B0000C0881D4D082915D2814213D301EB411025
:101B100005EB8000B0F8800080B2FEF7A3FC3089AE
:101B200000EB401105EB8101BDE8F041001D80B2E2
:101B3000FEF7E2BB814201D26D3189B208398EB223
:101B40004FF06D08A119B1FBF8F208FB121000EB81
:101B5000401005EB8007B7F8800080B2FEF782FCEA
:101B60003946201DFEF7C8FB641CE4B2092CE9D3FA
:101B7000BDE8F081C8010020B410002030B4054C4D
:101B80002468E469002C02D0A44630BC604730BC15
:101B9000704700003800002000B5184887B04FF0AB
:101BA0002041016016494160062181600021102218
:101BB000C160C0E904128161C16113020162C0E920
:101BC0000913C1620163416381630F20FF23009009
:101BD000CDE90103CDE903021120CDE90501002281
:101BE00069460648FFF709FE08B1FEF798FC05486C
:101BF000C16941F48061C16107B000BD701000206F
:101C0000040100A0000001402DE9F0473D4886B0E6
:101C1000816941F040018161816901F040010491D5
:101C2000816941F010018161816901F01001049125
:101C3000816941F008018161816901F00801049125
:101C4000816941F020018161816901F020010491E5
:101C5000816941F480718161816901F4807104912D
:101C6000816941F0040181618069274F00F004001F
:101C70000490012204213846FEF744FEDFF88C80F0
:101C8000002210214046FEF73DFEDFF8849000223E
:101C900003214846FEF736FE0122DFF878A05603FE
:101CA00031465046FEF72EFE04200124CDE9000403
:101CB0000225694603953846FEF730FD1020CDE930
:101CC0000004694603954046FEF728FD2020009059
:101CD00000200190029069464046FEF71FFD032058
:101CE000CDE90004694603954846FEF717FDCDE9A6
:101CF0000064694650460395FEF710FD06B0BDE846
:101D0000F087000000100240001801400010014060
:101D1000000C01400020014010B50022084909488C
:101D200000F0BBFC0849074800F063FE074905487E
:101D300000F0FCFABDE81040024800F0A7BE000029
:101D400070000020DC0700209001002058000020D7
:101D5000FEE770470907090E002806DA00F00F00B9
:101D600000F1E02080F8141D704700F1E02080F8B9
:101D7000001470472DE9FC5F4FF000080446ADF8F1
:101D80000480ADF8008048F60F7B4FF002094FF455
:101D9000806692E1BDF8041011F00F072BD030F8E7
:101DA0002710ADF80010BDF80010090478D530F800
:101DB000272040F68F710A4020F8272004EB4715B2
:101DC00095F8120205F502750028206869D0297877
:101DD00030F8212052047DD5B0F8503009EBC10114
:101DE000194406EB4101415AC1F309015FEA010AB6
:101DF00071D0EA88D0E0BDF80410C9062AD4018861
:101E000001EA0B010180206804F12805B0F8502098
:101E10002B7809EBC301114406EB4101405AC0F392
:101E200009006064E16B0844E06300212046FEF78E
:101E30003AFE94F824000028ABD0A8690028A8D165
:101E400094F82400216840F08000A1F84C0084F848
:101E5000248032E1018804F50275ADF80010BDF868
:101E6000001009051ED5B0F850302978062202EB83
:101E7000C101194406EB4101405A04F57B71C0F3DE
:101E80000903EB61AA88206801F024FA2068018820
:101E900040F68F72114001802046FFF718F80CE1E0
:101EA000A0E055E0BDF800100904D2D5028840F644
:101EB0008F710A4002802068B0F8503029780622DD
:101EC00002EBC101194406EB4101405A83059B0D09
:101ED000EB6101E051E063E008D0AA8869692068FD
:101EE00001F0F8F9E9696869084468610021204651
:101EF000FEF7E0FD2068B0F85010891D06EB4101A7
:101F0000014428693E280CD9C0F34F12C00601D104
:101F1000521E92B24FF6FF7000EA822040F4004059
:101F200009E0C0F34F02C00701D0521C92B24FF635
:101F3000FF7000EA82200860216808884BF68F72E3
:101F4000104080F4405048F2800210430880B4E012
:101F5000B0F850202B78062101EBC301114406EBA9
:101F60004101415AC1F309015FEA010A24D0AA885C
:101F70005346696901F0AEF91EE0B0F8502006231F
:101F800003EBC101114406EB4101415AC1F30901C0
:101F90005FEA010A04D02A895346696901F09AF977
:101FA0002978206830F8213048F68F72134048F2C3
:101FB000C002134320F82130E96901EB0A00E8610F
:101FC000696901EB0A026A61AB6913B1286950457E
:101FD00004D929782046FEF76DFD03E029782046D4
:101FE000FEF7DEFDBDF80000000666D5206804EBB4
:101FF000471530F8271001EA0B0120F8271095F853
:10200000320028350028206812D0297830F82120A5
:10201000B0F8503052061ED509EBC101194406EB49
:102020004101405A83059B0DEB6124D0EA881EE0F4
:10203000B0F850302A7809EBC201194406EB41018F
:10204000405A83059B0DEB6121D0AA8869692068FD
:1020500001F057F91BE0062202EBC101194406EB1F
:102060004101405A83059B0DEB6104D02A896969BF
:10207000206801F046F92978206830F8212048F6D8
:102080008F731A404CF280031A4320F821202068F5
:10209000B0F850202B7809EBC301114406EB410145
:1020A000405AC0F30900E86169690A186A61297831
:1020B000AB69204663B1FEF7BEFD2068B0F844105E
:1020C000ADF8041009043FF565AE0020BDE8FC9FA3
:1020D000FEF7E9FCF1E77047704710B5FEF71EFC0C
:1020E000BDE81040FFF7D7BB30B595B0012108041B
:1020F000CDE900100024029402250491CDE9075097
:102100004FF4E01009906846FFF7B8F800B1FEE719
:102110000F20CDE90A054FF48060CDE90C40022183
:102120000AA80E94FEF79CFF00B1FEE7102014945D
:102130000F900FA8FEF7FEFE00B1FEE7FFF754F880
:102140004FF47A71B0FBF1F0FFF791FB0420FFF739
:1021500081FB00221146501EFEF758FC15B030BD21
:102160000D48016841F00101016041680B4A1140CE
:10217000416001680A4A11400160016821F4802130
:102180000160416821F4FE0141604FF41F0181604C
:102190000449C00308607047001002400000FFF8C7
:1021A000FFFFF6FE08ED00E0D0F8180220B1002194
:1021B000C0F81412084670470220704770B50546F3
:1021C000D0F8184200F016FBC4F80C02D5F818023B
:1021D00048B1D5F81C12D4F80402CA6804F503719A
:1021E0009047002070BD022070BD70B504460025E8
:1021F000812100F06EFA0121204600F06AFA822166
:10220000204600F066FAD4F8180250B1D4F81C0247
:1022100004F5067440688047206800F03DFD00200A
:102220002060284670BD10B5D0E9864159B194F8B8
:102230000002FF2807D08B6894F8012221469847B6
:10224000FF2084F80002002010BD00000A21018058
:1022500000487047B80000204321018000487047C3
:10226000080100204321018000487047C40000207D
:1022700043210180004870474C0100202DE9F041C6
:102280000446007C00254FF4007670B34023022200
:102290008121204600F002FB40230222012120463A
:1022A00000F0FCFA082303228221204600F0F6FA0F
:1022B0004FF4077000F0F2FCC4F81802F0B10746C2
:1022C000D4F81C02006880470020C7F81402C7F841
:1022D0001802207CD7F8042290B140230121204627
:1022E00000F0E6FA2846BDE8F081FFE73346022217
:1022F0008121204600F0D2FA3346CEE70125F1E7EE
:102300003346EBE710B5D0F8181269B1027C002A09
:10231000D1F8042205D04023012100F0C9FA0020A1
:1023200010BD4FF40073F7E7022010BD02460220F3
:10233000002902D00020C2F81C127047D0F8180201
:10234000C0F8041200207047D0F81802C0F810221C
:10235000C0F808120020704770B50646D0F8185231
:1023600008780C4610F0600121D0202927D1E2889E
:10237000AAB10006607807D5D6F81C128B682946EA
:102380009847E288294617E085F80002A07985F889
:102390000102E2882946304600F050F80FE0D6F8F6
:1023A0001C12607800228B682146984707E060780D
:1023B0000A2804D103490122304600F059F80020D0
:1023C00070BD0000B400002010B5D0F8181289B11B
:1023D000D1F814220AB1012010BD0122C1F8142243
:1023E000B1F8102293B2D1F80822812100F0E6FA68
:1023F000002010BD022010BD10B5D0F81422526884
:102400009047002010BD134610B50A46002100F089
:102410004FFA002010BD134610B50A46002100F007
:10242000CDFA002010BD10B50446802100F0AFFAAF
:102430002046BDE81040002100F0A9BA10B50323E2
:10244000C0F80821C0F8F431C0F80C2113460A4640
:10245000002100F02DFA002010BD10B50521002349
:10246000C0F8F4111A46194600F022FA002010BDF7
:1024700010B502238261C0F8F431C26113460A46E6
:10248000002100F09BFA002010BD10B504210023AC
:10249000C0F8F4111A46194600F090FA002010BD59
:1024A00010B50A46024903A000F0D4F8004810BD58
:1024B0004010002043444320436F6E66696700006C
:1024C00012200880004870479000002010B50A468E
:1024D000024903A000F0BEF8004810BD40100020E3
:1024E00043444320496E7465726661636500000071
:1024F00004200880004870478C00002010B50A4670
:10250000024903A000F0A6F8004810BD40100020CA
:1025100053544D6963726F656C656374726F6E6955
:102520006373000010B50A46024903A000F092F858
:10253000004810BD4010002053544D3332205669DE
:10254000727475616C20436F6D506F72740000007F
:1025500010B50A46024903A000F07CF8004810BDFF
:1025600040100020303030303030303030303141A9
:1025700000000000F8B5044648880D46010A082905
:102580004BD2DFE801F04A0409174A4A4048D4F820
:102590001012207C0A6832E0207C02260028D4F841
:1025A000140205D0C16A684688470146467041E07A
:1025B000816AF8E7C0B206282FD2DFE800F00308EE
:1025C0000D12171CD4F81012207C4A6817E0D4F8BA
:1025D0001012207C8A6812E0D4F81012207CCA689D
:1025E0000DE0D4F81012207C0A6908E0D4F810122B
:1025F000207C4A6903E0D4F81012207C8A6969467D
:102600009047014616E0207C38B9D4F81402416B9B
:1026100068468847F5E7207C20B129462046FFF729
:1026200002FFF8BDD4F81402016B684688470146E2
:1026300007204870BDF800000028F2D0EA88002A80
:10264000EFD0824200D90246ADF800202046FFF7C5
:102650000FFFF8BD70B5002300281DD004460025EB
:1026600002E06D1CEDB2641C2678002EF9D1022424
:1026700004EB45041480CC545B1C0322CA54002490
:102680005B1C06E0CA545B1CDAB28C54521CD3B2F9
:10269000401C0278002AF5D170BD10B580B1D0F889
:1026A000143213B10023C0F8143209B1C0F810126B
:1026B000012180F8FC11027000F0A0F8002010BD8C
:1026C000022010BD10B5D0F82002FEF71BFA002042
:1026D00010BD10B5D0F82002FEF7F4F9002010BDAF
:1026E0002DE9F0411746044641B1D4F8140242697D
:1026F0008AB394F8FC01032842D043E0D4F8F411E3
:10270000002504F11400022933D1D0E902639E426E
:1027100007D9F31A83609AB239462046FFF77BFE49
:1027200012E04068B0FBF3F103FB1101A1B998423C
:1027300012D3D4F8F81188420ED200221146204656
:10274000FFF769FEC4F8F85100231A4619462046DF
:1027500000F0AEF80DE012E0D4F81402C16829B11F
:1027600094F8FC01032801D1204688472046FFF752
:1027700074FE94F80002012804D184F8005201E0AC
:10278000204690470020BDE8F08170B5154604460C
:1027900041B1D4F8140282693AB394F8FC010328D9
:1027A00024D025E0D4F8F41104F5827003291FD158
:1027B000D0E902218A420BD9531A8360084683422A
:1027C00000D303469AB229462046FFF71CFE0FE0CD
:1027D000D4F81402016929B194F8FC01032801D14D
:1027E000204688472046FFF750FE01E020469047EC
:1027F000002070BDD0F82002FEF7A8B910B51E4920
:102800000446C1F81C04C0F820121C4808600820C7
:102810004860022088600320C86000208861C86189
:1028200008620846FEF7ACFA08B1FDF778FE002210
:10283000D4F820021823114604F50874FEF718F99D
:102840005823002280212068FEF712F9C0230022BD
:1028500081212068FEF70CF94FF4887300220121D2
:102860002068FEF705F94FF480730022822120686A
:10287000FEF7FEF8002010BD200C0020005C004098
:102880000A06D0F8200201F07F0100EB411002D5CA
:1028900090F82A00704790F80A02704710B51C465D
:1028A0001346D0F820022246FEF758F9002010BD4A
:1028B00010B5D0F82002FEF773F9002010BD70B5F6
:1028C0000022044640231146FFF7E8FF40252B462F
:1028D000002280212046C4F81051FFF7DFFF0120BD
:1028E000256284F8FC01D4F8180228B1D4F8140247
:1028F0002179426820469047002070BD90F8FD1174
:1029000080F8FC110020704710B590F8FC110329E5
:1029100004D1D0F81412C96901B18847002010BD54
:1029200001740020704710B5D0F82002FEF7BBFA02
:10293000002010BD70B5044600F50270054600F099
:1029400044F80120C4F8F401B4F80E02C4F8F80108
:1029500094F8080210F01F010AD001290DD00229B5
:1029600010D000F08001204600F011F8002070BD6A
:102970002946204600F08FF8F8E72946204600F067
:1029800071F9F3E72946204600F0FEF8EEE710B5AE
:10299000D0F82002FEF724F9002010BD10B5D0F8C1
:1029A0002002FEF79BFA002010BD90F8FC1180F881
:1029B000FD11042180F8FC110020704710B5D0F8FB
:1029C0002002FEF738F9002010BD0A7802704A781C
:1029D00042708A78CB7802EB032242800A794B79E5
:1029E00002EB032282808A79C97902EB0121C1803E
:1029F00070470246002011B1C2F81412704702203D
:102A0000704710B5D0F8142202241AB1126890470A
:102A100000B90024204610BD70B50E461A4D8978C5
:102A200004462970012928D894F8FC01022802D014
:102A3000032822D105E099B10320616084F8FC01EC
:102A400009E091B1606888420AD0C1B22046FFF720
:102A5000D3FC297861602046FFF7D3FF02280CD011
:102A60002046BDE87040FFF710BD022084F8FC014D
:102A700020466160FFF7C0FCF2E731462046BDE822
:102A80007040FFF7D0BC0000B000002010B5FFF789
:102A900085FF002010BD2DE9F04100264B7801256F
:102AA00032460A2B43D2DFE803F03C584251420839
:102AB00005422A27FFF75EFD63E004468888C8B90F
:102AC000C888B8B9887800F07F0794F8FC0103281B
:102AD00010D084F8FE7139462046FFF724FF2046C7
:102AE000FFF7D3FC1FB1022084F8FC0149E084F811
:102AF000FC5146E020461AE0FFF78EFF41E0CB880C
:102B0000012B14D190F8FC31022B02D0032B0ED1F3
:102B100004E08260012200F1080114E00122011D9D
:102B200011E090F8FC21022A04D0032A02D0FFF71A
:102B30007AFC26E0C560D0F8041209B10321C16017
:102B4000022200F10C01FFF793FC1AE004464888CA
:102B5000012816D1C4F804520BE0044690F8FC0199
:102B6000022801D00328C5D14888012809D1C4F81A
:102B70000422D4F814028268204690472046FFF7CA
:102B800084FC3046BDE8F08170B50D4604462878D7
:102B900000260979C0F34110012806D06878A0B357
:102BA00001281FD003283FD107E0D4F8140229469A
:102BB000826820469047002070BD94F8FC010228EE
:102BC00017D003282CD1688828B921B1802902D0D8
:102BD0002046FFF7DCFED4F814022946826820461E
:102BE000904713E094F8FC01022802D0032817D183
:102BF00003E0C9B180291BD116E06888A0B9480656
:102C000004D02046FFF75EFDE5E703E02046FFF72E
:102C10003CFC09E094F8FC01022807D003280BD003
:102C200029462046FFF7FFFB304670BD4806FBD023
:102C30002046FFF7ACFEF7E7080601F07F0004EB43
:102C4000001501D5143501E005F582752046FFF722
:102C500017FE00B101202860022229462046FFF716
:102C600007FCE1E770B5054690F8FC010C46032827
:102C70000DD1207901280AD8D5F814028268284697
:102C80009047E08830B92846FFF7FFFB02E028466E
:102C9000FFF7C9FB002070BD704700000048704777
:102CA000000A00202DE9F047CC780A7848F68F1307
:102CB00034B1012C6DD0022C08D0032C13D10BE0C1
:102CC00030F822401C4044F400730AE030F82240FF
:102CD0001C4020F8224006E030F822401C4044F41A
:102CE000C06320F822300C7830F8245048F68F72F8
:102CF000154048F280031D43254320F824508D7A67
:102D000048F6BF7904274BF68F7A48F2C0044CF29C
:102D10008006EDB30D7830F825C048F280180CEA33
:102D2000020C4CEA080C20F825C0CD88B0F850C041
:102D300025F0010591F800800CEBC80C00EB4C0C61
:102D4000CCF800540D89B0F850C025F0010591F879
:102D5000008007EBC807674400EB4707C7F800543B
:102D60004D78002D0D7830F825704FEA47477DD01B
:102D7000002F05DA30F825701740374320F825700A
:102D80000D7830F825707F0608D530F8257001E001
:102D900024E01DE01740274320F825700C7830F818
:102DA00024501540354320F824500C7830F8242066
:102DB00002EA09021A4320F824200A7830F8221087
:102DC00001EA0A01194320F822100020BDE8F0872B
:102DD00030F822401C4044F4806382E74D78F5B11E
:102DE0008D88B0F8506025F001050F7806EBC70616
:102DF00000EB4606C6F800540D7830F825607606DC
:102E000005D530F825601640264320F825600A785D
:102E100030F8221001EA090181F02001D2E78C8804
:102E2000B0F8505024F0010491F800C007EBCC0733
:102E30003D4400EB4505C5F80044B0F850400D781E
:102E4000062707EBC5052C4400EB44070C694FF639
:102E5000FF7C07F580673E2C0CD9C4F34F15E406C0
:102E600001D16D1EADB20CEA852400E01EE044F4F1
:102E7000004407E0C4F34F05E40701D06D1CADB278
:102E80000CEA85243C600C7830F824506D0405D59C
:102E900030F824501540354320F824500A7830F893
:102EA000221001EA0A0181F440518BE7002F05DA74
:102EB00030F825701740374320F825700D7830F82A
:102EC0002560760605D530F825601640264320F8A3
:102ED00025600E7830F826501540254320F82650FE
:102EE0000C7830F8242002EA0A0282F440521A4395
:102EF00020F824200A7830F8221001EA090161E75D
:102F0000002070472DE9F04391F80A8091F801C044
:102F10000A7848F6BF774BF68F7948F2800348F27B
:102F2000C0054CF2800648F68F74B8F1000F2ED021
:102F3000BCF1000F30F822C04FEA4C4C4ED0BCF12F
:102F4000000F07DA30F822C00CEA040C4CEA060C39
:102F500020F822C00A7830F822C05FEA4C6C07D50E
:102F600030F822C00CEA040C4CEA050C20F822C010
:102F70000A7830F822502540354320F822500C784A
:102F800030F824203A401A4320F824201BE0BCF1FA
:102F9000000F0ED030F82260760605D530F822609A
:102FA00026402E4320F822600A7830F8221039405B
:102FB0000EE030F822506D0405D530F8225025403F
:102FC000354320F822500A7830F8221001EA09012E
:102FD000194320F822100020BDE8F083BCF1000F57
:102FE00007DA30F822C00CEA040C4CEA060C20F890
:102FF00022C00A7830F82260760605D530F82260C3
:1030000026402E4320F822600E7830F826202240F9
:103010002A4320F826200C7830F8242002EA0902FE
:103020001A4320F82420BFE7002070470020704793
:10303000012120F8401F0021018081800182084683
:10304000704730F8401F21F43D4101800020704757
:103050000020704730B54D780A78002D48F68F74FF
:1030600030F8225048F2800312D06D0607D530F8B0
:103070002250254048F2C004254320F822500A7807
:1030800030F8221048F6BF74214081F0300111E081
:103090006D0407D530F8225025404CF280042543BA
:1030A00020F822500A7830F822104BF68F74214015
:1030B00081F44051194320F82210002030BD10B592
:1030C0000A7848F2800352B14978002930F822107A
:1030D00010D048F6BF74214081F010010FE0018844
:1030E0004BF6BF72114081F4805181F010011943F9
:1030F000018007E04BF68F74214081F48051194321
:1031000020F82210002010BD2DE9F0410D460646A2
:10311000896995F801C00023AA7A022728690C461C
:1031200048F28008BCF1010F05D0814252D9044613
:10313000081AA8614FE0814203D90446081AA86121
:1031400000E0AB617AB1287836F820104906B6F86D
:10315000501007EBC000084406EB4000C0F80044E4
:1031600012D52A8911E0A3B2AA883046696900F015
:10317000C8F8B6F85000297807EBC101084406EBFF
:103180004000C0F800441CE0EA88A3B230466969F8
:1031900000F0B7F8687848F68F7110B1012807D0B1
:1031A0000FE0287836F820200A4048F2C00105E0F8
:1031B000287836F820200A404CF280010A4326F88D
:1031C0002020297836F8210048F6BF72104080F0A0
:1031D000300067E0AB6106234FF6FF701AB1BCF117
:1031E000000F1BD056E0B6F850102A783E2C03EBA7
:1031F000C202114406EB410202F5806239D9C4F3E0
:103200004F11E30632D000BF00EA812040F40040B5
:1032100002E000BF00EA812010603BE0B6F85010E9
:103220002A783E2C07EBC202114406EB410202F55C
:1032300080620BD9C4F34F115FEAC46C01D1491EFF
:1032400089B200EA812141F4004108E0C4F34F0152
:103250005FEAC47C01D0491C89B200EA8121116077
:1032600069780029BFD001290AD013E0491E89B22C
:10327000CAE7C4F34F01E307CCD0491C89B2C9E7C0
:10328000B6F85000297807EBC101084406EB40006E
:10329000C0F80044297836F821004BF68F721040B0
:1032A00080F4405040EA080026F821000020BDE8E4
:1032B000F08130F8401F41F43D410180002070470B
:1032C0000148FDF7D7BC0000200C0020B0F84400F6
:1032D000704700005B1C00EB42005B0800F580605B
:1032E00006D000BF30F8042B21F8022B5B1EF9D169
:1032F00070470020704711B98021A0F84C100020C1
:10330000704710B55B1C00EB42005B0800F5806065
:1033100009D011F8012B5B1E11F8014B42EA04227F
:1033200020F8042BF5D110BDFEE700000FB4054BCB
:1033300010B503A9044A029800F017F810BC5DF814
:1033400014FB000041340008DC01002002E008C842
:10335000121F08C1002AFAD170477047002001E00F
:1033600001C1121F002AFBD170472DE9F84F994681
:10337000924688460546002706E025280AD0514691
:103380004A4690476D1C7F1C28780028F5D13846A6
:10339000BDE8F88F002315F8011F18462E2915D116
:1033A00015F8011F04232A290DD06FF02F02297868
:1033B000A1F13004092C09D800EB800002EB400099
:1033C00008446D1CF3E758F8040B6D1C2A78002A9A
:1033D000DDD0632A07D0732A0FD0104651464A46E3
:1033E00090477F1C2AE018F8042B8DF8002000215C
:1033F0008DF801106E46012103E058F8046B4FF080
:10340000FF315A074FF0000401D409E0641C8442E4
:103410000BDA8C42FADB325D002AF7D105E0641C3E
:103420008C42FCDB305D0028F9D1274404E016F81B
:10343000010B51464A469047641EF8D26D1CA3E723
:103440002DE9F05F0646FCF7CDFF3C4C0546A07821
:10345000002870D160784FF00009012809D1A089B7
:1034600020816089E08084F8019084F80390A4F8BA
:103470000E90FCF7BDFFA988B4F80480B0FBF1F111
:103480002F48F7B241450DD90A2E0BD0218901EB07
:10349000411100EB810000F8087008F10108A4F860
:1034A000048048E0E1882289914203D322782AB13E
:1034B00084F800904FF0200B824613E0491C89B23B
:1034C000E1806D29F6D1A4F80690F3E7218908F18F
:1034D000010801EB4113A1880AEB830303F801B053
:1034E000491CA180FCF784FFA988B0FBF1F040459E
:1034F000ECD82089216900EB40120AEB82004D468E
:10350000C0F88010A4F80490FEF7F4FA2089401C5B
:1035100080B220816D2803D125810120E0802070B8
:103520000A2E08D0208900EB4011A0880AEB810107
:103530000F54401CA0803046BDE8F09FC801002019
:10354000B410002010B5002821D0114B0022001F1C
:10355000196803E0814203D80A4649680029F9D175
:1035600052B11368841A9C4204D100681844106058
:10357000104602E0506000E0186039B102680B1A92
:10358000934203D10B681A4402604968416010BD40
:10359000E001002000B50021102000F014FA002105
:1035A000112000F010FA0021122000F00CFA002186
:1035B000132000F008FA0021292000F004FA00216D
:1035C00007205DF804EB00F0FEB900B500211020E3
:1035D00000F0F9F90021112000F0F5F90021122086
:1035E00000F0F1F90021132000F0EDF941F2B07183
:1035F000102000F0E8F940F23711112000F0E3F953
:1036000040F23911122000F0DEF94FF4E851132096
:1036100000F0D9F91321292000F0D5F940F27311F7
:1036200007205DF804EB00F0CEB9F0B506465088EF
:103630000D46918840EA01415089938940EA034050
:10364000091A4C08171841F23801032000F0BBF9A1
:103650002946304600F080F94FF0DE4122200880F4
:1036600061003846FEF7B2F9BDE8F04041F22801AA
:10367000032000F0A8B9000070B51D460B460646B1
:1036800000241146184600F067F94FF0DE41222071
:103690000880074804E000BF20F81460641CA4B24E
:1036A000AC42F9D36900BDE870400148FEF78EB91D
:1036B000E801002030B502FB03F4039D00F04CF953
:1036C0004FF0DE412220088061002846BDE83040EE
:1036D000FEF77CB92DE9F041884606461D4617469F
:1036E00000244FF48151032000F06DF93946404623
:1036F00000F032F94FF0DE4122200880094803E053
:1037000020F81460641CA4B2AC42F9D369000548E7
:10371000FEF75CF9BDE8F04141F22801032000F01A
:1037200052B90000E8010020F02070474FF4A0706B
:10373000704770B5FEF72EF90121002000F043F923
:103740004FF48071012000F03EF94FF4E061022057
:1037500000F039F941F21801032000F034F900219A
:10376000042000F030F940F20221082000F02BF98B
:103770000021092000F027F900210A2000F023F998
:1037800000210C2000F01FF900210D2000F01BF992
:1037900000210F2000F017F90021102000F013F98C
:1037A0000021112000F00FF90021122000F00BF988
:1037B0000021132000F007F941F2B071102000F051
:1037C00002F940F23711112000F0FDF840F23911F2
:1037D000122000F0F8F84FF4E851132000F0F3F84D
:1037E0001321292000F0EFF80021202000F0EBF851
:1037F0000021212000F0E7F80721302000F0E3F855
:1038000040F20231312000F0DEF840F2051421468A
:10381000322000F0D8F840F206252946352000F085
:10382000D2F840F608063146362000F0CCF829469A
:10383000372000F0C8F840F20451382000F0C3F8F7
:103840000721392000F0BFF821463C2000F0BBF8EA
:1038500031463D2000F0B7F80021502000F0B3F8C9
:10386000EF21512000F0AFF80021522000F0ABF81A
:1038700040F23F11532000F0A6F84FF4274160209A
:1038800000F0A1F80121612000F09DF800216A20DC
:1038900000F099F80021802000F095F800218120A7
:1038A00000F091F80021822000F08DF800218320A3
:1038B00000F089F80021842000F085F8002185209F
:1038C00000F081F81021902000F07DF80021922076
:1038D00000F079F80321932000F075F84FF4887117
:1038E000952000F070F80021972000F06CF800217E
:1038F000982000F068F841F22801032000F063F8F6
:1039000040F27311072000F05EF80021084600F035
:1039100023F84FF0DE412220088070BD10B5FEF77D
:1039200039F8BDE81040002000F00EB800B500F0F6
:1039300013F84FF0DE4122200880024801880088F9
:1039400000BD00000000016F4FF0DE41088001481B
:10395000008870470000016F10B50446C1F1EF0008
:1039600081B2202000F02FF82146BDE81040212030
:1039700000F029B870B50546C1F1F0000C46C01A38
:1039800081B21646502000F01EF8C4F1EF0081B25B
:10399000512000F018F82946522000F014F8A81918
:1039A000BDE87040401E81B2532000F00CB807B54E
:1039B000FFF7D2FF4FF0DE4122200880022102A84B
:1039C000FEF704F80EBD03B54FF0DE41088002217A
:1039D00001A8FDF7FBFF0CBD90B03C2210A168468A
:1039E000FCF7C2FBFCF7A2FFFEF77EFBFEF70CF92B
:1039F000FEF7D2F8FEF790F9FCF706FDFEF706F8A1
:103A000016A0FEF745F81AA0FEF708F84FF47A74EE
:103A10003A216846FCF76CFD2046FCF73AFEF7E7D2
:103A2000576176655368617265204F70656E3130FD
:103A3000335A20426F6172642053544D3332205602
:103A400069727475616C20434F4D20506F72742001
:103A5000447269766572200D0A000000566972741E
:103A600075616C20434F4D20506F72740000000050
:103A7000576176655368617265204F70656E3130AD
:103A8000335A0000F0B50B30154D20F0070100242B
:103A9000144A0FE003688B420BD38B4205D95E1AA0
:103AA00043184768C3E9006700E04368136002C039
:103AB00004E0021D10680028ECD12046002802D145
:103AC000286808B10020F0BD064A07481060074A80
:103AD000121A22F00702C0E9002401202860D7E76B
:103AE000E4010020E0010020EC480020E84C002028
:103AF00000000000000000000000000000000000C6
:103B000000000000000000000000000000000000B5
:103B100000000000000000000000000000000000A5
:103B20000000000000000000000000000000000095
:103B30000000000000000000000000000000038002
:103B400000038000038000038000038000038000E6
:103B500003800003800003800001000001000000DA
:103B6000000000000003800003800000000000004F
:103B70000000000000000000000000000000000045
:103B80000000000000000000000E70000E70000E2B
:103B90007000042000042000042000042000000025
:103BA0000000000000000000000000000000000015
:103BB0000000000000000000000000000000000005
:103BC000000000000000000000000000000006608F
:103BD000000660000660000660000660003FF80016
:103BE0003FF8000660000CC0003FF8003FF8000CF2
:103BF000C0000CC0000CC0000CC0000CC0000000D5
:103C000000000000000000000000000000000000B4
:103C100000000001800001800007B0000FF00018D4
:103C200070001870001C00000F800007E00000F01A
:103C3000001830001C30001C70001FE0001BC0008A
:103C40000180000180000180000180000000000070
:103C500000000000000000000000000000000780DD
:103C6000000FC0001CE0001860001860001CE0009D
:103C70000FF80007E0001FF00007380006180006E4
:103C8000180007380003F00001E000000000000009
:103C90000000000000000000000000000000000024
:103CA00000000000000000000000000003F000071A
:103CB000F0000C60000C00000C0000060000070083
:103CC000000F9C001DFC0018F0001870000FFC0095
:103CD00007DC000000000000000000000000000001
:103CE00000000000000000000000000000000000D4
:103CF0000003800003800003800001000001000039
:103D000001000001000000000000000000000000B1
:103D100000000000000000000000000000000000A3
:103D20000000000000000000000000000000000093
:103D300000000000000000180000380000700000C3
:103D4000F00000E00000E00001C00001C00001C080
:103D50000001C00001C00001C00000E00000E00060
:103D60000070000070000038000018000000000023
:103D7000000000000000000000000000000018002B
:103D8000001C00000E00000E0000070000070000ED
:103D90000380000380000380000380000380000391
:103DA00080000700000700000F00000E00001C004C
:103DB00000180000000000000000000000000000EB
:103DC0000000000000000180000180000180001D53
:103DD000B8001FF80007E00003C00003C000066041
:103DE000000660000000000000000000000000006D
:103DF00000000000000000000000000000000000C3
:103E000000000000000000000000000000000000B2
:103E1000000000000180000180000180000180009E
:103E20000180003FFC003FFC000180000180000198
:103E30008000018000018000000000000000000000
:103E40000000000000000000000000000000000072
:103E50000000000000000000000000000000000062
:103E60000000000000000000000000000000000052
:103E70000000000000000000000000E00000C000A2
:103E800001C0000180000180000300000300000069
:103E90000000000000000000000000000000000022
:103EA0000000000000000000000000000000000012
:103EB0000000001FF8001FF80000000000000000D4
:103EC00000000000000000000000000000000000F2
:103ED00000000000000000000000000000000000E2
:103EE00000000000000000000000000000000000D2
:103EF00000000000000000000000000000000000C2
:103F00000000000000000000000003C00003C0002B
:103F100003C00000000000000000000000000000DE
:103F20000000000000000000001800001800003829
:103F30000000300000700000600000600000C00061
:103F400000C00001800001800003000003000006A3
:103F500000000600000E00000C00001C000018000D
:103F60000018000000000000000000000000000039
:103F700000000000000003C00007E0000C30000C4F
:103F80003000181800181800181800181800181811
:103F9000001818001818000C30000C300007E00062
:103FA00003C000000000000000000000000000004E
:103FB0000000000000000000000000000000008081
:103FC000000780001F80001D80000180000180002C
:103FD000018000018000018000018000018000015B
:103FE00080000180001FF8001FF8000000000000A2
:103FF00000000000000000000000000000000000C1
:1040000000000000000007C0001FF0003830003042
:10401000180030180000180000300000600001C0D7
:10402000000380000600000C00001800003FF800AC
:104030003FF8000000000000000000000000000049
:10404000000000000000000000000000000003C0AD
:10405000000FE0000C700000300000300000600035
:1040600003C00003E000007000001800001800000A
:1040700018001838001FF0000FC0000000000000FA
:104080000000000000000000000000000000000030
:1040900000000000000000E00001E00001E000037B
:1040A00060000660000660000C60000C6000186094
:1040B000003060003FF8003FF80000600003F800A7
:1040C00003F80000000000000000000000000000F5
:1040D00000000000000000000000000000001FF0D1
:1040E000001FF0001800001800001800001BC0009E
:1040F0001FF0001C3000001800001800001800001D
:1041000018003030003FF0000FC000000000000039
:10411000000000000000000000000000000000009F
:1041200000000000000000F80003F8000700000E87
:1041300000000C00001800001BC0001FF0001C3025
:10414000001818001818001818000C38000FF0009C
:1041500003E000000000000000000000000000007C
:1041600000000000000000000000000000001FF838
:10417000001FF80018180018380000300000300048
:1041800000700000600000600000E00000C000005F
:10419000C00001C00001800001800000000000009C
:1041A000000000000000000000000000000000000F
:1041B00000000000000007E0000FF0001C380018AD
:1041C00018001818000C300007E00007E0000C3061
:1041D000001818001818001818001C38000FF000FC
:1041E00007E00000000000000000000000000000E8
:1041F000000000000000000000000000000007C0F8
:10420000000FF0001C3000181800181800181800D3
:104210000C38000FF80003D8000018000030000030
:10422000700000E0001FC0001F0000000000000040
:10423000000000000000000000000000000000007E
:10424000000000000000000000000000000000006E
:10425000000003C00003C00003C000000000000015
:104260000000000000000000000003C00003C000C8
:1042700003C000000000000000000000000000007B
:10428000000000000000000000000000000000002E
:104290000000000000000000000000F00000F0003E
:1042A00000F000000000000000000000000000001E
:1042B000E00001C000018000018000030000020056
:1042C00000000000000000000000000000000000EE
:1042D000000000000000000000000000001C0000C2
:1042E0003C0000F00003C0000F00003C0000F000A4
:1042F000003C00000F000003C00000F000003C0084
:10430000001C000000000000000000000000000091
:10431000000000000000000000000000000000009D
:10432000000000000000000000000000007FFC0012
:104330007FFC000000000000007FFC007FFC00000C
:10434000000000000000000000000000000000006D
:10435000000000000000000000000000000000005D
:104360000000000000000000000000007000007865
:1043700000001E000007800001E000007800001E21
:104380000000780001E0000780001E0000780000B7
:1043900070000000000000000000000000000000AD
:1043A000000000000000000000000000000000000D
:1043B0000007C0000FE0001870001830001830002F
:1043C00000700000E00003C0000380000300000054
:1043D00000000000000700000700000000000000CF
:1043E00000000000000000000000000000000000CD
:1043F00000000000000003E00007F0000E38000C91
:10440000180018780018F80019D8001998001998A1
:104410000019980018F8001878001800000C000027
:104420000E180007F80003E0000000000000000084
:10443000000000000000000000000000000000007C
:10444000001F80001FC00001C00003600003600067
:104450000630000630000C30000FF8001FF800187E
:104460000C00300C00FC7F00FC7F0000000000000E
:10447000000000000000000000000000000000003C
:104480000000000000000000007FE0007FF0001846
:1044900038001818001818001838001FF0001FF80E
:1044A00000181C00180C00180C00180C007FF800F5
:1044B0007FF000000000000000000000000000008D
:1044C00000000000000000000000000000000000EC
:1044D0000003EC000FFC001C1C00180C00300C004A
:1044E00030000030000030000030000030000018C4
:1044F0000C001C1C000FF80003F00000000000007E
:1045000000000000000000000000000000000000AB
:104510000000000000000000007FC0007FF00018D5
:104520003800181800180C00180C00180C00180C93
:1045300000180C00180C001818001838007FF00044
:104540007FE000000000000000000000000000000C
:10455000000000000000000000000000000000005B
:10456000007FF8007FF8001818001818001998004C
:104570001980001F80001F80001980001998001802
:1045800018001818007FF8007FF8000000000000F5
:10459000000000000000000000000000000000001B
:1045A0000000000000000000003FFC003FFC000C89
:1045B0000C000C0C000CCC000CC0000FC0000FC095
:1045C000000CC0000CC0000C00000C00003FC0003C
:1045D0003FC00000000000000000000000000000DC
:1045E00000000000000000000000000000000000CB
:1045F0000003EC000FFC001C1C00180C00300C0029
:1046000030000030000030FE0030FE00300C00387A
:104610000C001C1C000FFC0003F000000000000058
:10462000000000000000000000000000000000008A
:104630000000000000000000007E7E007E7E00186A
:1046400018001818001818001818001FF8001FF894
:10465000001818001818001818001818007E7E009E
:104660007E7E00000000000000000000000000004E
:10467000000000000000000000000000000000003A
:10468000001FF8001FF80001800001800001800079
:104690000180000180000180000180000180000194
:1046A00080000180001FF8001FF8000000000000DB
:1046B00000000000000000000000000000000000FA
:1046C00000000000000000000007FE0007FE0000E0
:1046D000300000300000300000300000300030308A
:1046E000003030003030003030003060003FE000FB
:1046F0000F8000000000000000000000000000002B
:1047000000000000000000000000000000000000A9
:10471000007F3E007F3E0018300018600018C00087
:104720001980001B80001FC0001CE00018700018DA
:1047300030001838007F1F007F1F000000000000BD
:104740000000000000000000000000000000000069
:104750000000000000000000007F80007F80000C4F
:1047600000000C00000C00000C00000C00000C000D
:10477000000C0C000C0C000C0C000C0C007FFC005E
:104780007FFC0000000000000000000000000000AE
:104790000000000000000000000000000000000019
:1047A00000F00F00F81F00381C003C3C003C3C00AF
:1047B000366C00366C0033CC0033CC00318C0030CA
:1047C0000C00300C00FE7F00FE7F000000000000A7
:1047D00000000000000000000000000000000000D9
:1047E00000000000000000000078FE0078FE001CC1
:1047F00018001E18001F18001B18001B980019D85D
:104800000018D80018F8001878001838007F180031
:104810007F18000000000000000000000000000001
:104820000000000000000000000000000000000088
:104830000003C0000FF0001C3800181800381C00DE
:10484000300C00300C00300C00300C00381C00180C
:1048500018001C38000FF00003C00000000000002A
:104860000000000000000000000000000000000048
:104870000000000000000000003FF0003FF8000CC6
:104880001C000C0C000C0C000C0C000C18000FF899
:10489000000FE0000C00000C00000C00003FC00006
:1048A0003FC0000000000000000000000000000009
:1048B00000000000000000000000000000000000F8
:1048C0000003C0000FF0001C3800181800381C004E
:1048D000300C00300C00300C00300C00381C00187C
:1048E00018001C38000FF00007C00007CC000FFCB8
:1048F000000C380000000000000000000000000074
:104900000000000000000000007FE0007FF00018C1
:1049100038001818001818001838001FF0001FC0C1
:104920000018E0001870001830001838007F1E00D2
:104930007F0E0000000000000000000000000000EA
:104940000000000000000000000000000000000067
:104950000007D8000FF8001C3800181800181800BD
:104960001E00000FC00003F00000780018180018A7
:1049700018001C38001FF0001BE0000000000000C1
:104980000000000000000000000000000000000027
:104990000000000000000000003FFC003FFC003170
:1049A0008C00318C00318C00318C00018000018042
:1049B000000180000180000180000180000FF000F4
:1049C0000FF00000000000000000000000000000E8
:1049D00000000000000000000000000000000000D7
:1049E000007E7E007E7E001818001818001818003F
:1049F00018180018180018180018180018180018AF
:104A000018000C30000FF00003C000000000000090
:104A10000000000000000000000000000000000096
:104A20000000000000000000007F7F007F7F001872
:104A30000C000C18000C18000C1800063000063092
:104A40000003600003600003600001C00001C000BB
:104A500000800000000000000000000000000000D6
:104A60000000000000000000000000000000000046
:104A700000FE3F80FE3F803006003006003086009A
:104A800019CC0019CC001B6C001B6C001E7C000EA6
:104A900038000E38000C18000C1800000000000050
:104AA0000000000000000000000000000000000006
:104AB0000000000000000000007E7E007E7E0018E6
:104AC00018000C300006600003C000018000018067
:104AD0000003C0000660000C30001818007E7E0045
:104AE0007E7E0000000000000000000000000000CA
:104AF00000000000000000000000000000000000B6
:104B0000007C7E007C7E001818000C3000066000DF
:104B100006600003C00001800001800001800001E8
:104B200080000180000FF0000FF000000000000086
:104B30000000000000000000000000000000000075
:104B40000000000000000000001FF8001FF800181F
:104B5000180018300018600018C000018000030021
:104B6000000618000C18001818003018003FF80054
:104B70003FF80000000000000000000000000000FE
:104B8000000000000000000000000000000001F034
:104B90000001F00001800001800001800001800020
:104BA000018000018000018000018000018000017F
:104BB000800001800001800001800001800001F080
:104BC0000001F000000000000000000000000000F4
:104BD0001800001800001C00000C00000E00000669
:104BE00000000600000300000300000180000180B7
:104BF0000000C00000C00000600000600000700005
:104C0000003000003800001800001800000000000C
:104C100000000000000000000000000000000F8005
:104C2000000F8000018000018000018000018000F1
:104C300001800001800001800001800001800001EE
:104C400080000180000180000180000180000F8051
:104C5000000F8000000000000000000000000000C5
:104C600000000000800001C00003E00007700006A3
:104C700030000C1800180C001004000000000000A8
:104C80000000000000000000000000000000000024
:104C90000000000000000000000000000000000014
:104CA0000000000000000000000000000000000004
:104CB00000000000000000000000000000000000F4
:104CC00000000000000000000000000000000000E4
:104CD00000000000000000000000000000000000D4
:104CE00000000000000000000000FFFF00FFFF00C8
:104CF00000000003000003800000E00000600000EE
:104D000000000000000000000000000000000000A3
:104D10000000000000000000000000000000000093
:104D20000000000000000000000000000000000083
:104D30000000000000000000000000000000000073
:104D4000000000000000000000000FC0001FE00095
:104D500000300000300007F0001FF0003830003055
:104D600030003070001FFC000FBC0000000000008D
:104D70000000000000000000000000000000000033
:104D80000000000000007800007800001800001803
:104D900000001BE0001FF8001C1800180C00180C85
:104DA00000180C00180C00180C001C18007FF800EC
:104DB0007BE0000000000000000000000000000098
:104DC00000000000000000000000000000000000E3
:104DD0000000000000000000000003EC000FFC00D9
:104DE0001C1C00380C00300C003000003000003873
:104DF0000C001C1C000FF80003F000000000000075
:104E000000000000000000000000000000000000A2
:104E1000000000000000007800007800001800008A
:104E2000180007D8001FF800183800301800301894
:104E3000003018003018003018001838001FFE002D
:104E400007DE00000000000000000000000000007D
:104E50000000000000000000000000000000000052
:104E60000000000000000000000007E0001FF80044
:104E7000181800300C003FFC003FFC0030000030F0
:104E80000000180C001FFC0007F0000000000000EC
:104E90000000000000000000000000000000000012
:104EA00000000000000001FC0003FC0006000006FA
:104EB00000003FF8003FF800060000060000060072
:104EC000000600000600000600000600003FF0009B
:104ED0003FF00000000000000000000000000000A3
:104EE00000000000000000000000000000000000C2
:104EF0000000000000000000000007DE001FFE00B0
:104F00001838003018003018003018003018003001
:104F100018001838001FF80007D800001800001803
:104F2000000038000FF0000FC0000000000000007B
:104F30000000000000007800007800001800001851
:104F400000001BE0001FF0001C38001818001818A3
:104F5000001818001818001818001818007E7E0095
:104F60007E7E000000000000000000000000000045
:104F700000000000000000000000000000000180B0
:104F8000000180000000000000001F80001F800062
:104F9000018000018000018000018000018000018B
:104FA00080000180003FFC003FFC0000000000008A
:104FB00000000000000000000000000000000000F1
:104FC00000000000000000C00000C0000000000061
:104FD00000001FF0001FF000003000003000003023
:104FE00000003000003000003000003000003000D1
:104FF0000030000030000030000070001FE0001F93
:1050000080000000000000000000000000003C00E4
:10501000003C00000C00000C00000CF8000CF80034
:105020000CC0000D80000F80000F00000F80000DED
:10503000C0000CE0003C7C003C7C00000000000054
:105040000000000000000000000000000000000060
:105050000000000000001F80001F80000180000190
:10506000800001800001800001800001800001803B
:10507000000180000180000180000180003FFC00F1
:105080003FFC0000000000000000000000000000E5
:105090000000000000000000000000000000000010
:1050A00000000000000000000000F77800FFFC0096
:1050B00039CC00318C00318C00318C00318C0031C6
:1050C0008C00318C00FDEF00FDEF000000000000BF
:1050D00000000000000000000000000000000000D0
:1050E00000000000000000000000000000000000C0
:1050F00000007BE0007FF0001C3800181800181832
:10510000001818001818001818001818007E7E00E3
:105110007E7E000000000000000000000000000093
:10512000000000000000000000000000000000007F
:105130000000000000000000000003C0000FF000AD
:105140001C3800381C00300C00300C00300C0038CB
:105150001C001C38000FF00003C00000000000001D
:10516000000000000000000000000000000000003F
:10517000000000000000000000000000000000002F
:1051800000007BE0007FF8001C1800180C00180CD1
:1051900000180C00180C00180C001C18001FF80058
:1051A0001BE0001800001800001800007F00007FBE
:1051B00000000000000000000000000000000000EF
:1051C0000000000000000000000007DE001FFE00DD
:1051D000183800301800301800301800301800302F
:1051E00018001838001FF80007D800001800001831
:1051F0000000180000FE0000FE000000000000009B
:10520000000000000000000000000000000000009E
:1052100000003E78003EFC0007CC000700000600BE
:10522000000600000600000600000600003FF00037
:105230003FF000000000000000000000000000003F
:10524000000000000000000000000000000000005E
:105250000000000000000000000007F8000FF80048
:105260001818001818001F80000FF00000F8001830
:1052700018001838001FF0001FE0000000000000B8
:10528000000000000000000000000000000000001E
:105290000000000000000C00000C00000C00000CDE
:1052A00000003FF0003FF0000C00000C00000C007C
:1052B000000C00000C00000C00000C1C0007FC009F
:1052C00003F00000000000000000000000000000EB
:1052D00000000000000000000000000000000000CE
:1052E00000000000000000000000787800787800DE
:1052F00018180018180018180018180018180018A6
:1053000018001838000FFE0007DE00000000000043
:10531000000000000000000000000000000000008D
:10532000000000000000000000000000000000007D
:1053300000007C3E007C3E001818001818000C305D
:10534000000C300006600006600007E00003C000AB
:1053500003C000000000000000000000000000008A
:10536000000000000000000000000000000000003D
:1053700000000000000000000000783C00783C00C5
:105380003118003398003398001AB0001EF0001E48
:10539000F0001C60000C60000C60000000000000C9
:1053A00000000000000000000000000000000000FD
:1053B00000000000000000000000000000000000ED
:1053C00000003E7C003E7C000C300006600003C004
:1053D0000001800003C0000660000C30003E7C002D
:1053E0003E7C000000000000000000000000000003
:1053F00000000000000000000000000000000000AD
:10540000000000000000000000007E1F007E1F0062
:10541000180C000C18000C180006300006300003B1
:10542000600003E00001C00000C0000180000180B6
:10543000000300003FC0003FC0000000000000006B
:10544000000000000000000000000000000000005C
:1054500000001FF8001FF80018300018600000C09E
:10546000000180000300000618000C18001FF8005F
:105470001FF8000000000000000000000000000015
:10548000000000000000000000000000000000E03C
:105490000001E00001800001800001800001800027
:1054A00001800001800003800007000003800001EC
:1054B000800001800001800001800001800001E087
:1054C0000000E000000000000000000000000000FC
:1054D0000000000000000180000180000180000148
:1054E00080000180000180000180000180000180B7
:1054F0000001800001800001800001800001800027
:105500000180000180000180000180000000000097
:105510000000000000000000000000000000070084
:1055200000078000018000018000018000018000F0
:1055300001800001800001C00000E00001C0000106
:105540008000018000018000018000018000078050
:105550000007000000000000000000000000000044
:10556000000000000000000000000000000000003B
:1055700000000000000000000E00001F18003BB8F3
:105580000031F00000E0000000000000000000001A
:10559000000000000000000000000000000000000B
:1055A00000000000000000000000000000000000FB
:1055B00000000000000000000000000000000000EB
:1055C00000000000000000000000000000000000DB
:1055D000000007000700070007000700070007009A
:1055E00002000200000000000700070000000000A9
:1055F0000000000000000000000000001CE01CE0B3
:105600001CE00840084008400000000000000000C6
:10561000000000000000000000000000000000008A
:105620000CC00CC00CC00CC00CC03FF03FF00CC054
:105630000CC03FF03FF00CC00CC00CC00CC00CC044
:1056400000000000000000000300030007E00FE07E
:10565000186018001F000FC000E0186018601FC01D
:105660001F80030003000300000000000000000092
:1056700000001C002200220022001C6001E00F80BC
:105680003C0031C002200220022001C000000000C6
:10569000000000000000000000000000000003E027
:1056A0000FE00C000C0006000F301FF019E018C0CE
:1056B0001FF007B000000000000000000000000024
:1056C000000000000380038003800100010001004E
:1056D00000000000000000000000000000000000CA
:1056E0000000000000000000000000C000C00180B9
:1056F0000180018003000300030003000300030096
:1057000001800180018000C000C000000000000096
:1057100000000C000C000600060006000300030059
:1057200003000300030003000600060006000C004F
:105730000C00000000000000000003000300030054
:105740001B601FE0078007800FC00CC00000000036
:105750000000000000000000000000000000000049
:1057600000000000000003000300030003003FF0FE
:105770003FF00300030003000300000000000000EE
:105780000000000000000000000000000000000019
:105790000000000000000000000000000000038086
:1057A00003000300060006000400000000000000E3
:1057B00000000000000000000000000000003FE0CA
:1057C0003FE00000000000000000000000000000BA
:1057D00000000000000000000000000000000000C9
:1057E0000000000000000000000000000000038036
:1057F00003800380000000000000000000000000A3
:105800000060006000C000C000C001800180030093
:105810000300060006000C000C000C001800180025
:10582000000000000000000000000F801FC018C032
:10583000306030603060306030603060306018C0A0
:105840001FC00F80000000000000000000000000EA
:10585000000003001F001F000300030003000300FB
:1058600003000300030003001FE01FE0000000002E
:10587000000000000000000000000F801FC038E0A2
:105880003060006000C00180030006000C001800BA
:105890003FE03FE0000000000000000000000000CA
:1058A00000000F803FC030E0006000E007C007C08C
:1058B00000E00060006060E07FC03F80000000000A
:1058C0000000000000000000000001C003C003C091
:1058D00006C00CC00CC018C030C03FE03FE000C0A4
:1058E00003E003E0000000000000000000000000F2
:1058F00000001FC01FC0180018001F801FC018E044
:1059000000600060006030E03FC01F8000000000C9
:105910000000000000000000000003E00FE01E0097
:105920001800380037803FC038E03060306018E041
:105930001FC0078000000000000000000000000001
:1059400000003FE03FE03060006000C000C000C0E9
:1059500001800180018003000300030000000000BB
:10596000000000000000000000000F801FC038E0B1
:10597000306038E01FC01FC038E03060306038E071
:105980001FC00F80000000000000000000000000A9
:1059900000000F001FC038C03060306038E01FE0EA
:1059A0000F6000E000C003C03F803E000000000028
:1059B00000000000000000000000000000000000E7
:1059C00000000380038003800000000000000380CB
:1059D00003800380000000000000000000000000C1
:1059E0000000000000000000000001C001C001C074
:1059F0000000000000000380030006000600040011
:105A00000000000000000000000000000000003066
:105A100000F003C007001C0078001C00070003C052
:105A200000F0003000000000000000000000000056
:105A3000000000000000000000007FF07FF0000088
:105A400000007FF07FF00000000000000000000078
:105A50000000000000000000000000000000300016
:105A60003C000F00038000E0007800E003800F009E
:105A70003C003000000000000000000000000000BA
:105A8000000000000F801FC018601860006001C097
:105A90000380030000000000070007000000000072
:105AA0000000000000000000000003800C8008409F
:105AB0001040104011C012401240124011C010009E
:105AC00008000840078000000000000000000000FF
:105AD000000000001F801F80038006C006C00CC0AD
