:020000040800F2
:1000000048040020450100080B1100086710000893
:10001000091100088D010008EB1200080000000023
:100020000000000000000000000000002F11000888
:100030008F010008000000002D1100083111000898
:100040005F0100085F0100085F0100085F01000810
:100050005F0100085F0100085F0100085F01000800
:100060005F0100085F0100085F0100085F010008F0
:100070005F0100085F0100085F0100085F010008E0
:100080005F0100085F0100085F0100085F010008D0
:100090005F0100085F0100085F0100085F010008C0
:1000A0005F0100085F0100085F0100085F010008B0
:1000B0005F010008F11100085F0100085F010008FE
:1000C0005F0100085F0100085F0100085F01000890
:1000D0005F0100085F0100085F0100085F01000880
:1000E0005F0100085F0100085F0100085F01000870
:1000F0005F0100085F0100085F0100085F01000860
:100100005F0100085F0100085F0100085F0100084F
:100110005F0100085F0100085F0100085F0100083F
:100120005F0100085F0100085F0100085F0100082F
:10013000DFF80CD000F018F8004800470D13000855
:10014000480400200648804706480047FEE7FEE7CF
:10015000FEE7FEE7FEE7FEE7FEE7FEE7FEE7FEE777
:10016000A911000831010008064C074D06E0E068BF
:1001700040F0010394E8070098471034AC42F6D3EE
:10018000FFF7DAFF3813000858130008FEE770473E
:10019000FEE731B500F006F9044600F003F90099D6
:1001A000001B8842F9D338BD2DE9F84FDFF8B8A11C
:1001B00000220AF1040B144601274FF00F090BF13E
:1001C000040E00BF0B6807FA04F52B40AB4274D154
:1001D000DFF898C14E68A6EB0C0866452BD00DDC05
:1001E000032E34D005DC36B3012E19D0022E2FD1C8
:1001F0001BE0112E16D0122E2AD119E0B8F5881F57
:1002000019D006DCB8F5803F15D0B8F5801F1FD196
:1002100011E0B8F5001F0ED0B8F5041F18D10AE0A0
:10022000CA6815E0CA68121D12E0CA6808320FE0F9
:10023000CA680C320CE08A682AB1012A4FF0080221
:1002400003D0456104E0042202E0056100E00022E1
:10025000FF2B01D8064601E000F104064FEA8405B1
:1002600001D9A5F12005D6F800C009FA05F82CEA55
:10027000080C02FA05F54CEA050CC6F800C04D68FA
:10028000ED006AD53A4DAE6946F00106AE61AD6942
:1002900024F0030605F001050095364D06EB050C2C
:1002A000DCF80850A6074FEA167809FA08F6B543B5
:1002B000314EB04202D100261AE04EE02F4EB0423D
:1002C00001D1012614E02E4EB04201D102260FE0EA
:1002D0002C4EB04201D103260AE02B4EB04201D190
:1002E000042605E0294EB04201D1052600E006268D
:1002F00006FA08F62E43CCF808604D68DAF800607C
:10030000ED03554601D51E4300E09E432E604D6827
:10031000AD0305D5DBF800601E43CBF8006004E0B8
:10032000DBF800509D43CBF800504D68DEF80060CC
:10033000ED02754601D51E4300E09E432E604D68D8
:10034000AD0205D5084D0C352E681E432E6004E025
:10035000054E0C3635689D433560641C102CFFF447
:1003600031AFBDE8F88F000000040140000011101B
:10037000001002400000014000080140000C014054
:10038000001001400014014000180140001C014011
:10039000C2684A40C26070470AB1016170470904EF
:1003A000FBE70000014800687047000000000020E3
:1003B00002480168491C01607047000000000020ED
:1003C000074810B5016841F010010160032000F0FA
:1003D00087F8002000F006F800F016F8002010BDA5
:1003E0000020024010B5044600F050F94FF47A7135
:1003F000B0FBF1F000F060FC00222146501E00F03E
:100400004FF8002010BD00001D4808B5816941F07B
:1004100001018161806900F001000090032000F07B
:100420005FF8002211466FF00B0000F039F800224F
:1004300011466FF00A0000F033F8002211466FF009
:10044000090000F02DF800221146501F00F028F896
:1004500000221146101F00F023F800221146901EC2
:1004600000F01EF800221146501E00F019F8054851
:10047000416821F0E06141F08061416008BD000009
:10048000001002400000014000F01F0201219140D5
:100490004009800000F1E020C0F800117047000022
:1004A000F0B40E4B1B680C46C3F30223C3F10705DF
:1004B000042D00D90425191D072901D2002300E0CD
:1004C000DB1E012606FA05F1491E214099409E4097
:1004D000761E16403143F0BC00F018BE0CED00E073
:1004E000064900F0070208684FF6FF03184040EA8B
:1004F0000220034A10430860704700000CED00E042
:100500000000FA052DE9F047DFF8708105460E4638
:10051000D8F8000000F00700B0420CD2D8F8001064
:1005200021F007013143C8F80010D8F8000000F0AE
:100530000700B04277D12878514C800705D5606814
:10054000A96820F0F000084360602878C00759D0FF
:100550006968012001290DD0022929D05FF002032A
:1005600093FAA3F2B2FA82F242F02002520904D0C6
:10057000226803E04FF40033F2E7626A93FAA3F3D0
:10058000B3FA83F303F01F03984002424BD0606834
:1005900020F0030008436060FFF704FF6968074626
:1005A00041F2883001290DD00229814617D025E07B
:1005B0004FF00073D4E700BFFFF7F4FEC11B4945BD
:1005C00001D918E081466068C0F381000128F3D1A9
:1005D00018E000BFFFF7E6FEC11B49450BD8606875
:1005E000C0F381000228F5D10CE000BFFFF7DAFE6E
:1005F000C11B494502D90320BDE8F087606810F0AF
:100600000C0FF3D1D8F80010404601F00701B142B9
:100610000BD9016821F0070131430160006800F047
:100620000700B04201D00120E6E72878400705D551
:100630006068E96820F4E06008436060287800079B
:1006400006D56068296920F4605040EAC100606006
:1006500000F022F86168F02292FAA2F201F0F001B3
:10066000B2FA82F2D140074A515CC840064908609C
:100670000020FFF7B7FE0020BEE700000020024088
:100680000010024028130008040000200148006800
:10069000704700000400002010B519A385B00FCBEF
:1006A0008DE80F001AA01B4B006804905A681A4886
:1006B00002F00C0104291DD008291BD14FF470143D
:1006C00094FAA4F402F47011B4FA84F4E140D20371
:1006D0001DF8011010D55A684FF4003393FAA3F3B4
:1006E00002F40032B3FA83F3DA4004AB9A5CB0FB55
:1006F000F2F0484305B010BD08484843FAE700004F
:1007000002030405060708090A0B0C0D0E0F101052
:10071000010200000010024000127A0000093D00B2
:100720002DE9F84F04460078F74DC0074FF0010659
:1007300025D068687704C0F38100012807D0686875
:10074000C0F3810002281BD16868C00318D597FA4E
:10075000A7F0B0FA80F040F02000400901D02868EE
:1007600000E0686A97FAA7F1B1FA81F101F01F0180
:1007700006FA01F108425ED0606800287CD05AE099
:100780006068B0F5803F0BD010B1B0F5A02F11D04C
:10079000286820F480302860286820F4802002E057
:1007A000286840F480302860606828B3FFF7FAFDBD
:1007B00080460BE0286840F480202860F0E700BF06
:1007C000FFF7F0FDA0EB0800642871D897FAA7F0B6
:1007D000B0FA80F040F02000400901D0286800E025
:1007E000686A97FAA7F1B1FA81F101F01F0106FAE0
:1007F00001F10842E4D01EE0FFF7D4FD804605E099
:10080000FFF7D0FDA0EB08006428DED897FAA7F028
:10081000B0FA80F040F02000400901D0286800E0E4
:10082000686A97FAA7F1B1FA81F101F01F0106FA9F
:1008300001F10842E4D12078DFF8D08280074FF040
:1008400000094FF002075BD568684FF0F80B10F015
:100850000C0F07D06868C0F3810002281CD16868BB
:10086000C00319D497FAA7F0B0FA80F040F0200046
:10087000400902D0286801E08BE0686A97FAA7F186
:10088000B1FA81F101F01F0106FA01F108422CD002
:10089000206901287DD128E0206990B396FAA6F05E
:1008A000B0FA80F048F82060FFF77CFD824607E050
:1008B00011E100BFFFF776FDA0EB0A00022884D803
:1008C00097FAA7F0B0FA80F040F02000400901D07C
:1008D000286800E0686A97FAA7F1B1FA81F101F09F
:1008E0001F0106FA01F10842E4D028689BFAABF236
:1008F0006169B2FA82F220F0F80091400843286062
:1009000025E0FFE796FAA6F1B1FA81F148F82190C7
:10091000FFF748FD824605E0FFF744FDA0EB0A0023
:100920000228CCD897FAA7F0B0FA80F040F0200067
:10093000400901D0286800E0686A97FAA7F1B1FA87
:1009400081F101F01F0106FA01F10842E4D120789B
:1009500000076ED5A069B8B396FAA6F0B0FA80F099
:1009600008EB8000C0F88064FFF71CFD824605E0BC
:10097000FFF718FDA0EB0A000228A0D897FAA7F00D
:10098000B0FA80F040F06000B6EB501F02D128684A
:100990000CE062E197FAA7F0B0FA80F040F0600056
:1009A000B7EB501F01D1286A00E0686A97FAA7F1F7
:1009B000B1FA81F101F01F0106FA01F21042D7D01D
:1009C0000120FFF7E6FB34E0FFE796FAA6F1B1FA63
:1009D00081F108EB8101C1F88094FFF7E3FC8246C6
:1009E00006E000BFFFF7DEFCA0EB0A00022872D889
:1009F00097FAA7F0B0FA80F040F06000B6EB501F15
:100A000001D128680BE097FAA7F0B0FA80F040F027
:100A10006000B7EB501F01D1286A00E0686A97FABE
:100A2000A7F1B1FA81F101F01F0106FA01F21042BB
:100A3000D8D12078400765D5E86940F08050E8615A
:100A4000E869DFF8CCB000F080500090DBF80010CF
:100A500041F48071CBF80010FFF7A4FC824605E05A
:100A6000FFF7A0FCA0EB0A00642834D8DBF80000F4
:100A7000C005F5D5E06801280AD008B1052813D0D3
:100A8000286A20F001002862286A20F0040002E0B1
:100A9000286A40F001002862E06841F2883B90B388
:100AA000FFF780FC82460BE0286A40F004002862D1
:100AB000EEE700BFFFF776FCA0EB0A0159450AD824
:100AC00097FAA7F0B0FA80F040F04000B6EB501F64
:100AD00002D128680CE0A3E097FAA7F0B0FA80F002
:100AE00040F04000B7EB501F01D1286A00E0686A6F
:100AF00097FAA7F1B1FA81F101F01F0206FA02F1AB
:100B00000842D7D031E005E0001002400000424228
:100B100000700040FFF746FC824605E0FFF742FC0C
:100B2000A0EB0A0159457BD897FAA7F0B0FA80F0FC
:100B300040F04000B6EB501F01D128680BE097FA57
:100B4000A7F0B0FA80F040F04000B7EB501F01D1A1
:100B5000286A00E0686A97FAA7F1B1FA81F101F01A
:100B60001F0206FA02F10842D8D1E06980B3696831
:100B7000C1F38101022970D04FF080714F0002282B
:100B8000484609D091FAA1F1B1FA81F148F8210063
:100B9000FFF708FC044669E08A4691FAA1F1B1FA30
:100BA00081F1C14648F82100FFF7FCFB804605E0D3
:100BB000FFF7F8FBA0EB0800022854D897FAA7F03B
:100BC000B0FA80F040F02000400902D0286801E02F
:100BD00061E0686A97FAA7F1B1FA81F101F01F01AB
:100BE00006FA01F10842E3D1206AB0F5803F05D151
:100BF0006868A16820F4003008436860D4E90801FF
:100C00000843696821F47411084368609AFAAAF0ED
:100C1000B0FA80F049F82060FFF7C4FB044606E014
:100C200021E000BFFFF7BEFB001B02281BD897FA8C
:100C3000A7F0B0FA80F040F02000400901D0286809
:100C400000E0686A97FAA7F1B1FA81F101F01F019B
:100C500006FA01F10842E5D01DE01EE0FFF7A2FB15
:100C6000001B022802D90320BDE8F88F97FAA7F0ED
:100C7000B0FA80F040F02000400901D0286800E080
:100C8000686A97FAA7F1B1FA81F101F01F0106FA3B
:100C900001F10842E2D10020E6E70120E4E74FF04D
:100CA000E0210428086903D020F00400086170479F
:100CB00040F00400FAE7704710B5401EB0F1807FA5
:100CC00001D3012010BD4FF0E02460610F216017B7
:100CD00000F01CFA0020A06107202061002010BD58
:100CE00010B5FFF7E8FF10BD7047704730B590F8BA
:100CF0003820012A20D0012280F83820022380F8F1
:100D0000393003685C6824F070045C6003685C68D8
:100D10000D682C435C6003689C6824F080049C6030
:100D200003689C6849680C439C6080F83920002166
:100D300080F83810084630BD022030BD10B50400E0
:100D400003D094F8390010B107E0012010BD002055
:100D500084F83800204600F00DF8022084F83900AD
:100D6000211D206800F04AFA012084F83900002093
:100D700010BD000008B500680B49884212D10B482D
:100D8000C16941F00201C161C069002200F00200A6
:100D9000009011461D20FFF783FBBDE808401D2091
:100DA000FFF772BB08BD00000004004000100240C5
:100DB0000168CA6842F00102CA600068016841F037
:100DC000010101600020704770B5044690F83800BA
:100DD000012817D0012584F83850022084F8390002
:100DE0002068826822F0770222F47F4282600868DD
:100DF000502837D00DDC202859D005DC88B31028C6
:100E000041D151E0022070BD302853D040283AD162
:100E10003FE060282ED070280BD0B0F5805F03D063
:100E2000B0F5005F2FD110E02068816821F0070144
:100E300015E0CB68D1E90121206800F021FA216892
:100E4000886840F0770088601DE0CB68D1E9012117
:100E5000206800F015FA2068816841F480418160C3
:100E600011E01EE0CA684968206800F01BFA5021B2
:100E7000206806E0CA684968206800F024FA60210A
:100E8000206800F007FA84F83950002084F8380010
:100E900070BDCA684968206800F004FA40212068E3
:100EA000EFE700212068ECE710212068E9E7202126
:100EB0002068E6E730212068E3E7704770B5044614
:100EC000006801694FF00005C943890715D4C1685E
:100ED000C943890711D4E91E0161012020762068E9
:100EE00080698007204602D0FFF7E7FF04E000F0AA
:100EF00098F8204600F096F8257620680169C943E5
:100F0000490717D4C168C943490713D46FF00401D6
:100F10000161022020762068806910F4407F20461D
:100F200002D0FFF7CAFF04E000F07BF8204600F093
:100F300079F8257620680169C943090716D4C16884
:100F4000C943090712D46FF008010161042020761B
:100F50002068C0698007204602D0FFF7AEFF04E09A
:100F600000F05FF8204600F05DF825762068016902
:100F7000C943C90617D4C168C943C90613D46FF061
:100F800010010161082020762068C06910F4407FBC
:100F9000204602D0FFF791FF04E000F042F820461F
:100FA00000F040F8257620680169C943C90708D1D7
:100FB000C168C943C90704D1891E0161204600F0F8
:100FC00033F820680169C943090609D4C168C943D7
:100FD000090605D46FF0800101612046FFF784FE09
:100FE00020680169C943490609D4C168C943490653
:100FF00005D46FF040010161204600F033F820680D
:101000000169C94389060BD4C168C943890607D45D
:101010006FF0200101612046BDE87040FFF765BE1A
:1010200070BD70477047000010B50C490068096832
:10103000884212D10A4C40212046FFF7A9F98021AD
:101040002046FFF7A5F9A1152046FFF7A1F9611584
:101050002046BDE81040FFF79BB910BD08000020F6
:10106000001C01407047FEE730B50E4885B081692D
:1010700041F08001816180690B4D00F080004FF4E8
:1010800070740490002221462846FFF785F901205C
:10109000CDE900400220039069462846FFF784F816
:1010A00005B030BD00100240001C014010B51548CD
:1010B00086B01349016048F69F410024C0E901143D
:1010C00040F2CF71C0E90314FFF738FE08B1FFF713
:1010D0005FF84FF48050009069460A48FFF774FEAD
:1010E00008B1FFF755F8049404A906480594FFF7E2
:1010F000FDFD002801D0FFF74BF806B010BD000041
:101100000004004008000020FEE770470907090EB0
:10111000002806DA00F00F0000F1E02080F8141D2E
:10112000704700F1E02080F8001470477047704766
:1011300010B5FFF73DF9BDE81040FFF7D1BD30B560
:101140008FB001210804CDE900100024029402258B
:101150000491CDE907504FF4E01009906846FFF77D
:10116000DFFA00B1FEE70F20CDE90A054FF48060F9
:10117000CDE90C4002210AA80E94FFF7C3F900B193
:10118000FEE7FFF783FA4FF47A71B0FBF1F0FFF757
:1011900093FD0420FFF783FD00221146501EFFF748
:1011A0007FF90FB030BD00000D48016841F001012A
:1011B000016041680B4A1140416001680A4A1140D0
:1011C0000160016821F480210160416821F4FE0181
:1011D00041604FF41F0181600449C00308607047FB
:1011E000001002400000FFF8FFFFF6FE08ED00E0EF
:1011F0000148FFF763BE000008000020F0B5026858
:101200001A4B1B4D1B4E1C4F1C4C4FF0804C9842F0
:1012100009D0A04207D0604505D0A84203D0B04213
:1012200001D0B84204D122F0700E4A6842EA0E02A0
:10123000984209D0A04207D0604505D0A84203D00B
:10124000B04201D0B84203D122F44075CA682A43A3
:1012500002608A68C2620A688262984201D0A04233
:1012600001D10969016301214161F0BD002C0140F8
:101270000004004000080040000C00400034014021
:1012800010B5846842EA032224F47F440A432243CF
:10129000826010BD826822F070020A4342F00701AA
:1012A0008160704710B5036A046A24F00104046287
:1012B000846924F0F00444EA021423F00A020A4389
:1012C0008461026210BD10B5036A23F0100303624B
:1012D0008369046A23F4704343EA023224F0A003D2
:1012E00043EA01118261016210BDFEE702E008C815
:1012F000121F08C1002AFAD170477047002001E090
:1013000001C1121F002AFBD170470000FFF758F8F7
:10131000FFF715FFFFF7A8FEFFF7C8FE0148FFF72C
:1013200047FDFEE70800002000000000000000006C
:1013300001020304060708095813000800000020F2
:1013400008000000EC1200086013000808000020EC
:1013500040040000FC1200080000000000A24A0443
:0400000508000131BD
:00000001FF
