:020000040800F2
:1000000028C900203D020008375200085F2600087A
:1000100035520008650A00087562000800000000FB
:10002000000000000000000000000000295E000841
:10003000670A000800000000595200086F5E0008BF
:10004000570200085702000857020008570200082C
:10005000570200085702000857020008570200081C
:10006000570200085702000857020008570200080C
:1000700057020008570200085702000857020008FC
:1000800057020008570200085702000857020008EC
:1000900057020008570200085702000857020008DC
:1000A00057020008570200085702000857020008CC
:1000B0005702000857020008BD5E000857020008FA
:1000C00057020008570200085702000857020008AC
:1000D000570200084962000857020008570200084A
:1000E000570200085702000857020008570200088C
:1000F000570200085702000857020008570200087C
:10010000570200085702000857020008570200086B
:10011000570200085702000857020008570200085B
:10012000570200085702000857020008570200084B
:1001300000F002F800F073F80AA090E8000C824486
:100140008344AAF10107DA4501D100F068F8AFF263
:10015000090EBAE80F0013F0010F18BFFB1A43F0A5
:100160000103184728B0030048B003000A444FF0C9
:10017000000C10F8013B13F0070408BF10F8014B06
:100180001D1108BF10F8015B641E05D010F8016B4B
:10019000641E01F8016BF9D113F0080F1EBF10F8AF
:1001A000014BAD1C0C1B09D16D1E58BF01F801CBD2
:1001B000FAD505E014F8016B01F8016B6D1EF9D555
:1001C0009142D6D37047000000230024002500266A
:1001D000103A28BF78C1FBD8520728BF30C148BFAA
:1001E0000B60704703681B0A28BF41F08001642937
:1001F00000F01881752900F01581782900F08C81B4
:10020000E42900F04B81632900F08E83732900F00C
:100210009383002070471FB51FBD10B510BD00F0BF
:10022000EFFB1146FFF7F7FF09F00CFB00F00DFCA8
:1002300003B4FFF7F2FF03BC06F0D3F90948804787
:1002400009480047FEE7FEE7FEE7FEE7FEE7FEE7B8
:10025000FEE7FEE7FEE7FEE704480549054A064BD0
:1002600070470000755E00083101000828C30020B7
:1002700028C9002028C5002028C50020704753EA5F
:10028000020C00F069802DE9F04B4FF00006002BC6
:100290001FBFB3FA83F503FA05F424FA05F65E40AE
:1002A00012BF1643B2FA82F502FA05F4C5F1200531
:1002B0001EBF22FA05FC44EA0C04203556EA044C21
:1002C0004FEA144418BF641C4FF000084FF00009B7
:1002D000904271EB030C39D3002919BFB1FA81F7B1
:1002E00001FA07F6B0FA80F700FA07F6C7F120071F
:1002F0001EBF20FA07FC46EA0C062037B6FBF4FCCA
:10030000A7EB0507103F07F01F0BCBF120060CFAF7
:100310000BFB2CFA06F644BFB3460026202FA4BFE1
:100320005E464FF0000B5BEA060C08BF4FF0010B76
:1003300019EB0B09ABFB027C48EB0608C01B06FB64
:1003400002CC0BFB03CC71EB0C01C1E70B46024660
:1003500041464846BDE8F08B13B54FF000004FF022
:100360000001AFF30080BDE81C4070470FB40449A2
:1003700010B503AA029800F0E3FA10BC5DF814FB74
:100380001400002070B5044685690068C10601D5D7
:10039000302600E02026C00707D070BDD4E9012137
:1003A00030469047206A401C20626D1EF6D570BD15
:1003B00070B5044685690078C00707D170BDD4E9DF
:1003C000012120209047206A401C20626D1EF6D536
:1003D00070BD70B50C460546012A05D02878800608
:1003E00000D5EA69002302E0012305E05B1C93428B
:1003F00002D2E05C0028F9D1A869E618C01AA86109
:10040000286A184428622846FFF7BCFF04E0D5E9B3
:10041000012114F8010B9047B442F8D32846FFF7A6
:10042000C7FF70BD2DE9F04106460024106875290C
:10043000314616A510D0AFF30080002802DA404202
:1004400013A507E031688A0701D512A502E0490724
:1004500004D511A5012401E0AFF3008000210A2298
:1004600006F1240709E0B0FBF2FCB0FBF2F302FB5B
:100470001C00303078541846491C0028F3D123461C
:100480002A463046BDE8F04100F0EBB9000000001C
:100490002D0000002B000000200000002DE9F0419D
:1004A0008046D21D22F007020025D2E90002F5297C
:1004B00015A614D0011E72F1000106DA0023D0EB5C
:1004C000030063EB020211A608E0D8F800108B07C6
:1004D00001D50FA602E0490701D50EA60125114658
:1004E000002408F1240704E000F076F930323A5590
:1004F000641C50EA0102F7D12B46324621464046A1
:10050000BDE8F04100F0ADB9000000002D00000092
:100510002B0000002000000070B504460D46214667
:100520001068AFF300802188090502D50F4A7A448C
:1005300002E00E4A7A440E32002104F1240305E061
:1005400000F00F060009965D5E54491C0028F7D1A3
:1005500020780023000704D5702D02D009B10223B2
:1005600011322046BDE8704000F07BB93AA9030083
:100570002DE9F05F894604464FF0000ADFF874B1B8
:10058000FB44C0F820A02046E1688847002874D0CA
:10059000252806D0D4E901219047206A401C20621A
:1005A000F1E700265F462046E16888472028054697
:1005B00007DB312D05D2781910F8200C08B106435D
:1005C000F1E7B00701D526F00406C4F81CA0002707
:1005D000C4F818A02A2D09D0284605F0FBFF38B32F
:1005E00004EB8708303DC8F8185019E059F8041B8F
:1005F000204604EB87029161E1688847012F054698
:1006000018D1E069002820DA26F020061DE0D8F88D
:10061000180000EB800005EB40003038C8F81800E7
:100620002046E1688847054605F0D4FF0028EED152
:10063000012F0AD02E2D08D12046E16888477F1C63
:100640000546022F46F02006C4DBA069002803DA25
:10065000404246F00106A061F00701D026F01006E6
:100660006C2D0BD0682D09D04C2D39D06A2D35D08A
:10067000742D35D07A2D33D016E038E0E1682F465E
:1006800020468847B842054609D16C2F26D04FF442
:100690008060E168064320468847054604E06C2FE9
:1006A0001AD04FF4807006430DB3A5F1410019280C
:1006B00002D8203546F400664A4629462046266080
:1006C0004E46FFF78FFD80B101280BD0F61D26F0B6
:1006D000070000F1080956E74020E4E78020D8E74A
:1006E0000020D6E706F104094DE7284652E7206AC4
:1006F000BDE8F09F10A90300032A40F2308010F0FB
:10070000030C00F0158011F8013BBCF1020F6244AC
:1007100098BF11F801CB00F8013B38BF11F8013B3D
:10072000A2F1040298BF00F801CB38BF00F8013BEA
:1007300011F0030300F01681083AC0F0088051F868
:10074000043B083A51F804CBA0E80810F5E7121D65
:100750005CBF51F8043B40F8043BAFF30080D20784
:1007600024BF11F8013B11F801CB48BF11F8012B50
:1007700024BF00F8013B00F801CB48BF00F8012B73
:1007800070474FF0000200B5134694469646203954
:1007900022BFA0E80C50A0E80C50B1F12001BFF43A
:1007A000F7AF090728BFA0E80C5048BF0CC05DF8A0
:1007B00004EB890028BF40F8042B08BF704748BFEE
:1007C00020F8022B11F0804F18BF00F8012B704762
:1007D000704770477047704730B5B0F10A024FEA72
:1007E000900E71F100034EEA817EB0EB0E0061EBDA
:1007F00091014FEA101E4EEA017E10EB0E0041EB14
:1008000011114FEA102E4EEA016E10EB0E0041EB73
:1008100011214FEA104E4EEA014E10EB0E0041EB53
:100820001141401841F100014FEAD00040EA417007
:100830004FEAD10110EB80054FEA810444EA90743D
:1008400044EB01046D1944EB0404521BA3414FF027
:10085000000348BF0A3200D530BD401C41F1000101
:1008600030BD2DE9F0470D4699469246044600F109
:1008700024080168880604D5E06921F01001216090
:1008800000E00120A84201DD471B00E00027A1692C
:100890007A1902EB0900081AA0612078C00602D478
:1008A0002046FFF76FFD002608E0D4E901211AF881
:1008B00006009047206A401C761C20624E45F4DBFF
:1008C0002078C0060AD52046FFF75CFD06E0D4E993
:1008D000012130209047206A401C2062381EA7F179
:1008E0000107F4DC07E0D4E9012118F8050090477E
:1008F000206A401C2062281EA5F10105F3DC204679
:10090000FFF756FD2078000602D50220BDE8F087EB
:100910000120FBE710B5436913B1AFF3008001E09C
:10092000FFF757FD012010BD127800F124010A7075
:1009300000224A700122EDE711684FF0FF32E9E72B
:10094000074B70B50D467B4400F043F8044628463B
:1009500000F052F810B14FF0FF3070BD204670BD6E
:10096000E389000010B5203AC0F00B80B1E81850C0
:10097000203AA0E81850B1E81850A0E81850BFF489
:10098000F5AF5FEA027C24BFB1E81850A0E8185028
:1009900044BF18C918C0BDE810405FEA827C24BF7C
:1009A00051F8043B40F8043B08BF7047D20728BF0A
:1009B00031F8023B48BF11F8012B28BF20F8023B59
:1009C00048BF00F8012B704701694A1C0261087892
:1009D000704700B58FB0CDE901310021059105497F
:1009E0007944CDE9031011466846FFF7C1FD0FB009
:1009F00000BD0000E5FFFFFF007B00F080007047B6
:100A0000754600F02BF8AE4605006946534620F0C7
:100A10000700854618B020B5FFF71EFCBDE8204052
:100A20004FF000064FF000074FF000084FF0000BAA
:100A300021F00701AC46ACE8C009ACE8C009ACE85D
:100A4000C009ACE8C0098D46704710B50446AFF345
:100A500000802046BDE81040FFF7EABB0048704721
:100A6000C4C20020FEE7704770B5B3F5804F05D0D3
:100A70006FF0704140F82210002070BD0C688B6947
:100A8000F0251C4395FAA5F54B68B5FA85F5AB4002
:100A90004FF47F4696FAA6F68D68B6FA86F6B5400C
:100AA0002B431C434FF47023C96893FAA3F3B3FAA2
:100AB00083F399400C4350F82210034B19400C4328
:100AC00040F82240D8E700000000F0CF30B50A68B7
:100AD00050F8223023F0010340F822308A68214B7D
:100AE000082A1ED04C681443D1E903252A43144335
:100AF0004A6914438A691443CA6914430A6A14434D
:100B00004A6A14438A6A1443CA6A14430A6B09681E
:100B1000144350F821201A40144340F8214000208B
:100B200030BD4A68D1E9034542F008022C43224314
:100B30004C6922438C692243CC6922430C6A2243CC
:100B40004C6A22438C6A2243CC6A22430C6B0968AC
:100B5000224350F821401C40224342F0400240F81A
:100B60002120DCE78100F7FF70B5F025D1E90034E2
:100B700095FAA5F5B5FA85F5AC4023434FF47F45CA
:100B800095FAA5F58C68B5FA85F5AC404FF470265A
:100B900096FAA6F6CD68B6FA86F6B5402C432343FE
:100BA0004FF470050C6995FAA5F5B5FA85F5641E44
:100BB000AC4023434FF070654C6995FAA5F5B5FA42
:100BC00085F5A41EAC408969234300EB82000B43EA
:100BD000416801F040410B434360002070BD31B5D6
:100BE00000F004F9044600F001F90099001B884266
:100BF000F9D338BD2DE9F84FDFF8BC91002309F196
:100C0000040A0AF1040B1C464FF00F080BF1040E06
:100C100001270A68A7403A40BA4272D1DFF89CC166
:100C20004D68A5EB0C0665452BD00DDC032D34D0AB
:100C300005DC35B3012D19D0022D2FD11BE0112D6C
:100C400016D0122D2AD119E0B6F5881F19D006DC6E
:100C5000B6F5803F15D0B6F5801F1FD111E0B6F56F
:100C6000001F0ED0B6F5041F18D10AE0CB6815E0BE
:100C7000CB681B1D12E0CB6808330FE0CB680C3348
:100C80000CE08B682BB1012B4FF0080303D04761B8
:100C900004E0042302E0076100E00023FF2A01D8FA
:100CA000064601E000F104064FEA840501D9A5F1EA
:100CB0002005376808FA05FC27EA0C0703FA05F552
:100CC00047EA050737604D68ED006ED53C4DAE69CB
:100CD00046F00106AE61AD6924F0030605F001059A
:100CE0000095384D7719BE68A5072D0F08FA05FC49
:100CF00026EA0C06DFF8D0C0604503D14FF0000CA7
:100D000025E052E0DFF8C4C0604502D14FF0010C8D
:100D10001DE0DFF8BCC0604502D14FF0020C16E0C8
:100D2000DFF8B0C0604502D14FF0030C0FE0DFF8F0
:100D3000A8C0604502D14FF0040C08E0DFF89CC069
:100D4000604502D14FF0050C01E04FF0060C0CFAA3
:100D500005FC4CEA060CC7F808C04D68D9F80060DD
:100D6000ED034D4601D5164300E096432E604D68D5
:100D7000DAF80060AD03554601D5164300E096430E
:100D80002E604D68DBF80060ED025D4601D516432C
:100D900000E096432E604D68DEF80060AD027546B7
:100DA00001D5164300E096432E60641C102CFFF41E
:100DB0002FAFBDE8F88F00000004014000001110C3
:100DC000001002400000014000080140000C0140FA
:100DD000001001400014014000180140001C0140B7
:100DE0000AB1016170470904FBE70000014800688F
:100DF000704700000400002002480168491C01609F
:100E00007047000004000020074810B5016841F059
:100E100010010160052000F047F80F2000F006F8EF
:100E200000F015F8002010BD0020024010B5044667
:100E300000F00CF94FF47A71B0FBF1F001F08CFA8C
:100E400000222146501E00F00FF8002010BD704710
:100E500000F01F02012191404009800000F1E020D4
:100E6000C0F8001170470000F0B40E4B1B68C3F3CC
:100E70000223C3F10704042C00D904241D1D072DEF
:100E800001D2002300E0DB1E012606FA04F56D1EE8
:100E90000D409D409E40761E164045EA0601F0BC7E
:100EA00004F0CAB90CED00E0064A00F00701106832
:100EB0004FF6FF03184040EA012003490843106041
:100EC000704700000CED00E00000FA052DE9F04746
:100ED000DFF8688104460E46D8F8000000F00700ED
:100EE000B0420CD2D8F8001021F007013143C8F805
:100EF0000010D8F8000000F00700B04273D120784D
:100F00004F4F800705D57868A16820F0F0000843AE
:100F100078602078C00755D06068012201280CD085
:100F2000022828D0022393FAA3F1B1FA81F141F00B
:100F30002001490904D0396803E04FF40033F2E797
:100F4000796A93FAA3F3B3FA83F303F01F039A4089
:100F5000114248D0796821F0030101437960FFF71D
:100F600045FF0546606841F2883101280CD002280F
:100F7000894615D022E04FF00073D4E7FFF736FF23
:100F8000411B494501D916E089467868C0F38100C4
:100F90000128F3D116E0FFF729FF411B49450AD884
:100FA0007868C0F381000228F5D10BE0FFF71EFF3F
:100FB000411B494502D90320BDE8F087786810F04D
:100FC0000C0FF3D1D8F80010404601F00701B142F0
:100FD0000BD9016821F0070131430160006800F07E
:100FE0000700B04201D00120E6E72078400705D590
:100FF0007868E16820F4E0600843786020780007B2
:1010000006D57868216920F4605040EAC100786014
:1010100000F052F87968F02292FAA2F201F0F001A1
:10102000B2FA82F2D140074A515CC84006490860D2
:101030000F20FFF7FBFE0020BEE70000002002406B
:1010400000100240FCBA00080000002001480068BF
:1010500070470000000000200848094900684968FE
:101060004FF4E06292FAA2F201F4E061B2FA82F285
:10107000D140044A515CC840704700000000002085
:10108000001002400CBB0008084809490068496884
:101090004FF4605292FAA2F201F46051B2FA82F275
:1010A000D140044A515CC840704700000000002055
:1010B000001002400CBB000810B519A085B00FC885
:1010C0008DE80F001AA01B4B0068049059681A485D
:1010D00001F00C02042A1DD0082A1BD14FF4701411
:1010E00094FAA4F401F47012B4FA84F4E240C9034F
:1010F0001DF8022010D559684FF4003393FAA3F37A
:1011000001F40031B3FA83F3D94004AB595CB0FB6E
:10111000F1F0504305B010BD08485043FAE7000015
:1011200002030405060708090A0B0C0D0E0F101028
:10113000010200000010024000127A0000093D0088
:101140002DE9F84F04460078FE4EC0074FF0010528
:101150007FD070684FF40038C0F38100012807D0B9
:101160007068C0F3810002281BD17068C00318D5D5
:1011700098FAA8F0B0FA80F040F02000400901D0C1
:10118000306800E0706A98FAA8F1B1FA81F101F0D4
:101190001F0105FA01F108425BD06068002879D090
:1011A00057E06068B0F5803F0BD010B1B0F5A02FCC
:1011B00011D0306820F480303060306820F4802016
:1011C00002E0306840F480303060606818B3FFF7A8
:1011D0000DFE074609E0306840F480203060F0E7FB
:1011E000FFF704FEC01B642870D898FAA8F0B0FA84
:1011F00080F040F02000400901D0306800E0706AC3
:1012000098FAA8F1B1FA81F101F01F0105FA01F194
:101210000842E5D01DE0FFF7E9FD074604E0FFF7CF
:10122000E5FDC01B6428DFD898FAA8F0B0FA80F07A
:1012300040F02000400901D0306800E0706A98FA60
:10124000A8F1B1FA81F101F01F0105FA01F108429C
:10125000E5D12078DFF8F08280074FF0000A4FF0E8
:1012600002075AD570684FF0F80B10F00C0F07D03A
:101270007068C0F3810002281CD17068C00319D4C3
:1012800097FAA7F0B0FA80F040F02000400902D0B1
:10129000306801E08AE0706A97FAA7F1B1FA81F14B
:1012A00001F01F0105FA01F108422BD02069012845
:1012B0007CD127E0206988B395FAA5F0B0FA80F0D8
:1012C00048F82050FFF792FD814606E04DE1FFF718
:1012D0008DFDA0EB0900022886D897FAA7F0B0FA96
:1012E00080F040F02000400901D0306800E0706AD2
:1012F00097FAA7F1B1FA81F101F01F0105FA01F1A6
:101300000842E4D030689BFAABF220F0F801606943
:10131000B2FA82F290400143316025E0FFE795FA8E
:10132000A5F1B1FA81F148F821A0FFF75FFD8146F0
:1013300005E0FFF75BFDA0EB09000228CCD897FA87
:10134000A7F0B0FA80F040F02000400901D03068EA
:1013500000E0706A97FAA7F1B1FA81F101F01F017C
:1013600005FA01F10842E4D1207800076DD5A069A3
:10137000B8B395FAA5F0B0FA80F008EB8000C0F899
:101380008054FFF733FD814605E0FFF72FFDA0EB0A
:1013900009000228A0D897FAA7F0B0FA80F040F030
:1013A0006000B5EB501F02D130680CE063E197FAA2
:1013B000A7F0B0FA80F040F06000B7EB501F01D109
:1013C000306A00E0706A97FAA7F1B1FA81F101F092
:1013D0001F0105FA01F21042D7D00120FFF7FFFBF1
:1013E00033E0FFE795FAA5F1B1FA81F108EB81014D
:1013F000C1F880A4FFF7FAFC814605E0FFF7F6FC90
:10140000A0EB0900022899D897FAA7F0B0FA80F06B
:1014100040F06000B5EB501F01D130680BE097FA47
:10142000A7F0B0FA80F040F06000B7EB501F01D198
:10143000306A00E0706A97FAA7F1B1FA81F101F021
:101440001F0105FA01F21042D8D12078400763D578
:10145000F06940F08050F061F069DFF8F0B000F022
:1014600080500090DBF8001041F48071CBF8001040
:10147000FFF7BCFC814605E0FFF7B8FCA0EB0900D4
:10148000642872D8DBF80000C005F5D5E0680128B3
:101490000AD008B1052813D0306A20F0010030626C
:1014A000306A20F0040002E0306A40F0010030624F
:1014B000E06841F2883B80B3FFF798FC81460AE080
:1014C000306A40F004003062EEE7FFF78FFCA0EBDB
:1014D0000901594549D897FAA7F0B0FA80F040F0D1
:1014E0004000B5EB501F01D130680BE097FAA7F030
:1014F000B0FA80F040F04000B7EB501F01D1306AE5
:1015000000E0706A97FAA7F1B1FA81F101F01F02C9
:1015100005FA02F10842D8D033E0FFE7FFF766FC96
:10152000814605E0FFF762FCA0EB090159451CD894
:1015300097FAA7F0B0FA80F040F04000B5EB501FEA
:1015400008D105E000100240000042420070004057
:1015500030680CE097FAA7F0B0FA80F040F0400055
:10156000B7EB501F02D1306A01E08AE0706A97FA47
:10157000A7F1B1FA81F101F01F0205FA02F1084268
:10158000D0D1E06998B37168C1F38101022972D0AA
:1015900002284FF080714FF0007B50460AD091FA3C
:1015A000A1F1B1FA81F148F82100FFF71FFC0446D0
:1015B0005F4669E08A4691FAA1F1B1FA81F1C1462C
:1015C00048F82100FFF712FCA84607465D4604E0F4
:1015D000FFF70CFCC01B022853D895FAA5F0B0FA0F
:1015E00080F040F02000400902D0306801E060E067
:1015F000706A95FAA5F1B1FA81F101F01F0208FABB
:1016000002F10842E4D1206AB0F5803F05D170684C
:10161000A16820F4003008437060D4E90801084351
:10162000716821F47411084370609AFAAAF0B0FA54
:1016300080F0474649F82080FFF7D8FB044604E0D5
:10164000FFF7D4FB001B02281BD895FAA5F0B0FACF
:1016500080F040F02000400901D0306800E0706A5E
:1016600095FAA5F1B1FA81F101F01F0107FA01F134
:101670000842E5D01DE01EE0FFF7B8FB001B022882
:1016800002D90320BDE8F88F97FAA7F0B0FA80F0EE
:1016900040F02000400901D0306800E0706A97FAFD
:1016A000A7F1B1FA81F101F01F0105FA01F1084239
:1016B000E2D10020E6E70120E4E72DE9F04790F8C9
:1016C000202081F85620828CA1F85420826A0023C1
:1016D000120E94090C70C2F383044C7002F00302E2
:1016E0008A70826A120CCA70028D120A0A7190F80E
:1016F00028204A71C26A4FF6FF7A120E0AEA0212D5
:10170000CA80C26ACC88C2F3074244EA1214CC8071
:1017100002F00F020A72828DC2F30722D4094C72C2
:10172000C2F380148C72C2F34014CC72C2F3001462
:101730000C7300264E73046A4FF00109002C7DD013
:10174000012CFCD0022C7AD02923C2F380144C76D1
:101750009206520E01F81A2F10F8302F0C7844EA36
:10176000D21401F8014B02F07F0201F8012B50F86E
:10177000042F120ED4090C70C2F341144C70C2F342
:1017800082048C709207120FCA7004C8CC78C2F31E
:10179000074244EA9214CC70C2F340140C714E71AB
:1017A00002F001028A7130F8042CC2F30722D40936
:1017B000CC71C2F380140C72C2F340144C72C2F3A9
:1017C00000148C72C2F38104CC7202F003020A731B
:1017D00010F8042C52084A734C4681F80E9050F8C9
:1017E000082B120E0A7450F8082C120C0AEA022276
:1017F0004A8230F8082C4D8AC2F3072215434D82E5
:1018000010F8082C120641F8142F50F8042C0D681B
:10181000120E45EA02420A6050F8042C0D68C2F329
:10182000074245EA02220A6030F8042C0D68C2F330
:101830000722154320C110F8042C01E034E076E0C3
:1018400001F8012B0268120E01F8032B0268120C3A
:1018500012060A6002880D68C2F3072245EA0242B6
:101860000A6002780D6845EA02220A6042680D6843
:1018700045EA126520C142680D78C2F3074245EA85
:10188000121501F8025B1207120D0A8082880D887A
:10189000C2F30722154321F8025B00794008087063
:1018A0004C701846BDE8F0879207120D0A6190F857
:1018B0002C200C6944EA82020A61026B0C69120E48
:1018C00044EA92140C61C2F3C2040C7502F00702E0
:1018D0004A75026BC2F3074254098C75C2F3820445
:1018E000CC759207520F0A76028E0C7EC2F3072245
:1018F00044EAD2140C760C690F7EBF1C09FA07F576
:10190000641CA4FB05784FEAE57C06FB058504FB17
:101910000C5591F808C009FA0CF4A7FB04C80C6533
:1019200005FB048407FB0644C1E912C40DE790F8E7
:101930002C209206920A0A61026B0C69120E44EA8C
:1019400002220A61026B0C69C2F3074214430C6164
:10195000028E0C69C2F30722641C46F10005ED04F7
:1019600045EA5435E404C1E912454FF400740C65AE
:10197000EBE670B58CB000240E4605468DF80C40A1
:10198000182105A8FEF7FDFE284600F051F8059441
:1019900006940794C3200894CDE909400094CDE94A
:1019A0000140234622462146286803F077FC28465A
:1019B00003F05AFF8DF80C009DF80C0038B928464A
:1019C00003F032FE8DF80C009DF80C0018B19DF864
:1019D0000C000CB070BD31462846FFF76EFE8DF846
:1019E0000C009DF80C00C0B9B6F854001421060490
:1019F0006846FEF7C6FE0720CDE900604020CDE92D
:101A00000204000104906946286803F060FC072185
:101A1000284603F071FC8DF80C0005F1100007C892
:101A20008DE8070095E80F0003F038FCCFE70000D1
:101A30001B4800B5416985B041F48061416141694D
:101A400001F480610491416941F002014161416901
:101A500001F002010491816941F010018161816905
:101A600001F010010491816941F0200181618069D8
:101A7000694600F0200004904FF4F85000900220D6
:101A8000019001200290032003900648FFF7B2F86E
:101A90000420009069460448FFF7ACF805B000BD8B
:101AA0000010024000100140001401402DE9F04FE9
:101AB0008BB00D46DDE9147804461646994614218C
:101AC0006846FEF75EFE182105A8FEF75AFE20685C
:101AD0000021C162206A022803D10702760A46EA81
:101AE000C9561020CDE900704020CDE90201000167
:101AF0008A4604906946206803F0E9FB10212046DD
:101B000003F0FAFB00286DD14FF0FF3908FB07F016
:101B1000CDE9059090204FF0020BCDE9070B012095
:101B2000CDE909A005A9206803F097FBB8F1010FE2
:101B300001D9122000E01120CDE90060694620683B
:101B400003F0C5FBB8F1010F1AD91221204603F0AA
:101B5000D3FB070046D140F22A3A2068416B11EAD4
:101B60000A0F28D1406B0004F7D50026206803F047
:101B7000ABFB45F82600761C082EF7D32035ECE7A2
:101B80001121204603F0B8FB07002BD140F22A6A4E
:101B90002068416B11EA0A0F0DD1406B0004F7D5A4
:101BA0000026206803F090FB45F82600761C082EDE
:101BB000F7D32035ECE7406BC0050CD5B8F1010F29
:101BC00009D9206A18B1012801D0022803D1204682
:101BD00000F033F807462168486B000705D5082058
:101BE000886304200BB0BDE8F08F486B800703D5F5
:101BF0005846C1F838B0F5E7486B800603D5202079
:101C000088630620EEE7486B800504D54FF400702A
:101C100088630720E6E74E4603E003F055FB01C565
:101C2000761E2068416B890201D5002EF5D121680E
:101C300040F2FF5088633846D4E710B586B00446BA
:101C400014216846FEF79DFD00200C21CDE900011E
:101C50004021CDE90210080104906946206803F094
:101C600036FB0C21204603F047FB06B010BD70B5D3
:101C70008AB00E460546182103A8FEF782FD286AA1
:101C8000032811D038B1012805D0022803D0292417
:101C90000AB0204670BDB6F5805F05D0B6F5006F7E
:101CA00004D03EB12624F3E72724F1E7284603F0C9
:101CB0001FFF02E0284603F0DDFE0400E8D168685B
:101CC0000390A8680490E868CDE905066869079064
:101CD000A8690890DDE907120096CDE901120DF11F
:101CE0000C0C28689CE80E0003F0D8FAD0E72DE928
:101CF000F04F8DB00C46DDE91698064617469A4619
:101D000014216846FEF73DFD182105A8FEF739FDB0
:101D100000258DF82C5031682846CD62316A4FF489
:101D2000007B022903D17F0AD94647EACA5710210E
:101D3000CDE900914021824608010291CDE903A03E
:101D40006946306803F0C3FA1021304603F0D4FA34
:101D500000287ED1B8F1010F01D9192000E0182028
:101D6000CDE900706946306803F0B1FAB8F1010FAF
:101D700001D9192100E01821304603F0BDFA0028EE
:101D800067D1411E09FB08F99020CDE90690059125
:101D9000CDF820A00120CDE909A005A9306803F005
:101DA0005CFAB8F1010F24D84EE0406B400420D516
:101DB000A9EB0500202811D281074FEA900000D03E
:101DC000401C8246002706E02146306803F08FFA67
:101DD000241D2D1D7F1C57450BD2F5E7002704EB72
:101DE0008701306803F083FA7F1C082FF7D3203473
:101DF00020353068416B40F21A321142D5D02BE0C9
:101E0000406B400420D5A9EB0500202811D28107A2
:101E10004FEA900000D0401C8246002706E0214691
:101E2000306803F064FA241D2D1D7F1C57450BD22A
:101E3000F5E7002704EB8701306803F058FA7F1CB0
:101E4000082FF7D3203420353068416B40F21A62F6
:101E500000E017E01142D3D0406BC0050BD5B8F1BC
:101E6000010F08D9306A18B1012801D0022802D127
:101E70003046FFF7E2FE3168486B000705D50820C1
:101E8000886304200DB0BDE8F08F486B800702D551
:101E900002208863F6E7486BC00603D510208863EC
:101EA0000520EFE7486B800503D5C1F838B007205F
:101EB000E8E740F2FF5088630BA9304603F032FC9C
:101EC0000028DFD19DF82C100729F5D00629F3D082
:101ED000D8E7000010B5040003D094F8510010B109
:101EE00004E0012010BD204600F038F8022084F8FC
:101EF00051002068016821F040010160D4E901012E
:101F00000843D4E903121143084361690843218B54
:101F100001F400710843E1690843216A0843A16A9A
:101F2000084321680860A069042101EA1040616A41
:101F30000843216848602168E06A08612068C16937
:101F400021F40061C161044900200870606501202E
:101F500084F85100002010BD08000020104800B592
:101F6000816985B041F008018161816901F0080152
:101F70000491C16941F48041C161C069694600F4BE
:101F8000804004904FF460400090022001900120B6
:101F90000290032003900348FEF72CFE05B000BD1D
:101FA00000100240000C01402DE9F8430026DDF846
:101FB00020800446ADF8006090F85100012803D05D
:101FC00094F8510022287DD169B162B15BB194F8D7
:101FD0005000012876D0012784F8507094F8510001
:101FE000012803D005E00120BDE8F883322084F801
:101FF00051006665A263A387E3872163A386E38616
:10200000A664E664A06A4FF40055A84209D120688E
:10201000016821F4005101602068016841F4005119
:10202000016020680168490603D4016841F040015D
:102030000160E0684FF48271B0F5006F606807D00E
:10204000002867D088426ED1E08E012862D06AE015
:1020500020B188420CD1E08E012809D1206B216883
:102060000088C860206B801C2063E08E401EE086E4
:10207000E08E80B9A06AA84244D12068016841F48A
:10208000805101603EE02068C068A16B0880A06BB1
:10209000801CA0639EE0434600220221204603F0FC
:1020A000F7FD002874D1206B21680088C860206B80
:1020B000801C2063E08E401E0004000CE08609D1E5
:1020C000A06A00E0C7E0A84204D12068016841F49A
:1020D00080510160434600220121204603F0D8FDD3
:1020E00000286FD12068C068A16B0880A06B801C9D
:1020F000A063E08F401EE087E08E0028CBD16068AF
:1021000000286AD1434600220121204603F0C0FD89
:10211000F0BBB8E7206B411C216321680078C860E0
:10212000E08E401EE086E08E98B9A06AA84204D1F5
:102130002068016841F4805101604346002201217A
:10214000204603F0A5FD18BB2068C068A16B08708D
:1021500040E0434600220221204603F099FDB8B931
:10216000206B411C216321680078C860E08E401E0E
:102170000004000CE08607D1A06AA84204D12068C0
:10218000016841F48051016000224346012100E0D2
:1021900018E0204603F07CFDA0B92068C168A06B60
:1021A000421CA2630170E08F401EE087E08E002891
:1021B000CFD1606888B9434600220121204603F050
:1021C00067FD08B103200FE72068C168A06B421CBF
:1021D000A2630170E08F401EE087A06AA84210D180
:1021E000434600220121204603F052FD18B1606DE4
:1021F00040F002000FE02068C068ADF80000BDF8B4
:102200000000434601228021204603F041FD20B119
:10221000606D40F010006065D4E784F85170A06AEA
:10222000A84214D120688168C943C9060FD4616DE2
:1022300041F002016165016821F4005101602068EC
:10224000016841F40051016084F85060CBE684F8E5
:1022500050600020C8E60220C6E670B515460E465E
:10226000040003D094F83D0010B107E0012070BDD8
:10227000002084F83C00204600F01AF804F1080120
:102280002068FEF723FC3146A2682068FEF76CFC4C
:10229000D4E901022946236BFEF7E6FBA16820681A
:1022A00050F8212042F0010240F82120002070BDAA
:1022B0001F4800B5416985B041F4807141614169B1
:1022C00001F480710491816941F02001816181698B
:1022D00001F020010491816941F04001816181692F
:1022E00001F040010491816941F48071816180694C
:1022F000694600F4807004904CF233700090022024
:10230000019001200290032003900A48FEF772FC1E
:102310004FF68070009069460748FEF76BFC41F26B
:102320000100009069460548FEF764FC05B000BD59
:10233000001002400014014000180140002001403C
:102340004FF0E0210428086903D020F00400086160
:10235000704740F00400FAE710B5401EB0F1807FEE
:1023600001D3012010BD4FF0E02460610F21601700
:1023700002F062FF0020A06107202061002010BD54
:1023800010B5040003D094F8390010B107E0012023
:1023900010BD002084F83800204600F00CF8022020
:1023A00084F83900211D206803F0A2FD012084F883
:1023B0003900002010BD70470168CA6842F0010270
:1023C000CA600068016841F00101016000207047A7
:1023D000704790F83900704738B5044600680168C6
:1023E000C268C1F3000102F4807221B11AB1E16B3D
:1023F00041F00101E1630168C1F34002416901F06C
:10240000010122B119B1E26B42F00402E2630268F9
:10241000C2F3800222B119B1E26B42F00202E26320
:102420000268C2F3C00222B119B1E16B41F00801A8
:10243000E1630168C068C1F3401100F0200019B1E8
:1024400010B1204603F0C0FD20680168C068C1F3E8
:10245000C01100F0800019B110B1204603F0C0FE99
:1024600021680868CA68C0F3801002F040020125A4
:1024700068B162B1CA68204622F04002CA6094F88E
:102480003910322910D080F8395000F0E7F8E06BAD
:10249000002808D0206801684068009084F839500E
:1024A0002046FFF795FF38BD222180F83910ECE770
:1024B00070B5040004D094F83900002510B106E08E
:1024C000012070BD84F83850204600F021F8022029
:1024D00084F839002068C16821F40051C1602046A9
:1024E00003F0C6FD2068016921F490410161206874
:1024F000416921F02A0141612068C16841F400511D
:10250000C160E563012084F83900002070BD00003F
:1025100010B500681E4986B0884236D11D488169D1
:1025200041F004018161816901F004010491816934
:1025300041F480418161816901F4804104918169A4
:1025400041F0010181618069134C00F001000490A9
:102550004FF40070009002200190012002900320AF
:10256000039069462046FEF745FB211500910021A6
:10257000019169462046FEF73DFB2520FEF768FCE9
:10258000032211462520FEF76FFC06B010BD0000A7
:1025900000380140001002400008014090F8393036
:1025A000012B01D0122B2BD131B32AB390F8383044
:1025B000012B25D0012380F8383081628285C285C5
:1025C0000021C16390F83920122A17D0222280F806
:1025D000392080F838100168CA6842F48072CA60F5
:1025E00001684A6942F001024A610068C16841F02D
:1025F0002001C16000207047012070473222E6E7C9
:102600000220704730B50068114988420CD1114A48
:102610005088010408D41146440409784FF000039F
:1026200006D50A2901D0538030BD40F400400DE0AA
:102630000D2909D0C0F30D04074D401C80B2295567
:102640005080C728EFD830BD40F48040508030BD66
:102650000038014010000020540200207047FEE7BF
:1026600072B6704762B6704770B5144886B081691B
:1026700041F004018161816901F0040104918169E3
:1026800041F0400181618069032400F04000049022
:10269000022001260025CDE90204CDE90065694646
:1026A0000748FEF7A7FA1C2003948DE861006946ED
:1026B0000448FEF79FFA06B070BD0000001002400B
:1026C000000801400018014070B506460948002482
:1026D0000188458820464D43214602F0F3FB02F075
:1026E0005FFDB1B2044801E00180641CAC42FBD341
:1026F00070BD0000A00300200008006C2DE9F04F21
:10270000334B2C24194698712A2589882B2645F2AB
:10271000105B4FF4305E4FF448774FF0F00949F208
:10272000413A4FF4A07845F2103C4FF4F07258B1A2
:10273000A3F80080A3F80290514501D0614529D14A
:102740001C815D819E8139E0A3F80090A3F802808E
:10275000514501D0614508D11C815D819E81614553
:1027600031D1A3F800805A802DE0594508D1A3F853
:1027700008E04FF4285058814FF42C50988106E01F
:10278000A1F5C85063381ED11C815E819D811A80DD
:102790005F8018E0594508D1A3F808E04FF42850AD
:1027A00058814FF42C50988106E0A1F5C850633849
:1027B00004D11C815D819E811F805A80614502D1B8
:1027C0001A80A3F80280BDE8F04F002002F09EBA04
:1027D000A00300202DE9F041364D90460C460246FC
:1027E0000F0AA8882946160A4989A0F51343413BD8
:1027F0000BD0A0F5A643103B07D0B3F5007311D062
:10280000A0F5C853633B27D04BE0084602F0BCFC60
:10281000304602F0ADFCD0B202F0AAFCA88902F06A
:10282000B3FC38E0084602F0AFFC304602F0A0FCF2
:102830006889401C80B202F0A7FCD0B202F098FC7C
:10284000A88902F0A1FC384602F092FCA889401C3D
:1028500080B202F099FC21E0A87918B92888801A82
:10286000401E82B2084602F08FFC160A304602F083
:102870007FFCD0B202F07CFC304602F079FCD0B292
:1028800002F076FCA88902F07FFC384602F070FC6A
:10289000E0B202F06DFC384602F06AFCE0B202F0F1
:1028A00067FC054928890880891CA1F80080BDE8DB
:1028B000F0810000A0030020FE07006C2DE9F0432A
:1028C0001F468146A2EB0900079B401C0C4686B2BE
:1028D0009DB2DFF82C800FE02146484602F0F2FA64
:1028E00002F05EFC0020414602E00D80401C80B2F8
:1028F000B042FAD3641CA4B2BC42EDD9BDE8F08367
:102900000008006C2DE9F04FFE4895B0816941F058
:102910000801816180694FF0010900F00800009012
:10292000CDF844900325CDF84890CDE9139511A931
:10293000F548FEF75FF9F5484FF02044F4490622C8
:102940000460C0E9011200211023C160C0E9041332
:1029500081611B02C161C0E909139B00C0E90B132F
:10296000416381631A200A92CDE90B10CDE904126C
:10297000109106910991039503AA0AA9E348FFF76C
:102980006CFC322004F0F0F8D32002F0FDFB02F0E2
:102990008DF9DE4A4432908002F088F9908002F08E
:1029A00085F94FF6FF7B0BEA0020908002F07EF95C
:1029B000918849F2413A0843908045F2103645F239
:1029C000105541F66317504548D0D42002F0DCFB87
:1029D00002F06CF9908002F069F9908002F066F9DB
:1029E0000BEA0020D846908002F060F991880843F5
:1029F0009080B04232D04FF45A4002F0C5FB02F052
:102A000055F990804FF45B4002F0BEFB02F04EF9A6
:102A100008EA002090804FF45C4002F0B5FB02F021
:102A200045F9918808439080B0F5004F7ED0A842C8
:102A300014D0A12002F0A8FB02F038F9908002F037
:102A400035F908EA0020908002F030F991880843B7
:102A5000A0F5AE419080613900D197809046918871
:102A6000ACA0FDF783FCB8F8040050457ED1CF2020
:102A700002F08AFB002002F07BFBC12002F078FB11
:102A8000302002F075FBED2002F07EFB642002F0A6
:102A90006FFB032002F06CFB122002F069FB812027
:102AA00002F066FBE82002F06FFB852002F060FB7D
:102AB000102002F05DFB7A2002F05AFBCB2002F0DE
:102AC00063FB392002F054FB2C2002F051FB002064
:102AD00002F04EFB342002F04BFB022002F048FBD8
:102AE000F72002F051FB202002F042FBEA2002F026
:102AF0004BFB002002F03CFB002002F039FBC02021
:102B000002F042FB1B2002F033FBC12002F03CFB31
:102B1000012002F02DFBC52002F036FB302002F030
:102B200027FB302002F024FBC72000E0B7E002F0D2
:102B30002BFBB72002F01CFB362002F025FB4820BF
:102B400002F016FB3A2002F01FFB552002F010FBAA
:102B5000B12002F019FB002002F00AFB1A2002F05B
:102B600007FBB62002F010FB0A2000E099E002F01B
:102B7000FFFAA22002F0FCFAF22002F005FB00208E
:102B800002F0F6FA262002F0FFFA012002F0F0FA35
:102B9000E02002F0F9FA0F2002F0EAFA2A2002F00F
:102BA000E7FA282002F0E4FA082002F0E1FA0E2009
:102BB00002F0DEFA082002F0DBFA542002F0D8FA24
:102BC000A92002F0D5FA432002F0D2FA0A2002F03E
:102BD000CFFA0F2002F0CCFA002002F0C9FA002050
:102BE00002F0C6FA002002F0C3FA002002F0C0FA98
:102BF000E12002F0C9FA002002F0BAFA152002F032
:102C0000B7FA172002F0B4FA072002F0B1FA112047
:102C100002F0AEFA062002F0ABFA2B2002F0A8FA7E
:102C2000562002F0A5FA3C2002F0A2FA052002F09C
:102C30009FFA102002F09CFA0F2002F099FA3F2030
:102C400002F096FA3F2002F093FA0F2002F090FA79
:102C50002B2002F099FA002002F08AFA002002F0FC
:102C600087FA012002F084FA3F2002F081FA2A203C
:102C700002F08AFA002002F07BFA002002F078FAD3
:102C8000002002F075FAEF2002F072FA112002F033
:102C90007BFA782003F068FF292001F011BF9580AE
:102CA000DCE6B0427ED1ED2002F06EFA012002F0A7
:102CB0005FFAFE2002F05CFAEE2002F065FADE20F8
:102CC00002F056FA212002F053FAF12002F05CFAE9
:102CD000012002F04DFADF2002F056FA102002F037
:102CE00047FAC42002F050FA8F2002F041FAC620C1
:102CF00002F04AFA002002F03BFAE22002F038FA31
:102D0000E2200FE000100240000C01405C030020B4
:102D1000040100A0204C43442049443A25780D0A80
:102D20000000000002F024FAE22002F021FABF20A5
:102D300002F02AFAAA2002F01BFAB02002F024FACC
:102D40000D2002F015FA002002F012FA0D2002F018
:102D50000FFA002002F00CFA112002F009FA00200C
:102D600002F006FA192002F003FA002002F000FA3D
:102D7000212002F0FDF9002002F0FAF92D2002F0E6
:102D8000F7F9002002F0F4F93D2002F0F1F90020FB
:102D900002F0EEF95D2002F0EBF9002002F0E8F914
:102DA0005D2000E0FEE302F0E3F9002002F0E0F92C
:102DB000B12002F0E9F9802002F0DAF9002002F0F7
:102DC000D7F98B2002F0D4F9002002F0D1F9962037
:102DD00002F0CEF9002002F0CBF9B22002F0D4F9D3
:102DE000002002F0C5F9002002F0C2F9022002F032
:102DF000BFF9002002F0BCF9032002F0B9F900206D
:102E000002F0B6F9B32002F0BFF9002002F0B0F9E9
:102E1000002002F0ADF9002002F0AAF9002002F033
:102E2000A7F9002002F0A4F9002002F0A1F9002087
:102E300002F09EF9002002F09BF9002002F098F9C0
:102E4000002002F095F9002002F092F9002002F033
:102E50008FF9002002F08CF9002002F089F900209F
:102E600002F086F9002002F083F9002002F080F9D8
:102E7000002002F07DF9002002F07AF9002002F033
:102E800077F9002002F074F9002002F071F90020B7
:102E900002F06EF9002002F06BF9B42002F074F930
:102EA0008B2002F065F9002002F062F9962002F012
:102EB0005FF9002002F05CF9A12002F059F900202E
:102EC00002F056F9B52002F05FF9022002F050F945
:102ED000002002F04DF9032002F04AF9002002F030
:102EE00047F9042002F044F9002002F041F9B6202D
:102EF00002F04AF9002002F03BF9002002F038F914
:102F0000B72002F041F9002002F032F9002002F06F
:102F10002FF93F2002F02CF9002002F029F95E2061
:102F200002F026F9002002F023F9642002F020F9D3
:102F3000002002F01DF98C2002F01AF9002002F0A6
:102F400017F9AC2002F014F9002002F011F9DC208E
:102F500002F00EF9002002F00BF9702002F008F9DF
:102F6000002002F005F9902002F002F9002002F0A2
:102F7000FFF8EB2002F0FCF8002002F0F9F8DC206A
:102F800002F0F6F8002002F0F3F8B82002F0FCF8A6
:102F9000002002F0EDF8002002F0EAF8002002F034
:102FA000E7F8002002F0E4F8002002F0E1F8002049
:102FB00002F0DEF8002002F0DBF8002002F0D8F882
:102FC000BA2002F0E1F8242002F0D2F8002002F04A
:102FD000CFF8002002F0CCF8002002F0C9F8C120A0
:102FE00002F0D2F8202002F0C3F8002002F0C0F86E
:102FF000542002F0BDF8002002F0BAF8FF2002F0E1
:10300000B7F8002002F0B4F8C22002F0BDF80A20A0
:1030100002F0AEF8002002F0ABF8042002F0A8F8AD
:10302000002002F0A5F8C32002F0AEF83C2002F028
:103030009FF8002002F09CF83A2002F099F8002056
:1030400002F096F8392002F093F8002002F090F890
:10305000372002F08DF8002002F08AF83C2002F0C0
:1030600087F8002002F084F8362002F081F8002072
:1030700002F07EF8322002F07BF8002002F078F8AF
:103080002F2002F075F8002002F072F82C2002F0D8
:103090006FF8002002F06CF8292002F069F8002097
:1030A00002F066F8262002F063F8002002F060F8D3
:1030B000242002F05DF8002002F05AF8242002F0EB
:1030C00057F8002002F054F8232002F051F80020B5
:1030D00002F04EF83C2002F04BF8002002F048F8D5
:1030E000362002F045F8002002F042F8322002F0CB
:1030F0003FF8002002F03CF82F2002F039F80020C1
:1031000002F036F82C2002F033F8002002F030F8FC
:10311000292002F02DF8002002F02AF8262002F0E3
:1031200027F8002002F024F8242002F021F80020E3
:1031300002F01EF8242002F01BF8002002F018F81C
:10314000232002F015F8002002F012F8C42002F04B
:103150001BF8622002F00CF8002002F009F80520AC
:1031600002F006F8002002F003F8842002F000F8D4
:10317000002001F0FDFFF02001F0FAFF002001F037
:10318000F7FF182001F0F4FF002001F0F1FFA42068
:1031900001F0EEFF002001F0EBFF182001F0E8FF46
:1031A000002001F0E5FF502001F0E2FF002001F0D7
:1031B000DFFF0C2001F0DCFF002001F0D9FF172019
:1031C00001F0D6FF002001F0D3FF952001F0D0FFE1
:1031D000002001F0CDFFF32001F0CAFF002001F034
:1031E000C7FFE62001F0C4FF002001F0C1FFC520A9
:1031F00001F0CAFF322001F0BBFF002001F0B8FF50
:10320000442001F0B5FF002001F0B2FF652001F07D
:10321000AFFF002001F0ACFF762001F0A9FF0020F5
:1032200001F0A6FF882001F0A3FF002001F0A0FF1D
:10323000C62001F0A9FF202001F09AFF002001F034
:1032400097FF172001F094FF002001F091FF01206B
:1032500001F08EFF002001F08BFFC72001F094FFEA
:10326000002001F085FF002001F082FF002001F026
:103270007FFF002001F07CFFC82001F085FF0020C7
:1032800001F076FF002001F073FF002001F070FFD5
:10329000002001F06DFFC92001F076FF002001F051
:1032A00067FF002001F064FF002001F061FF0020B3
:1032B00001F05EFF002001F05BFF002001F058FFED
:1032C000002001F055FF002001F052FF002001F026
:1032D0004FFF002001F04CFF002001F049FF0020CB
:1032E00001F046FF002001F043FF002001F040FF05
:1032F000002001F03DFF002001F03AFFE02001F046
:1033000043FF162001F034FF002001F031FF1C20A4
:1033100001F02EFF002001F02BFF212001F028FFFB
:10332000002001F025FF362001F022FF002001F0EF
:103330001FFF462001F01CFF002001F019FF522062
:1033400001F016FF002001F013FF642001F010FFD0
:10335000002001F00DFF7A2001F00AFF002001F0AB
:1033600007FF8B2001F004FF002001F001FF9920EE
:1033700001F0FEFE002001F0FBFEA82001F0F8FEA7
:10338000002001F0F5FEB92001F0F2FE002001F06E
:10339000EFFEC42001F0ECFE002001F0E9FECA209F
:1033A00001F0E6FE002001F0E3FED22001F0E0FE95
:1033B000002001F0DDFED92001F0DAFE002001F04E
:1033C000D7FEE02001F0D4FE002001F0D1FEF32072
:1033D00001F0CEFE002001F0CBFEE12001F0D4FE92
:1033E000162001F0C5FE002001F0C2FE1C2001F0F5
:1033F000BFFE002001F0BCFE222001F0B9FE00203B
:1034000001F0B6FE362001F0B3FE002001F0B0FE60
:10341000452001F0ADFE002001F0AAFE522001F08F
:10342000A7FE002001F0A4FE642001F0A1FE002010
:1034300001F09EFE7A2001F09BFE002001F098FE34
:103440008B2001F095FE002001F092FE992001F002
:103450008FFE002001F08CFEA82001F089FE0020E4
:1034600001F086FEB92001F083FE002001F080FE0D
:10347000C42001F07DFE002001F07AFECA2001F098
:1034800077FE002001F074FED22001F071FE0020D2
:1034900001F06EFED82001F06BFE002001F068FE06
:1034A000E02001F065FE002001F062FEF32001F053
:1034B0005FFE002001F05CFEE22001F065FE0520C9
:1034C00001F056FE002001F053FE0B2001F050FEEB
:1034D000002001F04DFE1B2001F04AFE002001F00B
:1034E00047FE342001F044FE002001F041FE44205C
:1034F00001F03EFE002001F03BFE4F2001F038FEBF
:10350000002001F035FE612001F032FE002001F0C4
:103510002FFE792001F02CFE002001F029FE8820EA
:1035200001F026FE002001F023FE972001F020FE8E
:10353000002001F01DFEA62001F01AFE002001F07F
:1035400017FEB72001F014FE002001F011FEC2208A
:1035500001F00EFE002001F00BFEC72001F008FE76
:10356000002001F005FED12001F002FE002001F054
:10357000FFFDD62001F0FCFD002001F0F9FDDD206B
:1035800001F0F6FD002001F0F3FDF32001F0F0FD65
:10359000002001F0EDFDE32001F0F6FD052001F033
:1035A000E7FD00E00AE3002001F0E2FD0A2001F05F
:1035B000DFFD002001F0DCFD1C2001F0D9FD002022
:1035C00001F0D6FD332001F0D3FD002001F0D0FD45
:1035D000442001F0CDFD002001F0CAFD502001F093
:1035E000C7FD002001F0C4FD622001F0C1FD0020F4
:1035F00001F0BEFD782001F0BBFD002001F0B8FD18
:10360000882001F0B5FD002001F0B2FD972001F007
:10361000AFFD002001F0ACFDA62001F0A9FD0020C7
:1036200001F0A6FDB72001F0A3FD002001F0A0FDF0
:10363000C22001F09DFD002001F09AFDC72001F09D
:1036400097FD002001F094FDD12001F091FD0020B4
:1036500001F08EFDD52001F08BFD002001F088FDEA
:10366000DD2001F085FD002001F082FDF32001F056
:103670007FFD002001F07CFDE42001F085FD0120AC
:1036800001F076FD002001F073FD012001F070FDD6
:10369000002001F06DFD022001F06AFD002001F024
:1036A00067FD2A2001F064FD002001F061FD3C204F
:1036B00001F05EFD002001F05BFD4B2001F058FDA4
:1036C000002001F055FD5D2001F052FD002001F0C9
:1036D0004FFD742001F04CFD002001F049FD8420D5
:1036E00001F046FD002001F043FD932001F040FD74
:1036F000002001F03DFDA22001F03AFD002001F084
:1037000037FDB32001F034FD002001F031FDBE2073
:1037100001F02EFD002001F02BFDC42001F028FD5A
:10372000002001F025FDCD2001F022FD002001F058
:103730001FFDD32001F01CFD002001F019FDDD204C
:1037400001F016FD002001F013FDF32001F010FD43
:10375000002001F00DFDE52001F016FD002001F034
:1037600007FD002001F004FD002001F001FD002014
:1037700001F0FEFC022001F0FBFC002001F0F8FC4F
:10378000292001F0F5FC002001F0F2FC3C2001F0C2
:10379000EFFC002001F0ECFC4B2001F0E9FC0020E4
:1037A00001F0E6FC5D2001F0E3FC002001F0E0FC0C
:1037B000742001F0DDFC002001F0DAFC842001F02F
:1037C000D7FC002001F0D4FC932001F0D1FC0020B4
:1037D00001F0CEFCA22001F0CBFC002001F0C8FCDF
:1037E000B32001F0C5FC002001F0C2FCBE2001F0B6
:1037F000BFFC002001F0BCFCC42001F0B9FC00209B
:1038000001F0B6FCCD2001F0B3FC002001F0B0FCCB
:10381000D32001F0ADFC002001F0AAFCDC2001F077
:10382000A7FC002001F0A4FCF32001F0A1FC002083
:1038300001F09EFCE62001F0A7FC112001F098FCAD
:10384000002001F095FC342001F092FC002001F0F2
:103850008FFC562001F08CFC002001F089FC7620C2
:1038600001F086FC002001F083FC772001F080FC51
:10387000002001F07DFC662001F07AFC002001F0C0
:1038800077FC882001F074FC002001F071FC992085
:1038900001F06EFC002001F06BFCBB2001F068FC25
:1038A000002001F065FC992001F062FC002001F08D
:1038B0005FFC662001F05CFC002001F059FC552003
:1038C00001F056FC002001F053FC552001F050FCA3
:1038D000002001F04DFC452001F04AFC002001F0E1
:1038E00047FC432001F044FC002001F041FC44204F
:1038F00001F03EFC002001F03BFCE72001F044FC1D
:10390000322001F035FC002001F032FC552001F09E
:103910002FFC002001F02CFC762001F029FC002077
:1039200001F026FC662001F023FC002001F020FCC1
:10393000672001F01DFC002001F01AFC672001F057
:1039400017FC002001F014FC872001F011FC00207E
:1039500001F00EFC992001F00BFC002001F008FCA6
:10396000BB2001F005FC002001F002FC992001F0D1
:10397000FFFB002001F0FCFB772001F0F9FB0020A9
:1039800001F0F6FB442001F0F3FB002001F0F0FB16
:10399000562001F0EDFB002001F0EAFB232001F0AE
:1039A000E7FB002001F0E4FB332001F0E1FB002005
:1039B00001F0DEFB452001F0DBFB002001F0D8FB2D
:1039C000E82001F0E1FB002001F0D2FB002001F033
:1039D000CFFB992001F0CCFB002001F0C9FB872030
:1039E00001F0C6FB002001F0C3FB882001F0C0FB02
:1039F000002001F0BDFB772001F0BAFB002001F0B0
:103A0000B7FB662001F0B4FB002001F0B1FB882079
:103A100001F0AEFB002001F0ABFBAA2001F0A8FBF7
:103A2000002001F0A5FBBB2001F0A2FB002001F06B
:103A30009FFB992001F09CFB002001F099FB662080
:103A400001F096FB002001F093FB552001F090FB64
:103A5000002001F08DFB552001F08AFB002001F0D1
:103A600087FB442001F084FB002001F081FB44200F
:103A700001F07EFB002001F07BFB552001F078FB7C
:103A8000002001F075FBE92001F07EFBAA2001F087
:103A90006FFB002001F06CFB002001F069FB0020AF
:103AA00001F066FB002001F06FFBAA2001F060FB33
:103AB000CF2001F069FB002001F05AFB002001F04B
:103AC00057FB002001F054FB002001F051FB0020C7
:103AD00001F04EFB002001F04BFB002001F048FB01
:103AE000002001F045FB002001F042FB002001F026
:103AF0003FFB002001F03CFB002001F039FB0020DF
:103B000001F036FB002001F033FB002001F030FB18
:103B1000002001F02DFB002001F02AFBF02001F035
:103B200033FB002001F024FB502001F021FB00209A
:103B300001F01EFB002001F01BFB002001F018FB30
:103B4000F32001F021FB002001F012FBF92001F02D
:103B50001BFB062001F00CFB102001F009FB2920C3
:103B600001F006FB002001F003FB3A2001F00CFB02
:103B7000552001F0FDFA112001F006FB642002F04F
:103B8000F3FF292001F000FB352001F0FDFA0020B1
:103B900001F0EEFA512001F0F7FAFF2001F0E8FA07
:103BA000532001F0F1FA2C2001F0E2FA552001F047
:103BB000EBFA822001F0DCFA2C20FDE3A8427CD154
:103BC0004FF470435521184601F0F4FAAA214FF240
:103BD000010001F0EFFA52214FF2020001F0EAFA7F
:103BE00008214FF2030001F0E5FA01214FF2040031
:103BF00001F0E0FA0D214FF4304001F0DBFA0D2125
:103C00004BF2010001F0D6FA0D214BF2020001F057
:103C1000D1FA34214FF4364001F0CCFA34214BF282
:103C2000016001F0C7FA34214BF2026001F0C2FAE0
:103C30000D214FF4314001F0BDFA0D214BF201107E
:103C400001F0B8FA0D214BF2021001F0B3FA342161
:103C50004FF4374001F0AEFA34214BF2017001F01D
:103C6000A9FA34214BF2027001F0A4FA00214FF4BA
:103C7000324001F09FFA00214BF2012001F09AFA44
:103C800000214BF2022001F095FA24214FF4384034
:103C900001F090FA24214BF6010001F08BFA242167
:103CA0004BF6020001F086FA01214FF43F4001F08B
:103CB00081FA0F214FF4334000E0FCE301F07AFA7F
:103CC0000F214BF2013001F075FA0F214BF2023057
:103CD00001F070FA34214FF4394001F06BFA3421CD
:103CE0004BF6011001F066FA34214BF6021001F098
:103CF00061FA08214FF4354001F05CFA08214BF2DB
:103D0000015001F057FA08214BF2025001F052FA2B
:103D100003214FF4424001F04DFA24214FF43A4080
:103D200001F048FA24214BF6012001F043FA242146
:103D30004BF6022001F03EFA00214FF43C4001F026
:103D400039FA78214BF6014001F034FA00214BF6A4
:103D5000024001F02FFA00214FF43D4001F02AFA11
:103D600078214BF6015001F025FA00214BF6025064
:103D700001F020FA00214FF43E4001F01BFA6421CB
:103D80004BF6016001F016FA00214FF4514001F0AA
:103D900011FA33214DF2011001F00CFA00214DF21D
:103DA000021001F007FA34214DF2031001F002FA7B
:103DB00000214DF2041001F0FDF93A214DF20510F9
:103DC00001F0F8F900214DF2061001F0F3F94A2153
:103DD0004DF2071001F0EEF900214DF2081001F04C
:103DE000E9F95C214DF2091001F0E4F900214DF2EE
:103DF0000A1001F0DFF981214DF20B1001F0DAF920
:103E000000214DF20C1001F0D5F9A6214DF20D1054
:103E100001F0D0F900214DF20E1001F0CBF9E521AF
:103E20004DF20F1001F0C6F901214DF2101001F012
:103E3000C1F913214DF2111001F0BCF901214DF22D
:103E4000121001F0B7F954214DF2131001F0B2F93C
:103E500001214DF2141001F0ADF982214DF215103F
:103E600001F0A8F901214DF2161001F0A3F9CA21C1
:103E70004DF2171001F09EF902214DF2181001F0D9
:103E800099F900214DF2191001F094F902214DF237
:103E90001A1001F08FF901214DF21B1001F08AF97F
:103EA00002214DF21C1001F085F934214DF21D1054
:103EB00001F080F902214DF21E1001F07BF967211B
:103EC0004DF21F1001F076F902214DF2201001F0A1
:103ED00071F984214DF2211001F06CF902214DF2AB
:103EE000221001F067F9A4214DF2231001F062F9CC
:103EF00002214DF2241001F05DF9B7214DF2251099
:103F000001F058F902214DF2261001F053F9CF21AA
:103F10004DF2271001F04EF902214DF2281001F068
:103F200049F9DE214DF2291001F044F902214DF248
:103F30002A1001F03FF9F2214DF22B1001F03AF96D
:103F400002214DF22C1001F035F9FE214DF22D1019
:103F500001F030F903214DF22E1001F02BF9102160
:103F60004DF22F1001F026F903214DF2301001F02F
:103F700021F933214DF2311001F01CF903214DF2EA
:103F8000321001F017F96D214DF2331001F012F9E2
:103F900000214FF4524001F00DF933214DF2012080
:103FA00001F008F900214DF2022001F003F934215B
:103FB0004DF2032001F0FEF800214DF2042001F043
:103FC000F9F83A214DF2052001F0F4F800214DF204
:103FD000062001F0EFF84A214DF2072001F0EAF83F
:103FE00000214DF2082001F0E5F85C214DF2092096
:103FF00001F0E0F800214DF20A2001F0DBF8812108
:104000004DF20B2001F0D6F800214DF20C2001F00A
:10401000D1F8A6214DF20D2001F0CCF800214DF28F
:104020000E2001F0C7F8E5214DF20F2001F0C2F893
:1040300001214DF2102001F0BDF813214DF21120A5
:1040400001F0B8F801214DF2122001F0B3F854212B
:104050004DF2132001F0AEF801214DF2142001F0D1
:10406000A9F882214DF2152001F0A4F801214DF2AA
:10407000162001F09FF8CA214DF2172001F09AF89E
:1040800002214DF2182001F095F800214DF219207F
:1040900001F090F802214DF21A2001F08BF8012175
:1040A0004DF21B2001F086F802214DF21C2001F098
:1040B00081F834214DF21D2001F07CF802214DF2EF
:1040C0001E2001F077F867214DF21F2001F072F8F1
:1040D00002214DF2202001F06DF884214DF22120C3
:1040E00001F068F802214DF2222001F063F8A421CA
:1040F0004DF2232001F05EF802214DF2242001F060
:1041000059F8B7214DF2252001F054F802214DF263
:10411000262001F04FF8CF214DF2272001F04AF878
:1041200002214DF2282001F045F8DE214DF2292030
:1041300001F040F802214DF22A2001F03BF8F22173
:104140004DF22B2001F036F802214DF22C2001F027
:1041500031F8FE214DF22D2001F02CF803214DF213
:104160002E2001F027F810214DF22F2001F022F827
:1041700003214DF2302001F01DF833214DF23120A2
:1041800001F018F803214DF2322001F013F86D21EF
:104190004DF2332001F00EF800214FF4534001F0AE
:1041A00009F833214DF2013001F004F800214DF2FD
:1041B000023000F0FFFF34214DF2033000F0FAFF2F
:1041C00000214DF2043000F0F5FF3A214DF20530A8
:1041D00000F0F0FF00214DF2063000F0EBFF4A2125
:1041E0004DF2073000F0E6FF00214DF2083000F0FC
:1041F000E1FF5C214DF2093000F0DCFF00214DF2BF
:104200000A3000F0D7FF81214DF20B3000F0D2FFD1
:1042100000214DF20C3000F0CDFFA6214DF20D3003
:1042200000F0C8FF00214DF20E3000F0C3FFE52181
:104230004DF20F3000F0BEFF01214DF2103000F0C2
:10424000B9FF13214DF2113000F0B4FF01214DF2FE
:10425000123000F0AFFF54214DF2133000F0AAFFEE
:1042600001214DF2143000F0A5FF82214DF21530EE
:1042700000F0A0FF01214DF2163000F09BFFCA2193
:104280004DF2173000F096FF02214DF2183000F089
:1042900091FF00214DF2193000F08CFF02214DF208
:1042A0001A3000F087FF01214DF21B3000F082FF31
:1042B00002214DF21C3000F07DFF34214DF21D3003
:1042C00000F078FF02214DF21E3000F073FF6721ED
:1042D0004DF21F3000F06EFF02214DF2203000F051
:1042E00069FF84214DF2213000F064FF02214DF27C
:1042F000223000F05FFFA4214DF2233000F05AFF7E
:1043000002214DF2243000F055FFB7214DF2253047
:1043100000F050FF02214DF2263000F04BFFCF217C
:104320004DF2273000F046FF02214DF2283000F018
:1043300041FFDE214DF2293000F03CFF02214DF219
:104340002A3000F037FFF2214DF22B3000F032FF1F
:1043500002214DF22C3000F02DFFFE214DF22D30C8
:1043600000F028FF03214DF22E3000F023FF102132
:104370004DF22F3000F01EFF03214DF2303000F0DF
:1043800019FF33214DF2313000F014FF03214DF2BB
:10439000323000F00FFF6D214DF2333000F00AFF94
:1043A00000214FF4544000F005FF33214DF201404D
:1043B00000F000FF002100E082E34DF2024000F037
:1043C000F9FE34214DF2034000F0F4FE00214DF2DD
:1043D000044000F0EFFE3A214DF2054000F0EAFE05
:1043E00000214DF2064000F0E5FE4A214DF2074063
:1043F00000F0E0FE00214DF2084000F0DBFE5C2101
:104400004DF2094000F0D6FE00214DF20A4000F0C6
:10441000D1FE81214DF20B4000F0CCFE00214DF287
:104420000C4000F0C7FEA6214DF20D4000F0C2FE88
:1044300000214DF20E4000F0BDFEE5214DF20F408F
:1044400000F0B8FE01214DF2104000F0B3FE132140
:104450004DF2114000F0AEFE01214DF2124000F08D
:10446000A9FE54214DF2134000F0A4FE01214DF2AB
:10447000144000F09FFE82214DF2154000F09AFE9C
:1044800001214DF2164000F095FECA214DF2174071
:1044900000F090FE02214DF2184000F08BFE00214A
:1044A0004DF2194000F086FE02214DF21A4000F054
:1044B00081FE012100E006E34DF21B4000F07AFE90
:1044C00002214DF21C4000F075FE34214DF21D40DA
:1044D00000F070FE02214DF21E4000F06BFE6721DD
:1044E0004DF21F4000F066FE02214DF2204000F028
:1044F00061FE84214DF2214000F05CFE02214DF26C
:10450000224000F057FEA4214DF2234000F052FE5D
:1045100002214DF2244000F04DFEB7214DF225401E
:1045200000F048FE02214DF2264000F043FECF216C
:104530004DF2274000F03EFE02214DF2284000F0EF
:1045400039FEDE214DF2294000F034FE02214DF209
:104550002A4000F02FFEF2214DF22B4000F02AFEFF
:1045600002214DF22C4000F025FEFE214DF22D409F
:1045700000F020FE03214DF22E4000F01BFE102122
:104580004DF22F4000F016FE03214DF2304000F0B6
:1045900011FE33214DF2314000F00CFE03214DF2AB
:1045A000324000F007FE6D214DF2334000F002FE74
:1045B00000214FF4554000F0FDFD33214DF2015034
:1045C00000F0F8FD00214DF2025000F0F3FD34211F
:1045D0004DF2035000F0EEFD00214DF2045000F0CA
:1045E000E9FD3A214DF2055000F0E4FD00214DF2C5
:1045F000065000F0DFFD4A214DF2075000F0DAFDD1
:1046000000214DF2085000F0D5FD5C214DF209501B
:1046100000F0D0FD00214DF20A5000F0CBFD8121C9
:104620004DF20B5000F0C6FD00214DF20C5000F091
:10463000C1FDA6214DF20D5000F0BCFD00214DF250
:104640000E5000F0B7FDE5214DF20F5000F0B2FD25
:1046500001214DF2105000F0ADFD13214DF211502B
:1046600000F0A8FD01214DF2125000F0A3FD5421ED
:104670004DF2135000F09EFD01214DF2145000F058
:1046800099FD82214DF2155000F094FD01214DF26B
:10469000165000F08FFDCA214DF2175000F08AFD30
:1046A00002214DF2185000F085FD00214DF2195005
:1046B00000F080FD02214DF21A5000F07BFD012137
:1046C0004DF21B5000F076FD02214DF21C5000F01F
:1046D00071FD34214DF21D5000F06CFD02214DF2B0
:1046E0001E5000F067FD67214DF21F5000F062FD83
:1046F00002214DF2205000F05DFD84214DF2215049
:1047000000F058FD02214DF2225000F053FDA4218B
:104710004DF2235000F04EFD02214DF2245000F0E6
:1047200049FDB7214DF2255000F044FD02214DF224
:10473000265000F03FFDCF214DF2275000F03AFD0A
:1047400002214DF2285000F035FDDE214DF22950B6
:1047500000F030FD02214DF22A5000F02BFDF22135
:104760004DF22B5000F026FD02214DF22C5000F0AE
:1047700021FDFE214DF22D5000F01CFD03214DF2D4
:104780002E5000F017FD10214DF22F5000F012FDB9
:1047900003214DF2305000F00DFD33214DF2315028
:1047A00000F008FD03214DF2325000F003FD6D21B1
:1047B0004DF2335000F0FEFC00214FF4564000F063
:1047C000F9FC33214DF2016000F0F4FC00214DF2C0
:1047D000026000F0EFFC34214DF2036000F0EAFCCF
:1047E00000214DF2046000F0E5FC3A214DF2056035
:1047F00000F0E0FC00214DF2066000F0DBFC4A21F5
:104800004DF2076000F0D6FC00214DF2086000F088
:10481000D1FC5C214DF2096000F0CCFC00214DF28E
:104820000A6000F0C7FC81214DF20B6000F0C2FC71
:1048300000214DF20C6000F0BDFCA6214DF20D6090
:1048400000F0B8FC00214DF20E6000F0B3FCE52151
:104850004DF20F6000F0AEFC01214DF2106000F04F
:10486000A9FC13214DF2116000F0A4FC01214DF2CE
:10487000126000F09FFC54214DF2136000F09AFC8E
:1048800001214DF2146000F095FC82214DF215607B
:1048900000F090FC01214DF2166000F08BFCCA2163
:1048A0004DF2176000F086FC02214DF2186000F016
:1048B00081FC00214DF2196000F07CFC02214DF2D8
:1048C0001A6000F077FC01214DF21B6000F072FCD1
:1048D00002214DF21C6000F06DFC34214DF21D6090
:1048E00000F068FC02214DF21E6000F063FC6721BD
:1048F0004DF21F6000F05EFC02214DF2206000F0DE
:1049000059FC84214DF2216000F054FC02214DF24B
:10491000226000F04FFCA4214DF2236000F04AFC1D
:1049200002214DF2246000F045FCB7214DF22560D4
:1049300000F040FC02214DF2266000F03BFCCF214C
:104940004DF2276000F036FC02214DF2286000F0A5
:1049500031FCDE214DF2296000F02CFC02214DF2E9
:104960002A6000F027FCF2214DF22B6000F022FCBF
:1049700002214DF22C6000F01DFCFE214DF22D6055
:1049800000F018FC03214DF22E6000F013FC102102
:104990004DF22F6000F00EFC03214DF2306000F06C
:1049A00009FC33214DF2316000F004FC03214DF28B
:1049B000326000F0FFFB6D214DF2336000F0FAFB36
:1049C0005521184600F0F6FBAA214FF2010000F035
:1049D000F1FB52214FF2020000F0ECFB08214FF2F4
:1049E000030000F0E7FB00214FF2040000F0E2FBBF
:1049F000CC214FF4314000F0DDFB00214BF20110DF
:104A000000F0D8FB05214FF4364000F0D3FB7021B5
:104A10004FF4374000F0CEFB70214BF2017000F0F4
:104A2000C9FB01214FF4384000F0C4FB03214BF6D1
:104A3000010000F0BFFB03214BF6020000F0BAFBBF
:104A400003214BF6030000F0B5FB02214FF43C407C
:104A500000F0B0FB00214BF6014000F0ABFB002161
:104A60004BF6024000F0A6FBD0214FF4494000F085
:104A7000A1FB02214CF6011000F09CFB50214CF6EA
:104A8000021000F097FB50214CF6031000F092FB4F
:104A900050214CF6041000F08DFB00214FF45450CF
:104AA00000F088FB55214FF4685000F083FB4FF471
:104AB000885000F069FB782002F064F84FF424502D
:104AC00000F062FBB9E0B842FCD1E22000F05CFBF0
:104AD0001D2000F04DFB022000F04AFB042000F0F6
:104AE00047FB642002F04EF8E02000F04DFB01206F
:104AF00000F03EFB0A2002F037F8E02000F044FB13
:104B0000032000F035FB0C2002F02EF8012000F00D
:104B10003BFB0A2002F028F8E62000F035FB2F20AE
:104B200000F026FBFF2000F023FBFF2000F020FB1D
:104B3000B02000F029FB202000F01AFB002000F03C
:104B400017FB032000F014FB40F21F3000F010FBB5
:104B5000012000F00DFB40F2DF1000F009FB002007
:104B600000F006FBB42000F00FFB042000F000FB77
:104B700040F21F4000F0FCFA002000F0F9FA2E206D
:104B800000F0F6FA002000F0F3FA002000F0F0FA4E
:104B9000002000F0EDFA002000F0EAFAB62000F064
:104BA000F3FA022000F0E4FA4FF4037000F0E0FAA8
:104BB000002000F0DDFA172000F0DAFA152000F0EE
:104BC000D7FA002000F0D4FA002000F0D1FAF0204B
:104BD00000F0DAFA032000F0CBFA292000F0D4FA32
:104BE000D02000F0D1FA002000F0C2FABE2000F080
:104BF000CBFA052000F0BCFAFE2000F0B9FA012043
:104C000000F0B6FA002000F0B3FA002000F0B0FA8D
:104C1000002000F0ADFAB82000F0B6FA032000F052
:104C2000A7FA012000F0A4FABA2000F0ADFA0120A2
:104C300000F09EFA642000F043F8B8F804005045F4
:104C400005D0B04203D0A84201D0B84217D1D4F861
:104C50001C0120F00F00C4F81C01D4F81C0120F442
:104C60007060C4F81C01D4F81C0140F00100C4F8C5
:104C70001C01D4F81C0140F48070C4F81C01002011
:104C8000FDF73CFD0449C1F880915846FDF71CFD35
:104C900015B0BDE8F08F00000080214203460120DE
:104CA00000E05843491EC9B2FBD27047034808B51B
:104CB0000088ADF80000BDF8000008BD0008006CD9
:104CC00010B50246BE2000F05FFA052000F050FA51
:104CD000104606F002FE4FF066320B4B06F010FE57
:104CE00006F0CEFD80B200F043FA012000F040FA59
:104CF000FF2000F03DFA002000F03AFABDE8104035
:104D0000002000F035BA000066660440F0B56C4D36
:104D100000232946AA79898841F66314012A01D023
:104D20001AB11BE0A14202D118E0A14216D1082815
:104D300014D2DFE800F00406080A0C0E1012062058
:104D40000CE007200AE0042008E0052006E001202E
:104D500004E0002002E0032000E00220A1F5134758
:104D600045F2103245F21056413F05D0914203D032
:104D7000B14201D0A14277D1082812D2DFE800F079
:104D8000110406080A0C0E1080230AE0402308E0F4
:104D9000C02306E0202304E0602302E0A02300E01B
:104DA000E023B14202D14FF4585000E03620914246
:104DB00005D0B14203D0A14201D043F00803194607
:104DC00000F0F8F9AA88A2420AD0980628886988D3
:104DD00002D5884202D303E0884201D92980688045
:104DE0006889B24241D100F0CFF9002000F0C0F94B
:104DF0006889401C80B200F0C7F9002000F0B8F9C3
:104E00006889801C80B200F0BFF92888401EC0F37A
:104E10000F2000F0ADF96889C01C80B200F0B4F931
:104E20002878401EC0B200F0A3F9A88900F0ACF9C0
:104E3000002000F09DF9A889401C80B200F0A4F980
:104E4000002000F095F9A889801C80B200F09CF940
:104E50006888401EC0F30F2000F08AF9A889C01CA2
:104E600080B200F091F922E028E000F08DF90020F6
:104E700000F07EF9002000F07BF92888401EC0F386
:104E80000F2000F075F92878401EC0B200F070F9CC
:104E9000A88900F079F9002000F06AF9002000F0FC
:104EA00067F96888401EC0F30F2000F061F9A87808
:104EB000BDE8F040401EC0B200F05AB9F0BD00009D
:104EC000A0030020F0B53F4D0C460246060AA98813
:104ED0002846270A4089A1F51343413B28D0A1F574
:104EE000A643103B24D0A1F5C853633B2FD0A1F5B6
:104EF000AA43103B64D100F047F9304600F038F97E
:104F00006889401C80B200F03FF9D0B200F030F95F
:104F1000A88900F039F9384600F02AF9A889401C20
:104F200080B200F031F9E0B2BDE8F04000F020B905
:104F300000F02AF9304600F01BF9D0B200F018F961
:104F4000A88900F021F9384600F012F9EBE7A979B9
:104F500029B300F019F9304600F00AF9D0B200F098
:104F600007F92888401EC0F30F2000F001F92878C7
:104F7000401EC0B200F0FCF8A88900F005F93846E0
:104F800000F0F6F8E0B200F0F3F86888401EC0F3D5
:104F90000F2000F0EDF8A878401EC0B2C4E72988C1
:104FA000891A491E8AB200F0EFF8002000F0E0F8FC
:104FB000002000F0DDF8100A00F0DAF8D0B2D9E7EE
:104FC000F0BD0000A00300202DE9F84F82461F46E7
:104FD0000E468B46580700D0012000EBD700790819
:104FE0004843203AC0B202F0FF090025009047E094
:104FF0000C2F10D0102F12D0182F14D0202F42D1E8
:10500000224901EBC9104FF00008445D200610D57D
:105010001F48026811E009EB49001E4906E01E49DD
:1050200001EB0910EFE71D4909EBC90001EB800016
:10503000E9E70A9828B91648426831465046FDF714
:10504000C9FB6006040E1648761CB6B24088B04212
:1050500019D9A6EB0B00B84209D10AF101001FFAD9
:1050600080FA0F485E46018851450CD906E008F1E8
:10507000010000F0FF08B8F1080FC7D36D1CEDB2B6
:1050800000988542B4D3BDE8F88F0000D4D2000860
:105090001800002014BB000888BF000878C500086D
:1050A000A00300202DE9FF4F81B00027DDF838B0C4
:1050B0001D46924680463C46B9464FEA5B0627E0CD
:1050C000281B401EC1B20A20FFF7E8FDBAFBF0F032
:1050D0000A21B0FBF1F201FB120027B9691E8C42D4
:1050E00001DA48B101273030C2B206FB048080B239
:1050F0005B46CDF8009006E006FB048080B25B467C
:105100002022CDF800900299FFF75EFF641CE4B204
:10511000AC42D5D305B0BDE8F08F2DE9F84F044679
:1051200000F0FF0810190D46DDE90A761FFA80FA33
:1051300058191FFA80F94FF0000B11E0544502D3C3
:10514000E819444685B24D450FD23B4629462046D4
:10515000CDF800B0FFF738FF04EB570084B2761C9F
:105160003278A2F120005E28E8D9BDE8F88F00006F
:1051700001B5BDF80000ADF80000BDF80000014920
:10518000088008BD0008006C01B5BDF80000ADF84E
:105190000000BDF800000149088008BDFE07006C52
:1051A000024803490089088070470000A0030020DE
:1051B000FE07006C024A1080901C018070470000BE
:1051C000FE07006C30B5184885B0816941F00801D0
:1051D0008161816901F008010491816941F0400118
:1051E00081618069202400F0400004900120CDE915
:1051F0000040029003200D4D039069462846FBF7BE
:10520000F9FC00940A4C69462046FBF7F3FC0122A6
:1052100020212846FBF7E4FD012220212046FBF750
:10522000DFFD05B030BD000000100240000C014061
:1052300000180140FEE770470907090E002806DA4A
:1052400000F00F0000F1E02080F8141D704700F11D
:10525000E02080F80014704770470A6842624A688C
:105260008262D1E902231A43D1E904310B43C16AB6
:105270001A4321F0F7010A43C26200207047006917
:10528000C0B27047006800F00300704708B50248DC
:1052900008440090006808BD1480014070B50DF10D
:1052A000100C11439CE870002343194329434268C2
:1052B000314347F6FF639A4311434160002070BDBC
:1052C0000321016000207047D0F8800070470A6811
:1052D0008260D1E901231A43D1E903310B43C1684C
:1052E0001A436FF30B010A43C2600020704709683C
:1052F000C0F880100020704770B5044600680E4664
:105300000025416B11F0450FFBD0416B490703D5D8
:1053100003210422826304E0416BC90703D0012109
:105320008163084670BDFFF7AAFFB0422CD1216807
:1053300040F2FF50886300212068FFF7A7FF28494B
:1053400008424BD0002801DA1C2070BD410001D575
:10535000092070BD810001D50A2070BDC10001D5B2
:105360000B2070BD010101D50C2070BD410101D59C
:105370000D2070BDC10101D50E2070BD010201D507
:105380000F2070BD410201D5102070BD810201D5F2
:10539000112070BDC10201D5122070BD010301D5DD
:1053A000132070BD410301D5142070BD810301D5C8
:1053B000152070BDC10301D5162070BD010401D5B3
:1053C000172070BD410401D5182070BD810401D59E
:1053D000192070BD000701D51A2070BD284670BD88
:1053E00008E0FFFD0146002009684A6B12F0450FF6
:1053F000FBD04A6B520702D50320042207E04A6B18
:10540000D20702D001208863704740F2FF528A63BE
:1054100070472DE9F0410446006815460E46002706
:10542000416B11F0450FFBD0416B490703D50321B8
:105430000422826304E0416BC90704D00121816327
:105440000846BDE8F081FFF71AFFB04213D121688A
:1054500040F2FF50886300212068FFF717FF10F427
:10546000604F03D0810404D51320EAE7000C2880A4
:1054700007E0410401D51020E3E7000401D50F2027
:10548000DFE73846DDE70246292012684FF4803115
:10549000536B13F0450307D0012305E0536B13F062
:1054A000450300D00123491E0BB90029F6D1536BE7
:1054B000C3F3800301B113B10320042104E0516B55
:1054C000490602D500204021916370472DE9F04F35
:1054D0008DB00F46044614216846FBF752F9182197
:1054E00005A8FBF74EF900250B9508261021CDE9FC
:1054F000006140210C95CDE9021508010490A846F1
:1055000069462068FFF7E3FE10212046FFF7F4FE0E
:10551000002844D1A08C69460004009037200190F7
:105520002068FFF7D4FE37212046FFF7E5FE00286C
:1055300035D1401ECDE9050630204FF00209CDE9F6
:1055400007090120CDE90980B246464605A9206831
:10555000FFF783FE3320CDE9006069462068FFF73E
:10556000B6FE33212046FFF7C7FE060017D10DF126
:105570002C0840F22A6B2068416B11EA0B0F08D10E
:10558000416B8902F7D5FFF79FFE48F825006D1C97
:10559000F1E7416B090705D5C0F838A004200DB02C
:1055A000BDE8F08F416B890703D5C0F838904846B5
:1055B000F5E7416B890603D5202181630620EEE7DC
:1055C000416B890504D54FF4007181630720E6E73C
:1055D00040F2FF5181630B9800BA78600C9800BAD2
:1055E00038603046DBE700000E4810B50C4901601A
:1055F000002141608160C1600161416109218161D7
:1056000000F16001FCF7B5F908B1012010BD4FF4BD
:1056100000610448FCF72BFB0028F7D0022010BDE6
:1056200000800140F803002070B586B004461421C4
:105630006846FBF7A6F80120ADF8140000252068A5
:10564000FFF720FE80B3206A042868D000200221E2
:10565000C0268DE843000390480204906946206804
:10566000FFF735FE2046FFF7BDFE05001ED10021E5
:105670002068FFF70BFEA06304212068FFF706FEF9
:10568000E06308212068FFF701FE20640C212068F8
:10569000FFF7FCFD6064206A50B1012808D006289D
:1056A00006D0022804D012E0FFE7252006B070BD26
:1056B000032001904020029069462068FFF707FE12
:1056C00005AA03212046FFF7A4FE0500EED1206ABB
:1056D000042824D0BDF81400606200040090092062
:1056E000CDE9010669462068FFF7F1FD2046FFF786
:1056F00079FE0500DAD100212068FFF7C7FDA0621E
:1057000004212068FFF7C2FDE06208212068FFF74E
:10571000BDFD20630C212068FFF7B8FD60632846BB
:10572000C4E7000070B586B00D460446142101A8F8
:10573000FBF727F800260096A18C090401910D21A2
:1057400002914021CDE903160801059001A92068C6
:10575000FFF7BDFD2068416B11F0450FFBD0416B99
:10576000490703D503210422826304E0416BC90782
:1057700004D001218163084606B070BDFFF77FFDAC
:105780000D2839D1216840F2FF508863002120683C
:10579000FFF77CFD0090C0F343202870314900984A
:1057A00008425DD00098002801DA1C20E4E74000A0
:1057B00001D50920E0E70098800001D50A20DBE749
:1057C0000098C00001D50B20D6E70098000101D554
:1057D0000C20D1E70098400101D50D20CCE70098BE
:1057E000C00101D50E20C7E70098000201D50F20A7
:1057F000C2E70098400201D51020BDE70098800262
:1058000001D51120B8E70098C00201D51220B3E7F6
:105810000098000301D51320AEE70098400301D59E
:105820001420A9E70098800301D51520A4E700986B
:10583000C00301D516209FE70098000401D517206A
:105840009AE70098400401D5182095E70098800455
:1058500001D5192090E70098000701D51A208BE7A1
:10586000304689E708E0FFFD2DE9F04F87B0044698
:1058700014216846FAF785FF4FF0000BD9468DF8E2
:1058800014B020685F465D4641685E46D84621F404
:10589000807141602068FFF713FD0120FBF79FF93D
:1058A0002068416841F480714160CDE90099484623
:1058B000CDF808904FF48069CDE903096946206866
:1058C000FFF705FD226800234FF48030516BC1F3D0
:1058D000C01104E0516B401EC1F3C0110CD000296F
:1058E000F8D048B140F2FF5090638DF814309DF825
:1058F000140000287AD101E00323F6E74FF4D570B5
:105900000090082001904020029069462068FFF72F
:10591000DEFC2046FFF7B7FD8DF814009DF814005B
:1059200018B901204FF0804820623720CDE900B03F
:1059300069462068FFF7CBFC37212046FFF7DCFCE7
:105940008DF814009DF814004FF6FF7178B34DE008
:1059500037204027CDE900B0CDE9027BCDF810908B
:105960005E4669462068FFF7B2FC37212046FFF704
:10597000C3FC8DF814009DF8140090BB1E4948EA42
:10598000010000902920CDE90107CDE903696946AE
:105990002068FFF79CFC20680021426B12F0450F45
:1059A000FBD0426B520703D50321042202E00FE033
:1059B00040F2FF5282638DF814109DF8140080B9F4
:1059C00000212068FFF762FCC60F07466D1C00E04F
:1059D0008A460EB95545BBD3554503D31B208DF8D8
:1059E000140003E0780001D5022020629DF8140025
:1059F00007B0BDE8F08F0000000010802DE9FC5FCB
:105A0000924605464FF00008CE0D4F02FCF728FEE7
:105A1000A9074FF400701CD000244FF0010B814601
:105A200014E06002C2191249CDE9009B46EBE07315
:105A3000A1F1B800FCF73AF880464A460C492846DE
:105A4000FAF75AFE641CE4B205F500755445E8D334
:105A500009E0CDE9000A06483A4633462946B838F7
:105A6000FCF724F88046FCF7FDFD4046BDE8FC9FAE
:105A7000B004002030B587B0044614216846FAF718
:105A800080FE00250595069529462068FFF7FEFB58
:105A9000800102D50E2007B030BD05A92046FFF7D2
:105AA00015FD0028F7D10698C0031FD5A08C6946C4
:105AB00000040090372001904020CDE9020500014C
:105AC00004902068FFF703FC37212046FFF714FC01
:105AD0000028E0D10620CDE9005069462068FFF794
