:020000040800F2
:1000000020120020E9010008031100087B100008FD
:1000100001110008910200087D1200080000000094
:100020000000000000000000000000004501000882
:100030009302000800000000890100083711000841
:10004000030200080302000803020008030200087C
:10005000030200080302000803020008030200086C
:10006000030200080302000803020008030200085C
:10007000030200080302000803020008030200084C
:10008000030200080302000803020008030200083C
:10009000030200080302000803020008030200082C
:1000A00003020008ED110008030200080302000823
:1000B000030200080302000803020008030200080C
:1000C00003020008030200080302000803020008FC
:1000D00003020008030200080302000803020008EC
:1000E00003020008030200080302000803020008DC
:1000F00003020008030200080302000803020008CC
:1001000003020008030200080302000803020008BB
:1001100003020008030200080302000803020008AB
:10012000030200080302000803020008030200089B
:10013000DFF80CD000F08EF800480047A912000844
:1001400020120020204B19680868B0E8F00F80F3F7
:100150000988BFF36F8F4FF0000080F311884EF0D5
:100160000D0E70470000000006480068006880F32C
:10017000088862B661B6BFF34F8FBFF36F8F00DFA1
:1001800000BF00BF08ED00E0EFF30980BFF36F8F01
:100190000D4B1A6820E9F00F106008B54FF05000C1
:1001A00080F3118801F0FEFD4FF0000080F311880C
:1001B000BDE8084019680868B0E8F00F80F30988C6
:1001C000BFF36F8F704700BF00000020EFF3118076
:1001D0004FF0500181F31188704780F31188704708
:1001E000EFF3058070470000064880470648004747
:1001F000FEE7FEE7FEE7FEE7FEE7FEE7FEE7FEE7D7
:10020000FEE7FEE7A51100083101000840EA0103FE
:100210009B0703D009E008C9121F08C0042AFAD2BC
:1002200003E011F8013B00F8013B521EF9D2704780
:10023000D2B201E000F8012B491EFBD27047002228
:10024000F6E710B513460A4604461946FFF7F0FFD5
:10025000204610BD064C074D06E0E06840F0010363
:1002600094E8070098471034AC42F6D3FFF764FFD8
:100270009C270008BC2700080349044A31F81010E5
:1002800052F8200000F006B95C2700086C0000203E
:10029000FEE7704731B500F007F9044600F004F9B5
:1002A0000099001B8842F9D338BD00002DE9F84FB2
:1002B000DFF8B8A100220AF1040B144601274FF021
:1002C0000F090BF1040E00BF0B6807FA04F52B4071
:1002D000AB4274D1DFF898C14E68A6EB0C086645B6
:1002E0002BD00DDC032E34D005DC36B3012E19D013
:1002F000022E2FD11BE0112E16D0122E2AD119E07A
:10030000B8F5881F19D006DCB8F5803F15D0B8F5D0
:10031000801F1FD111E0B8F5001F0ED0B8F5041FE3
:1003200018D10AE0CA6815E0CA68121D12E0CA684E
:1003300008320FE0CA680C320CE08A682AB1012A40
:100340004FF0080203D0456104E0042202E0056199
:1003500000E00022FF2B01D8064601E000F1040670
:100360004FEA840501D9A5F12005D6F800C009FAA5
:1003700005F82CEA080C02FA05F54CEA050CC6F85B
:1003800000C04D68ED006AD53A4DAE6946F00106F1
:10039000AE61AD6924F0030605F001050095364D08
:1003A00006EB050CDCF80850A6074FEA167809FAA8
:1003B00008F6B543314EB04202D100261AE04EE0B5
:1003C0002F4EB04201D1012614E02E4EB04201D191
:1003D00002260FE02C4EB04201D103260AE02B4E3C
:1003E000B04201D1042605E0294EB04201D10526D4
:1003F00000E0062606FA08F62E43CCF808604D68A1
:10040000DAF80060ED03554601D51E4300E09E4337
:100410002E604D68AD0305D5DBF800601E43CBF8B8
:10042000006004E0DBF800509D43CBF800504D68BD
:10043000DEF80060ED02754601D51E4300E09E43E4
:100440002E604D68AD0205D5084D0C352E681E4353
:100450002E6004E0054E0C3635689D433560641C03
:10046000102CFFF431AFBDE8F88F0000000401400C
:10047000000011100010024000000140000801407F
:10048000000C014000100140001401400018014020
:10049000001C0140C2684A40C26070470AB1016155
:1004A00070470904FBE7000001480068704700003E
:1004B0008800002002480168491C01607047000064
:1004C00088000020074810B5016841F01001016064
:1004D000032000F0AFF8002000F006F800F03EF82E
:1004E000002010BD0020024000B5014687B0002268
:1004F000192000F07FF8192000F070F81348816986
:1005000041F400618161806905A900F400600690F2
:10051000684600F065F900F089F90D490D4AB0FB15
:10052000F1F10D48491E0260416040F2E7320021BE
:10053000C0E90321816000F0B6FC10B1012007B0D2
:1005400000BD054800F0CBFCF9E7000000100240B8
:1005500040420F00002C0140E40D00201D4808B56A
:10056000816941F001018161806900F00100009022
:10057000032000F05FF8002211466FF00B0000F03E
:1005800039F8002211466FF00A0000F033F800221B
:1005900011466FF0090000F02DF800221146501F9F
:1005A00000F028F800221146101F00F023F8002266
:1005B0000F21901E00F01EF800220F21501E00F0A7
:1005C00019F80548416821F0E06141F0806141601F
:1005D00008BD0000001002400000014000F01F02B2
:1005E000012191404009800000F1E020C0F8001195
:1005F00070470000F0B40E4B1B680C46C3F3022397
:10060000C3F10705042D00D90425191D072901D2BE
:10061000002300E0DB1E012606FA05F1491E2140F9
:1006200099409E40761E16403143F0BC00F06ABDF2
:100630000CED00E0064900F0070208684FF6FF03E2
:10064000184040EA0220034A104308607047000047
:100650000CED00E00000FA052DE9F047DFF87081AD
:1006600005460E46D8F8000000F00700B0420CD254
:10067000D8F8001021F007013143C8F80010D8F86D
:10068000000000F00700B04277D12878514C800775
:1006900005D56068A96820F0F000084360602878FC
:1006A000C00759D06968012001290DD0022929D03D
:1006B0005FF0020393FAA3F2B2FA82F242F0200250
:1006C000520904D0226803E04FF40033F2E7626A73
:1006D00093FAA3F3B3FA83F303F01F0398400242A3
:1006E0004BD0606820F0030008436060FFF7DCFE39
:1006F0006968074641F2883001290DD002298146F8
:1007000017D025E04FF00073D4E700BFFFF7CCFE11
:10071000C11B494501D918E081466068C0F38100DA
:100720000128F3D118E000BFFFF7BEFEC11B494509
:100730000BD86068C0F381000228F5D10CE000BF3F
:10074000FFF7B2FEC11B494502D90320BDE8F0877F
:10075000606810F00C0FF3D1D8F80010404601F09B
:100760000701B1420BD9016821F007013143016053
:10077000006800F00700B04201D00120E6E72878C9
:10078000400705D56068E96820F4E06008436060D0
:100790002878000706D56068296920F4605040EA8F
:1007A000C100606000F05AF86168F02292FAA2F28B
:1007B00001F0F001B2FA82F2D140074A515CC84020
:1007C000064908600020FFF78FFE0020BEE700000A
:1007D00000200240001002407C2700088400002016
:1007E0000F2202600C4A536803F00303436053680E
:1007F00003F0F0038360536803F4E063C36052685E
:100800004FF4E06303EAD20202610448006800F09A
:1008100007000860704700000010024000200240FE
:10082000014800687047000084000020084809491A
:10083000006849684FF4605292FAA2F201F46051E4
:10084000B2FA82F2D140044A515CC84070470000BD
:1008500084000020001002408C27000810B519A366
:1008600085B00FCB8DE80F001AA01B4B00680490D9
:100870005A681A4802F00C0104291DD008291BD11E
:100880004FF4701494FAA4F402F47011B4FA84F4DE
:10089000E140D2031DF8011010D55A684FF400331F
:1008A00093FAA3F302F40032B3FA83F3DA4004AB11
:1008B0009A5CB0FBF2F0484305B010BD08484843CD
:1008C000FAE7000002030405060708090A0B0C0DED
:1008D0000E0F1010010200000010024000127A00FA
:1008E00000093D002DE9F84F04460078F74DC00798
:1008F0004FF0010625D068687704C0F38100012815
:1009000007D06868C0F3810002281BD16868C00363
:1009100018D597FAA7F0B0FA80F040F0200040090F
:1009200001D0286800E0686A97FAA7F1B1FA81F16E
:1009300001F01F0106FA01F108425ED0606800284C
:100940007CD05AE06068B0F5803F0BD010B1B0F5B4
:10095000A02F11D0286820F480302860286820F467
:10096000802002E0286840F480302860606828B366
:10097000FFF79AFD80460BE0286840F4802028604D
:10098000F0E700BFFFF790FDA0EB0800642871D8E6
:1009900097FAA7F0B0FA80F040F02000400901D0AB
:1009A000286800E0686A97FAA7F1B1FA81F101F0CE
:1009B0001F0106FA01F10842E4D01EE0FFF774FDC2
:1009C000804605E0FFF770FDA0EB08006428DED844
:1009D00097FAA7F0B0FA80F040F02000400901D06B
:1009E000286800E0686A97FAA7F1B1FA81F101F08E
:1009F0001F0106FA01F10842E4D12078DFF8D08225
:100A000080074FF000094FF002075BD568684FF090
:100A1000F80B10F00C0F07D06868C0F381000228B3
:100A20001CD16868C00319D497FAA7F0B0FA80F017
:100A300040F02000400902D0286801E08BE0686A9D
:100A400097FAA7F1B1FA81F101F01F0106FA01F15D
:100A500008422CD0206901287DD128E0206990B37C
:100A600096FAA6F0B0FA80F048F82060FFF71CFD77
:100A7000824607E011E100BFFFF716FDA0EB0A0078
:100A8000022884D897FAA7F0B0FA80F040F020004E
:100A9000400901D0286800E0686A97FAA7F1B1FA26
:100AA00081F101F01F0106FA01F10842E4D0286843
:100AB0009BFAABF26169B2FA82F220F0F800914041
:100AC0000843286025E0FFE796FAA6F1B1FA81F124
:100AD00048F82190FFF7E8FC824605E0FFF7E4FCC8
:100AE000A0EB0A000228CCD897FAA7F0B0FA80F061
:100AF00040F02000400901D0286800E0686A97FAB9
:100B0000A7F1B1FA81F101F01F0106FA01F10842E3
:100B1000E4D1207800076ED5A069B8B396FAA6F0A4
:100B2000B0FA80F008EB8000C0F88064FFF7BCFCEE
:100B3000824605E0FFF7B8FCA0EB0A000228A0D827
:100B400097FAA7F0B0FA80F040F06000B6EB501FC3
:100B500002D128680CE062E197FAA7F0B0FA80F0C1
:100B600040F06000B7EB501F01D1286A00E0686ACE
:100B700097FAA7F1B1FA81F101F01F0106FA01F22B
:100B80001042D7D00120FFF785FB34E0FFE796FA4B
:100B9000A6F1B1FA81F108EB8101C1F88094FFF769
:100BA00083FC824606E000BFFFF77EFCA0EB0A0054
:100BB000022872D897FAA7F0B0FA80F040F06000EF
:100BC000B6EB501F01D128680BE097FAA7F0B0FAF6
:100BD00080F040F06000B7EB501F01D1286A00E0C0
:100BE000686A97FAA7F1B1FA81F101F01F0106FADC
:100BF00001F21042D8D12078400765D5E86940F06D
:100C00008050E861E869DFF8CCB000F080500090D7
:100C1000DBF8001041F48071CBF80010FFF744FCC2
:100C2000824605E0FFF740FCA0EB0A00642834D8B8
:100C3000DBF80000C005F5D5E06801280AD008B14E
:100C4000052813D0286A20F001002862286A20F0C5
:100C5000040002E0286A40F001002862E06841F2E6
:100C6000883B90B3FFF720FC82460BE0286A40F0F7
:100C700004002862EEE700BFFFF716FCA0EB0A01B4
:100C800059450AD897FAA7F0B0FA80F040F0400032
:100C9000B6EB501F02D128680CE0A3E097FAA7F04A
:100CA000B0FA80F040F04000B7EB501F01D1286A45
:100CB00000E0686A97FAA7F1B1FA81F101F01F022A
:100CC00006FA02F10842D7D031E005E000100240F8
:100CD0000000424200700040FFF7E6FB824605E05C
:100CE000FFF7E2FBA0EB0A0159457BD897FAA7F082
:100CF000B0FA80F040F04000B6EB501F01D12868F8
:100D00000BE097FAA7F0B0FA80F040F04000B7EBA4
:100D1000501F01D1286A00E0686A97FAA7F1B1FA7A
:100D200081F101F01F0206FA02F10842D8D1E06910
:100D300080B36968C1F38101022970D04FF08071DE
:100D40004F000228484609D091FAA1F1B1FA81F189
:100D500048F82100FFF7A8FB044669E08A4691FAAB
:100D6000A1F1B1FA81F1C14648F82100FFF79CFBDF
:100D7000804605E0FFF798FBA0EB0800022854D856
:100D800097FAA7F0B0FA80F040F02000400902D0B6
:100D9000286801E061E0686A97FAA7F1B1FA81F189
:100DA00001F01F0106FA01F10842E3D1206AB0F513
:100DB000803F05D16868A16820F40030084368606E
:100DC000D4E908010843696821F474110843686094
:100DD0009AFAAAF0B0FA80F049F82060FFF764FBB5
:100DE000044606E021E000BFFFF75EFB001B02287F
:100DF0001BD897FAA7F0B0FA80F040F02000400925
:100E000001D0286800E0686A97FAA7F1B1FA81F189
:100E100001F01F0106FA01F10842E5D01DE01EE0D5
:100E2000FFF742FB001B022802D90320BDE8F88F20
:100E300097FAA7F0B0FA80F040F02000400901D006
:100E4000286800E0686A97FAA7F1B1FA81F101F029
:100E50001F0106FA01F10842E2D10020E6E7012075
:100E6000E4E74FF0E0210428086903D020F00400F3
:100E70000861704740F00400FAE710B5401EB0F179
:100E8000807F01D3012010BD4FF0E02460610F216D
:100E9000601700F037F90020A061072020610020D2
:100EA00010BD7047704710B5040003D094F83900A6
:100EB00010B107E0012010BD002084F83800204662
:100EC00000F00CF8022084F83900211D206800F0A1
:100ED00093F9012084F83900002010BD70470168A3
:100EE000CA6842F00102CA600068016841F001016D
:100EF000016000207047704770B5044600680169C2
:100F00004FF00005C943890715D4C168C943890753
:100F100011D4E91E016101202076206880698007D4
:100F2000204602D0FFF7E7FF04E000F098F82046E3
:100F300000F096F8257620680169C943490717D45F
:100F4000C168C943490713D46FF00401016102204D
:100F500020762068806910F4407F204602D0FFF799
:100F6000CAFF04E000F07BF8204600F079F825760F
:100F700020680169C943090716D4C168C943090734
:100F800012D46FF008010161042020762068C06946
:100F90008007204602D0FFF7AEFF04E000F05FF8C4
:100FA000204600F05DF8257620680169C943C9062E
:100FB00017D4C168C943C90613D46FF01001016189
:100FC000082020762068C06910F4407F204602D0B7
:100FD000FFF791FF04E000F042F8204600F040F8EF
:100FE000257620680169C943C90708D1C168C9438A
:100FF000C90704D1891E0161204600F033F820683A
:101000000169C943090609D4C168C943090605D461
:101010006FF0800101612046FFF743FF20680169FE
:10102000C943490609D4C168C943490605D46FF0CC
:1010300040010161204600F01FF820680169C943A2
:1010400089060BD4C168C943890607D46FF0200113
:1010500001612046BDE87040FFF724BF70BD7047B6
:101060007047000000680349884201D1FFF722BAA7
:1010700070470000002C01407047FEE710B50D4896
:1010800086B0002200680590012105A800F052F901
:10109000094CC821606000F05FF906491422091D5F
:1010A0006846FFF7B3F80021684600F024F9206095
:1010B00006B010BD642700087C00002030B50E4843
:1010C00085B0816941F08001816180690B4D00F03C
:1010D00080004FF470740490002221462846FFF7E8
:1010E000DDF90120CDE90040022003906946284641
:1010F000FFF7DCF805B030BD00100240001C0140D5
:10110000FEE770470907090E002806DA00F00F0015
:1011100000F1E02080F8141D704700F1E02080F815
:10112000001470474FF4C8740120FFF7A5F820465B
:1011300000F0CBF8F8E700F0D4B830B58FB001215B
:101140000804CDE900100024029402250491CDE9A1
:1011500007504FF4E01009906846FFF7C3FB00B159
:10116000FEE70F20CDE90A054FF48060CDE90C4081
:1011700002210AA80E94FFF76FFA00B1FEE7FFF70D
:101180004FFB4FF47A71B0FBF1F0FFF776FE0420CD
:10119000FFF767FE00220F21501EFFF72BFA0FB05A
:1011A00030BD00000D48016841F001010160416857
:1011B0000B4A1140416001680A4A11400160016810
:1011C00021F480210160416821F4FE0141604FF467
:1011D0001F0181600449C00308607047001002408D
:1011E0000000FFF8FFFFF6FE08ED00E00148FFF702
:1011F00083BE0000E40D0020F0B502681A4B1B4DC1
:101200001B4E1C4F1C4C4FF0804C984209D0A04202
:1012100007D0604505D0A84203D0B04201D0B84203
:1012200004D122F0700E4A6842EA0E02984209D0B8
:10123000A04207D0604505D0A84203D0B04201D0FB
:10124000B84203D122F44075CA682A4302608A6812
:10125000C2620A688262984201D0A04201D1096943
:10126000016301214161F0BD002C014000040040F8
:1012700000080040000C004000340140FEE702E09E
:1012800008C8121F08C1002AFAD170477047002011
:1012900001E001C1121F002AFBD17047EFF3058066
:1012A000002800D001207047FFF70CF9FFF745FF39
:1012B000FFF704FFFFF7E2FE00F00EF8FEE701463D
:1012C0000020842900D0C81C704710B500B9012047
:1012D00000F05AFC002010BD10B500F02DFD0020DC
:1012E00010BD10B501F08AF8012803D0BDE8104008
:1012F00000F0BCBD10BD30B5044685B00D46B0F958
:101300000800FFF7DCFF002104AA0090CDE90121CD
:101310000391208A2B4682B2D4E9001000F0A8FF86
:10132000012802D0002005B030BD0498FBE7002062
:10133000FEF7A2BF08B500680090012907D0002081
:1013400013460246012103A001F09AF908BD0120CD
:10135000F6E70000000000002DE9FC4100250746EB
:101360002E4601950C0000D10124FFF797FF00964F
:1013700070B101AB22460921384601F0C3F90128BA
:101380000ED1019868B108494FF08050086008E01C
:10139000002322460421384601F0B4F9012800D088
:1013A000FF252846BDE8FC8104ED00E070B50B4C3C
:1013B000054620684560E0682168854205D2606B7B
:1013C000BDE87040091D00F0FDBA206B091D00F05A
:1013D000F9FAA06A854200D2A56270BD0000002023
:1013E00010B500F013FB0F4C2068A0B90E4800F0B8
:1013F000DBFA0D48143000F0D7FA0B48A060143027
:10140000E06000220C210A2000F042FD206030B193
:1014100006A100F087FBBDE8104000F011BBFEF70D
:10142000D5FEFEE7440000207C010020546D72517F
:101430000000000070B5124E124C1AE000F0AAFC39
:101440003068D0B101F0C6F800F0E0FAF068C56885
:10145000281D00F097FAA068401EA0606068401E3A
:10146000606000F0EDFA286B00F0FCFA284600F00E
:10147000F9FA60680028E1D170BD01F0ABF8F8E737
:10148000540100200000002030B4026C0B46002AFA
:101490000BD0C1681144C1604468A14201D3016806
:1014A000C16030BC1846FEF7B1BE30BC704770B5A5
:1014B0001646026C0446002582B1C6B1E068FEF70C
:1014C000A5FEE168206C091AE1602268914202D20F
:1014D0006168081AE060022E16D01AE02068C0B9D0
:1014E000606800F0FFFF05460020606011E0A06822
:1014F000FEF78CFE216CA0680844A06061688842F9
:1015000007D32068A06004E0A06B10B1A06B401E60
:10151000A063A06B401CA063284670BD10484FF428
:101520004061420706D0C01D0D4920F00700411A56
:10153000C1F540610B4A00230144C2E900030839A8
:10154000103A21F0070111604B600B600B1AC0E9E3
:10155000001393604FF000405360D060704700006C
:10156000A401002064000020044C00BFFFF762FFCC
:1015700020680128FAD900F0C9FAF7E78C000020AA
:1015800030B5114900E011460A688242FBD34B682E
:101590005C18844203D14068184448600846436898
:1015A0001C18944209D1084C103C2468A24209D06E
:1015B00052681A4442600A6812680260814200D090
:1015C000086030BD0460F9E76400002070B50024B5
:1015D00041600B4D0061914206D8D11A8269914257
:1015E00006D2011DE86807E09A4203D2994201D36E
:1015F000012403E0011DA86800F0E4F9204670BD55
:101600004400002030B587B0274D42E00498002800
:101610003FDB069C606910B1201D00F0B3F902A801
:1016200000F0A2F8024604980A2832D2DFE800F05F
:1016300005050531222E050531220598A1690346CD
:1016400001442046FFF7C2FF012822D1616A2046EB
:101650008847E06901281CD1002000900598A16905
:10166000002342181946204601F04CF888B9FEF7CD
:10167000ADFDFEE70598A06128B18118134620460C
:10168000FFF7A4FF05E0FEF7A1FDFEE7204600F00E
:10169000E9F900231A4604A9286800F021FC002873
:1016A000B4D107B030BD0000440000202DE9FC415A
:1016B0000F46054600F06EFB01A800F055F8044601
:1016C000019818B100F086FFBDE8FC811D4E7FB186
:1016D000F068006880B30027291B3A46306800F0A4
:1016E00035FA00F077FF0028EED100F00FFAEBE7B3
:1016F000A542F1D800F06EFFB0682746C068C46804
:10170000201D00F03FF9E069012811D1A0692B46A6
:1017100041193A462046FFF759FF012808D1002019
:101720000346014600902A46204600F0EBFF20B118
:10173000616A20468847C7E702E0FEF747FDFEE7FB
:101740000127C9E7440000200648016B096829B158
:10175000016BC968C9684968816270474FF0FF3101
:10176000FAE700000000002070B5054600F054FEC6
:10177000064E04467068844203D200F009F8012046
:1017800000E0002028602046746070BD4400002006
:10179000F8B5164D1FE0C068C4680668201D00F04B
:1017A000F1F8616A20468847E069012813D1A069F1
:1017B0003044B04206D924616060211DA86800F061
:1017C00001F908E000200346014600903246204619
:1017D00000F098FF38B1A86801680029DBD1E968FA
:1017E000C5E90210F8BDFEF7F1FCFEE74400002059
:1017F00004484068401C02D0FEF7E8FCFEE7FEF714
:10180000E5FCFEE738000020074CA068016841B104
:10181000C0680021D0F80000FFF748FFFFF7F2FE94
:10182000F3E701210020F7E74400002070B50446EB
:1018300000F0ECF804F124050AE0606A58B128468B
:1018400000F092FE08B100F0C7F9A06C401EA06441
:10185000A06C0028F1DC4FF0FF36A66400F0F0F831
:1018600000F0D4F804F110050AE0206958B12846C8
:1018700000F07AFE08B100F0AFF9606C401E6064C1
:10188000606C0028F1DC6664BDE8704000F0D8B8F8
:101890002DE9F0410546002700F07CFA2A4E306819
:1018A00008B9FFF73BFEF068054242D1F5B30835B1
:1018B000680709D005F00700C0F108000544680773
:1018C00002D0FEF783FCFEE785B37068854230D80E
:1018D0001D48103001460C6801E020460C46616846
:1018E000A94202D221680029F7D131688C4220D068
:1018F00007682168016060680837411B102909D911
:101900006019420702D0FEF761FCFEE741606560A6
:10191000FFF736FE61687068401A7060B2689042E6
:1019200000D2B060F0680143002000E001E0C4E9AB
:10193000000100F04FFE780702D0FEF747FCFEE7FB
:101940003846BDE8F08100005400002004490868D2
:1019500018B10868026D521C0265086870470000E3
:101960000000002010B5031F4FF080741C601B1F87
:101970001960191F024B0B60143940380A6010BD02
:10198000F1170008D0E9013201699A60D0E901231A
:101990005A604A68824201D182684A60002202612C
:1019A0000868401E0860704700F108014FF0FF32E0
:1019B000C0E90112C160016100210160704700218E
:1019C0000161704730B50B685A1C02D000F1080263
:1019D00002E0026904E02246546825689D42FAD973
:1019E00053684B6099608A60516008610168491CC6
:1019F000016030BD42684A6093688B6093685960AB
:101A0000916008610168491C0160704710B5FEF7DC
:101A1000DDFB09484168491CBFF34F8FBFF36F8F4F
:101A20004160012907D10548006810F0FF0F02D07E
:101A3000FEF7CCFBFEE710BD3800002004ED00E00F
:101A4000074910B5486830B1401E486006D1BDE86E
:101A50001040FEF7C2BBFEF7B9FBFEE710BD000069
:101A60003800002070B500281DD00F4DA0F10804EB
:101A70006068E968084202D1FEF7A8FBFEE7226829
:101A800012B1FEF7A3FBFEE78843606000F082F925
:101A900060686968084468602046FFF771FDBDE82A
:101AA000704000F097BD70BD5400002006484FF410
:101AB0007A710068B0FBF1F14FF0E020491E4161FE
:101AC00007210161704700008400002010B5FEF777
:101AD00087FB0C49102809D300F1E02090F8F003AF
:101AE0000A78904202D2FEF771FBFEE706480068D2
:101AF000896800F4E060884202D9FEF767FBFEE7E0
:101B000010BD0000380000200CED00E004494FF04B
:101B100080500860BFF34F8FBFF36F8F7047000096
:101B200004ED00E010B5084B002200BF53F832402E
:101B30001CB1521C082AF9D310BD43F8321003EB34
:101B4000C201486010BD0000A40D002070B515460C
:101B50000E460446FFF75AFF616C0020491C00D175
:101B60006064A16C491C00D1A064FFF769FFA06B01
:101B700028B92A46314604F1240000F05FF82046D7
:101B8000BDE87040FFF752BE70B502001DD0114C89
:101B9000E06A10B1FEF71AFBFEE700F0FBF8E06820
:101BA00085182068001DFFF7EDFE38B9206890F811
:101BB0002C10012088402169814321612846FFF7CC
:101BC000F5FB00F007FD002803D1BDE87040FFF7EA
:101BD0009DBF70BD0000002001490120C861704711
:101BE0000000002070B50D4650B1124C216818312C
:101BF000FFF7E8FE2068001DFFF7C4FE18B10AE0F9
:101C0000FEF7E4FAFEE7206890F82C1001208840E7
:101C1000216981432161681C05D0E0682844BDE842
:101C20007040FFF7C3BB2168BDE870400248091D42
:101C3000FFF7E0BE000000206801002070B51546E7
:101C40000E4650B1124C21681831FFF7D3FE2068C0
:101C5000001DFFF797FE18B10AE0FEF7B7FAFEE79E
:101C6000206890F82C10012088402169814321616F
:101C7000012D05D0E0683044BDE87040FFF796BB09
:101C80002168BDE870400348091DFFF7B3BE00009E
:101C9000000000206801002070B5040039D01D4DFF
:101CA000E06A2968C96A884233D2A069002804DB47
:101CB0002868C06AC0F10700A061E16A164E01EB16
:101CC0008101606906EB810188421FD1201DFFF769
:101CD00059FE012150B9E06A00EB800256F822203B
:101CE00022B92A6901FA00F082432A612868C06A91
:101CF000E0622A6981401143296100EB800006EB14
:101D00008000211DBDE87040FFF774BE2868C06ADE
:101D1000E06270BD000000208C00002010B528B1EA
:101D200004490A6A0260C968416010BDFEF74EFAB4
:101D3000FEE70000000000201FB50024009401947D
:101D40000294234680220FA11048039400F090FAD9
:101D5000012803D100F0B4FC012804D000280FD1E1
:101D6000FEF734FAFEE7FEF731FA09484FF0FF318B
:101D7000816201214161C460BDE81F4000F03CB8B0
:101D80001FBD000049444C450000000069150008D3
:101D9000000000200248C16A491CC162704700006F
:101DA00000000020124810B5C16A11B10121C161C3
:101DB00010BD0021C16101690E4AB1FA81F1C1F182
:101DC0001F0101EB810152F821306BB102EB81015F
:101DD00001F108034A6852684A609A4201D1526888
:101DE0004A60D168016010BDFEF7F0F9FEE700001F
:101DF000000000208C0000201CB5194908780190D3
:101E0000FF20087008788DF800009DF80000154A42
:101E100000F0500010700720906005E09DF8003041
:101E20005B008DF80030401E9DF800301B06F5D495
:101E3000000200F4E0609060019808700A480168B0
:101E400041F470010160016841F070410160FFF7E9
:101E50002DFE00205060FEF787F900201CBD000019
:101E600000E400E03800002020ED00E010B5FEF7AF
:101E7000ADF900F0D7FA18B104494FF0805008606E
:101E8000BDE810400020FEF7A8B9000004ED00E016
:101E90002DE9F04117460E46050017D0CEB105FBDF
:101EA00006F0401C5430FFF7F3FC040015D096B147
:101EB00004F154002060C4E90F560121204600F0CF
:101EC000A6F884F850702046BDE8F081FEF77EF950
:101ED000FEE70020E6E72460EDE7FEF777F9FEE78E
:101EE0002DE9FF41002582B098460E46040001D03E
:101EF0001EB107E0FEF76AF9FEE7206C10B1FEF7AD
:101F000065F9FEE700F07AFA002720B9049810B1CD
:101F1000FEF75CF9FEE7FFF779FDA06B50B33146A1
:101F20002046E568FFF7B0FAB8F1000F10D0E56081
:101F3000606A38B104F1240000F016FB10B100BF54
:101F4000FFF7E4FDFFF77CFD012006B0BDE8F0815E
:101F5000A06B401EA063206810B9FFF7F7FC60601B
:101F600020690028EED004F1100000F0FDFA0128ED
:101F7000E6D0E7E7049808B11DB106E0FFF760FD81
:101F80001DE06846FFF7CAFE0125FFF759FDFFF780
:101F900001FFFFF73BFD606C401C00D16764A06C43
:101FA000401C00D1A764FFF74BFD04A9684600F070
:101FB00033F930B12046FFF739FC00F00BFB00206D
:101FC000C3E7FFF723FDA06B38B1FFF739FD2046CB
:101FD000FFF72CFC00F0FEFA9DE7FFF731FD2068CB
:101FE00030B9FFF713FD6068FFF756FEFFF728FDD5
:101FF00004F124000499FFF7F5FD2046FFF716FCD5
:1020000000F0E8FA002886D1FFF780FD83E770B57D
:102010000D46040023D0FFF7F9FCD4E90F20216816
:1020200002FB001161600021A1632168A1600A46E2
:10203000D4E90F01401E00FB01214FF0FF30E160A9
:102040006064A06404F1100065B1FFF7ADFC04F119
:102050002400FFF7A9FCFFF7F3FC012070BDFEF799
:10206000B5F8FEE721690029F5D000F07DFA0128D6
:10207000F1D1FFF74BFDEEE72DE9FF41002682B0DD
:102080001D468846040003D0B8F1000F03D007E0D6
:10209000FEF79CF8FEE7206C10B1FEF797F8FEE71C
:1020A000022D05D1E06B012802D0FEF78FF8FEE784
:1020B00000F0A4F9002720B9049810B1FEF786F8C3
:1020C000FEE7FFF7A3FCA06BE16B884205D3022D6E
:1020D00003D00498C0B1D6B11DE02A46414620463F
:1020E000FFF7E5F9616A31B104F1240000F03CFA30
:1020F000012801D002E008B1FFF708FDFFF7A0FCBE
:10210000012006B0BDE8F081FFF79AFC1DE06846AB
:10211000FFF704FE0126FFF793FCFFF73BFEFFF7F6
:1021200075FC606C401C00D16764A06C401C00D141
:10213000A764FFF785FC04A9684600F06DF830B18C
:102140002046FFF773FB00F045FA0020D9E7FFF7C0
:102150005DFCA06BE16B884210D1FFF771FC04F1CC
:1021600010000499FFF73EFD2046FFF75FFB00F0EB
:1021700031FA0028A5D1FFF7C9FCA2E7FFF760FC00
:102180002046FFF753FB00F025FA9AE72DE9F041CE
:102190001D4616460F46040001D01FB107E0FEF7AA
:1021A00015F8FEE7206C10B1FEF710F8FEE7022DDF
:1021B00005D1E06B012802D0FEF708F8FEE7FFF733
:1021C00085FCFEF703F88046A06BE16B884208D3DC
:1021D000022D06D000244046FDF7FFFF2046BDE853
:1021E000F0812A4639462046FFF761F9A06C401C71
:1021F00004D0A06C401CA0640124ECE7606A0028B5
:10220000FAD004F1240000F0AFF90028F4D0002E39
:10221000F2D001203060EFE770B50D46040019D010
:10222000DDB1FFF7F3FB114AD1682868431C0FD0DA
:102230002368126A934202D062688A4210D96268A7
:10224000891A81420CD2401A28602046FFF766FDA9
:10225000002406E0FDF7BAFFFEE7FDF7B7FFFEE753
:102260000124FFF7EDFB204670BD000000000020B8
:102270002DE9FF5F5FEA000BDDE90F900E9E15462A
:102280008A4604D0072E05D3FDF7A0FFFEE7FDF731
:102290009DFFFEE7A900884610B90846FFF7F8FA47
:1022A000070019D05C20FFF7F3FA0400384611D07C
:1022B000A52241462063FDF7BBFF6FF00301206BB1
:1022C00001EB8501084420F00707780707D0FDF7E8
:1022D0007DFFFEE7FFF7C6FB4FF0FF3486E0514677
:1022E0003546002022180B5C82F834300A5C12B1AB
:1022F000401C1028F6D3002084F84300072D00D39B
:102300000625E562C4E913508046201DFFF757FB00
:1023100004F11800FFF753FB2461C5F10701646263
:10232000A161C4F8548084F8588059463846039A0D
:10233000FFF718FB2060B9F1000F01D0C9F8004089
:10234000FFF764FB2B4DA868401CA8602868DFF8E5
:10235000A88010B1686940B32CE02C60A8680128FF
:1023600028D1002707EB870108EB8100FFF71CFB52
:102370007F1C072FF6D320488C30FFF715FB1E4833
:10238000A030FFF711FB1C48B430FFF70DFB1A48D3
:10239000C830FFF709FB1848DC30FFF705FB16488B
:1023A0008C3028631430686304E02868C06AB04247
:1023B00000D82C60686A401C68626064E16A012091
:1023C0002A6988401043286101EB810108EB8100F4
:1023D000211DFFF70FFB0124FFF732FB686928B1CD
:1023E0002868C06AB04201D2FFF790FB04B02046D3
:1023F000BDE8F09F000000208C00002005484169E6
:1024000019B1C06A18B1002070470120704702203E
:1024100070470000000000200148C06870470000BD
:10242000000000202DE9F0412C4C0026E06A40B16C
:10243000A069401CA061E06900B101263046BDE8FA
:10244000F081E068401CE060E76877B9206B0068C5
:1024500010B1FDF7BBFEFEE7206B616B216360638B
:10246000206A401C2062FFF76FF9A06ADFF87080D5
:10247000874209D3206B006880B1206BC068C568B3
:10248000686887420DD2A0622068C06A00EB8001B4
:1024900058F821000128CED90126CCE74FF0FF30B3
:1024A000F1E7281DFFF76EFAA86A18B105F11800C8
:1024B000FFF768FAE96A0120226988401043206129
:1024C00001EB810108EB8100291DFFF793FAE86A0F
:1024D0002168C96A8842CDD30126CBE700000020DD
:1024E0008C00002070B504004FF0000136D01C4D68
:1024F0002868844202D0FDF769FEFEE7206D38B1FE
:10250000401E2065E36CE26A9A4227D018B125E0AC
:10251000FDF75CFEFEE7201DFFF734FA114A0121AA
:1025200050B9E06A00EB800352F8233023B92B69DD
:1025300001FA00F083432B61E06CE062C0F1070018
:10254000A061E06A2B6981401943296100EB80009A
:1025500002EB8000211DFFF74DFA0121084670BDF6
:10256000000000208C0000202DE9F041C068C46804
:10257000ACB104F118000746FFF704FA134DE86AFE
:10258000012678B139461248FFF734FAE06A296823
:10259000C96A884217D90120EE61BDE8F081FDF7D4
:1025A00015FEFEE7201DFFF7EDF9E16A2A6906FA3C
:1025B00001F01043286101EB81000549B43901EBBA
:1025C0008000211DE0E70020E7E700000000002078
:1025D000400100202DE9F047274C0026E06A38B181
:1025E000FFF714FAE06A401EE062E06A18B13DE0CD
:1025F000FDF7ECFDFEE7A168204D012079B3A5F1C0
:10260000B40980462868E8B1E868C76807F118008F
:10261000FFF7B8F9381DFFF7B5F9F96A226908FA2A
:1026200001F01043206101EB810109EB8100391DAC
:10263000FFF7E0F9F86A2168C96A8842E2D3C4F872
:102640001C80DFE7A06958B14546A06940B1FFF79B
:10265000E9FE00B1E561A069401EA061F5E705E073
:10266000E069012802D10126FFF750FAFFF7E8F9E7
:102670003046BDE8F0870000000000204001002047
:102680002DE9F0471E46DDF8209017460D008046E4
:1026900012D02C20FFF7FCF804000AD0FEF7A0FEB1
:1026A000C4F80080C4E90657C4E90869201DFFF793
:1026B00086F92046BDE8F087FDF788FDFEE70000BB
:1026C0001FB5FEF78DFE0B48006868B1002002219F
:1026D000CDE9001002900346CA01039006A1084804
:1026E000FFF7C6FD002802D1FDF770FDFEE704B03C
:1026F00010BD000044000020546D7220537663002A
:1027000009180008FEB51E4613460200089D4FF04A
:10271000000014D0104C2768002F0FD0CDE9001313
:102720000292062910DAFFF769FE02284FF0000333
:1027300008D0002269462068FFF79EFCFEBDFDF729
:1027400045FDFEE72A46F5E700233246694638464E
:10275000FFF71CFDFEBD000044000020400080008B
:10276000000100022F13000894270008251100081B
:10277000FEFF0000000000008000000000000000DC
:102780000000000001020304060708090000000021
:10279000010203044C45445461736B00BC270008DC
:1027A000000000208C0000007E120008482800086D
:1027B0008C000020941100008E1200080000000020
:1027C0000000000000000000000000000000000009
:1027D00000000000000000000000000000000000F9
:1027E00000000000000000000000000000000000E9
:1027F0000000000000000000AAAAAAAA0000000031
:1028000000000000000000000000000000000000C8
:1028100000000000000000000000000000000000B8
:102820000000000000000000001C0140001C0140EE
:10283000001C0140001C01400000000000000000DE
:0828400000A24A0400000000A0
:0400000508000131BD
:00000001FF
