:020000040800F2
:1000000090250020E1010008415E00086B290008EE
:100010003D5E000815080008C189000800000000C6
:10002000000000000000000000000000E97500086A
:100030001D0B0008000000006B020008417600085C
:10004000FB010008FB010008FB010008FB010008A0
:10005000FB010008FB010008FB010008FB01000890
:10006000FB010008FB010008FB010008FB01000880
:10007000FB010008FB010008FB010008FB01000870
:10008000FB010008FB010008FB010008FB01000860
:10009000FB010008FB010008FB010008FB01000850
:1000A000FB010008FB010008FB010008FB01000840
:1000B000FB010008FB010008FB010008FB01000830
:1000C000FB010008FB010008FB010008FB01000820
:1000D000FB01000879890008FB010008FB0100080A
:1000E000FB010008FB010008FB010008FB01000800
:1000F000FB010008FB010008FB010008FB010008F0
:10010000FB010008FB010008FB010008FB010008DF
:10011000FB010008FB010008FB010008FB010008CF
:10012000FB010008FB010008FB010008FB010008BF
:1001300000F002F800F045F80AA090E8000C8244B4
:100140008344AAF10107DA4501D100F03AF8AFF291
:10015000090EBAE80F0013F0010F18BFFB1A43F0A5
:10016000010318475CE900007CE90000103A24BF55
:1001700078C878C1FAD8520724BF30C830C144BF0C
:1001800004680C607047000000230024002500264E
:10019000103A28BF78C1FBD8520728BF30C148BFEA
:1001A0000B607047642900F0FF80782900F03881E7
:1001B000732900F01B82002070471FB51FBD10B5CA
:1001C00010BD00F04DFA1146FFF7F7FF08F0A6FD4D
:1001D00000F06BFA03B4FFF7F2FF03BC08F0F2FB88
:1001E0000948804709480047FEE7FEE7FEE7FEE7CB
:1001F000FEE7FEE7FEE7FEE7FEE7FEE70448054907
:10020000054A064B704700005D7600083101000882
:10021000901F002090250020902100209021002098
:10022000EFF3108072B6704780F3108870471F4854
:100230004FF6FF710170002080F309881C480168A7
:1002400081F308881B48012101701B484FF0805141
:10025000016062B6FEE718484FF0805101607047B8
:1002600015484FF080510160704772B6EFF3098076
:1002700028B1203880E8F00F10490968086000B5FF
:100280000F4880475DF804EB0E480F490A7802706A
:100290000A480E490A680260106890E8F00F2030A2
:1002A00080F309884EF0F40E62B6704722ED00E04C
:1002B000B00000208A00002004ED00E09000002043
:1002C000596900087F00002080000020980000206D
:1002D000704700000FB4044910B503AA029800F05B
:1002E00089F910BC5DF814FB180000202DE9F041DD
:1002F0000E460446002020622046E168884730B35D
:10030000252805D0D4E901219047206A401CF2E756
:10031000E168204600278847050018D0A5F1410074
:10032000192802D820354FF4006732462946204666
:100330002760FFF737FF40B1012804D0F61D26F0F3
:1003400007060836D8E7361DD6E72846DAE7206ADA
:10035000BDE8F08170B50C460546012A05D0287825
:10036000800600D5EA69002302E0012305E05B1C5A
:10037000934202D2E05C0028F9D1A869E618C01ABD
:10038000A861286A184428622846AFF3008004E078
:10039000D5E9012114F8010B9047B442F8D328465F
:1003A000AFF3008070BD00002DE9F0410646002447
:1003B00010687529314616A510D0AFF300800028CB
:1003C00002DA404213A507E031688A0701D512A579
:1003D00002E0490704D511A5012401E0AFF3008034
:1003E00000210A2206F1240709E0B0FBF2FCB0FB71
:1003F000F2F302FB1C00303078541846491C0028E8
:10040000F3D123462A463046BDE8F04100F083B8D8
:10041000000000002D0000002B0000002000000064
:1004200070B504460D4621461068AFF30080218860
:10043000090502D50F4A7A4402E00E4A7A440E3288
:10044000002104F1240305E000F00F060009965D89
:100450005E54491C0028F7D120780023000704D5FA
:10046000702D02D009B1022311322046BDE8704040
:1004700000F051B8E2E500004FF0013C50F8042BC9
:1004800051F8043B9A4221D1A2EB0C03934313EAA7
:10049000CC1317D150F8042B51F8043B9A4215D1D4
:1004A000A2EB0C03934313EACC130BD150F8042BAB
:1004B00051F8043B9A4209D1A2EB0C03934313EA8F
:1004C000CC13DBD04FF00000704700BFD01A01BA48
:1004D000B1FA81F101F0180122FA01F0CB40C1F12B
:1004E0002001DBB2C0B2C01A2CFA01F3D11A914339
:1004F00011EAC311E6D170477047704770477047E3
:1005000010B500F089F8006810BD10B5044600F081
:1005100083F8046010BD2DE9F0470D4699469246D8
:10052000044600F124080168880604D5E06921F03A
:100530001001216000E00120A84201DD471B00E01E
:100540000027A1697A1902EB0900081AA061207836
:10055000C00602D42046AFF30080002608E0D4E9AC
:1005600001211AF806009047206A401C761C206280
:100570004E45F4DB2078C0060AD52046AFF3008054
:1005800006E0D4E9012130209047206A401C206217
:10059000381EA7F10107F4DC07E0D4E9012118F8BF
:1005A00005009047206A401C2062281EA5F1010525
:1005B000F3DC2046AFF300802078000602D502204D
:1005C000BDE8F0870120FBE710B5436913B1AFF335
:1005D000008001E0FFF7BEFE012010BD127800F19F
:1005E00024010A7000224A700122EDE711684FF0E1
:1005F000FF32E9E7074B70B50D467B4400F015F874
:100600000446284600F024F810B14FF0FF3070BDCA
:10061000204670BD0F85000000487047301F002045
:1006200001694A1C02610878704700B58FB0CDE9B6
:1006300001310021059105497944CDE903101146A6
:100640006846FFF753FE0FB000BD0000E5FFFFFF57
:10065000007B00F08000704700487047301F00208A
:100660007546FFF7F9FFAE4605006946534620F090
:100670000700854618B020B5FFF7C0FDBDE8204053
:100680004FF000064FF000074FF000084FF0000B4E
:1006900021F00701AC46ACE8C009ACE8C009ACE801
:1006A000C009ACE8C0098D46704710B50446AFF3E9
:1006B00000802046BDE81040FFF78CBD10B502F069
:1006C0007FF910BD70B506460C46154608E0304669
:1006D000721C96B200F007F804F8010B681E85B290
:1006E000002DF4D170BD70B50446002602F028FA42
:1006F0002546E11704EB11610912A02202EB41012A
:10070000C8B202F0E9F902F067FAE11704EB1161EF
:100710000912A4EB0121C8B202F0DEF902F05CFA82
:1007200002F00EFAA12002F0D7F902F055FA0020EB
:1007300002F09AF9064602F029FA304670BD70B50B
:1007400005460C46164606E02178284600F009F8D2
:10075000681C85B2641C301EA6F101018EB2F3D173
:1007600070BD70B504460E4602F0EAF92546E11761
:1007700004EB11610912A02202EB4101C8B202F0A0
:10078000ABF902F029FAE11704EB11610912A4EBAD
:100790000121C8B202F0A0F902F01EFA304602F0C0
:1007A0009BF902F019FA02F0F1F90A2008F04CF96D
:1007B00070BD70477047704770477047704770470B
:1007C0007047000000B585B000BF1048806940F058
:1007D00008000E4988610846806900F00800009012
:1007E00000BF00BF881501900120029003900320F4
:1007F000049001A9064800F02BFE00224FF48071FE
:10080000034800F0CDFF05B000BD0000001002401D
:10081000000C014000BFFEE710B5052008F04AF9C2
:1008200010BD000010B500200F4908600F48006897
:1008300020F0F0000D4908600846006840F03000E4
:100840000860FFF7E9FF00200949C1F8A401FFF79C
:10085000E3FF012004490860FFF7DEFF002005499F
:10086000C1F8840110BD000084812142041C0140B4
:10087000008023420080214200B585B000BF1A48A5
:10088000806940F00800184988610846806900F0D6
:100890000800009000BF00BF00BF0846806940F01C
:1008A000800088610846806900F08000009000BFE9
:1008B00000BF0220019001200290039003200490C9
:1008C00001A90A4800F0C4FD4FF40070019001A98D
:1008D000074800F0BDFD0120064908600649C1F83F
:1008E000A40105B000BD000000100240000C014052
:1008F000001C0140848121420080234210B5002069
:100900000F4908600F48006820F0F0000D490860AA
:100910000846006840F030000860FFF77DFF0120C6
:100920000949C1F8A401FFF777FF012004490860D5
:10093000FFF772FF00200549C1F8840110BD0000D7
:1009400084812142041C0140008023420080214216
:1009500070B5054600241648006820F0F0001449E0
:1009600008600846006840F0800008601E2008F01B
:10097000A1F8002611E000200E490860FFF74CFFA7
:1009800001200D49C1F884016006040E0B4800687F
:1009900008B1601CC4B2701CC6B2082EEBDB15B9DE
:1009A000FFF7ACFF01E0FFF73DFF204670BD000000
:1009B000041C014084812142008021422481234281
:1009C00070B504461348006820F0F0001149086033
:1009D0000846006840F03000086000200E490860BA
:1009E000FFF71AFF002511E0E0090C4908606006D6
:1009F000040E01200A49C1F88401FFF70DFF002011
:100A000005490860FFF708FF681CC5B2082DEBDB3D
:100A100070BD0000041C014084812142A481234256
:100A20000080214210B50F48006820F0F0000D4909
:100A300008600846006840F03000086001200A495C
:100A400008600A49C1F884011E2008F033F800202C
:100A500005490860FFF7E0FE00200449C1F8840161
:100A600010BD0000041C0140A481234200802142EB
:100A700010B50D48006820F0F0000B4908600846EA
:100A8000006840F0300008600120084908601E201E
:100A900008F010F800200649C1F8A401FFF7BCFED9
:100AA00001200449086010BD041C014084812142DA
:100AB00000802342A481234210B50024134800681B
:100AC00020F0F000114908600846006840F08000FE
:100AD000086001200E4908600E49C1F88401FFF743
:100AE0009BFE09E0601CC4B2FA2C03DDFFF7C0FFD7
:100AF000012010BDFFF790FE0548803800680028EF
:100B0000F0D10549086000BFF3E70000041C014074
:100B1000A481234200802142848121427047000049
:100B200070B50446B3F5804F24D1F02696FAA6F6A8
:100B3000B6FA86F6D1E90005B54028434FF47F4662
:100B400096FAA6F6B6FA86F68D68B54028438D6902
:100B500028434FF4702696FAA6F6B6FA86F6CD68C4
:100B6000B540284354F82250054E3540284344F8F8
:100B7000220003E06FF0704044F82200002070BDB6
:100B80000000F0CF10B50246086852F8200020F0AF
:100B900001000B6842F823008868082822D14868C1
:100BA00040F040008B681843CB6818430B6918432A
:100BB0004B6918438B691843CB6918430B6A184378
:100BC0004B6A18438B6A1843CB6A18430B6B184364
:100BD0000B6852F82330144C234018430B6842F83A
:100BE00023001FE0D1E901031843CB6818430B69C8
:100BF00018434B6918438B691843CB6918430B6A38
:100C000018434B6A18438B6A1843CB6A18430B6B23
:100C100018430B6852F82330034C234018430B68E9
:100C200042F82300002010BD8100F7FF30B50346D5
:100C3000F02595FAA5F5B5FA85F5D1E90004AC40A3
:100C400020434FF47F4595FAA5F5B5FA85F58C68F4
:100C5000AC4020434FF4702595FAA5F5B5FA85F51B
:100C6000CC68AC4020430C69641E4FF4700595FAC3
:100C7000A5F5B5FA85F5AC4020434C69A41E4FF0AC
:100C8000706595FAA5F5B5FA85F5AC4020438C69F9
:100C90002043541C53F8244004F040442043541C87
:100CA00043F82400002030BD00B587B000BF3348B2
:100CB000806940F08000314988610846806900F011
:100CC0008000019000BF00BFC81402900120039073
:100CD00004900320059002A9294800F0B9FB4FF4C5
:100CE000806002900020039002A9254800F0B0FB2C
:100CF000FFF7C2FD002023490860142007F0A4FE7E
:100D000001202149C1F8AC01322007F09DFE0020EE
:100D10008DF81800012206A900F038F9012206A971
:100D2000A42000F033F916208DF81800012206A93E
:100D3000802000F02BF90C208DF81800012206A964
:100D4000882000F023F9022206A9A12000F024F84F
:100D50009DF8180030280FD19DF8190003280BD1F9
:100D60009DF819009DF8182000EB022107A0FFF75D
:100D7000B1FA002007B000BD0120FBE700100240DF
:100D8000001C0140AC812342008023424354502088
:100D900049443A25780D0A002DE9F04106460F46F0
:100DA0001546FFF73FFE7020FFF70AFEFFF784FEAF
:100DB000F0B2FFF705FEFFF77FFEFFF733FE71206D
:100DC000FFF7FEFDFFF778FE00240BE0691EA1424D
:100DD00001D0012100E000210846FFF7B9FD385598
:100DE000601CC4B2AC42F1DBFFF742FEBDE8F0810B
:100DF00071B581B00024002661480078401C60492C
:100E00000870084600780A2190FBF1F201FB1200FD
:100E100018B15B4800780A2867DA012201A902208C
:100E2000FFF7BAFF9DF8040000F00F0000287ED005
:100E30009DF8040000F00F00062878DA9DF8040001
:100E400000F00F01FF208840C5B2E843C0B240F077
:100E5000C0004C4981F8200000245AE0494890F82D
:100E600020000121A1400840F0B3474931F81400A7
:100E700004226946FFF790FF424890F8300000F0E6
:100E80000100C0B19DF801009DF8001001F00F01B4
:100E900000EB01203B49163121F814009DF80300B6
:100EA0009DF8021001F00F0100EB012135480C30D4
:100EB00020F814101DE09DF801009DF8001001F0CD
:100EC0000F0100EB0120C0F5F07081B22D480C300D
:100ED00020F814109DF803009DF8021001F00F0196
:100EE00000EB0121274801E011E020E0163020F856
:100EF00014109DF8000000F0F000802807D00021B9
:100F00002048163020F814100A3820F81410601CFD
:100F1000C4B2052CA2DB01261A48808920B91948E1
:100F2000C08A08B9002001900020154908709DF87A
:100F3000040000F01F00D0B9124890F8200000F023
:100F4000800040B10F4890F8200020F080000D494B
:100F500081F820000BE04FF6FF700A498881C882B3
:100F6000084690F8200000F0E00081F820000448D6
:100F70000078F02802DD0A200149087030467CBD67
:100F8000280000202C00002042E800082DE9F04154
:100F900005460E4617464FF00008FFF743FD702048
:100FA000FFF70EFDFFF788FDE8B2FFF709FDFFF739
:100FB00083FD00240BE0305DFFF702FDFFF77CFDB1
:100FC0008046B8F1000F00D003E0601CC4B2BC4200
:100FD000F1DB00BFFFF74CFD4046BDE8F0810000AB
:100FE00000B587B000BF3E48806940F080003C49B2
:100FF00088610846806900F08000009000BF00BF53
:10100000C81401900120029003900320049001A9CC
:10101000344800F01DFA4FF48060019000200290E7
:1010200001A9304800F014FAFFF726FC00202E49F1
:1010300008600A2007F008FD01202C49C1F8AC0126
:101040000A2007F001FD4FF4806001900220039018
:101050000020029001A9234800F0FAF9642007F06B
:10106000F3FC042205A948F2401000F055F80020D6
:101070008DF8180005A91EA0FFF72CF91FA105A8DF
:10108000FFF7FAF948BB02208DF81400012205A9E8
:1010900048F2400000F0A0F9012205A948F24700FB
:1010A00000F03AF89DF81400602807DA9DF8141053
:1010B00014A0FFF70FF9012000F060F90A2007F0F3
:1010C000C3FC00208DF81400012205A948F240005D
:1010D00000F082F9002007B000BD0120FBE700000E
:1010E00000100240001C0140AC81234200802342DA
:1010F0004354502049443A25730D0A00393134379E
:101100000000000044656661756C74205665723A93
:1011100025640D0A000000002DE9F04105460F4648
:101120001646FFF77FFC2820FFF74AFCFFF7C4FCB8
:101130002812FFF745FCFFF7BFFCE8B2FFF740FCC1
:10114000FFF7BAFCFFF76EFC2920FFF739FCFFF729
:10115000B3FC00240BE0711EA14201D0012100E08C
:1011600000210846FFF7F4FB3855601CC4B2B442B6
:10117000F1DBFFF77DFCBDE8F081000071B583B0C5
:101180000024002679480078401C784908700846F9
:1011900000780A2190FBF1F201FB120018B17348AC
:1011A00000780A287EDA012203A948F24E10FFF7E0
:1011B000B3FF9DF80C0000F0800068B19DF80C00B2
:1011C00000F00F00062807DA00200190012201A993
:1011D00048F24E1000F000F99DF80C0000F00F00EE
:1011E00000285FD09DF80C0000F00F000628D9DA27
:1011F0009DF80C0000F00F01FF208840C0B2019064
:101200005B4890F820509DF80400C043C0B240F005
:10121000C000574981F82000084681898182C18A2F
:10122000C183002446E0524890F820000121A140EB
:10123000084020B34F4931F81400042202A9FFF7F7
:101240006BFF4B4890F8300000F00100C0B19DF8F2
:1012500008009DF8091000EB012081B244481630C7
:1012600020F814109DF80A009DF80B1000EB0120E7
:10127000C0F5487081B23E480C3020F8141017E0D9
:101280009DF808009DF8091000EB012081B2384854
:101290000C3020F814109DF80A009DF80B1000EB9C
:1012A000012000E036E081B23148163020F81410F9
:1012B000601CC4B2052CB6DB01262D4880892E495E
:1012C0000988884205DC2A48C08A2B494988884217
:1012D0001DDD9DF80C0000F00F0001280ADD2448F8
:1012E000C089234988810846008BC88200201F4995
:1012F00008700FE01E48808A1D4988810846C08B0F
:10130000C88280200390084680F8205002E0002028
:10131000164908709DF80C0000F08F0080281AD143
:10132000134890F8200000F0800040B1104890F879
:10133000200020F080000E4981F820000BE04FF6DD
:10134000FF700B498881C882084690F8200000F0A1
:10135000E00081F8200005480078F02802DD0A202E
:1013600002490870304604B070BD0000290000201A
:101370002C00002004E90008000E002038B50546C6
:10138000002400208DF800008DF8015000BF09E016
:101390009DF800000F49095D0844C0B28DF80000B7
:1013A000601CC4B2B82CF3D39DF80000C043401CAD
:1013B000C0B28DF80000B822064948F2470000F09C
:1013C0000BF80222694648F2FF0000F005F8002001
:1013D00038BD00004CE800082DE9F04104460E46F7
:1013E00017464FF00008FFF71DFB2820FFF7E8FA2B
:1013F000FFF762FB2012FFF7E3FAFFF75DFBE0B2B5
:10140000FFF7DEFAFFF758FB00250BE0705DFFF7F2
:10141000D7FAFFF751FB8046B8F1000F00D003E088
:10142000681CC5B2BD42F1DB00BFFFF721FB40469F
:10143000BDE8F08131B5002400F0B8F9044600BFE2
:1014400000F0B4F9001B00998842F9D338BD0000C0
:101450002DE9F84702460024002000258446002795
:1014600000237BE14FF0010808FA03F4D1F8008073
:1014700008EA0400A0427DD1DFF8ECA2D1F8048094
:10148000A8EB0A09D0453AD014DCB8F1030F50D0CC
:1014900009DCB8F1000F31D0B8F1010F1CD0B8F160
:1014A000020F49D120E0B8F1110F18D0B8F1120F96
:1014B00042D11EE0B9F5881F25D006DCB9F5803F82
:1014C00020D0B9F5801F37D11AE0B9F5001F18D028
:1014D000B9F5041F30D117E0D1F80CC02DE0D1F8D8
:1014E0000C8008F1040C28E0D1F80C8008F1080CFD
:1014F00023E0D1F80C8008F10C0C1EE000BF00BF07
:1015000000BF00BF00BF00BFD1F80880B8F1000FD6
:1015100002D14FF0040C0BE0D1F80880B8F1010FB4
:1015200003D14FF0080C146102E04FF0080C546135
:1015300003E04FF0000C00E000BF00BFFF2801D81F
:10154000904601E002F104084646FF2802D84FEA1F
:10155000830803E0A3F108084FEA88084746D6F855
:1015600000804FF00F0909FA07F928EA09080CFA78
:1015700007F900E07AE048EA0908C6F80080D1F8E7
:10158000048008F08058B8F1805F6FD100BFDFF8A9
:10159000DC81D8F8188048F00108DFF8D091C9F84C
:1015A0001880C846D8F8188008F00108CDF80080E7
:1015B00000BF00BF4FEAB9384FEA930958F82950E5
:1015C0004FEA83784FEA18794FF00F0808FA09F8C4
:1015D00025EA0805DFF89881424502D14FF000085E
:1015E00024E0DFF89081424502D14FF001081DE070
:1015F000DFF88481424502D14FF0020816E0DFF89F
:101600007C81424502D14FF003080FE0DFF8708182
:10161000424502D14FF0040808E0DFF868814245F6
:1016200002D14FF0050801E04FF006084FEA837938
:101630004FEA197908FA09F848EA0505DFF8488100
:101640004FEA930948F82950D1F8048008F480380B
:10165000B8F5803F0BD1DFF83481D8F8008048EA34
:101660000008DFF82891C9F800800AE075E0DFF88B
:101670001C81D8F8008028EA0008DFF81091C9F82A
:101680000080D1F8048008F40038B8F5003F0ED18E
:10169000DFF8F88008F10408D8F8008048EA00086C
:1016A000DFF8E89009F10409C9F800800DE0DFF8DF
:1016B000DC8008F10408D8F8008028EA0008DFF888
:1016C000CC9009F10409C9F80080D1F8048008F42D
:1016D0008018B8F5801F0ED1DFF8B08008F1080837
:1016E000D8F8008048EA0008DFF8A09009F108095E
:1016F000C9F800800DE0DFF8948008F10808D8F8F8
:10170000008028EA0008DFF8849009F10809C9F888
:101710000080D1F8048008F40018B8F5001F0ED13D
:10172000DFF8688008F10C08D8F8008048EA000863
:10173000DFF8589009F10C09C9F800800DE0DFF8D6
:101740004C8008F10C08D8F8008028EA0008DFF87F
:101750003C9009F10C09C9F800805B1C102BFFF4C8
:1017600081AEBDE8F88700000000111000100240B3
:1017700000080140000C014000100140001401402D
:1017800000180140001C0140080001400004014015
:10179000024693680B400BB1012000E00020704727
:1017A0000AB1016101E00B04036170470148006860
:1017B000704700000C00002010B50848006840F099
:1017C000100006490860052000F068F80F2000F0BE
:1017D00007F800F017F8002010BD000000200240BC
:1017E00070B5044600F0BAF94FF47A71B0FBF1F528
:1017F000284600F019FF00222146501E00F010F884
:10180000002070BD704700BF00F01F020121914011
:101810004209920002F1E022C2F8001100BF7047B5
:101820002DE9F05F80460D461646002704F00AFBBE
:10183000074639462A46334601F00700C0F1070A39
:10184000BAF1040F02D94FF0040A01E0C0F1070A0F
:10185000D14600F1040ABAF1070F02D24FF0000A94
:1018600001E0A0F1030AD4464FF0010A0AFA09FA8E
:10187000AAF1010A0AEA020A0AFA0CFA4FF0010B6D
:101880000BFA0CFBABF1010B0BEA030B4AEA0B045E
:101890002146404604F0DEFABDE8F09F00BF00F0AC
:1018A0000702064B19684FF6FF031940044B0B4320
:1018B00043EA0221014B196000BF70470CED00E0C4
:1018C0000000FA0570B504460D4600269F480068E2
:1018D00000F00700A8420ED29C48006820F00700E4
:1018E00028439A4908600846006800F00700A842AB
:1018F00001D0012070BD207800F00200022807D13D
:101900009348406820F0F000A1680843904948607F
:10191000207800F0010000287CD0606801282DD1DB
:101920002020010391FAA1F1B1FA81F108430121CC
:10193000B1EB601F02D1864800680FE02020010350
:1019400091FAA1F1B1FA81F108430221B1EB601FD4
:1019500002D17F48006A01E07D48406A20210A03E5
:1019600092FAA2F2B2FA82F2114301F01F020121AF
:1019700091400840002860D10120BBE76068022840
:101980002CD12020010591FAA1F1B1FA81F108438F
:101990000121B1EB601F02D16D4800680FE02020EB
:1019A000010591FAA1F1B1FA81F108430221B1EBED
:1019B000601F02D16648006A01E06548406A202144
:1019C0000A0592FAA2F2B2FA82F2114301F01F0262
:1019D00001219140084078BB01208BE720200221A3
:1019E00091FAA1F1B1FA81F108430121B1EB601F35
:1019F00002D15748006810E02020022191FAA1F19D
:101A0000B1FA81F108430221B1EB601F03D15048C4
:101A1000006A02E054E04E48406A2021022292FA15
:101A2000A2F2B2FA82F2114301F01F0201219140A9
:101A3000084008B901205DE7FFE74548406820F00D
:101A400003006168084342494860FFF7AFFE06465D
:101A50006068012810D108E0FFF7A8FE801B41F262
:101A60008831884201D9032044E73948406800F0B2
:101A70000C000428F0D123E06068022810D108E0AF
:101A8000FFF794FE801B41F28831884201D9032080
:101A900030E72F48406800F00C000828F0D10FE034
:101AA00008E0FFF783FE801B41F28831884201D9AC
:101AB00003201FE72648406800F00C000028F0D102
:101AC0002248006800F00700A8420ED91F480068AD
:101AD00020F0070028431D4908600846006800F010
:101AE0000700A84201D0012004E7207800F004009C
:101AF000042807D11648406820F4E060E1680843F4
:101B000013494860207800F00800082808D11048E0
:101B1000406820F46050216940EAC1000C494860E7
:101B200000F04EF80A49496801F0F001F02292FAFB
:101B3000A2F2B2FA82F2D140064A515CC84006498C
:101B400008600F20FFF74CFE0020D3E60020024083
:101B500000100240EAA000080800002001480068C8
:101B6000704700000800002000B5FFF7F7FF0749A5
:101B7000496801F4E0614FF4E06292FAA2F2B2FA2D
:101B800082F2D140024A515CC84000BD00100240C0
:101B9000FAA0000800B5FFF7E1FF0749496801F422
:101BA00060514FF4605292FAA2F2B2FA82F2D1403E
:101BB000024A515CC84000BD00100240FAA0000873
:101BC000F0B585B00FF28C0C9CE8E01001A8A0E8FD
:101BD000E01024A52D680095002100240022002398
:101BE0000020214D696801F00C056DB3042D02D071
:101BF000082D28D101E01D4828E001F470154FF4AC
:101C0000701696FAA6F6B6FA86F6F54001AE735D42
:101C100001F4803595B1144D6D6805F400354FF42D
:101C2000003696FAA6F6B6FA86F6F5401DF8054097
:101C30000E4DB5FBF4F505FB03F202E00C4D03FB82
:101C400005F2104602E000BF084800BF00BF05B023
:101C5000F0BD000002030405060708090A0B0C0D7D
:101C60000E0F1010010200000010024000127A0056
:101C700000093D0038B504460025207800F0010039
:101C800000287CD0F848406800F00C0004280CD0F4
:101C9000F548406800F00C00082837D1F248406849
:101CA00000F48030B0F5803F30D12020010391FA5C
:101CB000A1F1B1FA81F108430121B1EB601F02D11A
:101CC000E94800680FE02020010391FAA1F1B1FA80
:101CD00081F108430221B1EB601F02D1E248006AA2
:101CE00001E0E148406A20210A0392FAA2F2B2FA26
:101CF00082F2114301F01F020121914008400028A7
:101D0000BFD0606800283AD1012038BD00BF6068AC
:101D1000B0F5803F06D1D448006840F48030D24905
:101D2000086028E0606858B9CF48006820F4803027
:101D3000CD4908600846006820F4802008601AE059
:101D40006068B0F5A02F0BD1C748006840F4802030
:101D5000C54908600846006840F4803008600AE021
:101D6000C148006820F48030BF4908600846006818
:101D700020F48020086000BF6068C8B300E06FE016
:101D8000FFF714FD054606E0FFF710FD401B642831
:101D900001D90320B9E72020010391FAA1F1B1FA9A
:101DA00081F108430121B1EB601F02D1AE48006808
:101DB0000FE02020010391FAA1F1B1FA81F108436B
:101DC0000221B1EB601F02D1A748006A01E0A648DA
:101DD000406A20210A0392FAA2F2B2FA82F2114377
:101DE00001F01F020121914008400028CCD037E0CB
:101DF000FFE7FFF7DBFC054606E0FFF7D7FC401BDB
:101E0000642801D9032080E72020010391FAA1F181
:101E1000B1FA81F108430121B1EB601F02D1924870
:101E200000680FE02020010391FAA1F1B1FA81F1DD
:101E300008430221B1EB601F02D18B48006A01E028
:101E40008948406A20210A0392FAA2F2B2FA82F289
:101E5000114301F01F020121914008400028CCD11C
:101E6000207800F0020002284ED17F48406800F040
:101E70000C0050B17C48406800F00C00082844D1A8
:101E80007948406800F4803078BB2020022191FA24
:101E9000A1F1B1FA81F108430121B1EB601F02D138
:101EA000714800680FE02020022191FAA1F1B1FAF7
:101EB00081F108430221B1EB601F02D16A48006A38
:101EC00001E06948406A2021022292FAA2F2B2FAA5
:101ED00082F2114301F01F0201219140084028B114
:101EE0002069012802D001200FE70EE05E4800685B
:101EF00020F0F800F82292FAA2F2B2FA82F26169B6
:101F0000914008435849086091E02069F0B30120EE
:101F100090FAA0F1B1FA81F1544A42F82100FFF79A
:101F200045FC054606E0FFF741FC401B022801D9AD
:101F30000320EAE62020022191FAA1F1B1FA81F111
:101F400008430121B1EB601F02D1474800680FE050
:101F50002020022191FAA1F1B1FA81F10843022176
:101F6000B1EB601F02D14048006A01E03E48406A80
:101F70002021022292FAA2F2B2FA82F2114301F077
:101F80001F02012191400840002800E00FE0CAD064
:101F90003548006820F0F800F82292FAA2F2B2FA6E
:101FA00082F26169914008432F4908603FE00020B8
:101FB000012191FAA1F1B1FA81F12C4A42F82100F4
:101FC000FFF7F4FB054606E0FFF7F0FB401B022895
:101FD00001D9032099E62020022191FAA1F1B1FA5A
:101FE00081F108430121B1EB601F02D11E48006856
:101FF0000FE02020022191FAA1F1B1FA81F108430A
:102000000221B1EB601F02D11748006A01E01648B7
:10201000406A2021022292FAA2F2B2FA82F211431D
:1020200001F01F020121914008400028CCD1207806
:1020300000F0080008284BD1A069A8B3012191FA4B
:10204000A1F0B0FA80F0094A02EB8000C0F88014D9
:10205000FFF7ACFB05460BE0FFF7A8FB401B02288F
:1020600006D9032051E60000001002400000424261
:102070006020022191FAA1F1B1FA81F10843012116
:10208000B1EB601F02D1F948006810E06020022126
:1020900091FAA1F1B1FA81F108430221B1EB601F7D
:1020A00003D1F248006A02E013E0F048406A602180
:1020B000022292FAA2F2B2FA82F2114301F01F0256
:1020C0000121914008400028C6D00120FFF7B2F955
:1020D00041E00020012191FAA1F1B1FA81F1E44A35
:1020E00002EB8101C1F88004FFF760FB054606E0C2
:1020F000FFF75CFB401B022801D9032005E66020A6
:10210000022191FAA1F1B1FA81F108430121B1EB69
:10211000601F02D1D54800680FE06020022191FACB
:10212000A1F1B1FA81F108430221B1EB601F02D1A4
:10213000CE48006A01E0CD48406A6021022292FA4E
:10214000A2F2B2FA82F2114301F01F020121914082
:1021500008400028CCD1207800F00400042875D174
:1021600000BFC248C06940F08050C049C8610846FD
:10217000C06900F08050009000BF00BFBD480068FB
:1021800040F48070BB490860FFF710FB054606E08D
:10219000FFF70CFB401B642801D90320B5E5B548C7
:1021A000006800F480700028F2D000BFE0680128C9
:1021B00006D1AE48006A40F00100AC49086227E051
:1021C000E06858B9A948006A20F00100A7490862F0
:1021D0000846006A20F00400086219E0E06805285B
:1021E0000BD1A248006A40F00400A04908620846EA
:1021F000006A40F0010008620AE09C48006A20F092
:1022000001009A4908620846006A20F0040008624A
:1022100000BFE068D0B3FFF7C9FA054608E0FFF752
:10222000C5FA401B41F28831884201D903206CE590
:102230004020022191FAA1F1B1FA81F10843012174
:10224000B1EB601F03D18948006810E058E04020DE
:10225000022191FAA1F1B1FA81F108430221B1EB17
:10226000601F02D18148006A01E08048406A402135
:10227000022292FAA2F2B2FA82F2114301F01F0294
:102280000121914008400028C9D039E0FFE7FFF75D
:102290008DFA054608E0FFF789FA401B41F28831C4
:1022A000884201D9032030E54020022191FAA1F1B2
:1022B000B1FA81F108430121B1EB601F02D16B48F3
:1022C00000680FE04020022191FAA1F1B1FA81F1FA
:1022D00008430221B1EB601F02D16448006A01E0AB
:1022E0006248406A4021022292FAA2F2B2FA82F2D5
:1022F000114301F01F020121914008400028CAD17A
:10230000E069002873D05948406800F00C000828A4
:102310006ED0E06902286CD100204FF0807191FAF4
:10232000A1F1B1FA81F1524A42F82100FFF73EFAD9
:10233000054606E0FFF73AFA401B022801D90320C0
:10234000E3E42020010591FAA1F1B1FA81F10843FB
:102350000121B1EB601F02D1444800680FE020204A
:10236000010591FAA1F1B1FA81F108430221B1EB23
:10237000601F02D13D48006A01E03C48406A2021CC
:102380000A0592FAA2F2B2FA82F2114301F01F0298
:102390000121914008400028CCD1206AB0F5803F4F
:1023A00007D13248406820F40030A16808432F4923
:1023B0004860D4E9080108432C49496821F47411A4
:1023C00008432A4948600121080690FAA0F0B0FAB3
:1023D00080F0274A42F82010FFF7E8F9054609E0A7
:1023E000FFF7E4F9401B022804D903208DE479E0CB
:1023F00076E02CE02020010591FAA1F1B1FA81F1FB
:1024000008430121B1EB601F02D1184800680FE0BA
:102410002020010591FAA1F1B1FA81F108430221CE
:10242000B1EB601F02D11148006A01E00F48406A19
:1024300020210A0592FAA2F2B2FA82F2114301F0C7
:102440001F020121914008400028C9D04AE0002025
:102450004FF0807191FAA1F1B1FA81F1044A42F88A
:102460002100FFF7A3F905460DE00000001002402F
:102470000000424200700040FFF798F9401B02281C
:1024800001D9032041E42020010591FAA1F1B1FA1C
:1024900081F108430121B1EB601F02D112480068AD
:1024A0000FE02020010591FAA1F1B1FA81F1084372
:1024B0000221B1EB601F02D10B48006A01E00A481B
:1024C000406A20210A0592FAA2F2B2FA82F211437E
:1024D00001F01F020121914008400028CCD101E009
:1024E000012012E4002010E40010024070B5044600
:1024F0000E4615460CB9012070BD94F83D0028B970
:10250000002084F83C00204600F01CF804F108018B
:102510002068FEF737FB3146A2682068FEF786FB8D
:102520002946236BD4E90102FEF7FAFAA168206874
:1025300050F8210040F00100A268216841F8220013
:102540000020D9E710B586B0044600BF284840698E
:1025500040F48070264948610846406900F4807064
:10256000019000BF00BF00BF0846806940F0200016
:1025700088610846806900F02000019000BF00BF1C
:1025800000BF0846806940F04000886108468069C5
:1025900000F04000019000BF00BF00BF0846806906
:1025A00040F4807088610846806900F48070019072
:1025B00000BF00BF4CF23370029002200390012054
:1025C00004900320059002A90A48FEF741FF4FF648
:1025D0008070029002A90848FEF73AFF41F201001C
:1025E000029002A90548FEF733FF06B010BD0000B7
:1025F000001002400014014000180140002001407A
:10260000042808D14FF0E021096941F004014FF09E
:10261000E022116107E04FF0E021096921F0040197
:102620004FF0E0221161704770B504462546681EE0
:10263000B0F1807F01D301200FE0681E4FF0E02150
:1026400048610F214FF0FF3003F004FC00204FF0F1
:10265000E021886107200861002070BD70470146B5
:1026600091F839007047F8B5044600250026206827
:10267000006800F001052068C06800F4807625B18C
:102680001EB1E06B40F00100E06320680068C0F319
:1026900040052068406900F0010625B11EB1E06BDD
:1026A00040F00400E06320680068C0F3800525B1B5
:1026B0001EB1E06B40F00200E06320680068C0F3E8
:1026C000C00525B11EB1E06B40F00800E063206852
:1026D0000068C0F340152068C06800F020061DB1F6
:1026E00016B1204605F0CEFF20680068C0F3C01583
:1026F0002068C06800F080061DB116B1204606F0C3
:1027000003F920680068C0F380152068C06800F0F5
:1027100040061DB116B1204605F09CFFE06B70B17C
:1027200000BF20680068009020684068009000BFEB
:1027300000BF012084F839002046FFF78FFFF8BD65
:1027400010B504460CB9012010BDA06900B100E02D
:1027500000BF94F8390028B9002084F838002046DA
:1027600000F026F8022084F839002068C06820F4C0
:1027700000502168C860204605F0E2FF206800692B
:1027800020F49040216808612068406920F02A0008
:10279000216848612068C06840F400502168C86022
:1027A0000020E063012084F839000020CCE700001D
:1027B00010B586B0044625492068884244D100BF40
:1027C0002348806940F004002149886108468069F7
:1027D00000F00400019000BF00BF00BF0846806900
:1027E00040F4804088610846806900F48040019090
:1027F00000BF00BF00BF0846806940F0010088614B
:102800000846806900F00100019000BF00BF481534
:10281000029002200390012004900320059002A959
:102820000C48FEF715FE4FF48060029000200390E4
:1028300002A90848FEF70CFE2520FEF7E4FF03225C
:1028400011462520FEF7ECFF06B010BD0038014010
:10285000001002400008014030B50346002493F800
:102860003940012C01D0122C37D101B10AB9012015
:1028700030BD00BF93F83800012801D10220F7E7EE
:10288000012083F8380000BF99629A85DA8500201C
:10289000D86393F83900122803D1322083F8390025
:1028A00002E0222083F8390000BF002083F83800BE
:1028B00000BF1868C06840F480701D68E860186840
:1028C000406940F001001D6868611868C06840F008
:1028D00020001D68E8600020CAE70220C8E7000069
:1028E0001D4A0168914236D11C49098801F4004112
:1028F00089BB1A49098801F4804171B118490978E6
:102900000A2903D00021154A118024E013490988BF
:1029100041F40041114A11801DE0114909780D2947
:1029200006D10E49098841F480410C4A118012E019
:102930000B490978094A1288C2F30D02094B9954D0
:1029400006490988491C054A118011460988C7298A
:1029500001DD002111807047003801401C0000207B
:102960001E000020B40C0020704700BFFEE70000EE
:1029700010B500200F4908600F48006820F0704033
:102980000D4908600846006840F04050086000208B
:102990000A49C1F89C01022006F08CF80120054983
:1029A0000860022006F086F800200449C1F898016A
:1029B00010BD000098812142000C0140008021429E
:1029C00000B585B000BF1048806940F008000E498E
:1029D00088610846806900F00800009000BF00BFD1
:1029E000C02001900120029003900320049001A9CF
:1029F0000648FEF72DFD0120054908600549C1F88C
:102A0000980105B000BD000000100240000C01401C
:102A10009C8121420080214210B500200F490860AE
:102A20000F48006820F070400D49086008460068B3
:102A300040F04050086001200A49C1F89C01022082
:102A400006F038F8012005490860022006F032F847
:102A500000200449C1F8980110BD0000988121426E
:102A6000000C01400080214270B505460024174843
:102A7000006820F07040154908600846006840F082
:102A800000400860002616E000201149086002207E
:102A900006F010F801200F49C1F898016006040EF5
:102AA0000B487C38006808B1601CC4B2012006F0F5
:102AB00001F8701CC6B2082EE6DB15B9FFF7ACFFB3
:102AC00001E0FFF755FF204670BD0000000C0140FB
:102AD000988121420080214270B504461548006863
:102AE00020F07040134908600846006840F04050EC
:102AF0000860002010490860002517E0E0090E4931
:102B0000091D08606006040E022005F0D3FF0120B5
:102B10000A49C1F89801022005F0CCFF00200649BF
:102B20000860022005F0C6FF681CC5B2082DE5DB71
:102B300070BD0000000C01409881214200802142BC
:102B400010B50F48006820F070400D490860084635
:102B5000006840F04050086001200A4908600A49B6
:102B6000C1F89801042005F0A5FF00200549086080
:102B7000042005F09FFF00200349C1F8980110BD13
:102B8000000C01409C8121420080214210B50F4879
:102B9000006820F070400D4908600846006840F069
:102BA0004050086000200A4908600A49C1F89C01A9
:102BB000042005F07FFF0120054908600549C1F8A0
:102BC0009C01042005F076FF10BD0000000C0140C0
:102BD000988121420080214210B5002414480068E9
:102BE00020F07040124908600846006840F000403C
:102BF000086001200F49086005F05CFF01200E49C4
:102C0000C1F8980105F056FF07E0601CC4B2FA2C29
:102C100003DDFFF7BBFF012010BD064880380068C8
:102C20000028F2D10349091F086000BFF4E7000043
:102C3000000C01409C8121420080214200B585B0FA
:102C400000BF1A48806940F00400184988610846AE
:102C5000806900F00400009000BF00BF00BF08467C
:102C6000806940F0400088610846806900F04000BB
:102C7000009000BF00BF01200190002002900220C0
:102C800003900320049001A90948FEF7E1FB1C20F2
:102C9000019000200290012003900320049001A9DC
:102CA0000448FEF7D5FB05B000BD0000001002404F
:102CB000000801400018014010B50446012C01D164
:102CC0002C4908702B480078002837D010212A485A
:102CD000FEF75EFD78B108212748FEF759FD50B197
:102CE00004212548FEF754FD28B101212348FEF7B1
:102CF0004FFD012822D10A2005F0A6FE00201D4923
:102D0000087010211C48FEF743FD08B9012010BDD2
:102D100008211948FEF73CFD08B90220F7E7042115
:102D20001548FEF735FD08B90320F0E701211348E7
:102D3000FEF72EFD01281BD10420E8E710210E48E4
:102D4000FEF726FD012813D108210B48FEF720FDD0
:102D500001280DD104210848FEF71AFD012807D1EA
:102D600001210648FEF714FD10B901200149087041
:102D70000020CCE71F00002000180140000801409F
:102D800070B504460026094805884088454300215F
:102D9000084602F0D3FD02F0FFFF00BF02E0044945
:102DA0000C80761CAE42FAD370BD0000000E0020ED
:102DB0000008006C10B5044655488471002C51D1B0
:102DC000F020534908804FF4A0704880084680885E
:102DD00049F24131884205D04D48808845F2103192
:102DE000884214D12C204A4908812A2048812B206E
:102DF00088810846808845F21031884206D14FF418
:102E0000A070434908804FF4F07048807BE0404850
:102E1000808845F21051884210D14FF430503C491F
:102E200008814FF4285048814FF42C5088814FF48A
:102E3000F07008804FF44870488064E0344880881F
:102E400041F6631188425ED12C20314908812B2044
:102E500048812A2088814FF4F07008804FF4487030
:102E6000488050E04FF4A07029490880F020488045
:102E70000846808849F24131884205D0244880883C
:102E800045F21031884207D12C20214908812A209F
:102E900048812B20888129E01D48808845F2105107
:102EA000884210D14FF43050194908814FF428500E
:102EB00048814FF42C5088814FF4487008804FF4BB
:102EC000F070488012E01248808841F66311884211
:102ED0000CD12C200E4908812A2048812B20888182
:102EE0004FF4487008804FF4F0704880084880889C
:102EF00045F21031884206D14FF4F0700449088041
:102F00004FF4A0704880002002F0DEFB10BD0000EE
:102F1000000E00202DE9FF4F84B081468A46002034
:102F2000039002900698A0EB09050798A0EB0A060B
:102F3000CDF80490CDF800A0002D01DD012705E0BB
:102F40000DB9002702E04FF0FF376D42002E02DD81
:102F50004FF0010806E016B94FF0000802E04FF00C
:102F6000FF387642B54201DD2C4600E034464FF092
:102F7000000B21E0009A91B2019A90B200F022F881
:102F80000398284403900298304402900398A0428A
:102F900005DD0398001B03900198384401900298C6
:102FA000A04205DD0298001B02900098404400906A
:102FB0000BF101001FFA80FB601C8345DADD08B0CD
:102FC000BDE8F08F30B504460D462946204602F094
:102FD000B5FC02F0E1FE024800880249088030BDDD
:102FE000200000200008006C2DE9F04306460F4643
:102FF0009046002445460320A0EB48093CE07A1B9C
:1030000091B2321990B2FFF7DDFF3A1B91B27219FB
:1030100090B2FFF7D7FF3A1991B2721990B2FFF749
:10302000D1FF7A1991B2321990B2FFF7CBFF7A191A
:1030300091B2321B90B2FFF7C5FF3A1991B2721BE1
:1030400090B2FFF7BFFF7A1B91B2321B90B2FFF72D
:10305000B9FF3A1B91B2721B90B2FFF7B3FF641C29
:10306000B9F1000F03DAA000801D814404E0601B69
:1030700080000A3081446D1EAC42C0DDBDE8F083A3
:1030800030B504460D463E48808849F241318842B9
:1030900005D03B48808845F21031884214D1384928
:1030A000488902F06DFE201202F05EFEE0B202F0EE
:1030B0005BFE3349888902F063FE281202F054FE59
:1030C000E8B202F051FE54E02D48808845F21051DC
:1030D000884220D12A49488902F052FE201202F08B
:1030E00043FE27494989491C88B202F049FEE0B2F3
:1030F00002F03AFE2249888902F042FE281202F0CC
:1031000033FE1F498989491C88B202F039FEE8B2B2
:1031100002F02AFE2DE01A48808841F663118842A9
:1031200027D11748807920B915480088401E001B18
:1031300084B21349488902F023FE201202F014FEE3
:10314000E0B202F011FE201202F00EFEE0B202F038
:103150000BFE0B49888902F013FE281202F004FED0
:10316000E8B202F001FE281202F0FEFDE8B202F021
:10317000FBFD0348008903490880891C0A8030BD93
:10318000000E0020FE07006C2DE9F04F05460E46AC
:1031900017469846DDF824A04FF0000B781B401C22
:1031A0001FFA80FB344613E02146284602F0C6FB96
:1031B00002F0F2FD4FF0000906E00749A1F800A077
:1031C00009F101001FFA80F9D945F6DB601C84B2D1
:1031D0004445E9DDBDE8F08F0008006C00B593B010
:1031E00000BFFE48806940F00800FC49886108463D
:1031F000806900F00800009000BF00BF01200F9020
:1032000010901190032012900FA9F548FEF720F9B5
:103210004FF02040F3490860F3484860062088607A
:103220000021F048C16001611021416100218161EC
:10323000C16141624FF4805181620021C1624FF44B
:1032400080410163002141638163062008900020D2
:1032500009901A200A9000200E90049003200190FB
:1032600000200290062003900020079001AA08A9E0
:10327000DC48FFF73BF9322005F0E6FBD32002F0F3
:103280007FFD02F0EDF9D949888002F0E9F9D749CC
:10329000888002F0E5F9D5498880084680884FF695
:1032A000FF7101EA0020D149888002F0D9F9CF49A5
:1032B00089880843CD4988800846808849F2413191
:1032C000884278D0D42002F05BFD02F0C9F9C749EA
:1032D000888002F0C5F9C549888002F0C1F9C34968
:1032E0008880084680884FF6FF7101EA0020BF49B8
:1032F000888002F0B5F9BD4989880843BB498880B8
:103300000846808845F21031884254D04FF45A4024
:1033100002F036FD02F0A4F9B44988804FF45B4016
:1033200002F02EFD02F09CF9B049888008468088A2
:103330004FF6FF7101EA0020AC4988804FF45C40F1
:1033400002F01EFD02F08CF9A84989880843A749BC
:10335000888008468088B0F5004F02D145F21050B1
:103360008880A248808845F21051884223D0A1204D
:1033700002F006FD02F074F99C49888002F070F9B1
:103380009A498880084680884FF6FF7101EA00203C
:103390009649888002F064F99449898808439349E2
:1033A00088800846808845F26171884203D141F6E1
:1033B00063108E4988808D4881888DA0FCF78AFF34
:1033C0008A48808849F2413188427CD1CF2002F07E
:1033D000D7FC002002F0C8FCC12002F0C5FC302060
:1033E00002F0C2FCED2002F0CBFC642002F0BCFC39
:1033F000032002F0B9FC122002F0B6FC812002F09A
:10340000B3FCE82002F0BCFC852002F0ADFC1020EB
:1034100002F0AAFC7A2002F0A7FCCB2002F0B0FC5C
:10342000392002F0A1FC2C2002F09EFC002002F0CA
:103430009BFC342002F098FC022002F095FCF7205F
:1034400002F09EFC202002F08FFCEA2002F098FCA3
:10345000002002F089FC002002F086FCC02002F06F
:103460008FFC1B2002F080FCC12002F089FC0120AF
:1034700002F07AFCC52002F083FC302002F074FCDC
:10348000302002F071FCC72002F07AFCB72002F075
:103490006BFC362002F074FC482002F065FC3A20F8
:1034A00002F06EFC552002F05FFCB12002F068FCD7
:1034B000002002F059FC1A2002F056FCB62002F05F
:1034C0005FFC0A2000E0ACE002F04EFCA22002F01B
:1034D0004BFCF22002F054FC002002F045FC2620B8
:1034E00002F04EFC012002F03FFCE02002F048FC1C
:1034F0000F2002F039FC2A2002F036FC282002F0CE
:1035000033FC082002F030FC0E2002F02DFC0820D5
:1035100002F02AFC542002F027FCA92002F024FC2F
:10352000432002F021FC0A2002F01EFC0F2002F0D2
:103530001BFC002002F018FC002002F015FC00200B
:1035400002F012FC002002F00FFCE12002F018FC57
:10355000002002F009FC152002F006FC172002F002
:1035600003FC072002F000FC112002F0FDFB062006
:1035700002F0FAFB2B2002F0F7FB562002F0F4FBDE
:103580003C2002F0F1FB052002F0EEFB102002F0DF
:10359000EBFB0F2002F0E8FB3F2002F0E5FB3F20B1
:1035A00002F0E2FB0F2002F0DFFB2B2002F0E8FB31
:1035B000002002F0D9FB002002F0D6FB012002F02F
:1035C000D3FB3F2002F0D0FB2A2002F0D9FB0020E1
:1035D00002F0CAFB002002F0C7FB11E0001002401D
:1035E000000C0140BC0D0020040100A0000E0020D2
:1035F000204C43442049443A25780D0A000000003D
:10360000002002F0B1FBEF2002F0AEFB112002F02F
:10361000B7FB782005F018FA292002F0B1FB01F081
:10362000CBBFFE48808845F21031884240F07C874D
:10363000ED2002F0A5FB012002F096FBFE2002F037
:1036400093FBEE2002F09CFBDE2002F08DFB21209C
:1036500002F08AFBF12002F093FB012002F084FBD0
:10366000DF2002F08DFB102002F07EFBC42002F070
:1036700087FB8F2002F078FBC62002F081FB002040
:1036800002F072FBE22002F06FFBE22002F06CFB22
:10369000E22002F069FBBF2002F072FBAA2002F0D8
:1036A00063FBB02002F06CFB0D2002F05DFB0020FC
:1036B00002F05AFB0D2002F057FB002002F054FBF1
:1036C000112002F051FB002002F04EFB192002F005
:1036D0004BFB002002F048FB212002F045FB0020BC
:1036E00002F042FB2D2002F03FFB002002F03CFBE9
:1036F0003D2002F039FB002002F036FB5D2002F095
:1037000033FB002002F030FB5D2002F02DFB002097
:1037100002F02AFBB12002F033FB802002F024FBF0
:10372000002002F021FB8B2002F01EFB002002F0A3
:103730001BFB962002F018FB002002F015FBB220C4
:1037400002F01EFB002002F00FFB002002F00CFB39
:10375000022002F009FB002002F006FB032002F029
:1037600003FB002002F000FBB32002F009FB002065
:1037700002F0FAFA002002F0F7FA002002F0F4FA60
:10378000002002F0F1FA002002F0EEFA002002F030
:10379000EBFA002002F0E8FA002002F0E5FA00203F
:1037A00002F0E2FA002002F0DFFA002002F0DCFA78
:1037B000002002F0D9FA002002F0D6FA002002F030
:1037C000D3FA002002F0D0FA002002F0CDFA002057
:1037D00002F0CAFA002002F0C7FA002002F0C4FA90
:1037E000002002F0C1FA002002F0BEFA002002F030
:1037F000BBFA002002F0B8FA002002F0B5FAB420BB
:1038000002F0BEFA8B2002F0AFFA002002F0ACFA10
:10381000962002F0A9FA002002F0A6FAA12002F0F8
:10382000A3FA002002F0A0FAB52002F0A9FA0220C3
:1038300002F09AFA002002F097FA032002F094FABC
:10384000002002F091FA042002F08EFA002002F02B
:103850008BFAB62002F094FA002002F085FA0020DC
:1038600002F082FAB72002F08BFA002002F07CFA14
:10387000002002F079FA3F2002F076FA002002F0F0
:1038800073FA5E2002F070FA002002F06DFA6420F4
:1038900002F06AFA002002F067FA8C2002F064FA63
:1038A000002002F061FAAC2002F05EFA002002F083
:1038B0005BFADC2002F058FA002002F055FA702082
:1038C00002F052FA002002F04FFA902002F04CFA77
:1038D000002002F049FAEB2002F046FA002002F044
:1038E00043FADC2002F040FA002002F03DFAB82052
:1038F00002F046FA002002F037FA002002F034FA13
:10390000002002F031FA002002F02EFA002002F02E
:103910002BFA002002F028FA002002F025FA0020FD
:1039200002F022FABA2002F02BFA242002F01CFA4C
:10393000002002F019FA002002F016FA002002F02E
:1039400013FAC12002F01CFA202002F00DFA002028
:1039500002F00AFA542002F007FA002002F004FAFA
:10396000FF2002F001FA002002F0FEF9C22002F06E
:1039700007FA0A2002F0F8F9002002F0F5F9042015
:1039800002F0F2F9002002F0EFF9C32002F0F8F99A
:103990003C2002F0E9F9002002F0E6F93A2002F0BA
:1039A000E3F9002002F0E0F9392002F0DDF900200F
:1039B00002F0DAF9372002F0D7F9002002F0D4F94A
:1039C0003C2002F0D1F9002002F0CEF9362002F0BE
:1039D000CBF9002002F0C8F9322002F0C5F900202E
:1039E00002F0C2F92F2002F0BFF9002002F0BCF96A
:1039F0002C2002F0B9F9002002F0B6F9292002F0DB
:103A0000B3F9002002F0B0F9262002F0ADF9002051
:103A100002F0AAF9242002F0A7F901E0000E00202C
:103A2000002002F0A1F9242002F09EF9002002F00B
:103A30009BF9232002F098F9002002F095F93C2030
:103A400002F092F9002002F08FF9362002F08CF992
:103A5000002002F089F9322002F086F9002002F0FD
:103A600083F92F2002F080F9002002F07DF92C204C
:103A700002F07AF9002002F077F9292002F074F9B7
:103A8000002002F071F9262002F06EF9002002F009
:103A90006BF9242002F068F9002002F065F9242077
:103AA00002F062F9002002F05FF9232002F05CF9D5
:103AB000002002F059F9C42002F062F9622002F0FD
:103AC00053F9002002F050F9052002F04DF90020D2
:103AD00002F04AF9842002F047F9002002F044F98C
:103AE000F02002F041F9002002F03EF9182002F027
:103AF0003BF9002002F038F9A42002F035F900204B
:103B000002F032F9182002F02FF9002002F02CF90F
:103B1000502002F029F9002002F026F90C2002F0D2
:103B200023F9002002F020F9172002F01DF90020EF
:103B300002F01AF9952002F017F9002002F014F9AA
:103B4000F32002F011F9002002F00EF9E62002F055
:103B50000BF9002002F008F9C52002F011F932201B
:103B600002F002F9002002F0FFF8442002F0FCF815
:103B7000002002F0F9F8652002F0F6F8002002F0CB
:103B8000F3F8762002F0F0F8002002F0EDF888203B
:103B900002F0EAF8002002F0E7F8C62002F0F0F8A0
:103BA000202002F0E1F8002002F0DEF8172002F0F9
:103BB000DBF8002002F0D8F8012002F0D5F8002050
:103BC00002F0D2F8C72002F0DBF8002002F0CCF8B7
:103BD000002002F0C9F8002002F0C6F8002002F030
:103BE000C3F8C82002F0CCF8002002F0BDF8002095
:103BF00002F0BAF8002002F0B7F8002002F0B4F8A2
:103C0000C92002F0BDF8002002F0AEF8002002F05A
:103C1000ABF8002002F0A8F8002002F0A5F8002080
:103C200002F0A2F8002002F09FF8002002F09CF8B9
:103C3000002002F099F8002002F096F8002002F02F
:103C400093F8002002F090F8002002F08DF8002098
:103C500002F08AF8002002F087F8002002F084F8D1
:103C6000002002F081F8E02002F08AF8162002F02D
:103C70007BF8002002F078F81C2002F075F8002094
:103C800002F072F8212002F06FF8002002F06CF8C8
:103C9000362002F069F8002002F066F8462002F0B3
:103CA00063F8002002F060F8522002F05DF8002076
:103CB00002F05AF8642002F057F8002002F054F89D
:103CC0007A2002F051F8002002F04EF88B2002F02A
:103CD0004BF8002002F048F8992002F045F8002047
:103CE00002F042F8A82002F03FF8002002F03CF871
:103CF000B92002F039F8002002F036F8C42002F0B2
:103D000033F8002002F030F8CA2002F02DF800202D
:103D100002F02AF8D22002F027F8002002F024F85E
:103D2000D92002F021F8002002F01EF8E02002F075
:103D30001BF8002002F018F8F32002F015F800201C
:103D400002F012F8E12002F01BF8162002F00CF845
:103D5000002002F009F81C2002F006F8002002F012
:103D600003F8222002F000F8002001F0FDFF3620C9
:103D700001F0FAFF002001F0F7FF452001F0F4FF09
:103D8000002001F0F1FF522001F0EEFF002001F0D1
:103D9000EBFF642001F0E8FF002001F0E5FF7A204E
:103DA00001F0E2FF002001F0DFFF8B2001F0DCFFDB
:103DB000002001F0D9FF992001F0D6FF002001F08A
:103DC000D3FFA82001F0D0FF002001F0CDFFB920E3
:103DD00001F0CAFF002001F0C7FFC42001F0C4FFBA
:103DE000002001F0C1FFCA2001F0BEFF002001F059
:103DF000BBFFD22001F0B8FF002001F0B5FFD820B2
:103E000001F0B2FF002001F0AFFFE02001F0ACFFB5
:103E1000002001F0A9FFF32001F0A6FF002001F02F
:103E2000A3FFE22001F0ACFF052001F09DFF002080
:103E300001F09AFF0B2001F097FF002001F094FFA2
:103E40001B2001F091FF002001F08EFF342001F0D3
:103E50008BFF002001F088FF442001F085FF002047
:103E600001F082FF4F2001F07FFF002001F07CFF76
:103E7000612001F079FF002001F076FF792001F048
:103E800073FF002001F070FF882001F06DFF00201B
:103E900001F06AFF972001F067FF002001F064FF46
:103EA000A62001F061FF002001F05EFFB72001F0C5
:103EB0005BFF002001F058FFC22001F055FF0020F9
:103EC00001F052FFC72001F04FFF002001F04CFF2E
:103ED000D12001F049FF002001F046FFD62001F07B
:103EE00043FF002001F040FFDD2001F03DFF0020F6
:103EF00001F03AFFF32001F037FF002001F034FF1A
:103F0000E32001F03DFF052001F02EFF002001F02D
:103F10002BFF0A2001F028FF002001F025FF1C20C4
:103F200001F022FF002001F01FFF332001F01CFFF1
:103F3000002001F019FF442001F016FF002001F0DD
:103F400013FF502001F010FF002001F00DFF622050
:103F500001F00AFF002001F007FF782001F004FFC4
:103F6000002001F001FF882001F0FEFE002001F09A
:103F7000FBFE972001F0F8FE002001F0F5FEA620E0
:103F800001F0F2FE002001F0EFFEB72001F0ECFEA0
:103F9000002001F0E9FEC22001F0E6FE002001F061
:103FA000E3FEC72001F0E0FE002001F0DDFED1209D
:103FB00001F0DAFE002001F0D7FED52001F0D4FE9A
:103FC000002001F0D1FEDD2001F0CEFE002001F046
:103FD000CBFEF32001F0C8FE002001F0C5FEE42076
:103FE00001F0CEFE012001F0BFFE002001F0BCFE7A
:103FF000012001F0B9FE002001F0B6FE022001F020
:10400000B3FE002001F0B0FE2A2001F0ADFE00203A
:1040100001F0AAFE3C2001F0A7FE002001F0A4FE62
:104020004B2001F0A1FE002001F09EFE5D2001F07A
:104030009BFE002001F098FE742001F095FE002008
:1040400001F092FE842001F08FFE002001F08CFE32
:10405000932001F089FE002001F086FEA22001F0ED
:1040600083FE002001F080FEB32001F07DFE0020E1
:1040700001F07AFEBE2001F077FE002001F074FE10
:10408000C42001F071FE002001F06EFECD2001F091
:104090006BFE002001F068FED32001F065FE0020D9
:1040A00001F062FEDD2001F05FFE002001F05CFE09
:1040B000F32001F059FE002001F056FEE52001F04A
:1040C0005FFE002001F050FE002001F04DFE0020B8
:1040D00001F04AFE002001F047FE022001F044FEFC
:1040E000002001F041FE292001F03EFE002001F0F9
:1040F0003BFE3C2001F038FE002001F035FE4B2055
:1041000001F032FE002001F02FFE5D2001F02CFEB8
:10411000002001F029FE742001F026FE002001F0AD
:1041200023FE842001F020FE002001F01DFE9320DC
:1041300001F01AFE002001F017FEA22001F014FE8B
:10414000002001F011FEB32001F00EFE002001F06E
:104150000BFEBE2001F008FE002001F005FEC42089
:1041600001F002FE002001F0FFFDCD2001F0FCFD7A
:10417000002001F0F9FDD32001F0F6FD002001F050
:10418000F3FDDC2001F0F0FD002001F0EDFDF32057
:1041900001F0EAFD002001F0E7FDE62001F0F0FD6E
:1041A000112001F0E1FD002001F0DEFD342001F0DE
:1041B000DBFD002001F0D8FD562001F0D5FD0020E8
:1041C00001F0D2FD762001F0CFFD002001F0CCFD02
:1041D000772001F0C9FD002001F0C6FD662001F046
:1041E000C3FD002001F0C0FD882001F0BDFD0020CE
:1041F00001F0BAFD992001F0B7FD002001F0B4FDF7
:10420000BB2001F0B1FD002001F0AEFD992001F0CE
:10421000ABFD002001F0A8FD662001F0A5FD002007
:1042200001F0A2FD552001F09FFD002001F09CFD52
:10423000552001F099FD002001F096FD452001F088
:1042400093FD002001F090FD432001F08DFD002042
:1042500001F08AFD442001F087FD002001F084FD7B
:10426000E72001F08DFD322001F07EFD002001F0FD
:104270007BFD552001F078FD002001F075FD7620D2
:1042800001F072FD002001F06FFD662001F06CFD71
:10429000002001F069FD672001F066FD002001F0BB
:1042A00063FD672001F060FD002001F05DFD8720C7
:1042B00001F05AFD002001F057FD992001F054FD56
:1042C000002001F051FDBB2001F04EFD002001F067
:1042D0004BFD992001F048FD002001F045FD7720BD
:1042E00001F042FD002001F03FFD442001F03CFDC3
:1042F000002001F039FD562001F036FD002001F0CC
:1043000033FD232001F030FD002001F02DFD33208E
:1043100001F02AFD002001F027FD452001F024FDD9
:10432000002001F021FDE82001F02AFD002001F02D
:104330001BFD002001F018FD992001F015FD002063
:1043400001F012FD872001F00FFD002001F00CFDAF
:10435000882001F009FD002001F006FD772001F022
:1043600003FD002001F000FD662001F0FDFC0020AF
:1043700001F0FAFC882001F0F7FC002001F0F4FCC9
:10438000AA2001F0F1FC002001F0EEFCBB2001F0BE
:10439000EBFC002001F0E8FC992001F0E5FC002096
:1043A00001F0E2FC662001F0DFFC002001F0DCFC03
:1043B000552001F0D9FC002001F0D6FC552001F079
:1043C000D3FC002001F0D0FC442001F0CDFC002003
:1043D00001F0CAFC442001F0C7FC002001F0C4FC3D
:1043E000552001F0C1FC002001F0BEFCE92001F0E5
:1043F000C7FCAA2001F0B8FC002001F0B5FC0020A9
:1044000001F0B2FC002001F0AFFC002001F0B8FC8C
:10441000AA2001F0A9FCCF2001F0B2FC002001F09D
:10442000A3FC002001F0A0FC002001F09DFC002076
:1044300001F09AFC002001F097FC002001F094FCB0
:10444000002001F091FC002001F08EFC002001F022
:104450008BFC002001F088FC002001F085FC00208E
:1044600001F082FC002001F07FFC002001F07CFCC8
:10447000002001F079FC002001F076FC002001F022
:1044800073FCF02001F07CFC002001F06DFC50205A
:1044900001F06AFC002001F067FC002001F064FCE0
:1044A000002001F061FCF32001F06AFC002001F023
:1044B0005BFCF92001F064FC062001F055FC1020A3
:1044C00001F052FC292001F04FFC002001F04CFCCF
:1044D0003A2001F055FC552001F046FC112001F076
:1044E0004FFC642004F0B0FA292001F049FC35208B
:1044F00001F046FC002001F037FC512001F040FCA7
:10450000FF2001F031FC532001F03AFC2C2001F097
:104510002BFC552001F034FC822001F025FC2C20DE
:1045200001F02EFC01F048B8FE48808845F2105199
:1045300088427DD155214FF4704001F037FCAA210B
:104540004FF2010001F032FC52214FF2020001F063
:104550002DFC08214FF2030001F028FC01214FF24D
:10456000040001F023FC0D214FF4304001F01EFC4B
:104570000D214BF2010001F019FC0D214BF202005C
:1045800001F014FC34214FF4364001F00FFC3421CB
:104590004BF2016001F00AFC34214BF2026001F0A1
:1045A00005FC0D214FF4314001F000FC0D214BF2D0
:1045B000011001F0FBFB0D214BF2021001F0F6FBA4
:1045C00034214FF4374001F0F1FB34214BF20170FC
:1045D00001F0ECFB34214BF2027001F0E7FB00210B
:1045E0004FF4324001F0E2FB00214BF2012001F0D8
:1045F000DDFB00214BF2022001F0D8FB24214FF417
:10460000384001F0D3FB24214BF6010001F0CEFB32
:1046100024214BF6020001F0C9FB01214FF43F4079
:1046200001F0C4FB0F214FF4334001F0BFFB00E069
:10463000FDE30F214BF2013001F0B8FB0F214BF2EB
:10464000023001F0B3FB34214FF4394001F0AEFBEE
:1046500034214BF6011001F0A9FB34214BF6021076
:1046600001F0A4FB08214FF4354001F09FFB082125
:104670004BF2015001F09AFB08214BF2025001F07D
:1046800095FB03214FF4424001F090FB24214FF4AD
:104690003A4001F08BFB24214BF6012001F086FB10
:1046A00024214BF6022001F081FB00214FF43C4015
:1046B00001F07CFB78214BF6014001F077FB0021F3
:1046C0004BF6024001F072FB00214FF43D4001F037
:1046D0006DFB78214BF6015001F068FB00214BF691
:1046E000025001F063FB00214FF43E4001F05EFBFD
:1046F00064214BF6016001F059FB00214FF4514059
:1047000001F054FB33214DF2011001F04FFB002169
:104710004DF2021001F04AFB34214DF2031001F07A
:1047200045FB00214DF2041001F040FB3A214DF20F
:10473000051001F03BFB00214DF2061001F036FBA5
:104740004A214DF2071001F031FB00214DF2081013
:1047500001F02CFB5C214DF2091001F027FB002138
:104760004DF20A1001F022FB81214DF20B1001F0F5
:104770001DFB00214DF20C1001F018FBA6214DF29B
:104780000D1001F013FB00214DF20E1001F00EFB95
:10479000E5214DF20F1001F009FB01214DF210103F
:1047A00001F004FB13214DF2111001F0FFFA012179
:1047B0004DF2121001F0FAFA54214DF2131001F0EB
:1047C000F5FA01214DF2141001F0F0FA82214DF2B8
:1047D000151001F0EBFA01214DF2161001F0E6FA86
:1047E000CA214DF2171001F0E1FA02214DF2181022
:1047F00001F0DCFA00214DF2191001F0D7FA022184
:104800004DF21A1001F0D2FA01214DF21B1001F005
:10481000CDFA02214DF21C1001F0C8FA34214DF2FC
:104820001D1001F0C3FA02214DF21E1001F0BEFA74
:1048300067214DF21F1001F0B9FA02214DF220104C
:1048400001F0B4FA84214DF2211001F0AFFA0221F7
:104850004DF2221001F0AAFAA4214DF2231001F02A
:10486000A5FA02214DF2241001F0A0FAB7214DF271
:10487000251001F09BFA02214DF2261001F096FA64
:10488000CF214DF2271001F091FA02214DF22810AC
:1048900001F08CFADE214DF2291001F087FA022195
:1048A0004DF22A1001F082FAF2214DF22B1001F0A4
:1048B0007DFA02214DF22C1001F078FAFE214DF222
:1048C0002D1001F073FA03214DF22E1001F06EFA53
:1048D00010214DF22F1001F069FA03214DF2301032
:1048E00001F064FA33214DF2311001F05FFA032137
:1048F0004DF2321001F05AFA6D214DF2331001F0F1
:1049000055FA00214FF4524001F050FA33214DF294
:10491000012001F04BFA00214DF2022001F046FA8D
:10492000342101E0000E00204DF2032001F03EFA98
:1049300000214DF2042001F039FA3A214DF2052010
:1049400001F034FA00214DF2062001F02FFA4A213D
:104950004DF2072001F02AFA00214DF2082001F063
:1049600025FA5C214DF2092001F020FA00214DF2D8
:104970000A2001F01BFA81214DF20B2001F016FAFA
:1049800000214DF20C2001F011FAA6214DF20D206C
:1049900001F00CFA00214DF20E2001F007FAE5219A
:1049A0004DF20F2001F002FA01214DF2102001F02A
:1049B000FDF913214DF2112001F0F8F901214DF21A
:1049C000122001F0F3F954214DF2132001F0EEF919
:1049D00001214DF2142001F0E9F982214DF2152058
:1049E00001F0E4F901214DF2162001F0DFF9CA21AE
:1049F0004DF2172001F0DAF902214DF2182001F0F2
:104A0000D5F900214DF2192001F0D0F902214DF223
:104A10001A2001F0CBF901214DF21B2001F0C6F95B
:104A200002214DF21C2001F0C1F934214DF21D206C
:104A300001F0BCF902214DF21E2001F0B7F9672107
:104A40004DF21F2001F0B2F902214DF2202001F0B9
:104A5000ADF984214DF2212001F0A8F902214DF297
:104A6000222001F0A3F9A4214DF2232001F09EF9A8
:104A700002214DF2242001F099F9B7214DF22520B1
:104A800001F094F902214DF2262001F08FF9CF2197
:104A90004DF2272001F08AF902214DF2282001F081
:104AA00085F9DE214DF2292001F080F902214DF235
:104AB0002A2001F07BF9F2214DF22B2001F076F94A
:104AC00002214DF22C2001F071F9FE214DF22D2032
:104AD00001F06CF903214DF22E2001F067F910214D
:104AE0004DF22F2001F062F903214DF2302001F048
:104AF0005DF933214DF2312001F058F903214DF2D7
:104B0000322001F053F96D214DF2332001F04EF9BE
:104B100000214FF4534001F049F933214DF20130A7
:104B200001F044F900214DF2023001F03FF9342147
:104B30004DF2033001F03AF900214DF2043001F05A
:104B400035F93A214DF2053001F030F900214DF2EE
:104B5000063001F02BF94A214DF2073001F026F919
:104B600000214DF2083001F021F95C214DF20930AD
:104B700001F01CF900214DF20A3001F017F98121F2
:104B80004DF20B3001F012F900214DF20C3001F022
:104B90000DF9A6214DF20D3001F008F900214DF27A
:104BA0000E3001F003F9E5214DF20F3001F0FEF86F
:104BB00001214DF2103001F0F9F813214DF21130BE
:104BC00001F0F4F801214DF2123001F0EFF8542118
:104BD0004DF2133001F0EAF801214DF2143001F0EA
:104BE000E5F882214DF2153001F0E0F801214DF297
:104BF000163001F0DBF8CA214DF2173001F0D6F87B
:104C000002214DF2183001F0D1F800214DF2193097
:104C100001F0CCF802214DF21A3001F0C7F8012161
:104C20004DF21B3001F0C2F802214DF21C3001F0B0
:104C3000BDF834214DF21D3001F0B8F802214DF2DB
:104C40001E3001F0B3F867214DF21F3001F0AEF8CD
:104C500002214DF2203001F0A9F884214DF22130DB
:104C600001F0A4F802214DF2223001F09FF8A421B6
:104C70004DF2233001F09AF802214DF2243001F078
:104C800095F8B7214DF2253001F090F802214DF250
:104C9000263001F08BF8CF214DF2273001F086F855
:104CA00002214DF2283001F081F8DE214DF2293049
:104CB00001F07CF802214DF22A3001F077F8F22160
:104CC0004DF22B3001F072F802214DF22C3001F040
:104CD0006DF8FE214DF22D3001F068F803214DF200
:104CE0002E3001F063F810214DF22F3001F05EF804
:104CF00003214DF2303001F059F833214DF23130BB
:104D000001F054F803214DF2323001F04FF86D21DB
:104D10004DF2333001F04AF800214FF4544001F0D5
:104D200045F833214DF2014001F040F800214DF2E9
:104D3000024001F03BF834214DF2034001F036F817
:104D400000214DF2044001F031F83A214DF20540C6
:104D500001F02CF800214DF2064001F027F84A211D
:104D60004DF2074001F022F800214DF2084001F019
:104D70001DF85C214DF2094001F018F800214DF2B8
:104D80000A4001F013F881214DF20B4001F00EF8BA
:104D900000214DF20C4001F009F8A6214DF20D4022
:104DA00001F004F800214DF20E4000F0FFFFE52174
:104DB0004DF20F4000F0FAFF01214DF2104000F0DB
:104DC000F5FF13214DF2114000F0F0FF01214DF2EB
:104DD000124000F0EBFF54214DF2134000F0E6FFCB
:104DE00001214DF2144000F0E1FF82214DF2154007
:104DF00000F0DCFF01214DF2164000F0D7FFCA2180
:104E00004DF2174000F0D2FF02214DF2184000F0A1
:104E1000CDFF00214DF2194000F0C8FF02214DF2F4
:104E20001A4000F0C3FF01214DF21B4000E005E3F2
:104E300000F0BCFF02214DF21C4000F0B7FF34210E
:104E40004DF21D4000F0B2FF02214DF21E4000F075
:104E5000ADFF67214DF21F4000F0A8FF02214DF287
:104E6000204000F0A3FF84214DF2214000F09EFF7E
:104E700002214DF2224000F099FFA4214DF223407F
:104E800000F094FF02214DF2244000F08FFFB72183
:104E90004DF2254000F08AFF02214DF2264000F03D
:104EA00085FFCF214DF2274000F080FF02214DF217
:104EB000284000F07BFFDE214DF2294000F076FF14
:104EC00002214DF22A4000F071FFF2214DF22B40F9
:104ED00000F06CFF02214DF22C4000F067FFFE2134
:104EE0004DF22D4000F062FF03214DF22E4000F004
:104EF0005DFF10214DF22F4000F058FF03214DF2CD
:104F0000304000F053FF33214DF2314000F04EFFAE
:104F100003214DF2324000F049FF6D214DF2334044
:104F200000F044FF00214FF4554000F03FFF3321D3
:104F30004DF2015000F03AFF00214DF2025000F016
:104F400035FF34214DF2035000F030FF00214DF2C7
:104F5000045000F02BFF3A214DF2055000F026FFDF
:104F600000214DF2065000F021FF4A214DF207507A
:104F700000F01CFF00214DF2085000F017FF5C21EB
:104F80004DF2095000F012FF00214DF20A5000F0DE
:104F90000DFF81214DF20B5000F008FF00214DF272
:104FA0000C5000F003FFA6214DF20D5000F0FEFE64
:104FB00000214DF20E5000F0F9FEE5214DF20F50A8
:104FC00000F0F4FE01214DF2105000F0EFFE13212D
:104FD0004DF2115000F0EAFE01214DF2125000F0A6
:104FE000E5FE54214DF2135000F0E0FE01214DF298
:104FF000145000F0DBFE82214DF2155000F0D6FE79
:1050000001214DF2165000F0D1FECA214DF2175089
:1050100000F0CCFE02214DF2185000F0C7FE002136
:105020004DF2195000F0C2FE02214DF21A5000F06C
:10503000BDFE01214DF21B5000F0B8FE02214DF2E1
:105040001C5000F0B3FE34214DF21D5000F0AEFEB6
:1050500002214DF21E5000F0A9FE67214DF21F50B3
:1050600000F0A4FE02214DF2205000F09FFE8421AA
:105070004DF2215000F09AFE02214DF2225000F034
:1050800095FEA4214DF2235000F090FE02214DF236
:10509000245000F08BFEB7214DF2255000F086FE23
:1050A00002214DF2265000F081FECF214DF2275013
:1050B00000F07CFE02214DF2285000F077FEDE2148
:1050C0004DF2295000F072FE02214DF22A5000F0FC
:1050D0006DFEF2214DF22B5000F068FE02214DF2E0
:1050E0002C5000F063FEFE214DF22D5000F05EFECC
:1050F00003214DF22E5000F059FE10214DF22F5099
:1051000000F054FE03214DF2305000F04FFE3321E9
:105110004DF2315000F04AFE03214DF2325000F0C2
:1051200045FE6D214DF2335000F040FE00214FF45A
:10513000564000F03BFE33214DF2016000F036FE98
:1051400000214DF2026000F031FE34214DF2036087
:1051500000F02CFE00214DF2046000F027FE3A2101
:105160004DF2056000F022FE00214DF2066000F0D5
:105170001DFE4A214DF2076000F018FE00214DF29D
:10518000086000F013FE5C214DF2096000F00EFE95
:1051900000214DF20A6000F009FE81214DF20B6002
:1051A00000F004FE00214DF20C6000F0FFFDA6218E
:1051B0004DF20D6000F0FAFD00214DF20E6000F09E
:1051C000F5FDE5214DF20F6000F0F0FD01214DF2FB
:1051D000106000F0EBFD13214DF2116000F0E6FDD0
:1051E00001214DF2126000F0E1FD54214DF21360F7
:1051F00000F0DCFD01214DF2146000F0D7FD8221AA
:105200004DF2156000F0D2FD01214DF2166000F064
:10521000CDFDCA214DF2176000F0C8FD02214DF20C
:10522000186000F0C3FD00214DF2196000F0BEFDD2
:1052300002214DF21A6000F0B9FD01214DF21B6010
:1052400000F0B4FD02214DF21C6000F0AFFD3421EE
:105250004DF21D6000F0AAFD02214DF21E6000F02B
:10526000A5FD67214DF21F6000F0A0FD02214DF267
:10527000206000F09BFD84214DF2216000F096FD3E
:1052800002214DF2226000F091FDA4214DF2236035
:1052900000F08CFD02214DF2246000F087FDB72163
:1052A0004DF2256000F082FD02214DF2266000F0F3
:1052B0007DFDCF214DF2276000F078FD02214DF2F7
:1052C000286000F073FDDE214DF2296000F06EFDD4
:1052D00002214DF22A6000F069FDF2214DF22B60AF
:1052E00000F064FD02214DF22C6000F05FFDFE2114
:1052F0004DF22D6000F05AFD03214DF22E6000F0BA
:1053000055FD10214DF22F6000F050FD03214DF2AC
:10531000306000F04BFD33214DF2316000F046FD6E
:1053200003214DF2326000F041FD6D214DF23360FA
:1053300000F03CFD55214FF4704000F037FDAA21EC
:105340004FF2010000F032FD52214FF2020000F056
:105350002DFD08214FF2030000F028FD00214FF23F
:10536000040000F023FDCC214FF4314000F01EFD7D
:1053700000214BF2011000F019FD05214FF43640D9
:1053800000F014FD70214FF4374000F00FFD702144
:105390004BF2017000F00AFD01214FF4384000F09B
:1053A00005FD03214BF6010000F000FD03214BF643
:1053B000020000F0FBFC03214BF6030000F0F6FCBA
:1053C00002214FF43C4000F0F1FC00214BF601407B
:1053D00000F0ECFC00214BF6024000F0E7FCD0218D
:1053E0004FF4494000F0E2FC02214CF6011000F0BD
:1053F000DDFC50214CF6021000F0D8FC50214CF698
:10540000031000F0D3FC50214CF6041000F0CEFC49
:1054100000214FF4545000F0C9FC55214FF468505E
:1054200000F0C4FC4FF4885000F0AAFC782003F090
:1054300041FB4FF4245000F0A3FCBDE07F4880887E
:1054400041F663118842F8D1E22000F099FC1D205A
:1054500000F08AFC022000F087FC042000F084FCAD
:10546000642003F027FBE02000F08AFC012000F01C
:105470007BFC0A2003F0E8FAE02000F081FC032026
:1054800000F072FC0C2003F0DFFA012000F078FC41
:105490000A2003F0D9FAE62000F072FC2F2000F079
:1054A00063FCFF2000F060FCFF2000F05DFCB020FA
:1054B00000F066FC202000F057FC002000F054FCB7
:1054C000032000F051FC40F21F3000F04DFC0120A1
:1054D00000F04AFC40F2DF1000F046FC002000F033
:1054E00043FCB42000F04CFC042000F03DFC40F2F2
:1054F0001F4000F039FC002000F036FC2E2000F0A8
:1055000033FC002000F030FC002000F02DFC0020D7
:1055100000F02AFC002000F027FCB62000F030FC50
:10552000022000F021FC4FF4037000F01DFC00206D
:1055300000F01AFC172000F017FC152000F014FCF6
:10554000002000F011FC002000F00EFCF02000F024
:1055500017FC032000F008FC292000F011FCD020EB
:1055600000F00EFC002000F0FFFBBE2000F008FC65
:10557000052000F0F9FBFE2000F0F6FB012000F012
:10558000F3FB002000F0F0FB002000F0EDFB00201A
:1055900000F0EAFBB82000F0F3FB032000F0E4FB8E
:1055A000012000F0E1FBBA2000F0EAFB012000F04E
:1055B000DBFB642000F05EF82048808849F241312E
:1055C000884211D01D48808845F2103188420BD0A6
:1055D0001A48808845F21051884205D017488088C3
:1055E00041F6631188421CD11548006820F00F0075
:1055F0004FF02041C1F81C010846D0F81C0120F4EE
:105600007060C1F81C010846D0F81C0140F0010090
:10561000C1F81C010846D0F81C0140F48070C1F8A4
:105620001C010020FDF7C6FB0120064908604FF66B
:10563000FF70FDF7A5FB13B000BD0000000E0020B9
:105640001C0100A08081214210B50246012000E02B
:1056500050430B1EA1F10104E1B2F9D110BD0000CD
:1056600008B5034800880090BDF8000008BD0000A0
:105670000008006C2DE9F0470446BE2000F080FBD6
:10568000052000F071FB204603F0D6FE07464FF0E0
:1056900066320C4B03F020FF054603F089FE1FFA2B
:1056A00080F9484600F060FB012000F05DFBFF2020
:1056B00000F05AFB002000F057FB002000F054FBE4
:1056C000BDE8F08766660440F0B505460024002773
:1056D00099488079012805D19748808841F663115F
:1056E000884208D194488079F0B99348808841F67F
:1056F0006311884218D1082D15D2DFE805F00406A1
:10570000080A0C0E101206250DE007250BE00425F3
:1057100009E0052507E0012505E0002503E0032554
:1057200001E0022500BF00BF8348808849F2413173
:10573000884211D08048808845F2103188420BD0D1
:105740007D48808845F21051884205D07A4880888B
:1057500041F6631188427DD1082D1CD2DFE805F0A7
:105760000406090C0F12151800BF14E044F0800461
:1057700011E044F040040EE044F0C0040BE044F0BB
:10578000200408E044F0600405E044F0A00402E0D6
:1057900044F0E00400BF00BF6748808845F2105124
:1057A000884202D14FF4585700E03627624880887B
:1057B00045F2103188420DD05F48808845F2105183
:1057C000884207D05C48808841F66311884201D046
:1057D00044F008042146384600F0E8FA564880882C
:1057E00041F6631188421DD004F0200068B1524890
:1057F000008851494988884214DA4F480688408811
:105800004D490880084646800CE04B4800884A49CC
:105810004988884206DD484806884088464908800D
:10582000084646804448808845F21051884254D149
:105830004149488900F0A4FA002000F095FA3E4959
:105840004989491C88B200F09BFA002000F08CFACC
:10585000394900E06FE04989891C88B200F090FA6C
:1058600035490988491EC1F30F2000F07DFA3249FD
:105870004989C91C88B200F083FA2F490978491E6A
:10588000C8B200F071FA2C49888900F079FA00203A
:1058900000F06AFA28498989491C88B200F070FA38
:1058A000002000F061FA24498989891C88B200F03F
:1058B00067FA21494988491EC1F30F2000F054FAC4
:1058C0001D498989C91C88B200F05AFA1A49897899
:1058D000491EC8B200F048FA2DE01749488900F087
:1058E0004FFA002000F040FA002000F03DFA124983
:1058F0000988491EC1F30F2000F036FA0E490978D5
:10590000491EC8B200F030FA0B49888900F038FA15
:10591000002000F029FA002000F026FA0649498804
:10592000491EC1F30F2000F01FFA03498978491E70
:10593000C8B200F019FAF0BD000E002010B5024602
:105940000C464B48808849F24131884205D048488E
:10595000808845F21031884214D14549488900F0C9
:105960000FFA101200F000FAD0B200F0FDF9404931
:10597000888900F005FA201200F0F6F9E0B200F094
:10598000F3F973E03A48808841F66311884247D1C1
:1059900037488079A8B936480088401E801A82B2FC
:1059A0003349488900F0ECF9002000F0DDF90020CF
:1059B00000F0DAF9101200F0D7F9D0B200F0D4F903
:1059C00016E02B49488900F0DBF9101200F0CCF901
:1059D000D0B200F0C9F926490988491EC1F30F2049
:1059E00000F0C2F922490978491EC8B200F0BCF99A
:1059F0001F49888900F0C4F9201200F0B5F9E0B21F
:105A000000F0B2F91A494988491EC1F30F2000F08D
:105A1000ABF917498978491EC8B200F0A5F925E00D
:105A20001348808845F2105188421FD11049488997
:105A300000F0A6F9101200F097F90D494989491CA8
:105A400088B200F09DF9D0B200F08EF9084988893B
:105A500000F096F9201200F087F905498989491C60
:105A600088B200F08DF9E0B200F07EF910BD0000C0
:105A7000000E00202DE9F84F80460F4616461C46C2
:105A8000BB462046E31704EB5373DB1021464FEA75
:105A9000E47C04EB5C7C4FEAEC0CA4EBCC0CBCF19A
:105AA000000F02D04FF0010C01E04FF0000C6344F6
:105AB000224604EBD27C4FEA6C0C03FB0CF3DBB206
:105AC0000093A6F12000C6B200255EE00C2C07D1A1
:105AD00006EB46002F4901EB800010F805901BE013
