:020000040800F2
:10000000A8040020450100081F1800085517000823
:100010001D18000871030008C71B0008000000003D
:1000200000000000000000000000000003190008AC
:1000300073030008000000004118000805190008BB
:100040005F0100085F0100085F0100085F01000810
:100050005F0100085F0100085F0100085F01000800
:100060005F0100085F0100085F0100085F010008F0
:100070005F0100085F0100085F0100085F010008E0
:100080005F0100085F0100085F0100085F010008D0
:100090005F0100085F0100085F0100085F010008C0
:1000A0005F0100085F0100085F0100085F010008B0
:1000B0005F0100085F0100085F0100085F010008A0
:1000C0005F0100085F0100085F0100085F01000890
:1000D0005F0100085F0100085F0100085F01000880
:1000E0005F0100085F0100085F0100085F01000870
:1000F0005F0100085F0100085F0100085F01000860
:100100005F0100085F0100085F0100085F0100084F
:100110005F0100085F0100085F0100085F0100083F
:100120005F0100085F0100085F0100085F0100082F
:10013000DFF80CD000F05AF800480047852000088E
:10014000A80400200648804706480047FEE7FEE76F
:10015000FEE7FEE7FEE7FEE7FEE7FEE7FEE7FEE777
:100160007D19000831010008202A04DB203A21FA19
:1001700002F00021704721FA02F3D040C2F12002C0
:1001800091400843194670472DE9F05F054600206D
:1001900092469B4688460646814640241BE02846F8
:1001A000414647462246FFF7DFFF53465A46C01AEC
:1001B000914110D311461846224600F029F82D1A15
:1001C00067EB01084F4622460120002100F020F88D
:1001D00017EB00094E41201EA4F10104DFDC484664
:1001E00031462A464346BDE8F09F0000064C074DC5
:1001F00006E0E06840F0010394E8070098471034F7
:10020000AC42F6D3FFF798FF98210008B821000808
:10021000202A04DB203A00FA02F1002070479140C6
:10022000C2F1200320FA03F3194390407047000005
:100230007CB5D4218DF80010FF218DF8011000222B
:100240008DF802200F4C8DF803008DF8041010215A
:10025000204600F08FF94FF47A752B460522694647
:10026000094800F095FF2B4601226946064800F038
:1002700099FE01221021204600F07CF99DF8000033
:100280007CBD00000008014010000020FEB50646BD
:100290009F201F4C8DF8000001221021204600F005
:1002A00069F9D7208DF808004FF47A7500221021E3
:1002B000204600F05FF92B46012202A9154800F004
:1002C00067FF2B46012201A9124800F06BFE0122B4
:1002D0001021204600F04EF99DF804000006E5D5F7
:1002E00000221021204600F045F92B4601226946E4
:1002F000084800F04DFF2B4604223146054800F027
:1003000051FE01221021204600F034F9FEBD00000C
:1003100000080140100000207CB5134E0D46044635
:1003200000221021304600F025F984208DF80000CD
:10033000FF208DF80100200A8DF802008DF803409F
:100340008DF8045000221021304600F013F94FF4CC
:100350007A7305226946054800F01AFF0122102130
:10036000304600F007F97CBD000801401000002075
:10037000FEE77047FEE731B500F002F9044600F0F1
:10038000FFF80099001B8842F9D338BD2DE9F84FDA
:10039000DFF8B8A100220AF1040B144601274FF040
:1003A0000F090BF1040E00BF0B6807FA04F52B4090
:1003B000AB4274D1DFF898C14E68A6EB0C086645D5
:1003C0002BD00DDC032E34D005DC36B3012E19D032
:1003D000022E2FD11BE0112E16D0122E2AD119E099
:1003E000B8F5881F19D006DCB8F5803F15D0B8F5F0
:1003F000801F1FD111E0B8F5001F0ED0B8F5041F03
:1004000018D10AE0CA6815E0CA68121D12E0CA686D
:1004100008320FE0CA680C320CE08A682AB1012A5F
:100420004FF0080203D0456104E0042202E00561B8
:1004300000E00022FF2B01D8064601E000F104068F
:100440004FEA840501D9A5F12005D6F800C009FAC4
:1004500005F82CEA080C02FA05F54CEA050CC6F87A
:1004600000C04D68ED006AD53A4DAE6946F0010610
:10047000AE61AD6924F0030605F001050095364D27
:1004800006EB050CDCF80850A6074FEA167809FAC7
:1004900008F6B543314EB04202D100261AE04EE0D4
:1004A0002F4EB04201D1012614E02E4EB04201D1B0
:1004B00002260FE02C4EB04201D103260AE02B4E5B
:1004C000B04201D1042605E0294EB04201D10526F3
:1004D00000E0062606FA08F62E43CCF808604D68C0
:1004E000DAF80060ED03554601D51E4300E09E4357
:1004F0002E604D68AD0305D5DBF800601E43CBF8D8
:10050000006004E0DBF800509D43CBF800504D68DC
:10051000DEF80060ED02754601D51E4300E09E4303
:100520002E604D68AD0205D5084D0C352E681E4372
:100530002E6004E0054E0C3635689D433560641C22
:10054000102CFFF431AFBDE8F88F0000000401402B
:10055000000011100010024000000140000801409E
:10056000000C01400010014000140140001801403F
:10057000001C01400AB1016170470904FBE700005B
:10058000014800687047000004000020024801682C
:10059000491C01607047000004000020074810B5A6
:1005A000016841F010010160032000F07BF8002099
:1005B00000F006F800F016F8002010BD0020024000
:1005C00010B5044600F044F94FF47A71B0FBF1F035
:1005D00000F0E7FF00222146501E00F043F8002003
:1005E00010BD00001D4808B5816941F0010181611D
:1005F000806900F001000090032000F053F8002211
:1006000011466FF00B0000F02DF8002211466FF03C
:100610000A0000F027F8002211466FF0090000F0F0
:1006200021F800221146501F00F01CF8002211464C
:10063000101F00F017F800221146901E00F012F86B
:1006400000221146501E00F00DF80548416821F0C7
:10065000E06141F08061416008BD0000001002408F
:1006600000000140F0B40E4B1B680C46C3F302239C
:10067000C3F10705042D00D90425191D072901D24E
:10068000002300E0DB1E012606FA05F1491E214089
:1006900099409E40761E16403143F0BC01F0C0B830
:1006A0000CED00E0064900F0070208684FF6FF0372
:1006B000184040EA0220034A1043086070470000D7
:1006C0000CED00E00000FA052DE9F047DFF870813D
:1006D00005460E46D8F8000000F00700B0420CD2E4
:1006E000D8F8001021F007013143C8F80010D8F8FD
:1006F000000000F00700B04277D12878514C800705
:1007000005D56068A96820F0F0000843606028788B
:10071000C00759D06968012001290DD0022929D0CC
:100720005FF0020393FAA3F2B2FA82F242F02002DF
:10073000520904D0226803E04FF40033F2E7626A02
:1007400093FAA3F3B3FA83F303F01F039840024232
:100750004BD0606820F0030008436060FFF710FF93
:100760006968074641F2883001290DD00229814687
:1007700017D025E04FF00073D4E700BFFFF700FF6C
:10078000C11B494501D918E081466068C0F381006A
:100790000128F3D118E000BFFFF7F2FEC11B494565
:1007A0000BD86068C0F381000228F5D10CE000BFCF
:1007B000FFF7E6FEC11B494502D90320BDE8F087DB
:1007C000606810F00C0FF3D1D8F80010404601F02B
:1007D0000701B1420BD9016821F0070131430160E3
:1007E000006800F00700B04201D00120E6E7287859
:1007F000400705D56068E96820F4E0600843606060
:100800002878000706D56068296920F4605040EA1E
:10081000C100606000F052F86168F02292FAA2F222
:1008200001F0F001B2FA82F2D140074A515CC840AF
:10083000064908600020FFF7C3FE0020BEE7000065
:10084000002002400010024080210008000000202B
:10085000014800687047000000000020084809496E
:10086000006849684FF4E06292FAA2F201F4E06194
:10087000B2FA82F2D140044A515CC840704700008D
:10088000000000200010024090210008084809499B
:10089000006849684FF4605292FAA2F201F4605184
:1008A000B2FA82F2D140044A515CC840704700005D
:1008B00000000020001002409021000810B519A38C
:1008C00085B00FCB8DE80F001AA01B4B0068049079
:1008D0005A681A4802F00C0104291DD008291BD1BE
:1008E0004FF4701494FAA4F402F47011B4FA84F47E
:1008F000E140D2031DF8011010D55A684FF40033BF
:1009000093FAA3F302F40032B3FA83F3DA4004ABB0
:100910009A5CB0FBF2F0484305B010BD084848436C
:10092000FAE7000002030405060708090A0B0C0D8C
:100930000E0F1010010200000010024000127A0099
:1009400000093D002DE9F84F04460078F74DC00737
:100950004FF0010625D068687704C0F381000128B4
:1009600007D06868C0F3810002281BD16868C00303
:1009700018D597FAA7F0B0FA80F040F020004009AF
:1009800001D0286800E0686A97FAA7F1B1FA81F10E
:1009900001F01F0106FA01F108425ED060680028EC
:1009A0007CD05AE06068B0F5803F0BD010B1B0F554
:1009B000A02F11D0286820F480302860286820F407
:1009C000802002E0286840F480302860606828B306
:1009D000FFF7D6FD80460BE0286840F480202860B1
:1009E000F0E700BFFFF7CCFDA0EB0800642871D84A
:1009F00097FAA7F0B0FA80F040F02000400901D04B
:100A0000286800E0686A97FAA7F1B1FA81F101F06D
:100A10001F0106FA01F10842E4D01EE0FFF7B0FD25
:100A2000804605E0FFF7ACFDA0EB08006428DED8A7
:100A300097FAA7F0B0FA80F040F02000400901D00A
:100A4000286800E0686A97FAA7F1B1FA81F101F02D
:100A50001F0106FA01F10842E4D12078DFF8D082C4
:100A600080074FF000094FF002075BD568684FF030
:100A7000F80B10F00C0F07D06868C0F38100022853
:100A80001CD16868C00319D497FAA7F0B0FA80F0B7
:100A900040F02000400902D0286801E08BE0686A3D
:100AA00097FAA7F1B1FA81F101F01F0106FA01F1FD
:100AB00008422CD0206901287DD128E0206990B31C
:100AC00096FAA6F0B0FA80F048F82060FFF758FDDB
:100AD000824607E011E100BFFFF752FDA0EB0A00DC
:100AE000022884D897FAA7F0B0FA80F040F02000EE
:100AF000400901D0286800E0686A97FAA7F1B1FAC6
:100B000081F101F01F0106FA01F10842E4D02868E2
:100B10009BFAABF26169B2FA82F220F0F8009140E0
:100B20000843286025E0FFE796FAA6F1B1FA81F1C3
:100B300048F82190FFF724FD824605E0FFF720FDED
:100B4000A0EB0A000228CCD897FAA7F0B0FA80F000
:100B500040F02000400901D0286800E0686A97FA58
:100B6000A7F1B1FA81F101F01F0106FA01F1084283
:100B7000E4D1207800076ED5A069B8B396FAA6F044
:100B8000B0FA80F008EB8000C0F88064FFF7F8FC52
:100B9000824605E0FFF7F4FCA0EB0A000228A0D88B
:100BA00097FAA7F0B0FA80F040F06000B6EB501F63
:100BB00002D128680CE062E197FAA7F0B0FA80F061
:100BC00040F06000B7EB501F01D1286A00E0686A6E
:100BD00097FAA7F1B1FA81F101F01F0106FA01F2CB
:100BE0001042D7D00120FFF7C6FB34E0FFE796FAAA
:100BF000A6F1B1FA81F108EB8101C1F88094FFF709
:100C0000BFFC824606E000BFFFF7BAFCA0EB0A007B
:100C1000022872D897FAA7F0B0FA80F040F060008E
:100C2000B6EB501F01D128680BE097FAA7F0B0FA95
:100C300080F040F06000B7EB501F01D1286A00E05F
:100C4000686A97FAA7F1B1FA81F101F01F0106FA7B
:100C500001F21042D8D12078400765D5E86940F00C
:100C60008050E861E869DFF8CCB000F08050009077
:100C7000DBF8001041F48071CBF80010FFF780FC26
:100C8000824605E0FFF77CFCA0EB0A00642834D81C
:100C9000DBF80000C005F5D5E06801280AD008B1EE
:100CA000052813D0286A20F001002862286A20F065
:100CB000040002E0286A40F001002862E06841F286
:100CC000883B90B3FFF75CFC82460BE0286A40F05B
:100CD00004002862EEE700BFFFF752FCA0EB0A0118
:100CE00059450AD897FAA7F0B0FA80F040F04000D2
:100CF000B6EB501F02D128680CE0A3E097FAA7F0EA
:100D0000B0FA80F040F04000B7EB501F01D1286AE4
:100D100000E0686A97FAA7F1B1FA81F101F01F02C9
:100D200006FA02F10842D7D031E005E00010024097
:100D30000000424200700040FFF722FC824605E0BE
:100D4000FFF71EFCA0EB0A0159457BD897FAA7F0E4
:100D5000B0FA80F040F04000B6EB501F01D1286897
:100D60000BE097FAA7F0B0FA80F040F04000B7EB44
:100D7000501F01D1286A00E0686A97FAA7F1B1FA1A
:100D800081F101F01F0206FA02F10842D8D1E069B0
:100D900080B36968C1F38101022970D04FF080717E
:100DA0004F000228484609D091FAA1F1B1FA81F129
:100DB00048F82100FFF7E4FB044669E08A4691FA0F
:100DC000A1F1B1FA81F1C14648F82100FFF7D8FB43
:100DD000804605E0FFF7D4FBA0EB0800022854D8BA
:100DE00097FAA7F0B0FA80F040F02000400902D056
:100DF000286801E061E0686A97FAA7F1B1FA81F129
:100E000001F01F0106FA01F10842E3D1206AB0F5B2
:100E1000803F05D16868A16820F40030084368600D
:100E2000D4E908010843696821F474110843686033
:100E30009AFAAAF0B0FA80F049F82060FFF7A0FB18
:100E4000044606E021E000BFFFF79AFB001B0228E2
:100E50001BD897FAA7F0B0FA80F040F020004009C4
:100E600001D0286800E0686A97FAA7F1B1FA81F129
:100E700001F01F0106FA01F10842E5D01DE01EE075
:100E8000FFF77EFB001B022802D90320BDE8F88F84
:100E900097FAA7F0B0FA80F040F02000400901D0A6
:100EA000286800E0686A97FAA7F1B1FA81F101F0C9
:100EB0001F0106FA01F10842E2D10020E6E7012015
:100EC000E4E7000010B5040003D094F8510010B11D
:100ED00004E0012010BD204600F038F8022084F81C
:100EE00051002068016821F040010160D4E901014E
:100EF0000843D4E903121143084361690843218B75
:100F000001F400710843E1690843216A0843A16ABA
:100F1000084321680860A069042101EA1040616A61
:100F20000843216848602168E06A08612068C16957
:100F300021F40061C161044900200870606501204E
:100F400084F85100002010BD0800002010B5006892
:100F5000114986B088421CD11048816941F4805102
:100F6000816180690E4C00F480500490A0200090B4
:100F7000022001900320039069462046FFF706FAFD
:100F800000214020CDE90001029169462046FFF78B
:100F9000FDF906B010BD0000003001400010024015
:100FA000000801402DE9F84F00259A460446ADF8A7
:100FB000005090F8510001287ED1E9B3E2B394F8D3
:100FC0005000012878D0012684F85060222084F84F
:100FD00051006565A163A287E287A564E564256386
:100FE000A586E586A0684FF40049484504D12068ED
:100FF000036823F480430360A06A4FF40057B842AB
:1010000009D12068036823F4005303602068036853
:1010100043F40053036060684FF48278404501D187
:10102000A06878B120680168490603D4016841F0DE
:1010300040010160E06800E001E0E8B131E001203A
:10104000BDE8F88F84F8505013460A462046CDF884
:1010500000A000F040F9F3E75346002201212046AA
:1010600000F000FC48BB2068C168A06B421CA26372
:101070000170E08F401EE087E08F0128ECD813E07C
:10108000534600220121204600F0ECFBA8B920685D
:10109000C068A16B0880A06B801CA063E08F401E1D
:1010A000E087E08F0128EBD8A06AB84207D120681A
:1010B000016841F4805101E068E007E001605346B7
:1010C00000220121204600F0CDFB08B10320B7E744
:1010D000E0680028206817D0C068A16B0880A06B6A
:1010E000801CA063E08F401EE087A06AB84217D141
:1010F000534600220121204600F0B4FB50B1606D40
:1011000040F002006065E1E7C168A06B421CA26389
:101110000170E7E72068C068ADF80000BDF8000086
:10112000606840450AD1A068484502D0B0F5806F9C
:1011300004D12068016821F04001016084F8516009
:10114000A06AB8420DD120688068C043C00608D4A8
:10115000204600F077FB012807D021686FF01000CF
:10116000886084F8505000206AE7606D40F002000B
:1011700060652068016821F4005101602068016801
:1011800041F40051016084F8505058E7022057E7BD
:101190002DE9F843044690F851009846012870D193
:1011A00039B332B394F8500001286AD0012684F88C
:1011B0005060122084F85100002565652163A286E5
:1011C000E286E564A564A563A587E587A06A770341
:1011D000B84209D12068016821F4005101602068FB
:1011E000016841F400510160A068B0F5004F03D0E0
:1011F00007E00120BDE8F8832068016841F48041E0
:10120000016020680168490603D4016841F040018B
:101210000160E0680028606804D0D8B1E08E012841
:1012200018D021E010B1E08E012808D1206B411CBC
:10123000216321680078C860E08E401EE0860004CB
:10124000000C1FD0434600220221204600F00AFB7A
:10125000A8B9EBE7206B21680088C860206B801C70
:101260002063E08E401EE0860004000C0AD0434656
:1012700000220221204600F0F5FA0028EAD00320DF
:10128000B8E726E0A06AB84204D12068016841F4BA
:1012900080510160434600220221204600F0E2FA1C
:1012A00030B9434601228021204600F0DBFA20B10C
:1012B000606D40F010006065E1E7A06818B9206833
:1012C000C1688068009084F8516084F85050002014
:1012D00090E702208EE72DE9F8430025DDF8208015
:1012E0000446ADF8005090F85100012803D094F85E
:1012F000510022287DD169B162B15BB194F85000F0
:10130000012876D0012684F8506094F85100012815
:1013100003D005E00120BDE8F883322084F85100B5
:101320006565A263A387E3872163A386E386A5643B
:10133000E564A06A4FF40057B84209D120680168FB
:1013400021F4005101602068016841F400510160FE
:1013500020680168490603D4016841F0400101603A
:10136000E0684FF48271B0F5006F606807D0002824
:1013700067D088426ED1E08E012862D06AE020B149
:1013800088420CD1E08E012809D1206B21680088A9
:10139000C860206B801C2063E08E401EE086E08EDB
:1013A00080B9A06AB84244D12068016841F48051F4
:1013B00001603EE02068C068A16B0880A06B801CC3
:1013C000A0639EE0434600220221204600F04AFA34
:1013D000002874D1206B21680088C860206B801CB5
:1013E0002063E08E401E0004000CE08609D1A06A54
:1013F00000E0C7E0B84204D12068016841F48051A0
:101400000160434600220121204600F02BFA00280B
:101410006FD12068C068A16B0880A06B801CA0639E
:10142000E08F401EE087E08E0028CBD16068002866
:101430006AD1434600220121204600F013FAF0BB96
:10144000B8E7206B411C216321680078C860E08EFA
:10145000401EE086E08E98B9A06AB84204D12068A8
:10146000016841F480510160434600220121204679
:1014700000F0F8F918BB2068C068A16B087040E064
:10148000434600220221204600F0ECF9B8B9206B57
:10149000411C216321680078C860E08E401E000472
:1014A000000CE08607D1A06AB84204D12068016828
:1014B00041F48051016000224346012100E018E020
:1014C000204600F0CFF9A0B92068C168A06B421C8B
:1014D000A2630170E08F401EE087E08E0028CFD12C
:1014E000606888B9434600220121204600F0BAF91D
:1014F00008B103200FE72068C168A06B421CA263FB
:101500000170E08F401EE087A06AB84210D14346C8
:1015100000220121204600F0A5F918B1606D40F0CD
:1015200002000FE02068C068ADF80000BDF80000C0
:10153000434601228021204600F094F920B1606DDD
:1015400040F010006065D4E784F85160A06AB842AA
:1015500014D120688168C943C9060FD4616D41F078
:1015600002016165016821F4005101602068016891
:1015700041F40051016084F85050CBE684F850509B
:101580000020C8E60220C6E64FF0E02104280869E2
:1015900003D020F004000861704740F00400FAE72F
:1015A000704710B5401EB0F1807F01D3012010BDFF
:1015B0004FF0E02460610F21601700F031F9002046
:1015C000A06107202061002010BD10B5FFF7E8FFE3
:1015D00010BD70B5040004D094F83900002510B196
:1015E00006E0012070BD84F83850204600F020F855
:1015F000022084F839002068C16821F40051C160DC
:10160000204600F0DFF92068016921F49041016172
:101610002068416921F02A0141612068C16841F4D4
:101620000051C160E563012084F83900002070BDDD
:1016300010B50068114986B088421DD110488169F3
:1016400041F48041816180690E4C00F48040049037
:101650004FF400700090022001900320039069462F
:101660002046FEF793FE00212015CDE900010291EE
:1016700069462046FEF78AFE06B010BD00380140DC
:1016800000100240000801402DE9F047044690F8A0
:10169000390099460D46012801D0222858D12DB392
:1016A00022B394F83800012852D0012684F838601B
:1016B0000027E76394F8390022281AD05FF012005F
:1016C00084F83900A284E2844FF48058E08C4B46C1
:1016D000401EE084A0684FF0000240454FF08001BA
:1016E000204613D100F026FA08BB04E00120BDE833
:1016F000F0873220E4E728882168C0F308004860BA
:10170000206908B16D1C08E0AD1C06E000F012FA7B
:1017100068B9216815F8010B4860E08C0028D5D124
:101720004B4600224021204600F004FA08B1032075
:10173000DDE794F83900322806D084F8396000BF1C
:1017400084F838700020D2E7222084F83900F7E7C7
:101750000220CCE7FEE700000E4810B5816986B094
:1017600041F00401816180690B4C00F00400049099
:10177000002210212046FEF7FDFE102000900120DF
:1017800001900220039069462046FEF7FFFD06B057
:1017900010BD00000010024000080140104810B5C4
:1017A0000E4901604FF48271416000210222816084
:1017B000C0E9031201224261520282612822C0E97B
:1017C0000721416281620A21C162FFF77BFB002889
:1017D00003D0BDE81040FEF7CDBD10BD0030014084
:1017E000100000200C4810B50A4901604FF4E131A7
:1017F0004160002181600C22C160C0E90412816156
:10180000C161FFF7E6FE002803D0BDE81040FEF7F7
:10181000B1BD10BD0038014068000020FEE77047F0
:101820000907090E002806DA00F00F0000F1E02099
:1018300080F8141D704700F1E02080F80014704714
:10184000704700000549097831B1006804498842B1
:1018500002D14069002800D0012070470800002014
:10186000003800402DE9F0471D4690460E460446DC
:10187000FEF786FE07465FEA08004FF000084FF4C7
:10188000005A4FF0010926D034E0681C23D025B15E
:10189000FEF776FEC01BA8421DD92068416821F0E2
:1018A000E00141602068016821F040010160A06A08
:1018B000504509D12068016821F400510160206879
:1018C000016841F40051016084F8519084F850801F
:1018D0000320BDE8F0872068806836EA0000D4D194
:1018E0000DE0681C06D0002DD7D0FEF749FEC01BC6
:1018F000A842D2D82068806836EA0000F1D00020E3
:10190000E7E7704710B5FEF741FEBDE81040FFF76E
:101910005CBE30B58FB001210804CDE90010002471
:10192000029402250491CDE907504FF4E01009908C
:101930006846FFF707F800B1FEE70F20CDE90A057A
:101940004FF48060CDE90C4002210AA80E94FEF706
:10195000BBFE00B1FEE7FEF77BFF4FF47A71B0FBF0
:10196000F1F0FFF71EFE0420FFF70EFE00221146E5
:10197000501EFEF777FE0FB030BD00000D48016825
:1019800041F00101016041680B4A1140416001686A
:101990000A4A11400160016821F480210160416818
:1019A00021F4FE0141604FF41F0181600449C0032E
:1019B00008607047001002400000FFF8FFFFF6FECD
:1019C00008ED00E02DE9F041044600680169E26895
:1019D00021F44051114301612169A0680843616904
:1019E00008432168CA6841F20C639A430243CA6003
:1019F00020684169A26921F44071114341614C4959
:101A000020686425322688423CD1FEF73FFF00EB78
:101A1000C00101EB001061688900B0FBF1F7FEF72F
:101A200035FF00EBC00101EB00106168B046890092
:101A3000B0FBF1F0B0FBF5F06FF01801484307EB95
:101A4000800106EB0110B0FBF5F000F0F006FEF7A8
:101A50001DFF00EBC00101EB001061688900B0FBC5
:101A6000F1F0B0FBF5F006EB0016FEF70FFF00EB10
:101A7000C00101EB001061688900B0FBF1F7FEF7CF
:101A800005FF3BE0FEF7EAFE00EBC00101EB0010B2
:101A900061688900B0FBF1F7FEF7E0FE00EBC001E2
:101AA00001EB00106168B0468900B0FBF1F0B0FBBB
:101AB000F5F06FF01801484307EB800106EB0110C9
:101AC000B0FBF5F000F0F006FEF7C8FE00EBC00139
:101AD00001EB001061688900B0FBF1F0B0FBF5F09C
:101AE00006EB0016FEF7BAFE00EBC00101EB00109A
:101AF00061688900B0FBF1F7FEF7B0FE00EBC001B2
:101B000001EB001061688900B0FBF1F0B0FBF5F06B
:101B10006FF01801484307EB800108EB0110B0FBA0
:101B2000F5F0216800F00F0030448860BDE8F081D6
:101B3000003801402DE9F0471D4690460E46044608
:101B4000FEF71EFD07465FEA08004FF000094FF060
:101B5000010808D030E0681C05D095B1FEF710FDF3
:101B6000C01BA8420DD82068006836EA0000F2D1F8
:101B700027E0681C20D025B1FEF702FDC01BA8425B
:101B80001AD92068C16821F08001C1602068C1684D
:101B900021F02001C1602068C16821F48071C1601A
:101BA0002068416921F00101416184F8398084F89D
:101BB00038900320BDE8F0872068006836EA00000E
:101BC000D7D00020F6E7FEE70FB4054B10B503A908
:101BD000044A029800F018F810BC5DF814FB0000ED
:101BE0006D2000080C00002002E008C8121F08C188
:101BF000002AFAD170477047002001E001C1121F8E
:101C0000002AFBD1704700002DE9FF4F8DB00F4631
:101C10000546002606E025280BD0DDE90F12904787
:101C20006D1C761C28780028F5D111B03046BDE82F
:101C3000F08F0024A246A1460122EC4900E00443B3
:101C400015F8013F203B02FA03F00842F7D128784B
:101C50002A2810D06FF02F022878A0F1300109292E
:101C600014D80AEB8A0102EB410144F0020400EBB4
:101C7000010A6D1CF0E701CF5FEA000A03D544F4C6
:101C80000054CAF1000A44F002046D1C28782E2882
:101C900017D115F8010F44F004042A280ED06FF074
:101CA0002F022878A0F1300109290AD809EB89010F
:101CB00002EB410100EB01096D1CF2E757F8049BB0
:101CC0006D1C28786C280FD006DC4C2817D06828AB
:101CD0000DD06A2814D104E0742810D07A280FD1CE
:101CE0000DE044F400140AE044F4801401E044F4EC
:101CF00040146978814202D104F580146D1C6D1C7A
:101D00002A786E2A1FD00CDC632A31D004DC002A2A
:101D10008BD0582A11D1A3E0642A68D0692A0CD14B
:101D200065E0732A2ED004DC6F2A73D0702A04D1A8
:101D30009BE0752A6FD0782A6ED01046DDE90F122D
:101D40009047761C50E1C4F30250022806D00328C5
:101D500009D0042801CF09D0066045E101CFF11771
:101D6000C0E9006140E101CF06803DE106703BE142
:101D700017F8040B8DF8000000208DF80100EB46E9
:101D8000012003E057F804BB4FF0FF3061074FF02C
:101D9000000102D40DE008F10101884649450FDA3F
:101DA0008045F8DB1BF808100029F4D108E008F1A1
:101DB000010188468142FADB1BF808100029F6D1A0
:101DC000DDE90F23AAEB08008146214600F036F931
:101DD000304400EB080604E0DDE90F121BF8010BAC
:101DE0009047B8F10108F7D221464846F7E00A21AA
:101DF000C4F302534FF0000B0891022B04D001CF23
:101E0000C117032B09D00AE0FF1D27F00707F7E8E9
:101E1000020108E032E01FE020E000B2C117042B0D
:101E200001D140B2C117031E71F1000307DA4FF070
:101E3000000CD0EB0C006CEB01012D2302E023051C
:101E400004D52B238DF82430012303E0E30701D0D0
:101E50002023F7E7984658E00A2110E010210EE011
:101E600010204FF0000B08900CE010214FF0000BF9
:101E700044F004044FF00809089103E008214FF0F2
:101E8000000B0891C4F30253022B04D001CF0021B0
:101E9000032B06D006E0FF1D27F00707F7E8020135
:101EA00003E080B2042B00D1C0B24FF0000823073A
:101EB0002BD5702A07D0DDF820C08CF0100C5CEA1E
:101EC0000B0C05D00EE040238DF82430012308E0F0
:101ED00050EA010306D030238DF824308DF82520F8
:101EE00002239846DDF820C08CF0080C5CEA0B0C4D
:101EF0000BD150EA010301D1630706D530238DF8D9
:101F000024304FF00108A9F10109582A04D038A261
:101F10000B9208AA0A920BE03AA2F9E75B46089AEC
:101F2000FEF732F90B9B9B5C0A9A521E0A921370C1
:101F300050EA0102F2D10A98ADEB000000F1200B4B
:101F4000600702D524F4803401E04FF00109D9453F
:101F500002DDA9EB0B0000E0002000EB0B01414487
:101F60000890AAEB010AE00306D4DDE90F2321461D
:101F7000504600F063F806444FF0000908E009A954
:101F800011F80900DDE90F12904709F10109761CEB
:101F9000C145F4DBE0030CD5DDE90F2321465046B3
:101FA00000F04CF8064404E0DDE90F1230209047C1
:101FB000761C0899481E08900029F5DC08E00A986C
:101FC0000A990078491C0A91DDE90F129047761CA6
:101FD000BBF10001ABF1010BF1DC21465046DDE91C
:101FE0000F2300F019F806446D1C1BE609280100B8
:101FF000303132333435363738396162636465667F
:102000000000000030313233343536373839414240
:1020100043444546000000002DE9F04104460025F8
:102020001E461746880404D405E039462020B047F0
:102030006D1C641EF9D52846BDE8F0812DE9F041FC
:10204000044600251E469046C80301D5302700E00F
:102050002027880404D505E041463846B0476D1C6A
:10206000641EF9D52846BDE8F081000013B54FF68F
:10207000FF73012269460248FFF706FB00981CBD6A
:102080006800002008B5FEF789FAFFF742FCFFF769
:1020900063FBFFF7A7FBFFF781FB1AA0FFF794FD97
:1020A0006846FEF7F3F81CA0FFF78EFD00246D468E
:1020B0001DA0295DFFF788FD641CE4B2042CF7D352
:1020C0001CA0FFF781FD1CA0FFF77EFD0024E1B2FC
:1020D000A0B2FEF721F921461FA0FFF775FD641C91
:1020E000FF2CF4DD1EA0FFF76FFD0024A0B2FEF769
:1020F0009FF8014618A0FFF767FD641CFF2CF5DD73
:10210000FEE700000D0A20535049204578616D70AC
:102110006C65200D0A0D0A0041543435444258586C
:10212000204944206973000020307825303258203F
:10213000000000000D0A00000D0A46414C534820E3
:1021400041543435444258582057726974652054BC
:102150006573743A200D0A002530325820000000C3
:102160000D0A46414C534820415434354442585896
:10217000205265616420546573743A200D0A000092
:102180000000000000000000010203040607080927
:102190000000000001020304B82100080000002034
:1021A00010000000E81B0008C821000810000020F3
:1021B00098040000F81B000800A24A040000000078
:0821C000000000000000000017
:0400000508000131BD
:00000001FF
