:020000040800F2
:10000000A00D002045010008C31800080D180008C5
:10001000C118000861020008072500080000000060
:100020000000000000000000000000004B2200085B
:100030006302000800000000E51800084D220008D7
:100040005F0100085F0100085F0100085F01000810
:100050005F0100085F0100085F0100085F01000800
:100060005F0100085F0100085F0100085F010008F0
:100070005F0100085F0100085F0100085F010008E0
:100080005F0100085F0100085F0100085F010008D0
:100090005F0100085F0100085F0100085F010008C0
:1000A0005F0100085F0100085F0100085F010008B0
:1000B0005F0100085F0100085F0100085F010008A0
:1000C0005F0100085F0100085F0100085F01000890
:1000D0005F0100085F0100085F0100085F01000880
:1000E0005F0100085F0100085F0100085F01000870
:1000F0005F0100085F0100085F0100085F01000860
:100100005F0100085F0100085F0100085F0100084F
:100110005F0100085F0100085F0100085F0100083F
:100120005F0100085F0100085F0100085F0100082F
:10013000DFF80CD000F038F800480047A13B000879
:10014000A00D00200648804706480047FEE7FEE76E
:10015000FEE7FEE7FEE7FEE7FEE7FEE7FEE7FEE777
:10016000BD22000831010008D2B201E000F8012BE5
:10017000491EFBD270470022F6E710B513460A4627
:1001800004461946FFF7F0FF204610BD10B50022C7
:1001900000E0521C835C8C5CA34201D1002BF8D19F
:1001A000D8B2E1B2401A10BD064C074D06E0E06837
:1001B00040F0010394E8070098471034AC42F6D3AE
:1001C000FFF7BAFF14420008344200080146014814
:1001D00000F038BEBC040020014800F026BE00003C
:1001E000BC04002038B501208DF800009DF8000007
:1001F000012801D0012038BD0749084800F07EFFE2
:10020000040006D14FF40061044801F0E5F800B1A4
:100210000124204638BD000020050020BC04002039
:100220001CB5DDE90414CDE900140146034800F0D3
:10023000F1FF002800D001201CBD0000BC040020FC
:100240001CB5DDE90414CDE900140146034801F0B2
:1002500003F9002800D001201CBD0000BC040020D0
:10026000FEE77047FEE70022AFF3008030B50E4B8B
:10027000054601205C7A012C15D8587A00241C54BC
:10028000587A03EB800045605D7A03F108002A5438
:10029000587A421C5A72303008703A2048702F2029
:1002A0008870CC70002030BD78050020002100F05F
:1002B00001B800000B4910B502464B7A0120002B13
:1002C0000FD01278303AD2B201EB82035C68002C76
:1002D00007D000200A4458601072487A401E4872C5
:1002E000002010BD7805002031B500F0FDF804466F
:1002F00000F0FAF80099001B8842F9D338BD0000DD
:100300002DE9F84FDFF8B8A100220AF1040B1446DA
:1003100001274FF00F090BF1040E00BF0B6807FA1D
:1003200004F52B40AB4274D1DFF898C14E68A6EBC0
:100330000C0866452BD00DDC032E34D005DC36B31B
:10034000012E19D0022E2FD11BE0112E16D0122E05
:100350002AD119E0B8F5881F19D006DCB8F5803F1E
:1003600015D0B8F5801F1FD111E0B8F5001F0ED0D1
:10037000B8F5041F18D10AE0CA6815E0CA68121D52
:1003800012E0CA6808320FE0CA680C320CE08A68D2
:100390002AB1012A4FF0080203D0456104E004228B
:1003A00002E0056100E00022FF2B01D8064601E0D3
:1003B00000F104064FEA840501D9A5F12005D6F81D
:1003C00000C009FA05F82CEA080C02FA05F54CEA17
:1003D000050CC6F800C04D68ED006AD53A4DAE690F
:1003E00046F00106AE61AD6924F0030605F0010593
:1003F0000095364D06EB050CDCF80850A6074FEAD1
:10040000167809FA08F6B543314EB04202D10026FB
:100410001AE04EE02F4EB04201D1012614E02E4EDC
:10042000B04201D102260FE02C4EB04201D103268A
:100430000AE02B4EB04201D1042605E0294EB0421D
:1004400001D1052600E0062606FA08F62E43CCF870
:1004500008604D68DAF80060ED03554601D51E438B
:1004600000E09E432E604D68AD0305D5DBF80060CB
:100470001E43CBF8006004E0DBF800509D43CBF84E
:1004800000504D68DEF80060ED02754601D51E4350
:1004900000E09E432E604D68AD0205D5084D0C3539
:1004A0002E681E432E6004E0054E0C3635689D43D1
:1004B0003560641C102CFFF431AFBDE8F88F0000EC
:1004C0000004014000001110001002400000014033
:1004D00000080140000C01400010014000140140E0
:1004E00000180140001C01400148006870470000EE
:1004F0000C00002002480168491C016070470000A0
:100500000C000020074810B5016841F0100101609F
:10051000032000F07BF8002000F006F800F016F849
:10052000002010BD0020024010B5044600F044F940
:100530004FF47A71B0FBF1F001F08FF80022214600
:10054000501E00F043F8002010BD00001D4808B503
:10055000816941F001018161806900F00100009032
:10056000032000F053F8002211466FF00B0000F05A
:100570002DF8002211466FF00A0000F027F8002243
:1005800011466FF0090000F021F800221146501FBB
:1005900000F01CF800221146101F00F017F800228E
:1005A0001146901E00F012F800221146501E00F075
:1005B0000DF80548416821F0E06141F0806141603B
:1005C00008BD00000010024000000140F0B40E4BD6
:1005D0001B680C46C3F30223C3F10705042D00D9A1
:1005E0000425191D072901D2002300E0DB1E012686
:1005F00006FA05F1491E214099409E40761E16409C
:100600003143F0BC01F05EB90CED00E0064900F0AA
:10061000070208684FF6FF03184040EA0220034A29
:1006200010430860704700000CED00E00000FA0580
:100630002DE9F047DFF8708105460E46D8F8000036
:1006400000F00700B0420CD2D8F8001021F00701EA
:100650003143C8F80010D8F8000000F00700B0429D
:1006600077D12878514C800705D56068A96820F0BB
:10067000F000084360602878C00759D069680120FD
:1006800001290DD0022929D05FF0020393FAA3F2C9
:10069000B2FA82F242F02002520904D0226803E04A
:1006A0004FF40033F2E7626A93FAA3F3B3FA83F3E9
:1006B00003F01F03984002424BD0606820F0030013
:1006C00008436060FFF710FF6968074641F2883011
:1006D00001290DD00229814617D025E04FF0007383
:1006E000D4E700BFFFF700FFC11B494501D918E05F
:1006F00081466068C0F381000128F3D118E000BF93
:10070000FFF7F2FEC11B49450BD86068C0F38100BA
:100710000228F5D10CE000BFFFF7E6FEC11B4945FA
:1007200002D90320BDE8F087606810F00C0FF3D108
:10073000D8F80010404601F00701B1420BD901681A
:1007400021F0070131430160006800F00700B0426A
:1007500001D00120E6E72878400705D56068E96800
:1007600020F4E060084360602878000706D56068E0
:10077000296920F4605040EAC100606000F052F83E
:100780006168F02292FAA2F201F0F001B2FA82F26C
:10079000D140074A515CC840064908600020FFF775
:1007A000C3FE0020BEE7000000200240001002400F
:1007B0003B41000808000020014800687047000025
:1007C0000800002008480949006849684FF4E062C1
:1007D00092FAA2F201F4E061B2FA82F2D140044A44
:1007E000515CC84070470000080000200010024023
:1007F0004B41000808480949006849684FF46052B5
:1008000092FAA2F201F46051B2FA82F2D140044AA3
:10081000515CC840704700000800002000100240F2
:100820004B41000810B519A385B00FCB8DE80F0020
:100830001AA01B4B006804905A681A4802F00C0179
:1008400004291DD008291BD14FF4701494FAA4F484
:1008500002F47011B4FA84F4E140D2031DF80110DF
:1008600010D55A684FF4003393FAA3F302F4003220
:10087000B3FA83F3DA4004AB9A5CB0FBF2F048437E
:1008800005B010BD08484843FAE70000020304051C
:10089000060708090A0B0C0D0E0F101001020000CC
:1008A0000010024000127A0000093D002DE9F84FC7
:1008B00004460078F74DC0074FF0010625D0686860
:1008C0007704C0F38100012807D06868C0F3810075
:1008D00002281BD16868C00318D597FAA7F0B0FAB0
:1008E00080F040F02000400901D0286800E0686AEC
:1008F00097FAA7F1B1FA81F101F01F0106FA01F1AF
:1009000008425ED0606800287CD05AE06068B0F58C
:10091000803F0BD010B1B0F5A02F11D0286820F483
:1009200080302860286820F4802002E0286840F4A5
:1009300080302860606828B3FFF7D6FD80460BE062
:10094000286840F480202860F0E700BFFFF7CCFD66
:10095000A0EB0800642871D897FAA7F0B0FA80F0ED
:1009600040F02000400901D0286800E0686A97FA4A
:10097000A7F1B1FA81F101F01F0106FA01F1084275
:10098000E4D01EE0FFF7B0FD804605E0FFF7ACFDC8
:10099000A0EB08006428DED897FAA7F0B0FA80F040
:1009A00040F02000400901D0286800E0686A97FA0A
:1009B000A7F1B1FA81F101F01F0106FA01F1084235
:1009C000E4D12078DFF8D08280074FF000094FF0A3
:1009D00002075BD568684FF0F80B10F00C0F07D0DA
:1009E0006868C0F3810002281CD16868C00319D46C
:1009F00097FAA7F0B0FA80F040F02000400902D04A
:100A0000286801E08BE0686A97FAA7F1B1FA81F1F2
:100A100001F01F0106FA01F108422CD020690128DB
:100A20007DD128E0206990B396FAA6F0B0FA80F064
:100A300048F82060FFF758FD824607E011E100BF4B
:100A4000FFF752FDA0EB0A00022884D897FAA7F01E
:100A5000B0FA80F040F02000400901D0286800E0A2
:100A6000686A97FAA7F1B1FA81F101F01F0106FA5D
:100A700001F10842E4D028689BFAABF26169B2FA4E
:100A800082F220F0F80091400843286025E0FFE75B
:100A900096FAA6F1B1FA81F148F82190FFF724FD0A
:100AA000824605E0FFF720FDA0EB0A000228CCD823
:100AB00097FAA7F0B0FA80F040F02000400901D08A
:100AC000286800E0686A97FAA7F1B1FA81F101F0AD
:100AD0001F0106FA01F10842E4D1207800076ED523
:100AE000A069B8B396FAA6F0B0FA80F008EB8000DF
:100AF000C0F88064FFF7F8FC824605E0FFF7F4FCDD
:100B0000A0EB0A000228A0D897FAA7F0B0FA80F06C
:100B100040F06000B6EB501F02D128680CE062E1A3
:100B200097FAA7F0B0FA80F040F06000B7EB501FE2
:100B300001D1286A00E0686A97FAA7F1B1FA81F159
:100B400001F01F0106FA01F21042D7D00120FFF791
:100B5000CBFB34E0FFE796FAA6F1B1FA81F108EB9E
:100B60008101C1F88094FFF7BFFC824606E000BF18
:100B7000FFF7BAFCA0EB0A00022872D897FAA7F098
:100B8000B0FA80F040F06000B6EB501F01D1286849
:100B90000BE097FAA7F0B0FA80F040F06000B7EBF6
:100BA000501F01D1286A00E0686A97FAA7F1B1FAEC
:100BB00081F101F01F0106FA01F21042D8D120782C
:100BC000400765D5E86940F08050E861E869DFF8E2
:100BD000CCB000F080500090DBF8001041F4807140
:100BE000CBF80010FFF780FC824605E0FFF77CFCA5
:100BF000A0EB0A00642834D8DBF80000C005F5D566
:100C0000E06801280AD008B1052813D0286A20F02E
:100C100001002862286A20F0040002E0286A40F0FF
:100C200001002862E06841F2883B90B3FFF75CFC6A
:100C300082460BE0286A40F004002862EEE700BF1D
:100C4000FFF752FCA0EB0A0159450AD897FAA7F022
:100C5000B0FA80F040F04000B6EB501F02D1286897
:100C60000CE0A3E097FAA7F0B0FA80F040F0400063
:100C7000B7EB501F01D1286A00E0686A97FAA7F124
:100C8000B1FA81F101F01F0206FA02F10842D7D051
:100C900031E005E0001002400000424200700040D8
:100CA000FFF722FC824605E0FFF71EFCA0EB0A01DD
:100CB00059457BD897FAA7F0B0FA80F040F0400091
:100CC000B6EB501F01D128680BE097FAA7F0B0FAF5
:100CD00080F040F04000B7EB501F01D1286A00E0DF
:100CE000686A97FAA7F1B1FA81F101F01F0206FADA
:100CF00002F10842D8D1E06980B36968C1F381018B
:100D0000022970D04FF080714F000228484609D068
:100D100091FAA1F1B1FA81F148F82100FFF7E4FB63
:100D2000044669E08A4691FAA1F1B1FA81F1C1461F
:100D300048F82100FFF7D8FB804605E0FFF7D4FB19
:100D4000A0EB0800022854D897FAA7F0B0FA80F078
:100D500040F02000400902D0286801E061E0686AA4
:100D600097FAA7F1B1FA81F101F01F0106FA01F13A
:100D70000842E3D1206AB0F5803F05D16868A168D8
:100D800020F4003008436860D4E90801084369682A
:100D900021F47411084368609AFAAAF0B0FA80F05E
:100DA00049F82060FFF7A0FB044606E021E000BF01
:100DB000FFF79AFB001B02281BD897FAA7F0B0FA9E
:100DC00080F040F02000400901D0286800E0686A07
:100DD00097FAA7F1B1FA81F101F01F0106FA01F1CA
:100DE0000842E5D01DE01EE0FFF77EFB001B022855
:100DF00002D90320BDE8F88F97FAA7F0B0FA80F087
:100E000040F02000400901D0286800E0686A97FAA5
:100E1000A7F1B1FA81F101F01F0106FA01F10842D0
:100E2000E2D10020E6E70120E4E710B500F01EFF64
:100E3000042803D0FF2803D0012010BD002010BDDE
:100E4000022010BD2DE9F04790F8202081F85620AF
:100E5000828CA1F85420826A0027120E93090B702D
:100E6000C2F383034B7002F003028A70826A120C91
:100E7000CA70028D120A0A7190F828204A71C26A5B
:100E80004FF6FF7A120E0AEA0212CA80C26ACB88B3
:100E9000C2F3074243EA1213CB8002F00F020A7238
:100EA000828DC2F30723DA094A72C3F380128A7271
:100EB000C3F34012CA72C3F300120A7300224A73CA
:100EC000046A4FF00109002C7DD0012CFCD0022CCB
:100ED0007AD02927C3F380144C769B065B0E01F869
:100EE0001A3F10F8303F0C7844EAD31401F8014B54
:100EF00003F07F0301F8013B50F8043F1B0EDC09AF
:100F00000C70C3F341144C70C3F382048C709B07C4
:100F10001B0FCB7008C8CC78C3F3074344EA931483
:100F2000CC70C3F340140C714A7103F001028A7152
:100F300030F8042CC2F30722D309CB71C2F380131B
:100F40000B72C2F340134B72C2F300138B72C2F3E5
:100F50008103CB7202F003020A7310F8042C5208CA
:100F60004A734B4681F80E9050F8082B120E0A7403
:100F700050F8082C120C0AEA02224A8230F8082C97
:100F8000C2F307244A8A22434A8210F8082C120628
:100F900041F8142F50F8042C0C68120E44EA024257
:100FA0000A6050F8042C0C68C2F3074244EA02229B
:100FB0000A6030F8042C0C68C2F30722144310C1F5
:100FC00010F8042C01E034E076E001F8012B02680F
:100FD000120E01F8032B0268120C12060A60028836
:100FE0000C68C2F3072244EA02420A6002780C68E5
:100FF00044EA02220A6042680C6844EA126410C1A2
:1010000042680C78C2F3074244EA121401F8024B1A
:101010001207120D0A808288C2F307240A8822432D
:1010200021F8022B0079400808704B703846BDE863
:10103000F0879B071B0D0B6190F82C300C6944EA7C
:1010400083030B61036B0C691B0E44EA93140C6160
:10105000C3F3C2040C7503F007034B75036BC3F3B2
:1010600007435C098C75C3F38204CC759B075B0F47
:101070000B76038E0C7EC3F3072344EAD3140C765D
:101080000C690E7EB61C09FA06F5641CA4FB056803
:101090004FEAE57C02FB058504FB0C5591F808C07E
:1010A00009FA0CF4A6FB04C80C6505FB048406FBD6
:1010B0000244C1E912C40DE790F82C309B069B0A4C
:1010C0000B61036B0C691B0E44EA03230B61036B7A
:1010D0000C69C3F307431C430C61038E0C69C3F313
:1010E0000723641C42F10005ED0445EA5435E4048D
:1010F000C1E912454FF400740C65EBE6F0B58FB012
:1011000000260F46054634468DF80C60182104A8C9
:10111000FFF731F8284600F051F80494C320CDE9D8
:1011200008400594069407940094CDE901402346B5
:1011300022462146286800F0F7FB284600F0DAFE38
:101140008DF80C009DF80C0038B9284600F0B3FD6E
:101150008DF80C009DF80C0018B19DF80C000FB034
:10116000F0BD39462846FFF76DFE8DF80C009DF85E
:101170000C00C0B9B7F85400142104040AA8FEF703
:10118000FAFF0720CDE90A404020CDE90C06000116
:101190000E900AA9286800F0E0FB0721284600F01D
:1011A000F1FB8DF80C0005F1100007C88DE8070071
:1011B00095E80F0000F0B8FBCFE7000030B50068FD
:1011C000104985B088421BD10F48416941F48061C4
:1011D00041614069022400F4806004904FF4F850AB
:1011E000CDE900040325694603950848FFF788F810
:1011F0000420CDE90004694603950548FFF780F80F
:1012000005B030BD008001400010024000100140D8
:10121000001401402DE9F04F8BB00D46DDE9147844
:1012200004461646994614216846FEF7A4FF182185
:1012300005A8FEF7A0FF21680020C862216A0229E4
:1012400003D10F02760A46EAC9561021CDE9007192
:101250004021824608010291CDE903A06946206839
:1012600000F07BFB1021204600F08CFB00286DD1A4
:101270004FF0FF3908FB07F0CDE9059090204FF0C3
:10128000020BCDE9070B0120CDE909A005A92068D3
:1012900000F029FBB8F1010F01D9122000E0112064
:1012A000CDE900606946206800F057FBB8F1010FF6
:1012B0001AD91221204600F065FB060046D140F203
:1012C0002A3A2068426B12EA0A0F28D1406B0004C8
:1012D000F7D50027206800F03DFB45F827007F1C6C
:1012E000082FF7D32035ECE71121204600F04AFB08
:1012F00006002BD140F22A6A2068416B11EA0A0FDE
:101300000DD1406B0004F7D50027206800F022FBC8
:1013100045F827007F1C082FF7D32035ECE7406BFA
:10132000C0050CD5B8F1010F09D9206A18B1012800
:1013300001D0022803D1204600F034F80646216887
:10134000486B000705D50820886304200BB0BDE872
:10135000F08F486B800703D55846C1F838B0F5E7E1
:10136000486B800603D5202088630620EEE7486B93
:10137000800504D54FF4007088630720E6E74F46E8
:1013800004E000BF00F0E6FA01C57F1E2068416B53
:10139000890201D5002FF5D1216840F2FF50886302
:1013A0003046D3E710B586B0044614216846FEF7F0
:1013B000E2FE00200C21CDE900014021CDE9021020
:1013C000080104906946206800F0C7FA0C21204605
:1013D00000F0D8FA06B010BD70B58AB00E460546CA
:1013E000182103A8FEF7C7FE286A032811D038B1D8
:1013F000012805D0022803D029240AB0204670BD58
:10140000B6F5805F05D0B6F5006F04D03EB1262456
:10141000F3E72724F1E7284600F070FE02E02846B3
:1014200000F02EFE0400E8D168680390A8680490DC
:10143000E868CDE9050668690790A8690890DDE9C4
:1014400007120096CDE901120DF10C0C28689CE8FA
:101450000E0000F069FAD0E72DE9F04F93B00D4689
:10146000DDE91C98044617469A4614210AA8FEF79F
:1014700082FE182104A8FEF77EFE00268DF8446047
:1014800021683046CE62216A022904D17F0A4FF4D6
:10149000007947EACA571021CDE90A9140218346D5
:1014A00008010C91CDE90DB00AA9206800F055FAA9
:1014B0001021204600F066FA00286FD1B8F1010F24
:1014C00001D9192000E01820CDE90A700AA9206886
:1014D00000F043FAB8F1010F01D9192100E01821F9
:1014E000204600F04FFA002858D1411E049108FB15
:1014F00009FA9020CDE905A00120CDE908B0CDF88A
:101500001CB004A9206800F0EEF9B8F1010F52D91F
:1015100040F21A3B2068416B11EA0B0F52D1406B2D
:101520004004F7D5AAEB0600202811D281074FEA24
:10153000900000D0401C8146002706E02946206824
:1015400000F01BFA2D1D361D7F1C4F45E2D2F5E73A
:101550005FF0000705EB8701206800F00EFA7F1CA2
:10156000082FF7D320352036D4E7406B400424D52C
:10157000AAEB0600202812D281074FEA900000D083
:10158000401C8146002706E02946206800F0F5F956
:101590002D1D361D7F1C4F450FD2F5E728E0002793
:1015A00005EB8701206800F0E8F97F1C082FF7D3CE
:1015B0002035203601E040F21A6B2068416B11EAB9
:1015C0000B0FD2D0406BC0050BD5B8F1010F08D975
:1015D000206A18B1012801D0022802D12046FFF765
:1015E000E1FE2168486B000705D5082088630420C8
:1015F00013B0BDE8F08F486B800702D502208863E6
:10160000F6E7486BC00603D5102088630520EFE796
:10161000486B800504D54FF4007088630720E7E726
:1016200040F2FF50886311A9204600F0C1FB00285A
:10163000DED19DF844100729F5D00629F3D0D7E76D
:101640004FF0E0210428086903D020F0040008616D
:10165000704740F00400FAE7704710B5401EB0F143
:10166000807F01D3012010BD4FF0E02460610F2185
:10167000601700F027F90020A061072020610020FA
:1016800010BD10B5FFF7E8FF10BD70B5040004D021
:1016900094F83900002510B106E0012070BD84F8EF
:1016A0003850204600F020F8022084F839002068E5
:1016B000C16821F40051C160204600F023FE20687B
:1016C000016921F4904101612068416921F02A01FA
:1016D00041612068C16841F40051C160E5630120A7
:1016E00084F83900002070BD10B50068114986B03B
:1016F00088421DD11048816941F48041816180692F
:101700000E4C00F4804004904FF4007000900220D2
:1017100001900320039069462046FEF7F1FD002169
:101720002015CDE90001029169462046FEF7E8FD4B
:1017300006B010BD00380140001002400008014012
:101740002DE9F047044690F8390099460D460128E6
:1017500001D0222858D12DB322B394F838000128A3
:1017600052D0012684F838600027E76394F83900E6
:1017700022281AD05FF0120084F83900A284E28493
:101780004FF48058E08C4B46401EE084A0684FF038
:10179000000240454FF08001204613D100F06AFE60
:1017A00008BB04E00120BDE8F0873220E4E7288888
:1017B0002168C0F308004860206908B16D1C08E08A
:1017C000AD1C06E000F056FE68B9216815F8010B63
:1017D0004860E08C0028D5D14B46002240212046AD
:1017E00000F048FE08B10320DDE794F83900322804
:1017F00006D084F8396000BF84F838700020D2E742
:10180000222084F83900F7E70220CCE7FEE7000049
:1018100010B504490448FEF726FD0249491E087028
:1018200010BD000001000020544100080D4808B51B
:10183000816941F010018161816901F0100100911D
:10184000816941F004018161816901F00401009125
:10185000816941F020018161806900F020000090E1
:1018600008BD000000100240064805490160002143
:1018700041608160C1600161416102218161704705
:1018800000800140BC0400200C4810B50A490160EA
:101890004FF4E1314160002181600C22C160C0E958
:1018A00004128161C161FFF7F0FE002803D0BDE89A
:1018B0001040FEF7D7BC10BD003801407C0400206A
:1018C000FEE770470907090E002806DA00F00F004E
:1018D00000F1E02080F8141D704700F1E02080F84E
:1018E0000014704770470A6842624A688262D1E910
:1018F00002231A43D1E904310B43C16A1A4321F090
:10190000F7010A43C262002070470069C0B2704705
:10191000006800F00300704708B5024808440090D2
:10192000006808BD1480014070B50DF1100C114322
:101930009CE870002343194329434268314347F62A
:10194000FF639A4311434160002070BD0321016091
:1019500000207047D0F8800070470A688260D1E9A3
:1019600001231A43D1E903310B43C1681A436FF3D2
:101970000B010A43C260002070470968C0F880105C
:101980000020704770B5044600680E460025416B84
:1019900011F0450FFBD0416B490703D50321042209
:1019A000826304E0416BC90703D0012181630846CB
:1019B00070BDFFF7AAFFB0422CD1216840F2FF5062
:1019C000886300212068FFF7A7FF284908424BD011
:1019D000002801DA1C2070BD410001D5092070BD2E
:1019E000810001D50A2070BDC10001D50B2070BD5A
:1019F000010101D50C2070BD410101D50D2070BD44
:101A0000C10101D50E2070BD010201D50F2070BDAE
:101A1000410201D5102070BD810201D5112070BD99
:101A2000C10201D5122070BD010301D5132070BD84
:101A3000410301D5142070BD810301D5152070BD6F
:101A4000C10301D5162070BD010401D5172070BD5A
:101A5000410401D5182070BD810401D5192070BD45
:101A6000000701D51A2070BD284670BD08E0FFFDB3
:101A70000146002009684A6B12F0450FFBD04A6B03
:101A8000520702D50320042207E04A6BD20702D096
:101A900001208863704740F2FF528A6370472DE946
:101AA000F0410446006815460E460027416B11F0D0
:101AB000450FFBD0416B490703D503210422826304
:101AC00004E0416BC90704D0012181630846BDE8E9
:101AD000F081FFF71AFFB04213D1216840F2FF50A6
:101AE000886300212068FFF717FF10F4604F03D0D0
:101AF000810404D51320EAE7000C288007E04104A4
:101B000001D51020E3E7000401D50F20DFE73846B8
:101B1000DDE70146292009684FF480324B6B13F052
:101B2000450F07D14B6BA2F1010213F0450F01D114
:101B3000002AF7D14B6BC3F3800302B113B103202A
:101B4000042204E04A6B520602D5002040228A6338
:101B500070472DE9F04F91B00F46044614216846B6
:101B6000FEF709FB182108A8FEF705FB00250695DE
:101B700008261021CDE9006140210795CDE9021525
:101B800008010490A84669462068FFF7E6FE102188
:101B90002046FFF7F7FE002844D1A08C69460004D8
:101BA0000090372001902068FFF7D7FE37212046AC
:101BB000FFF7E8FE002835D1401ECDE908063020A9
:101BC0004FF00209CDE90A090120CDE90C80B246A7
:101BD000464608A92068FFF786FE3320CDE900605D
:101BE00069462068FFF7B9FE33212046FFF7CAFE99
:101BF000060017D10DF1180B40F22A682068416BDE
:101C000011EA080F08D1416B8902F7D5FFF7A2FE50
:101C10004BF825006D1CF1E7416B090705D5C0F8AD
:101C200038A0042011B0BDE8F08F416B890703D5BF
:101C3000C0F838904846F5E7416B890603D5202166
:101C400081630620EEE7416B890504D54FF40071EE
:101C500081630720E6E740F2FF518163069800BAEE
:101C60007860079800BA38603046DBE730B585B059
:101C70000446002514216846FEF77DFAA08C6946CB
:101C8000000400900D2001904020CDE902050001E4
:101C900004902068FFF761FE0D212046FFF772FED9
:101CA00010B1FF2005B030BD00212068FFF734FEE1
:101CB000C0F34320F6E770B586B0044614216846A9
:101CC000FEF759FA0120ADF8140000252068FFF74F
:101CD0001FFE80B3206A042868D000200221C0269D
:101CE0008DE8430003904802049069462068FFF79E
:101CF00034FE2046FFF7BCFE05001ED100212068FF
:101D0000FFF70AFEA06304212068FFF705FEE063E9
:101D100008212068FFF700FE20640C212068FFF7EF
:101D2000FBFD6064206A50B1012808D0062806D067
:101D3000022804D012E0FFE7252006B070BD032082
:101D400001904020029069462068FFF706FE05AA30
:101D500003212046FFF7A3FE0500EED1206A0428E8
:101D600024D0BDF814006062000400900920CDE981
:101D7000010669462068FFF7F0FD2046FFF778FE70
:101D80000500DAD100212068FFF7C6FDA06204211A
:101D90002068FFF7C1FDE06208212068FFF7BCFD65
:101DA00020630C212068FFF7B7FD60632846C4E775
:101DB00070B586B00D460446142101A8FEF7DBF984
:101DC00000260096A18C090401910D210291402169
:101DD000CDE903160801059001A92068FFF7BDFDB4
:101DE0002068416B11F0450FFBD0416B490703D5CB
:101DF00003210422826304E0416BC90704D001215E
:101E00008163084606B070BDFFF77FFD0D2839D10C
:101E1000216840F2FF50886300212068FFF77CFDB5
:101E20000090C0F3432028703149009808425DD0EB
:101E30000098002801DA1C20E4E7400001D50920C1
:101E4000E0E70098800001D50A20DBE70098C00099
:101E500001D50B20D6E70098000101D50C20D1E771
:101E60000098400101D50D20CCE70098C00101D5B4
:101E70000E20C7E70098000201D50F20C2E70098A6
:101E8000400201D51020BDE70098800201D5112045
:101E9000B8E70098C00201D51220B3E7009800030C
:101EA00001D51320AEE70098400301D51420A9E71F
:101EB0000098800301D51520A4E70098C00301D540
:101EC00016209FE70098000401D517209AE7009894
:101ED000400401D5182095E70098800401D5192009
:101EE00090E70098000701D51A208BE7304689E774
:101EF00008E0FFFD2DE9F04F87B00446142101A84A
:101F0000FEF739F900258DF800502068A846A9464B
:101F1000416821F4807141602068FFF717FD0120BE
:101F2000FEF7E2F92068416841F4807141604FF4A6
:101F3000806ACDE9045A01950295039501A92068AC
:101F4000FFF70BFD236800214FF480305A6BC2F37A
:101F5000C01204E05A6B401EC2F3C0120DD0002A1A
:101F6000F8D050B140F2FF50C3F838008DF800109F
:101F70009DF8000000287CD101E00321F6E74FF432
:101F8000D570019008204026CDE9020601A92068FD
:101F9000FFF7E3FC2046FFF7BCFD8DF800009DF83D
:101FA000000018B901204FF0804920623727CDE9A1
:101FB000015701A92068FFF7D0FC37212046FFF721
:101FC000E1FC8DF800009DF80000E8B351E000BF8F
:101FD000CDE9015B0597CDE9036501A92068FFF70D
:101FE000BCFC37212046FFF7CDFC8DF800009DF8A2
:101FF000000050BB2149CDE9045749EA0100019096
:102000002920CDE9020601A92068FFF7A6FC206877
:102010000021426B12F0450FFBD0426B520702D5F4
:102020000321042201E040F2FF5282638DF8001088
:102030009DF8000048B900212068FFF76DFCC10F32
:1020400008F1010805D008E000E012E0BB46574661
:10205000BEE74FF6FF718845BAD34FF6FF72904541
:1020600003D31B208DF8000003E0400001D50220BF
:1020700020629DF8000007B0BDE8F08F00001080DE
:1020800030B589B00446142103A8FEF774F8002582
:102090000195029529462068FFF73EFC800102D594
:1020A0000E2009B030BD01A92046FFF752FD0028DF
:1020B000F7D10298C0031FD5A08C03A90004039098
:1020C000372004904020CDE90505000107902068E5
:1020D000FFF743FC37212046FFF754FC0028E0D1EE
:1020E0000620CDE9035003A92068FFF736FC06213E
:1020F0002046FFF747FCD4E72520D2E730B589B06A
:102100000446142103A8FEF736F800250195029530
:1021100029462068FFF700FC800102D50E2009B097
:1021200030BD01A92046FFF714FD0028F7D1029821
:10213000400320D5A08C03A900040390372004900D
:102140004020CDE90505000107902068FFF705FC58
:1021500037212046FFF716FC0028E0D1022003902B
:102160000620049003A92068FFF7F7FB062120460C
:10217000FFF708FCD3E72520D1E7000010B5064C97
:1021800001202070FEF72EF818B9207820F0010009
:102190002070207810BD00001000002010B51446FB
:1021A000114A96B001201278D20702D0032016B04F
:1021B00010BDA1B1012907D04FF4007202290DD042
:1021C00003290ED00420F2E76846FDF7FFFFDDE9A2
:1021D0001201400A40EAC150206000E02280002045
:1021E000E5E72260E3E70000100000201CB5084688
:1021F0004FF40071CDE90013002452022346FEF78C
:102200000FF800B1012420461CBD000010B5064C9B
:1022100001202070FDF7E0FF18B9207820F00100C0
:102220002070207810BD0000100000201CB508466A
:102230004FF40071CDE90013002452022346FDF74C
:10224000FFFF00B1012420461CBD704710B5FEF70A
:1022500051F9BDE81040FFF714BA30B58FB0012036
:10226000022504900095102005900024CDE9075424
:1022700068460994FEF71AFB00B1FEE70F20CDE98E
:102280000A054FF48060CDE90C4000210AA80E94A5
:10229000FEF7CEF900B1FEE7FEF78EFA4FF47A7141
:1022A000B0FBF1F0FFF7D9F90420FFF7C9F90022DC
:1022B0001146501EFEF78AF90FB030BD0D48016877
:1022C00041F00101016041680B4A11404160016821
:1022D0000A4A11400160016821F4802101604168CF
:1022E00021F4FE0141604FF41F0181600449C003E5
:1022F00008607047001002400000FFF8FFFFF6FE84
:1023000008ED00E02DE9F041044600680169E2684B
:1023100021F44051114301612169A06808436169BA
:1023200008432168CA6841F20C639A430243CA60B9
:1023300020684169A26921F44071114341614C490F
:1023400020686425322688423CD1FEF753FA00EB20
:10235000C00101EB001061688900B0FBF1F7FEF7E6
:1023600049FA00EBC00101EB00106168B04689003A
:10237000B0FBF1F0B0FBF5F06FF01801484307EB4C
:10238000800106EB0110B0FBF5F000F0F006FEF75F
:1023900031FA00EBC00101EB001061688900B0FB6D
:1023A000F1F0B0FBF5F006EB0016FEF723FA00EBB8
:1023B000C00101EB001061688900B0FBF1F7FEF786
:1023C00019FA3BE0FEF7FEF900EBC00101EB00104B
:1023D00061688900B0FBF1F7FEF7F4F900EBC0018A
:1023E00001EB00106168B0468900B0FBF1F0B0FB72
:1023F000F5F06FF01801484307EB800106EB011080
:10240000B0FBF5F000F0F006FEF7DCF900EBC001E0
:1024100001EB001061688900B0FBF1F0B0FBF5F052
:1024200006EB0016FEF7CEF900EBC00101EB001041
:1024300061688900B0FBF1F7FEF7C4F900EBC00159
:1024400001EB001061688900B0FBF1F0B0FBF5F022
:102450006FF01801484307EB800108EB0110B0FB57
:10246000F5F0216800F00F0030448860BDE8F0818D
:10247000003801402DE9F0471D4690460E460446BF
:10248000FEF732F807465FEA08004FF000094FF008
:10249000010808D030E0681C05D095B1FEF724F89B
:1024A000C01BA8420DD82068006836EA0000F2D1AF
:1024B00027E0681C20D025B1FEF716F8C01BA84203
:1024C0001AD92068C16821F08001C1602068C16804
:1024D00021F02001C1602068C16821F48071C160D1
:1024E0002068416921F00101416184F8398084F854
:1024F00038900320BDE8F0872068006836EA0000C5
:10250000D7D00020F6E7FEE7014A024900F013B8F1
:10251000D13900081C00002002E008C8121F08C1C1
:10252000002AFAD170477047002001E001C1121F54
:10253000002AFBD170472DE9F04116460F460446AC
:10254000002503E03946B047641C6D1C2078002844
:10255000F8D12846BDE8F08110B50446002084F883
:102560000402401EC4F82C02204601F069FC08B1A8
:10257000032010BDB4F8FE01A0F52A41553901D061
:10258000022010BD94F83600B4F8371040EA01215B
:102590000848B0EB012F08D094F85210B4F853203B
:1025A00041EA0221B0EB012F01D1002010BD012032
:1025B00010BD000000464154F0B50022184B1446EF
:1025C00002EB420653F8265085B1D0F80072BD42A6
:1025D0000DD103EB8605D0F808626F68B74206D1CB
:1025E0002D89B0F80662B54204D000E00124521CE7
:1025F000022AE5D3022A01D079B904E05CB90229A4
:1026000009D01220F0BD02EB420003EB80004089AC
:10261000B0F5807F01D00020F0BD1020F0BD00009B
:102620008405002030B50021064A0C4601EB410329
:1026300052F82350854201D142F82340491C022917
:10264000F4D330BD84050020D0F82422D0F8000255
:10265000490A90F80202B1FBF0F0121D02CA19B14A
:10266000884203D3401AF8E70020704711680844F5
:102670007047D0F81422891E921E8A4201D8002089
:102680007047D0F8282290F8020201FB0020704722
:102690002DE9F0410F00054606D001F0A5F902280A
:1026A0000BD20120BDE8F081D5F80C621EB1D5F83F
:1026B0001402B04208D8012606E0411CF2D0D5F839
:1026C00014128142EED83E463446D5F81402641CFA
:1026D000A04202D80224022E0AD32146284601F045
:1026E00083F938B1411CDDD00128DBD0B442ECD1F4
:1026F0000020D7E76FF070422146284601F0BBFB6F
:1027000030B957B122463946284601F0B4FB20B112
:10271000012812D001242046C4E7C5F80C42D5F8A0
:102720001002411CF7D0401EC5F8100295F80502B2
:1027300040F0010085F80502EDE74FF0FF34EAE7CD
:102740002DE9F04789460C6800E0641C21782F29A8
:10275000FBD05C29F9D0D0F818520B222021284652
:1027600001F067FB002001460B460826E25C5B1C7B
:10277000202A35D92F2A33D05C2A31D02E2A01D0F5
:10278000B04208D3082E38D12E2A36D108200B2685
:102790008906090EEAE7802A05D3244F41F0030198
:1027A0003A4412F8802C22A700E07F1C97F800C062
:1027B000BCF1000F02D09445F7D11EE0A2F1410711
:1027C000192F02D841F0020107E0A2F16107192F89
:1027D00003D8203A41F00101D2B22A54401CC5E787
:1027E0001C44C9F80040202A01D8042200E000223D
:1027F00018B12878E52803D004E00620BDE8F0876A
:1028000005202870082E01D18806010E01F0030072
:10281000012801D142F01002C1F38100012801D149
:1028200042F00802EA720020E8E700006841000870
:10283000222A2B2C3A3B3C3D3E3F5B5D7C7F0000D7
:10284000401E022815D20C4B00EB400203EB820124
:102850004889B0F5807F05D008B1401E80B248811C
:1028600010B104E00020FAE7002043F82200002025
:102870007047022070470000840500202DE9F041D8
:10288000B0F806620446761C30040F46000C37D0C0
:10289000D4F8100298B3310773D1401CC4F8100269
:1028A000D4F80C12D4F8000231B190F80222521E72
:1028B00012EA161F05D064E0B0F80802B0421FD932
:1028C0005FE001F091F8054601281ED9681C3AD056
:1028D000D4F80002D0F81412A94249D87FB1D4F834
:1028E0000C12FFF7D5FE05000DD0012D0DD0681C90
:1028F00029D0D4F8000201F0D4FB20BB07E0FFE7A9
:102900000420BDE8F0810720FBE70220F9E74FF43F
:1029100000720021D4F8000201F08BFA2946D4F8A5
:102920000002FFF7A6FED4F8001200274FF00108BE
:10293000C1F82C0211E000BF80F80482D4F8000234
:1029400001F0AFFB08B10120DBE7D4F80002D0F8BA
:102950002C12491C7F1CC0F82C12D4F8000290F8ED
:102960000212B942E8D8D0F82C12C91BC0F82C12B8
:10297000C4F80C522946D4F80002FFF77AFEC4F8D6
:102980001002A4F80662D4F8000206F00F0100EB72
:102990004110C4F814020020B3E770B504460021CA
:1029A00000F036F810E0D4F81012D4F8000201F06C
:1029B00047FA58B9D4F814020078E52809D040B194
:1029C00001212046FFF75AFF0028ECD0042809D047
:1029D00009E0D4F81012D4F8000201F031FA050031
:1029E00003D013E00720054610E0D4F8140220229B
:1029F000002104F5007401F01CFAD4E905010B2252
:102A000001F00EFA2168012081F80402284670BD09
:102A100070B5A0F80612D0F808320D460446012B16
:102A200040D0D4F80002D0F8141299423AD933B900
:102A300090F80012032906D1D0F824321BB190F887
:102A40000202060114E0B0F80812A9422AD9D0F80F
:102A5000240214E000F0C8FF0346401C20D0022BE3
:102A600020D3D4F80002D0F8140298421AD9AD1B32
:102A7000D4F80002B5421946ECD2FFF7FAFDC4F8CB
:102A80000C3278B100EB1510C4F81002D4F8000233
:102A900005F00F0100EB4110C4F81402002070BDD6
:102AA000012070BD022070BD084910B50B5C0022EA
:102AB00053B901220A540A1801EB8000127A4068C7
:102AC0000168104688470246104610BD7805002070
:102AD00030B4054C231804EB80001B7A406804696D
:102AE0001846A44630BC60477805002030B4054D38
:102AF0002C1805EB8000247A406885682046AC4697
:102B000030BC604778050020044A111802EB8000B1
:102B1000097A40684268084610470000780500209E
:102B200030B4054D2C1805EB8000247A4068C56848
:102B30002046AC4630BC60477805002010B50446FE
:102B400000F072FC00280DD1204601F0DAFA0028CE
:102B500008D1D4F82802FFF773FE002802D1002123
:102B6000C4F8001210BD00002DE9F74F8EB01546D5
:102B70000F98012803D9132011B0BDE8F08F0EA8DB
:102B800000F095FF002801DA0B20F5E7FE4951F827
:102B9000204054B1002184F80012C0B20390FFF726
:102BA00083FFC10703D00320E6E70C20E4E74007DA
:102BB00001D50A20E0E708AA01210398FFF788FF62
:102BC00000287DD1089980297AD30F9808B1002078
:102BD00000E03F208046A1EB0801681E05420891F5
:102BE00000D17DB94FF4FA60B1FBF0F20020E74B61
:102BF00000E0401C33F810509542FAD8E34A1632F0
:102C000032F81050B5F5007F00D36D0A85B1802DE4
:102C100000D98025B1FBF5F0012640F6F67290420E
:102C200000D302264FF6F672904203D3032620E02B
:102C30000125EFE7032E1CD0012E23D04000001DFC
:102C400000F2FF10470A4FF001092020834608EBED
:102C5000090A0AEB0700584442190090A2EB080049
:102C6000884247D809AA03210398FFF731FFA0B98A
:102C70000EE040F2072202EB8000470A4FF02009E5
:102C80000020E3E700EB4000401C4008C01CD7E7F1
:102C9000099810B1B0F5004F01D9012009900999A8
:102CA00000980844401E491E88430099401A099024
:102CB000032E12D007440898A0EB0901CA1B00E0BC
:102CC000DDE0A2EB0B01B1FBF5F10D91022E07D077
:102CD000032E0AD0012E15D019E081448244EAE780
:102CE00040F6F672914205D311E008464FF6F671B0
:102CF000884201D20E203FE70C2002900F9868B165
:102D0000F02045E0B0F5803F06D20120F5E7B0F5B0
:102D1000803F01D20420F0E70620EEE74FF4007276
:102D20000021204601F085F804F5DF700121417093
:102D300081700021C170029A0271FE224271089BCB
:102D400008EB030243F6C163B2FBF3F23F2343EA0D
:102D5000920C099280F806C0C271037241728172AE
:102D6000C172089901730A0A42730A0C8273090E30
:102D7000C173552084F8FE01AA2084F8FF010123C5
:102D8000002221460398FFF7CBFE002877D1F820D8
:102D900002904FF400720021204601F04AF80B2205
:102DA0007BA1204601F03CF80021E1720220207353
:102DB000657384F80E904FEA1920E07301202074A7
:102DC000032E0BD040026074000AA0740898B0F57E
:102DD000803F05D2E074000A20750CE00020F2E785
:102DE00084F82000020A84F82120020C84F82220B2
:102DF000000E84F82300029860753F2020760020A2
:102E000060764FF0FF0984F81A90E07684F81C8011
:102E10004FEA182060774FEA1840A0774FEA186011
:102E2000E07700F042FE802129220990032E27D06E
:102E300084F82700030A84F82830030C84F829302A
:102E4000000E84F82A00A775380AE07584F824106B
:102E500084F82620132251A104F12B0000F0E0FF9A
:102E6000552084F8FE01AA2084F8FF010123424680
:102E700021460398FFF754FE002800D133E0BDE05F
:102E800084F84300030A84F84430030C84F8453086
:102E9000000E84F8460084F82470380A84F825006F
:102EA000380C84F82600380E84F82700022084F8B5
:102EB0002C00002084F82D0084F82E0084F82F00C8
:102EC000012384F8303084F83100062384F832304E
:102ED00084F8330084F8401084F84220132234A18F
:102EE00004F14700BAE7032E06D1012308F10602D8
:102EF00021460398FFF714FE4FF40072002120468C
:102F000000F097FF02990991032E12D0012E0ED0E6
:102F10006FF0FF000843099020700998000A607064
:102F20000998000CA0700998000EE0701EE025487A
:102F3000F0E761F0FF00099020700998000A6070C6
:102F40000998000CA0700998000EE07084F80490B5
:102F500084F8059084F8069084F8079084F8089027
:102F600084F8099084F80A900F20E07252460AF122
:102F70000109012321460398FFF7D2FDF0BB4FF46E
:102F80000072002120461FE018000020E8410008E0
:102F9000EBFE904D53444F53352E30004E4F204E94
:102FA000414D452020202046415420202020200053
:102FB0004E4F204E414D4520202020464154333273
:102FC0002020200000FFFF0000F033FF01200AE076
:102FD0004A4609F10109012321460398FFF7A0FDA4
:102FE00060B90998401C0990B842F1D3032E00D073
:102FF0005D464A4609F10109012300E042E021460D
:103000000398FFF78DFDE8BB6D1EF2D1032E3CD176
:103010005220207060706120A0704121E170722206
:1030200084F8E42184F8E52184F8E61184F8E701C6
:103030000D980123401E84F8E801010A84F8E91183
:10304000010C84F8EA11000E84F8EB01022084F8E8
:10305000EC01002084F8ED0184F8EE0184F8EF0122
:10306000552084F8FE01AA2084F8FF0108F101022E
:1030700021460398FFF754FD012308F1070221467A
:10308000039800E009E0FFF74BFD0022114603988A
:10309000FFF71EFD00283FF478AD01206CE500002D
:1030A0002DE9F74181B0904602980090684600F003
:1030B000FEFC040003D50B2004B0BDE8F0810E4EE9
:1030C000002756F8245025B12846FFF7ABFA85F8BB
:1030D00000720198002801D080F8007246F82400A0
:1030E00002D0B8F1010F01D00020E5E7002202A9CB
:1030F00001A800F0E1FADFE7180000202DE9F7470A
:10310000ADF50B7D06000ED04FF0000802F01F0752
:1031100027F001028CA980A8C6F8008200F0CCFA42
:10312000040005D0B4E009200DF50E7DBDE8F08760
:1031300088A8869068468C9900F0EAFB859D04007B
:103140000BD11DB1780803D0012102E0062404E070
:1031500000216846FFF730FA044617F01C0F5FD0D5
:103160004FF0010AD4B1042C13D100204A4902E0E7
:10317000401C022805D200EB400251F82220002A10
:10318000F6D1022804D06846FFF707FC044600E0A9
:103190001224859D47F0080754B179E0E87A10F0D1
:1031A000110F01D0072473E0780701D508246FE0E0
:1031B000380743D500F079FCA873010AE973010CC4
:1031C0002974000E687485F80B8085F81C8085F8DA
:1031D0001D8085F81E8085F81F802946809800F0A4
:1031E000D5FC81460021284600F0F8FE8099B9F10F
:1031F000000F81F804A21FD080984946D0F82CA275
:1032000000F0B5FE040043D18099A9F10100C1F896
:103210000C025146809800F013FE04000AD037E0FB
:10322000B4BBE87AC10601D5042431E0B90701D561
:10323000C007B7D1380701D547F020078098D0F8EC
:103240002C02C6E98705780801D0012100E00021A1
:10325000684600F04BFCC6F82802D8B186F8067222
:1032600086F807824746294606F50076809800F0E2
:103270008DFC3061287FD5F81D1040EA0120C6E999
:103280000270B761776280983060B0F80602B08053
:10329000204649E70224FBE7840500202DE9F84F8A
:1032A00088460021994615460446196000F029FF1A
:1032B000002812D194F8070200280ED194F80602D3
:1032C000C00709D0D4E98201081A01274FF0020A89
:1032D000854200D90546A2E00720BDE8F88F00BF6F
:1032E000D4F80812C8057CD1D4F8000290F8022264
:1032F000521E02EA512212F0FF0614D131B1D4F865
:10330000242232B12046FFF79FF906E0D4F81002DC
:1033100003E0D4F8141200F067FB022823D3411C09
:103320005BD0C4F81402D4F81412D4F80002FFF7EA
:10333000A0F9C0B130440090680A5FEA000B2AD0BF
:10334000D4F8001206EB0B0291F80202824201D976
:10335000A0EB060B91F801025B464146009AFFF78D
:10336000C5FBD0BB03E084F807A20220B5E794F8C0
:10337000060240060CD5D4F818120098081A5845D1
:1033800006D208EB40204FF40072214600F048FDC1
:103390004FEA4B2637E0D4F818220098824221D019
:1033A00094F8060240060ED5D4F800020123214607
:1033B00090F80102FFF7B4FB78B994F8060220F008
:1033C000400084F80602D4F800020123214690F858
:1033D0000102009AFFF78AFB20B184F807720120EE
:1033E0007BE702E00098C4F81802B4F80802C0F3C2
:1033F0000800C0F50076AE4200D92E4601193246CB
:10340000404600F00DFDD4F80802B0443044C4F842
:103410000802D9F800008119AD1BC9F80010002D71
:103420007FF45EAF002058E770B5044600F069FEF7
:10343000002811D194F806128A060DD5480612D537
:10344000D4F800020123214690F80102D4F8182292
:10345000FFF766FB08B1012070BD94F8060220F06A
:10346000400084F80602D4F81C12D4F8000200F0E0
:10347000E7FC0028F0D1D4F82052E87A40F0200090
:10348000E87294F80C022877B4F80C02000A687706
:10349000D4F80C02000CA877D4F80C02000EE877E0
:1034A000D4F81012284604F5007400F097FD00F0DF
:1034B000FCFAA875010AE975010C2976000E6876F8
:1034C0000020A874E874A07920F02000A071216881
:1034D000012081F804022068BDE8704000F086BD3C
:1034E0002DE9F84F88460021994615460446196093
:1034F00000F007FE002808D194F80702002804D144
:1035000094F80602800702D40720BDE8F88FD4F8AB
:103510000802012741194FF0020A81427BD3B9E02A
:10352000D4F80812C80577D1D4F8002292F8020224
:10353000401E00EA512010F0FF061ED131B1D4F830
:10354000240240B12046FFF77FF809E0D4F81002CA
:1035500040B9002101E0D4F814121046FFF798F8A2
:10356000002858D001283DD0411C6CD0C4F814026A
:10357000D4F8101209B9C4F8100294F806024006F3
:1035800010D5D4F800020123214690F80102D4F8A6
:103590001822FFF7C5FAE8BB94F8060220F04000B5
:1035A00084F80602D4F81412D4F80002FFF761F888
:1035B000C0B130440090680A5FEA000B30D0D4F804
:1035C000000206EB0B0290F802128A4201D9A1EB2D
:1035D000060B90F801025B464146009AFFF7A0FAFD
:1035E000C0B903E084F807A202208EE7D4F81812CD
:1035F0000098081A58450CD208EB40214FF400728D
:10360000204600F00DFC94F8060220F0400084F8FB
:10361000060202E017E040E01CE04FEA4B262DE0F6
:10362000D4F818120098814211D0D4E9820188425E
:103630000DD2D4F800020123214690F80102009A2D
:10364000FFF754FA18B184F8077201205DE700987B
:10365000C4F81802B4F80802C0F30800C0F50076F8
:10366000AE4200D92E4620443246414600F0D8FBF7
:1036700094F8060240F0400084F80602D4F80802EC
:10368000B0443044C4F80802D9F800008119AD1BD9
:10369000C9F80010002D7FF443AFD4E982018842BD
:1036A00001D9C4F80C0294F8060240F0200084F816
:1036B0000602002029E700002DE9FF474FF000092E
:1036C0000746C0F800901646084600F0F0F90500DD
:1036D00003D50B2004B0BDE8F0878A4850F8254098
:1036E000A4B13C6094F8000228B194F80102FFF7FD
:1036F0000BFAC1070CD084F80092E8B284F80102FA
:10370000FFF7D2F9C10708D00320E3E70C20E1E777
:103710000EB1400704D40020DCE71EB1400701D5FC
:103720000A20D7E7002529462046FEF715FF012885
:1037300023D100204FEA0D0704EB001191F8C221BC
:1037400001F5DF712AB10A7AD1F8091042EA0121A4
:1037500000E0002147F82010401C0428ECD300268C
:1037600057F826502DB129462046FEF7F5FE08B938
:1037700009E00220761C042EF2D3032801D0E0BB1E
:1037800001E00120A6E7B4F80B00B0F5007F60D19E
:10379000E28A2AB994F82400D4F8251040EA0122DC
:1037A000C4F81822217C84F80312012901D00229CF
:1037B0004FD1607B514384F80202F0B1431E18429E
:1037C00047D1B4F81130A4F808321E0741D1B4F83B
:1037D00013602EB994F82060D4F8217046EA0726C9
:1037E000B4F80EC0BCF1000F33D00CEB010707EBAF
:1037F0001317BE422DD3F61B00E02AE0B6FBF0F013
:1038000038B3012640F6F678404500D302264FF63D
:10381000F678404500D30326801C2F44C4F8287254
:10382000AC44C4F81402C4E9875C032E13D083B1FE
:103830006144C4F82412022E19D000F0010100EBFB
:10384000400001EB500000BF00F2FF10B2EB502F20
:103850000FD20D203EE7002BFBD194F82C10D4F8AA
:103860002D30800041EA0321C4F82412ECE7400027
:10387000EAE74FF0FF30C4F81002C4F80C028020D1
:1038800084F80502032E30D1208E01282DD1204648
:10389000691C00F0D5FA40BB84F80592B4F8FE012B
:1038A000A0F52A41553920D12078D4F8011040EAFA
:1038B00001201549884218D194F8E401D4F8E511A3
:1038C00040EA0120114988420FD194F8E801D4F868
:1038D000E91140EA0120C4F8100294F8EC01D4F890
:1038E000ED1140EA0120C4F80C02064984F8006298
:1038F000091F0888401C0880A4F806022046FEF72D
:1039000091FE08E718000020525261417272416135
:1039100073B50446019908782F2801D05C2801D19D
:10392000491C01910025C4F808520198007820280C
:1039300006D200212046FFF76BF8C4F814527CBD74
:1039400001A92046FEF7FCFE0028F8D10021204600
:10395000FFF75EF820BB00BFD4F81012D4F80002C5
:1039600000F06EFAE0B9D4F814120A7832B1CA7ACB
:1039700012070FD40A23D4F8182203E004200FE022
:103980005B1E06D311F8015B12F8016BAD1BF7D07B
:1039900000E02DB100212046FEF770FF0028DBD0AB
:1039A000D4F81812C97A28B10428C8D14907C6D456
:1039B00005207CBD4907FCD4D4F81412C87AC0068F
:1039C000F6D5D4F8000200F0E1F8C4F80802B7E731
:1039D00013B54FF6FF73012269460248FDF7B0FEAA
:1039E00000981CBD7C0400202DE9F0410D460446E2
:1039F00002290DD3D4F81402A84209D994F8000280
:103A00004FF0FF36012807D002282AD0032836D0ED
:103A100001263046BDE8F081D4F8200205EB5507B9
:103A200000EB5721204600F00BFA0028F1D1C7F334
:103A300008007F1C14F80080D4F8200200EB572106
:103A4000204600F0FDF90028E3D1C7F30800215C0F
:103A500048EA0120E90701D00609DAE7C0F30B06BE
:103A6000D7E7D4F8200200EB1521204600F0E8F952
:103A70000028CED1E8B204EB40000688C9E7D4F8AC
:103A8000200200EBD511204600F0DAF90028C0D161
:103A900040F2FF1000EA850020440178D0F80100D0
:103AA00041EA002020F07046B3E70020704710B5CF
:103AB00004464FF0FF302268002A13D0114600E080
:103AC000491C0B78212B0ED33A2BF9D112F8013B6C
:103AD000303B0A2B06D28A4204D1002B02D1491C6A
:103AE0001846216010BD002010BD0000F0B503464F
:103AF000254AD3F80042002000EB400552F825602B
:103B0000A6420BD102EB8505D3F808626F68B74275
:103B100004D12D89B3F80662B54202D0401C0228B8
:103B2000EAD302281AD1002002E0401C022805D264
:103B300000EB400552F82550002DF6D1022815D093
:103B400000EB400542F8254002EB8504D3F80862FB
:103B50006660B3F80632238100236381002900EBFD
:103B6000400102EB8101498902D019B10020F0BD6A
:103B7000491C01E04FF4807100EB400302EB83022B
:103B8000401C5181F0BD0000840500200246488B96
:103B900092F80022032A02D1898A40EA0140704744
:103BA000C2B0FCF7AFFCFEF758FBFDF73FFEFDF798
:103BB0006BFEFDF759FEFDF72BFE3048007800281C
:103BC00058D12FA0FEF7A0FC002238493848FFF753
:103BD00067FA18B137A0FEF797FCFEE700221146FE
:103BE0003248FEF7C1FF18B142A0FEF78DFCFEE798
:103BF00044A0FEF789FC0A224BA14E48FFF77EFA4B
:103C000018B14DA0FEF780FCFEE740AB0D225549F0
:103C10004848FFF765FC409901B118B152A0FEF782
:103C200073FCFEE75AA0FEF76FFC4248FEF786FFE2
:103C300001223DA13F48FFF761FA18B15CA0FEF7F1
:103C400063FCFEE741AB0D2269463A48FFF726FBCD
:103C5000044644496846FCF799FA50EA040103D047
:103C60005EA0FEF751FCFEE766A0FEF74DFC314872
:103C7000FEF764FF0D48FCF719FBFEE7000000208B
:103C80000D0A537563636573733A204C696E6B203C
:103C9000746865205344206469736B20492F4F205A
:103CA0006472697665720D0A000000000100002050
:103CB000200000200D0A4572726F723A205265672B
:103CC0006973746572207468652066696C65207319
:103CD000797374656D206F626A65637420746F20F8
:103CE000746865204661744673206D6F64756C65F9
:103CF0000D0A00000D0A466F726D617420457272E4
:103D00006F722E000D0A537563636573733A2066F4
:103D10006F726D6174207468652053442063617212
:103D2000642E0D0A0000000048656C6C6F2E7478DC
:103D300074000000500200200D0A2748656C6C6F6B
:103D40002E747874272066696C65204F70656E202C
:103D5000666F72207772697465204572726F720D9A
:103D60000A0000002E4100080D0A2748656C6C6FA0
:103D70002E747874272066696C65205772697465A3
:103D8000206F7220454F46204572726F720D0A00F7
:103D90000D0A537563636573733A206F70656E2FF8
:103DA000777269746520612066696C652E0D0A0062
:103DB0000D0A2748656C6C6F2E747874272066692D
:103DC0006C65204F70656E20666F7220726561644D
:103DD000204572726F720D0A000000000D0A27481C
:103DE000656C6C6F2E747874272066696C65205240
:103DF000656164206F7220454F46204572726F7274
:103E00000D0A00000D0A537563636573733A2072DF
:103E1000656164207468652066696C652E0D0A0012
:103E200004E000BF11F8013B00F8013B521EF9D23B
:103E30007047C9B201E000F8011B521EFBD2704767
:103E400070B50546D0F82C020C460026A04210D0D2
:103E5000284600F026F906000BD195F8010201234F
:103E600022462946FEF742FE08B1741E0126C5F817
:103E70002C42304670BD2DE9F04717460D460446EA
:103E8000022903D3D4F81402A84202D80220BDE8C4
:103E9000F08794F8001207F0FF084FF0010901299C
:103EA00020D0022950D00329F0D1D4F8200200EB11
:103EB000D5112046FFF7C4FF0028E8D140F2FF11DA
:103EC00001EA85010A194FF07043D2F8011003EAA4
:103ED0000121394311700B0A53700B0C9370090EBA
:103EE000D17041E0D4F8200205EB550600EB5621D5
:103EF0002046FFF7A5FF0028C9D1C6F30800761CAD
:103F00002044E90703D0017868F31F1100E0394627
:103F1000017084F80492D4F8200200EB5621204668
:103F2000FFF78EFF0028B2D1C6F308012144EA074B
:103F300002D0C7F3071205E00A78C7F3032302F0A3
:103F4000F0021A430A700FE0D4F8200200EB1521AA
:103F50002046FFF775FF002899D1E9B204EB410133
:103F60003A0A81F800804A7084F804928FE72DE9BC
:103F7000F0410F460646022917D3D6F81402B8427C
:103F800013D9002523E039463046FFF72DFD040004
:103F900021D0012C09D0601C09D0002239463046BE
:103FA000FFF769FF050016D103E0022513E00125A4
:103FB00011E0D6F81002411C08D0401CC6F81002CF
:103FC00096F8050240F0010086F805022746D6F86B
:103FD0001402B842D7D82846BDE8F08181760A0A93
:103FE000C2760A0C0275090E4175704770B5044619
:103FF00000F057F8050052D194F80002032846D18A
:1040000094F80502012842D1420200212046FFF720
:1040100010FF552084F8FE01AA2084F8FF015220E9
:10402000207060706120A0704121E170722284F8DC
:10403000E42184F8E52184F8E61184F8E701D4F856
:10404000100284F8E801010A84F8E911010C84F8EF
:10405000EA11000E84F8EB01D4F80C0284F8EC01AC
:10406000010A84F8ED11010C84F8EE11000E84F8B9
:10407000EF01D4F81C220123521CC4F82C2294F81E
:1040800001022146FEF74CFD002084F805020022C3
:1040900094F801021146FEF71BFD00B101252846E8
:1040A00070BD2DE9F041044690F80402002728B3C2
:1040B000D4F82C5294F8010201232A462146FEF737
:1040C0002FFD08B1012719E0002084F80402D4F87C
:1040D0002002D4F81812281A88420FD294F80362EA
:1040E0000AE0D4F818020123054494F801022A4694
:1040F0002146FEF715FD761E022EF2D23846BDE8A7
:10410000F08110B588B1D0F8001271B191F8002299
:104110005AB1B1F80622B0F80402824205D191F8F2
:104120000102FEF7F1FCC00700D0092010BD486570
:104130006C6C6F20576F726C6421000000000000EF
:104140000000000102030406070809000000000146
:10415000020304007D2100080D220008ED21000863
:104160002D2200089D210008808182838485868716
:1041700088898A8B8C8D8E8F909192939495969747
:104180009899AD9B8C9DAE9FA021A2A3A4A5A6A7A4
:10419000A8A9AAABACADAEAFB0B1B2B3B4B5B6B727
:1041A000B8B9BABBBCBDBEBFC0C1C2C3C4C5C6C717
:1041B000C8C9CACBCCCDCECFD0D1D2D3D4D5D6D707
:1041C000D8D9DADBDCDDDEDFC0C1C2C3C4C5C6C7F7
:1041D000C8C9CACBCCCDCECFD0D1D2D3D4D5D6F7C7
:1041E000D8D9DADBDCDDDE9F0004000200018000AC
:1041F00040002000100008000400020000000080C1
:1042000000400020001000080040002000100008BE
:1042100000040002344200080000002020000000DA
:10422000182500085442000820000020800D0000DE
:1042300028250008000000000000000000A24A0439
:10424000000000000100000000000000000000006D
:04425000000000006A
:0400000508000131BD
:00000001FF
