:020000040800F2
:10000000900900202D020008934E0008EB21000803
:10001000914E0008E50700080153000800000000A9
:10002000000000000000000000000000B74E0008C3
:100030001D08000800000000B54E0008FD4E000835
:10004000470200084702000847020008470200086C
:10005000470200084702000847020008470200085C
:10006000470200084702000847020008470200084C
:10007000470200084702000847020008470200083C
:10008000470200084702000847020008470200082C
:10009000470200084702000847020008470200081C
:1000A000470200084702000847020008470200080C
:1000B0004702000847020008494F000847020008AD
:1000C00047020008470200084702000847020008EC
:1000D00047020008D55200084702000847020008FE
:1000E00047020008470200084702000847020008CC
:1000F00047020008470200084702000847020008BC
:1001000047020008470200084702000847020008AB
:10011000470200084702000847020008470200089B
:10012000470200084702000847020008470200088B
:1001300000F002F800F06BF80AA090E8000C82448E
:100140008344AAF10107DA4501D100F060F8AFF26B
:10015000090EBAE80F0013F0010F18BFFB1A43F0A5
:1001600001031847D4B20000F4B200000A444FF073
:10017000000C10F8013B13F0070408BF10F8014B06
:100180001D1108BF10F8015B641E05D010F8016B4B
:10019000641E01F8016BF9D113F0080F1EBF10F8AF
:1001A000014BAD1C0C1B09D16D1E58BF01F801CBD2
:1001B000FAD505E014F8016B01F8016B6D1EF9D555
:1001C0009142D6D37047000000230024002500266A
:1001D000103A28BF78C1FBD8520728BF30C148BFAA
:1001E0000B607047642900F09F80752900F09C80A7
:1001F000782900F0D580632900F02982732900F066
:100200002E82002070471FB51FBD10B510BD00F035
:1002100059FA1146FFF7F7FF05F0BAF800F077FA40
:1002200003B4FFF7F2FF03BC05F072F809488047FA
:1002300009480047FEE7FEE7FEE7FEE7FEE7FEE7C8
:10024000FEE7FEE7FEE7FEE704480549054A064BE0
:1002500070470000014F00083101000890030020A2
:1002600090090020900500209005002070470000B4
:100270000FB4044910B503AA029800F0F5F910BCB8
:100280005DF814FB1000002070B504468569006815
:10029000C10601D5302600E02026C00707D070BD7A
:1002A000D4E9012130469047206A401C20626D1E2F
:1002B000F6D570BD70B5044685690078C00707D1D2
:1002C00070BDD4E9012120209047206A401C2062A3
:1002D0006D1EF6D570BD70B50C460546012A05D0D9
:1002E0002878800600D5EA69002302E0012305E0B2
:1002F0005B1C934202D2E05C0028F9D1A869E618A1
:10030000C01AA861286A184428622846FFF7BCFF73
:1003100004E0D5E9012114F8010B9047B442F8D369
:100320002846FFF7C7FF70BD2DE9F04106460024BF
:1003300010687529314616A510D0AFF3008000284B
:1003400002DA404213A507E031688A0701D512A5F9
:1003500002E0490704D511A5012401E0AFF30080B4
:1003600000210A2206F1240709E0B0FBF2FCB0FBF1
:10037000F2F302FB1C00303078541846491C002868
:10038000F3D123462A463046BDE8F04100F0FCB8E0
:10039000000000002D0000002B00000020000000E5
:1003A00070B504460D4621461068AFF300802188E1
:1003B000090502D50F4A7A4402E00E4A7A440E3209
:1003C000002104F1240305E000F00F060009965D0A
:1003D0005E54491C0028F7D120780023000704D57B
:1003E000702D02D009B1022311322046BDE87040C1
:1003F00000F0CAB8B0AF00002DE9F05F89460446AE
:100400004FF0000ADFF874B1FB44C0F820A020468A
:10041000E1688847002874D0252806D0D4E9012156
:100420009047206A401C2062F1E700265F46204684
:10043000E16888472028054607DB312D05D2781969
:1004400010F8200C08B10643F1E7B00701D526F0FB
:100450000406C4F81CA00027C4F818A02A2D09D04F
:10046000284604F04EFF38B304EB8708303DC8F847
:10047000185019E059F8041B204604EB87029161DB
:10048000E1688847012F054618D1E069002820DA85
:1004900026F020061DE0D8F8180000EB800005EBE0
:1004A00040003038C8F818002046E1688847054603
:1004B00004F027FF0028EED1012F0AD02E2D08D1FD
:1004C0002046E16888477F1C0546022F46F020063B
:1004D000C4DBA069002803DA404246F00106A061AF
:1004E000F00701D026F010066C2D0BD0682D09D036
:1004F0004C2D39D06A2D35D0742D35D07A2D33D08E
:1005000016E038E0E1682F4620468847B8420546A5
:1005100009D16C2F26D04FF48060E1680643204655
:100520008847054604E06C2F1AD04FF480700643CC
:100530000DB3A5F14100192802D8203546F4006614
:100540004A462946204626604E46FFF74BFE80B1BC
:1005500001280BD0F61D26F0070000F1080956E728
:100560004020E4E78020D8E70020D6E706F1040920
:100570004DE7284652E7206ABDE8F09F86AF0000AD
:1005800070477047704770472DE9F0470D46994610
:100590009246044600F124080168880604D5E06903
:1005A00021F01001216000E00120A84201DD471B7D
:1005B00000E00027A1697A1902EB0900081AA0617E
:1005C0002078C00602D42046FFF75EFE002608E031
:1005D000D4E901211AF806009047206A401C761CD5
:1005E00020624E45F4DB2078C0060AD52046FFF78E
:1005F0004BFE06E0D4E9012130209047206A401CE0
:100600002062381EA7F10107F4DC07E0D4E90121DC
:1006100018F805009047206A401C2062281EA5F1AA
:100620000105F3DC2046FFF745FE2078000602D5E1
:100630000220BDE8F0870120FBE710B5436913B144
:10064000AFF3008001E0FFF746FE012010BD1278F5
:1006500000F124010A7000224A700122EDE71168BE
:100660004FF0FF32E9E70000074B70B50D467B44C1
:1006700000F011F80446284600F020F810B14FF0C1
:10068000FF3070BD204670BD074D000001694A1C57
:1006900002610878704700B58FB0CDE901310021C3
:1006A000059105497944CDE9031011466846FFF7E5
:1006B000A3FE0FB000BD0000E5FFFFFF007B00F0D0
:1006C00080007047754600F02BF8AE46050069467D
:1006D000534620F00700854618B020B5FFF7B4FD5B
:1006E000BDE820404FF000064FF000074FF0000833
:1006F0004FF0000B21F00701AC46ACE8C009ACE8B4
:10070000C009ACE8C009ACE8C0098D46704710B517
:100710000446AFF300802046BDE81040FFF780BDDF
:10072000004870472C03002070B5044600688168BB
:10073000C943C9071BD1816821F00101816000F024
:10074000D5FD05460EE000F0D1FD401B022809D979
:10075000A06A40F01000A062E06A40F00100E06290
:10076000012070BD20688068C043C007EBD0002026
:1007700070BD0000F8B50026044600960068816848
:10078000C943C90727D0816841F00101816013483E
:1007900013490068B0FBF1F000E0401E0090002813
:1007A000FBD100F0A3FD054610E000F09FFD401BCB
:1007B00002280BD9A06A40F01000A062E06A40F065
:1007C0000100E06284F824600120F8BD20688068A0
:1007D000C043C007E9D10020F8BD000000000020A0
:1007E00040420F00FEE700001CB50B4909480860B5
:1007F000084600F000FC002000900220019000223A
:100800006946054800F0D0FB0021034800F039FCA0
:100810001CBD000000740040DC0200207047000096
:1008200070B5B3F5804F05D06FF0704140F82210DD
:10083000002070BD0C688B69F0251C4395FAA5F566
:100840004B68B5FA85F5AB404FF47F4696FAA6F6AD
:100850008D68B6FA86F6B5402B431C434FF47023DF
:10086000C96893FAA3F3B3FA83F399400C4350F8A1
:100870002210034B19400C4340F82240D8E70000F7
:100880000000F0CF30B50A6850F8223023F00103A1
:1008900040F822308A68214B082A1ED04C68144345
:1008A000D1E903252A4314434A6914438A6914434E
:1008B000CA6914430A6A14434A6A14438A6A14438D
:1008C000CA6A14430A6B0968144350F821201A407D
:1008D000144340F82140002030BD4A68D1E9034567
:1008E00042F008022C4322434C6922438C69224384
:1008F000CC6922430C6A22434C6A22438C6A22430D
:10090000CC6A22430C6B0968224350F821401C40FA
:10091000224342F0400240F82120DCE78100F7FF4B
:1009200070B5F025D1E9003495FAA5F5B5FA85F54D
:10093000AC4023434FF47F4595FAA5F58C68B5FA92
:1009400085F5AC404FF4702696FAA6F6CD68B6FA57
:1009500086F6B5402C4323434FF470050C6995FA95
:10096000A5F5B5FA85F5641EAC4023434FF07065DC
:100970004C6995FAA5F5B5FA85F5A41EAC408969D0
:10098000234300EB82000B43416801F040410B43DD
:100990004360002070BD00000EB569460090012044
:1009A000019007200290074800F08AF8054800F0FF
:1009B0009BFA0A21034800F0FFF9024800F034F9DD
:1009C00080B20EBDAC0200202DE9F04100250E469C
:1009D00007462C4608E03846FFF7DEFF05440520B1
:1009E00004F0A2FC641CE4B2B442F4D3B5FBF6F00C
:1009F00080B2BDE8F0810000F8B5002604460096FC
:100A000090F82400012808D0012084F82400204612
:100A1000FFF78AFE070002D04BE00220F8BDA06A73
:100A200020F4885040F00200A062022000F0CEFCCA
:100A300022490968B1FBF0F0400000E0401E009040
:100A40000028FBD12046FFF795FE2068816841F021
:100A50000801816000F04AFC054604E000F046FC15
:100A6000401B0A2811D8206880680007F6D4206847
:100A7000816841F00401816000F038FC05460EE019
:100A800000F034FC401B0A2809D9A06A20F00200BB
:100A900040F01000A06284F824600120F8BD2068B6
:100AA00080684007ECD4A06A20F0020040F001000A
:100AB000A06284F824603846F8BD000000000020E1
:100AC000F8B50023009390F824209E46012A1ED0FA
:100AD000012280F824204A681F254FF47874072AE1
:100AE00017D20668776B94FAA4FCBCFA8CFC521EF1
:100AF00002FB0CFC05FA0CF5AF4394FAA4F4B4FA2B
:100B000084F40D68624395402F4377632DE0022003
:100B1000F8BD06680D2A14D2376B94FAA4FCBCFA0F
:100B20008CFCD21F02FB0CFC05FA0CF5AF4394FAC7
:100B3000A4F4B4FA84F40D68624395402F433763FC
:100B400013E0F76A94FAA4FCBCFA8CFC0D3A02FBA1
:100B50000CFC05FA0CF5AF4394FAA4F4B4FA84F44F
:100B60000D68624395402F43F7620A6838250726CF
:100B700004680A2A14D3E76895FAA5FCBCFA8CFC31
:100B80000A3A02FB0CFC06FA0CF6B74395FAA5F5F7
:100B9000B5FA85F58E686A4396403743E76012E000
:100BA000276995FAA5FCBCFA8CFC02FB0CFC06FA42
:100BB0000CF6B74395FAA5F5B5FA85F58E686A4344
:100BC0009640374327610A68102A01D0112A20D1A4
:100BD000124C0268A24217D19468240219D4946876
:100BE00044F4000494600968102912D10C490D4A9C
:100BF0000968B1FBF2F101EB8101490000E0491EF7
:100C000000910029FBD104E0816A41F0200181625A
:100C1000012380F824E01846F8BD000000240140BC
:100C20000000002040420F000068C06C70470000C8
:100C30002DE9F04104004FF0000514D0A06A002611
:100C400028B9E66284F82460204600F091F8204636
:100C5000FFF76AFDA16A01F01001014304D0A06A08
:100C600040F01000A0627AE0A16A21F4885141F0BE
:100C70000201A1623B492368E2698B4204D1B2F5CB
:100C8000402F01D14FF40022022191FAA1F1E7682F
:100C9000B1FA81F107FA01F10A4361684FF4807CEF
:100CA0000A43A168614508D0012906D00021D4F883
:100CB00014E0BEF1010F02D00AE06146F7E7C7B1C8
:100CC000A76A47F02007A762E76A47F00107E762D3
:100CD0005F6827F469470F435F6021688B68224F84
:100CE0003B4013438B60A168614510D001290ED0B1
:100CF00016E04FF4604EA7699EFAAEFEBEFA8EFE75
:100D00007F1E07FA0EF70F4347F40061E0E74FF448
:100D10007001256991FAA1F1B1FA81F16D1E8D4042
:100D20002168CB6A23F470032B43CB622168896866
:100D30000E4B1940914208D1E662A16A21F00201EE
:100D400041F00101A162BDE8F081A06A20F002003B
:100D500040F01000A062E06A40F00100E062012073
:100D6000F1E70000003C0140FDF7E1FFFE0E1FFF30
:100D70000F4800B5816985B041F4007181618169D6
:100D800001F400710491816941F00401816180697D
:100D9000694600F0040004900220009003200190B6
:100DA00000200290034800F0A1F905B000BD00004A
:100DB00000100240000801402DE9F8434FF0000800
:100DC0000D460446CDF8008000F090FA06462068F3
:100DD0008168C90508D5A06A40F02000A06284F8A7
:100DE00024800120BDE8F8834168C90503D4C06AA6
:100DF00010F4700F25D0022000F0E8FA3749096896
:100E0000B1FBF0F720680169354A11424FEA6202EE
:100E10004FEAA2131AD1C1684FEA621C11EA0C0F03
:100E200014D10169114220D1C06818421DD114208B
:100E30001EE0681C05D035B300F058FA801BA842AC
:100E400021D8206800688007F3D529E001691142A4
:100E500002D1C168194206D0026922490A4206D16C
:100E6000C068084203D1542002E0292000E0FC20A1
:100E70004743009812E0681C0DD025B100F036FA07
:100E8000801BA84207D9A06A40F00400A06284F841
:100E900024800320A6E70098401C0090B842EAD3C3
:100EA00021686FF012000860A06A40F40070A06230
:100EB00020688068C0F3424007280CD1E06850B930
:100EC000A06A20F48070A062A06AC00403D4A06A63
:100ED00040F00100A062002084E700000000002034
:100EE000244992244992240070B5044690F82400C5
:100EF00001280DD0012084F824002046FFF73AFC99
:100F000001004FF0000205D084F82420084670BD8F
:100F1000022070BDA06A40F20123984340F4807023
:100F2000A0621F4D20681F4BA84218D11E6816F4FE
:100F3000702F14D0A66A46F48016A6621E68760545
:100F400005D5A66A26F4005646F48056A662A66A1F
:100F5000F6040AD5E66A26F00606E66206E0A66A08
:100F600026F48016A6624668E9E7E26284F8242047
:100F70006FF00202026020688268C2F34242072AD0
:100F800005D1A84208D11A6812F4702F04D08268E3
:100F900042F480128260B9E7826842F4A002F9E765
:100FA000002801400424014070B54379012B1AD078
:100FB0000124447102230371D1E900310B4301681C
:100FC0000D6840F6FE769640B54393401D430D6094
:100FD00001680B68C0259540AB430B60047100218C
:100FE0004171084670BD022070BD006809B1006BF8
:100FF0007047C06A704770B5040003D0207900259F
:1010000010B105E0012070BD6571204600F008F8C0
:1010100002202071256101202071002070BD000098
:101020000F4800B5C16985B041F00051C161C16987
:1010300001F000510491816941F0040181618069EE
:10104000694600F0040004901020009003200190F5
:1010500000200290034800F049F805B000BD0000F0
:10106000001002400008014018B5046800940068B0
:10107000104421B1143000900360002018BD0830E6
:10108000F9E730B54279012A12D0012343710222D7
:1010900002710268146803FA01F52C4314600029F8
:1010A00001680A6806D0C2F383420F2A0AD00DE015
:1010B000022030BDC2F383020F2A07D14A6842F0F2
:1010C000010202E04A6842F002024A600371002114
:1010D0004171084630BD31B500F008F9044600F012
:1010E00005F90099001B8842F9D338BD2DE9F84F66
:1010F000DFF8BC91002309F1040A0AF1040B1C4635
:101100004FF00F080BF1040E01270A68A7403A4080
:10111000BA4272D1DFF89CC14D68A5EB0C0665455B
:101120002BD00DDC032D34D005DC35B3012D19D0C7
:10113000022D2FD11BE0112D16D0122D2AD119E02E
:10114000B6F5881F19D006DCB6F5803F15D0B6F588
:10115000801F1FD111E0B6F5001F0ED0B6F5041F99
:1011600018D10AE0CB6815E0CB681B1D12E0CB68F4
:1011700008330FE0CB680C330CE08B682BB1012BEC
:101180004FF0080303D0476104E0042302E0076145
:1011900000E00023FF2A01D8064601E000F1040622
:1011A0004FEA840501D9A5F12005376808FA05FC46
:1011B00027EA0C0703FA05F547EA050737604D688B
:1011C000ED006ED53C4DAE6946F00106AE61AD69ED
:1011D00024F0030605F001050095384D7719BE6827
:1011E000A5072D0F08FA05FC26EA0C06DFF8D0C08B
:1011F000604503D14FF0000C25E052E0DFF8C4C099
:10120000604502D14FF0010C1DE0DFF8BCC0604525
:1012100002D14FF0020C16E0DFF8B0C0604502D1F9
:101220004FF0030C0FE0DFF8A8C0604502D14FF08B
:10123000040C08E0DFF89CC0604502D14FF0050CBB
:1012400001E04FF0060C0CFA05FC4CEA060CC7F85E
:1012500008C04D68D9F80060ED034D4601D516432E
:1012600000E096432E604D68DAF80060AD03554605
:1012700001D5164300E096432E604D68DBF8006010
:10128000ED025D4601D5164300E096432E604D68A1
:10129000DEF80060AD02754601D5164300E09643C6
:1012A0002E60641C102CFFF42FAFBDE8F88F0000F7
:1012B0000004014000001110001002400000014035
:1012C00000080140000C01400010014000140140E2
:1012D00000180140001C01408068084000D0012037
:1012E00070470AB1016170470904FBE701480068D3
:1012F000704700000400002002480168491C01609A
:101300007047000004000020074810B5016841F054
:1013100010010160052000F047F80F2000F006F8EA
:1013200000F015F8002010BD0020024010B5044662
:1013300000F022FA4FF47A71B0FBF1F000F0D2FD28
:1013400000222146501E00F00FF8002010BD70470B
:1013500000F01F02012191404009800000F1E020CF
:10136000C0F8001170470000F0B40E4B1B68C3F3C7
:101370000223C3F10704042C00D904241D1D072DEA
:1013800001D2002300E0DB1E012606FA04F56D1EE3
:101390000D409D409E40761E164045EA0601F0BC79
:1013A00003F078BD0CED00E0064A00F0070110687C
:1013B0004FF6FF03184040EA01200349084310603C
:1013C000704700000CED00E00000FA0510B5014682
:1013D00036A086B01DC88DE81D0038A0384C0068C6
:1013E00004900020042944D012DC012944D00229B1
:1013F0003DD100F0DFF961684FF4804292FAA2F229
:1014000001F44041B2FA82F2D140491C49002CE07B
:1014100008292ED010292AD161682268D20126D548
:101420004FF4701292FAA2F201F47010B2FA82F242
:10143000D040C9031DF8000010D561684FF4003298
:1014400092FAA2F201F40031B2FA82F2D14004AA77
:10145000515C1C4AB2FBF1F1484301E01A49484390
:101460006168490203D440000321B0FBF1F006B0EB
:1014700010BD00F0B7F9FAE7216AC1F30122012A91
:1014800003D1890701D5D003F1E7022A05D1616AAA
:10149000890702D549F64040E9E7032AE7D12168E8
:1014A0008903E4D54FF22440E1E70000020304057C
:1014B000060708090A0B0C0D0E0F101001020000A0
:1014C0000010024000127A0000093D002DE9F843A7
:1014D00004460078454EC00773D0F06940F0805054
:1014E000F061F069424F00F080500090386840F49D
:1014F00080703860FFF7FAFE054604E0FFF7F6FE5D
:10150000401B642832D83868C005F7D5306A10F41B
:10151000407050D0A18801F4407181424BD0306AB4
:1015200001273B0493FAA3F1B1FA81F18A00314912
:1015300020F440700A44C2F8007493FAA3F3B3FA9B
:1015400083F301EB83010022C1F800243062C0075D
:1015500031D0FFF7CBFE054641F288394FF0020843
:1015600007E0FFF7C3FE411B494502D90320BDE850
:10157000F88398FAA8F0B0FA80F040F040004146B5
:10158000B7EB501F01D130680BE091FAA1F0B0FA2F
:1015900080F040F04000B1EB501F01D1306A00E014
:1015A000706A98FAA8F1B1FA81F101F01F0207FA06
:1015B00002F10842D5D0306A616820F440700843D7
:1015C00030622078800705D57068A16820F440401B
:1015D000084370602078C00605D57068616920F402
:1015E0008000084370600020C1E700000010024046
:1015F00000700040000042422DE9F047DFF86881AA
:1016000004460E46D8F8000000F00700B0420CD2A5
:10161000D8F8001021F007013143C8F80010D8F8BD
:10162000000000F00700B04273D120784F4F8007D0
:1016300005D57868A16820F0F0000843786020782C
:10164000C00755D06068012201280CD0022828D09C
:10165000022393FAA3F1B1FA81F141F02001490983
:1016600004D0396803E04FF40033F2E7796A93FA63
:10167000A3F3B3FA83F303F01F039A40114248D057
:10168000796821F0030101437960FFF72FFE0546D9
:10169000606841F2883101280CD00228894615D0B3
:1016A00022E04FF00073D4E7FFF720FE411B4945CD
:1016B00001D916E089467868C0F381000128F3D18A
:1016C00016E0FFF713FE411B49450AD87868C0F3BE
:1016D00081000228F5D10BE0FFF708FE411B4945C8
:1016E00002D90320BDE8F087786810F00C0FF3D121
:1016F000D8F80010404601F00701B1420BD901684B
:1017000021F0070131430160006800F00700B0429A
:1017100001D00120E6E72078400705D57868E16828
:1017200020F4E060084378602078000706D57868E8
:10173000216920F4605040EAC100786000F052F85E
:101740007968F02292FAA2F201F0F001B2FA82F284
:10175000D140074A515CC840064908600F20FFF796
:10176000E5FD0020BEE7000000200240001002401E
:10177000126C00080000002001480068704700005B
:101780000000002008480949006849684FF4E062F9
:1017900092FAA2F201F4E061B2FA82F2D140044A74
:1017A000515CC8407047000000000020001002405B
:1017B000226C000808480949006849684FF46052E3
:1017C00092FAA2F201F46051B2FA82F2D140044AD4
:1017D000515CC8407047000000000020001002402B
:1017E000226C000810B519A085B00FC88DE80F0055
:1017F0001AA01B4B0068049059681A4801F00C02AB
:10180000042A1DD0082A1BD14FF4701494FAA4F4B2
:1018100001F47012B4FA84F4E240C9031DF8022006
:1018200010D559684FF4003393FAA3F301F4003153
:10183000B3FA83F3D94004AB595CB0FBF1F05043E9
:1018400005B010BD08485043FAE700000203040544
:10185000060708090A0B0C0D0E0F101001020000FC
:101860000010024000127A0000093D002DE9F84FF7
:1018700004460078FE4EC0074FF001057FD0706827
:101880004FF40038C0F38100012807D07068C0F31E
:10189000810002281BD17068C00318D598FAA8F0FF
:1018A000B0FA80F040F02000400901D0306800E03C
:1018B000706A98FAA8F1B1FA81F101F01F0105FAF6
:1018C00001F108425BD06068002879D057E0606879
:1018D000B0F5803F0BD010B1B0F5A02F11D030681B
:1018E00020F480303060306820F4802002E03068DE
:1018F00040F480303060606818B3FFF7F7FC0746AB
:1019000009E0306840F480203060F0E7FFF7EEFC3B
:10191000C01B642870D898FAA8F0B0FA80F040F0A4
:101920002000400901D0306800E0706A98FAA8F100
:10193000B1FA81F101F01F0105FA01F10842E5D089
:101940001DE0FFF7D3FC074604E0FFF7CFFCC01B08
:101950006428DFD898FAA8F0B0FA80F040F02000B0
:10196000400901D0306800E0706A98FAA8F1B1FA35
:1019700081F101F01F0105FA01F10842E5D120785B
:10198000DFF8F08280074FF0000A4FF002075AD5C7
:1019900070684FF0F80B10F00C0F07D07068C0F3B0
:1019A000810002281CD17068C00319D497FAA7F0EF
:1019B000B0FA80F040F02000400902D0306801E029
:1019C0008AE0706A97FAA7F1B1FA81F101F01F017C
:1019D00005FA01F108422BD0206901287CD127E0CB
:1019E000206988B395FAA5F0B0FA80F048F8205045
:1019F000FFF77CFC814606E04DE1FFF777FCA0EBAA
:101A00000900022886D897FAA7F0B0FA80F040F0D3
:101A10002000400901D0306800E0706A97FAA7F111
:101A2000B1FA81F101F01F0105FA01F10842E4D099
:101A300030689BFAABF220F0F8016069B2FA82F2EA
:101A400090400143316025E0FFE795FAA5F1B1FA36
:101A500081F148F821A0FFF749FC814605E0FFF736
:101A600045FCA0EB09000228CCD897FAA7F0B0FA01
:101A700080F040F02000400901D0306800E0706A3A
:101A800097FAA7F1B1FA81F101F01F0105FA01F10E
:101A90000842E4D1207800076DD5A069B8B395FA63
:101AA000A5F0B0FA80F008EB8000C0F88054FFF792
:101AB0001DFC814605E0FFF719FCA0EB0900022898
:101AC000A0D897FAA7F0B0FA80F040F06000B5EB2C
:101AD000501F02D130680CE063E197FAA7F0B0FA2A
:101AE00080F040F06000B7EB501F01D1306A00E099
:101AF000706A97FAA7F1B1FA81F101F01F0105FAB6
:101B000001F21042D7D00120FFF7E5FA33E0FFE7FA
:101B100095FAA5F1B1FA81F108EB8101C1F880A431
:101B2000FFF7E4FB814605E0FFF7E0FBA0EB0900CF
:101B3000022899D897FAA7F0B0FA80F040F0600038
:101B4000B5EB501F01D130680BE097FAA7F0B0FA5F
:101B500080F040F06000B7EB501F01D1306A00E028
:101B6000706A97FAA7F1B1FA81F101F01F0105FA45
:101B700001F21042D8D12078400763D5F06940F0D7
:101B80008050F061F069DFF8F0B000F08050009014
:101B9000DBF8001041F48071CBF80010FFF7A6FBD2
:101BA000814605E0FFF7A2FBA0EB0900642872D88C
:101BB000DBF80000C005F5D5E06801280AD008B1BF
:101BC000052813D0306A20F001003062306A20F01E
:101BD000040002E0306A40F001003062E06841F247
:101BE000883B80B3FFF782FB81460AE0306A40F011
:101BF00004003062EEE7FFF779FBA0EB09015945DD
:101C000049D897FAA7F0B0FA80F040F04000B5EB61
:101C1000501F01D130680BE097FAA7F0B0FA80F0BE
:101C200040F04000B7EB501F01D1306A00E0706A0D
:101C300097FAA7F1B1FA81F101F01F0205FA02F15A
:101C40000842D8D033E0FFE7FFF750FB814605E0BC
:101C5000FFF74CFBA0EB090159451CD897FAA7F0F8
:101C6000B0FA80F040F04000B5EB501F08D105E01D
:101C700000100240000042420070004030680CE05A
:101C800097FAA7F0B0FA80F040F04000B7EB501F91
:101C900002D1306A01E08AE0706A97FAA7F1B1FADE
:101CA00081F101F01F0205FA02F10842D0D1E0698A
:101CB00098B37168C1F38101022972D002284FF0F4
:101CC00080714FF0007B50460AD091FAA1F1B1FA31
:101CD00081F148F82100FFF709FB04465F4669E0FF
:101CE0008A4691FAA1F1B1FA81F1C14648F8210082
:101CF000FFF7FCFAA84607465D4604E0FFF7F6FA50
:101D0000C01B022853D895FAA5F0B0FA80F040F035
:101D10002000400902D0306801E060E0706A95FA66
:101D2000A5F1B1FA81F101F01F0208FA02F10842AF
:101D3000E4D1206AB0F5803F05D17068A16820F435
:101D4000003008437060D4E908010843716821F449
:101D50007411084370609AFAAAF0B0FA80F047460E
:101D600049F82080FFF7C2FA044604E0FFF7BEFA04
:101D7000001B02281BD895FAA5F0B0FA80F040F0BD
:101D80002000400901D0306800E0706A95FAA5F1A2
:101D9000B1FA81F101F01F0107FA01F10842E5D023
:101DA0001DE01EE0FFF7A2FA001B022802D9032063
:101DB000BDE8F88F97FAA7F0B0FA80F040F0200065
:101DC000400901D0306800E0706A97FAA7F1B1FAD3
:101DD00081F101F01F0105FA01F10842E2D1002072
:101DE000E6E70120E4E770B515460E46040003D08F
:101DF00094F83D0010B107E0012070BD002084F888
:101E00003C00204600F01AF804F108012068FEF7B3
:101E100039FD3146A2682068FEF782FDD4E901024F
:101E20002946236BFEF7FCFCA168206850F82120AE
:101E300042F0010240F82120002070BD1F4800B58B
:101E4000416985B041F480714161416901F480715B
:101E50000491816941F020018161816901F02001D3
:101E60000491816941F040018161816901F0400183
:101E70000491816941F4807181618069694600F44F
:101E8000807004904CF23370009002200190012089
:101E90000290032003900A48FFF728F94FF680705C
:101EA000009069460748FFF721F941F201000090D0
:101EB00069460548FFF71AF905B000BD0010024059
:101EC0000014014000180140002001404FF0E021C3
:101ED0000428086903D020F004000861704740F02E
:101EE0000400FAE710B5401EB0F1807F01D3012055
:101EF00010BD4FF0E02460610F21601702F0CAFFAF
:101F00000020A06107202061002010BD10B5040052
:101F100003D094F8390010B107E0012010BD002073
:101F200084F83800204600F00CF8022084F83900CC
:101F3000211D206803F022F8012084F839000020D8
:101F400010BD70470168CA6842F00102CA600068AB
:101F5000016841F00101016000207047704790F86E
:101F60003900704738B5044600680168C268C1F39B
:101F7000000102F4807221B11AB1E16B41F001015C
:101F8000E1630168C1F34002416901F0010122B13E
:101F900019B1E26B42F00402E2630268C2F380020C
:101FA00022B119B1E26B42F00202E2630268C2F3AD
:101FB000C00222B119B1E16B41F00801E16301688F
:101FC000C068C1F3401100F0200019B110B12046E3
:101FD00003F040F820680168C068C1F3C01100F048
:101FE000800019B110B1204603F040F9216808685B
:101FF000CA68C0F3801002F04002012568B162B1E6
:10200000CA68204622F04002CA6094F8391032298A
:1020100010D080F8395000F0E7F8E06B002808D0C5
:10202000206801684068009084F839502046FFF726
:1020300095FF38BD222180F83910ECE770B5040017
:1020400004D094F83900002510B106E0012070BDDD
:1020500084F83850204600F021F8022084F8390036
:102060002068C16821F40051C160204603F046F8A1
:102070002068016921F4904101612068416921F0E3
:102080002A0141612068C16841F40051C160E563E3
:10209000012084F83900002070BD000010B50068F0
:1020A0001E4986B0884236D11D48816941F004013D
:1020B0008161816901F004010491816941F48041E9
:1020C0008161816901F480410491816941F00101DC
:1020D00081618069134C00F0010004904FF400709E
:1020E0000090022001900120029003200390694695
:1020F0002046FEF7FBFF2115009100210191694662
:102100002046FEF7F3FF2520FFF722F903221146B0
:102110002520FFF729F906B010BD00000038014066
:10212000001002400008014090F83930012B01D026
:10213000122B2BD131B32AB390F83830012B25D094
:10214000012380F8383081628285C2850021C16315
:1021500090F83920122A17D0222280F8392080F8EE
:1021600038100168CA6842F48072CA6001684A691E
:1021700042F001024A610068C16841F02001C1607B
:1021800000207047012070473222E6E702207047A6
:1021900030B50068114988420CD1114A50880104B9
:1021A00008D41146440409784FF0000306D50A29E3
:1021B00001D0538030BD40F400400DE00D2909D01E
:1021C000C0F30D04074D401C80B229555080C7282C
:1021D000EFD830BD40F48040508030BD0038014021
:1021E0000C000020500100207047FEE770B5144835
:1021F00086B0816941F004018161816901F00401C7
:102200000491816941F0400181618069032400F0FB
:1022100040000490022001260025CDE90204CDE90A
:10222000006569460748FEF761FF1C2003948DE8AE
:10223000610069460448FEF759FF06B070BD000012
:102240000010024000080140001801402DE9F04153
:1022500001262E4C2E4F2F4D01281DD02078A0B1E5
:1022600010212846FFF738F8C0B108212846FFF7AB
:1022700033F898B104212846FFF72EF870B10121F8
:102280003846FFF729F8012808D010212846FFF723
:1022900023F8012826D037E02670E1E70A2003F072
:1022A00043F80020207010212846FFF715F880B170
:1022B00008212846FFF710F870B104212846FFF7DF
:1022C0000BF858B101213846FFF706F8012807D06E
:1022D0001AE00120BDE8F0810220FBE70320F9E7C6
:1022E0000420F7E708212846FEF7F6FF01280BD166
:1022F00004212846FEF7F0FF012805D101213846C8
:10230000FEF7EAFF00B926700020E3E71C0000207A
:10231000000801400018014070B506460948002435
:102320000188458820464D43214602F0CFFB02F04C
:1023300043FDB1B2044801E00180641CAC42FBD310
:1023400070BD00009C0200200008006C2DE9F04FD9
:10235000334B2C24194698712A2589882B2645F25F
:10236000105B4FF4305E4FF448774FF0F00949F2BC
:10237000413A4FF4A07845F2103C4FF4F07258B156
:10238000A3F80080A3F80290514501D0614529D1FE
:102390001C815D819E8139E0A3F80090A3F8028042
:1023A000514501D0614508D11C815D819E81614507
:1023B00031D1A3F800805A802DE0594508D1A3F807
:1023C00008E04FF4285058814FF42C50988106E0D3
:1023D000A1F5C85063381ED11C815E819D811A8091
:1023E0005F8018E0594508D1A3F808E04FF4285061
:1023F00058814FF42C50988106E0A1F5C8506338FD
:1024000004D11C815D819E811F805A80614502D16B
:102410001A80A3F80280BDE8F04F002002F07ABADB
:102420009C0200202DE9F041364D90460C460246B4
:102430000F0AA8882946160A4989A0F51343413B8B
:102440000BD0A0F5A643103B07D0B3F5007311D015
:10245000A0F5C853633B27D04BE0084602F0A0FC30
:10246000304602F091FCD0B202F08EFCA88902F056
:1024700097FC38E0084602F093FC304602F084FCFA
:102480006889401C80B202F08BFCD0B202F07CFC68
:10249000A88902F085FC384602F076FCA889401C29
:1024A00080B202F07DFC21E0A87918B92888801A52
:1024B000401E82B2084602F073FC160A304602F053
:1024C00063FCD0B202F060FC304602F05DFCD0B29A
:1024D00002F05AFCA88902F063FC384602F054FC72
:1024E000E0B202F051FC384602F04EFCE0B202F0DD
:1024F0004BFC054928890880891CA1F80080BDE8AB
:10250000F08100009C020020FE07006C2DE9F04FD6
:10251000FE4895B0816941F00801816180694FF002
:10252000010900F008000090CDF844900325CDF893
:102530004890CDE9139511A9F548FEF7D7FDF54868
:102540004FF02044F44906220460C0E90112002142
:102550001023C160C0E9041381611B02C161C0E99D
:1025600009139B00C0E90B13416381631A200A928F
:10257000CDE90B10CDE90412109106910991039554
:1025800003AA0AA9E348FFF72EFC322002F0CCFE92
:10259000D32002F005FC02F08DF9DE4A443290802F
:1025A00002F088F9908002F085F94FF6FF7B0BEA84
:1025B0000020908002F07EF9918849F2413A084368
:1025C000908045F2103645F2105541F6631750459C
:1025D00048D0D42002F0E4FB02F06CF9908002F0C5
:1025E00069F9908002F066F90BEA0020D8469080E5
:1025F00002F060F9918808439080B04232D04FF4E5
:102600005A4002F0CDFB02F055F990804FF45B4048
:1026100002F0C6FB02F04EF908EA002090804FF469
:102620005C4002F0BDFB02F045F9918808439080C0
:10263000B0F5004F7ED0A84214D0A12002F0B0FB2C
:1026400002F038F9908002F035F908EA0020908015
:1026500002F030F991880843A0F5AE4190806139CD
:1026600000D1978090469188ACA0FDF701FEB8F8A4
:10267000040050457ED1CF2002F092FB002002F0F2
:1026800083FBC12002F080FB302002F07DFBED20B7
:1026900002F086FB642002F077FB032002F074FB5B
:1026A000122002F071FB812002F06EFBE82002F0A4
:1026B00077FB852002F068FB102002F065FB7A2092
:1026C00002F062FBCB2002F06BFB392002F05CFBD6
:1026D0002C2002F059FB002002F056FB342002F0BF
:1026E00053FB022002F050FBF72002F059FB2020A0
:1026F00002F04AFBEA2002F053FB002002F044FB08
:10270000002002F041FBC02002F04AFB1B2002F037
:102710003BFBC12002F044FB012002F035FBC52049
:1027200002F03EFB302002F02FFB302002F02CFBA9
:10273000C72000E0B7E002F033FBB72002F024FB33
:10274000362002F02DFB482002F01EFB3A2002F05A
:1027500027FB552002F018FBB12002F021FB0020DE
:1027600002F012FB1A2002F00FFBB62002F018FB59
:102770000A2000E099E002F007FBA22002F004FB2F
:10278000F22002F00DFB002002F0FEFA262002F0FB
:1027900007FB012002F0F8FAE02002F001FB0F2015
:1027A00002F0F2FA2A2002F0EFFA282002F0ECFA06
:1027B000082002F0E9FA0E2002F0E6FA082002F002
:1027C000E3FA542002F0E0FAA92002F0DDFA4320F7
:1027D00002F0DAFA0A2002F0D7FA0F2002F0D4FA57
:1027E000002002F0D1FA002002F0CEFA002002F020
:1027F000CBFA002002F0C8FAE12002F0D1FA002062
:1028000002F0C2FA152002F0BFFA172002F0BCFA5B
:10281000072002F0B9FA112002F0B6FA062002F001
:10282000B3FA2B2002F0B0FA562002F0ADFA3C20A9
:1028300002F0AAFA052002F0A7FA102002F0A4FA8A
:102840000F2002F0A1FA3F2002F09EFA3F2002F092
:102850009BFA0F2002F098FA2B2002F0A1FA002038
:1028600002F092FA002002F08FFA012002F08CFAB6
:102870003F2002F089FA2A2002F092FA002002F0AA
:1028800083FA002002F080FA002002F07DFAEF20A7
:1028900002F07AFA112002F083FA782002F044FD67
:1028A000292001F011BF9580DCE6B0427ED1ED20F9
:1028B00002F076FA012002F067FAFE2002F064FAD4
:1028C000EE2002F06DFADE2002F05EFA212002F026
:1028D0005BFAF12002F064FA012002F055FADF20E1
:1028E00002F05EFA102002F04FFAC42002F058FA0B
:1028F0008F2002F049FAC62002F052FA002002F0BE
:1029000043FAE22002F040FAE2200FE00010024019
:10291000000C014058020020040100A0204C434458
:102920002049443A25780D0A0000000002F02CFAF4
:10293000E22002F029FABF2002F032FAAA2002F0C7
:1029400023FAB02002F02CFA0D2002F01DFA00202C
:1029500002F01AFA0D2002F017FA002002F014FA21
:10296000112002F011FA002002F00EFA192002F0F4
:102970000BFA002002F008FA212002F005FA0020EC
:1029800002F002FA2D2002F0FFF9002002F0FCF91B
:102990003D2002F0F9F9002002F0F6F95D2002F086
:1029A000F3F9002002F0F0F95D2000E0FEE302F010
:1029B000EBF9002002F0E8F9B12002F0F1F98020F3
:1029C00002F0E2F9002002F0DFF98B2002F0DCF9DE
:1029D000002002F0D9F9962002F0D6F9002002F08A
:1029E000D3F9B22002F0DCF9002002F0CDF900208A
:1029F00002F0CAF9022002F0C7F9002002F0C4F97F
:102A0000032002F0C1F9002002F0BEF9B32002F069
:102A1000C7F9002002F0B8F9002002F0B5F9002053
:102A200002F0B2F9002002F0AFF9002002F0ACF998
:102A3000002002F0A9F9002002F0A6F9002002F01F
:102A4000A3F9002002F0A0F9002002F09DF9002077
:102A500002F09AF9002002F097F9002002F094F9B0
:102A6000002002F091F9002002F08EF9002002F01F
:102A70008BF9002002F088F9002002F085F900208F
:102A800002F082F9002002F07FF9002002F07CF9C8
:102A9000002002F079F9002002F076F9002002F01F
:102AA00073F9B42002F07CF98B2002F06DF900205C
:102AB00002F06AF9962002F067F9002002F064F94A
:102AC000A12002F061F9002002F05EF9B52002F0C9
:102AD00067F9022002F058F9002002F055F90320AE
:102AE00002F052F9002002F04FF9042002F04CF9F4
:102AF000002002F049F9B62002F052F9002002F05D
:102B000043F9002002F040F9B72002F049F9002013
:102B100002F03AF9002002F037F93F2002F034F9D0
:102B2000002002F031F95E2002F02EF9002002F0C0
:102B30002BF9642002F028F9002002F025F98C20FE
:102B400002F022F9002002F01FF9AC2002F01CF97B
:102B5000002002F019F9DC2002F016F9002002F042
:102B600013F9702002F010F9002002F00DF9902006
:102B700002F00AF9002002F007F9EB2002F004F954
:102B8000002002F001F9DC2002F0FEF8002002F043
:102B9000FBF8B82002F004F9002002F0F5F800205C
:102BA00002F0F2F8002002F0EFF8002002F0ECF85A
:102BB000002002F0E9F8002002F0E6F8002002F020
:102BC000E3F8002002F0E0F8BA2002F0E9F824204F
:102BD00002F0DAF8002002F0D7F8002002F0D4F872
:102BE000002002F0D1F8C12002F0DAF8202002F033
:102BF000CBF8002002F0C8F8542002F0C5F80020FD
:102C000002F0C2F8FF2002F0BFF8002002F0BCF88A
:102C1000C22002F0C5F80A2002F0B6F8002002F047
:102C2000B3F8042002F0B0F8002002F0ADF8C320A1
:102C300002F0B6F83C2002F0A7F8002002F0A4F859
:102C40003A2002F0A1F8002002F09EF8392002F0AC
:102C50009BF8002002F098F8372002F095F8002049
:102C600002F092F83C2002F08FF8002002F08CF87D
:102C7000362002F089F8002002F086F8322002F0B7
:102C800083F8002002F080F82F2002F07DF8002069
:102C900002F07AF82C2002F077F8002002F074F8A5
:102CA000292002F071F8002002F06EF8262002F0D0
:102CB0006BF8002002F068F8242002F065F800208C
:102CC00002F062F8242002F05FF8002002F05CF8C5
:102CD000232002F059F8002002F056F83C2002F0C0
:102CE00053F8002002F050F8362002F04DF8002092
:102CF00002F04AF8322002F047F8002002F044F8CF
:102D00002F2002F041F8002002F03EF82C2002F0C3
:102D10003BF8002002F038F8292002F035F80020B6
:102D200002F032F8262002F02FF8002002F02CF8F2
:102D3000242002F029F8002002F026F8242002F0D6
:102D400023F8002002F020F8232002F01DF80020D4
:102D500002F01AF8C42002F023F8622002F014F8FE
:102D6000002002F011F8052002F00EF8002002F019
:102D70000BF8842002F008F8002002F005F8F0209B
:102D800002F002F8002001F0FFFF182001F0FCFF24
:102D9000002001F0F9FFA42001F0F6FF002001F06F
:102DA000F3FF182001F0F0FF002001F0EDFF5020AC
:102DB00001F0EAFF002001F0E7FF0C2001F0E4FF42
:102DC000002001F0E1FF172001F0DEFF002001F0FC
:102DD000DBFF952001F0D8FF002001F0D5FFF320A4
:102DE00001F0D2FF002001F0CFFFE62001F0CCFF80
:102DF000002001F0C9FFC52001F0D2FF322001F010
:102E0000C3FF002001F0C0FF442001F0BDFF0020FF
:102E100001F0BAFF652001F0B7FF002001F0B4FF18
:102E2000762001F0B1FF002001F0AEFF882001F014
:102E3000ABFF002001F0A8FFC62001F0B1FF202069
:102E400001F0A2FF002001F09FFF172001F09CFF7E
:102E5000002001F099FF012001F096FF002001F011
:102E600093FFC72001F09CFF002001F08DFF0020A0
:102E700001F08AFF002001F087FF002001F084FFAD
:102E8000C82001F08DFF002001F07EFF002001F03E
:102E90007BFF002001F078FF002001F075FFC920C2
:102EA00001F07EFF002001F06FFF002001F06CFFB9
:102EB000002001F069FF002001F066FF002001F012
:102EC00063FF002001F060FF002001F05DFF0020A3
:102ED00001F05AFF002001F057FF002001F054FFDD
:102EE000002001F051FF002001F04EFF002001F012
:102EF0004BFF002001F048FF002001F045FF0020BB
:102F000001F042FFE02001F04BFF162001F03CFFF2
:102F1000002001F039FF1C2001F036FF002001F0F5
:102F200033FF212001F030FF002001F02DFF36207B
:102F300001F02AFF002001F027FF462001F024FFC6
:102F4000002001F021FF522001F01EFF002001F0BF
:102F50001BFF642001F018FF002001F015FF7A200C
:102F600001F012FF002001F00FFF8B2001F00CFF99
:102F7000002001F009FF992001F006FF002001F078
:102F800003FFA82001F000FF002001F0FDFEB920A2
:102F900001F0FAFE002001F0F7FEC42001F0F4FE7B
:102FA000002001F0F1FECA2001F0EEFE002001F049
:102FB000EBFED22001F0E8FE002001F0E5FED92072
:102FC00001F0E2FE002001F0DFFEE02001F0DCFE77
:102FD000002001F0D9FEF32001F0D6FE002001F020
:102FE000D3FEE12001F0DCFE162001F0CDFE002032
:102FF00001F0CAFE1C2001F0C7FE002001F0C4FE53
:10300000222001F0C1FE002001F0BEFE362001F0BA
:10301000BBFE002001F0B8FE452001F0B5FE002007
:1030200001F0B2FE522001F0AFFE002001F0ACFE34
:10303000642001F0A9FE002001F0A6FE7A2001F034
:10304000A3FE002001F0A0FE8B2001F09DFE0020D9
:1030500001F09AFE992001F097FE002001F094FE05
:10306000A82001F091FE002001F08EFEB92001F0B1
:103070008BFE002001F088FEC42001F085FE0020B8
:1030800001F082FECA2001F07FFE002001F07CFEEC
:10309000D22001F079FE002001F076FED82001F068
:1030A00073FE002001F070FEE02001F06DFE0020B4
:1030B00001F06AFEF32001F067FE002001F064FEDB
:1030C000E22001F06DFE052001F05EFE002001F01F
:1030D0005BFE0B2001F058FE002001F055FE1B2086
:1030E00001F052FE002001F04FFE342001F04CFEB2
:1030F000002001F049FE442001F046FE002001F0CE
:1031000043FE4F2001F040FE002001F03DFE612013
:1031100001F03AFE002001F037FE792001F034FE84
:10312000002001F031FE882001F02EFE002001F089
:103130002BFE972001F028FE002001F025FEA6209E
:1031400001F022FE002001F01FFEB72001F01CFE5E
:10315000002001F019FEC22001F016FE002001F04F
:1031600013FEC72001F010FE002001F00DFED1205B
:1031700001F00AFE002001F007FED62001F004FE57
:10318000002001F001FEDD2001F0FEFD002001F035
:10319000FBFDF32001F0F8FD002001F0F5FDE32038
:1031A00001F0FEFD052001F0EFFD00E00AE3002044
:1031B00001F0EAFD0A2001F0E7FD002001F0E4FD46
:1031C0001C2001F0E1FD002001F0DEFD332001F0C4
:1031D000DBFD002001F0D8FD442001F0D5FD0020EA
:1031E00001F0D2FD502001F0CFFD002001F0CCFD18
:1031F000622001F0C9FD002001F0C6FD782001F039
:10320000C3FD002001F0C0FD882001F0BDFD0020BD
:1032100001F0BAFD972001F0B7FD002001F0B4FDE8
:10322000A62001F0B1FD002001F0AEFDB72001F0B5
:10323000ABFD002001F0A8FDC22001F0A5FD00209B
:1032400001F0A2FDC72001F09FFD002001F09CFDD0
:10325000D12001F099FD002001F096FDD52001F06C
:1032600093FD002001F090FDDD2001F08DFD002098
:1032700001F08AFDF32001F087FD002001F084FDBC
:10328000E42001F08DFD012001F07EFD002001F021
:103290007BFD012001F078FD002001F075FD02208A
:1032A00001F072FD002001F06FFD2A2001F06CFD9D
:1032B000002001F069FD3C2001F066FD002001F0D6
:1032C00063FD4B2001F060FD002001F05DFD5D20FD
:1032D00001F05AFD002001F057FD742001F054FD6B
:1032E000002001F051FD842001F04EFD002001F08E
:1032F0004BFD932001F048FD002001F045FDA22088
:1033000001F042FD002001F03FFDB32001F03CFD43
:10331000002001F039FDBE2001F036FD002001F053
:1033200033FDC42001F030FD002001F02DFDCD2043
:1033300001F02AFD002001F027FDD32001F024FD3B
:10334000002001F021FDDD2001F01EFD002001F034
:103350001BFDF32001F018FD002001F015FDE52014
:1033600001F01EFD002001F00FFD002001F00CFD1A
:10337000002001F009FD002001F006FD022001F00F
:1033800003FD002001F000FD292001F0FDFC0020DC
:1033900001F0FAFC3C2001F0F7FC002001F0F4FC05
:1033A0004B2001F0F1FC002001F0EEFC5D2001F06B
:1033B000EBFC002001F0E8FC742001F0E5FC0020AB
:1033C00001F0E2FC842001F0DFFC002001F0DCFCD5
:1033D000932001F0D9FC002001F0D6FCA22001F0DE
:1033E000D3FC002001F0D0FCB32001F0CDFC002084
:1033F00001F0CAFCBE2001F0C7FC002001F0C4FCB3
:10340000C42001F0C1FC002001F0BEFCCD2001F081
:10341000BBFC002001F0B8FCD32001F0B5FC00207B
:1034200001F0B2FCDC2001F0AFFC002001F0ACFCAC
:10343000F32001F0A9FC002001F0A6FCE62001F039
:10344000AFFC112001F0A0FC002001F09DFC342015
:1034500001F09AFC002001F097FC562001F094FC4A
:10346000002001F091FC762001F08EFC002001F09C
:103470008BFC772001F088FC002001F085FC6620A1
:1034800001F082FC002001F07FFC882001F07CFC30
:10349000002001F079FC992001F076FC002001F079
:1034A00073FCBB2001F070FC002001F06DFC992042
:1034B00001F06AFC002001F067FC662001F064FC6A
:1034C000002001F061FC552001F05EFC002001F0BD
:1034D0005BFC552001F058FC002001F055FC452014
:1034E00001F052FC002001F04FFC432001F04CFCA5
:1034F000002001F049FC442001F046FC002001F0CE
:1035000043FCE72001F04CFC322001F03DFC0020A0
:1035100001F03AFC552001F037FC002001F034FCAA
:10352000762001F031FC002001F02EFC662001F035
:103530002BFC002001F028FC672001F025FC002076
:1035400001F022FC672001F01FFC002001F01CFCB0
:10355000872001F019FC002001F016FC992001F0F1
:1035600013FC002001F010FCBB2001F00DFC00203A
:1035700001F00AFC992001F007FC002001F004FC96
:10358000772001F001FC002001F0FEFB442001F057
:10359000FBFB002001F0F8FB562001F0F5FB0020BA
:1035A00001F0F2FB232001F0EFFB002001F0ECFB27
:1035B000332001F0E9FB002001F0E6FB452001F09B
:1035C000E3FB002001F0E0FBE82001F0E9FB002034
:1035D00001F0DAFB002001F0D7FB992001F0D4FBC9
:1035E000002001F0D1FB872001F0CEFB002001F08C
:1035F000CBFB882001F0C8FB002001F0C5FB772041
:1036000001F0C2FB002001F0BFFB662001F0BCFB13
:10361000002001F0B9FB882001F0B6FB002001F08A
:10362000B3FBAA2001F0B0FB002001F0ADFBBB20F2
:1036300001F0AAFB002001F0A7FB992001F0A4FBF8
:10364000002001F0A1FB662001F09EFB002001F0AC
:103650009BFB552001F098FB002001F095FB5520C5
:1036600001F092FB002001F08FFB442001F08CFB65
:10367000002001F089FB442001F086FB002001F0CE
:1036800083FB552001F080FB002001F07DFBE92049
:1036900001F086FBAA2001F077FB002001F074FB0B
:1036A000002001F071FB002001F06EFB002001F012
:1036B00077FBAA2001F068FBCF2001F071FB00200E
:1036C00001F062FB002001F05FFB002001F05CFBD9
:1036D000002001F059FB002001F056FB002001F012
:1036E00053FB002001F050FB002001F04DFB0020B7
:1036F00001F04AFB002001F047FB002001F044FBF1
:10370000002001F041FB002001F03EFB002001F011
:103710003BFB002001F038FB002001F035FB0020CE
:1037200001F032FBF02001F03BFB002001F02CFB0C
:10373000502001F029FB002001F026FB002001F0C1
:1037400023FB002001F020FBF32001F029FB0020E7
:1037500001F01AFBF92001F023FB062001F014FB15
:10376000102001F011FB292001F00EFB002001F0D8
:103770000BFB3A2001F014FB552001F005FB112052
:1037800001F00EFB642001F0CFFD292001F008FBC1
:10379000352001F005FB002001F0F6FA512001F080
:1037A000FFFAFF2001F0F0FA532001F0F9FA2C2083
:1037B00001F0EAFA552001F0F3FA822001F0E4FA70
:1037C0002C20FDE3A8427CD14FF4704355211846CC
:1037D00001F0FCFAAA214FF2010001F0F7FA5221A0
:1037E0004FF2020001F0F2FA08214FF2030001F05B
:1037F000EDFA01214FF2040001F0E8FA0D214FF437
:10380000304001F0E3FA0D214BF2010001F0DEFA45
:103810000D214BF2020001F0D9FA34214FF4364069
:1038200001F0D4FA34214BF2016001F0CFFA3421D7
:103830004BF2026001F0CAFA0D214FF4314001F061
:10384000C5FA0D214BF2011001F0C0FA0D214BF227
:10385000021001F0BBFA34214FF4374001F0B6FA00
:1038600034214BF2017001F0B1FA34214BF20270B5
:1038700001F0ACFA00214FF4324001F0A7FA002128
:103880004BF2012001F0A2FA00214BF2022001F0DC
:103890009DFA24214FF4384001F098FA24214BF688
:1038A000010001F093FA24214BF6020001F08EFA98
:1038B00001214FF43F4001F089FA0F214FF43340CA
:1038C00000E0FCE301F082FA0F214BF2013001F03D
:1038D0007DFA0F214BF2023001F078FA34214FF4D7
:1038E000394001F073FA34214BF6011001F06EFA01
:1038F00034214BF6021001F069FA08214FF43540EB
:1039000001F064FA08214BF2015001F05FFA08213E
:103910004BF2025001F05AFA03214FF4424001F0F9
:1039200055FA24214FF43A4001F050FA24214BF685
:10393000012001F04BFA24214BF6022001F046FA57
:1039400000214FF43C4001F041FA78214BF6014050
:1039500001F03CFA00214BF6024001F037FA002159
:103960004FF43D4001F032FA78214BF6015001F05E
:103970002DFA00214BF6025001F028FA00214FF4F5
:103980003E4001F023FA64214BF6016001F01EFA7B
:1039900000214FF4514001F019FA33214DF201108A
:1039A00001F014FA00214DF2021001F00FFA342157
:1039B0004DF2031001F00AFA00214DF2041001F05B
:1039C00005FA3A214DF2051001F000FA00214DF2FE
:1039D000061001F0FBF94A214DF2071001F0F6F94B
:1039E00000214DF2081001F0F1F95C214DF20910AF
:1039F00001F0ECF900214DF20A1001F0E7F9812104
:103A00004DF20B1001F0E2F900214DF20C1001F023
:103A1000DDF9A6214DF20D1001F0D8F900214DF28B
:103A20000E1001F0D3F9E5214DF20F1001F0CEF99F
:103A300001214DF2101001F0C9F913214DF21110BE
:103A400001F0C4F901214DF2121001F0BFF9542127
:103A50004DF2131001F0BAF901214DF2141001F0EA
:103A6000B5F982214DF2151001F0B0F901214DF2A6
:103A7000161001F0ABF9CA214DF2171001F0A6F9AA
:103A800002214DF2181001F0A1F900214DF2191098
:103A900001F09CF902214DF21A1001F097F9012171
:103AA0004DF21B1001F092F902214DF21C1001F0B1
:103AB0008DF934214DF21D1001F088F902214DF2EB
:103AC0001E1001F083F967214DF21F1001F07EF9FD
:103AD00002214DF2201001F079F984214DF22110DC
:103AE00001F074F902214DF2221001F06FF9A421C6
:103AF0004DF2231001F06AF902214DF2241001F079
:103B000065F9B7214DF2251001F060F902214DF25F
:103B1000261001F05BF9CF214DF2271001F056F984
:103B200002214DF2281001F051F9DE214DF2291049
:103B300001F04CF902214DF22A1001F047F9F2216F
:103B40004DF22B1001F042F902214DF22C1001F040
:103B50003DF9FE214DF22D1001F038F903214DF20F
:103B60002E1001F033F910214DF22F1001F02EF933
:103B700003214DF2301001F029F933214DF23110BB
:103B800001F024F903214DF2321001F01FF96D21EB
:103B90004DF2331001F01AF900214FF4524001F0B8
:103BA00015F933214DF2012001F010F900214DF2F9
:103BB000022001F00BF934214DF2032001F006F947
:103BC00000214DF2042001F001F93A214DF20520C7
:103BD00001F0FCF800214DF2062001F0F7F84A212F
:103BE0004DF2072001F0F2F800214DF2082001F01B
:103BF000EDF85C214DF2092001F0E8F800214DF2CA
:103C00000A2001F0E3F881214DF20B2001F0DEF8EB
:103C100000214DF20C2001F0D9F8A6214DF20D2023
:103C200001F0D4F800214DF20E2001F0CFF8E5218B
:103C30004DF20F2001F0CAF801214DF2102001F0E1
:103C4000C5F813214DF2112001F0C0F801214DF209
:103C5000122001F0BBF854214DF2132001F0B6F808
:103C600001214DF2142001F0B1F882214DF215200E
:103C700001F0ACF801214DF2162001F0A7F8CA219D
:103C80004DF2172001F0A2F802214DF2182001F0A8
:103C90009DF800214DF2192001F098F802214DF213
:103CA0001A2001F093F801214DF21B2001F08EF84B
:103CB00002214DF21C2001F089F834214DF21D2023
:103CC00001F084F802214DF21E2001F07FF86721F7
:103CD0004DF21F2001F07AF802214DF2202001F070
:103CE00075F884214DF2212001F070F802214DF287
:103CF000222001F06BF8A4214DF2232001F066F898
:103D000002214DF2242001F061F8B7214DF2252067
:103D100001F05CF802214DF2262001F057F8CF2186
:103D20004DF2272001F052F802214DF2282001F037
:103D30004DF8DE214DF2292001F048F802214DF224
:103D40002A2001F043F8F2214DF22B2001F03EF839
:103D500002214DF22C2001F039F8FE214DF22D20E8
:103D600001F034F803214DF22E2001F02FF810213C
:103D70004DF22F2001F02AF803214DF2302001F0FE
:103D800025F833214DF2312001F020F803214DF2C6
:103D9000322001F01BF86D214DF2332001F016F8AE
:103DA00000214FF4534001F011F833214DF201305E
:103DB00001F00CF800214DF2023001F007F8342137
:103DC0004DF2033001F002F800214DF2043000F012
:103DD000FDFF3A214DF2053000F0F8FF00214DF2D1
:103DE000063000F0F3FF4A214DF2073000F0EEFFFD
:103DF00000214DF2083000F0E9FF5C214DF209305E
:103E000000F0E4FF00214DF20A3000F0DFFF8121D5
:103E10004DF20B3000F0DAFF00214DF20C3000F0D3
:103E2000D5FFA6214DF20D3000F0D0FF00214DF25C
:103E30000E3000F0CBFFE5214DF20F3000F0C6FF51
:103E400001214DF2103000F0C1FF13214DF211306D
:103E500000F0BCFF01214DF2123000F0B7FF5421F9
:103E60004DF2133000F0B2FF01214DF2143000F09A
:103E7000ADFF82214DF2153000F0A8FF01214DF277
:103E8000163000F0A3FFCA214DF2173000F09EFF5C
:103E900002214DF2183000F099FF00214DF2193047
:103EA00000F094FF02214DF21A3000F08FFF012143
:103EB0004DF21B3000F08AFF02214DF21C3000F061
:103EC00085FF34214DF21D3000F080FF02214DF2BC
:103ED0001E3000F07BFF67214DF21F3000F076FFAF
:103EE00002214DF2203000F071FF84214DF221308B
:103EF00000F06CFF02214DF2223000F067FFA42198
:103F00004DF2233000F062FF02214DF2243000F028
:103F10005DFFB7214DF2253000F058FF02214DF230
:103F2000263000F053FFCF214DF2273000F04EFF36
:103F300002214DF2283000F049FFDE214DF22930F8
:103F400000F044FF02214DF22A3000F03FFFF22141
:103F50004DF22B3000F03AFF02214DF22C3000F0F0
:103F600035FFFE214DF22D3000F030FF03214DF2E0
:103F70002E3000F02BFF10214DF22F3000F026FFE5
:103F800003214DF2303000F021FF33214DF231306A
:103F900000F01CFF03214DF2323000F017FF6D21BD
:103FA0004DF2333000F012FF00214FF4544000F086
:103FB0000DFF33214DF2014000F008FF002100E029
:103FC00082E34DF2024000F001FF34214DF2034044
:103FD00000F0FCFE00214DF2044000F0F7FE3A2113
:103FE0004DF2054000F0F2FE00214DF2064000F0D7
:103FF000EDFE4A214DF2074000F0E8FE00214DF2AF
:10400000084000F0E3FE5C214DF2094000F0DEFEC6
:1040100000214DF20A4000F0D9FE81214DF20B4003
:1040200000F0D4FE00214DF20C4000F0CFFEA6219E
:104030004DF20D4000F0CAFE00214DF20E4000F09E
:10404000C5FEE5214DF20F4000F0C0FE01214DF20A
:10405000104000F0BBFE13214DF2114000F0B6FEFF
:1040600001214DF2124000F0B1FE54214DF21340F7
:1040700000F0ACFE01214DF2144000F0A7FE8221B9
:104080004DF2154000F0A2FE01214DF2164000F065
:104090009DFECA214DF2174000F098FE02214DF21C
:1040A000184000F093FE00214DF2194000F08EFE02
:1040B00002214DF21A4000F089FE012100E006E3E2
:1040C0004DF21B4000F082FE02214DF21C4000F038
:1040D0007DFE34214DF21D4000F078FE02214DF2AC
:1040E0001E4000F073FE67214DF21F4000F06EFE8F
:1040F00002214DF2204000F069FE84214DF2214062
:1041000000F064FE02214DF2224000F05FFEA42187
:104110004DF2234000F05AFE02214DF2244000F0FF
:1041200055FEB7214DF2254000F050FE02214DF220
:10413000264000F04BFECF214DF2274000F046FE16
:1041400002214DF2284000F041FEDE214DF22940CF
:1041500000F03CFE02214DF22A4000F037FEF22131
:104160004DF22B4000F032FE02214DF22C4000F0C7
:104170002DFEFE214DF22D4000F028FE03214DF2D0
:104180002E4000F023FE10214DF22F4000F01EFEC5
:1041900003214DF2304000F019FE33214DF2314041
:1041A00000F014FE03214DF2324000F00FFE6D21AD
:1041B0004DF2334000F00AFE00214FF4554000F06C
:1041C00005FE33214DF2015000F000FE00214DF2BA
:1041D000025000F0FBFD34214DF2035000F0F6FDDB
:1041E00000214DF2045000F0F1FD3A214DF205504E
:1041F00000F0ECFD00214DF2065000F0E7FD4A21F1
:104200004DF2075000F0E2FD00214DF2085000F0A1
:10421000DDFD5C214DF2095000F0D8FD00214DF28A
:104220000A5000F0D3FD81214DF20B5000F0CEFD7D
:1042300000214DF20C5000F0C9FDA6214DF20D50A9
:1042400000F0C4FD00214DF20E5000F0BFFDE5214D
:104250004DF20F5000F0BAFD01214DF2105000F068
:10426000B5FD13214DF2115000F0B0FD01214DF2CA
:10427000125000F0ABFD54214DF2135000F0A6FD9A
:1042800001214DF2145000F0A1FD82214DF2155094
:1042900000F09CFD01214DF2165000F097FDCA215F
:1042A0004DF2175000F092FD02214DF2185000F02F
:1042B0008DFD00214DF2195000F088FD02214DF2D4
:1042C0001A5000F083FD01214DF21B5000F07EFDDD
:1042D00002214DF21C5000F079FD34214DF21D50A9
:1042E00000F074FD02214DF21E5000F06FFD6721B9
:1042F0004DF21F5000F06AFD02214DF2205000F0F7
:1043000065FD84214DF2215000F060FD02214DF247
:10431000225000F05BFDA4214DF2235000F056FD29
:1043200002214DF2245000F051FDB7214DF22550ED
:1043300000F04CFD02214DF2265000F047FDCF2148
:104340004DF2275000F042FD02214DF2285000F0BE
:104350003DFDDE214DF2295000F038FD02214DF2E5
:104360002A5000F033FDF2214DF22B5000F02EFDCB
:1043700002214DF22C5000F029FDFE214DF22D506E
:1043800000F024FD03214DF22E5000F01FFD1021FE
:104390004DF22F5000F01AFD03214DF2305000F085
:1043A00015FD33214DF2315000F010FD03214DF287
:1043B000325000F00BFD6D214DF2335000F006FD40
:1043C00000214FF4564000F001FD33214DF2016011
:1043D00000F0FCFC00214DF2026000F0F7FC3421FB
:1043E0004DF2036000F0F2FC00214DF2046000F099
:1043F000EDFC3A214DF2056000F0E8FC00214DF2A1
:10440000066000F0E3FC4A214DF2076000F0DEFC9C
:1044100000214DF2086000F0D9FC5C214DF20960EA
:1044200000F0D4FC00214DF20A6000F0CFFC8121A5
:104430004DF20B6000F0CAFC00214DF20C6000F060
:10444000C5FCA6214DF20D6000F0C0FC00214DF22C
:104450000E6000F0BBFCE5214DF20F6000F0B6FCF1
:1044600001214DF2106000F0B1FC13214DF21160FA
:1044700000F0ACFC01214DF2126000F0A7FC5421C9
:104480004DF2136000F0A2FC01214DF2146000F027
:104490009DFC82214DF2156000F098FC01214DF247
:1044A000166000F093FCCA214DF2176000F08EFCFC
:1044B00002214DF2186000F089FC00214DF21960D4
:1044C00000F084FC02214DF21A6000F07FFC012113
:1044D0004DF21B6000F07AFC02214DF21C6000F0EE
:1044E00075FC34214DF21D6000F070FC02214DF28C
:1044F0001E6000F06BFC67214DF21F6000F066FC4F
:1045000002214DF2206000F061FC84214DF2216017
:1045100000F05CFC02214DF2226000F057FCA42167
:104520004DF2236000F052FC02214DF2246000F0B5
:104530004DFCB7214DF2256000F048FC02214DF200
:10454000266000F043FCCF214DF2276000F03EFCD6
:1045500002214DF2286000F039FCDE214DF2296085
:1045600000F034FC02214DF22A6000F02FFCF22111
:104570004DF22B6000F02AFC02214DF22C6000F07D
:1045800025FCFE214DF22D6000F020FC03214DF2B0
:104590002E6000F01BFC10214DF22F6000F016FC85
:1045A00003214DF2306000F011FC33214DF23160F7
:1045B00000F00CFC03214DF2326000F007FC6D218D
:1045C0004DF2336000F002FC5521184600F0FEFB6E
:1045D000AA214FF2010000F0F9FB52214FF2020034
:1045E00000F0F4FB08214FF2030000F0EFFB002184
:1045F0004FF2040000F0EAFBCC214FF4314000F010
:10460000E5FB00214BF2011000F0E0FB05214FF427
:10461000364000F0DBFB70214FF4374000F0D6FB52
:1046200070214BF2017000F0D1FB01214FF43840B2
:1046300000F0CCFB03214BF6010000F0C7FB032187
:104640004BF6020000F0C2FB03214BF6030000F022
:10465000BDFB02214FF43C4000F0B8FB00214BF6BB
:10466000014000F0B3FB00214BF6024000F0AEFB2E
:10467000D0214FF4494000F0A9FB02214CF6011073
:1046800000F0A4FB50214CF6021000F09FFB5021DB
:104690004CF6031000F09AFB50214CF6041000F089
:1046A00095FB00214FF4545000F090FB55214FF43E
:1046B000685000F08BFB4FF4885000F071FB7820BD
:1046C00000F040FE4FF4245000F06AFBB9E0B8421D
:1046D000FCD1E22000F064FB1D2000F055FB02201D
:1046E00000F052FB042000F04FFB642000F02AFE93
:1046F000E02000F055FB012000F046FB0A2000F00E
:1047000013FEE02000F04CFB032000F03DFB0C20EA
:1047100000F00AFE012000F043FB0A2000F004FE36
:10472000E62000F03DFB2F2000F02EFBFF2000F0E4
:104730002BFBFF2000F028FBB02000F031FB2020F5
:1047400000F022FB002000F01FFB032000F01CFB08
:1047500040F21F3000F018FB012000F015FB40F282
:10476000DF1000F011FB002000F00EFBB42000F081
:1047700017FB042000F008FB40F21F4000F004FB90
:10478000002000F001FB2E2000F0FEFA002000F0D7
:10479000FBFA002000F0F8FA002000F0F5FA002003
:1047A00000F0F2FAB62000F0FBFA022000F0ECFA7A
:1047B0004FF4037000F0E8FA002000F0E5FA17204B
:1047C00000F0E2FA152000F0DFFA002000F0DCFA39
:1047D000002000F0D9FAF02000F0E2FA032000F007
:1047E000D3FA292000F0DCFAD02000F0D9FA00201A
:1047F00000F0CAFABE2000F0D3FA052000F0C4FA97
:10480000FE2000F0C1FA012000F0BEFA002000F006
:10481000BBFA002000F0B8FA002000F0B5FAB8208A
:1048200000F0BEFA032000F0AFFA012000F0ACFA6D
:10483000BA2000F0B5FA012000F0A6FA642000F0DA
:1048400043F8B8F80400504505D0B04203D0A84260
:1048500001D0B84217D1D4F81C0120F00F00C4F8E1
:104860001C01D4F81C0120F47060C4F81C01D4F8B9
:104870001C0140F00100C4F81C01D4F81C0140F4F4
:104880008070C4F81C010020FDF760FD0449C1F8E8
:1048900080915846FDF740FD15B0BDE8F08F00004F
:1048A000008021420346012000E05843491EC9B25E
:1048B000FBD27047034808B50088ADF80000BDF88A
:1048C000000008BD0008006C10B50246BE2000F0D4
:1048D00067FA052000F058FA104601F0A8FE4FF0E4
:1048E00066320B4B01F0B6FE01F074FE80B200F0B0
:1048F0004BFA012000F048FAFF2000F045FA0020B2
:1049000000F042FABDE81040002000F03DBA00007F
:1049100066660440F0B56C4D00232946AA79898863
:1049200041F66314012A01D01AB11BE0A14202D161
:1049300018E0A14216D1082814D2DFE800F00406DE
:10494000080A0C0E101206200CE007200AE00420D2
:1049500008E0052006E0012004E0002002E003203A
:1049600000E00220A1F5134745F2103245F210563F
:10497000413F05D0914203D0B14201D0A14277D14D
:10498000082812D2DFE800F0110406080A0C0E1005
:1049900080230AE0402308E0C02306E0202304E04F
:1049A000602302E0A02300E0E023B14202D14FF4F3
:1049B000585000E03620914205D0B14203D0A142C8
:1049C00001D043F00803194600F000FAAA88A24279
:1049D0000AD098062888698802D5884202D303E065
:1049E000884201D9298068806889B24241D100F0AB
:1049F000D7F9002000F0C8F96889401C80B200F0A7
:104A0000CFF9002000F0C0F96889801C80B200F066
:104A1000C7F92888401EC0F30F2000F0B5F9688957
:104A2000C01C80B200F0BCF92878401EC0B200F073
:104A3000ABF9A88900F0B4F9002000F0A5F9A88925
:104A4000401C80B200F0ACF9002000F09DF9A8896C
:104A5000801C80B200F0A4F96888401EC0F30F20CB
:104A600000F092F9A889C01C80B200F099F922E008
:104A700028E000F095F9002000F086F9002000F011
:104A800083F92888401EC0F30F2000F07DF92878B4
:104A9000401EC0B200F078F9A88900F081F900202A
:104AA00000F072F9002000F06FF96888401EC0F332
:104AB0000F2000F069F9A878BDE8F040401EC0B2B0
:104AC00000F062B9F0BD00009C020020F0B53F4D3F
:104AD0000C460246060AA9882846270A4089A1F5FD
:104AE0001343413B28D0A1F5A643103B24D0A1F5A8
:104AF000C853633B2FD0A1F5AA43103B64D100F00B
:104B00004FF9304600F040F96889401C80B200F04F
:104B100047F9D0B200F038F9A88900F041F93846D9
:104B200000F032F9A889401C80B200F039F9E0B2F7
:104B3000BDE8F04000F028B900F032F9304600F04E
:104B400023F9D0B200F020F9A88900F029F93846FD
:104B500000F01AF9EBE7A97929B300F021F9304602
:104B600000F012F9D0B200F00FF92888401EC0F30F
:104B70000F2000F009F92878401EC0B200F004F9B7
:104B8000A88900F00DF9384600F0FEF8E0B200F018
:104B9000FBF86888401EC0F30F2000F0F5F8A878F5
:104BA000401EC0B2C4E72988891A491E8AB200F0A3
:104BB000F7F8002000F0E8F8002000F0E5F8100A0F
:104BC00000F0E2F8D0B2D9E7F0BD00009C0200206E
:104BD0002DE9F84F82461F460E468B46580700D0F7
:104BE000012000EBD70079084843203AC0B202F018
:104BF000FF090025009047E00C2F10D0102F12D095
:104C0000182F14D0202F42D1224901EBC9104FF0A8
:104C10000008445D200610D51F48026811E009EB2A
:104C200049001E4906E01E4901EB0910EFE71D4946
:104C300009EBC90001EB8000E9E70A9828B916489A
:104C4000426831465046FDF7EDFB6006040E1648FB
:104C5000761CB6B24088B04219D9A6EB0B00B84218
:104C600009D10AF101001FFA80FA0F485E46018857
:104C700051450CD906E008F1010000F0FF08B8F139
:104C8000080FC7D36D1CEDB200988542B4D3BDE8C0
:104C9000F88F0000EA830008140000202A6C000846
:104CA0009E7000088E7600089C0200202DE9F84FC7
:104CB000044600F0FF0810190D46DDE90A761FFAD8
:104CC00080FA58191FFA80F94FF0000B11E0544593
:104CD00002D3E819444685B24D450FD23B462946DA
:104CE0002046CDF800B0FFF773FF04EB570084B205
:104CF000761C3278A2F120005E28E8D9BDE8F88F52
:104D00002DE9FF4F81B08046DDF83CA00E984FF0B2
:104D100000091F4693464C460AF0010546082BE061
:104D2000381B401EC1B20A20FFF7BCFDBBFBF0F0F0
:104D30000A21B0FBF1F201FB1200B9F1000F05D11D
:104D4000791E8C4202DA48B14FF001093030C2B20C
:104D500006FB048080B200950E9B08E05FEA0A60C3
:104D600006FB04800E9B80B200950AD53022029982
:104D7000FFF72EFF641CE4B2BC42D1D305B0BDE8FE
:104D8000F08F2022F3E7000001B5BDF80000ADF878
:104D90000000BDF800000149088008BD0008006C53
:104DA00001B5BDF80000ADF80000BDF800000149F4
:104DB000088008BDFE07006C02480349008908808E
:104DC000704700009C020020FE07006C024A108021
:104DD000901C018070470000FE07006C30B5184839
:104DE00085B0816941F008018161816901F00801A4
:104DF0000491816941F0400181618069202400F0C3
:104E0000400004900120CDE90040029003200D4DA8
:104E1000039069462846FCF769F900940A4C6946F4
:104E20002046FCF763F9012220212846FCF759FAB5
:104E3000012220212046FCF754FA05B030BD0000C5
:104E400000100240000C01400018014000B587B07E
:104E500002200090800302906846FCF737FB0B4865
:104E6000094901220160002141608160C0E903120B
:104E7000416181614FF46021C161FBF7D9FE0348B4
:104E8000FBF7BAFD07B000BD00240140AC020020D2
:104E9000FEE770470907090E002806DA00F00F0048
:104EA00000F1E02080F8141D704700F1E02080F848
:104EB000001470477047704730B58FB001210091E2
:104EC0000225090400240795CDE90114CDE9081055
:104ED0006846FCF7CBFC00B1FEE70F20CDE90A05E0
:104EE0004FF48060CDE90C4002210AA80E94FCF733
:104EF00083FB002800D0FEE70FB030BDFCF7FCB903
:104F00000D48016841F00101016041680B4A114000
:104F1000416001680A4A11400160016821F4802162
:104F20000160416821F4FE0141604FF41F0181607E
:104F30000449C00308607047001002400000FFF8F9
:104F4000FFFFF6FE08ED00E010B50A4C2068C068CF
:104F5000C043C00709D10848006980472168002084
:104F6000486221686420C862E06021686FF0010037
:104F7000086110BDF00200205C000020F0B502685E
:104F80001A4D1B4E1B4FDFF870C01C4B4FF0804E6C
:104F9000A84209D0984207D0704505D0B04203D04E
:104FA000B84201D0604503D122F070044A68224320
:104FB000A84209D0984207D0704505D0B04203D02E
:104FC000B84201D0604503D122F44074CA6822433C
:104FD00002608A68C2620A688262A84201D098426E
:104FE00001D10969016301214161F0BD002C01403B
:104FF0000004004000080040000C00400034014064
:1050000038B5114A04460D46D06940F00400D0611D
:10501000D069032200F00400009011461E20FCF726
:10502000A3F91E20FCF794F9094A00210748C2E9B8
:1050300002141161C2E900051046FCF767FFBDE8E4
:1050400038400348FCF77EBF0010024000080040D3
:10505000F002002010B590F83910222903D032292F
:1050600001D0022010BD8168B1F5805F11D00169C7
:10507000002901681FD0496801F07F03816A4A1C3A
:1050800082620B70C18D491E0904090CC18518D0BC
:105090002FE00269816A002A0268526805D0D2B204
:1050A0000A80816A491C8162ECE7C2F308020A8027
:1050B000816A891CF7E74A68816A4B1C83620A701F
:1050C000E0E70168CA6822F02002CA6090F839104F
:1050D000322910D00168CA6822F48072CA6001685F
:1050E0004A6922F001024A61012180F83910FDF776
:1050F0004FF8002010BD1221F7E700002DE9F04124
:10510000044600680169E26821F4405111430161DD
:10511000A16820690143606901432068C26841F2C7
:105120000C639A430A43C26020684169A26921F472
:105130004071114341614C492068642632278842FE
:105140003CD1FCF737FB00EBC00101EB00106168BC
:105150008900B0FBF1F5FCF72DFB00EBC00101EB82
:1051600000106168B8468900B0FBF1F0B0FBF6F0C2
:105170006FF01801484305EB800107EB0110B0FB0D
:10518000F6F000F0F005FCF715FB00EBC00101EBB9
:10519000001061688900B0FBF1F0B0FBF6F005EBA0
:1051A0000015FCF707FB00EBC00101EB0010616884
:1051B0008900B0FBF1F7FCF7FDFA3BE0FCF7E2FAFF
:1051C00000EBC00101EB001061688900B0FBF1F554
:1051D000FCF7D8FA00EBC00101EB00106168B8469B
:1051E0008900B0FBF1F0B0FBF6F06FF01801484316
:1051F00005EB800107EB0110B0FBF6F000F0F005C5
:10520000FCF7C0FA00EBC00101EB001061688900F7
:10521000B0FBF1F0B0FBF6F005EB0015FCF7B2FACD
:1052200000EBC00101EB001061688900B0FBF1F7F1
:10523000FCF7A8FA00EBC00101EB001061688900DF
:10524000B0FBF1F0B0FBF6F06FF01801484307EB4C
:10525000800108EB0110B0FBF6F0216800F00F00B0
:1052600028448860BDE8F0810038014090F839108A
:10527000122903D0322901D0022070478168B1F58C
:10528000805F016A0BD04A1C026202680978516093
:10529000C18C491E0904090CC1840ED017E009888D
:1052A0000268C1F30801516001690029016A02D056
:1052B000491C0162ECE7891CFBE70168CA6822F01F
:1052C0008002CA600068C16841F04001C1600020EE
:1052D0007047000010B50848FCF744FE0648FCF78C
:1052E0003EFE0128FAD1012204490348FCF71CFFC5
:1052F0000028F8D110BD0000180200200C0000208A
:10530000FEE730380A2801D201207047002070479C
:105310007047000010B504460420FCF7D7FD014893
:10532000046010BD0800002070B5054600244FF44D
:105330007A7603E0304600F005F8641CAC42F9D3FD
:1053400070BD000070B54FF0E02500216C69094A7E
:10535000AB6912685043AA699A42FCD002D2A3EB0F
:10536000020302E0A4EB02063344194413468142CF
:10537000F1D370BD0800002004490A685206FCD52C
:10538000024AC1B2121D116070470000003801408E
:105390001CB500273C46FBF7B7FF4FF4E010FFF7C2
:1053A0008BFD4820FFF7B6FF4FF4E13000F044F9E1
:1053B0007D48416854208847FFF710FDFCF716FF31
:1053C000FDF7A4F8FFF742FDFBF70EFA774E4FF416
:1053D00078401025306076A0CDE900502B46C822D9
:1053E00032211E20FFF762FC75A0CDE9005010238A
:1053F000C82246211E20FFF759FC74A0CDE90050B9
:105400001023C8225A211E20FFF750FC73A0CDE9BB
:1054100000501023C8226E211E20FFF747FC72A007
:10542000CDE900501023C82282211E20FFF73EFC48
:105430001F20306070A0CDE900501023C8229621B3
:105440001E20FFF733FC6FA0CDE900501023C822C7
:10545000AA211E20FFF72AFC6EA0CDE900501023E0
:10546000C822BE211E20FFF721FC00231A46194640
:105470006C48FBF7F9FD7F1CFFB20020FCF7E6FE4D
:105480000646042802D0022E05D010E0B4F57A6F4B
:1054900007D2C83402E0C82C02D9C83CA4B200E04C
:1054A00000240022234611465E48FBF7DDFD0A2F4B
:1054B00003D0022E01D0042E70D100215948FBF7F1
:1054C00094FD002687B2CDE9005604233A46962182
:1054D0005E20FFF715FC384601F0A9F84FF0663A58
:1054E0005246514B01F0B6F801F042F8074601F080
:1054F00011FACDE900561FFA80F802460123AA21CD
:105500005E20FFF7FDFB404601F024FA394601F02A
:1055100001FBDFF818B1594601F030FA01F0FAF951
:105520004FF08009CDE9005902460323AA216E20DD
:10553000FFF7E6FB0A210120FBF746FA01F077F8B6
:105540005246394B01F086F801F012F8074601F097
:10555000E1F9CDE900561FFA80F802460123BE2189
:105560005E20FFF7CDFB404601F0F4F9394601F02B
:10557000D1FA594601F002FA01F0CCF9CDE900590F
:1055800002460323BE216E20FFF7BAFB2849D1F85B
:10559000940138B10020C1F8940100270A20FFF7D8
:1055A000C3FE68E70120F6E75C000020140000203D
:1055B000576172536869702053544D3332000000B4
:1055C00044414320544553540000000041544F4D82
:1055D00040414C49454E54454B0000003230313774
:1055E0002F352F3239000000574B5F55503A2B2092
:1055F000204B4559313A2D004441432056414C3A05
:105600000000000044414320564F4C3A302E3030C9
:105610003056000041444320564F4C3A302E303033
:1056200030560000DC02002066664A3F00007A44E3
:1056300000802142006870470B4910B5094AC1E952
:10564000002000208860C860086188610C204861E3
:105650000846FCF7F3FCBDE810400122034902486C
:10566000FCF762BD00380140180200200C00002049
:1056700070B594B0064613AB11AA694600F0DCF988
:10568000002824D18DF840001D4C042514E020682A
:1056900005EBC10113AB405812AA08A900F0CCF9E0
:1056A000002814D1694608A800F001FC88B19DF8D3
:1056B0004000401C8DF84000207D9DF8401088423D
:1056C000E5D8207D9DF8401088420ED1042014B00A
:1056D00070BD9DF848009DF84410884201D9022011
:1056E000F5E79DF84000A075EBE710A9304600F003
:1056F00057FA0028EBD19DF8400060750020E6E7DE
:105700005C0000202DE9F0417E4E9AB0B57D307DE1
:10571000A8427CD90421306801EBC50119AB40587F
:1057200018AA10A900F088F910A977A0FAF7A0FD2F
:1057300000240DF1180832E0308B0121A14008420D
:1057400017D0222172A0FAF793FD204600F090FABC
:10575000811970A02431FAF78BFD22216CA0FAF791
:1057600087FD204600F084FA3044243048F82400B5
:105770000BE0204600F07CFA3044416A48F82410DF
:10578000F07D00B364A0FAF773FD9DF86000401E41
:10579000844202D062A0FAF76BFD641CE4B29DF86B
:1057A00060008442C8D35FA0FAF762FD00F0A6FA59
:1057B000707D0B2814D2DFE800F0080D3138404826
:1057C000525E6B78890058A0DDE7306850F83500EC
:1057D000804704E0306850F835100698884707463F
:1057E00000F058FA9DF8640001286ED04FA0FAF737
:1057F0003FFD96F8EC0000280DD0D6F8F0000A2105
:10580000B0FBF1F201FB1202B0FBF1F100E002E0AB
:1058100047A0FAF72DFD1AB0BDE8F081306850F8C6
:105820003520DDE906019047D9E7306806AC50F82D
:10583000353094E807009847D1E7306806AF50F854
:10584000354097E80F00A047C9E70A9800903068F4
:1058500006AF50F8354097E80F00A047BFE7DDE9F5
:105860000A01CDE90001306806AF50F8354097E8ED
:105870000F00A047B3E70AAB06AF93E807008DE837
:105880000700306850F8354097E80F00A047A6E7BA
:105890000AAC06AF94E80F008DE80F00306850F8AE
:1058A000354097E80F00A04799E70BAC06AF94E8A6
:1058B0000F0001AC84E80F000A980090306850F89F
:1058C000354097E80F00A04789E711E00CAC06AF20
:1058D00094E80F0002AC84E80F00DDE90A01CDE98D
:1058E0000001306850F8354097E80F00A04776E790
:1058F000F07D394618B116A0FAF7BAFC79E717A07F
:10590000FAE700005C0000200D0A25732800000063
:105910002563000025730000305825580000000062
:105920002C00000029000000256C64003B0D0A00DB
:1059300046756E6374696F6E2052756E2054696D82
:10594000653A25642E2531646D730D0A0000000050
:105950003D305825583B0D0A000000003D256C7570
:105960003B0D0A00F0B500252E462F462C46037845
:105970002C2B03D0292B04D01BB103E014B9012632
:1059800000E00CB317B1222B2AD02AE0A3F1300C8F
:10599000BCF1090F19D92D2B17D02B2B15D0A3F142
:1059A000610CBCF1050F10D9A3F1410CBCF1050F3E
:1059B0000BD9582B09D0782B07D0222B0CD0202BB9
:1059C0001ED02C2B1CD0FF270CE05EB9612B00D31E
:1059D000203B01F8013B13E026B901273C460FE0CC
:1059E000002426B10020087017702846F0BD3CB195
:1059F0005C2B02D16D1CEDB2401C037801F8013B19
:105A00006D1CEDB2401CB2E730B5002515700AE000
:105A100001F8014B1478401C641CE4B214709C42E1
:105A200001D3012030BD0478202C01D0002CEFD10F
:105A30000D70002030BD00002DE9FF4F002482B022
:105A400089469846A2462746012526462246EB4629
:105A5000029915E0202810D002F07F03052B0CD20C
:105A600002B9802202F07F03042B01D12A280AD137
:105A7000521C0BF80300D2B201E0852A04D0491C65
:105A800008780028E6D16AB102F07F0200200BF806
:105A9000020041A1584600F00AFA38B1012188F805
:105AA000001000224FF00008029B15E0002088F84B
:105AB0000000F6E708F1010000F0FF0813F8010FFD
:105AC000202801D02A2807D1184600F07DF928287F
:105AD00002D02A2800D0C2461878282801D00028F1
