:020000040800F2
:10000000F01E0020CD01000855160008CB15000891
:10001000511600083D030008DD270008000000001D
:100020000000000000000000000000006B25000838
:10003000410300080000000057020008C525000821
:10004000E7010008E7010008E7010008E7010008F0
:10005000E7010008E7010008E7010008E7010008E0
:10006000E7010008E7010008E7010008E7010008D0
:10007000E7010008E7010008E7010008E7010008C0
:10008000E7010008E7010008E7010008E7010008B0
:10009000E7010008E7010008E7010008E7010008A0
:1000A000E7010008E7010008E7010008E701000890
:1000B000E7010008E7010008E7010008E701000880
:1000C000E7010008E7010008E7010008E701000870
:1000D000E701000895270008E7010008E70100088C
:1000E000E7010008E7010008E7010008E701000850
:1000F000E7010008E7010008E7010008E701000840
:10010000E7010008E7010008E7010008E70100082F
:10011000E7010008E7010008E7010008E70100081F
:10012000E7010008E7010008E7010008E70100080F
:1001300000F002F800F03AF80AA090E8000C8244BF
:100140008344AAF10107DA4501D100F02FF8AFF29C
:10015000090EBAE80F0013F0010F18BFFB1A43F0A5
:1001600001031847C0290000E0290000103A24BF0D
:1001700078C878C1FAD8520724BF30C830C144BF0C
:1001800004680C607047000000230024002500264E
:10019000103A28BF78C1FBD8520728BF30C148BFEA
:1001A0000B6070471FB51FBD10B510BD00F08BF878
:1001B0001146FFF7F7FF02F0C3FB00F0A9F803B404
:1001C000FFF7F2FF03BC02F00BFB00000948804779
:1001D00009480047FEE7FEE7FEE7FEE7FEE7FEE729
:1001E000FEE7FEE7FEE7FEE704480549054A064B41
:1001F00070470000E125000831010008F0180020D8
:10020000F01E0020F01A0020F01A0020EFF31080FA
:1002100072B6704780F3108870471F484FF6FF7121
:100220000170002080F309881C48016881F3088868
:100230001B48012101701B484FF08051016062B6DC
:10024000FEE718484FF080510160704715484FF0A5
:1002500080510160704772B6EFF3098028B12038F1
:1002600080E8F00F10490968086000B50F48804722
:100270005DF804EB0E480F490A7802700A480E49EF
:100280000A680260106890E8F00F203080F3098857
:100290004EF0F40E62B6704722ED00E064000020DC
:1002A0003E00002004ED00E044000020751D000821
:1002B00033000020340000204C00002070477047BD
:1002C000704770477047754600F02CF8AE46050041
:1002D0006946534620F00700854618B020B5FFF761
:1002E00083FFBDE820404FF000064FF000074FF0BD
:1002F00000084FF0000B21F00701AC46ACE8C00944
:10030000ACE8C009ACE8C009ACE8C0098D4670474C
:1003100010B50446AFF300802046BDE81040FFF75B
:100320004EBF00000048704790180020704770478B
:1003300070477047704770477047704700BFFEE7CF
:10034000704731B5002400F0AFF9044600BF00F05B
:10035000ABF9001B00998842F9D338BD2DE9F84765
:1003600002460024002000258446002700237BE16C
:100370004FF0010808FA03F4D1F8008008EA0400FD
:10038000A0427DD1DFF8ECA2D1F80480A8EB0A09E5
:10039000D0453AD014DCB8F1030F50D009DCB8F1E5
:1003A000000F31D0B8F1010F1CD0B8F1020F49D1C4
:1003B00020E0B8F1110F18D0B8F1120F42D11EE0B1
:1003C000B9F5881F25D006DCB9F5803F20D0B9F5F6
:1003D000801F37D11AE0B9F5001F18D0B9F5041FF6
:1003E00030D117E0D1F80CC02DE0D1F80C8008F125
:1003F000040C28E0D1F80C8008F1080C23E0D1F8B7
:100400000C8008F10C0C1EE000BF00BF00BF00BF55
:1004100000BF00BFD1F80880B8F1000F02D14FF043
:10042000040C0BE0D1F80880B8F1010F03D14FF0B4
:10043000080C146102E04FF0080C546103E04FF027
:10044000000C00E000BF00BFFF2801D8904601E08B
:1004500002F104084646FF2802D84FEA830803E069
:10046000A3F108084FEA88084746D6F800804FF005
:100470000F0909FA07F928EA09080CFA07F900E058
:100480007AE048EA0908C6F80080D1F8048008F04C
:100490008058B8F1805F6FD100BFDFF8DC81D8F8F9
:1004A000188048F00108DFF8D091C9F81880C846D4
:1004B000D8F8188008F00108CDF8008000BF00BF10
:1004C0004FEAB9384FEA930958F829504FEA837830
:1004D0004FEA18794FF00F0808FA09F825EA0805DD
:1004E000DFF89881424502D14FF0000824E0DFF8A0
:1004F0009081424502D14FF001081DE0DFF8848170
:10050000424502D14FF0020816E0DFF87C814245F7
:1005100002D14FF003080FE0DFF87081424502D1AD
:100520004FF0040808E0DFF86881424502D14FF03F
:10053000050801E04FF006084FEA83794FEA197980
:1005400008FA09F848EA0505DFF848814FEA9309F7
:1005500048F82950D1F8048008F48038B8F5803F75
:100560000BD1DFF83481D8F8008048EA0008DFF8C2
:100570002891C9F800800AE075E0DFF81C81D8F8FE
:10058000008028EA0008DFF81091C9F80080D1F84F
:10059000048008F40038B8F5003F0ED1DFF8F88089
:1005A00008F10408D8F8008048EA0008DFF8E8906D
:1005B00009F10409C9F800800DE0DFF8DC8008F1DA
:1005C0000408D8F8008028EA0008DFF8CC9009F188
:1005D0000409C9F80080D1F8048008F48018B8F53F
:1005E000801F0ED1DFF8B08008F10808D8F800802D
:1005F00048EA0008DFF8A09009F10809C9F800806E
:100600000DE0DFF8948008F10808D8F8008028EAA7
:100610000008DFF8849009F10809C9F80080D1F8D2
:10062000048008F40018B8F5001F0ED1DFF86880C8
:1006300008F10C08D8F8008048EA0008DFF8589064
:1006400009F10C09C9F800800DE0DFF84C8008F1D1
:100650000C08D8F8008028EA0008DFF83C9009F17F
:100660000C09C9F800805B1C102BFFF481AEBDE8BB
:10067000F88700000000111000100240000801403F
:10068000000C01400010014000140140001801401E
:10069000001C014008000140000401400AB1016152
:1006A00001E00B04036170470148006870470000D7
:1006B0000400002010B50848006840F0100006490A
:1006C0000860052000F05CF80F2000F007F800F04B
:1006D00017F8002010BD00000020024070B504464D
:1006E00000F0AEF94FF47A71B0FBF1F5284600F056
:1006F00057FE00222146501E00F003F8002070BD76
:1007000070472DE9F05F80460D461646002700F041
:10071000A3FF074639462A46334601F00700C0F1D9
:10072000070ABAF1040F02D94FF0040A01E0C0F140
:10073000070AD14600F1040ABAF1070F02D24FF0BE
:10074000000A01E0A0F1030AD4464FF0010A0AFAB8
:1007500009FAAAF1010A0AEA020A0AFA0CFA4FF0A7
:10076000010B0BFA0CFBABF1010B0BEA030B4AEA92
:100770000B042146404600F077FFBDE8F09F0000E3
:1007800000BF00F00702064B19684FF6FF0319403F
:10079000044B0B4343EA0221014B196000BF704731
:1007A0000CED00E00000FA0570B504460D46002689
:1007B0009F48006800F00700A8420ED29C480068DD
:1007C00020F0070028439A4908600846006800F0B6
:1007D0000700A84201D0012070BD207800F002007F
:1007E000022807D19348406820F0F000A168084330
:1007F00090494860207800F0010000287CD06068B3
:1008000001282DD12020010391FAA1F1B1FA81F143
:1008100008430121B1EB601F02D1864800680FE058
:100820002020010391FAA1F1B1FA81F108430221DC
:10083000B1EB601F02D17F48006A01E07D48406A49
:1008400020210A0392FAA2F2B2FA82F2114301F0D5
:100850001F02012191400840002860D10120BBE720
:10086000606802282CD12020010591FAA1F1B1FA8B
:1008700081F108430121B1EB601F02D16D4800688E
:100880000FE02020010591FAA1F1B1FA81F10843AE
:100890000221B1EB601F02D16648006A01E06548A1
:1008A000406A20210A0592FAA2F2B2FA82F21143BA
:1008B00001F01F0201219140084078BB01208BE725
:1008C0002020022191FAA1F1B1FA81F1084301211E
:1008D000B1EB601F02D15748006810E020200221D0
:1008E00091FAA1F1B1FA81F108430221B1EB601F45
:1008F00003D15048006A02E054E04E48406A20218B
:10090000022292FAA2F2B2FA82F2114301F01F021D
:1009100001219140084008B901205DE7FFE7454803
:10092000406820F003006168084342494860FFF7CF
:10093000BBFE06466068012810D108E0FFF7B4FE50
:10094000801B41F28831884201D9032044E73948AD
:10095000406800F00C000428F0D123E06068022811
:1009600010D108E0FFF7A0FE801B41F288318842D9
:1009700001D9032030E72F48406800F00C00082818
:10098000F0D10FE008E0FFF78FFE801B41F28831C5
:10099000884201D903201FE72648406800F00C0078
:1009A0000028F0D12248006800F00700A8420ED9C4
:1009B0001F48006820F0070028431D4908600846CA
:1009C000006800F00700A84201D0012004E7207869
:1009D00000F00400042807D11648406820F4E060C5
:1009E000E168084313494860207800F008000828AF
:1009F00008D11048406820F46050216940EAC100E5
:100A00000C49486000F022F80A49496801F0F001F9
:100A1000F02292FAA2F2B2FA82F2D140064A515C76
:100A2000C840064908600F20FFF758FE0020D3E6B3
:100A300000200240001002400C2A000800000020A4
:100A4000014800687047000000000020F0B585B044
:100A50000FF28C0C9CE8E01001A8A0E8E01024A59F
:100A60002D68009500210024002200230020214D44
:100A7000696801F00C056DB3042D02D0082D28D152
:100A800001E01D4828E001F470154FF4701696FA45
:100A9000A6F6B6FA86F6F54001AE735D01F4803530
:100AA00095B1144D6D6805F400354FF4003696FA93
:100AB000A6F6B6FA86F6F5401DF805400E4DB5FBD4
:100AC000F4F505FB03F202E00C4D03FB05F21046C2
:100AD00002E000BF084800BF00BF05B0F0BD000045
:100AE00002030405060708090A0B0C0D0E0F10106F
:100AF000010200000010024000127A0000093D00CF
:100B000038B504460025207800F0010000287CD08C
:100B1000F848406800F00C0004280CD0F548406804
:100B200000F00C00082837D1F248406800F480300B
:100B3000B0F5803F30D12020010391FAA1F1B1FA44
:100B400081F108430121B1EB601F02D1E94800683F
:100B50000FE02020010391FAA1F1B1FA81F10843DD
:100B60000221B1EB601F02D1E248006A01E0E148D6
:100B7000406A20210A0392FAA2F2B2FA82F21143E9
:100B800001F01F020121914008400028BFD0606899
:100B900000283AD1012038BD00BF6068B0F5803F21
:100BA00006D1D448006840F48030D249086028E07B
:100BB000606858B9CF48006820F48030CD4908609B
:100BC0000846006820F4802008601AE06068B0F5EC
:100BD000A02F0BD1C748006840F48020C5490860A9
:100BE0000846006840F4803008600AE0C1480068A8
:100BF00020F48030BF4908600846006820F4802057
:100C0000086000BF6068C8B300E06FE0FFF74CFD0C
:100C1000054606E0FFF748FD401B642801D9032084
:100C2000B9E72020010391FAA1F1B1FA81F108435B
:100C30000121B1EB601F02D1AE4800680FE0202017
:100C4000010391FAA1F1B1FA81F108430221B1EB5C
:100C5000601F02D1A748006A01E0A648406A20212F
:100C60000A0392FAA2F2B2FA82F2114301F01F02D1
:100C70000121914008400028CCD037E0FFE7FFF782
:100C800013FD054606E0FFF70FFD401B642801D960
:100C9000032080E72020010391FAA1F1B1FA81F14C
:100CA00008430121B1EB601F02D1924800680FE0B8
:100CB0002020010391FAA1F1B1FA81F10843022148
:100CC000B1EB601F02D18B48006A01E08948406A9D
:100CD00020210A0392FAA2F2B2FA82F2114301F041
:100CE0001F020121914008400028CCD1207800F05B
:100CF000020002284ED17F48406800F00C0050B13D
:100D00007C48406800F00C00082844D179484068CD
:100D100000F4803078BB2020022191FAA1F1B1FAD1
:100D200081F108430121B1EB601F02D171480068D5
:100D30000FE02020022191FAA1F1B1FA81F10843DC
:100D40000221B1EB601F02D16A48006A01E06948E4
:100D5000406A2021022292FAA2F2B2FA82F21143F0
:100D600001F01F0201219140084028B120690128AB
:100D700002D001200FE70EE05E48006820F0F80086
:100D8000F82292FAA2F2B2FA82F261699140084323
:100D90005849086091E02069F0B3012090FAA0F171
:100DA000B1FA81F1544A42F82100FFF77DFC054673
:100DB00006E0FFF779FC401B022801D90320EAE690
:100DC0002020022191FAA1F1B1FA81F10843012119
:100DD000B1EB601F02D1474800680FE020200221DC
:100DE00091FAA1F1B1FA81F108430221B1EB601F40
:100DF00002D14048006A01E03E48406A20210222B8
:100E000092FAA2F2B2FA82F2114301F01F0201211A
:100E100091400840002800E00FE0CAD03548006843
:100E200020F0F800F82292FAA2F2B2FA82F2616996
:100E3000914008432F4908603FE00020012191FACA
:100E4000A1F1B1FA81F12C4A42F82100FFF72CFC04
:100E5000054606E0FFF728FC401B022801D90320C5
:100E600099E62020022191FAA1F1B1FA81F108431B
:100E70000121B1EB601F02D11E4800680FE0202065
:100E8000022191FAA1F1B1FA81F108430221B1EBFB
:100E9000601F02D11748006A01E01648406A20210D
:100EA000022292FAA2F2B2FA82F2114301F01F0278
:100EB0000121914008400028CCD1207800F00800A2
:100EC00008284BD1A069A8B3012191FAA1F0B0FA8A
:100ED00080F0094A02EB8000C0F88014FFF7E4FBC1
:100EE00005460BE0FFF7E0FB401B022806D9032074
:100EF00051E6000000100240000042426020022142
:100F000091FAA1F1B1FA81F108430121B1EB601F1F
:100F100002D1F948006810E06020022191FAA1F1A5
:100F2000B1FA81F108430221B1EB601F03D1F2480D
:100F3000006A02E013E0F048406A6021022292FA5F
:100F4000A2F2B2FA82F2114301F01F020121914094
:100F500008400028C6D00120FFF7F3F941E0002047
:100F6000012191FAA1F1B1FA81F1E44A02EB810188
:100F7000C1F88004FFF798FB054606E0FFF794FBF5
:100F8000401B022801D9032005E66020022191FAC6
:100F9000A1F1B1FA81F108430121B1EB601F02D147
:100FA000D54800680FE06020022191FAA1F1B1FA62
:100FB00081F108430221B1EB601F02D1CE48006AE3
:100FC00001E0CD48406A6021022292FAA2F2B2FA10
:100FD00082F2114301F01F020121914008400028D4
:100FE000CCD1207800F00400042875D100BFC2489D
:100FF000C06940F08050C049C8610846C06900F02F
:101000008050009000BF00BFBD48006840F4807071
:10101000BB490860FFF748FB054606E0FFF744FBC5
:10102000401B642801D90320B5E5B548006800F4E9
:1010300080700028F2D000BFE068012806D1AE48D9
:10104000006A40F00100AC49086227E0E06858B946
:10105000A948006A20F00100A74908620846006A12
:1010600020F00400086219E0E06805280BD1A248CE
:10107000006A40F00400A04908620846006A40F097
:10108000010008620AE09C48006A20F001009A49C9
:1010900008620846006A20F00400086200BFE068A9
:1010A000D0B3FFF701FB054608E0FFF7FDFA401B50
:1010B00041F28831884201D903206CE540200221A9
:1010C00091FAA1F1B1FA81F108430121B1EB601F5E
:1010D00003D18948006810E058E04020022191FACD
:1010E000A1F1B1FA81F108430221B1EB601F02D1F5
:1010F0008148006A01E08048406A4021022292FA59
:10110000A2F2B2FA82F2114301F01F0201219140D2
:1011100008400028C9D039E0FFE7FFF7C5FA0546C7
:1011200008E0FFF7C1FA401B41F28831884201D93B
:10113000032030E54020022191FAA1F1B1FA81F1BA
:1011400008430121B1EB601F02D16B4800680FE03A
:101150004020022191FAA1F1B1FA81F10843022164
:10116000B1EB601F02D16448006A01E06248406A46
:101170004021022292FAA2F2B2FA82F2114301F065
:101180001F020121914008400028CAD1E0690028CF
:1011900073D05948406800F00C0008286ED0E06910
:1011A00002286CD100204FF0807191FAA1F1B1FAC0
:1011B00081F1524A42F82100FFF776FA054606E02F
:1011C000FFF772FA401B022801D90320E3E4202034
:1011D000010591FAA1F1B1FA81F108430121B1EBC6
:1011E000601F02D1444800680FE02020010591FAF9
:1011F000A1F1B1FA81F108430221B1EB601F02D1E4
:101200003D48006A01E03C48406A20210A0592FA04
:10121000A2F2B2FA82F2114301F01F0201219140C1
:1012200008400028CCD1206AB0F5803F07D1324871
:10123000406820F40030A16808432F494860D4E991
:10124000080108432C49496821F4741108432A49CC
:1012500048600121080690FAA0F0B0FA80F0274A11
:1012600042F82010FFF720FA054609E0FFF71CFAC4
:10127000401B022804D903208DE479E076E02CE0BD
:101280002020010591FAA1F1B1FA81F10843012171
:10129000B1EB601F02D1184800680FE02020010563
:1012A00091FAA1F1B1FA81F108430221B1EB601F7B
:1012B00002D11148006A01E00F48406A20210A0566
:1012C00092FAA2F2B2FA82F2114301F01F02012156
:1012D000914008400028C9D04AE000204FF08071BA
:1012E00091FAA1F1B1FA81F1044A42F82100FFF725
:1012F000DBF905460DE0000000100240000042420C
:1013000000700040FFF7D0F9401B022801D90320EC
:1013100041E42020010591FAA1F1B1FA81F10843DD
:101320000121B1EB601F02D1124800680FE02020BC
:10133000010591FAA1F1B1FA81F108430221B1EB63
:10134000601F02D10B48006A01E00A48406A202170
:101350000A0592FAA2F2B2FA82F2114301F01F02D8
:101360000121914008400028CCD101E0012012E485
:10137000002010E400100240042808D14FF0E021C2
:10138000096941F004014FF0E022116107E04FF0DC
:10139000E021096921F004014FF0E022116170475A
:1013A00070B504462546681EB0F1807F01D3012048
:1013B0000FE0681E4FF0E02148610F214FF0FF3031
:1013C00000F052F900204FF0E02188610720086109
:1013D000002070BD7047014691F839007047F8B59C
:1013E0000446002500262068006800F001052068FA
:1013F000C06800F4807625B11EB1E06B40F00100BA
:10140000E06320680068C0F340052068406900F090
:10141000010625B11EB1E06B40F00400E0632068D6
:101420000068C0F3800525B11EB1E06B40F00200FA
:10143000E06320680068C0F3C00525B11EB1E06B11
:1014400040F00800E06320680068C0F340152068A1
:10145000C06800F020061DB116B1204601F004F965
:1014600020680068C0F3C0152068C06800F08006DE
:101470001DB116B1204601F055F920680068C0F38F
:1014800080152068C06800F040061DB116B12046E6
:1014900001F0D2F8E06B70B100BF206800680090E6
:1014A00020684068009000BF00BF012084F8390028
:1014B0002046FFF78FFFF8BD30B50346002493F8B0
:1014C0003940012C01D0122C37D101B10AB90120C9
:1014D00030BD00BF93F83800012801D10220F7E7A2
:1014E000012083F8380000BF99629A85DA850020D0
:1014F000D86393F83900122803D1322083F83900D9
:1015000002E0222083F8390000BF002083F8380071
:1015100000BF1868C06840F480701D68E8601868F3
:10152000406940F001001D6868611868C06840F0BB
:1015300020001D68E8600020CAE70220C8E700001C
:101540001D4A0168914236D11C49098801F40041C5
:1015500089BB1A49098801F4804171B11849097899
:101560000A2903D00021154A118024E01349098873
:1015700041F40041114A11801DE0114909780D29FB
:1015800006D10E49098841F480410C4A118012E0CD
:101590000B490978094A1288C2F30D02094B995484
:1015A00006490988491C054A118011460988C7293E
:1015B00001DD002111807047003801401400002037
:1015C0001600002068060020704700BFFEE70000FC
:1015D00000B585B000BF1B48806940F0080019497C
:1015E00088610846806900F00800009000BF00BFD5
:1015F00000BF0846806940F0400088610846806965
:1016000000F04000009000BF00BF202001900120AA
:10161000029003900320049001A90B48FEF79EFE60
:101620002020019001A90948FEF798FE01222021FF
:101630000548FFF733F8012220210448FFF72EF870
:1016400005B000BD00100240000C01400018014030
:1016500000BFFEE77047000002480068C0F30220A8
:10166000704700000CED00E010B5002807DA0A070B
:10167000140E054A00F00F031B1FD45403E00A07A1
:10168000130E024A135410BD18ED00E000E400E010
:1016900010B500F013F800F0CBFC00F0F7FC00F000
:1016A00017FD00F095FC00F055FC00F0ABFD00F0DC
:1016B0004FFD00F075FD00F019F810BD08488021BD
:1016C00002E0491E002204C00029FAD1054A064B57
:1016D0001A601A46126822F007021A60704700006A
:1016E0009016002090180020640000207047000031
:1016F00006480078012808D105480078FF2804D260
:1017000003480078401C0249087070473E000020E2
:101710003100002010B500241A480078012830D18B
:10172000FEF774FD04461848007820B1164800788A
:10173000401E1549087014480078F8B9134800781D
:10174000E0B900F0C1FD12481249097850F82100B3
:10175000114908600F4800781049097888420DD077
:101760000D480068C06B401C0B490968C8630C48F1
:101770000068401C0A490860FEF768FD2046FEF735
:1017800049FD10BD3E000020310000203200002045
:10179000A00D0020340000204C0000203300002069
:1017A0001800002010B500240B480078012811D142
:1017B000FEF72CFD04460948007840B90848007837
:1017C000FF2804D206480078401C054908702046CE
:1017D000FEF720FD10BD00003E000020310000207B
:1017E0003200002010B5002413480078012821D1D0
:1017F000FEF70CFD044611480078C0B91048007887
:1018000088B10F480078401E0D49087008460078DE
:1018100028B92046FEF7FEFC00F01CFD0AE0204639
:10182000FEF7F8FC06E02046FEF7F4FC02E0204656
:10183000FEF7F0FC10BD00003E000020310000204B
:101840003200002010B50B48007890B900F03CFD44
:10185000094800780949087009480749097850F88B
:101860002100084908600846006807490860FEF73B
:10187000D4FC10BD3E0000203400002033000020C6
:10188000A00D00204C0000204400002010B50024D2
:10189000022000F073FAFEF7B9FC044600200B4961
:1018A00008602046FEF7B6FC642000F067FAFEF7F9
:1018B000ADFC04460548006805490860012005495B
:1018C00008702046FEF7A6FC10BD00004000002076
:1018D000280000203000002010B504462046FEF706
:1018E00025FD10BD2DE9F04F85B081468A4693460F
:1018F0001C46DDE90F78129D00200390FEF786FC60
:1019000003902348007830B10398FEF783FC3C2015
:1019100005B0BDE8F08F1F4850F8240088BB0120B7
:101920001C4941F824000398FEF774FC2A464146FE
:10193000384600F00DFE2B465A465146484600F008
:1019400073F904901198CDE9008002953A4620463B
:101950000E9B049900F0CEFC064636B90E4800787E
:1019600001280CD100F076FC09E0FEF74FFC039053
:101970000020084941F824000398FEF74BFC30464C
:10198000C6E7FFE70398FEF745FC2820C0E7000004
:1019900031000020A00D00203E00002010B50446BC
:1019A0002046FEF7C4FC10BD2DE9F0410546002796
:1019B0004A48007810B14020BDE8F0813F2D01D1A8
:1019C0003E20F9E7FEF722FC0746FF2D03D14448ED
:1019D000006890F83650434850F8254024B93846FE
:1019E000FEF718FC4320E7E7012C04D13846FEF748
:1019F00011FC3D20E0E714F8380F3B49085C6178A2
:101A000088432178384A505414F838091146085C44
:101A100030B994F83A103548007888433349087053
:101A2000E06918B12046E16900F05FFA206A18B158
:101A30002046216A00F070FAA66A16B1304600F01E
:101A4000B5FA0020206384F8340084F83500284873
:101A50000078FF2804D226480078401C24490870EA
:101A60003846FEF7D7FB00F03FFAFEF7CFFB0746FC
:101A70001F48007820B11E480078401E1C4908709D
:101A8000204600F041F81B480078401E19490870B4
:101A90000020144941F82500A06930B9002061698F
:101AA000886115496069086005E0D4E9050148616D
:101AB000D4E9051088611148006860610F4804602E
:101AC0000FA020653846FEF7A5FB0E4800780128D8
:101AD00001D100F0BFFB00206EE7000031000020C4
:101AE00044000020A00D002036000020350000201A
:101AF000320000203F00002050000020480000205D
:101B00003F0000003E00002010B504462046FEF7CE
:101B10000FFC10BD10B5FEF70CFC10BD2DE9F04117
:101B200006460F4614464FF000081548007818B1D5
:101B300012202070BDE8F081FEF768FB8046FF2E82
:101B400003D11048006890F836600F4850F82650CE
:101B50002DB94046FEF75EFB43202070EAE7012DD9
:101B600005D14046FEF756FB43202070E2E72F6583
:101B70004046FEF74FFB0020207000BFDAE7000070
:101B80003100002044000020A00D002010B50446C4
:101B90002046FEF7CFFB10BD10B5FEF7CCFB10BD05
:101BA0002DE9F04707460D464FF0000A0020286057
:101BB0006860FEF72BFB8246FF2F03D118480068B0
:101BC00090F83670174850F827402CB95046FEF769
:101BD00021FB4320BDE8F087012C04D15046FEF7DD
:101BE00019FB4320F6E7207C00F0010020B95046A5
:101BF000FEF710FB4520EDE70026D4F80C90D4F852
:101C000008805046FEF706FB00E0761C58F8041BDF
:101C10000029FAD02E60A9EB060068600020D9E701
:101C200044000020A00D002070B50446101D20F0D7
:101C300007004FF08076051F28462E60051F2846B6
:101C40002C60214E051F28462E604FF01236051FCE
:101C500028462E604FF00336051F28462E604FF0B1
:101C60000236051F28462E607610051F28462E6076
:101C7000051F284629604FF01136051F28462E60A3
:101C80004FF01036051F28462E604FF00936051F0D
:101C900028462E604FF00836051F28462E604FF06C
:101CA0000736051F28462E604FF00636051F2846CA
:101CB0002E604FF00536051F28462E604FF0043683
:101CC000051F28462E6070BD5D2400082DE9F041F7
:101CD00005464FF00008FEF799FA8046FF2D05D122
:101CE0002048006890F83650012608E01D4800683A
:101CF00090F83600A84201D1012600E000261A48DB
:101D000050F825402CB94046FEF784FA4820BDE83B
:101D1000F081012C04D14046FEF77CFA4320F6E71F
:101D200094F838701148C05D94F8391088430F4911
:101D3000C8550846C05D30B994F83A100C48007890
:101D400088430B49087094F8340040F0080084F888
:101D500034004046FEF75EFA012E01D100F07AFA17
:101D60000020D4E744000020A00D00203600002011
:101D70003500002010B5FEF7DFFA10BD70B505463E
:101D800000261748007800B170BD1648007800B1F1
:101D9000FAE71DB3FEF73AFA06461348006890F8D2
:101DA00038401248005D1049096891F8391088439D
:101DB0000E4908550846005D40B90B48006890F888
:101DC0003A100B48007888430949087006480068B3
:101DD00005633046FEF71EFA00F03CFA00BFD3E779
:101DE0003100002032000020440000203600002096
:101DF0003500002070B5002600F072F8FEF706FAF4
:101E0000064631480068401C2F4908603046FEF7FE
:101E100001FA2E480078012853D12D48007820B1CE
:101E2000012804D0022809D103E001250BE0002598
:101E300009E0012501202649087004E00125002061
:101E40002349087000BF00BF05B970BD2148046870
:101E500033E0FEF7DBF90646206B50B3206B401EE3
:101E60002063206B28BB94F8340000F0370040B1A9
:101E700014F8340F00F0C800207001206070343C6A
:101E800002E0002084F8350094F8340000F00800E7
:101E900078B93834A0781049097808430E49087099
:101EA00020780E49085C6178084314F838190B4A09
:101EB000505464693046FEF7ADF994F836003F2877
:101EC000C7D100BFC1E70000600000203E00002035
:101ED0005400002050000020350000203600002073
:101EE00010B5FEF72AFA10BD704710B590F83820EB
:101EF00001F10B039B5C90F83940A34301F10B0403
:101F0000A35423469B5C23B98B7A90F83A40A343B1
:101F10008B720023C36110BDF0B5024612F8384F32
:101F200095785678383A0B4618680FE000F10B07A1
:101F30003F5DB74300F10B0C0CF8047067463F5D42
:101F400017B9877AAF4387721B1D18680028EDD137
:101F5000F0BD00002DE9F0415021114800F048F992
:101F600000250DE0681C86B20D4800EB051400EB5F
:101F700006170020207067600AA0E060681C85B228
:101F8000042DEFD3064800EB05140020207060609C
:101F900004A0E060024804490860BDE8F081000048
:101FA000500900203F0000002000002030B501460D
:101FB0004A6808682AB9CC68606028B10025456085
:101FC00002E0106000B142608B6800259D6230BD68
:101FD00070B54FF4F071134800F00AF9002411E0D5
:101FE000601C85B204EB44000E4901EBC00305EB15
:101FF000450001EBC006002018705E600AA0586121
:10200000601C84B2132CEBD304EB4400054901EBB4
:10201000C00300201870586003A0586108460349A7
:10202000086070BD700700203F0000001C00002009
:1020300000200B4908600B4908700B4908700B49D8
:1020400008700B4908700B4908600B4908600B4980
:1020500008600B4908600B4908700B49087070470D
:102060006000002031000020320000203F000020EE
:102070003E00002018000020400000202C0000201E
:1020800028000020300000205C00002000210A4AC7
:102090001170002004E00021084A1154411CC8B20C
:1020A0000828F8D30021064A1170064A1170064A22
:1020B0001160064A1160704735000020360000208C
:1020C00033000020340000204C0000204400002099
:1020D00070B54FF4F261194800F08AF84FF480713E
:1020E000174800F085F8002413E0601CC5B204EB2B
:1020F000440000EBC400114901EBC00305EB4500AF
:1021000000EBC50001EBC0065E610EA01865601C07
:10211000C4B2152CE9D304EB440000EBC40007491A
:1021200001EBC0030020586106A018650020064995
:10213000086002480549086070BD0000A00E00203C
:10214000A00D00203F0000005000002048000020AB
:1021500000B587B00320002180220A4BCDE901326F
:10216000CDE903104FF6FF703F23074A0090074860
:10217000FFF7B8FB06AA06A13F20FFF7CFFC07B088
:1021800000BD0000A00B00209C0D0020352400089D
:1021900075432F4F532D49492049646C6500000059
:1021A00000B587B00320002180220A4BCDE901321F
:1021B000CDE903104FF6FE703E23074A0090074812
:1021C000FFF790FB06AA06A13E20FFF7A7FC07B089
:1021D00000BD0000A00900209C0B00207524000811
:1021E00075432F4F532D49492053746174000000EB
:1021F00004E0002200F8012B4A1E91B20029F8D118
:10220000704700002DE9F04160211048FFF7F0FF12
:1022100000240DE0601C86B204EB44000B4901EB86
:10222000C00506EB460001EBC0072F60601C84B2BE
:10223000032CEFD304EB4400044901EBC00500205C
:102240002860084602490860BDE8F0813016002089
:102250005800002010B50024FDF7D8FF04461348AD
:102260000078F8B912480078E0B900F02DF811486C
:102270001149097850F82100104908600E4800788B
:102280000F49097888420DD00C480068C06B401C8B
:102290000A490968C8630B480068401C094908607E
:1022A000FDF7CFFF2046FDF7B5FF10BD3100002040
:1022B00032000020A00D0020340000204C0000203F
:1022C00033000020180000200649074A1278885C75
:1022D0000649095C034A515C01EBC001044A1170D4
:1022E00070470000242A0008350000203600002036
:1022F000340000202DE9F84F05460F4690469946D8
:10230000DDE90AAB00200090FDF780FF0090424815
:102310000468002C7BD01C3454F8080C3E4908603B
:102320000098FDF777FF44F81C7CA5760020207606
:102330006076606144F818BC44F810AC44F8148C22
:102340000C9824F80C0C24F80A9C0020E077E81084
:10235000207705F00700E076217F01208840A077F4
:10236000E17E012088406077002020606060E060AE
:10237000A0602062A0626062E062206327A06063C8
:102380001C3C002606E0002104F1540040F8261011
:10239000701CC6B2002EF6D02046FFF79DFAFDF75E
:1023A00035FF00901E4840F825400098FDF732FFA9
:1023B0002046FFF7F3FAFDF729FF0090194800685F
:1023C00060610020A0611748006810B115480068DE
:1023D0008461144804603834A078134909780843AC
:1023E0001149087020781149085C6178084314F895
:1023F00038190E4A50540E480078401C0C49087099
:102400000098FDF707FF0020BDE8F88FFFE7009870
:10241000FDF700FF4220F7E7480000203F000000E2
:10242000A00D0020500000203500002036000020C4
:102430003F000020002400BF00BFFDF7E7FE044678
:1024400005480068401C044908602046FDF7E2FE8C
:10245000FFF760FBF1E700004000002010B50448E2
:102460000068FFF793FBFF20FFF79EFA10BD000006
:102470004400002000BF00BF02E0C820FFF77EFC40
:102480001F4800780028F8D01E4800686421B0FB7F
:10249000F1F01C4908600846006828B900201A4974
:1024A0000870FF20FFF712FCFDF7B0FE0446154848
:1024B000006864214843154908602046FDF7AAFEDC
:1024C00000BFFDF7A3FE04461048006810490860ED
:1024D00000200E4908602046FDF79CFE0C4800686D
:1024E00008490968B0FBF1F0C0F1640006490870C2
:1024F000FFF752FB00F00EF86420FFF73FFCE0E727
:10250000300000202800002024000020400000208F
:102510002C0000207CB5002514E069462846FFF712
:102520003FFB064666B9094850F8254044B1012CE6
:1025300006D0D4E9020100EB8100A0640198E064B8
:10254000681CC5B23F2DE8D97CBD0000A00D00205D
:1025500002F0010343B102F002032BB102E0491E75
:10256000002308C00029FAD17047704730B58FB0FA
:1025700005460024012005900004069000200790E5
:1025800002200C90C1030D910E9505A8FEF7B8FA34
:1025900004460CB100BFFEE70F200090022001901E
:1025A000002002904FF480600390002004900221EC
:1025B0006846FEF7F9F804460CB100BFFEE70FB01D
:1025C00030BD000010B505480078012805D1FFF79F
:1025D0008FF8FFF70FFCFFF79DF810BD3E000020BD
:1025E0001148006840F001000F4908600846406843
:1025F0000E4908400C494860084600680C490840EC
:10260000094908600846006820F4802008600846F0
:10261000406820F4FE0048604FF41F008860C80343
:102620000449086070470000001002400000FFF8F5
:10263000FFFFF6FE08ED00E010B504462068C06814
:1026400020F040002168C86094F83900322803D196
:10265000222084F8390002E0012084F83900204665
:10266000FEF7B2FF002010BD70B50446002694F8B6
:102670003960222E01D0322E52D1A068B0F5805F91
:1026800013D1A56A206940B920684068C0F30800EA
:102690002880A06A801CA06219E020684068C0B24F
:1026A0002880A06A401CA06211E0206938B9206827
:1026B0004068C1B2A26A501CA062117007E0206895
:1026C000406800F07F01A26A501CA0621170E08D8A
:1026D000401E80B2E08508BB2068C06820F0200062
:1026E0002168C86094F83900322803D1122084F898
:1026F00039000EE02068C06820F480702168C8604E
:102700002068406920F0010021684861012084F8B8
:1027100039002046FEF714FF002070BD0020FCE7C2
:102720000220FAE710B50146002391F83930122B48
:1027300001D0322B2CD18868B0F5805F0FD10A6AA6
:102740001088C0F308000C686060086918B9086A4E
:10275000801C086209E0086A401C086205E00C6AF7
:10276000601C086220780C686060C88C401E80B2D3
:10277000C88458B90868C06820F080000C68E06020
:102780000868C06840F040000C68E060002010BDA0
:102790000220FCE710B50024FEF7AAFF0D48FEF763
:1027A0001EFE00BF01E0641C00BF0A48FEF713FED6
:1027B0000128F8D100BF002401E0641C00BF012201
:1027C00005490448FEF778FE0028F6D100BFFEF761
:1027D000A1FF10BD300700201600002000BFFEE75B
:1027E00000BF704770B504460420FEF7C5FD0C48D5
:1027F000046025464FF47A7045430120094908805A
:102800004FF0E020006940F002004FF0E021086145
:1028100008464561006940F00100086170BD000094
:10282000080000200C00002070B504460F48007816
:10283000A0B10F48007888B90E480088844206DBB2
:102840000C48008894FBF0F5284600F01DF8094874
:10285000008894FBF0F100FB114084B24FF47A71D0
:1028600004FB01F000F016F870BD00003E000020EF
:10287000310000200C00002010B5FEF793FF10BDC2
:1028800010B5FEF7AFFF10BD10B504462046FFF7A8
:1028900075FA10BD2DE9F047074600264FF0E020FD
:1028A000D0F814901048006807FB00F8FFF7E4FF29
:1028B0004FF0E020856911E04FF0E0208469AC42E0
:1028C0000CD0AC4202D2281B064403E0A9EB040062
:1028D000284406442546464500D300E0ECE700BF07
:1028E000FFF7CEFFBDE8F087080000200DE00020D4
:1028F000064908605020FFF797FF01200449C1F8FE
:1029000094014FF46670FFF78FFFF0E79481214246
:10291000008021420EE00020074908604FF49670C5
:10292000FFF782FF01200549C1F894014FF496702A
:10293000FFF77AFFEFE700009401234200002342F3
:1029400000B585B0FDF7B6FE4FF4E010FFF70EFEC0
:102950004820FFF747FFFEF73BFEFEF799FE0720F2
:1029600000218022084BCDE90132CDE903100A2075
:102970000346064A00900648FEF7B4FFFEF762FFE2
:10298000002005B000BD00006800002064020020A7
:102990009529000830B585B00446002500BFFEF734
:1029A00075FFFDF733FC0546072000218022114BFF
:1029B000CDE90310CDE90132009003460E4A0F48DD
:1029C000FEF790FF0720002180220D4BCDE9013258
:1029D000CDE90310062003460A4A00900A48FEF794
:1029E00081FF2846FDF716FC0A20FFF76FF905B0B6
:1029F00030BD00006802002064040020ED280008BB
:102A0000680400206406002015290008000000006A
:102A1000000000000102030406070809000000008E
:102A20000102030400000100020001000300010094
:102A30000200010004000100020001000300010087
:102A40000200010005000100020001000300010076
:102A50000200010004000100020001000300010067
:102A60000200010006000100020001000300010055
:102A70000200010004000100020001000300010047
:102A80000200010005000100020001000300010036
:102A90000200010004000100020001000300010027
:102AA0000200010007000100020001000300010014
:102AB0000200010004000100020001000300010007
:102AC00002000100050001000200010003000100F6
:102AD00002000100040001000200010003000100E7
:102AE00002000100060001000200010003000100D5
:102AF00002000100040001000200010003000100C7
:102B000002000100050001000200010003000100B5
:102B100002000100040001000200010003000100A6
:102B200002000100442B00080000002068000000A3
:102B30006C010008AC2B000868000020881E000013
:102B40008801000800A24A04000000000000000004
:102B50000000000000000000000000000000000075
:102B60000000000000000000000000000000000065
:102B70000000000000000000000000000000000055
:102B80000000000000000000000000000000000045
:102B90000000000000000000000000000000000035
:0C2BA00000000000000000000000000029
:0400000508000131BD
:00000001FF
