:020000040800F2
:10000000780B0020CD0100089F1000082B1000087D
:100010009D1000087D020008FD1700080000000088
:10002000000000000000000000000000BF140008F5
:100030007F02000800000000BD140008051500083C
:10004000E7010008E7010008E7010008E7010008F0
:10005000E7010008E7010008E7010008E7010008E0
:10006000E7010008E7010008E7010008E7010008D0
:10007000E7010008E7010008E7010008E7010008C0
:10008000E7010008E7010008E7010008E7010008B0
:10009000E7010008E7010008E7010008E7010008A0
:1000A000E7010008E7010008E7010008E701000890
:1000B000E7010008E7010008E7010008E701000880
:1000C000E7010008E7010008E7010008E701000870
:1000D000E7010008D1170008E7010008E701000860
:1000E000E7010008E7010008E7010008E701000850
:1000F000E7010008E7010008E7010008E701000840
:10010000E7010008E7010008E7010008E70100082F
:10011000E7010008E7010008E7010008E70100081F
:10012000E7010008E7010008E7010008E70100080F
:1001300000F002F800F03AF80AA090E8000C8244BF
:100140008344AAF10107DA4501D100F02FF8AFF29C
:10015000090EBAE80F0013F0010F18BFFB1A43F0A5
:10016000010318471430000034300000103A24BF57
:1001700078C878C1FAD8520724BF30C830C144BF0C
:1001800004680C607047000000230024002500264E
:10019000103A28BF78C1FBD8520728BF30C148BFEA
:1001A0000B6070471FB51FBD10B510BD00F033F8D0
:1001B0001146FFF7F7FF01F055FB00F051F803B4CB
:1001C000FFF7F2FF03BC01F01AFB0000094880476B
:1001D00009480047FEE7FEE7FEE7FEE7FEE7FEE729
:1001E000FEE7FEE7FEE7FEE704480549054A064B41
:1001F000704700000915000831010008780500204B
:10020000780B00207807002078070020704770479F
:10021000704770477047754600F02CF8AE460500F1
:100220006946534620F00700854618B020B5FFF711
:10023000DBFFBDE820404FF000064FF000074FF015
:1002400000084FF0000B21F00701AC46ACE8C009F4
:10025000ACE8C009ACE8C009ACE8C0098D467047FD
:1002600010B50446AFF300802046BDE81040FFF70C
:10027000A6BF00000048704718050020FEE7704741
:1002800031B500F005F9044600F002F90099001BB1
:100290008842F9D338BD00002DE9F84FDFF8BC9152
:1002A000002309F1040A0AF1040B1C464FF00F0861
:1002B0000BF1040E01270A68A7403A40BA4272D1F6
:1002C000DFF89CC14D68A5EB0C0665452BD00DDC15
:1002D000032D34D005DC35B3012D19D0022D2FD1DB
:1002E0001BE0112D16D0122D2AD119E0B6F5881F6A
:1002F00019D006DCB6F5803F15D0B6F5801F1FD1AA
:1003000011E0B6F5001F0ED0B6F5041F18D10AE0B3
:10031000CB6815E0CB681B1D12E0CB6808330FE0FB
:10032000CB680C330CE08B682BB1012B4FF008032A
:1003300003D0476104E0042302E0076100E00023EA
:10034000FF2A01D8064601E000F104064FEA8405C1
:1003500001D9A5F12005376808FA05FC27EA0C0742
:1003600003FA05F547EA050737604D68ED006ED5DD
:100370003C4DAE6946F00106AE61AD6924F003065E
:1003800005F001050095384D7719BE68A5072D0FBA
:1003900008FA05FC26EA0C06DFF8D0C0604503D158
:1003A0004FF0000C25E052E0DFF8C4C0604502D1F8
:1003B0004FF0010C1DE0DFF8BCC0604502D14FF0EA
:1003C000020C16E0DFF8B0C0604502D14FF0030C1C
:1003D0000FE0DFF8A8C0604502D14FF0040C08E040
:1003E000DFF89CC0604502D14FF0050C01E04FF0F2
:1003F000060C0CFA05FC4CEA060CC7F808C04D6860
:10040000D9F80060ED034D4601D5164300E0964350
:100410002E604D68DAF80060AD03554601D51643ED
:1004200000E096432E604D68DBF80060ED025D460B
:1004300001D5164300E096432E604D68DEF800605B
:10044000AD02754601D5164300E096432E60641C4C
:10045000102CFFF42FAFBDE8F88F0000000401401E
:10046000000011100010024000000140000801408F
:10047000000C014000100140001401400018014030
:10048000001C01400AB1016170470904FBE700004C
:10049000014800687047000004000020024801681D
:1004A000491C01607047000004000020074810B597
:1004B000016841F010010160052000F047F80F20AD
:1004C00000F006F800F015F8002010BD00200240F2
:1004D00010B5044600F00CF94FF47A71B0FBF1F05E
:1004E00000F049FC00222146501E00F00FF80020C9
:1004F00010BD704700F01F020121914040098000AB
:1005000000F1E020C0F8001170470000F0B40E4B7D
:100510001B68C3F30223C3F10704042C00D904248D
:100520001D1D072D01D2002300E0DB1E012606FA67
:1005300004F56D1E0D409D409E40761E164045EA16
:100540000601F0BC00F0ACBD0CED00E0064A00F086
:10055000070110684FF6FF03184040EA01200349E5
:1005600008431060704700000CED00E00000FA0541
:100570002DE9F047DFF8688104460E46D8F8000000
:1005800000F00700B0420CD2D8F8001021F00701AB
:100590003143C8F80010D8F8000000F00700B0425E
:1005A00073D120784F4F800705D57868A16820F077
:1005B000F000084378602078C00755D060680122B9
:1005C00001280CD0022828D0022393FAA3F1B1FA13
:1005D00081F141F02001490904D0396803E04FF46A
:1005E0000033F2E7796A93FAA3F3B3FA83F303F0E3
:1005F0001F039A40114248D0796821F0030101435A
:100600007960FFF745FF0546606841F288310128AF
:100610000CD00228894615D022E04FF00073D4E7B1
:10062000FFF736FF411B494501D916E08946786836
:10063000C0F381000128F3D116E0FFF729FF411B29
:1006400049450AD87868C0F381000228F5D10BE04B
:10065000FFF71EFF411B494502D90320BDE8F08783
:10066000786810F00C0FF3D1D8F80010404601F074
:100670000701B1420BD9016821F007013143016044
:10068000006800F00700B04201D00120E6E72078C2
:10069000400705D57868E16820F4E0600843786099
:1006A0002078000706D57868216920F4605040EA78
:1006B000C100786000F052F87968F02292FAA2F254
:1006C00001F0F001B2FA82F2D140074A515CC84011
:1006D000064908600F20FFF7FBFE0020BEE7000080
:1006E0000020024000100240A01900080000002075
:1006F00001480068704700000000002008480949D0
:10070000006849684FF4E06292FAA2F201F4E061F5
:10071000B2FA82F2D140044A515CC84070470000EE
:100720000000002000100240B019000808480949E4
:10073000006849684FF4605292FAA2F201F46051E5
:10074000B2FA82F2D140044A515CC84070470000BE
:100750000000002000100240B019000810B519A0D8
:1007600085B00FC88DE80F001AA01B4B00680490DD
:1007700059681A4801F00C02042A1DD0082A1BD11E
:100780004FF4701494FAA4F401F47012B4FA84F4DF
:10079000E240C9031DF8022010D559684FF4003318
:1007A00093FAA3F301F40031B3FA83F3D94004AB15
:1007B000595CB0FBF1F0504305B010BD0848504300
:1007C000FAE7000002030405060708090A0B0C0DEE
:1007D0000E0F1010010200000010024000127A00FB
:1007E00000093D002DE9F84F04460078FE4EC00791
:1007F0004FF001057FD070684FF40038C0F38100DE
:10080000012807D07068C0F3810002281BD17068EE
:10081000C00318D598FAA8F0B0FA80F040F0200094
:10082000400901D0306800E0706A98FAA8F1B1FA86
:1008300081F101F01F0105FA01F108425BD0606807
:10084000002879D057E06068B0F5803F0BD010B138
:10085000B0F5A02F11D0306820F4803030603068BF
:1008600020F4802002E0306840F48030306060681E
:1008700018B3FFF70DFE074609E0306840F480200A
:100880003060F0E7FFF704FEC01B642870D898FAC8
:10089000A8F0B0FA80F040F02000400901D03068A4
:1008A00000E0706A98FAA8F1B1FA81F101F01F0135
:1008B00005FA01F10842E5D01DE0FFF7E9FD074622
:1008C00004E0FFF7E5FDC01B6428DFD898FAA8F024
:1008D000B0FA80F040F02000400901D0306800E01C
:1008E000706A98FAA8F1B1FA81F101F01F0105FAD6
:1008F00001F10842E5D12078DFF8F08280074FF05F
:10090000000A4FF002075AD570684FF0F80B10F04C
:100910000C0F07D07068C0F3810002281CD17068EA
:10092000C00319D497FAA7F0B0FA80F040F0200085
:10093000400902D0306801E08AE0706A97FAA7F1B6
:10094000B1FA81F101F01F0105FA01F108422BD043
:10095000206901287CD127E0206988B395FAA5F0A9
:10096000B0FA80F048F82050FFF792FD814606E08B
:100970004DE1FFF78DFDA0EB0900022886D897FA1C
:10098000A7F0B0FA80F040F02000400901D03068B4
:1009900000E0706A97FAA7F1B1FA81F101F01F0146
:1009A00005FA01F10842E4D030689BFAABF220F07E
:1009B000F8016069B2FA82F290400143316025E0AB
:1009C000FFE795FAA5F1B1FA81F148F821A0FFF708
:1009D0005FFD814605E0FFF75BFDA0EB0900022803
:1009E000CCD897FAA7F0B0FA80F040F02000400988
:1009F00001D0306800E0706A97FAA7F1B1FA81F18E
:100A000001F01F0105FA01F10842E4D12078000746
:100A10006DD5A069B8B395FAA5F0B0FA80F008EBEF
:100A20008000C0F88054FFF733FD814605E0FFF7F2
:100A30002FFDA0EB09000228A0D897FAA7F0B0FA82
:100A400080F040F06000B5EB501F02D130680CE040
:100A500063E197FAA7F0B0FA80F040F06000B7EBDE
:100A6000501F01D1306A00E0706A97FAA7F1B1FA1D
:100A700081F101F01F0105FA01F21042D7D00120E7
:100A8000FFF7FEFB33E0FFE795FAA5F1B1FA81F13C
:100A900008EB8101C1F880A4FFF7FAFC814605E06C
:100AA000FFF7F6FCA0EB0900022899D897FAA7F007
:100AB000B0FA80F040F06000B5EB501F01D1306813
:100AC0000BE097FAA7F0B0FA80F040F06000B7EBC7
:100AD000501F01D1306A00E0706A97FAA7F1B1FAAD
:100AE00081F101F01F0105FA01F21042D8D12078FE
:100AF000400763D5F06940F08050F061F069DFF89D
:100B0000F0B000F080500090DBF8001041F48071EC
:100B1000CBF80010FFF7BCFC814605E0FFF7B8FCFE
:100B2000A0EB0900642872D8DBF80000C005F5D5F9
:100B3000E06801280AD008B1052813D0306A20F0F7
:100B400001003062306A20F0040002E0306A40F0B8
:100B500001003062E06841F2883B80B3FFF798FC07
:100B600081460AE0306A40F004003062EEE7FFF7A9
:100B70008FFCA0EB0901594549D897FAA7F0B0FAC4
:100B800080F040F04000B5EB501F01D130680BE021
:100B900097FAA7F0B0FA80F040F04000B7EB501F92
:100BA00001D1306A00E0706A97FAA7F1B1FA81F1D9
:100BB00001F01F0205FA02F10842D8D033E0FFE746
:100BC000FFF766FC814605E0FFF762FCA0EB090138
:100BD00059451CD897FAA7F0B0FA80F040F04000D1
:100BE000B5EB501F08D105E0001002400000424262
:100BF0000070004030680CE097FAA7F0B0FA80F07F
:100C000040F04000B7EB501F02D1306A01E08AE0AB
:100C1000706A97FAA7F1B1FA81F101F01F0205FAA3
:100C200002F10842D0D1E06998B37168C1F3810143
:100C3000022972D002284FF080714FF0007B50469D
:100C40000AD091FAA1F1B1FA81F148F82100FFF739
:100C50001FFC04465F4669E08A4691FAA1F1B1FAA9
:100C600081F1C14648F82100FFF712FCA84607466B
:100C70005D4604E0FFF70CFCC01B022853D895FA30
:100C8000A5F0B0FA80F040F02000400902D03068B2
:100C900001E060E0706A95FAA5F1B1FA81F101F026
:100CA0001F0208FA02F10842E4D1206AB0F5803F41
:100CB00005D17068A16820F4003008437060D4E961
:100CC00008010843716821F47411084370609AFAAE
:100CD000AAF0B0FA80F0474649F82080FFF7D8FB29
:100CE000044604E0FFF7D4FB001B02281BD895FA4A
:100CF000A5F0B0FA80F040F02000400901D0306843
:100D000000E0706A95FAA5F1B1FA81F101F01F01D6
:100D100007FA01F10842E5D01DE01EE0FFF7B8FB3D
:100D2000001B022802D90320BDE8F88F97FAA7F02C
:100D3000B0FA80F040F02000400901D0306800E0B7
:100D4000706A97FAA7F1B1FA81F101F01F0105FA73
:100D500001F10842E2D10020E6E70120E4E74FF08C
:100D6000E0210428086903D020F0040008617047DE
:100D700040F00400FAE710B5401EB0F1807F01D3C7
:100D8000012010BD4FF0E02460610F21601700F0DA
:100D900087F90020A06107202061002010BD704766
:100DA00090F83900704738B5044600680168C26899
:100DB000C1F3000102F4807221B11AB1E16B41F07C
:100DC0000101E1630168C1F34002416901F00101E1
:100DD00022B119B1E26B42F00402E2630268C2F38D
:100DE000800222B119B1E26B42F00202E2630268B2
:100DF000C2F3C00222B119B1E16B41F00801E16315
:100E00000168C068C1F3401100F0200019B110B1B1
:100E1000204600F09DFB20680168C068C1F3C01146
:100E200000F0800019B110B1204600F09DFC21684F
:100E30000868CA68C0F3801002F04002012568B15A
:100E400062B1CA68204622F04002CA6094F83910A4
:100E5000322910D080F8395000F0E6F8E06B002815
:100E600008D0206801684068009084F83950204616
:100E7000FFF795FF38BD222180F83910ECE770B5F7
:100E8000040004D094F83900002510B106E00120D8
:100E900070BD84F83850204600F020F8022084F815
:100EA00039002068C16821F40051C160204600F07B
:100EB000A3FB2068016921F4904101612068416928
:100EC00021F02A0141612068C16841F40051C160EC
:100ED000E563012084F83900002070BD10B500687A
:100EE0001E4986B0884236D11D48816941F004010F
:100EF0008161816901F004010491816941F48041BB
:100F00008161816901F480410491816941F00101AD
:100F100081618069134C00F0010004904FF400706F
:100F20000090022001900120029003200390694666
:100F30002046FFF7B1F92115009100210191694682
:100F40002046FFF7A9F92520FFF7D4FA032211461E
:100F50002520FFF7DBFA06B010BD00000038014085
:100F6000001002400008014090F83930012B01D0F8
:100F7000122B2BD131B32AB390F83830012B25D066
:100F8000012380F8383081628285C2850021C163E7
:100F900090F83920122A17D0222280F8392080F8C0
:100FA00038100168CA6842F48072CA6001684A69F0
:100FB00042F001024A610068C16841F02001C1604D
:100FC00000207047012070473222E6E70220704778
:100FD00030B50068114988420CD1114A508801048B
:100FE00008D41146440409784FF0000306D50A29B5
:100FF00001D0538030BD40F400400DE00D2909D0F0
:10100000C0F30D04074D401C80B229555080C728FD
:10101000EFD830BD40F48040508030BD00380140F2
:101020000C000020100000207047FEE730B5184883
:1010300085B0816941F008018161816901F0080191
:101040000491816941F0400181618069202400F0B0
:10105000400004900120CDE90040029003200D4D96
:10106000039069462846FFF717F900940A4C694631
:101070002046FFF711F9012220212846FFF702FA46
:10108000012220212046FFF7FDF905B030BD000008
:1010900000100240000C014000180140FEE77047BC
:1010A0000907090E002806DA00F00F0000F1E02021
:1010B00080F8141D704700F1E02080F8001470479C
:1010C00010B40021084B0A46002003EBC004401C6A
:1010D000C0B262548028F8D3491CC9B20829F3D39E
:1010E00010BC00F0E7B800001801002010B57F2800
:1010F00016D83F2914D80723A3EBD10301F0070129
:10110000C1F107040121A140064CDBB204EBC00091
:10111000002AC25CC9B201D00A4300E08A43C2542B
:1011200010BD00001801002030B55C4885B0816911
:1011300041F010018161816901F010010491816920
:1011400041F020018161816901F0200104918169F0
:1011500041F4807181618069012400F48070049001
:101160004820CDE900040320CDE902404C4D6946FA
:101170002846FFF791F8012208212846FFF782F957
:10118000012240212846FFF77DF9FF2000906946A3
:101190004448FFF781F84FF46040009069464248A8
:1011A000FFF77AF8414DC5F8B841C5F8B441404859
:1011B000C0F89841C0F88C410020C5F8BC016420FB
:1011C00005F5DA7500F026FBAC600021AE2000F0DA
:1011D00057F90021D52000F053F90021502000F0EC
:1011E0004FF90021A82000F04BF900213F2000F02A
:1011F00047F90021D32000F043F90021084600F010
:101200003FF90021402000F03BF900218D2000F043
:1012100037F90021142000F033F90021202000F0DC
:101220002FF90021022000F02BF90021A12000F06D
:1012300027F90021C02000F023F90021DA2000F076
:101240001FF90021122000F01BF90021812000F07D
:1012500017F90021EF2000F013F90021D92000F048
:101260000FF90021F12000F00BF90021DB2000F044
:1012700007F90021302000F003F90021A42000F03C
:10128000FFF80021A62000F0FBF80021AF2000F0BD
:10129000F7F8FFF715FF05B030BD00000010024061
:1012A00000140140001001400020014000002442D1
:1012B0000080224270B5104E002505F1B000C0B28A
:1012C000002100F0DDF80021084600F0D9F80021E7
:1012D000102000F0D5F8002406EBC4000121405D89
:1012E00000F0CEF8641CE4B2802CF5D36D1CEDB296
:1012F000082DE2D370BD0000180100202DE9F84F41
:1013000083461E460F468A46580700D0012000EB50
:10131000D60071084843203AC0B202F0FF09002508
:10132000009039E00C2E0FD0102E11D0182E36D18F
:101330001C4909EBC90001EB80004FF00008445D37
:10134000200609D50A9A0AE009EB49001649F2E796
:10135000164901EB0910F0E70A9890B100223946CE
:101360005846FFF7C3FE60067F1C040EFFB2A7EBD2
:101370000A00B04207D10BF10100574600F0FF0B05
:1013800008E00122EBE708F1010000F0FF08B8F1E6
:10139000080FD5D36D1CEDB200988542C2D3BDE8CD
:1013A000F88F00001C240008B81900082C1E000843
:1013B0002DE9FF4F81B00027DDF838B01D46924679
:1013C00080463C464FF001094FEA5B0627E0281BA8
:1013D000401EC1B20A2000F0BFFABAFBF0F00A21A9
:1013E000B0FBF1F201FB120027B9691E8C4201DA51
:1013F00048B101273030C2B206FB0480C0B25B4660
:10140000CDF8009006E006FB0480C0B25B462022C7
:10141000CDF800900299FFF771FF641CE4B2AC4272
:10142000D5D305B0BDE8F08F2DE9F84704461F4637
:10143000802016460D46A0EB5709C3F140084FF037
:10144000010A16E0A14502D20024E819C5B2A84558
:1014500003DA00242546FFF733FECDF800A03278EA
:101460003B4629462046FFF749FF04EB5700C4B22C
:10147000761C307820385E28E4D9BDE8F887000073
:101480000B4AD36803F47F430343D3600948C0F891
:101490008C110021C0F89811074AC2F8B811012137
:1014A000C2F8B811C0F89811C0F88C11704700004C
:1014B0000010014000802242000024427047704723
:1014C00030B58FB001210091022509040024079551
:1014D000CDE90114CDE908106846FFF783F900B1A2
:1014E000FEE70F20CDE90A054FF48060CDE90C40FE
:1014F00002210AA80E94FFF73BF8002800D0FEE76F
:101500000FB030BDFEF7CABF0D48016841F00101C0
:10151000016041680B4A1140416001680A4A11406C
:101520000160016821F480210160416821F4FE011D
:1015300041604FF41F0181600449C0030860704797
:10154000001002400000FFF8FFFFF6FE08ED00E08B
:1015500010B590F83910222903D0322901D0022089
:1015600010BD8168B1F5805F11D001690029016863
:101570001FD0496801F07F03816A4A1C82620B70A8
:10158000C18D491E0904090CC18518D02FE00269DC
:10159000816A002A0268526805D0D2B20A80816A44
:1015A000491C8162ECE7C2F308020A80816A891C47
:1015B000F7E74A68816A4B1C83620A70E0E70168BA
:1015C000CA6822F02002CA6090F83910322910D07F
:1015D0000168CA6822F48072CA6001684A6922F010
:1015E00001024A61012180F83910FFF7F1FC002067
:1015F00010BD1221F7E700002DE9F0410446006814
:101600000169E26821F4405111430161A168206938
:101610000143606901432068C26841F20C639A4348
:101620000A43C26020684169A26921F440711143F4
:1016300041614C4920686426322788423CD1FFF73B
:1016400075F800EBC00101EB001061688900B0FB88
:10165000F1F5FFF76BF800EBC00101EB00106168DA
:10166000B8468900B0FBF1F0B0FBF6F06FF018015E
:10167000484305EB800107EB0110B0FBF6F000F0EA
:10168000F005FFF753F800EBC00101EB00106168B3
:101690008900B0FBF1F0B0FBF6F005EB0015FFF7A9
:1016A00045F800EBC00101EB001061688900B0FB58
:1016B000F1F7FFF73BF83BE0FFF720F800EBC00144
:1016C00001EB001061688900B0FBF1F5FFF716F837
:1016D00000EBC00101EB00106168B8468900B0FB67
:1016E000F1F0B0FBF6F06FF01801484305EB800114
:1016F00007EB0110B0FBF6F000F0F005FEF7FEFF7F
:1017000000EBC00101EB001061688900B0FBF1F053
:10171000B0FBF6F005EB0015FEF7F0FF00EBC001A3
:1017200001EB001061688900B0FBF1F7FEF7E6FFFE
:1017300000EBC00101EB001061688900B0FBF1F023
:10174000B0FBF6F06FF01801484307EB800108EB9F
:101750000110B0FBF6F0216800F00F00284488600B
:10176000BDE8F0810038014090F83910122903D00B
:10177000322901D0022070478168B1F5805F016A8B
:101780000BD04A1C0262026809785160C18C491E64
:101790000904090CC1840ED017E009880268C1F35E
:1017A0000801516001690029016A02D0491C0162E7
:1017B000ECE7891CFBE70168CA6822F08002CA6076
:1017C0000068C16841F04001C1600020704700001E
:1017D00010B50848FFF7E7FA0648FFF7E1FA0128D5
:1017E000FAD1012204490348FFF7BEFB0028F8D1D3
:1017F00010BD0000D80000200C000020FEE770475C
:1018000010B504460420FFF7AAFA0148046010BD91
:101810000800002070B5054600244FF47A7603E0F6
:10182000304600F005F8641CAC42F9D370BD0000EE
:1018300070B54FF0E02500216C69094AAB69126868
:101840005043AA699A42FCD002D2A3EB020302E001
:10185000A4EB02063344194413468142F1D370BD10
:101860000800002008B5FEF721FE4FF4E010FFF756
:1018700027FE4820FFF7C4FF4FF4E13000F074F872
:10188000FFF7D4FBFFF750FC0021182322A20846E3
:10189000FFF7CAFD102323A218210020FFF7C4FD83
:1018A0000C2324A228210020FFF7BEFD0C2325A233
:1018B00034210020FFF7B8FD0C2324A2342140205E
:1018C000FFF7B2FDFFF7F6FC20240126214D10277B
:1018D0004FF4FA7830211023224608460096FFF78D
:1018E0000DFDFFF7E7FC641CE4B27E2C00D9202438
:1018F00003232246302167200097FFF759FD404619
:10190000FFF788FFD5F8940118B10020C5F89401BD
:10191000E0E70120FAE70000414C49454E54454BB1
:1019200000000000302E393627204F4C454420540B
:101930004553540041544F4D20323031372F352F0D
:101940003236000041534349493A0000434F444571
:101950003A000000008021420346012000E0584385
:10196000491EC9B2FBD270470B4910B5094AC1E9FB
:10197000002000208860C860086188610C204861F0
:101980000846FFF77CFABDE81040012203490248EF
:10199000FFF7EABA00380140D80000200C00002010
:1019A000000000000000000001020304060708090F
:1019B000000000000102030400000000000000001D
:1019C00000000000000000003F4000000000000098
:1019D00000003000400030004000000009000BC053
:1019E0003D000BC03D00090018C024407FE02240AC
:1019F00031800000180024C01B000D80324001809F
:101A000003801C4027401C800740004010006000FD
:101A100000000000000000000000000000001F8027
:101A2000204040200000402020401F800000000097
:101A3000090006001F8006000900000004000400E1
:101A40003F8004000400000000100060000000005F
:101A50000000000004000400040004000400000072
:101A6000000000400000000000000000002001C055
:101A700006003800400000001F8020402040204029
:101A80001F800000000010403FC000400000000028
:101A900018C02140224024401840000010802040FF
:101AA000244024401B80000002000D0011003FC0B4
:101AB000014000003C80244024402440238000005A
:101AC0001F80244024403440038000003000200068
:101AD00027C03800200000001B8024402440244000
:101AE0001B8000001C0022C0224022401F800000FA
:101AF000000000000840000000000000000000009E
:101B00000460000000000000000004000A00110052
:101B10002080404009000900090009000900000078
:101B200000004040208011000A000400180020003E
:101B300023402400180000001F8020402740294037
:101B40001F400000004007C039000F0001C00040E6
:101B500020403FC0244024401B8000001F802040C4
:101B6000204020403080000020403FC020402040E6
:101B70001F80000020403FC024402E4030C00000A5
:101B800020403FC024402E00300000000F00108095
:101B9000204022403380020020403FC00400040067
:101BA0003FC02040204020403FC020402040000057
:101BB0000060202020203FC02000200020403FC0A7
:101BC00024400B0030C0204020403FC02040004057
:101BD000004000C03FC03C0003C03C003FC00000CC
:101BE00020403FC00C4023003FC020001F80204009
:101BF000204020401F80000020403FC0244024009F
:101C0000180000001F802140214020E01FA000009C
:101C100020403FC02440260019C0004018C0244086
:101C20002440224031800000300020403FC020404E
:101C30003000000020003F80004000403F80200036
:101C400020003E0001C0070038002000380007C017
:101C50003C0007C038000000204039C0060039C0F1
:101C6000204000002000384007C03840200000001D
:101C7000304021C02640384020C000000000000055
:101C80007FE0402040200000000070000C00038036
:101C9000004000000000402040207FE000000000E5
:101CA0000000200040002000000000000010001094
:101CB00000100010001000100000000040000000A4
:101CC00000000000000002800540054003C0004005
:101CD00020003FC004400440038000000000038057
:101CE00004400440064000000000038004402440FB
:101CF0003FC0004000000380054005400340000055
:101D0000000004401FC0244024402000000002E0E6
:101D1000055005500650042020403FC004400400F8
:101D200003C000400000044027C000400000000045
:101D300000100010041027E00000000020403FC009
:101D40000140070004C00440204020403FC0004044
:101D50000040000007C0040007C0040003C00000EA
:101D6000044007C00440040003C00040000003809A
:101D70000440044003800000041007F004500440B5
:101D800003800000000003800440045007F00010AE
:101D9000044007C0024004000400000000000640A8
:101DA0000540054004C00000000004001F800440FE
:101DB00000400000040007800040044007C00040CD
:101DC0000400070004C0018006000400060001C0F2
:101DD000070001C006000000044006C0010006C064
:101DE000044000000410071004E001800600040015
:101DF0000000044005C00640044000000000000050
:101E000004007BE040200000000000000000FFF024
:101E100000000000000040207BE004000000000003
:101E20004000800040002000200040000000000032
:101E300000000000000000000000000000000000A2
:101E400000001FCC000C0000000000000000080093
:101E5000300060000800300060000000022003FC39
:101E60001E20022003FC1E200220000000000E188D
:101E700011043FFF10840C78000000000F00108454
:101E80000F3800C0077818840078000000780F84AD
:101E900010C411240E9800E40084000808006800B3
:101EA00070000000000000000000000000000000C2
:101EB000000007E018182004400200000000400263
:101EC0002004181807E00000000000000240024053
:101ED00001800FF00180024002400000008000807D
:101EE00000800FF800800080008000000001000DDD
:101EF000000E000000000000000000000000008054
:101F00000080008000800080008000800000000CC5
:101F1000000C0000000000000000000000000006AF
:101F2000001800600180060018002000000007F083
:101F3000080810041004080807F000000000080456
:101F400008041FFC000400040000000000000E0C48
:101F500010141024104411840E0C000000000C1802
:101F600010041104110412880C700000000000E03D
:101F70000320042408241FFC0024000000001F98F4
:101F8000108411041104108810700000000007F084
:101F900008881104110418880070000000001C005B
:101FA000100010FC13001C001000000000000E3890
:101FB00011441084108411440E3800000000070002
:101FC000088C10441044088807F00000000000004E
:101FD0000000030C030C00000000000000000000E3
:101FE0000001010600000000000000000000008069
:101FF0000140022004100808100400000220022002
:102000000220022002200220022000000000100412
:1020100008080410022001400080000000000E00AB
:102020001200100C106C10800F00000003E00C1860
:1020300013E4142417C4082807D000000004003C4F
:1020400003C41C40074000E4001C000410041FFCF3
:102050001104110411040E880070000003E00C1834
:1020600010041004100410081C10000010041FFCC1
:10207000100410041004080807F0000010041FFCEE
:102080001104110417C410040818000010041FFCE8
:102090001104110017C010000800000003E00C1824
:1020A0001004100410441C780040000010041FFCB1
:1020B00010840080008010841FFC100400001004B5
:1020C00010041FFC100410040000000000030001B5
:1020D000100110011FFE10001000000010041FFC72
:1020E000110403801464181C1004000010041FFC69
:1020F0001004000400040004000C000010041FFC85
:102100001F0000FC1F001FFC1004000010041FFC37
:102110000C04030000E010181FFC100007F0080872
:10212000100410041004080807F0000010041FFC3D
:1021300010841080108010800F00000007F0081835
:1021400010241024101C080A07F2000010041FFCC1
:102150001104110011C011300E0C000400000E1CFF
:1021600011041084108410441C3800001800100062
:1021700010041FFC100410001800000010001FF8CD
:1021800010040004000410041FF8100010001E00CA
:1021900011E0001C007013801C0010001FC0103CD8
:1021A00000E01F0000E0103C1FC000001004180CED
:1021B000163401C001C01634180C100410001C00A5
:1021C000130400FC13041C00100000000804101C81
:1021D0001064108413041C04101800000000000098
:1021E00000007FFE4002400240020000000030007C
:1021F0000C0003800060001C00030000000040028F
:10220000400240027FFE00000000000000000000CD
:1022100020004000400040002000000000010001BC
:102220000001000100010001000100010000400068
:1022300040002000000000000000000000000098A6
:10224000012401440144014400FC000410001FFC6F
:102250000088010401040088007000000000007084
:1022600000880104010401040088000000000070DF
:1022700000880104010411081FFC0004000000F89C
:10228000014401440144014400C80000000001046D
:1022900001040FFC1104110411001800000000D605
:1022A00001290129012901C90106000010041FFCB0
:1022B000008401000100010400FC0004000001048E
:1022C000190419FC000400040000000000000003D1
:1022D00000010101190119FE0000000010041FFC9B
:1022E0000024004001B4010C0104000000001004AF
:1022F00010041FFC0004000400000000010401FCA5
:102300000104010001FC0104010000FC010401FCC6
:10231000008401000100010400FC0004000000F83A
:10232000010401040104010400F80000010101FF9F
:1023300000850104010400880070000000000070A6
:10234000008801040104010501FF000101040104EA
:1023500001FC00840104010001800000000000CCA9
:10236000012401240124012401980000000001003F
:10237000010007F80104010400000000010001F859
:10238000000400040004010801FC000401000180B5
:102390000170000C001001600180010001F0010CCF
:1023A000003001C00030010C01F001000000010408
:1023B000018C00740170018C010400000101018195
:1023C0000171000E0018016001800100000001840D
:1023D000010C013401440184010C000000000000E4
:1023E0000000000001003EFC40024002000000002E
:1023F00000000000FFFF000000000000000040029D
:1024000040023EFC010000000000000000006000EF
:1024100080008000400040002000200000000000FC
:1024200000000000000000000000000000000000AC
:10243000000000000000000000000000000000009C
:102440000000000000000000000000000000000F7D
:1024500080380FFE380F80380000000000000000B8
:102460000000000000000000000001000006000065
:102470000C00003800003100000600000C0000389D
:1024800000003000000000000000000061800067D4
:10249000F807F98000618000618000618000618040
:1024A0000067F807F980006180000000000000006C
:1024B000000001C0E003E0F00630080418081FFF28
:1024C000FE040E080787F00381E000000000000012
:1024D00001F000060C00040408060C7001F9C000AD
:1024E0000E00003BE000EC18070808040C1800037D
:1024F000E00000000001E00007F003F818041C08E9
:1025000004170807E1D003C0E00023B0003C080036
:102510002008000010000000000000010000310051
:10252000003200001C00000000000000000000005D
:10253000000000000000000000000000000000009B
:102540000000000000000000000000007F0001FF0C
:10255000C00780F00C0018100004200002000000EA
:102560000000002000021000040C00180780F00199
:10257000FFC0007F0000000000000000000000001D
:10258000000000000000000042000066000066003D
:10259000003C0000180003FFC0001800003C0000D1
:1025A000660000660000420000000000080000080D
:1025B0000000080000080000080001FFC00008003B
:1025C00000080000080000080000080000000000EB
:1025D000000100003100003200001C00000000007B
:1025E00000000000000000000000000000000000EB
:1025F00000000000080000080000080000080000BB
:10260000080000080000080000080000080000089A
:10261000000000000000000000000000380000384A
:102620000000380000000000000000000000000072
:102630000000000000000000000000000006000094
:102640001C000070000180000E0000380000C00077
:102650000700001C00003000000000000000000027
:102660007F8001FFE003807006001804000804006A
:102670000806001803807001FFE0007F8000000062
:10268000000000000000010008010008010008032C
:10269000FFF807FFF800000800000800000800002D
:1026A0000000000000000001C03802C0580400987B
:1026B000040118040218040418061C1803F8180171
:1026C000E0F800000000000000000001C0E003C0CE
:1026D000F004000804080804080806180803F418A1
:1026E00001E7F00001E00000000000000000000031
:1026F0000300000D000011000061000081080301CB
:102700000807FFF80FFFF8000108000108000000AB
:102710000000000000E007FCD006080806100806CC
:102720001008061008061838060FF00607C000004B
:1027300000000000000000003F8001FFE003843043
:1027400002081804100804100804100807181003E1
:102750000FF00007C000000000000000000003C0F0
:10276000000700000600000600F80607F80618003B
:1027700006E0000700000600000000000000000165
:10278000E1E003F7F0063410041808041808040CFC
:1027900008040C0806161803F3F001C1E00000005D
:1027A00000000000F80003FC3003063804020804AF
:1027B00002080402080404100308F001FFC0007FAF
:1027C0000000000000000000000000000000000009
:1027D0000000000070380070380070380000000001
:1027E00000000000000000000000000000000000E9
:1027F0000000000000000000301A00301C00000043
:1028000000000000000000000000000000000000C8
:1028100000000008000014000022000041000080B9
:1028200080010040020020040010080008000000A1
:102830000000000021000021000021000021000014
:1028400021000021000021000021000021000021C2
:102850000000000000000000000008000804001054
:1028600002002001004000808000410000220000A2
:10287000140000080000000000000003C00004C0B5
:1028800000040000080038080F3808083808100055
:102890000C300007E00003C0000000000000000052
:1028A0003F8000FFE0038070020F1006708804C0B4
:1028B00088048308047F8802C09003012000FE4042
:1028C0000000080000180001F8003E0801C20007DF
:1028D000020007E20000FE00001FC80001F800002F
:1028E0003800000804000807FFF807FFF80408088C
:1028F00004080804080804080806180803F4180166
:10290000E7F00001E0000000000000003F8001FF50
:10291000E0038070020018040008040008040008A6
:102920000400100600200780C00000000400080713
:10293000FFF807FFF804000804000804000804007A
:102940001802001003807001FFE0007F800000008B
:1029500004000807FFF807FFF80408080408080443
:102960000808040808043E080400080600180100CE
:102970006000000004000807FFF807FFF8040808DB
:10298000040800040800040800043E0006000006D5
:102990000000018000000000000000003F8001FFF7
:1029A000E00380700600180400080402080402080E
:1029B0000203F00783F00002000002000400080791
:1029C000FFF807FFF80408080008000008000008E6
:1029D0000000080004080807FFF807FFF8040008D3
:1029E00000000000000004000804000804000807BC
:1029F000FFF807FFF80400080400080400080000BE
:102A000000000000000000000006000007000001B8
:102A100004000104000104000307FFFE07FFFC049B
:102A2000000004000004000004000807FFF807FF8E
:102A3000F8040C08001800003E0004C7800503C815
:102A40000600F80400380400180000080400080715
:102A5000FFF807FFF8040008000008000008000065
:102A600008000008000008000018000060000000D6
:102A700004000807FFF807800807FC00007FC0007B
:102A800003F80007C000780007800807FFF807FF79
:102A9000F804000804000807FFF807000803C00056
:102AA00000E000003800001E000007000001C00424
:102AB00000F007FFF8040000000000007F8001FF25
:102AC000E0038070060018040008040008060018DF
:102AD00003003001FFE0007F8000000004000807D1
:102AE000FFF807FFF80404080404000404000404C9
:102AF00000040400060C0003F80001F000000000D0
:102B0000000000007F8001FFE00380700600880461
:102B100000880400C806003C03003E01FFE6007F79
:102B20008400000004000807FFF807FFF804080805
:102B3000040800040C00040F00040BC00610F0038E
:102B4000F03801E00800000800000001E0F803F0A0
:102B500030063010041808041808040C08040C0887
:102B60000206180207F00781E0000000018000065D
:102B7000000004000004000004000807FFF807FF3D
:102B8000F8040008040000040000060000018000B2
:102B900004000007FFE007FFF00400180000080031
:102BA000000800000800000800000804001007FFEB
:102BB000E004000004000006000007E00007FE003B
:102BC000041FE00001F80000380001E0043E0007A7
:102BD000C00006000004000004000007E00007FF3A
:102BE000C0041FF80007C007F80007FF80043FF883
:102BF0000007C004F8000700000400000000000403
:102C0000000806001807C07805F1C8003E00001F44
:102C1000800463E80780F80600180400080000003C
:102C200004000006000007800007E008047C08009C
:102C30001FF80007F800180804E008070000060065
:102C4000000400000000000100080600380400F83D
:102C50000403E8040F08047C0805F00807C008070F
:102C600000180400600000000000000000000000E8
:102C7000000000000000003FFFFE200002200002D4
:102C800020000220000220000200000000000000DE
:102C9000000008000007000000C000003800000627
:102CA000000001C000003000000E00000100000024
:102CB000000000000000200002200002200002208E
:102CC00000022000023FFFFE0000000000000000A4
:102CD00000000000000000000000000000080000EC
:102CE000100000300000200000300000100000083C
:102CF00000000000000000000000010000010000D2
:102D000001000001000001000001000001000001BD
:102D100000000100000100000100000100000000AF
:102D20000000000000200000200000100000100043
:102D30000000000000000000000000000000000093
:102D40000000000000F00019F8001B180022080025
:102D50002608002408002410003FF8001FF8000097
:102D60000800001800000004000007FFF80FFFF043
:102D70000018180010080020080020080030180073
:102D80001FF0000FC00000000000000007C0001F7F
:102D9000F0001830002008002008002008003C083F
:102DA000001C100000600000000000000000000097
:102DB00007C0001FF000381800200800200800207D
:102DC0000804101007FFF80FFFF0000010000000CB
:102DD0000000000000000007C0001FF000123000DB
:102DE0002218002208002208003208001E10000EDF
:102DF0002000000000000000200000200800200843
:102E000001FFF803FFF80620080420080420080743
:102E1000200003000000000000000000000E000E73
:102E20006E001FF30031B10020B10020B1003191DC
:102E3000001F13002E1E00200E00300000000004B2
:102E4000000807FFF80FFFF800100800200000201E
:102E500000002008003FF8001FF8000008000000F4
:102E600000000000000000200800200800200806E4
:102E70003FF8063FF80000080000080000080000C6
:102E8000000000000000000000000000030000033C
:102E9000002001002001002003063FFE063FFC0049
:102EA000000000000000000000000004000807FF10
:102EB000F80FFFF8000188000300002FC00038F869
:102EC000002038002008000008000000000000007A
:102ED000000004000804000804000807FFF80FFFC2
:102EE000F8000008000008000008000000000000D2
:102EF000002008003FF8003FF80010080020000004
:102F00003FF8003FF8001008002000003FF8003FA5
:102F1000F8000008000000002008003FF8003FF81B
:102F2000001008001000002000002008003FF800FA
:102F30001FF80000080000000000000007C0000F9C
:102F4000F000183000300800200800200800300889
:102F5000001830000FF00007C00000000000000063
:102F60002001003FFF003FFF00101100200900205A
:102F700008002008003038001FF0000FC0000000DB
:102F80000000000007C0001FF000381800200800F3
:102F90002008002009001011001FFF003FFF000063
:102FA00001000000002008002008002008003FF871
:102FB000003FF8000808001008002008002000006A
:102FC0003000003000000000000000000000000C95
:102FD00078001E180033080023080021080021880B
:102FE0000021980030F00038600000000000000070
:102FF000200000200000200000FFF003FFF8002068
:103000000800200800200800003000000000000038
:10301000000000002000003FF0007FF800001800D2
:103020000008000008002010003FF8007FF00000BA
:1030300010000000000000002000003000003C00F4
:10304000003F800023F00000780000700023800023
:103050003C00003000002000002000003C00003F49
:10306000E00023F80000E0002700003E00003FE001
:103070000021F80001E0003E0000200000000000F8
:103080002008002008003838003E68002780000330
:10309000C8002CF800383800201800200800000074
:1030A000000000002000003003003C01003F8300CE
:1030B00023EC000070002380003C00002000002072
:1030C0000000000000000000000000380800203868
:1030D0000020F80023E8002F88003E080038080090
:1030E0002018000070000000000000000000000038
:1030F000000000000000000008000014001FF7FCA2
:103100003000062000020000000000000000000067
:103110000000000000000000000000000000FFFFB1
:10312000FF000000000000000000000000000000A0
:103130000000000000002000023000061FF7FC0025
:103140001400000800000000000000000000000063
:1031500000000000000000180000600000400000B7
:1031600040000020000010000008000004000004DF
:1031700000000C0000100000983100080000002042
:10318000100000006C010008A831000810000020A9
:10319000680B00008801000800A24A04000000003B
:0831A000000000000000000027
:0400000508000131BD
:00000001FF
