:020000040800F2
:10000000100F0020B90200089B5B00082B3000088D
:10001000995B0008CF180008656B0008000000001D
:100020000000000000000000000000004D5E00081D
:10003000991D000800000000FD5C000889640008AC
:10004000D3020008D3020008D3020008D30200083C
:10005000D3020008D3020008D3020008D30200082C
:10006000D3020008D3020008D3020008D30200081C
:10007000D3020008D3020008D3020008D30200080C
:10008000D3020008D3020008D3020008D3020008FC
:10009000416A0008D3020008D3020008D302000816
:1000A000D3020008D3020008D3020008D3020008DC
:1000B000D3020008D3020008D3020008D3020008CC
:1000C000D3020008D3020008D3020008D3020008BC
:1000D000D302000855670008D3020008D3020008C5
:1000E000D3020008D30200082D680008D3020008DC
:1000F000D3020008D3020008D3020008D30200088C
:10010000D3020008D3020008D3020008D30200087B
:10011000D3020008D3020008D3020008D30200086B
:10012000D3020008D3020008D3020008D30200085B
:1001300000F002F800F0B0F80AA090E8000C824449
:100140008344AAF10107DA4501D100F0A5F8AFF226
:10015000090EBAE80F0013F0010F18BFFB1A43F0A5
:1001600001031847F4BB000014BC00000A444FF020
:10017000000C10F8013B13F0070408BF10F8014B06
:100180001D1108BF10F8015B641E05D010F8016B4B
:10019000641E01F8016BF9D113F0080F1EBF10F8AF
:1001A000014BAD1C0C1B09D16D1E58BF01F801CBD2
:1001B000FAD505E014F8016B01F8016B6D1EF9D555
:1001C0009142D6D37047000000230024002500266A
:1001D000103A28BF78C1FBD8520728BF30C148BFAA
:1001E0000B6070476E2900F0CF82702900F01F81EC
:1001F000662907F03F81652907F03C81672907F0F0
:1002000039816129AFF3008003681B0A28BF41F0E0
:100210008001692900F09080642900F08D807529A3
:1002200000F08A806F2900F0B183782900F0EB801C
:10023000E92900F04B83E42900F04883F52900F018
:100240004583EF2900F0AE83F82900F0EA800368C7
:10025000DB0928BF41F08001632900F0098673297A
:1002600000F00E86E32900F01986F32900F01E86BF
:10027000002070471FB500F06FFE04000020002131
:1002800006F0A4FF401C60600020002106F088FFFB
:10029000E0601FBD10B510BD00F030FE1146FFF745
:1002A000E9FF06F0EDFD00F009FF03B4FFF7F2FFF0
:1002B00003BC06F0A6FD0000094880470948004736
:1002C000FEE7FEE7FEE7FEE7FEE7FEE7FEE7FEE706
:1002D000FEE7FEE704480549054A064B7047000063
:1002E0008D6400083101000810090020100F002063
:1002F000100B0020100B0020704700001CB50C46AE
:10030000064B7B4469460090204600F056FA0446AE
:100310000020694600F064FA20461CBDDB040000A2
:100320000FB4044910B503AA029800F05FFA10BC9C
:100330005DF814FB100000202DE9F0410646002472
:1003400010687529314616A510D000F089F90028EB
:1003500002DA404213A507E031688A0701D512A5E9
:1003600002E0490704D511A5012401E000F081F95C
:1003700000210A2206F1240709E0B0FBF2FCB0FBE1
:10038000F2F302FB1C00303078541846491C002858
:10039000F3D123462A463046BDE8F04100F09BB930
:1003A000000000002D0000002B00000020000000D5
:1003B000F0B40D460188090502D5214C7C4402E0C9
:1003C0001F4C7C440E34002100F1240608E002F0AA
:1003D0000F071209E75D42EA03721B097754491CB3
:1003E00052EA0307F3D102780023120704D5702DD7
:1003F00006D009B1022311342246F0BC00F06BB9DB
:1004000001231034F8E770B504460D462146106804
:1004100000F02FF9024629462046BDE8704000232F
:10042000C6E7D21D22F00703D3E90023C0E7036823
:10043000126843F0200303600823C3610023B7E779
:10044000C1B800002DE9F05F894604464FF0000A6C
:10045000DFF874B1FB44C0F820A02046E16888476B
:10046000002874D0252806D0D4E901219047206ABD
:10047000401C2062F1E700265F462046E16888477D
:100480002028054607DB312D05D2781910F8200CFD
:1004900008B10643F1E7B00701D526F00406C4F819
:1004A0001CA00027C4F818A02A2D09D0284606F061
:1004B000A1FC38B304EB8708303DC8F8185019E0A8
:1004C00059F8041B204604EB87029161E1688847D4
:1004D000012F054618D1E069002820DA26F0200611
:1004E0001DE0D8F8180000EB800005EB4000303824
:1004F000C8F818002046E1688847054606F07AFCEF
:100500000028EED1012F0AD02E2D08D12046E16817
:1005100088477F1C0546022F46F02006C4DBA069F1
:10052000002803DA404246F00106A061F00701D03E
:1005300026F010066C2D0BD0682D09D04C2D39D02B
:100540006A2D35D0742D35D07A2D33D016E038E0B1
:10055000E1682F4620468847B842054609D16C2FEE
:1005600026D04FF48060E168064320468847054660
:1005700004E06C2F1AD04FF4807006430DB3A5F140
:100580004100192802D8203546F400664A4629461B
:10059000204626604E46FFF725FE80B101280BD08D
:1005A000F61D26F0070000F1080956E74020E4E7B1
:1005B0008020D8E70020D6E706F104094DE7284659
:1005C00052E7206ABDE8F09F51B8000010B5431C07
:1005D00002E010F8011B71B18107FAD14FF001322E
:1005E00002C88C1A8C4314EAC211F9D0C01A0A0648
:1005F00003D0C01E10BDC01A10BD0A0401D0801E59
:1006000010BD0902FCD0401E10BD704770477047F6
:10061000704770B5044685690068C10601D530266B
:1006200000E02026C00707D070BDD4E90121304684
:100630009047206A401C20626D1EF6D570BD70B5D3
:10064000044685690078C00707D170BDD4E901214F
:1006500020209047206A401C20626D1EF6D570BD98
:1006600009684A0501D540B27047C905FCD500B2FA
:10067000704709684A0501D5C0B27047C905FCD565
:1006800080B2704770B50C460546012A05D028781F
:10069000800600D5EA69002302E0012305E05B1C27
:1006A000934202D2E05C0028F9D1A869E618C01A8A
:1006B000A861286A184428622846FFF7AAFF04E0C8
:1006C000D5E9012114F8010B9047B442F8D328462C
:1006D000FFF7B5FF70BD2DE9F0470D4699469246EC
:1006E000044600F124080168880604D5E06921F079
:1006F0001001216000E00120A84201DD471B00E05D
:100700000027A1697A1902EB0900081AA061207874
:10071000C00602D42046FFF77CFF002608E0D4E99B
:1007200001211AF806009047206A401C761C2062BE
:100730004E45F4DB2078C0060AD52046FFF769FF56
:1007400006E0D4E9012130209047206A401C206255
:10075000381EA7F10107F4DC07E0D4E9012118F8FD
:1007600005009047206A401C2062281EA5F1010563
:10077000F3DC2046FFF763FF2078000602D5022055
:10078000BDE8F0870120FBE711680268006A5305A5
:1007900001D508700AE0D30501D5088006E01306EC
:1007A00003D5C217C1E9000200E0086001207047CC
:1007B00001694A1C02610878704700B58FB0CDE925
:1007C00001310021059105497944CDE90310114615
:1007D0006846FFF737FE0FB000BD0000E5FFFFFFE2
:1007E0000A6802F8010B0A6070470000074B70B5F9
:1007F0000D467B44FFF7E1FF0446284600F05AFB14
:1008000010B14FF0FF3070BD204670BD7366000020
:100810002DE9FF5F15468A460446DFF8AC80F844B0
:100820000027D8E900103E46CDE9001010E03AF864
:1008300016106A4602A800F041FB411C07D021783F
:10084000890603D5E269391891420DD80744761C10
:100850002078800602D5E069B84205DDAE42E6DBCD
:100860003AF816000028E2D1A069C01BA06120461A
:10087000FFF7CFFED8E90010CDE90010002017E007
:100880003AF818106A4602A800F018FBB0F1FF3FD2
:1008900081460BD000250DF1080B05E0D4E90121BC
:1008A0001BF8050090476D1C4D45F7D308F101007A
:1008B000B0428046E4DB206A384420622046FFF7DD
:1008C000BEFEBDE8FF9F00009AB400002DE9F04194
:1008D0008046D21D22F007020025D2E90002F52948
:1008E00015A614D0011E72F1000106DA0023D0EB28
:1008F000030063EB020211A608E0D8F800108B0792
:1009000001D50FA602E0490701D50EA60125114623
:10091000002408F1240704E000F04EF830323A5584
:10092000641C50EA0102F7D12B463246214640466C
:10093000BDE8F041FFF7CFBE000000002D00000031
:100940002B0000002000000030B4002100F124043E
:1009500008E002F00705D208303542EA4372DB08AE
:100960006554491C52EA0305F3D10468002310A220
:10097000250708D504F020040C4304D0C4690123E2
:100980000CA2641EC46130BCFFF7A5BE10B50446BE
:1009900021461068FFF76DFE02462046BDE8104074
:1009A0000023D1E7D21D22F00701D1E90023CBE7D4
:1009B000000000003000000030B5B0F10A024FEA3C
:1009C000900E71F100034EEA817EB0EB0E0061EBF8
:1009D00091014FEA101E4EEA017E10EB0E0041EB32
:1009E00011114FEA102E4EEA016E10EB0E0041EB92
:1009F00011214FEA104E4EEA014E10EB0E0041EB72
:100A00001141401841F100014FEAD00040EA417025
:100A10004FEAD10110EB80054FEA810444EA90745B
:100A200044EB01046D1944EB0404521BA3414FF045
:100A3000000348BF0A3200D530BD401C41F100011F
:100A400030BD70472DE9FF4F0C461E464FF0FF3773
:100A50008BB0D2E90001DDF860800A908A46C1F3CC
:100A60000A5505B93D46002108464FF00000BAF18D
:100A7000000F00F4400005DA00EB80004FF4400165
:100A800001EA50004FEA9059B9F1010F00DDB94673
:100A90000A9850EA4A000ED044F61050A5F2FF35ED
:100AA00045432F14B8F1000F1ED07542291E1EDDDC
:100AB000C9F100021CE0B8F1010F4FF0000001D0B5
:100AC000302103E0F24305E02154401CB042FBDB3F
:100AD00030460022002121540B99C1F80880C1E959
:100AE00000200FB0BDE8F08FBD1B6D1CDEE74A464D
:100AF00000DA694206A800F073FA06AB93E8070033
:100B000003AB83E8070050460A9900F025FB8DE807
:100B10000700A0F500501F3800900398002D09DD54
:100B200042F21F014A46084403A90390684600F0B8
:100B300084FD08E0A0F500504A461F3803A9039041
:100B4000684600F08EFD8DE807000004000C03D01D
:100B50004FF0FF30410800E01046B8F1000F03D01D
:100B60000022009215461EE0751E05D4FFF724FFF3
:100B7000303262556D1EF9D5B3460122084302D0CA
:100B800000227F1C04E02078302801D100227F1E43
:100B9000002A099786D01DE0112D07DAFFF70CFF18
:100BA000303262556D1C50EA0102F5D1084302D083
:100BB0000098C8B10EE00021681E05E0235C625C6D
:100BC00063542254401E491C8142F7DBAB46A81BEC
:100BD000401E0990002004F80B000B98099AC0F8F9
:100BE0000880C0E9002B7CE711264FF0000859E788
:100BF0002DE9F04F88460446D21D22F0070191B03E
:100C0000D1E90001CDE90A0106F0E0F802460B98AF
:100C1000C00F01D02D2007E02068810701D52B20CF
:100C200002E0202101EAC000032A099001D0072A2E
:100C300005DB03464146204600F092F90BE120789F
:100C4000800601D5E06900E00620B8F1650F814615
:100C500006D0B8F1660F18D0B8F1670F70D131E047
:100C60000020B9F1110F009001DB112301E009F11F
:100C700001030AAA01A90CA8FFF7E4FEDDE90C7044
:100C8000002609F10105834647E001204B4600900C
:100C90004FF000470AAA01A90CA8FFF7D3FEDDE92F
:100CA0000DB00C995D46002610B909F101000D1830
:100CB000B9EB050003D4C0F1FF3609F10105A5EB3E
:100CC00009002BE0B9F1010F01DA4FF00109002012
:100CD000B9F1110F0090484601DD112300E00346F1
:100CE0000AAA01A90CA8FFF7ADFEDDE90C704D467C
:100CF00000268346207800070AD4AB4500DA5D461B
:100D000001A8012D04DD411911F8011C302907D07B
:100D10004F4502DA17F1040F04DA012082460FE092
:100D20006D1EEEE7002F02DCED1B3E4403E0781C55
:100D3000A84200DD7D1CB81B00F1010A4FF00047FE
:100D40002078000703D4AA4501DB4FF0FF3A0021C9
:100D5000B7F1004F0DF143088DF8431024D0022065
:100D60002B23002F01DA7F422D230A21021EA0F13E
:100D7000010000DC5FB197FBF1FC97FBF1F201FB96
:100D80001C7C17460CF1300C08F801CDEEE7A8F1F9
:100D9000010003702188090501D5452100E0652186
:100DA000A0F1010800F8011C09980FA9A1EB0807A0
:100DB000FF1D00B10120411901EBEA70A16938441F
:100DC000081A401EA0612078C00602D42046FFF712
:100DD00020FC099828B1D4E901219047206A401CE1
:100DE00020622078C00622D52046FFF712FC1EE0C4
:100DF000002E04DBB34502DD01A8805D00E0302059
:100E0000D4E901219047206A401C2062761CAAF197
:100E100001005FEA000A0AD100F09EF8C06801688C
:100E2000405CD4E901219047206A401C2062281EC2
:100E3000A5F10105DCDC07E0D4E9012118F8010B7C
:100E40009047206A401C2062381EA7F10107F3DC9E
:100E50002046FFF7F4FB032011B043E610B54369C9
:100E600013B1AFF3008001E0FFF70CFC012010BDCF
:100E7000127800F124010A7000224A700122EDE785
:100E800011684FF0FF32E9E710B5436913B1AFF3D2
:100E9000008001E0FFF7BCFC012010BD128800F1CA
:100EA000240182840022C2840122EDE711684FF000
:100EB000FF32E9E7007B00F08000704770B516460E
:100EC0000C46054600F040F8036893F8010101283C
:100ED00006D0FF2C0FD8185D68B101202C7070BDB2
:100EE000D3F807013246214603F20713034428468C
:100EF000BDE8704018474FF0FF3070BD754600F0F8
:100F0000E7F8AE4605006946534620F007008546DF
:100F100018B020B5FFF7DEF9BDE820404FF000061D
:100F20004FF000074FF000084FF0000B21F00701D1
:100F3000AC46ACE8C009ACE8C009ACE8C009ACE814
:100F4000C0098D467047000010B500F005F8001D7F
:100F500010BD00BF7962000000487047CC08002037
:100F60002DE9F0411F46044603260168072A01F4D3
:100F7000006004DB08B116A505E016A503E008B182
:100F800015A500E015A521F010002060A069C01E85
:100F9000A0610FB1401EA0612046FFF73AFB4FB1A0
:100FA000D4E9012138469047206A401C2062C01CC9
:100FB000206206E0206AFAE7D4E9012115F8010B66
:100FC0009047761EF8D22046FFF739FBBDE8F08146
:100FD0004E414E006E616E00494E4600696E6600DD
:100FE0002DE9F047814616468AB0334878440DC84B
:100FF0008DE80D0030487844801C03AC0DC884E8AF
:101000000D0041F69B300844372190FBF1F290FB34
:10101000F1F5A5F1800501FB12041B3C02D56442E9
:10102000012000E00020DFF890A080460027FA446D
:10103000AAF1BE0A0DE0E00709D03246684607EB88
:1010400047010AEB810100F00CFB8DE807006410FA
:101050007F1C002CEFD1184F7F44AC3F18E0E8070D
:1010600014D007EB04100DF1180A90E80E008AE87E
:101070000E00C068F04201D198190890324606A9C6
:1010800003A800F0EEFA03AB83E807006D10641CC0
:10109000002DE4D132466946B8F1000F03A802D012
:1010A00000F0CBFA01E000F0DCFAC9E90001C9F870
:1010B00008200AB0BDE8F08750AD000010B5044626
:1010C000AFF300802046BDE81040FFF7EEB8000007
:1010D00000487047AC0800204FF0013C50F8042B4A
:1010E00051F8043B9A4221D1A2EB0C03934313EA3B
:1010F000CC1317D150F8042B51F8043B9A4215D168
:10110000A2EB0C03934313EACC130BD150F8042B3E
:1011100051F8043B9A4209D1A2EB0C03934313EA22
:10112000CC13DBD04FF00000704700BFD01A01BADB
:10113000B1FA81F101F0180122FA01F0CB40C1F1BE
:101140002001DBB2C0B2C01A2CFA01F3D11A9143CC
:1011500011EAC311E6D170475FEA400C08BF91F075
:10116000000F4FEA8C234FEAC12243EA51514FEA64
:101170001C5018BF00F5F0404FEA300018BF41F096
:1011800000415FEA6C5C00F02980BCF1FF3F08BFC2
:1011900040F080407047130C06BF12044FF0100C53
:1011A0004FF0000C130E04BF12020CF1080C130FC9
:1011B00004BF12010CF1040C930F04BF92000CF158
:1011C000020CD30F04BF52000CF1010C11464FF07A
:1011D0000002A0F11F00A0EB0C00704711F0004FBF
:1011E00008BF704731F000413FF4D5AF0B0C06BF8C
:1011F00009044FF0100C4FF0000C0B0E04BF090255
:101200000CF1080C0B0F04BF09010CF1040C8B0F3F
:1012100004BF89000CF1020CCB0F04BF49000CF194
:10122000010CCCF12003A0EB0C0022FA03F302FA2C
:101230000CF241EA030100F10100704720F07F4CFD
:1012400080EA030023F07F47ACEB070303F57C53F0
:1012500000F0004003F1FF032DE980494FEA154BF0
:1012600009B44FEA144325EA0B4E24EA03480FF26F
:10127000042606EB132749083E785FEA320203FB97
:101280000667C7F5000707FB06F64FEA54374FEA33
:10129000D64606F1020607FB066CCCF1005C4FEA6D
:1012A0001C472CEA074C07FB06F40CFB06F504EB85
:1012B00015464FEA961634BF00204FF000404FEA23
:1012C000D13706FB07FC4FEA1C4C0CFB0BF7D21B7B
:1012D00003FB0CF761EB07010CFB0EF7B0EB0740CB
:1012E00072EB17420CFB08F734BFA2EB0742B2EBDC
:1012F000074261EB17414FEA0C444FEA910706FBA6
:1013000007FC4FEA1C4C0CFB0BF7B0EBC74072EB31
:10131000573203FB0CF734BFA2EBC742B2EBC74214
:1013200061EB57310CFB0EF7B0EBC70072EB577255
:101330000CFB08F734BFA2EBC702B2EBC70261EBAC
:101340005771039F4FEA816141EA921104EBCC048B
:101350004FEAD1374FEA826206FB07FC42EA90125D
:101360004FEA80604FEA1C4C0CFB0BF7D21B03FBCF
:101370000CF761EB07010CFB0EF7B0EB074072EBCB
:1013800017420CFB08F734BFA2EB0742B2EB07424F
:1013900061EB17414FEA8C554FEA910704EB9C240F
:1013A00006FB07FC4FEA1C4C0CFB0BF7B0EBC740ED
:1013B00072EB573203FB0CF734BFA2EBC742B2EB20
:1013C000C74261EB57310CFB0EF7B0EBC70072EB75
:1013D00057720CFB08F734BFA2EBC702B2EBC7028F
:1013E00061EB577115EB4C254FEA816141EA92118F
:1013F0004FEA82624FEAD13742EA901206FB07FCBD
:1014000044F100044FEA80604FEA1C4C0CFB0BF7E0
:10141000D21B03FB0CF761EB07010CFB0EF7B0EBE3
:10142000074072EB17420CFB08F734BFA2EB0742F0
:10143000B2EB074261EB174115EB1C154FEA813106
:1014400041EA92414FEA823242EA90424FEA8030CA
:101450004FEA0C7644F1000448EA03434EEA0B4895
:101460004FF0000EB2EB080C71EB030724BF62468D
:1014700039464EEB0E0E4FF0000B00185241494119
:101480004BEB0B0BB2EB080C71EB03077BF1000B82
:1014900024BF624639464EEB0E0E4FF0000B00188B
:1014A000524149414BEB0B0BB2EB080C71EB0307BC
:1014B0007BF1000B24BF624639464EEB0E0E51EA1B
:1014C000020718BF46F0010616EB0E7655F1000232
:1014D00054F1000103D5BDE88901BDE80088BDE8ED
:1014E0008901BDE80048B619524141EB0101A3F161
:1014F0000103704780807F7E7D7C7B7A7978777668
:1015000076757473727171706F6E6E6D6C6C6B6AE0
:101510006A6968686766666564646363626161607E
:10152000605F5F5E5E5D5D5C5C5B5B5A5A595958FB
:101530005857575656555555545453535252525165
:10154000515050504F4F4F4E4E4D4D4D4C4C4C4BBB
:101550004B4B4A4A4A494949484848474747474602
:10156000464645454544444444434343434242423E
:1015700042414141002B26D4770021D01CB54FEACF
:10158000370703B44FF010004FF010014FF0000088
:101590000FBCBDE810400BF1010BBBF1010F08BF00
:1015A0005FEA170722BF12F1010211F101014FF0AA
:1015B000004143F1000300F0004043EA000070479F
:1015C000F9D35708DAE746EA064613F1400F4FEA27
:1015D00016461FDD13F1200FDFBF16430A46002118
:1015E00020335B42C8D0C3F1200746EA064602FA20
:1015F00007F74FEA164646EA0706C3F1200722FA24
:1016000003F201FA07F721FA03F14FF0000342EA6F
:101610000702B1E746EA020646EA06464FEA1646E0
:1016200046EA0106BCBF46EA0646360C4FF0000308
:101630004FF000024FF000019EE72DE9C0489346AD
:1016400030B491E8380007C831EA400C48BF34EAAA
:10165000430C03D5FFF7F2FDFFF78CFFF0BCBDE8AC
:1016600000882DE9C048934630B491E8380007C897
:1016700010F0804F08BF13F0804F03D100F005F841
:10168000FFF778FFF0BCBDE8008820F07F4780EAD4
:10169000030023F07F4C07EB0C03A3F57C5300F011
:1016A0000040A3F1FE0392F0000F00F0B38095F02C
:1016B000000F00F077802DE901494FEA11404FEA11
:1016C000144621EA004800FB06FC24EA064708FB12
:1016D00006F607FB08F800FB07F718EB06484CEB8B
:1016E000164C4FEA124B18EB07484FEA15464CEBE5
:1016F000174022EA0B4E0BFB06FC25EA06470EFBC1
:1017000006F607FB0EFE0BFB07F71EEB064E4CEB37
:10171000164C4FF000061EEB074E4CEB174B18EB28
:101720000B0840F1000018EB0E0B58EB000840F1DD
:1017300000008F1A4FF000013CBFC943661B14BF65
:10174000B5EB040C00213CBFC943F61B4FEA17441C
:101750004EEA8E0E27EA04454FEA1C4704FB076257
:101760002CEA074C05FB07F70CFB05F604FB0CFC09
:1017700016EB074642EB174216EB0C4642EB1C42B7
:101780001BEB060658EB0202414146EA9E0601D5D4
:10179000BDE80189B619524141EB0101A3F10103F2
:1017A000BDE801894FEA14454FEA114724EA05468E
:1017B00021EA074C05FB07F406FB07F70CFB06F1D3
:1017C00005FB0CFC11EB074144EB17444FEA1247B1
:1017D00011EB0C4144EB1C4422EA074C05FB07F2D9
:1017E00006FB07F70CFB06F605FB0CFC16EB0746A1
:1017F00042EB174216EB0C4642EB1C456A1854F1BB
:10180000000148BF7047B619524141EB0101A3F1F5
:101810000103704795F0000F37D04FEA11424FEAAD
:10182000144721EA024624EA074C02FB07F106FBB3
:1018300007F70CFB06F402FB0CFC14EB074441EB2E
:1018400017414FEA154714EB0C4441EB1C4125EAC4
:10185000074C02FB07F506FB07F70CFB06F602FB3D
:101860000CFC16EB074645EB174516EB0C4645EB13
:101870001C42121951F1000148BF7047B61952417C
:1018800041EB0101A3F1010370474FEA14454FEA10
:10189000114724EA054621EA074C05FB07F106FB40
:1018A00007F70CFB06F24FF0000605FB0CFC12EBF1
:1018B000074241EB174112EB0C4251EB1C4148BF70
:1018C0007047921841EB0101A3F101037047FEE755
:1018D000C1B2000A40EA0120704700002DE9F84F2C
:1018E0000020ADF800004BF6BF7648F280084A4D64
:1018F0004A4C40F68F7ADFF8289148F60F7B494F23
:101900002FE0088810F00F0089F8000032D007EBB4
:101910008001D1F8002CADF80020BDF800201204A1
:101920000BD5D1F8002C02EA0A02C1F8002C3E497E
:1019300001EB800050F8040C8047BDF80000000661
:101940000FD599F8000007EB8001D1F8002C02EACE
:101950000B02C1F8002C354901EB800050F8040C53
:1019600080472D4844300068314908800004C8D4BD
:10197000BDE8F88F28682080208800F03000608063
:10198000208800F4405020802868304080F40050C7
:1019900080F0200040EA080028600888C00617D4BC
:1019A000296801EA0B01296001F040FB28E0218849
:1019B000890401D580F400506188C90628D4618863
:1019C000890601D580F0200040EA08002860CFE7B2
:1019D0002868ADF80000BDF80000000506D52968AC
:1019E00001EA0A01296004F025FB09E0BDF80000C6
:1019F0000004B6D5286800EA0A00286004F04AF915
:101A0000286821883040C904D1D580F48050CEE7C1
:101A100080F01000D3E70000005C0040320000209E
:101A200020000020005000408000002064000020C2
:101A30005A000020810008480844D0F8001C4904DE
:101A400009D5D0F8001C48F68F7211404CF2800284
:101A50001143C0F8001C7047005000408100084846
:101A60000844D0F8001C490609D5D0F8001C48F6F7
:101A70008F72114048F2C0021143C0F8001C704739
:101A800000500040810006480844D0F8001C48F689
:101A90008F62114048F280021143C0F8001C704769
:101AA000005000402DE9F047DFF89490254F4FF0AB
:101AB0003008D9F8001001F11005088A0E7A08B92B
:101AC000042E04D0AC88A04215D8042614E01E4889
:101AD0000178012903D00726102038802BE01B4A0B
:101AE000002112681A4B120403EBD2325160A7F89E
:101AF000008001701FE00226844200D90446A968D4
:101B0000204688478246002000F088FA0146224697
:101B1000504605F029F82146002004F02FFA2888C5
:101B2000001B2880688820446880A7F80080094945
:101B30004FF440500880D9F800000672BDE8F087E5
:101B400024000020340000201C000020505C0040D5
:101B500000600040320000202DE9F047224EDFF8FF
:101B60008C803027346834F8100FA168A9B100B315
:101B7000A588854200D905462846884781462088A1
:101B8000401B2080608828446080002000F026FAF6
:101B900001462A46484604F0A1F8208848B1144975
:101BA0004FF4405008800021084604F0E7F9A8F8F7
:101BB00000702088A188884201D3032001E020B171
:101BC000052031680872BDE8F08731680620087288
:101BD000084900200968084A090402EBD13148602D
:101BE000A8F80070EFE70000240000203400002077
:101BF00032000020505C004000600040F8B55D4CB1
:101C00005D4D09262068002729684278062A05D0FC
:101C1000AAB1082A4DD00A2A50D06BE002785206A9
:101C200068D18078012804D0022804D0032804D089
:101C300060E0C96956E0096A54E0496A52E04288A6
:101C4000B2BBC288022A55D102798ABB02785306F8
:101C500001D1838833B102F07F02012A04D0022A25
:101C60000CD047E045493DE08A6940790021904722
:101C7000F0B92068807A0028F4D13BE0417901F086
:101C80000F0001F070020B063D4901EB8001D1F815
:101C9000001C03D5C1F30111090102E0C1F30131B8
:101CA0000903384B1B78834224D90AB90029D9D1BA
:101CB00020E0007840061DD1334913E0027802F09D
:101CC0007F02012A16D1827AA2B1428892B90279A2
:101CD00082B9C288012A0DD18A69407900219047D2
:101CE00040B92A4931B12068478281610020884784
:101CF000002006E0296820680969407888470328A1
:101D000013D021680A8AA2F57F43FF3B0BD002283B
:101D10000ED06AB10878000626D5C88800908242A5
:101D20000AD9088218E00E72F8BD20680672F8BD64
:101D30004FF008000872F8BD0ED22868144B90F8D6
:101D40002C00824201D21F7006E0B2FBF0F400FBCF
:101D5000142008B901201870286890F82C00888297
:101D6000BDE8F840FFF79EBE032008720949000352
:101D70000880F8BD2400002028000020056200082B
:101D8000005000400801002099610008DD61000852
:101D90001C00002032000020704700001C4810B5D5
:101DA000B0F80214B0F80024914230D0B0F8021418
:101DB000B0F80024914205D2B0F80014B0F8022423
:101DC000891A03E0B0F80214C1F580618CB2402C8E
:101DD00000D94024B0F80214B0F802242244A0F83C
:101DE0000224B0F80224B2F5806F02D30022A0F8DA
:101DF000022408442246C02104F0B6FE21460120F8
:101E000004F0BCF8BDE81040012004F0DDB810BDBE
:101E1000B802002010B50649032004F051FEC1B2FB
:101E2000034804F05FFEBDE81040032004F084B8CE
:101E30004C08002010B503A0FEF772FA08490320F1
:101E4000086010BD75736220656E746572206C6FDA
:101E50007720706F776572206D6F64650D0A0000E2
:101E60003001002070B5B3F5804F05D06FF07041A0
:101E700040F82210002070BD0C688B69F0251C43CF
:101E800095FAA5F54B68B5FA85F5AB404FF47F465A
:101E900096FAA6F68D68B6FA86F6B5402B431C4333
:101EA0004FF47023C96893FAA3F3B3FA83F399400C
:101EB0000C4350F82210034B19400C4340F82240C9
:101EC000D8E700000000F0CF30B50A6850F82230A3
:101ED00023F0010340F822308A68214B082A1ED0E3
:101EE0004C681443D1E903252A4314434A69144337
:101EF0008A691443CA6914430A6A14434A6A144338
:101F00008A6A1443CA6A14430A6B0968144350F876
:101F100021201A40144340F82140002030BD4A6877
:101F2000D1E9034542F008022C4322434C69224385
:101F30008C692243CC6922430C6A22434C6A2243B7
:101F40008C6A2243CC6A22430C6B0968224350F806
:101F500021401C40224342F0400240F82120DCE7AF
:101F60008100F7FF70B5F025D1E9003495FAA5F5A9
:101F7000B5FA85F5AC4023434FF47F4595FAA5F5B6
:101F80008C68B5FA85F5AC404FF4702696FAA6F643
:101F9000CD68B6FA86F6B5402C4323434FF470055E
:101FA0000C6995FAA5F5B5FA85F5641EAC40234396
:101FB0004FF070654C6995FAA5F5B5FA85F5A41E44
:101FC000AC408969234300EB82000B43416801F078
:101FD00040410B434360002070BD00000549096883
:101FE00089B201EBC000044901EB4000008980B2D6
:101FF00070470000505C00400060004005490968DF
:1020000089B201EBC000044901EB40008089C0F3B4
:1020100009007047505C00400060004004490968B6
:1020200089B201EBC000034931F8100080B270475B
:10203000505C0040006000400A4810B50168001D77
:102040000468001D006808180BD00822064901F03A
:102050001BF8054920460422BDE81040103101F06C
:1020600013B810BDE8F7FF1F3A00002031B500F0AB
:1020700005F9044600F002F90099001B8842F9D3E3
:1020800038BD00002DE9F84FDFF8BC91002309F1BD
:10209000040A0AF1040B1C464FF00F080BF1040E62
:1020A00001270A68A7403A40BA4272D1DFF89CC1C2
:1020B0004D68A5EB0C0665452BD00DDC032D34D007
:1020C00005DC35B3012D19D0022D2FD11BE0112DC8
:1020D00016D0122D2AD119E0B6F5881F19D006DCCA
:1020E000B6F5803F15D0B6F5801F1FD111E0B6F5CB
:1020F000001F0ED0B6F5041F18D10AE0CB6815E01A
:10210000CB681B1D12E0CB6808330FE0CB680C33A3
:102110000CE08B682BB1012B4FF0080303D0476113
:1021200004E0042302E0076100E00023FF2A01D855
:10213000064601E000F104064FEA840501D9A5F145
:102140002005376808FA05FC27EA0C0703FA05F5AD
:1021500047EA050737604D68ED006ED53C4DAE6926
:1021600046F00106AE61AD6924F0030605F00105F5
:102170000095384D7719BE68A5072D0F08FA05FCA4
:1021800026EA0C06DFF8D0C0604503D14FF0000C02
:1021900025E052E0DFF8C4C0604502D14FF0010CE9
:1021A0001DE0DFF8BCC0604502D14FF0020C16E024
:1021B000DFF8B0C0604502D14FF0030C0FE0DFF84C
:1021C000A8C0604502D14FF0040C08E0DFF89CC0C5
:1021D000604502D14FF0050C01E04FF0060C0CFAFF
:1021E00005FC4CEA060CC7F808C04D68D9F8006039
:1021F000ED034D4601D5164300E096432E604D6831
:10220000DAF80060AD03554601D5164300E0964369
:102210002E604D68DBF80060ED025D4601D5164387
:1022200000E096432E604D68DEF80060AD02754612
:1022300001D5164300E096432E60641C102CFFF479
:102240002FAFBDE8F88F000000040140000011101E
:10225000001002400000014000080140000C014055
:10226000001001400014014000180140001C014012
:102270000AB1016170470904FBE7000001480068EA
:10228000704700000400002002480168491C0160FA
:102290007047000004000020074810B5016841F0B5
:1022A00010010160052000F047F80F2000F006F84B
:1022B00000F015F8002010BD0020024010B50446C3
:1022C00000F0A2F94FF47A71B0FBF1F000F052FD8A
:1022D00000222146501E00F00FF8002010BD70476C
:1022E00000F01F02012191404009800000F1E02030
:1022F000C0F8001170470000F0B40E4B1B68C3F328
:102300000223C3F10704042C00D904241D1D072D4A
:1023100001D2002300E0DB1E012606FA04F56D1E43
:102320000D409D409E40761E164045EA0601F0BCD9
:1023300003F035BC0CED00E0064A00F00701106820
:102340004FF6FF03184040EA01200349084310609C
:10235000704700000CED00E00000FA052DE9F8439D
:1023600004460078454EC00773D0F06940F08050B5
:10237000F061F069424F00F080500090386840F4FE
:1023800080703860FFF77AFF054604E0FFF776FFBC
:10239000401B642832D83868C005F7D5306A10F47D
:1023A000407050D0A18801F4407181424BD0306A16
:1023B00001273B0493FAA3F1B1FA81F18A00314974
:1023C00020F440700A44C2F8007493FAA3F3B3FAFD
:1023D00083F301EB83010022C1F800243062C007BF
:1023E00031D0FFF74BFF054641F288394FF0020824
:1023F00007E0FFF743FF411B494502D90320BDE831
:10240000F88398FAA8F0B0FA80F040F04000414616
:10241000B7EB501F01D130680BE091FAA1F0B0FA90
:1024200080F040F04000B1EB501F01D1306A00E075
:10243000706A98FAA8F1B1FA81F101F01F0207FA67
:1024400002F10842D5D0306A616820F44070084338
:1024500030622078800705D57068A16820F440407C
:10246000084370602078C00605D57068616920F463
:102470008000084370600020C1E7000000100240A7
:1024800000700040000042422DE9F047DFF868810B
:1024900004460E46D8F8000000F00700B0420CD207
:1024A000D8F8001021F007013143C8F80010D8F81F
:1024B000000000F00700B04273D120784F4F800732
:1024C00005D57868A16820F0F0000843786020788E
:1024D000C00755D06068012201280CD0022828D0FE
:1024E000022393FAA3F1B1FA81F141F020014909E5
:1024F00004D0396803E04FF40033F2E7796A93FAC5
:10250000A3F3B3FA83F303F01F039A40114248D0B8
:10251000796821F0030101437960FFF7AFFE0546BA
:10252000606841F2883101280CD00228894615D014
:1025300022E04FF00073D4E7FFF7A0FE411B4945AE
:1025400001D916E089467868C0F381000128F3D1EB
:1025500016E0FFF793FE411B49450AD87868C0F39F
:1025600081000228F5D10BE0FFF788FE411B4945A9
:1025700002D90320BDE8F087786810F00C0FF3D182
:10258000D8F80010404601F00701B1420BD90168AC
:1025900021F0070131430160006800F00700B042FC
:1025A00001D00120E6E72078400705D57868E1688A
:1025B00020F4E060084378602078000706D578684A
:1025C000216920F4605040EAC100786000F052F8C0
:1025D0007968F02292FAA2F201F0F001B2FA82F2E6
:1025E000D140074A515CC840064908600F20FFF7F8
:1025F00065FE0020BEE700000020024000100240FF
:10260000787400080000002001480068704700004E
:102610000000002008480949006849684FF4E0625A
:1026200092FAA2F201F4E061B2FA82F2D140044AD5
:10263000515CC840704700000000002000100240BC
:102640008874000808480949006849684FF46052D6
:1026500092FAA2F201F46051B2FA82F2D140044A35
:10266000515CC8407047000000000020001002408C
:102670008874000810B519A085B00FC88DE80F0048
:102680001AA01B4B0068049059681A4801F00C020C
:10269000042A1DD0082A1BD14FF4701494FAA4F414
:1026A00001F47012B4FA84F4E240C9031DF8022068
:1026B00010D559684FF4003393FAA3F301F40031B5
:1026C000B3FA83F3D94004AB595CB0FBF1F050434B
:1026D00005B010BD08485043FAE7000002030405A6
:1026E000060708090A0B0C0D0E0F1010010200005E
:1026F0000010024000127A0000093D002DE9F84F59
:1027000004460078FE4EC0074FF001057FD0706888
:102710004FF40038C0F38100012807D07068C0F37F
:10272000810002281BD17068C00318D598FAA8F060
:10273000B0FA80F040F02000400901D0306800E09D
:10274000706A98FAA8F1B1FA81F101F01F0105FA57
:1027500001F108425BD06068002879D057E06068DA
:10276000B0F5803F0BD010B1B0F5A02F11D030687C
:1027700020F480303060306820F4802002E030683F
:1027800040F480303060606818B3FFF777FD07468B
:1027900009E0306840F480203060F0E7FFF76EFD1C
:1027A000C01B642870D898FAA8F0B0FA80F040F006
:1027B0002000400901D0306800E0706A98FAA8F162
:1027C000B1FA81F101F01F0105FA01F10842E5D0EB
:1027D0001DE0FFF753FD074604E0FFF74FFDC01B68
:1027E0006428DFD898FAA8F0B0FA80F040F0200012
:1027F000400901D0306800E0706A98FAA8F1B1FA97
:1028000081F101F01F0105FA01F10842E5D12078BC
:10281000DFF8F08280074FF0000A4FF002075AD528
:1028200070684FF0F80B10F00C0F07D07068C0F311
:10283000810002281CD17068C00319D497FAA7F050
:10284000B0FA80F040F02000400902D0306801E08A
:102850008AE0706A97FAA7F1B1FA81F101F01F01DD
:1028600005FA01F108422BD0206901287CD127E02C
:10287000206988B395FAA5F0B0FA80F048F82050A6
:10288000FFF7FCFC814606E04DE1FFF7F7FCA0EB0B
:102890000900022886D897FAA7F0B0FA80F040F035
:1028A0002000400901D0306800E0706A97FAA7F173
:1028B000B1FA81F101F01F0105FA01F10842E4D0FB
:1028C00030689BFAABF220F0F8016069B2FA82F24C
:1028D00090400143316025E0FFE795FAA5F1B1FA98
:1028E00081F148F821A0FFF7C9FC814605E0FFF718
:1028F000C5FCA0EB09000228CCD897FAA7F0B0FAE3
:1029000080F040F02000400901D0306800E0706A9B
:1029100097FAA7F1B1FA81F101F01F0105FA01F16F
:102920000842E4D1207800076DD5A069B8B395FAC4
:10293000A5F0B0FA80F008EB8000C0F88054FFF7F3
:102940009DFC814605E0FFF799FCA0EB09000228F9
:10295000A0D897FAA7F0B0FA80F040F06000B5EB8D
:10296000501F02D130680CE063E197FAA7F0B0FA8B
:1029700080F040F06000B7EB501F01D1306A00E0FA
:10298000706A97FAA7F1B1FA81F101F01F0105FA17
:1029900001F21042D7D00120FFF768FB33E0FFE7D8
:1029A00095FAA5F1B1FA81F108EB8101C1F880A493
:1029B000FFF764FC814605E0FFF760FCA0EB09002F
:1029C000022899D897FAA7F0B0FA80F040F060009A
:1029D000B5EB501F01D130680BE097FAA7F0B0FAC1
:1029E00080F040F06000B7EB501F01D1306A00E08A
:1029F000706A97FAA7F1B1FA81F101F01F0105FAA7
:102A000001F21042D8D12078400763D5F06940F038
:102A10008050F061F069DFF8F0B000F08050009075
:102A2000DBF8001041F48071CBF80010FFF726FCB2
:102A3000814605E0FFF722FCA0EB0900642872D86C
:102A4000DBF80000C005F5D5E06801280AD008B120
:102A5000052813D0306A20F001003062306A20F07F
:102A6000040002E0306A40F001003062E06841F2A8
:102A7000883B80B3FFF702FC81460AE0306A40F0F1
:102A800004003062EEE7FFF7F9FBA0EB09015945BE
:102A900049D897FAA7F0B0FA80F040F04000B5EBC3
:102AA000501F01D130680BE097FAA7F0B0FA80F020
:102AB00040F04000B7EB501F01D1306A00E0706A6F
:102AC00097FAA7F1B1FA81F101F01F0205FA02F1BC
:102AD0000842D8D033E0FFE7FFF7D0FB814605E09E
:102AE000FFF7CCFBA0EB090159451CD897FAA7F0DA
:102AF000B0FA80F040F04000B5EB501F08D105E07F
:102B000000100240000042420070004030680CE0BB
:102B100097FAA7F0B0FA80F040F04000B7EB501FF2
:102B200002D1306A01E08AE0706A97FAA7F1B1FA3F
:102B300081F101F01F0205FA02F10842D0D1E069EB
:102B400098B37168C1F38101022972D002284FF055
:102B500080714FF0007B50460AD091FAA1F1B1FA92
:102B600081F148F82100FFF789FB04465F4669E0E0
:102B70008A4691FAA1F1B1FA81F1C14648F82100E3
:102B8000FFF77CFBA84607465D4604E0FFF776FBAF
:102B9000C01B022853D895FAA5F0B0FA80F040F097
:102BA0002000400902D0306801E060E0706A95FAC8
:102BB000A5F1B1FA81F101F01F0208FA02F1084211
:102BC000E4D1206AB0F5803F05D17068A16820F497
:102BD000003008437060D4E908010843716821F4AB
:102BE0007411084370609AFAAAF0B0FA80F0474670
:102BF00049F82080FFF742FB044604E0FFF73EFB64
:102C0000001B02281BD895FAA5F0B0FA80F040F01E
:102C10002000400901D0306800E0706A95FAA5F103
:102C2000B1FA81F101F01F0107FA01F10842E5D084
:102C30001DE01EE0FFF722FB001B022802D9032043
:102C4000BDE8F88F97FAA7F0B0FA80F040F02000C6
:102C5000400901D0306800E0706A97FAA7F1B1FA34
:102C600081F101F01F0105FA01F10842E2D10020D3
:102C7000E6E70120E4E770B515460E46040003D0F0
:102C800094F83D0010B107E0012070BD002084F8E9
:102C90003C00204600F01AF804F108012068FFF714
:102CA00013F93146A2682068FFF75CF9D4E9010204
:102CB0002946236BFFF7D6F8A168206850F8212039
:102CC00042F0010240F82120002070BD1F4800B5ED
:102CD000416985B041F480714161416901F48071BD
:102CE0000491816941F020018161816901F0200135
:102CF0000491816941F040018161816901F04001E5
:102D00000491816941F4807181618069694600F4B0
:102D1000807004904CF233700090022001900120EA
:102D20000290032003900A48FFF7ACF94FF6807039
:102D3000009069460748FFF7A5F941F201000090AD
:102D400069460548FFF79EF905B000BD0010024036
:102D50000014014000180140002001404FF0E02124
:102D60000428086903D020F004000861704740F08F
:102D70000400FAE710B5401EB0F1807F01D30120B6
:102D800010BD4FF0E02460610F21601702F007FFD3
:102D90000020A06107202061002010BD704790F83E
:102DA0003900704738B5044600680168C268C1F34D
:102DB000000102F4807221B11AB1E16B41F001010E
:102DC000E1630168C1F34002416901F0010122B1F0
:102DD00019B1E26B42F00402E2630268C2F38002BE
:102DE00022B119B1E26B42F00202E2630268C2F35F
:102DF000C00222B119B1E16B41F00801E163016841
:102E0000C068C1F3401100F0200019B110B1204694
:102E100003F060FB20680168C068C1F3C01100F0D6
:102E2000800019B110B1204603F060FC21680868E9
:102E3000CA68C0F3801002F04002012568B162B197
:102E4000CA68204622F04002CA6094F8391032293C
:102E500010D080F8395000F0E7F8E06B002808D077
:102E6000206801684068009084F839502046FFF7D8
:102E700095FF38BD222180F83910ECE770B50400C9
:102E800004D094F83900002510B106E0012070BD8F
:102E900084F83850204600F021F8022084F83900E8
:102EA0002068C16821F40051C160204603F066FB30
:102EB0002068016921F4904101612068416921F095
:102EC0002A0141612068C16841F40051C160E56395
:102ED000012084F83900002070BD000010B50068A2
:102EE0001E4986B0884236D11D48816941F00401EF
:102EF0008161816901F004010491816941F480419B
:102F00008161816901F480410491816941F001018D
:102F100081618069134C00F0010004904FF400704F
:102F20000090022001900120029003200390694646
:102F30002046FFF7A7F8211500910021019169466D
:102F40002046FFF79FF82520FFF7CAF90322114614
:102F50002520FFF7D1F906B010BD00000038014070
:102F6000001002400008014090F83930012B01D0D8
:102F7000122B2BD131B32AB390F83830012B25D046
:102F8000012380F8383081628285C2850021C163C7
:102F900090F83920122A17D0222280F8392080F8A0
:102FA00038100168CA6842F48072CA6001684A69D0
:102FB00042F001024A610068C16841F02001C1602D
:102FC00000207047012070473222E6E70220704758
:102FD00030B50068114988420CD1114A508801046B
:102FE00008D41146440409784FF0000306D50A2995
:102FF00001D0538030BD40F400400DE00D2909D0D0
:10300000C0F30D04074D401C80B229555080C728DD
:10301000EFD830BD40F48040508030BD00380140D2
:103020000C000020400100207047FEE710B5134C53
:103030002068017A022904D0042902D0062905D08B
:1030400015E0FEF72FFD2068007A11E04178052990
:1030500009D10178490606D1C07802F001FF08487D
:103060000068006A80470748006880688047082039
:1030700021680872BDE8104002F042BE2400002022
:103080002C00002028000020F0B500230A24302561
:1030900037261F4610E0B4EB107F02D905EB107CF9
:1030A00001E006EB107C01F813C001EB430C0001BA
:1030B0005B1C8CF80170DBB29342ECD3F0BD0000D6
:1030C00070B50646094800240188458820464D43CE
:1030D000214602F0C7FB02F0F7FCB1B2044801E060
:1030E0000180641CAC42FBD370BD00008C02002048
:1030F0000008006C2DE9F04F334B2C2419469871D1
:103100002A2589882B2645F2105B4FF4305E4FF458
:1031100048774FF0F00949F2413A4FF4A07845F270
:10312000103C4FF4F07258B1A3F80080A3F802905D
:10313000514501D0614529D11C815D819E8139E0D5
:10314000A3F80090A3F80280514501D0614508D151
:103150001C815D819E81614531D1A3F800805A8038
:103160002DE0594508D1A3F808E04FF428505881C4
:103170004FF42C50988106E0A1F5C85063381ED159
:103180001C815E819D811A805F8018E0594508D1BD
:10319000A3F808E04FF4285058814FF42C50988140
:1031A00006E0A1F5C850633804D11C815D819E8181
:1031B0001F805A80614502D11A80A3F80280BDE8C1
:1031C000F04F002002F072BA8C0200202DE9F0418D
:1031D000364D90460C4602460F0AA8882946160A24
:1031E0004989A0F51343413B0BD0A0F5A643103B02
:1031F00007D0B3F5007311D0A0F5C853633B27D0B7
:103200004BE0084602F054FC304602F045FCD0B2D8
:1032100002F042FCA88902F04BFC38E0084602F0BC
:1032200047FC304602F038FC6889401C80B202F04E
:103230003FFCD0B202F030FCA88902F039FC3846DD
:1032400002F02AFCA889401C80B202F031FC21E087
:10325000A87918B92888801A401E82B2084602F060
:1032600027FC160A304602F017FCD0B202F014FC1C
:10327000304602F011FCD0B202F00EFCA88902F038
:1032800017FC384602F008FCE0B202F005FC3846B4
:1032900002F002FCE0B202F0FFFB05492889088039
:1032A000891CA1F80080BDE8F08100008C0200209C
:1032B000FE07006C2DE9F04FFE4895B0816941F0A2
:1032C0000801816180694FF0010900F00800009059
:1032D000CDF844900325CDF84890CDE9139511A978
:1032E000F548FEF7CFFEF5484FF02044F44906229A
:1032F0000460C0E9011200211023C160C0E9041379
:1033000081611B02C161C0E909139B00C0E90B1375
:10331000416381631A200A92CDE90B10CDE90412B2
:10332000109106910991039503AA0AA9E348FFF7B2
:10333000A2FC322003F070FDD32002F0B9FB02F0B2
:1033400085F9DE4A4432908002F080F9908002F0E4
:103350007DF94FF6FF7B0BEA0020908002F076F9B2
:10336000918849F2413A0843908045F2103645F27F
:10337000105541F66317504548D0D42002F098FB11
:1033800002F064F9908002F061F9908002F05EF939
:103390000BEA0020D846908002F058F99188084343
:1033A0009080B04232D04FF45A4002F081FB02F0DC
:1033B0004DF990804FF45B4002F07AFB02F046F941
:1033C00008EA002090804FF45C4002F071FB02F0AC
:1033D0003DF9918808439080B0F5004F7ED0A84217
:1033E00014D0A12002F064FB02F030F9908002F0CA
:1033F0002DF908EA0020908002F028F9918808430E
:10340000A0F5AE419080613900D1978090469188B7
:10341000ACA0FCF785FFB8F8040050457ED1CF2062
:1034200002F046FB002002F037FBC12002F034FB23
:10343000302002F031FBED2002F03AFB642002F074
:103440002BFB032002F028FB122002F025FB812039
:1034500002F022FBE82002F02BFB852002F01CFB8F
:10346000102002F019FB7A2002F016FBCB2002F0AC
:103470001FFB392002F010FB2C2002F00DFB002076
:1034800002F00AFB342002F007FB022002F004FBEA
:10349000F72002F00DFB202002F0FEFAEA2002F0F5
:1034A00007FB002002F0F8FA002002F0F5FAC02035
:1034B00002F0FEFA1B2002F0EFFAC12002F0F8FA47
:1034C000012002F0E9FAC52002F0F2FA302002F001
:1034D000E3FA302002F0E0FAC72000E0B7E002F0A3
:1034E000E7FAB72002F0D8FA362002F0E1FA4820D5
:1034F00002F0D2FA3A2002F0DBFA552002F0CCFAC0
:10350000B12002F0D5FA002002F0C6FA1A2002F02B
:10351000C3FAB62002F0CCFA0A2000E099E002F0EB
:10352000BBFAA22002F0B8FAF22002F0C1FA0020A1
:1035300002F0B2FA262002F0BBFA012002F0ACFA47
:10354000E02002F0B5FA0F2002F0A6FA2A2002F0DD
:10355000A3FA282002F0A0FA082002F09DFA0E201B
:1035600002F09AFA082002F097FA542002F094FA36
:10357000A92002F091FA432002F08EFA0A2002F00C
:103580008BFA0F2002F088FA002002F085FA002062
:1035900002F082FA002002F07FFA002002F07CFAAA
:1035A000E12002F085FA002002F076FA152002F000
:1035B00073FA172002F070FA072002F06DFA11205A
:1035C00002F06AFA062002F067FA2B2002F064FA91
:1035D000562002F061FA3C2002F05EFA052002F06B
:1035E0005BFA102002F058FA0F2002F055FA3F2043
:1035F00002F052FA3F2002F04FFA0F2002F04CFA8C
:103600002B2002F055FA002002F046FA002002F0CA
:1036100043FA012002F040FA3F2002F03DFA2A204E
:1036200002F046FA002002F037FA002002F034FAE5
:10363000002002F031FAEF2002F02EFA112002F001
:1036400037FA782003F0E8FB292001F011BF9580BC
:10365000DCE6B0427ED1ED2002F02AFA012002F031
:103660001BFAFE2002F018FAEE2002F021FADE200A
:1036700002F012FA212002F00FFAF12002F018FAFB
:10368000012002F009FADF2002F012FA102002F005
:1036900003FAC42002F00CFA8F2002F0FDF9C620D4
:1036A00002F006FA002002F0F7F9E22002F0F4F945
:1036B000E2200FE000100240000C01404802002010
:1036C000040100A0204C43442049443A25780D0AC7
:1036D0000000000002F0E0F9E22002F0DDF9BF2076
:1036E00002F0E6F9AA2002F0D7F9B02002F0E0F9E2
:1036F0000D2002F0D1F9002002F0CEF90D2002F0E9
:10370000CBF9002002F0C8F9112002F0C5F9002021
:1037100002F0C2F9192002F0BFF9002002F0BCF952
:10372000212002F0B9F9002002F0B6F92D2002F0B4
:10373000B3F9002002F0B0F93D2002F0ADF900200D
:1037400002F0AAF95D2002F0A7F9002002F0A4F926
:103750005D2000E0FEE302F09FF9002002F09CF9FA
:10376000B12002F0A5F9802002F096F9002002F0C5
:1037700093F98B2002F090F9002002F08DF9962049
:1037800002F08AF9002002F087F9B22002F090F9E5
:10379000002002F081F9002002F07EF9022002F000
:1037A0007BF9002002F078F9032002F075F900207F
:1037B00002F072F9B32002F07BF9002002F06CF9FC
:1037C000002002F069F9002002F066F9002002F002
:1037D00063F9002002F060F9002002F05DF900209A
:1037E00002F05AF9002002F057F9002002F054F9D3
:1037F000002002F051F9002002F04EF9002002F002
:103800004BF9002002F048F9002002F045F90020B1
:1038100002F042F9002002F03FF9002002F03CF9EA
:10382000002002F039F9002002F036F9002002F001
:1038300033F9002002F030F9002002F02DF90020C9
:1038400002F02AF9002002F027F9B42002F030F942
:103850008B2002F021F9002002F01EF9962002F0E0
:103860001BF9002002F018F9A12002F015F9002040
:1038700002F012F9B52002F01BF9022002F00CF957
:10388000002002F009F9032002F006F9002002F0FE
:1038900003F9042002F000F9002002F0FDF8B62040
:1038A00002F006F9002002F0F7F8002002F0F4F828
:1038B000B72002F0FDF8002002F0EEF8002002F040
:1038C000EBF83F2002F0E8F8002002F0E5F85E2077
:1038D00002F0E2F8002002F0DFF8642002F0DCF8E9
:1038E000002002F0D9F88C2002F0D6F8002002F077
:1038F000D3F8AC2002F0D0F8002002F0CDF8DC20A4
:1039000002F0CAF8002002F0C7F8702002F0C4F8F4
:10391000002002F0C1F8902002F0BEF8002002F072
:10392000BBF8EB2002F0B8F8002002F0B5F8DC207C
:1039300002F0B2F8002002F0AFF8B82002F0B8F8B8
:10394000002002F0A9F8002002F0A6F8002002F002
:10395000A3F8002002F0A0F8002002F09DF800205B
:1039600002F09AF8002002F097F8002002F094F894
:10397000BA2002F09DF8242002F08EF8002002F018
:103980008BF8002002F088F8002002F085F8C120B2
:1039900002F08EF8202002F07FF8002002F07CF880
:1039A000542002F079F8002002F076F8FF2002F0AF
:1039B00073F8002002F070F8C22002F079F80A20B3
:1039C00002F06AF8002002F067F8042002F064F8C0
:1039D000002002F061F8C32002F06AF83C2002F0F7
:1039E0005BF8002002F058F83A2002F055F8002069
:1039F00002F052F8392002F04FF8002002F04CF8A3
:103A0000372002F049F8002002F046F83C2002F08E
:103A100043F8002002F040F8362002F03DF8002084
:103A200002F03AF8322002F037F8002002F034F8C1
:103A30002F2002F031F8002002F02EF82C2002F0A6
:103A40002BF8002002F028F8292002F025F80020A9
:103A500002F022F8262002F01FF8002002F01CF8E5
:103A6000242002F019F8002002F016F8242002F0B9
:103A700013F8002002F010F8232002F00DF80020C7
:103A800002F00AF83C2002F007F8002002F004F8E7
:103A9000362002F001F8002001F0FEFF322001F094
:103AA000FBFF002001F0F8FF2F2001F0F5FF0020C0
:103AB00001F0F2FF2C2001F0EFFF002001F0ECFFFD
:103AC000292001F0E9FF002001F0E6FF262001F0A7
:103AD000E3FF002001F0E0FF242001F0DDFF0020E3
:103AE00001F0DAFF242001F0D7FF002001F0D4FF1D
:103AF000232001F0D1FF002001F0CEFFC42001F00F
:103B0000D7FF622001F0C8FF002001F0C5FF0520AB
:103B100001F0C2FF002001F0BFFF842001F0BCFFD4
:103B2000002001F0B9FFF02001F0B6FF002001F005
:103B3000B3FF182001F0B0FF002001F0ADFFA4207A
:103B400001F0AAFF002001F0A7FF182001F0A4FF58
:103B5000002001F0A1FF502001F09EFF002001F0A5
:103B60009BFF0C2001F098FF002001F095FF17202B
:103B700001F092FF002001F08FFF952001F08CFFF3
:103B8000002001F089FFF32001F086FF002001F002
:103B900083FFE62001F080FF002001F07DFFC520BB
:103BA00001F086FF322001F077FF002001F074FF62
:103BB000442001F071FF002001F06EFF652001F04C
:103BC0006BFF002001F068FF762001F065FF002008
:103BD00001F062FF882001F05FFF002001F05CFF30
:103BE000C62001F065FF202001F056FF002001F003
:103BF00053FF172001F050FF002001F04DFF01207E
:103C000001F04AFF002001F047FFC72001F050FFFC
:103C1000002001F041FF002001F03EFF002001F0F4
:103C20003BFF002001F038FFC82001F041FF0020D9
:103C300001F032FF002001F02FFF002001F02CFFE7
:103C4000002001F029FFC92001F032FF002001F01F
:103C500023FF002001F020FF002001F01DFF0020C5
:103C600001F01AFF002001F017FF002001F014FFFF
:103C7000002001F011FF002001F00EFF002001F0F4
:103C80000BFF002001F008FF002001F005FF0020DD
:103C900001F002FF002001F0FFFE002001F0FCFE19
:103CA000002001F0F9FE002001F0F6FEE02001F016
:103CB000FFFE162001F0F0FE002001F0EDFE1C20BA
:103CC00001F0EAFE002001F0E7FE212001F0E4FE11
:103CD000002001F0E1FE362001F0DEFE002001F0C0
:103CE000DBFE462001F0D8FE002001F0D5FE522078
:103CF00001F0D2FE002001F0CFFE642001F0CCFEE6
:103D0000002001F0C9FE7A2001F0C6FE002001F07B
:103D1000C3FE8B2001F0C0FE002001F0BDFE992003
:103D200001F0BAFE002001F0B7FEA82001F0B4FEB9
:103D3000002001F0B1FEB92001F0AEFE002001F03C
:103D4000ABFEC42001F0A8FE002001F0A5FECA20B1
:103D500001F0A2FE002001F09FFED22001F09CFEA7
:103D6000002001F099FED92001F096FE002001F01C
:103D700093FEE02001F090FE002001F08DFEF32084
:103D800001F08AFE002001F087FEE12001F090FEA4
:103D9000162001F081FE002001F07EFE1C2001F0C3
:103DA0007BFE002001F078FE222001F075FE00204D
:103DB00001F072FE362001F06FFE002001F06CFE73
:103DC000452001F069FE002001F066FE522001F05E
:103DD00063FE002001F060FE642001F05DFE002023
:103DE00001F05AFE7A2001F057FE002001F054FE47
:103DF0008B2001F051FE002001F04EFE992001F0D1
:103E00004BFE002001F048FEA82001F045FE0020F6
:103E100001F042FEB92001F03FFE002001F03CFE1F
:103E2000C42001F039FE002001F036FECA2001F066
:103E300033FE002001F030FED22001F02DFE0020E4
:103E400001F02AFED82001F027FE002001F024FE18
:103E5000E02001F021FE002001F01EFEF32001F021
:103E60001BFE002001F018FEE22001F021FE0520DB
:103E700001F012FE002001F00FFE0B2001F00CFEFD
:103E8000002001F009FE1B2001F006FE002001F0D9
:103E900003FE342001F000FE002001F0FDFD44206F
:103EA00001F0FAFD002001F0F7FD4F2001F0F4FDD4
:103EB000002001F0F1FD612001F0EEFD002001F095
:103EC000EBFD792001F0E8FD002001F0E5FD882000
:103ED00001F0E2FD002001F0DFFD972001F0DCFDA4
:103EE000002001F0D9FDA62001F0D6FD002001F050
:103EF000D3FDB72001F0D0FD002001F0CDFDC220A0
:103F000001F0CAFD002001F0C7FDC72001F0C4FD8B
:103F1000002001F0C1FDD12001F0BEFD002001F024
:103F2000BBFDD62001F0B8FD002001F0B5FDDD207D
:103F300001F0B2FD002001F0AFFDF32001F0ACFD77
:103F4000002001F0A9FDE32001F0B2FD052001F001
:103F5000A3FD00E00AE3002001F09EFD0A2001F02D
:103F60009BFD002001F098FD1C2001F095FD002034
:103F700001F092FD332001F08FFD002001F08CFD57
:103F8000442001F089FD002001F086FD502001F061
:103F900083FD002001F080FD622001F07DFD002006
:103FA00001F07AFD782001F077FD002001F074FD2A
:103FB000882001F071FD002001F06EFD972001F0D6
:103FC0006BFD002001F068FDA62001F065FD0020DA
:103FD00001F062FDB72001F05FFD002001F05CFD03
:103FE000C22001F059FD002001F056FDC72001F06C
:103FF00053FD002001F050FDD12001F04DFD0020C7
:1040000001F04AFDD52001F047FD002001F044FDFC
:10401000DD2001F041FD002001F03EFDF32001F024
:104020003BFD002001F038FDE42001F041FD0120BE
:1040300001F032FD002001F02FFD012001F02CFDE8
:10404000002001F029FD022001F026FD002001F0F2
:1040500023FD2A2001F020FD002001F01DFD3C2061
:1040600001F01AFD002001F017FD4B2001F014FDB6
:10407000002001F011FD5D2001F00EFD002001F097
:104080000BFD742001F008FD002001F005FD8420E7
:1040900001F002FD002001F0FFFC932001F0FCFC88
:1040A000002001F0F9FCA22001F0F6FC002001F054
:1040B000F3FCB32001F0F0FC002001F0EDFCBE2089
:1040C00001F0EAFC002001F0E7FCC42001F0E4FC70
:1040D000002001F0E1FCCD2001F0DEFC002001F029
:1040E000DBFCD32001F0D8FC002001F0D5FCDD2062
:1040F00001F0D2FC002001F0CFFCF32001F0CCFC59
:10410000002001F0C9FCE52001F0D2FC002001F004
:10411000C3FC002001F0C0FC002001F0BDFC002029
:1041200001F0BAFC022001F0B7FC002001F0B4FC61
:10413000292001F0B1FC002001F0AEFC3C2001F090
:10414000ABFC002001F0A8FC4B2001F0A5FC0020F6
:1041500001F0A2FC5D2001F09FFC002001F09CFC1E
:10416000742001F099FC002001F096FC842001F0FD
:1041700093FC002001F090FC932001F08DFC0020C6
:1041800001F08AFCA22001F087FC002001F084FCF1
:10419000B32001F081FC002001F07EFCBE2001F084
:1041A0007BFC002001F078FCC42001F075FC0020AD
:1041B00001F072FCCD2001F06FFC002001F06CFCDE
:1041C000D32001F069FC002001F066FCDC2001F046
:1041D00063FC002001F060FCF32001F05DFC002096
:1041E00001F05AFCE62001F063FC112001F054FCC0
:1041F000002001F051FC342001F04EFC002001F0C1
:104200004BFC562001F048FC002001F045FC7620D4
:1042100001F042FC002001F03FFC772001F03CFC63
:10422000002001F039FC662001F036FC002001F08E
:1042300033FC882001F030FC002001F02DFC992097
:1042400001F02AFC002001F027FCBB2001F024FC37
:10425000002001F021FC992001F01EFC002001F05B
:104260001BFC662001F018FC002001F015FC552015
:1042700001F012FC002001F00FFC552001F00CFCB5
:10428000002001F009FC452001F006FC002001F0AF
:1042900003FC432001F000FC002001F0FDFB442062
:1042A00001F0FAFB002001F0F7FBE72001F000FC31
:1042B000322001F0F1FB002001F0EEFB552001F06F
:1042C000EBFB002001F0E8FB762001F0E5FB00208D
:1042D00001F0E2FB662001F0DFFB002001F0DCFBD7
:1042E000672001F0D9FB002001F0D6FB672001F028
:1042F000D3FB002001F0D0FB872001F0CDFB002094
:1043000001F0CAFB992001F0C7FB002001F0C4FBBB
:10431000BB2001F0C1FB002001F0BEFB992001F0A1
:10432000BBFB002001F0B8FB772001F0B5FB0020BB
:1043300001F0B2FB442001F0AFFB002001F0ACFB28
:10434000562001F0A9FB002001F0A6FB232001F07C
:10435000A3FB002001F0A0FB332001F09DFB002017
:1043600001F09AFB452001F097FB002001F094FB3F
:10437000E82001F09DFB002001F08EFB002001F001
:104380008BFB992001F088FB002001F085FB872042
:1043900001F082FB002001F07FFB882001F07CFB14
:1043A000002001F079FB772001F076FB002001F07E
:1043B00073FB662001F070FB002001F06DFB88208C
:1043C00001F06AFB002001F067FBAA2001F064FB0A
:1043D000002001F061FBBB2001F05EFB002001F03A
:1043E0005BFB992001F058FB002001F055FB662093
:1043F00001F052FB002001F04FFB552001F04CFB77
:10440000002001F049FB552001F046FB002001F09F
:1044100043FB442001F040FB002001F03DFB442021
:1044200001F03AFB002001F037FB552001F034FB8E
:10443000002001F031FBE92001F03AFBAA2001F055
:104440002BFB002001F028FB002001F025FB0020C1
:1044500001F022FB002001F02BFBAA2001F01CFB45
:10446000CF2001F025FB002001F016FB002001F019
:1044700013FB002001F010FB002001F00DFB0020D9
:1044800001F00AFB002001F007FB002001F004FB13
:10449000002001F001FB002001F0FEFA002001F0F5
:1044A000FBFA002001F0F8FA002001F0F5FA0020F4
:1044B00001F0F2FA002001F0EFFA002001F0ECFA2E
:1044C000002001F0E9FA002001F0E6FAF02001F006
:1044D000EFFA002001F0E0FA502001F0DDFA0020B0
:1044E00001F0DAFA002001F0D7FA002001F0D4FA46
:1044F000F32001F0DDFA002001F0CEFAF92001F0FE
:10450000D7FA062001F0C8FA102001F0C5FA2920D8
:1045100001F0C2FA002001F0BFFA3A2001F0C8FA17
:10452000552001F0B9FA112001F0C2FA642002F01E
:1045300073FC292001F0BCFA352001F0B9FA002003
:1045400001F0AAFA512001F0B3FAFF2001F0A4FA19
:10455000532001F0ADFA2C2001F09EFA552001F015
:10456000A7FA822001F098FA2C20FDE3A8427CD122
:104570004FF470435521184601F0B0FAAA214FF2CA
:10458000010001F0ABFA52214FF2020001F0A6FA4D
:1045900008214FF2030001F0A1FA01214FF20400BB
:1045A00001F09CFA0D214FF4304001F097FA0D21F3
:1045B0004BF2010001F092FA0D214BF2020001F0E2
:1045C0008DFA34214FF4364001F088FA34214BF251
:1045D000016001F083FA34214BF2026001F07EFAAF
:1045E0000D214FF4314001F079FA0D214BF2011009
:1045F00001F074FA0D214BF2021001F06FFA342130
:104600004FF4374001F06AFA34214BF2017001F0A7
:1046100065FA34214BF2027001F060FA00214FF488
:10462000324001F05BFA00214BF2012001F056FA12
:1046300000214BF2022001F051FA24214FF43840BE
:1046400001F04CFA24214BF6010001F047FA242135
:104650004BF6020001F042FA01214FF43F4001F015
:104660003DFA0F214FF4334000E0FCE301F036FA4D
:104670000F214BF2013001F031FA0F214BF20230E1
:1046800001F02CFA34214FF4394001F027FA34219B
:104690004BF6011001F022FA34214BF6021001F022
:1046A0001DFA08214FF4354001F018FA08214BF2A9
:1046B000015001F013FA08214BF2025001F00EFAFA
:1046C00003214FF4424001F009FA24214FF43A400B
:1046D00001F004FA24214BF6012001F0FFF9242116
:1046E0004BF6022001F0FAF900214FF43C4001F0B2
:1046F000F5F978214BF6014001F0F0F900214BF675
:10470000024001F0EBF900214FF43D4001F0E6F9E1
:1047100078214BF6015001F0E1F900214BF60250EF
:1047200001F0DCF900214FF43E4001F0D7F964219B
:104730004BF6016001F0D2F900214FF4514001F035
:10474000CDF933214DF2011001F0C8F900214DF2ED
:10475000021001F0C3F934214DF2031001F0BEF94B
:1047600000214DF2041001F0B9F93A214DF2051083
:1047700001F0B4F900214DF2061001F0AFF94A2121
:104780004DF2071001F0AAF900214DF2081001F0D6
:10479000A5F95C214DF2091001F0A0F900214DF2BC
:1047A0000A1001F09BF981214DF20B1001F096F9EE
:1047B00000214DF20C1001F091F9A6214DF20D10DF
:1047C00001F08CF900214DF20E1001F087F9E5217E
:1047D0004DF20F1001F082F901214DF2101001F09D
:1047E0007DF913214DF2111001F078F901214DF2FC
:1047F000121001F073F954214DF2131001F06EF90B
:1048000001214DF2141001F069F982214DF21510C9
:1048100001F064F901214DF2161001F05FF9CA218F
:104820004DF2171001F05AF902214DF2181001F063
:1048300055F900214DF2191001F050F902214DF205
:104840001A1001F04BF901214DF21B1001F046F94D
:1048500002214DF21C1001F041F934214DF21D10DE
:1048600001F03CF902214DF21E1001F037F96721E9
:104870004DF21F1001F032F902214DF2201001F02B
:104880002DF984214DF2211001F028F902214DF279
:10489000221001F023F9A4214DF2231001F01EF99A
:1048A00002214DF2241001F019F9B7214DF2251023
:1048B00001F014F902214DF2261001F00FF9CF2179
:1048C0004DF2271001F00AF902214DF2281001F0F3
:1048D00005F9DE214DF2291001F000F902214DF217
:1048E0002A1001F0FBF8F2214DF22B1001F0F6F83E
:1048F00002214DF22C1001F0F1F8FE214DF22D10A5
:1049000001F0ECF803214DF22E1001F0E7F8102130
:104910004DF22F1001F0E2F803214DF2301001F0BA
:10492000DDF833214DF2311001F0D8F803214DF2BA
:10493000321001F0D3F86D214DF2331001F0CEF8B2
:1049400000214FF4524001F0C9F833214DF201200B
:1049500001F0C4F800214DF2022001F0BFF834212B
:104960004DF2032001F0BAF800214DF2042001F0CD
:10497000B5F83A214DF2052001F0B0F800214DF2D2
:10498000062001F0ABF84A214DF2072001F0A6F80D
:1049900000214DF2082001F0A1F85C214DF2092020
:1049A00001F09CF800214DF20A2001F097F88121D6
:1049B0004DF20B2001F092F800214DF20C2001F095
:1049C0008DF8A6214DF20D2001F088F800214DF25E
:1049D0000E2001F083F8E5214DF20F2001F07EF862
:1049E00001214DF2102001F079F813214DF2112030
:1049F00001F074F801214DF2122001F06FF85421FA
:104A00004DF2132001F06AF801214DF2142001F05B
:104A100065F882214DF2152001F060F801214DF278
:104A2000162001F05BF8CA214DF2172001F056F86C
:104A300002214DF2182001F051F800214DF2192009
:104A400001F04CF802214DF21A2001F047F8012143
:104A50004DF21B2001F042F802214DF21C2001F022
:104A60003DF834214DF21D2001F038F802214DF2BD
:104A70001E2001F033F867214DF21F2001F02EF8BF
:104A800002214DF2202001F029F884214DF221204D
:104A900001F024F802214DF2222001F01FF8A42198
:104AA0004DF2232001F01AF802214DF2242001F0EA
:104AB00015F8B7214DF2252001F010F802214DF232
:104AC000262001F00BF8CF214DF2272001F006F847
:104AD00002214DF2282001F001F8DE214DF22920BB
:104AE00000F0FCFF02214DF22A2000F0F7FFF22136
:104AF0004DF22B2000F0F2FF02214DF22C2000F0AD
:104B0000EDFFFE214DF22D2000F0E8FF03214DF2D4
:104B10002E2000F0E3FF10214DF22F2000F0DEFFE9
:104B200003214DF2302000F0D9FF33214DF2312026
:104B300000F0D4FF03214DF2322000F0CFFF6D21B1
:104B40004DF2332000F0CAFF00214FF4534000F033
:104B5000C5FF33214DF2013000F0C0FF00214DF2BE
:104B6000023000F0BBFF34214DF2033000F0B6FFFD
:104B700000214DF2043000F0B1FF3A214DF2053032
:104B800000F0ACFF00214DF2063000F0A7FF4A21F3
:104B90004DF2073000F0A2FF00214DF2083000F086
:104BA0009DFF5C214DF2093000F098FF00214DF28D
:104BB0000A3000F093FF81214DF20B3000F08EFFA0
:104BC00000214DF20C3000F089FFA6214DF20D308E
:104BD00000F084FF00214DF20E3000F07FFFE52150
:104BE0004DF20F3000F07AFF01214DF2103000F04D
:104BF00075FF13214DF2113000F070FF01214DF2CD
:104C0000123000F06BFF54214DF2133000F066FFBC
:104C100001214DF2143000F061FF82214DF2153078
:104C200000F05CFF01214DF2163000F057FFCA2161
:104C30004DF2173000F052FF02214DF2183000F013
:104C40004DFF00214DF2193000F048FF02214DF2D6
:104C50001A3000F043FF01214DF21B3000F03EFFFF
:104C600002214DF21C3000F039FF34214DF21D308D
:104C700000F034FF02214DF21E3000F02FFF6721BB
:104C80004DF21F3000F02AFF02214DF2203000F0DB
:104C900025FF84214DF2213000F020FF02214DF24A
:104CA000223000F01BFFA4214DF2233000F016FF4C
:104CB00002214DF2243000F011FFB7214DF22530D2
:104CC00000F00CFF02214DF2263000F007FFCF214B
:104CD0004DF2273000F002FF02214DF2283000F0A3
:104CE000FDFEDE214DF2293000F0F8FE02214DF2EA
:104CF0002A3000F0F3FEF2214DF22B3000F0EEFEF0
:104D000002214DF22C3000F0E9FEFE214DF22D3053
:104D100000F0E4FE03214DF22E3000F0DFFE102102
:104D20004DF22F3000F0DAFE03214DF2303000F06A
:104D3000D5FE33214DF2313000F0D0FE03214DF28B
:104D4000323000F0CBFE6D214DF2333000F0C6FE64
:104D500000214FF4544000F0C1FE33214DF20140D8
:104D600000F0BCFE002100E082E34DF2024000F0C2
:104D7000B5FE34214DF2034000F0B0FE00214DF2AB
:104D8000044000F0ABFE3A214DF2054000F0A6FED3
:104D900000214DF2064000F0A1FE4A214DF20740ED
:104DA00000F09CFE00214DF2084000F097FE5C21CF
:104DB0004DF2094000F092FE00214DF20A4000F051
:104DC0008DFE81214DF20B4000F088FE00214DF256
:104DD0000C4000F083FEA6214DF20D4000F07EFE57
:104DE00000214DF20E4000F079FEE5214DF20F401A
:104DF00000F074FE01214DF2104000F06FFE13210F
:104E00004DF2114000F06AFE01214DF2124000F017
:104E100065FE54214DF2134000F060FE01214DF279
:104E2000144000F05BFE82214DF2154000F056FE6A
:104E300001214DF2164000F051FECA214DF21740FB
:104E400000F04CFE02214DF2184000F047FE002118
:104E50004DF2194000F042FE02214DF21A4000F0DE
:104E60003DFE012100E006E34DF21B4000F036FE5E
:104E700002214DF21C4000F031FE34214DF21D4064
:104E800000F02CFE02214DF21E4000F027FE6721AB
:104E90004DF21F4000F022FE02214DF2204000F0B2
:104EA0001DFE84214DF2214000F018FE02214DF23A
:104EB000224000F013FEA4214DF2234000F00EFE2C
:104EC00002214DF2244000F009FEB7214DF22540A9
:104ED00000F004FE02214DF2264000F0FFFDCF213C
:104EE0004DF2274000F0FAFD02214DF2284000F07B
:104EF000F5FDDE214DF2294000F0F0FD02214DF2DA
:104F00002A4000F0EBFDF2214DF22B4000F0E6FDCF
:104F100002214DF22C4000F0E1FDFE214DF22D402A
:104F200000F0DCFD03214DF22E4000F0D7FD1021F2
:104F30004DF22F4000F0D2FD03214DF2304000F041
:104F4000CDFD33214DF2314000F0C8FD03214DF27B
:104F5000324000F0C3FD6D214DF2334000F0BEFD44
:104F600000214FF4554000F0B9FD33214DF20150BE
:104F700000F0B4FD00214DF2025000F0AFFD3421ED
:104F80004DF2035000F0AAFD00214DF2045000F054
:104F9000A5FD3A214DF2055000F0A0FD00214DF293
:104FA000065000F09BFD4A214DF2075000F096FD9F
:104FB00000214DF2085000F091FD5C214DF20950A6
:104FC00000F08CFD00214DF20A5000F087FD812198
:104FD0004DF20B5000F082FD00214DF20C5000F01C
:104FE0007DFDA6214DF20D5000F078FD00214DF21F
:104FF0000E5000F073FDE5214DF20F5000F06EFDF4
:1050000001214DF2105000F069FD13214DF21150B5
:1050100000F064FD01214DF2125000F05FFD5421BB
:105020004DF2135000F05AFD01214DF2145000F0E2
:1050300055FD82214DF2155000F050FD01214DF239
:10504000165000F04BFDCA214DF2175000F046FDFE
:1050500002214DF2185000F041FD00214DF219508F
:1050600000F03CFD02214DF21A5000F037FD012105
:105070004DF21B5000F032FD02214DF21C5000F0A9
:105080002DFD34214DF21D5000F028FD02214DF27E
:105090001E5000F023FD67214DF21F5000F01EFD51
:1050A00002214DF2205000F019FD84214DF22150D3
:1050B00000F014FD02214DF2225000F00FFDA4215A
:1050C0004DF2235000F00AFD02214DF2245000F071
:1050D00005FDB7214DF2255000F000FD02214DF2F3
:1050E000265000F0FBFCCF214DF2275000F0F6FCDB
:1050F00002214DF2285000F0F1FCDE214DF2295042
:1051000000F0ECFC02214DF22A5000F0E7FCF22105
:105110004DF22B5000F0E2FC02214DF22C5000F039
:10512000DDFCFE214DF22D5000F0D8FC03214DF2A4
:105130002E5000F0D3FC10214DF22F5000F0CEFC89
:1051400003214DF2305000F0C9FC33214DF23150B3
:1051500000F0C4FC03214DF2325000F0BFFC6D2181
:105160004DF2335000F0BAFC00214FF4564000F0ED
:10517000B5FC33214DF2016000F0B0FC00214DF28E
:10518000026000F0ABFC34214DF2036000F0A6FC9D
:1051900000214DF2046000F0A1FC3A214DF20560BF
:1051A00000F09CFC00214DF2066000F097FC4A21C3
:1051B0004DF2076000F092FC00214DF2086000F013
:1051C0008DFC5C214DF2096000F088FC00214DF25D
:1051D0000A6000F083FC81214DF20B6000F07EFC40
:1051E00000214DF20C6000F079FCA6214DF20D601B
:1051F00000F074FC00214DF20E6000F06FFCE52120
:105200004DF20F6000F06AFC01214DF2106000F0D9
:1052100065FC13214DF2116000F060FC01214DF29C
:10522000126000F05BFC54214DF2136000F056FC5C
:1052300001214DF2146000F051FC82214DF2156005
:1052400000F04CFC01214DF2166000F047FCCA2131
:105250004DF2176000F042FC02214DF2186000F0A0
:105260003DFC00214DF2196000F038FC02214DF2A6
:105270001A6000F033FC01214DF21B6000F02EFC9F
:1052800002214DF21C6000F029FC34214DF21D601A
:1052900000F024FC02214DF21E6000F01FFC67218B
:1052A0004DF21F6000F01AFC02214DF2206000F068
:1052B00015FC84214DF2216000F010FC02214DF21A
:1052C000226000F00BFCA4214DF2236000F006FCEC
:1052D00002214DF2246000F001FCB7214DF225605F
:1052E00000F0FCFB02214DF2266000F0F7FBCF211D
:1052F0004DF2276000F0F2FB02214DF2286000F031
:10530000EDFBDE214DF2296000F0E8FB02214DF2B9
:105310002A6000F0E3FBF2214DF22B6000F0DEFB8F
:1053200002214DF22C6000F0D9FBFE214DF22D60E0
:1053300000F0D4FB03214DF22E6000F0CFFB1021D2
:105340004DF22F6000F0CAFB03214DF2306000F0F7
:10535000C5FB33214DF2316000F0C0FB03214DF25B
:10536000326000F0BBFB6D214DF2336000F0B6FB04
:105370005521184600F0B2FBAA214FF2010000F0BF
:10538000ADFB52214FF2020000F0A8FB08214FF2C2
:10539000030000F0A3FB00214FF2040000F09EFB8D
:1053A000CC214FF4314000F099FB00214BF2011069
:1053B00000F094FB05214FF4364000F08FFB702184
:1053C0004FF4374000F08AFB70214BF2017000F07F
:1053D00085FB01214FF4384000F080FB03214BF6A0
:1053E000010000F07BFB03214BF6020000F076FB8E
:1053F00003214BF6030000F071FB02214FF43C4007
:1054000000F06CFB00214BF6014000F067FB00212F
:105410004BF6024000F062FBD0214FF4494000F00F
:105420005DFB02214CF6011000F058FB50214CF6B8
:10543000021000F053FB50214CF6031000F04EFB1D
:1054400050214CF6041000F049FB00214FF4545059
:1054500000F044FB55214FF4685000F03FFB4FF43F
:10546000885000F025FB782001F0E4FC4FF4245034
:1054700000F01EFBB9E0B842FCD1E22000F018FBBE
:105480001D2000F009FB022000F006FB042000F0C4
:1054900003FB642001F0CEFCE02000F009FB0120BA
:1054A00000F0FAFA0A2001F0B7FCE02000F000FB5F
:1054B000032000F0F1FA0C2001F0AEFC012000F016
:1054C000F7FA0A2001F0A8FCE62000F0F1FA2F20FC
:1054D00000F0E2FAFF2000F0DFFAFF2000F0DCFA33
:1054E000B02000F0E5FA202000F0D6FA002000F00D
:1054F000D3FA032000F0D0FA40F21F3000F0CCFACB
:10550000012000F0C9FA40F2DF1000F0C5FA0020D7
:1055100000F0C2FAB42000F0CBFA042000F0BCFA8C
:1055200040F21F4000F0B8FA002000F0B5FA2E203B
:1055300000F0B2FA002000F0AFFA002000F0ACFA60
:10554000002000F0A9FA002000F0A6FAB62000F032
:10555000AFFA022000F0A0FA4FF4037000F09CFABA
:10556000002000F099FA172000F096FA152000F0BC
:1055700093FA002000F090FA002000F08DFAF0205D
:1055800000F096FA032000F087FA292000F090FA44
:10559000D02000F08DFA002000F07EFABE2000F04E
:1055A00087FA052000F078FAFE2000F075FA012055
:1055B00000F072FA002000F06FFA002000F06CFAA0
:1055C000002000F069FAB82000F072FA032000F021
:1055D00063FA012000F060FABA2000F069FA0120B5
:1055E00000F05AFA642000F03BF8B8F80400504587
:1055F00005D0B04203D0A84201D0B84217D1D4F8A8
:105600001C0120F00F00C4F81C01D4F81C0120F488
:105610007060C4F81C01D4F81C0140F00100C4F80B
:105620001C01D4F81C0140F48070C4F81C01002057
:10563000FDF760FD0449C1F880915846FDF740FD33
:1056400015B0BDE8F08F000000802142034808B586
:105650000088ADF80000BDF8000008BD0008006C2F
:1056600010B50246BE2000F023FA052000F014FA1F
:10567000104601F0EEFD4FF066320B4B01F0FCFDE1
:1056800001F0BAFD80B200F007FA012000F004FA40
:10569000FF2000F001FA002000F0FEF9BDE8104004
:1056A000002000F0F9B9000066660440F0B56C4DCA
:1056B00000232946AA79898841F66314012A01D07A
:1056C0001AB11BE0A14202D118E0A14216D108286C
:1056D00014D2DFE800F00406080A0C0E10120620AF
:1056E0000CE007200AE0042008E0052006E0012085
:1056F00004E0002002E0032000E00220A1F51347AF
:1057000045F2103245F21056413F05D0914203D088
:10571000B14201D0A14277D1082812D2DFE800F0CF
:10572000110406080A0C0E1080230AE0402308E04A
:10573000C02306E0202304E0602302E0A02300E071
:10574000E023B14202D14FF4585000E0362091429C
:1057500005D0B14203D0A14201D043F0080319465D
:1057600000F0BCF9AA88A2420AD098062888698865
:1057700002D5884202D303E0884201D9298068809B
:105780006889B24241D100F093F9002000F084F919
:105790006889401C80B200F08BF9002000F07CF991
:1057A0006889801C80B200F083F92888401EC0F30D
:1057B0000F2000F071F96889C01C80B200F078F900
:1057C0002878401EC0B200F067F9A88900F070F98F
:1057D000002000F061F9A889401C80B200F068F94F
:1057E000002000F059F9A889801C80B200F060F90F
:1057F0006888401EC0F30F2000F04EF9A889C01C35
:1058000080B200F055F922E028E000F051F90020C4
:1058100000F042F9002000F03FF92888401EC0F354
:105820000F2000F039F92878401EC0B200F034F99A
:10583000A88900F03DF9002000F02EF9002000F0CA
:105840002BF96888401EC0F30F2000F025F9A878D6
:10585000BDE8F040401EC0B200F01EB9F0BD00002F
:105860008C020020F0B53F4D0C460246060AA9887E
:105870002846270A4089A1F51343413B28D0A1F5CA
:10588000A643103B24D0A1F5C853633B2FD0A1F50C
:10589000AA43103B64D100F00BF9304600F0FCF84D
:1058A0006889401C80B200F003F9D0B200F0F4F82F
:1058B000A88900F0FDF8384600F0EEF8A889401CF1
:1058C00080B200F0F5F8E0B2BDE8F04000F0E4B8D6
:1058D00000F0EEF8304600F0DFF8D0B200F0DCF86F
:1058E000A88900F0E5F8384600F0D6F8EBE7A9798A
:1058F00029B300F0DDF8304600F0CEF8D0B200F069
:10590000CBF82888401EC0F30F2000F0C5F8287897
:10591000401EC0B200F0C0F8A88900F0C9F83846AF
:1059200000F0BAF8E0B200F0B7F86888401EC0F3A3
:105930000F2000F0B1F8A878401EC0B2C4E7298853
:10594000891A491E8AB200F0B3F8002000F0A4F8CA
:10595000002000F0A1F8100A00F09EF8D0B2D9E7BC
:10596000F0BD00008C0200202DE9F84F82461F4652
:105970000E468B46580700D0012000EBD70079086F
:105980004843203AC0B202F0FF090025009047E0EA
:105990000C2F10D0102F12D0182F14D0202F42D13E
:1059A000224901EBC9104FF00008445D200610D5D4
:1059B0001F48026811E009EB49001E4906E01E4934
:1059C00001EB0910EFE71D4909EBC90001EB80006D
:1059D000E9E70A9828B91648426831465046FDF76B
:1059E000F5FB6006040E1648761CB6B24088B0423D
:1059F00019D9A6EB0B00B84209D10AF101001FFA30
:105A000080FA0F485E46018851450CD906E008F13E
:105A1000010000F0FF08B8F1080FC7D36D1CEDB20C
:105A200000988542B4D3BDE8F88F0000508C000880
:105A3000140000209074000804790008F47E000827
:105A40008C0200202DE9F84F044600F0FF081019E1
:105A50000D46DDE90A761FFA80FA58191FFA80F917
:105A60004FF0000B11E0544502D3E819444685B2CB
:105A70004D450FD23B4629462046CDF800B0FFF7F2
:105A800073FF04EB570084B2761C3278A2F1200039
:105A90005E28E8D9BDE8F88F01B5BDF80000ADF883
:105AA0000000BDF800000149088008BD0008006C36
:105AB00001B5BDF80000ADF80000BDF800000149D7
:105AC000088008BDFE07006C024803490089088071
:105AD000704700008C020020FE07006C024A108014
