:020000040800F2
:10000000D0CC00203D020008DF7D00082F4D000805
:10001000DD7D00088B2700089D9D00080000000082
:10002000000000000000000000000000AD8C00088F
:10003000552A000800000000DD800008478E0008F7
:10004000570200085702000857020008570200082C
:10005000570200085702000857020008570200081C
:10006000570200085702000857020008570200080C
:1000700057020008570200085702000857020008FC
:1000800057020008570200085702000857020008EC
:1000900057020008570200085702000857020008DC
:1000A00057020008570200085702000857020008CC
:1000B0005702000857020008958E000857020008F2
:1000C00057020008570200085702000857020008AC
:1000D00057020008719D00085702000857020008E7
:1000E000570200085702000857020008570200088C
:1000F000570200085702000857020008570200087C
:10010000570200085702000857020008570200086B
:10011000570200085702000857020008570200085B
:10012000570200085702000857020008570200084B
:1001300000F002F800F073F80AA090E8000C824486
:100140008344AAF10107DA4501D100F068F8AFF263
:10015000090EBAE80F0013F0010F18BFFB1A43F0A5
:10016000010318471CE101003CE101000A444FF083
:10017000000C10F8013B13F0070408BF10F8014B06
:100180001D1108BF10F8015B641E05D010F8016B4B
:10019000641E01F8016BF9D113F0080F1EBF10F8AF
:1001A000014BAD1C0C1B09D16D1E58BF01F801CBD2
:1001B000FAD505E014F8016B01F8016B6D1EF9D555
:1001C0009142D6D37047000000230024002500266A
:1001D000103A28BF78C1FBD8520728BF30C148BFAA
:1001E0000B60704703681B0A28BF41F08001642937
:1001F00001F0F886752901F0F586782901F06C8701
:10020000E42901F02B87632902F0B981732902F0F8
:10021000BE81002070471FB51FBD10B510BD02F094
:1002200023FA1146FFF7F7FF0DF07AF902F041FAD1
:1002300003B4FFF7F2FF03BC09F08FFF09488047C2
:1002400009480047FEE7FEE7FEE7FEE7FEE7FEE7B8
:10025000FEE7FEE7FEE7FEE704480549054A064BD0
:10026000704700004D8E000831010008D0C6002004
:10027000D0CC0020D0C80020D0C8002010B5FF4846
:10028000006809F06BFFFE48006809F067FFFD4851
:10029000006809F063FFFC48006809F05FFFFB4855
:1002A000006809F05BFFFA48006809F057FFF94859
:1002B000006809F053FF10BD10B500244FF4007022
:1002C00009F050FFED4908600846006800B90124B4
:1002D0004FF4007009F046FFE949086008460068DD
:1002E00000B901244FF4007009F03CFFE5490860B3
:1002F0000846006800B90124A02009F033FFE24954
:1003000008600846006800B90124402009F02AFF6F
:10031000DE4908600846006800B90124402009F061
:1003200021FFDB4908600846006800B901244FF44A
:10033000F87009F017FFD74908600846006800B94F
:1003400001240CB1FFF79AFF204610BD2DE9F047BC
:1003500004460D461646701B00EBD07105EB610993
:1003600054F8397004EBC901486810F029FA804646
:1003700054F8350044F8390004EBC500406804EB3C
:10038000C9014860A94605F1010A1DE054F83A0088
:10039000394610F0A7FA15D854F83A0044F8390055
:1003A00004EBCA00406804EBC901486009F1010987
:1003B00054F8390044F83A0004EBC900406804EBF3
:1003C000CA0148600AF1010AB245DFDDA9EB050068
:1003D000012805DDA9F1010229462046FFF7B6FFF5
:1003E000A6EB0900012805DD324609F1010120468E
:1003F000FFF7ACFF44F83970404610F047FA04EBC1
:10040000C9014860BDE8F0872DE9F84F04460D4664
:1004100016461F464FF0000828E04FF0000920E084
:100420004FF0000BDA4612E00B9A0AFB029255F8E5
:1004300022100A9A08FB02A254F8220010F086FA51
:100440005946009010F086F883460AF1010A0A988E
:100450008245E9DB0B9808FB009046F820B009F1D3
:1004600001090B988145DBDB08F10108B845D4DBB5
:10047000BDE8F88F024612B909B900207047002A7A
:1004800002DD09B90020F9E7002903DD8A4201DD18
:100490000120F3E7002A03DD914201D10220EDE7BC
:1004A000002A03DD8A4201DA0320E7E71AB90029AE
:1004B00001DD0420E2E7002A08DA101E01DB034612
:1004C00000E043428B4201DA0520D7E7002A08DA30
:1004D000101E01DB034600E043428B4201D106209F
:1004E000CCE7002A0ADA101E01DB034600E0434293
:1004F0008B4203DD002901DD0720BFE719B9002A7F
:1005000001DA0820BAE7002903DA914201DD092067
:10051000B4E7002A03DA914201D10A20AEE7002AAB
:1005200003DA914201DA0B20A8E71AB9002901DAAF
:100530000C20A3E700290ADA081E01DB034600E0CD
:100540004342934203DD002A01DD0D2096E7002996
:1005500008DA081E01DB034600E04342934201D162
:100560000E208BE7002908DA081E01DB034600E0B5
:100570004342934201DA0F2080E700207EE730B546
:10058000034601B10AB9002030BD412901D0412AFA
:1005900001D10020F8E7491E521E03EBC20000EB18
:1005A000E100047801F007050120A840044201D0D1
:1005B0000120E9E70020E7E72DE9FE4F04460D465C
:1005C00016461F4600200190781C82000021324808
:1005D00009F0CCFD781C82000021304809F0C6FDEE
:1005E0004FF0000819E04FF0000912E004EBC800DA
:1005F00000EBE900017809F0070201209040014278
:1006000005D04FF07E5101980FF0A4FF019009F141
:100610000109B145EADB08F10108A845E3DB3846EA
:1006200010F034F982460146019810F007F8019065
:100630000120029049E04FF0000AD0463AE04FF026
:10064000000912E004EBC90000EBE800017808F0B3
:10065000070201209040014205D04FF07E515046E4
:100660000FF078FF824609F10109A945EADB0298FB
:1006700010F00CF90090019912E0000090020020A7
:1006800094020020980200209C020020A00200207A
:10069000A4020020A802002048C600205CC600205A
:1006A00010F054F98346514610F01CF900D804E0CC
:1006B00008F10108701E4045C1DC00BFFD480299E9
:1006C00040F821800298401C0290781C02998142D7
:1006D000B1DB0120029035E04FF0000AD14626E060
:1006E0004FF0000812E004EBC90000EBE8000178CD
:1006F00008F0070201209040014205D04FF07E51E2
:1007000050460FF027FF824608F10108B045EADBAA
:10071000029810F0BBF80090019910F017F9834689
:10072000514610F0DFF800D804E009F10109681E15
:100730004845D5DC00BFE049029841F82090029876
:10074000401C0290781C02998142C5DB0020029077
:1007500032E0029991FBF7F1D74A52F82120029931
:1007600091FBF7F1491CD44B53F82110501800EBC2
:10077000D0714910D14A1268029B42F823100299A5
:1007800091FBF7F207FB1211CA4A52F82120029995
:1007900091FBF7F307FB1311491CC64B53F82110CB
:1007A000501800EBD0714910C54A1268029B42F8FC
:1007B00023100298401C029007FB07F00299884220
:1007C000C7DCBDE8FE8F2DE9F34F8FB040244020F9
:1007D0000A901025AA000021B948006809F0C6FC5B
:1007E000AA000021B548006809F0C0FC0423214696
:1007F0000A9A0F98FFF7E0FEE2000021B148006876
:1008000009F0B4FC00200B9060E3AC4801680B9841
:1008100051F820000290AA4801680B9851F8200076
:10082000019002980830402801DD402001E0029844
:100830000830089001980830402801DD402001E090
:100840000198083006900298083801D5002001E090
:100850000298083809900198083801D5002001E075
:1008600001980838079009980E9027E307980D9093
:100870001CE3DDE90D120F98FFF781FE8146DDE9EB
:100880000D12491C0F98FFF77AFE022101FB009917
:10089000DDE90D12891C0F98FFF771FE81440E9A55
:1008A000921C0D990F98FFF76AFEA9EB00090E9AAA
:1008B000921C0D99491C0F98FFF761FE022101FB64
:1008C00010990E9A921C0D99891C0F98FFF757FEEC
:1008D000A9EB000007B2DDE90D12891C0F98FFF7A4
:1008E0004EFE81460E9A521C0D99891C0F98FFF7F7
:1008F00046FE022101FB00990E9A921C0D99891C5B
:100900000F98FFF73CFE8144DDE90D120F98FFF7C9
:1009100036FEA9EB00090E9A521C0D990F98FFF7AD
:100920002EFE022101FB10990E9A921C0D990F9830
:10093000FFF725FEA9EB00000FFA80F8002F02DB7D
:10094000B8F1000F00DA00BF41463846FFF792FDCC
:100950000390039841100B9801FB05060398401C77
:1009600040100B9900FB0510059002990E98401A53
:10097000083000EB0010019A0D99891A08440830DC
:10098000514951F820000490039810281CD2DFE848
:1009900000F0081C4A629FB3F2F0EFEEEDECEBEAD8
:1009A000E9E838460FF072FF824604990FF0CEFF57
:1009B00081464448006850F8261048460FF0CAFDAA
:1009C0004049096841F826006CE2A7EB08000FF0E7
:1009D0005DFF824604990FF0B9FF814639480068EF
:1009E00050F8261048460FF0B5FD3649096841F821
:1009F000260040460FF04AFF834634490FF0A6FF19
:100A0000824604990FF0A2FF81462E48026805989D
:100A100052F8201048460FF09DFD2A490968059AB2
:100A200041F822003EE240460FF030FF834627495E
:100A30000FF08CFF824604990FF088FF8146214811
:100A4000006850F8261048460FF084FD1D490968DB
:100A500041F8260026E238460FF018FF83461B496E
:100A60000FF074FF824604990FF070FF814615481D
:100A7000006850F8261048460FF06CFD11490968CF
:100A800041F82600A8EB07000FF000FF824604990A
:100A90000FF05CFF81460B480268059852F8201061
:100AA00048460FF057FD07490A68059942F82100AA
:100AB000F8E1000048C600205CC60020A402002027
:100AC000A002002094020020E45C0108F704B53F76
:100AD00040460FF0DBFE824604990FF037FF814657
:100AE000FE48006850F8261048460FF033FDFB49D9
:100AF000096841F82600D5E107EB08000FF0C6FEB3
:100B0000824604990FF022FF8146F448006850F8AD
:100B1000261048460FF01EFDF049096841F82600EE
:100B2000B7F1000901DB494601E0C9F100010846BF
:100B30000FF0ACFEEA4900900FF008FF83460499DD
:100B40000FF004FF8246E5480068059A50F822102D
:100B500050460FF0FFFCE1490968059A41F8220070
:100B6000A0E166E14DE111E1F5E0BFE09FE069E061
:100B70004DE018E0FFE740460FF088FE8346D84975
:100B80000FF0E4FE824604990FF0E0FE8146D34860
:100B9000006850F8261048460FF0DCFCCF49096881
:100BA00041F826007EE140460FF070FE8346CC49B6
:100BB0000FF0CCFE824604990FF0C8FE8146C7486C
:100BC000006850F8261048460FF0C4FCC349096875
:100BD00041F8260017EB080901D4494601E0C9F1A4
:100BE000000108460FF052FE834604990FF0AEFE56
:100BF0008246BA480068059A50F8221050460FF015
:100C0000A9FCB6490968059A41F822004AE1B7F102
:100C1000000901DB494601E0C9F1000108460FF077
:100C200035FE834604990FF091FE8246AB4800687A
:100C300050F8261050460FF08DFCA849096841F87D
:100C400026002FE1A8EB07000FF020FE8246049952
:100C50000FF07CFE8146A148006850F826104846F7
:100C60000FF078FC9D49096841F82600B8F10009A9
:100C700001DB494601E0C9F1000108460FF006FE1C
:100C8000974900900FF062FE834604990FF05EFED4
:100C9000824692480068059A50F8221050460FF09C
:100CA00059FC8E490A68059942F82100FAE0B8F12A
:100CB000000901DB494601E0C9F1000108460FF0D7
:100CC000E5FD874900900FF041FE834604990FF03F
:100CD0003DFE82468148006850F8261050460FF0CD
:100CE00039FC7E49096841F82600DBE0B7F10009CC
:100CF00001DB494601E0C9F1000108460FF0C6FDDD
:100D0000774900900FF022FE834604990FF01EFEF3
:100D100082467248006850F8261050460FF01AFCC0
:100D20006E49096841F82600A7EB08000FF0AEFDF8
:100D3000824604990FF00AFE8146684802680598C9
:100D400052F8201048460FF005FC64490A680599DE
:100D500042F82100A6E0B8F1000901DB494601E0B4
:100D6000C9F1000108460FF091FD834604990FF088
:100D7000EDFD82465948006850F8261050460FF0A5
:100D8000E9FB5649096841F826008BE017EB080992
:100D900001D4494601E0C9F1000108460FF076FD93
:100DA000834604990FF0D2FD82464C48006850F803
:100DB000261050460FF0CEFB4849096841F826003E
:100DC000B7F1000901DB494601E0C9F1000108461D
:100DD0000FF05CFD424900900FF0B8FD8346049986
:100DE0000FF0B4FD82463D480068059A50F8221085
:100DF00050460FF0AFFB39490A68059942F82100C7
:100E000050E038460FF042FD834635490FF09EFD15
:100E1000824604990FF09AFD81463048006850F8E8
:100E2000261048460FF096FB2C49096841F8260029
:100E300038E0B8F1000901DB494601E0C9F10001E1
:100E400008460FF023FD264900900FF07FFD8346F2
:100E500004990FF07BFD82462048006850F8261068
:100E600050460FF077FB1D49096841F8260017EB43
:100E7000080901D4494601E0C9F1000108460FF014
:100E800005FD834604990FF061FD82461348006812
:100E900050F8261050460FF05DFB1049096841F8E4
:100EA000260000BF00BF0D98401C0D9006990D98BC
:100EB00088427FF7DEAC0E98401C0E9008990E9881
:100EC00088427FF7D3AC0B98401C0B900B98A8423C
:100ED0007FF49BAC00200B901FE0000094020020E8
:100EE000F704B53F00200C9011E0DDE90B0101FB98
:100EF0000506FF49096851F82600FE490DF096F9EC
:100F0000FD49096841F826000C98401C0C900C988B
:100F10000828EADB0B98401C0B900B981028E1DBAB
:100F200011B0BDE8F08F2DE9FF4F8BB004460D46A0
:100F30001E46199F0020079090E2079805EB80005D
:100F40000088ADF82800079805EB80004088ADF8D0
:100F50002A000798401C05EB80000088ADF82400AB
:100F60000798401C05EB80004088ADF82600BDF9CD
:100F70002800BDF92410884272D1BDF92A000890DA
:100F800067E0002E41D04FF0FF383AE04FF0FF30DD
:100F9000069031E0089810EB08002AD4089800EB7E
:100FA00008011898814224DABDF9280006994018F2
:100FB0001FD4BDF9281006980844B84219DABDF9C3
:100FC00028100698084405900898404404EBC00097
:100FD000059900EBE100007801F007020121914042
:100FE00008430899414404EBC101059A01EBE20171
:100FF00008700698401C069006980228CAD108F18D
:101000000108B8F1020FC1D116E0BDF92800059022
:10101000089804EBC001059801EBE0000078059901
:1010200001F00702012191400843089904EBC10235
:10103000059902EBE1010870BDF92600BDF92A10FF
:10104000884203DD0898401C089002E00898401E82
:101050000890BDF926100898814292D1FBE1FFE784
:10106000BDF92A00BDF92610884275D1BDF92800C6
:1010700008906AE0002E42D04FF0FF383BE04FF07E
:10108000FF30069032E00699089840182BD4069954
:10109000089808441899884225DABDF92A0010EB0F
:1010A000080020D4BDF92A004044B8421BDA069952
:1010B000089808440590BDF92A00404404EBC0019B
:1010C000059801EBE0000078059901F00702012185
:1010D00091400843BDF92A10414404EBC10205992F
:1010E00002EBE10108700698401C06900698022861
:1010F000C9D108F10108B8F1020FC0D118E0089871
:101100000590BDF92A0004EBC001059801EBE00051
:101110000178059800F00702012090400143C8B211
:10112000BDF92A1004EBC101059A01EBE201087038
:10113000BDF92400BDF92810884203DD0898401C41
:10114000089002E00898401E0890BDF92410089805
:1011500081428FD17FE1FFE7BDF92410BDF928203E
:10116000881A0FF093FB8246BDF92610BDF92A209C
:10117000881A0FF08BFB834651460FF05FFA8146C9
:101180000FF0BCF9CDE9020121F00041CDE90001E9
:101190005AA00CC800980EF065FE13D2BDF92410B9
:1011A000BDF92820881A0FF071FB8146BDF9261081
:1011B000BDF92A20881A0FF069FB824649460FF0D4
:1011C0003DFA12E0BDF92610BDF92A20881A0FF069
:1011D0005DFB8146BDF92410BDF92820881A0FF067
:1011E00055FB824649460FF029FA0490BDF92420A8
:1011F000BDF92830D01ABDF92620BDF92A30D11A00
:1012000001D40B4600E04B42002801DB024600E01F
:10121000424293426BDA002008907EE008980FF07B
:1012200035FB039004990FF091FB83460FF0C8FA49
:10123000BDF92A1000EB0109BDF92800089900EB5F
:10124000010A002E3CD04FF0FF3835E04FF0FF3060
:1012500006902CE019EB080026D409EB0800189939
:10126000884221DA06981AEB00001DD406985044F3
:10127000B84219DA0AF10100059009EB080004EB05
:10128000C000059900EBE1000178059800F0070225
:10129000012090400143C8B209EB080104EBC101F1
:1012A000059A01EBE20108700698401C069006982A
:1012B0000228CFD108F10108B8F1020FC6D113E01E
:1012C000CDF814A004EBC900DDF814A000EBEA008F
:1012D00001780AF00702012090400143C8B204EBF4
:1012E000C90101EBEA010870BDF924000AE01EE023
:1012F0009402002085EBD13E9802002000000000FF
:101300000000F03FBDF92810884203DD0898401C1A
:10131000089002E00898401E0890BDF92400BDF92D
:101320002810401A089988427FF478AF92E0BDF9FE
:101330002420BDF92830D01ABDF92620BDF92A3065
:10134000D11A01D40B4600E04B42002801DB0246D3
:1013500000E0424293427DDB0020089072E0BDF93C
:101360002A10089801EB000908980FF08FFA0390F3
:1013700004990FF0EBFA83460FF022FABDF928101A
:1013800000EB010A002E3CD04FF0FF3835E04FF063
:10139000FF3006902CE019EB080026D409EB080179
:1013A0001898814221DA06981AEB00001DD406989D
:1013B0005044B84219DA06985044059009EB0800E9
:1013C00004EBC000059900EBE1000178059800F0FE
:1013D0000702012090400143C8B209EB080104EB69
:1013E000C101059A01EBE20108700698401C0690C5
:1013F00006980228CFD108F10108B8F1020FC6D132
:1014000013E0CDF814A004EBC900DDF814A000EB44
:10141000EA0001780AF00702012090400143C8B2B7
:1014200004EBC90101EBEA010870BDF92600BDF922
:101430002A10884203DD0898401C089002E00898B2
:10144000401E0890BDF92600BDF92A10411A0898DF
:10145000814284D100BF0798401C07900D98411E1F
:10146000079881427FF469AD0FB0BDE8F08F2DE998
:10147000F04F099C15464FF0FF360F46B4464FF02B
:10148000000935E000EB890ABAF902A0BA4504DA8E
:1014900000EB890ABAF902A000E0BA46574600EB11
:1014A000890ABAF900A0AA4504DA00EB890ABAF958
:1014B00000A000E0AA46554600EB890ABAF902A04E
:1014C000E24504DD00EB890ABAF902A000E0E24639
:1014D000D44600EB890ABAF900A0B24504DD00EB5E
:1014E000890ABAF900A000E0B246564609F101099E
:1014F000DDF828A0D145C5DBACEB070A0AF1010AEB
:1015000093FBFAFA0AF1010EA6EB050A0AF1010AA9
:1015100094FBFAFA0AF101084FF000092BE000EB06
:10152000890ABAF902A0AAEB070A0AFB03FAACEB94
:10153000070B0BF1010B9AFBFBFAF2440FFA8AFA44
:1015400000EB890BABF802A000EB890ABAF900A006
:10155000AAEB050A0AFB04FAA6EB050B0BF1010B3B
:101560009AFBFBFAC2440FFA8AFA00EB890BABF83C
:1015700000A009F10109DDF828A0D145CFDBBDE8C5
:10158000F08F2DE9FF4784B014461D46BDF91000C9
:10159000BDF91410884223D1002619E0BDF81000CF
:1015A000296804EB81010880BDF81200304400B2C4
:1015B000296804EB810148802868401C2860BDF937
:1015C0001600BDF91210884201DD761C00E0761E7F
:1015D000BDF91600BDF91210401AB042DED1E9E0A3
:1015E000BDF91200BDF91610884223D1002619E07A
:1015F000BDF81200296804EB81014880BDF8100095
:10160000304400B2296804EB810108802868401C3E
:101610002860BDF91400BDF91010884201DD761C68
:1016200000E0761EBDF91400BDF91010401AB0425A
:10163000DED1BFE0BDF91410BDF91020881A0FF0FB
:1016400025F98146BDF91610BDF91220881A0FF050
:101650001DF9824649460EF0F1FF80460EF04EFF1E
:10166000CDE9020121F00041CDE90001AFF2743073
:101670000CC800980EF0F6FB13D2BDF91410BDF99A
:101680001020881A0FF002F98046BDF91610BDF936
:101690001220881A0FF0FAF8814641460EF0CEFF6C
:1016A00012E0BDF91610BDF91220881A0FF0EEF8FD
:1016B0008046BDF91410BDF91020881A0FF0E6F825
:1016C000814641460EF0BAFF0746BDF91420BDF928
:1016D0001030D01ABDF91620BDF91230D11A01D43C
:1016E0000B4600E04B42002801DB024600E042428C
:1016F00093422FDC002625E0BDF81000304400B2F4
:10170000296804EB8101088030460FF0BFF881465C
:1017100039460FF01BF980460FF052F8BDF8121051
:10172000084400B2296804EB810148802868401C05
:101730002860BDF91400BDF91010884201DD761C47
:1017400000E0761EBDF91400BDF91010401AB04239
:10175000D2D12EE0002625E0BDF81200304400B2C0
:10176000296804EB8101488030460FF08FF88146EC
:1017700039460FF0EBF880460FF022F8BDF8101054
:10178000084400B2296804EB810108802868401CE5
:101790002860BDF91600BDF91210884201DD761CE3
:1017A00000E0761EBDF91600BDF91210401AB042D5
:1017B000D2D100BF08B0BDE8F0872DE9F84F04464C
:1017C0000D461646701E00EBD0714FEA6109A5EB7D
:1017D00009000090CA46A80008F0C4FC8346AA008D
:1017E0002146584600F068FDB54205DB06EBD67190
:1017F0004910B6EB410101D1BDE8F88F4F463CE0FE
:10180000002004EB8701088004EB87014880CAF1BF
:1018100000081BE004EB8700008807EB08010BEBD6
:1018200081010988084400B204EB8701088004EBB9
:101830008700408807EB08010BEB810149880844C9
:1018400000B204EB8701488008F10108D045E1DDD2
:1018500004EB8700B0F9000090FBF6F000B204EB57
:101860008701088004EB8700B0F9020090FBF6F0D6
:1018700000B204EB870148807F1C00988742BFDBE1
:10188000584608F06BFCB7E72DE9FF4F91B00446CE
:101890000D461E9E0327802010900F9040200E9032
:1018A0000D9000200B900A90814680200990052021
:1018B000049029462046049AFFF77FFF4FF0010A63
:1018C00029E004EB8A01B1F90010AAF1010204EB4E
:1018D0008202B2F90020881A01D4014600E0414298
:1018E000089104EB8A01B1F90210AAF1010204EB9C
:1018F0008202B2F90220881A01D4014600E0414276
:101900000791DDE90710884201DB089800E007989D
:1019100081440AF1010AAA45D3DB4FEA890008F0A5
:1019200021FC80464FEA89020021404608F01EFC57
:101930004FF0000A15E00AF1010004EB80010422D7
:1019400003A800F0B9FC04EB8A01042202A800F00D
:10195000B3FC0AAB4246DDE90201FFF712FE0AF1D1
:10196000010A681E5045E6D14FEA8900B0FBF7F046
:10197000039008F0F7FB0C904FEA8900B0FBF7F0FA
:101980000246002103900C9808F0F0FB4FF0000A8B
:1019900013E008EB8A000088DDE90B2101EB8201EE
:1019A000088008EB8A004088DDE90B2101EB820109
:1019B00048800B98401C0B90BA44CA45E9DB40466E
:1019C00008F0CCFB0B9B0E9ACDE90023DDE90C035C
:1019D000DDE90F12FFF74BFD4FF400720021FD48C7
:1019E000006808F0C3FBDDE90D23CDE900230123E6
:1019F000F848DDE90B210068FFF795FA0C9808F02C
:101A0000ADFBF44809990068FEF7DDFE2823099A2A
:101A1000CDE900230123F048F0490268F04800684E
:101A2000FEF7F2FC1498012806D0022809D00328FA
:101A30000CD0042814D10EE0002006900A20059056
:101A400012E00A200690242005900DE02420069044
:101A50003E20059008E0002006903E20059003E01F
:101A6000002015B0BDE8F08F00BF4FF4F8720021E0
:101A7000DC48006808F07AFB4FF0000A40E04FF0C5
:101A8000000B30E0069A524402EB8202D64B03EB85
:101A9000421252F82B10D04A126852F82B000FF065
:101AA0002BF80290069A524402EB8202CE4B03EBD3
:101AB000421252F82B10C84A126852F82B000FF04D
:101AC0001BF8019002990EF041FF0390C548006891
:101AD00050F83A1003980EF03DFDC249096841F8EC
:101AE0003A000BF1010BBBF1280FCBD150460EF0A1
:101AF000CDFEBC49096801EBCA0148600AF1010A40
:101B0000DDE90501401A5045B9D1DDE90501401A6A
:101B1000421E0021B3480068FEF718FC4FF0000A8F
:101B20000EE0B049096801EBCA0148680EF048FEB2
:101B300006990844AD49085C06F80A000AF1010A52
:101B400013988245EDDB002006F80A00307888E71C
:101B50002DE9F84F04460D4616461F46DDF828804D
:101B60004FF000094FF6FF7AD346012D02DCC8463C
:101B7000BDE8F88F4FF000091CE004EB8900B0F9D4
:101B8000001009F1010004EB8000B0F9000081426F
:101B90000BD104EB8900B0F9021009F1010004EB4C
:101BA0008000B0F90200814200D006E009F1010096
:101BB0001FFA80F9681E4845DFDC00BF681E4845F3
:101BC00000D1D5E74FF0000919E004EB8900B0F926
:101BD0000000504504DA04EB890000881FFA80FAFF
:101BE00004EB8900B0F90200584504DA04EB8900DF
:101BF00040881FFA80FB09F101001FFA80F9A9450E
:101C0000E3DB4FF0000915E004EB89000088A0EB4E
:101C10000A0000B204EB8901088004EB89004088C7
:101C2000A0EB0B0000B204EB8901488009F1010030
:101C30001FFA80F9A945E7DB3B4632462946204694
:101C4000CDF80080FFF720FE92E72DE9F84F4FF026
:101C50000009C3F800900124EBE0A4F1010900EBB6
:101C60008909B9F9005000EB8409B9F900A0CDF851
:101C700000A0A4F1010900EB8909B9F9026000EBA9
:101C80008409B9F90270DDF800A0BAEB050901D4A6
:101C9000CA4601E0C9F1000AD446B7EB060901D4EF
:101CA000CA4601E0C9F1000AD646F44559DD4FF0B5
:101CB000000853E0DDF80090A9450ADD05EB0809AE
:101CC0000FFA89F9D3F800A002EB8A0AAAF800906B
:101CD00009E0A5EB08090FFA89F9D3F800A002EB97
:101CE0008A0AAAF80090B7421ADDD3F800A002EBE6
:101CF0008A0ABAF900A0BAEB050901D4CA4601E084
:101D0000C9F1000A0AFB0EFA9AFBFCFAB2440FFA78
:101D10008AFAD3F800B002EB8B0BABF802A01AE002
:101D2000D3F800A002EB8A0ABAF900A0BAEB0509C1
:101D300001D4CA4601E0C9F1000A0AFB0EFA9AFB77
:101D4000FCFAA6EB0A0A0FFA8AFAD3F800B002EB03
:101D50008B0BABF802A01B1D08F10108E045A9DBC5
:101D600066E04FF0000861E0B7420ADD06EB0809C3
:101D70000FFA89F9D3F800A002EB8A0AAAF80290B8
:101D800009E0A6EB08090FFA89F9D3F800A002EBE5
:101D90008A0AAAF80290DDF80090A94528DDD3F858
:101DA00000A002EB8A0ABAF902A0BAEB060901D434
:101DB000CA4601E0C9F1000A0AFB0CFA9AFBFEFAD6
:101DC000AA440FFA8AFAD3F800B002EB8B0BABF8F7
:101DD00000A028E0900200209C020020A8660108D4
:101DE00098020020A8020020A8B6010868DD0108BA
:101DF000D3F800A002EB8A0ABAF902A0BAEB0609EE
:101E000001D4CA4601E0C9F1000A0AFB0CFA9AFBA8
:101E1000FEFAA5EB0A0A0FFA8AFAD3F800B002EB31
:101E20008B0BABF800A01B1D08F10108F0459BDBF4
:101E3000641C8C42FFF611AFBDE8F88F704753EA7F
:101E4000020C00F069802DE9F04B4FF00006002BEA
:101E50001FBFB3FA83F503FA05F424FA05F65E40D2
:101E600012BF1643B2FA82F502FA05F4C5F1200555
:101E70001EBF22FA05FC44EA0C04203556EA044C45
:101E80004FEA144418BF641C4FF000084FF00009DB
:101E9000904271EB030C39D3002919BFB1FA81F7D5
:101EA00001FA07F6B0FA80F700FA07F6C7F1200743
:101EB0001EBF20FA07FC46EA0C062037B6FBF4FCEE
:101EC000A7EB0507103F07F01F0BCBF120060CFA1C
:101ED0000BFB2CFA06F644BFB3460026202FA4BF06
:101EE0005E464FF0000B5BEA060C08BF4FF0010B9B
:101EF00019EB0B09ABFB027C48EB0608C01B06FB89
:101F000002CC0BFB03CC71EB0C01C1E70B46024684
:101F100041464846BDE8F08B13B54FF000004FF046
:101F20000001AFF30080BDE81C4070470FB40449C6
:101F300010B503AA029800F02FFB10BC5DF814FB4B
:101F40001400002070B5044685690068C10601D5FB
:101F5000302600E02026C00707D070BDD4E901215B
:101F600030469047206A401C20626D1EF6D570BD39
:101F700070B5044685690078C00707D170BDD4E903
:101F8000012120209047206A401C20626D1EF6D55A
:101F900070BD70B50C460546012A05D0287880062C
:101FA00000D5EA69002302E0012305E05B1C9342AF
:101FB00002D2E05C0028F9D1A869E618C01AA8612D
:101FC000286A184428622846FFF7BCFF04E0D5E9D8
:101FD000012114F8010B9047B442F8D32846FFF7CB
:101FE000C7FF70BD2DE9F041064600241068752931
:101FF000314616A510D0AFF30080002802DA404227
:1020000013A507E031688A0701D512A502E0490748
:1020100004D511A5012401E0AFF3008000210A22BC
:1020200006F1240709E0B0FBF2FCB0FBF2F302FB7F
:102030001C00303078541846491C0028F3D1234640
:102040002A463046BDE8F04100F036BA00000000F4
:102050002D0000002B000000200000002DE9F041C1
:102060008046D21D22F007020025D2E90002F529A0
:1020700015A614D0011E72F1000106DA0023D0EB80
:10208000030063EB020211A608E0D8F800108B07EA
:1020900001D50FA602E0490701D50EA6012511467C
:1020A000002408F1240704E000F0B6F930323A5574
:1020B000641C50EA0102F7D12B46324621464046C5
:1020C000BDE8F04100F0F8B9000000002D0000006C
:1020D0002B0000002000000070B504460D4621468C
:1020E0001068AFF300802188090502D50F4A7A44B1
:1020F00002E00E4A7A440E32002104F1240305E086
:1021000000F00F060009965D5E54491C0028F7D1C7
:1021100020780023000704D5702D02D009B10223D6
:1021200011322046BDE8704000F0C6B9B4BC0100D1
:102130002DE9F05F894604464FF0000ADFF874B1DC
:10214000FB44C0F820A02046E1688847002874D0EE
:10215000252806D0D4E901219047206A401C20623E
:10216000F1E700265F462046E168884720280546BB
:1021700007DB312D05D2781910F8200C08B1064381
:10218000F1E7B00701D526F00406C4F81CA000272B
:10219000C4F818A02A2D09D0284607F0D7FF38B375
:1021A00004EB8708303DC8F8185019E059F8041BB3
:1021B000204604EB87029161E1688847012F0546BC
:1021C00018D1E069002820DA26F020061DE0D8F8B2
:1021D000180000EB800005EB40003038C8F818000C
:1021E0002046E1688847054607F0B0FF0028EED199
:1021F000012F0AD02E2D08D12046E16888477F1C88
:102200000546022F46F02006C4DBA069002803DA49
:10221000404246F00106A061F00701D026F010060A
:102220006C2D0BD0682D09D04C2D39D06A2D35D0AE
:10223000742D35D07A2D33D016E038E0E1682F4682
:1022400020468847B842054609D16C2F26D04FF466
:102250008060E168064320468847054604E06C2F0D
:102260001AD04FF4807006430DB3A5F14100192830
:1022700002D8203546F400664A46294620462660A4
:102280004E46FDF7AFFF80B101280BD0F61D26F0BA
:10229000070000F1080956E74020E4E78020D8E76E
:1022A0000020D6E706F104094DE7284652E7206AE8
:1022B000BDE8F09F8ABC0100032A40F2308010F094
:1022C000030C00F0158011F8013BBCF1020F6244D1
:1022D00098BF11F801CB00F8013B38BF11F8013B62
:1022E000A2F1040298BF00F801CB38BF00F8013B0F
:1022F00011F0030300F06281083AC0F0088051F841
:10230000043B083A51F804CBA0E80810F5E7121D89
:102310005CBF51F8043B40F8043BAFF30080D207A8
:1023200024BF11F8013B11F801CB48BF11F8012B74
:1023300024BF00F8013B00F801CB48BF00F8012B97
:1023400070474FF0000200B5134694469646203978
:1023500022BFA0E80C50A0E80C50B1F12001BFF45E
:10236000F7AF090728BFA0E80C5048BF0CC05DF8C4
:1023700004EB890028BF40F8042B08BF704748BF12
:1023800020F8022B11F0804F18BF00F8012B704786
:102390004FF0013C50F8042B51F8043B9A4221D1F4
:1023A000A2EB0C03934313EACC1317D150F8042B80
:1023B00051F8043B9A4215D1A2EB0C03934313EA64
:1023C000CC130BD150F8042B51F8043B9A4209D19D
:1023D000A2EB0C03934313EACC13DBD04FF00000C5
:1023E000704700BFD01A01BAB1FA81F101F01801AB
:1023F00022FA01F0CB40C1F12001DBB2C0B2C01A19
:102400002CFA01F3D11A914311EAC311E6D17047B6
:10241000704770477047704730B5B0F10A024FEA15
:10242000900E71F100034EEA817EB0EB0E0061EB7D
:1024300091014FEA101E4EEA017E10EB0E0041EBB7
:1024400011114FEA102E4EEA016E10EB0E0041EB17
:1024500011214FEA104E4EEA014E10EB0E0041EBF7
:102460001141401841F100014FEAD00040EA4170AB
:102470004FEAD10110EB80054FEA810444EA9074E1
:1024800044EB01046D1944EB0404521BA3414FF0CB
:10249000000348BF0A3200D530BD401C41F10001A5
:1024A00030BD10B500F0BCF8006810BD10B5044692
:1024B00000F0B6F8046010BD2DE9F0470D469946CE
:1024C0009246044600F124080168880604D5E069B4
:1024D00021F01001216000E00120A84201DD471B2E
:1024E00000E00027A1697A1902EB0900081AA0612F
:1024F0002078C00602D42046FFF724FD002608E01D
:10250000D4E901211AF806009047206A401C761C85
:1025100020624E45F4DB2078C0060AD52046FFF73E
:1025200011FD06E0D4E9012130209047206A401CCB
:102530002062381EA7F10107F4DC07E0D4E901218D
:1025400018F805009047206A401C2062281EA5F15B
:102550000105F3DC2046FFF70BFD2078000602D5CD
:102560000220BDE8F0870120FBE710B5436913B1F5
:10257000AFF3008001E0FFF70CFD012010BD1278E1
:1025800000F124010A7000224A700122EDE711686F
:102590004FF0FF32E9E70000074B70B50D467B4472
:1025A00000F047F80446284600F056F810B14FF006
:1025B000FF3070BD204670BDEFA8000010B5203A76
:1025C000C0F00B80B1E81850203AA0E81850B1E8EC
:1025D0001850A0E81850BFF4F5AF5FEA027C24BFA2
:1025E000B1E81850A0E8185044BF18C918C0BDE899
:1025F00010405FEA827C24BF51F8043B40F8043B62
:1026000008BF7047D20728BF31F8023B48BF11F816
:10261000012B28BF20F8023B48BF00F8012B704770
:102620000048704770C6002001694A1C02610878A2
:10263000704700B58FB0CDE9013100210591054902
:102640007944CDE9031011466846FFF771FD0FB0DC
:1026500000BD0000E5FFFFFF007B00F08000704739
:102660000048704770C600207546FFF7F9FFAE4678
:1026700005006946534620F00700854618B020B58E
:10268000FDF7EAFDBDE820404FF000064FF00007DF
:102690004FF000084FF0000B21F00701AC46ACE80A
:1026A000C009ACE8C009ACE8C009ACE8C0098D4677
:1026B000704710B50446AFF300802046BDE81040D7
:1026C000FDF7B6BD02F054BB70B515460E46044684
:1026D00008E02046641CA4B200F007F86D1E06F85E
:1026E000010BADB2002DF4D170BD10B5044602F05F
:1026F000E9FB200AA02101EB4000C0B202F0B2FBCE
:1027000002F022FCE0B202F0ADFB02F01DFC02F090
:10271000D9FBA12002F0A6FB02F016FC002002F07B
:102720006BFB044602F0EEFB204610BD70B514466C
:102730000D46064606E02978304600F007F8761C7C
:10274000B6B26D1C641EA4B2F5D270BD70B50D4654
:10275000044602F0B7FB200AA02101EB4000C0B202
:1027600002F080FB02F0F0FBE0B202F07BFB02F033
:10277000EBFB284602F076FB02F0E6FB02F0C2FB20
:10278000BDE870400A2007F0B5BFFEE770B50F4CFA
:102790000025C4F884510E48016821F0F001016061
:1027A000016841F030010160052004F5C27407F0B2
:1027B000AFFF0848C0F8A451052007F0A9FF012089
:1027C0002060052007F0A4FF256070BD0080214235
:1027D000041C014000802342154810B5816986B071
:1027E00041F008018161816901F00801049181696A
:1027F00041F0800181618069012400F08000049033
:102800000220CDE900040320CDE9024069460948D1
:1028100000F054FD600200906946074800F04EFD4C
:102820000648C0F884410648C0F8A44106B010BD6F
:1028300000100240000C0140001C014000802142B9
:102840000080234270B50F4C0026C4F884610E4806
:10285000016821F0F0010160016841F03001016080
:10286000052004F5C27407F053FF08480125C0F89D
:10287000A451052007F04CFF2560052007F048FF14
:10288000266070BD00802142041C0140008023426C
:102890002DE9F047824618480024016821F0F00134
:1028A0000160016841F0800101601E2007F030FFE7
:1028B0000025124EDFF848902F464FF00108C6F869
:1028C0008471052007F024FFC6F884816006040E99
:1028D000D9F8240108B1641CE4B26D1CEDB2082DD6
:1028E000EDD3BAF1000F04D0FFF750FF2046BDE84A
:1028F000F087FFF7A7FFF9E7041C014000802142A1
:10290000008023422DE9F04705461548016821F073
:10291000F0010160016841F030010160114E0027B3
:10292000C6F88471052007F0F3FEDFF83C80002430
:102930004FF00109E909C8F8A4116806050EC6F8A8
:102940008491052007F0E4FEC6F88471052007F0A5
:10295000DFFE641CE4B2082CECD3BDE8F087000075
:10296000041C0140008021420080234270B50F48C2
:10297000016821F0F0010160016841F0300101605F
:102980000B4E0120C6F8A4010A4DC5F884011E2093
:1029900005F5C27506F5D27607F0BAFE002434605C
:1029A000052007F0B5FE2C6070BD0000041C01403E
:1029B000008023420080214270B50D48016821F05B
:1029C000F0010160016841F0300101600948012512
:1029D000C0F884511E2007F09BFE074C0020C4F86D
:1029E000A401052004F5D27407F092FE256070BDA5
:1029F000041C0140008021420080234270B512482F
:102A00000024016821F0F0010160016841F08001BB
:102A100001600E4D0120C5F8A4010D4EC6F88401D9
:102A200007E0641CE4B2FA2C03D9FFF7C5FF0120CC
:102A300070BD052007F06CFED5F824010028F0D108
:102A4000C6F8840170BD0000041C014000802342D0
:102A5000008021427047000070B5B3F5804F05D06B
:102A60006FF0704140F82210002070BD0C688B6937
:102A7000F0251C4395FAA5F54B68B5FA85F5AB40F2
:102A80004FF47F4696FAA6F68D68B6FA86F6B540FC
:102A90002B431C434FF47023C96893FAA3F3B3FA92
:102AA00083F399400C4350F82210034B19400C4318
:102AB00040F82240D8E700000000F0CF30B50A68A7
:102AC00050F8223023F0010340F822308A68214B6D
:102AD000082A1ED04C681443D1E903252A43144325
:102AE0004A6914438A691443CA6914430A6A14433D
:102AF0004A6A14438A6A1443CA6A14430A6B09680F
:102B0000144350F821201A40144340F8214000207B
:102B100030BD4A68D1E9034542F008022C43224304
:102B20004C6922438C692243CC6922430C6A2243BC
:102B30004C6A22438C6A2243CC6A22430C6B09689C
:102B4000224350F821401C40224342F0400240F80A
:102B50002120DCE78100F7FF70B5F025D1E90034D2
:102B600095FAA5F5B5FA85F5AC4023434FF47F45BA
:102B700095FAA5F58C68B5FA85F5AC404FF470264A
:102B800096FAA6F6CD68B6FA86F6B5402C432343EE
:102B90004FF470050C6995FAA5F5B5FA85F5641E34
:102BA000AC4023434FF070654C6995FAA5F5B5FA32
:102BB00085F5A41EAC408969234300EB82000B43DA
:102BC000416801F040410B434360002070BD0000AC
:102BD00070B5304886B0816941F0800181618069BB
:102BE000012400F0800005904FF40060CDE900045E
:102BF0000320CDE90240284E6946304600F05EFBD6
:102C0000A0020025CDE900056946304600F056FBDC
:102C1000FFF7E2FD214EC6F8AC51142006F5D6763A
:102C200007F068FD3460322007F064FD8DF8105025
:102C3000012204A9002000F0FFF8012204A9A42029
:102C400000F0FAF816208DF81000012204A9802067
:102C500000F0F2F80C208DF81000012204A9882061
:102C600000F0EAF8022204A9A12000F01FF89DF864
:102C70001000302803D19DF81100032802D0012054
:102C800006B070BD43F2030105A0FFF74FF9002025
:102C9000F6E7000000100240001C014000802342C3
:102CA0004354502049443A25780D0A002DE9F0415B
:102CB00015460F460446FFF759FE7020FFF722FE27
:102CC000FFF79CFEE0B2FFF71DFEFFF797FEFFF750
:102CD0004DFE7120FFF716FEFFF790FE00246E1EDA
:102CE00009E0B44201D0012000E00020FFF7D0FD50
:102CF0003855641CE4B2AC42F3D3BDE8F041FFF7B1
:102D00005BBE00002DE9F143484F00244FF00A0953
:102D1000387882B0401CC0B2B0FBF9F209FB120156
:102D2000434DA046387009B10A2863D2012202A996
:102D30000220FFF7BBFF9DF8080001075AD000F002
:102D40000F00062856D2FF218140C84340F0C00042
:102D500085F820004FF00108002695F8201008FAA9
:102D600004F0014239D033480422694630F8140097
:102D7000FFF79CFF95F830009DF80010C0079DF804
:102D8000010001F00F010ED000EB012105EB440022
:102D9000C1829DF802209DF8031002F00F0201EBA2
:102DA000022181810FE000EB0120C0F5F07105EBFD
:102DB000440081819DF802209DF8031002F00F026B
:102DC00001EB0221C1829DF800000821B1EB101F28
:102DD00003D005EB4400C6828681641CE4B2052C56
:102DE000BBD3A9894FF0010819B9E88A08B98DF851
:102DF00008603E709DF80800C0060ED195F82000CE
:102E0000010602D520F0800005E04FF6FF71A98190
:102E1000E98200F0E00085F820003878F02801D938
:102E200087F800904046BDE8FE83000024000020A3
:102E30002C0000201A5401082DE9F04115460E46D9
:102E400004460027FFF792FD7020FFF75BFDFFF7B8
:102E5000D5FDE0B2FFF756FDFFF7D0FD002408E0F6
:102E6000305DFFF74FFDFFF7C9FD070003D1641C7C
:102E7000E4B2AC42F4D3FFF79FFD3846BDE8F081E1
:102E80002DE9F041384888B0816941F080018161C5
:102E90008069012400F0800006904FF40060CDE9C5
:102EA00000040320CDE90240DFF8C08069464046B7
:102EB00000F004FAA6020025CDE900656946404607
:102EC00000F0FCF9FFF788FC294FC7F8AC510A2045
:102ED00007F5D67707F00EFC3C600A2007F00AFCE5
:102EE00002240096CDE901546946404600F0E6F917
:102EF000642007F0FFFB042204A948F2401000F010
:102F00004DF88DF8145004A91AA0FFF70FF81CA172
:102F100004A8FFF73DFA18B1012008B0BDE8F08120
:102F20008DF8104048F24004012204A9204600F028
:102F300049F9012204A9E01D00F030F89DF81010B5
:102F4000602905D210A0FEF7F1FF012000F014F96E
:102F50000A2007F0CFFB8DF81050012204A920466B
:102F600000F030F90020D8E700100240001C0140BA
:102F7000008023424354502049443A25730D0A00EF
:102F8000393134370000000044656661756C742087
:102F90005665723A25640D0A000000002DE9F041E3
:102FA00015460F460446FFF7E1FC2820FFF7AAFC70
:102FB000FFF724FD200AFFF7A5FCFFF71FFDE0B295
:102FC000FFF7A0FCFFF71AFDFFF7D0FC2920FFF761
:102FD00099FCFFF713FD00246E1E09E0B44201D0F6
:102FE000012000E00020FFF753FC3855641CE4B2D8
:102FF000AC42F3D3BDE8F041FFF7DEBC2DE9F14769
:10300000594D00244FF00A0A287883B0401CC0B202
:10301000B0FBFAF20AFB1201544EA046287009B127
:103020000A2877D248F24E19012203A94846FFF731
:10303000B5FF9DF80C004FF0000701060AD500F01F
:103040000F00062806D28DF80470012201A9484617
:1030500000F0B8F89DF80C0001075BD000F00F01FC
:10306000062957D2FF2088408DF80400C04396F807
:10307000209040F0C00086F82000B089B082F08A2D
:10308000F0834FF0010896F8201008FA04F001428E
:1030900025D037480422694630F81400FFF77EFF38
:1030A00096F830009DF80110C0079DF8000000EB75
:1030B000012106EB44000AD0C1829DF802109DF860
:1030C000032001EB0221C1F54871818107E0818174
:1030D0009DF802109DF8032001EB0221C182641CBF
:1030E000E4B2052CCFD32349B2894FF001080B88F5
:1030F00030469A4203D8C28A49888A4209D99DF843
:103100000C1001F00F0101290BD9C1898181018BBC
:10311000F1822F709DF80C0000F08F0080280AD0FB
:1031200018E0818A8181C18BC18280218DF80C10C9
:1031300086F82090EEE796F82000010602D520F0F0
:10314000800005E04FF6FF71B181F18200F0E000F0
:1031500086F820002878F02801D985F800A004B06E
:103160004046BDE8F0870000250000202C0000202C
:10317000DC5401081807002008B500218DF8001064
:103180008DF801000E489DF80020435C491C1A444C
:10319000C9B28DF80020B829F5D3D0B2C043401C85
:1031A0008DF80000B822064948F2470000F00AF8FE
:1031B0000222694648F2FF0000F004F8002008BD32
:1031C000245401082DE9F04115460E460446002717
:1031D000FFF7CCFB2820FFF795FBFFF70FFC200A39
:1031E000FFF790FBFFF70AFCE0B2FFF78BFBFFF75E
:1031F00005FC002408E0305DFFF784FBFFF7FEFBD1
:10320000070003D1641CE4B2AC42F4D3FFF7D4FB53
:103210003846BDE8F081000030B40C460146154642
:10322000500700D0012000EBD5006843C2B20878F7
:103230004B78812809D3402B07D3FF2B05D0FF28DB
:1032400003D07F2B0CD2403B0BE00023184603E059
:103250005B1C04F8010BDBB29342F9D330BC70471E
:10326000413B8138D9B2C0B2C0EB401303EB8010B0
:1032700001EB400050430A490C2D0AD0102D0BD011
:10328000182DEBD1D1F819100144204630BC06F0BE
:1032900007BED1F80910F7E7D1F81110F4E70000E4
:1032A000E8C5002031B500F009F9044600F006F940
:1032B0000099001B8842F9D338BD00002DE9F84F72
:1032C000DFF8BC91002309F1040A0AF1040B1C4643
:1032D0004FF00F080BF1040E01270A68A7403A408F
:1032E000BA4272D1DFF89CC14D68A5EB0C0665456A
:1032F0002BD00DDC032D34D005DC35B3012D19D0D6
:10330000022D2FD11BE0112D16D0122D2AD119E03C
:10331000B6F5881F19D006DCB6F5803F15D0B6F596
:10332000801F1FD111E0B6F5001F0ED0B6F5041FA7
:1033300018D10AE0CB6815E0CB681B1D12E0CB6802
:1033400008330FE0CB680C330CE08B682BB1012BFA
:103350004FF0080303D0476104E0042302E0076153
:1033600000E00023FF2A01D8064601E000F1040630
:103370004FEA840501D9A5F12005376808FA05FC54
:1033800027EA0C0703FA05F547EA050737604D6899
:10339000ED006ED53C4DAE6946F00106AE61AD69FB
:1033A00024F0030605F001050095384D7719BE6835
:1033B000A5072D0F08FA05FC26EA0C06DFF8D0C099
:1033C000604503D14FF0000C25E052E0DFF8C4C0A7
:1033D000604502D14FF0010C1DE0DFF8BCC0604534
:1033E00002D14FF0020C16E0DFF8B0C0604502D108
:1033F0004FF0030C0FE0DFF8A8C0604502D14FF09A
:10340000040C08E0DFF89CC0604502D14FF0050CC9
:1034100001E04FF0060C0CFA05FC4CEA060CC7F86C
:1034200008C04D68D9F80060ED034D4601D516433C
:1034300000E096432E604D68DAF80060AD03554613
:1034400001D5164300E096432E604D68DBF800601E
:10345000ED025D4601D5164300E096432E604D68AF
:10346000DEF80060AD02754601D5164300E09643D4
:103470002E60641C102CFFF42FAFBDE8F88F000005
:103480000004014000001110001002400000014043
:1034900000080140000C01400010014000140140F0
:1034A00000180140001C01408068084000D0012045
:1034B00070470AB1016170470904FBE701480068E1
:1034C000704700000400002002480168491C0160A8
:1034D0007047000004000020074810B5016841F063
:1034E00010010160052000F047F80F2000F006F8F9
:1034F00000F015F8002010BD0020024010B5044671
:1035000000F00CF94FF47A71B0FBF1F001F08CFA95
:1035100000222146501E00F00FF8002010BD704719
:1035200000F01F02012191404009800000F1E020DD
:10353000C0F8001170470000F0B40E4B1B68C3F3D5
:103540000223C3F10704042C00D904241D1D072DF8
:1035500001D2002300E0DB1E012606FA04F56D1EF1
:103560000D409D409E40761E164045EA0601F0BC87
:1035700004F036BC0CED00E0064A00F007011068CC
:103580004FF6FF03184040EA01200349084310604A
:10359000704700000CED00E00000FA052DE9F0474F
:1035A000DFF8688104460E46D8F8000000F00700F6
:1035B000B0420CD2D8F8001021F007013143C8F80E
:1035C0000010D8F8000000F00700B04273D1207856
:1035D0004F4F800705D57868A16820F0F0000843B8
:1035E00078602078C00755D06068012201280CD08F
:1035F000022828D0022393FAA3F1B1FA81F141F015
:103600002001490904D0396803E04FF40033F2E7A0
:10361000796A93FAA3F3B3FA83F303F01F039A4092
:10362000114248D0796821F0030101437960FFF726
:1036300045FF0546606841F2883101280CD0022818
:10364000894615D022E04FF00073D4E7FFF736FF2C
:10365000411B494501D916E089467868C0F38100CD
:103660000128F3D116E0FFF729FF411B49450AD88D
:103670007868C0F381000228F5D10BE0FFF71EFF48
:10368000411B494502D90320BDE8F087786810F056
:103690000C0FF3D1D8F80010404601F00701B142F9
:1036A0000BD9016821F0070131430160006800F087
:1036B0000700B04201D00120E6E72078400705D599
:1036C0007868E16820F4E0600843786020780007BB
:1036D00006D57868216920F4605040EAC10078601E
:1036E00000F052F87968F02292FAA2F201F0F001AB
:1036F000B2FA82F2D140074A515CC84006490860DC
:103700000F20FFF7FBFE0020BEE700000020024074
:1037100000100240C20C01080000002001480068AF
:103720007047000000000020084809490068496807
:103730004FF4E06292FAA2F201F4E061B2FA82F28E
:10374000D140044A515CC84070470000000000208E
:1037500000100240D20C0108084809490068496875
:103760004FF4605292FAA2F201F46051B2FA82F27E
:10377000D140044A515CC84070470000000000205E
:1037800000100240D20C010810B519A085B00FC876
:103790008DE80F001AA01B4B0068049059681A4866
:1037A00001F00C02042A1DD0082A1BD14FF470141A
:1037B00094FAA4F401F47012B4FA84F4E240C90358
:1037C0001DF8022010D559684FF4003393FAA3F383
:1037D00001F40031B3FA83F3D94004AB595CB0FB78
:1037E000F1F0504305B010BD08485043FAE700001F
:1037F00002030405060708090A0B0C0D0E0F101032
:10380000010200000010024000127A0000093D0091
:103810002DE9F84F04460078FE4EC0074FF0010531
:103820007FD070684FF40038C0F38100012807D0C2
:103830007068C0F3810002281BD17068C00318D5DE
:1038400098FAA8F0B0FA80F040F02000400901D0CA
:10385000306800E0706A98FAA8F1B1FA81F101F0DD
:103860001F0105FA01F108425BD06068002879D099
:1038700057E06068B0F5803F0BD010B1B0F5A02FD5
:1038800011D0306820F480303060306820F480201F
:1038900002E0306840F480303060606818B3FFF7B1
:1038A0000DFE074609E0306840F480203060F0E704
:1038B000FFF704FEC01B642870D898FAA8F0B0FA8D
:1038C00080F040F02000400901D0306800E0706ACC
:1038D00098FAA8F1B1FA81F101F01F0105FA01F19E
:1038E0000842E5D01DE0FFF7E9FD074604E0FFF7D9
:1038F000E5FDC01B6428DFD898FAA8F0B0FA80F084
:1039000040F02000400901D0306800E0706A98FA69
:10391000A8F1B1FA81F101F01F0105FA01F10842A5
:10392000E5D12078DFF8F08280074FF0000A4FF0F1
:1039300002075AD570684FF0F80B10F00C0F07D043
:103940007068C0F3810002281CD17068C00319D4CC
:1039500097FAA7F0B0FA80F040F02000400902D0BA
:10396000306801E08AE0706A97FAA7F1B1FA81F154
:1039700001F01F0105FA01F108422BD0206901284E
:103980007CD127E0206988B395FAA5F0B0FA80F0E1
:1039900048F82050FFF792FD814606E04DE1FFF721
:1039A0008DFDA0EB0900022886D897FAA7F0B0FA9F
:1039B00080F040F02000400901D0306800E0706ADB
:1039C00097FAA7F1B1FA81F101F01F0105FA01F1AF
:1039D0000842E4D030689BFAABF220F0F80160694D
:1039E000B2FA82F290400143316025E0FFE795FA98
:1039F000A5F1B1FA81F148F821A0FFF75FFD8146FA
:103A000005E0FFF75BFDA0EB09000228CCD897FA90
:103A1000A7F0B0FA80F040F02000400901D03068F3
:103A200000E0706A97FAA7F1B1FA81F101F01F0185
:103A300005FA01F10842E4D1207800076DD5A069AC
:103A4000B8B395FAA5F0B0FA80F008EB8000C0F8A2
:103A50008054FFF733FD814605E0FFF72FFDA0EB13
:103A600009000228A0D897FAA7F0B0FA80F040F039
:103A70006000B5EB501F02D130680CE063E197FAAB
:103A8000A7F0B0FA80F040F06000B7EB501F01D112
:103A9000306A00E0706A97FAA7F1B1FA81F101F09B
:103AA0001F0105FA01F21042D7D00120FFF7FAFBFF
:103AB00033E0FFE795FAA5F1B1FA81F108EB810156
:103AC000C1F880A4FFF7FAFC814605E0FFF7F6FC99
:103AD000A0EB0900022899D897FAA7F0B0FA80F075
:103AE00040F06000B5EB501F01D130680BE097FA51
:103AF000A7F0B0FA80F040F06000B7EB501F01D1A2
:103B0000306A00E0706A97FAA7F1B1FA81F101F02A
:103B10001F0105FA01F21042D8D12078400763D581
:103B2000F06940F08050F061F069DFF8F0B000F02B
:103B300080500090DBF8001041F48071CBF8001049
:103B4000FFF7BCFC814605E0FFF7B8FCA0EB0900DD
:103B5000642872D8DBF80000C005F5D5E0680128BC
:103B60000AD008B1052813D0306A20F00100306275
:103B7000306A20F0040002E0306A40F00100306258
:103B8000E06841F2883B80B3FFF798FC81460AE089
:103B9000306A40F004003062EEE7FFF78FFCA0EBE4
:103BA0000901594549D897FAA7F0B0FA80F040F0DA
:103BB0004000B5EB501F01D130680BE097FAA7F039
:103BC000B0FA80F040F04000B7EB501F01D1306AEE
:103BD00000E0706A97FAA7F1B1FA81F101F01F02D3
:103BE00005FA02F10842D8D033E0FFE7FFF766FCA0
:103BF000814605E0FFF762FCA0EB090159451CD89E
:103C000097FAA7F0B0FA80F040F04000B5EB501FF3
:103C100008D105E000100240000042420070004060
:103C200030680CE097FAA7F0B0FA80F040F040005E
:103C3000B7EB501F02D1306A01E08AE0706A97FA50
:103C4000A7F1B1FA81F101F01F0205FA02F1084271
:103C5000D0D1E06998B37168C1F38101022972D0B3
:103C600002284FF080714FF0007B50460AD091FA45
:103C7000A1F1B1FA81F148F82100FFF71FFC0446D9
:103C80005F4669E08A4691FAA1F1B1FA81F1C14635
:103C900048F82100FFF712FCA84607465D4604E0FD
:103CA000FFF70CFCC01B022853D895FAA5F0B0FA18
:103CB00080F040F02000400902D0306801E060E070
:103CC000706A95FAA5F1B1FA81F101F01F0208FAC4
:103CD00002F10842E4D1206AB0F5803F05D1706856
:103CE000A16820F4003008437060D4E9080108435B
:103CF000716821F47411084370609AFAAAF0B0FA5E
:103D000080F0474649F82080FFF7D8FB044604E0DE
:103D1000FFF7D4FB001B02281BD895FAA5F0B0FAD8
:103D200080F040F02000400901D0306800E0706A67
:103D300095FAA5F1B1FA81F101F01F0107FA01F13D
:103D40000842E5D01DE01EE0FFF7B8FB001B02288B
:103D500002D90320BDE8F88F97FAA7F0B0FA80F0F7
:103D600040F02000400901D0306800E0706A97FA06
:103D7000A7F1B1FA81F101F01F0105FA01F1084242
:103D8000E2D10020E6E70120E4E72DE9F04790F8D2
:103D9000202081F85620828CA1F85420826A0023CA
:103DA000120E94090C70C2F383044C7002F00302EB
:103DB0008A70826A120CCA70028D120A0A7190F817
:103DC00028204A71C26A4FF6FF7A120E0AEA0212DE
:103DD000CA80C26ACC88C2F3074244EA1214CC807B
:103DE00002F00F020A72828DC2F30722D4094C72CC
:103DF000C2F380148C72C2F34014CC72C2F300146C
:103E00000C7300264E73046A4FF00109002C7DD01C
:103E1000012CFCD0022C7AD02923C2F380144C76DA
:103E20009206520E01F81A2F10F8302F0C7844EA3F
:103E3000D21401F8014B02F07F0201F8012B50F877
:103E4000042F120ED4090C70C2F341144C70C2F34B
:103E500082048C709207120FCA7004C8CC78C2F327
:103E6000074244EA9214CC70C2F340140C714E71B4
:103E700002F001028A7130F8042CC2F30722D4093F
:103E8000CC71C2F380140C72C2F340144C72C2F3B2
:103E900000148C72C2F38104CC7202F003020A7324
:103EA00010F8042C52084A734C4681F80E9050F8D2
:103EB000082B120E0A7450F8082C120C0AEA02227F
:103EC0004A8230F8082C4D8AC2F3072215434D82EE
:103ED00010F8082C120641F8142F50F8042C0D6825
:103EE000120E45EA02420A6050F8042C0D68C2F333
:103EF000074245EA02220A6030F8042C0D68C2F33A
:103F00000722154320C110F8042C01E034E076E0CC
:103F100001F8012B0268120E01F8032B0268120C43
:103F200012060A6002880D68C2F3072245EA0242BF
:103F30000A6002780D6845EA02220A6042680D684C
:103F400045EA126520C142680D78C2F3074245EA8E
:103F5000121501F8025B1207120D0A8082880D8883
:103F6000C2F30722154321F8025B0079400808706C
:103F70004C701846BDE8F0879207120D0A6190F860
:103F80002C200C6944EA82020A61026B0C69120E51
:103F900044EA92140C61C2F3C2040C7502F00702E9
:103FA0004A75026BC2F3074254098C75C2F382044E
:103FB000CC759207520F0A76028E0C7EC2F307224E
:103FC00044EAD2140C760C690F7EBF1C09FA07F57F
:103FD000641CA4FB05784FEAE57C06FB058504FB21
:103FE0000C5591F808C009FA0CF4A7FB04C80C653D
:103FF00005FB048407FB0644C1E912C40DE790F8F1
:104000002C209206920A0A61026B0C69120E44EA95
:1040100002220A61026B0C69C2F3074214430C616D
:10402000028E0C69C2F30722641C46F10005ED0400
:1040300045EA5435E404C1E912454FF400740C65B7
:10404000EBE670B58CB000240E4605468DF80C40AA
:10405000182105A8FEF775F9284600F051F80594D7
:1040600006940794C3200894CDE909400094CDE953
:104070000140234622462146286804F051F828468C
:1040800004F034FB8DF80C009DF80C0038B928467C
:1040900004F00CFA8DF80C009DF80C0018B19DF896
:1040A0000C000CB070BD31462846FFF76EFE8DF84F
:1040B0000C009DF80C00C0B9B6F854001421060499
:1040C0006846FEF73EF90720CDE900604020CDE9C3
:1040D0000204000104906946286804F03AF80721B8
:1040E000284604F04BF88DF80C0005F1100007C8C5
:1040F0008DE8070095E80F0004F012F8CFE7000004
:104100001B4800B5416985B041F480614161416956
:1041100001F480610491416941F00201416141690A
:1041200001F002010491816941F01001816181690E
:1041300001F010010491816941F0200181618069E1
:10414000694600F0200004904FF4F85000900220DF
:10415000019001200290032003900648FFF7AEF87B
:104160000420009069460448FFF7A8F805B000BD98
:104170000010024000100140001401402DE9F04FF2
:104180008BB00D46DDE91478044616469946142195
:104190006846FEF7D6F8182105A8FEF7D2F8206881
:1041A0000021C162206A022803D10702760A46EA8A
:1041B000C9561020CDE900704020CDE90201000170
:1041C0008A4604906946206803F0C3FF1021204608
:1041D00003F0D4FF00286DD14FF0FF3908FB07F042
:1041E000CDE9059090204FF0020BCDE9070B01209F
:1041F000CDE909A005A9206803F071FFB8F1010F0E
:1042000001D9122000E01120CDE900606946206844
:1042100003F09FFFB8F1010F1AD91221204603F0D5
:10422000ADFF070046D140F22A3A2068416B11EAFF
:104230000A0F28D1406B0004F7D50026206803F050
:1042400085FF45F82600761C082EF7D32035ECE7CD
:104250001121204603F092FF07002BD140F22A6A79
:104260002068416B11EA0A0F0DD1406B0004F7D5AD
:104270000026206803F06AFF45F82600761C082E09
:10428000F7D32035ECE7406BC0050CD5B8F1010F32
:1042900009D9206A18B1012801D0022803D120468B
:1042A00000F033F807462168486B000705D5082061
:1042B000886304200BB0BDE8F08F486B800703D5FE
:1042C0005846C1F838B0F5E7486B800603D5202082
:1042D00088630620EEE7486B800504D54FF4007034
:1042E00088630720E6E74E4603E003F02FFF01C591
:1042F000761E2068416B890201D5002EF5D1216818
:1043000040F2FF5088633846D4E710B586B00446C3
:1043100014216846FEF715F800200C21CDE90001B4
:104320004021CDE90210080104906946206803F09D
:1043300010FF0C21204603F021FF06B010BD70B520
:104340008AB00E460546182103A8FDF7FAFF286A31
:10435000032811D038B1012805D0022803D0292420
:104360000AB0204670BDB6F5805F05D0B6F5006F87
:1043700004D03EB12624F3E72724F1E7284604F0D1
:10438000F9FA02E0284604F0B7FA0400E8D16868B8
:104390000390A8680490E868CDE90506686907906D
:1043A000A8690890DDE907120096CDE901120DF128
:1043B0000C0C28689CE80E0003F0B2FED0E72DE953
:1043C000F04F8DB00C46DDE91698064617469A4622
:1043D00014216846FDF7B5FF182105A8FDF7B1FFC8
:1043E00000258DF82C5031682846CD62316A4FF493
:1043F000007B022903D17F0AD94647EACA57102118
:10440000CDE900914021824608010291CDE903A047
:104410006946306803F09DFE1021304603F0AEFE81
:1044200000287ED1B8F1010F01D9192000E0182031
:10443000CDE900706946306803F08BFEB8F1010FDA
:1044400001D9192100E01821304603F097FE002819
:1044500067D1411E09FB08F99020CDE9069005912E
:10446000CDF820A00120CDE909A005A9306803F00E
:1044700036FEB8F1010F24D84EE0406B400420D541
:10448000A9EB0500202811D281074FEA900000D047
:10449000401C8246002706E02146306803F069FE92
:1044A000241D2D1D7F1C57450BD2F5E7002704EB7B
:1044B0008701306803F05DFE7F1C082FF7D320349E
:1044C00020353068416B40F21A321142D5D02BE0D2
:1044D000406B400420D5A9EB0500202811D28107AC
:1044E0004FEA900000D0401C8246002706E021469B
:1044F000306803F03EFE241D2D1D7F1C57450BD256
:10450000F5E7002704EB8701306803F032FE7F1CDB
:10451000082FF7D3203420353068416B40F21A62FF
:1045200000E017E01142D3D0406BC0050BD5B8F1C5
:10453000010F08D9306A18B1012801D0022802D130
:104540003046FFF7E2FE3168486B000705D50820CA
:10455000886304200DB0BDE8F08F486B800702D55A
:1045600002208863F6E7486BC00603D510208863F5
:104570000520EFE7486B800503D5C1F838B0072068
:10458000E8E740F2FF5088630BA9304604F00CF8CE
:104590000028DFD19DF82C100729F5D00629F3D08B
:1045A000D8E7000010B5040003D094F8510010B112
:1045B00004E0012010BD204600F038F8022084F805
:1045C00051002068016821F040010160D4E9010137
:1045D0000843D4E903121143084361690843218B5E
:1045E00001F400710843E1690843216A0843A16AA4
:1045F000084321680860A069042101EA1040616A4B
:104600000843216848602168E06A08612068C16940
:1046100021F40061C1610449002008706065012037
:1046200084F85100002010BD08000020104800B59B
:10463000816985B041F008018161816901F008015B
:104640000491C16941F48041C161C069694600F4C7
:10465000804004904FF460400090022001900120BF
:104660000290032003900348FEF728FE05B000BD2A
:1046700000100240000C01402DE9F8430026DDF84F
:1046800020800446ADF8006090F85100012803D066
:1046900094F8510022287DD169B162B15BB194F8E0
:1046A0005000012876D0012784F8507094F851000A
:1046B000012803D005E00120BDE8F883322084F80A
:1046C00051006665A263A387E3872163A386E3861F
:1046D000A664E664A06A4FF40055A84209D1206898
:1046E000016821F4005101602068016841F4005123
:1046F000016020680168490603D4016841F0400167
:104700000160E0684FF48271B0F5006F606807D017
:10471000002867D088426ED1E08E012862D06AE01E
:1047200020B188420CD1E08E012809D1206B21688C
:104730000088C860206B801C2063E08E401EE086ED
:10474000E08E80B9A06AA84244D12068016841F493
:10475000805101603EE02068C068A16B0880A06BBA
:10476000801CA0639EE0434600220221204604F004
:10477000D1F9002874D1206B21680088C860206BB3
:10478000801C2063E08E401E0004000CE08609D1EE
:10479000A06A00E0C7E0A84204D12068016841F4A3
:1047A00080510160434600220121204604F0B2F905
:1047B00000286FD12068C068A16B0880A06B801CA6
:1047C000A063E08F401EE087E08E0028CBD16068B8
:1047D00000286AD1434600220121204604F09AF9BC
:1047E000F0BBB8E7206B411C216321680078C860EA
:1047F000E08E401EE086E08E98B9A06AA84204D1FF
:104800002068016841F48051016043460022012183
:10481000204604F07FF918BB2068C068A16B0870BF
:1048200040E0434600220221204604F073F9B8B963
:10483000206B411C216321680078C860E08E401E17
:104840000004000CE08607D1A06AA84204D12068C9
:10485000016841F48051016000224346012100E0DB
:1048600018E0204604F056F9A0B92068C168A06B92
:10487000421CA2630170E08F401EE087E08E00289A
:10488000CFD1606888B9434600220121204604F058
:1048900041F908B103200FE72068C168A06B421CF2
:1048A000A2630170E08F401EE087A06AA84210D189
:1048B000434600220121204604F02CF918B1606D16
:1048C00040F002000FE02068C068ADF80000BDF8BD
:1048D0000000434601228021204604F01BF920B14C
:1048E000606D40F010006065D4E784F85170A06AF4
:1048F000A84214D120688168C943C9060FD4616DEC
:1049000041F002016165016821F4005101602068F5
:10491000016841F40051016084F85060CBE684F8EE
:1049200050600020C8E60220C6E670B515460E4667
:10493000040003D094F83D0010B107E0012070BDE1
:10494000002084F83C00204600F01AF804F1080129
:104950002068FEF7B3F83146A2682068FEF7FCF83D
:10496000D4E901022946236BFEF776F8A168206896
:1049700050F8212042F0010240F82120002070BDB3
:104980001F4800B5416985B041F4807141614169BA
:1049900001F480710491816941F020018161816994
:1049A00001F020010491816941F040018161816938
:1049B00001F040010491816941F480718161806955
:1049C000694600F4807004904CF23370009002202D
:1049D000019001200290032003900A48FEF76EFC2C
:1049E0004FF68070009069460748FEF767FC41F279
:1049F0000100009069460548FEF760FC05B000BD67
:104A00000010024000140140001801400020014045
:104A10004FF0E0210428086903D020F00400086169
:104A2000704740F00400FAE710B5401EB0F1807FF7
:104A300001D3012010BD4FF0E02460610F21601709
:104A400003F0CEF90020A06107202061002010BDF6
:104A500010B5040003D094F8390010B107E001202C
:104A600010BD002084F83800204600F00CF8022029
:104A700084F83900211D206804F026FA012084F80A
:104A80003900002010BD70470168CA6842F0010279
:104A9000CA600068016841F00101016000207047B0
:104AA000704790F83900704738B5044600680168CF
:104AB000C268C1F3000102F4807221B11AB1E16B46
:104AC00041F00101E1630168C1F34002416901F075
:104AD000010122B119B1E26B42F00402E263026803
:104AE000C2F3800222B119B1E26B42F00202E2632A
:104AF0000268C2F3C00222B119B1E16B41F00801B2
:104B0000E1630168C068C1F3401100F0200019B1F1
:104B100010B1204604F0ECFF20680168C068C1F3C2
:104B2000C01100F0800019B110B1204605F0ECF87A
:104B300021680868CA68C0F3801002F040020125AD
:104B400068B162B1CA68204622F04002CA6094F897
:104B50003910322910D080F8395000F0E7F8E06BB6
:104B6000002808D0206801684068009084F8395017
:104B70002046FFF795FF38BD222180F83910ECE779
:104B800070B5040004D094F83900002510B106E097
:104B9000012070BD84F83850204600F021F8022032
:104BA00084F839002068C16821F40051C1602046B2
:104BB00004F0F2FF2068016921F49041016120684E
:104BC000416921F02A0141612068C16841F4005126
:104BD000C160E563012084F83900002070BD000049
:104BE00010B500681E4986B0884236D11D488169DB
:104BF00041F004018161816901F00401049181693E
:104C000041F480418161816901F4804104918169AD
:104C100041F0010181618069134C00F001000490B2
:104C20004FF40070009002200190012002900320B8
:104C3000039069462046FEF741FB211500910021B3
:104C4000019169462046FEF739FB2520FEF768FCF6
:104C5000032211462520FEF76FFC06B010BD0000B0
:104C600000380140001002400008014090F839303F
:104C7000012B01D0122B2BD131B32AB390F838304D
:104C8000012B25D0012380F8383081628285C285CE
:104C90000021C16390F83920122A17D0222280F80F
:104CA000392080F838100168CA6842F48072CA60FE
:104CB00001684A6942F001024A610068C16841F036
:104CC0002001C16000207047012070473222E6E7D2
:104CD0000220704730B50068114988420CD1114A52
:104CE0005088010408D41146440409784FF00003A9
:104CF00006D50A2901D0538030BD40F400400DE0B4
:104D00000D2909D0C0F30D04074D401C80B2295570
:104D10005080C728EFD830BD40F48040508030BD6F
:104D20000038014010000020CC0500207047FEE74D
:104D300070B50D4C0025C4F898510C48016821F05D
:104D400070410160016841F040510160C4F89C511C
:104D5000022004F5CC7405F0DBFC01202060022069
:104D600005F0D6FC256070BD00802142000C01409A
:104D70000E4810B5816986B041F0080181618069F3
:104D8000012400F008000490C020CDE900040320B5
:104D9000CDE9024069460648FEF790FA0548C0F89A
:104DA0009C41C0F8984106B010BD000000100240C0
:104DB000000C01400080214270B50D4C0026C4F863
:104DC00098610C48016821F070410160016841F070
:104DD000405101600125C4F89C51022004F5CC74B7
:104DE00005F096FC2560022005F092FC266070BD5F
:104DF00000802142000C01402DE9F0478146174810
:104E00000024016821F070410160016841F0004117
:104E10000160134E254627464FF00108C6F89871E9
:104E2000022005F075FCC6F898816006040ED6F8DD
:104E30001C0108B1641CE4B2012005F069FC6D1C82
:104E4000EDB2082DEAD3B9F1000F04D0FFF770FFDF
:104E50002046BDE8F087FFF7AFFFF9E7000C0140FF
:104E6000008021422DE9F04105461448016821F0F7
:104E700070410160016841F040510160104E00270F
:104E8000C6F898713C464FF00108E809C6F89C0145
:104E90006806050E022005F03BFCC6F8988102204A
:104EA00005F036FCC6F89871022005F031FC641C50
:104EB000E4B2082CE9D3BDE8F0810000000C014009
:104EC0000080214270B50D48016821F070410160F9
:104ED000016841F040510160094C0120C4F89C0177
:104EE000C4F89801042004F5CC7405F011FC0025E9
:104EF0006560042005F00CFC256070BD000C0140CD
:104F0000008021420E4810B5016821F07041016017
:104F1000016841F0405101600A4C0020C4F898013A
:104F2000C4F89C01042004F5CC7405F0F1FB0120C9
:104F300020606060BDE81040042005F0E9BB00007F
:104F4000000C01400080214270B513480024016824
:104F500021F070410160016841F0004101600F4D96
:104F60000126C5F89C61304605F0D2FBC5F8986172
:104F7000012005F0CDFB07E0641CE4B2FA2C03D954
:104F8000FFF7C0FF012070BDD5F81C010028F3D148
:104F9000C5F8980170BD0000000C0140008021425E
:104FA00072B6704762B6704770B5144886B08169B2
:104FB00041F004018161816901F00401049181697A
:104FC00041F0400181618069032400F040000490B9
:104FD000022001260025CDE90204CDE900656946DD
:104FE0000748FEF76BF91C2003948DE861006946C1
:104FF0000448FEF763F906B070BD000000100240DF
:1050000000080140001801402DE9F04101262E4C16
:105010002E4F2F4D01281DD02078A0B110212846F9
:10502000FEF742FAC0B108212846FEF73DFA98B1D2
:1050300004212846FEF738FA70B101213846FEF700
:1050400033FA012808D010212846FEF72DFA01284E
:1050500026D037E02670E1E70A2005F04BFB002060
:10506000207010212846FEF71FFA80B1082128463B
:10507000FEF71AFA70B104212846FEF715FA58B166
:1050800001213846FEF710FA012807D01AE0012066
:10509000BDE8F0810220FBE70320F9E70420F7E7F1
:1050A00008212846FEF700FA01280BD104212846E2
:1050B000FEF7FAF9012805D101213846FEF7F4F987
:1050C00000B926700020E3E720000020000801401E
:1050D0000018014070B5064609480024018845883B
:1050E00020464D43214602F0C1FC02F02DFEB1B234
:1050F000044801E00180641CAC42FBD370BD000099
:10510000180700200008006C2DE9F04F334B2C24C9
:10511000194698712A2589882B2645F2105B4FF491
:10512000305E4FF448774FF0F00949F2413A4FF4BE
:10513000A07845F2103C4FF4F07258B1A3F800800B
:10514000A3F80290514501D0614529D11C815D81B0
:105150009E8139E0A3F80090A3F80280514501D068
:10516000614508D11C815D819E81614531D1A3F8E3
:1051700000805A802DE0594508D1A3F808E04FF48B
:10518000285058814FF42C50988106E0A1F5C85062
:1051900063381ED11C815E819D811A805F8018E07A
:1051A000594508D1A3F808E04FF4285058814FF42E
:1051B0002C50988106E0A1F5C850633804D11C81B9
:1051C0005D819E811F805A80614502D11A80A3F8BB
:1051D0000280BDE8F04F002002F06CBB18070020F1
:1051E0002DE9FE4F0026A2EB000882465F1A701ED2
:1051F00035468946B8F1000F02DD4FF0010102E0AB
:1052000003D14FF00001019102E0C8F100080190C4
:10521000002F02DD4FF0010002E003D14FF000004B
:10522000009002E0C7F1000700904046B84501DD5C
:10523000044600E03C46601C4FF0000B029015E075
:105240001FFA89F11FFA8AF000F016F846443D442F
:10525000A64202DD0199361B8A44A54202DD00996F
:105260002D1B89440BF101001FFA80FB02998B452D
:10527000E6DDBDE8FE8F000000B502F0F7FB02F0AE
:1052800063FD024802490088088000BD1800002024
:105290000008006CF0B51C4615460E4607460B4646
:1052A000FFF79EFF3A46234631461046FFF798FF28
:1052B00023462A4619463846FFF792FF2A462346D8
:1052C0003146BDE8F0401046FFF78ABF2DE9FC4F9C
:1052D00080460024154603200F46A0EB450649E012
:1052E000781B81B208EB040A01901FFA8AF0FFF7DD
:1052F000C3FF381B81B208EB050900901FFA89F043
:10530000FFF7BAFF07EB040B1FFA8BF11FFA89F0C6
:10531000FFF7B2FF07EB05091FFA89F11FFA8AF0C0
:10532000FFF7AAFFA8EB040A1FFA89F11FFA8AF017
:10533000FFF7A2FFA8EB05091FFA8BF11FFA89F00E
:10534000FFF79AFF019881B21FFA8AF0FFF794FFE6
:10535000009881B21FFA89F0FFF78EFF641C002EBF
:1053600003DA06EB8406B61D04E0601B06EB80063C
:105370006D1E0A36AC42B3DDBDE8FC8F2DE9F0416D
:10538000364D90460C4602460F0AA8882946160A52
:105390004989A0F51343413B0BD0A0F5A643103B30
:1053A00007D0B3F5007311D0A0F5C853633B27D0E5
:1053B0004BE0084602F0BCFC304602F0ADFCD0B237
:1053C00002F0AAFCA88902F0B3FC38E0084602F01B
:1053D000AFFC304602F0A0FC6889401C80B202F0AD
:1053E000A7FCD0B202F098FCA88902F0A1FC3846D4
:1053F00002F092FCA889401C80B202F099FC21E0E6
:10540000A87918B92888801A401E82B2084602F08E
:105410008FFC160A304602F07FFCD0B202F07CFC12
:10542000304602F079FCD0B202F076FCA88902F096
:105430007FFC384602F070FCE0B202F06DFC3846AA
:1054400002F06AFCE0B202F067FC05492889088096
:10545000891CA1F80080BDE8F08100001807002039
:10546000FE07006C2DE9F0431F468146A2EB0900C0
:10547000079B401C0C4686B29DB2DFF82C800FE0E3
:105480002146484602F0F2FA02F05EFC0020414656
:1054900002E00D80401C80B2B042FAD3641CA4B27A
:1054A000BC42EDD9BDE8F0830008006C2DE9F04F57
:1054B000FE4895B0816941F00801816180694FF033
:1054C000010900F008000090CDF844900325CDF8C4
:1054D0004890CDE9139511A9F548FDF7EFFEF54881
:1054E0004FF02044F44906220460C0E90112002173
:1054F0001023C160C0E9041381611B02C161C0E9CE
:1055000009139B00C0E90B13416381631A200A92BF
:10551000CDE90B10CDE90412109106910991039584
:1055200003AA0AA9E348FFF700FA322005F0E2F8DF
:10553000D32002F0FDFB02F08DF9DE4A4432908068
:1055400002F088F9908002F085F94FF6FF7B0BEAB4
:105550000020908002F07EF9918849F2413A084398
:10556000908045F2103645F2105541F663175045CC
:1055700048D0D42002F0DCFB02F06CF9908002F0FD
:1055800069F9908002F066F90BEA0020D846908015
:1055900002F060F9918808439080B04232D04FF415
:1055A0005A4002F0C5FB02F055F990804FF45B4081
:1055B00002F0BEFB02F04EF908EA002090804FF4A2
:1055C0005C4002F0B5FB02F045F9918808439080F9
:1055D000B0F5004F7ED0A84214D0A12002F0A8FB65
:1055E00002F038F9908002F035F908EA0020908046
:1055F00002F030F991880843A0F5AE4190806139FE
:1056000000D1978090469188ACA0FCF78FFCB8F849
:10561000040050457ED1CF2002F08AFB002002F02A
:105620007BFBC12002F078FB302002F075FBED20FF
:1056300002F07EFB642002F06FFB032002F06CFBA3
:10564000122002F069FB812002F066FBE82002F0E4
:105650006FFB852002F060FB102002F05DFB7A20DA
:1056600002F05AFBCB2002F063FB392002F054FB1E
:105670002C2002F051FB002002F04EFB342002F0FF
:105680004BFB022002F048FBF72002F051FB2020E8
:1056900002F042FBEA2002F04BFB002002F03CFB50
:1056A000002002F039FBC02002F042FB1B2002F078
:1056B00033FBC12002F03CFB012002F02DFBC52092
:1056C00002F036FB302002F027FB302002F024FBF2
:1056D000C72000E0B7E002F02BFBB72002F01CFB74
:1056E000362002F025FB482002F016FB3A2002F09B
:1056F0001FFB552002F010FBB12002F019FB002027
:1057000002F00AFB1A2002F007FBB62002F010FBA1
:105710000A2000E099E002F0FFFAA22002F0FCFA71
:10572000F22002F005FB002002F0F6FA262002F03B
:10573000FFFA012002F0F0FAE02002F0F9FA0F205F
:1057400002F0EAFA2A2002F0E7FA282002F0E4FA4E
:10575000082002F0E1FA0E2002F0DEFA082002F042
:10576000DBFA542002F0D8FAA92002F0D5FA43203F
:1057700002F0D2FA0A2002F0CFFA0F2002F0CCFA9F
:10578000002002F0C9FA002002F0C6FA002002F060
:10579000C3FA002002F0C0FAE12002F0C9FA0020AA
:1057A00002F0BAFA152002F0B7FA172002F0B4FAA4
:1057B000072002F0B1FA112002F0AEFA062002F042
:1057C000ABFA2B2002F0A8FA562002F0A5FA3C20F2
:1057D00002F0A2FA052002F09FFA102002F09CFAD3
:1057E0000F2002F099FA3F2002F096FA3F2002F0D3
:1057F00093FA0F2002F090FA2B2002F099FA002081
:1058000002F08AFA002002F087FA012002F084FAFE
:105810003F2002F081FA2A2002F08AFA002002F0EA
:105820007BFA002002F078FA002002F075FAEF20EF
:1058300002F072FA112002F07BFA782004F05AFF8D
:10584000292001F011BF9580DCE6B0427ED1ED2029
:1058500002F06EFA012002F05FFAFE2002F05CFA1C
:10586000EE2002F065FADE2002F056FA212002F066
:1058700053FAF12002F05CFA012002F04DFADF2029
:1058800002F056FA102002F047FAC42002F050FA53
:105890008F2002F041FAC62002F04AFA002002F0FE
:1058A0003BFAE22002F038FAE2200FE0001002405A
:1058B000000C0140D4060020040100A0204C434409
:1058C0002049443A25780D0A0000000002F024FA2D
:1058D000E22002F021FABF2002F02AFAAA2002F008
:1058E0001BFAB02002F024FA0D2002F015FA002075
:1058F00002F012FA0D2002F00FFA002002F00CFA6A
:10590000112002F009FA002002F006FA192002F034
:1059100003FA002002F000FA212002F0FDF9002035
:1059200002F0FAF92D2002F0F7F9002002F0F4F964
:105930003D2002F0F1F9002002F0EEF95D2002F0C6
:10594000EBF9002002F0E8F95D2000E0FEE302F050
:10595000E3F9002002F0E0F9B12002F0E9F980203B
:1059600002F0DAF9002002F0D7F98B2002F0D4F926
:10597000002002F0D1F9962002F0CEF9002002F0CA
:10598000CBF9B22002F0D4F9002002F0C5F90020D2
:1059900002F0C2F9022002F0BFF9002002F0BCF9C7
:1059A000032002F0B9F9002002F0B6F9B32002F0AA
:1059B000BFF9002002F0B0F9002002F0ADF900209C
:1059C00002F0AAF9002002F0A7F9002002F0A4F9E1
:1059D000002002F0A1F9002002F09EF9002002F060
:1059E0009BF9002002F098F9002002F095F90020C0
:1059F00002F092F9002002F08FF9002002F08CF9F9
:105A0000002002F089F9002002F086F9002002F05F
:105A100083F9002002F080F9002002F07DF90020D7
:105A200002F07AF9002002F077F9002002F074F910
:105A3000002002F071F9002002F06EF9002002F05F
:105A40006BF9B42002F074F98B2002F065F90020A4
:105A500002F062F9962002F05FF9002002F05CF992
:105A6000A12002F059F9002002F056F9B52002F009
:105A70005FF9022002F050F9002002F04DF90320F6
:105A800002F04AF9002002F047F9042002F044F93C
:105A9000002002F041F9B62002F04AF9002002F09D
:105AA0003BF9002002F038F9B72002F041F900205C
:105AB00002F032F9002002F02FF93F2002F02CF919
:105AC000002002F029F95E2002F026F9002002F001
:105AD00023F9642002F020F9002002F01DF98C2047
