:020000040800F2
:1000000088C900203D020008F7570008EB290008C6
:10001000F5570008E10A0008416E000800000000E2
:1000200000000000000000000000000069680008F7
:10003000E30A000800000000D3590008036A000822
:10004000570200085702000857020008570200082C
:10005000570200085702000857020008570200081C
:10006000570200085702000857020008570200080C
:1000700057020008570200085702000857020008FC
:1000800057020008570200085702000857020008EC
:10009000570200085702000857020008310B0008F9
:1000A00057020008570200085702000857020008CC
:1000B0005702000857020008516A0008570200085A
:1000C00057020008570200085702000857020008AC
:1000D00057020008156E0008570200085702000872
:1000E000570200085702000857020008570200088C
:1000F000570200085702000857020008570200087C
:10010000570200085702000857020008570200086B
:100110005702000857020008856A000857020008C5
:10012000570200085702000857020008570200084B
:1001300000F002F800F073F80AA090E8000C824486
:100140008344AAF10107DA4501D100F068F8AFF263
:10015000090EBAE80F0013F0010F18BFFB1A43F0A5
:100160000103184728190100481901000A444FF0FB
:10017000000C10F8013B13F0070408BF10F8014B06
:100180001D1108BF10F8015B641E05D010F8016B4B
:10019000641E01F8016BF9D113F0080F1EBF10F8AF
:1001A000014BAD1C0C1B09D16D1E58BF01F801CBD2
:1001B000FAD505E014F8016B01F8016B6D1EF9D555
:1001C0009142D6D37047000000230024002500266A
:1001D000103A28BF78C1FBD8520728BF30C148BFAA
:1001E0000B60704703681B0A28BF41F08001642937
:1001F00000F02C81752900F02981782900F0A08178
:10020000E42900F05F81632900F0BF83732900F0C7
:10021000C483002070471FB51FBD10B510BD00F08E
:1002200009FC1146FFF7F7FF0AF058FA00F027FC27
:1002300003B4FFF7F2FF03BC06F0B9FF094880479B
:1002400009480047FEE7FEE7FEE7FEE7FEE7FEE7B8
:10025000FEE7FEE7FEE7FEE704480549054A064BD0
:1002600070470000096A00083101000888C30020B7
:1002700088C9002088C5002088C50020704753EA3F
:10028000020C00F069802DE9F04B4FF00006002BC6
:100290001FBFB3FA83F503FA05F424FA05F65E40AE
:1002A00012BF1643B2FA82F502FA05F4C5F1200531
:1002B0001EBF22FA05FC44EA0C04203556EA044C21
:1002C0004FEA144418BF641C4FF000084FF00009B7
:1002D000904271EB030C39D3002919BFB1FA81F7B1
:1002E00001FA07F6B0FA80F700FA07F6C7F120071F
:1002F0001EBF20FA07FC46EA0C062037B6FBF4FCCA
:10030000A7EB0507103F07F01F0BCBF120060CFAF7
:100310000BFB2CFA06F644BFB3460026202FA4BFE1
:100320005E464FF0000B5BEA060C08BF4FF0010B76
:1003300019EB0B09ABFB027C48EB0608C01B06FB64
:1003400002CC0BFB03CC71EB0C01C1E70B46024660
:1003500041464846BDE8F08B13B54FF000004FF022
:100360000001AFF30080BDE81C4070470FB40449A2
:1003700010B503AA029800F015FB10BC5DF814FB41
:10038000140000200FB41CB5074B06AA7B44694635
:100390000090059800F0D7FA0020694600F0E6FAD0
:1003A0001CBC5DF814FB0000DD05000070B50446C0
:1003B00085690068C10601D5302600E02026C00707
:1003C00007D070BDD4E9012130469047206A401C17
:1003D00020626D1EF6D570BD70B504468569007843
:1003E000C00707D170BDD4E9012120209047206AC1
:1003F000401C20626D1EF6D570BD70B50C460546DA
:10040000012A05D02878800600D5EA69002302E099
:10041000012305E05B1C934202D2E05C0028F9D185
:10042000A869E618C01AA861286A184428622846F4
:10043000FFF7BCFF04E0D5E9012114F8010B904758
:10044000B442F8D32846FFF7C7FF70BD2DE9F0414D
:100450000646002410687529314616A510D0AFF362
:100460000080002802DA404213A507E031688A07BD
:1004700001D512A502E0490704D511A5012401E028
:10048000AFF3008000210A2206F1240709E0B0FB47
:10049000F2FCB0FBF2F302FB1C003030785418463B
:1004A000491C0028F3D123462A463046BDE8F041D6
:1004B00000F0EBB9000000002D0000002B00000050
:1004C000200000002DE9F0418046D21D22F00702F5
:1004D0000025D2E90002F52915A614D0011E72F1FB
:1004E000000106DA0023D0EB030063EB020211A641
:1004F00008E0D8F800108B0701D50FA602E04907E5
:1005000001D50EA601251146002408F1240704E0B8
:1005100000F076F930323A55641C50EA0102F7D106
:100520002B46324621464046BDE8F04100F0ADB9C9
:10053000000000002D0000002B0000002000000043
:1005400070B504460D4621461068AFF3008021883F
:10055000090502D50F4A7A4402E00E4A7A440E3267
:10056000002104F1240305E000F00F060009965D68
:100570005E54491C0028F7D120780023000704D5D9
:10058000702D02D009B1022311322046BDE870401F
:1005900000F07BB9141201002DE9F05F8946044692
:1005A0004FF0000ADFF874B1FB44C0F820A02046E9
:1005B000E1688847002874D0252806D0D4E90121B5
:1005C0009047206A401C2062F1E700265F462046E3
:1005D000E16888472028054607DB312D05D27819C8
:1005E00010F8200C08B10643F1E7B00701D526F05A
:1005F0000406C4F81CA00027C4F818A02A2D09D0AE
:10060000284606F0CDFD38B304EB8708303DC8F826
:10061000185019E059F8041B204604EB8702916139
:10062000E1688847012F054618D1E069002820DAE3
:1006300026F020061DE0D8F8180000EB800005EB3E
:1006400040003038C8F818002046E1688847054661
:1006500006F0A6FD0028EED1012F0AD02E2D08D1DC
:100660002046E16888477F1C0546022F46F0200699
:10067000C4DBA069002803DA404246F00106A0610D
:10068000F00701D026F010066C2D0BD0682D09D094
:100690004C2D39D06A2D35D0742D35D07A2D33D0EC
:1006A00016E038E0E1682F4620468847B842054604
:1006B00009D16C2F26D04FF48060E16806432046B4
:1006C0008847054604E06C2F1AD04FF4807006432B
:1006D0000DB3A5F14100192802D8203546F4006673
:1006E0004A462946204626604E46FFF77BFD80B1EC
:1006F00001280BD0F61D26F0070000F1080956E787
:100700004020E4E78020D8E70020D6E706F104097E
:100710004DE7284652E7206ABDE8F09FEA11010044
:10072000032A40F2308010F0030C00F0158011F81D
:10073000013BBCF1020F624498BF11F801CB00F8F5
:10074000013B38BF11F8013BA2F1040298BF00F849
:1007500001CB38BF00F8013B11F0030300F03481F6
:10076000083AC0F0088051F8043B083A51F804CB2D
:10077000A0E80810F5E7121D5CBF51F8043B40F8F3
:10078000043BAFF30080D20724BF11F8013B11F8FE
:1007900001CB48BF11F8012B24BF00F8013B00F842
:1007A00001CB48BF00F8012B70474FF0000200B5A5
:1007B000134694469646203922BFA0E80C50A0E884
:1007C0000C50B1F12001BFF4F7AF090728BFA0E832
:1007D0000C5048BF0CC05DF804EB890028BF40F8FE
:1007E000042B08BF704748BF20F8022B11F0804F40
:1007F00018BF00F8012B704770477047704770476B
:1008000030B5B0F10A024FEA900E71F100034EEAE2
:10081000817EB0EB0E0061EB91014FEA101E4EEAB3
:10082000017E10EB0E0041EB11114FEA102E4EEA43
:10083000016E10EB0E0041EB11214FEA104E4EEA13
:10084000014E10EB0E0041EB1141401841F1000147
:100850004FEAD00040EA41704FEAD10110EB800529
:100860004FEA810444EA907444EB01046D1944EBAF
:100870000404521BA3414FF0000348BF0A3200D5C5
:1008800030BD401C41F1000130BD2DE9F0470D465F
:1008900099469246044600F124080168880604D56A
:1008A000E06921F01001216000E00120A84201DD93
:1008B000471B00E00027A1697A1902EB0900081A1A
:1008C000A0612078C00602D42046FFF76FFD002605
:1008D00008E0D4E901211AF806009047206A401C7C
:1008E000761C20624E45F4DB2078C0060AD52046EF
:1008F000FFF75CFD06E0D4E9012130209047206A33
:10090000401C2062381EA7F10107F4DC07E0D4E99F
:10091000012118F805009047206A401C2062281E1B
:10092000A5F10105F3DC2046FFF756FD207800060F
:1009300002D50220BDE8F0870120FBE701694A1CCF
:1009400002610878704700B58FB0CDE90131002110
:10095000059105497944CDE9031011466846FFF732
:100960001BFE0FB000BD0000E5FFFFFF0A6802F8A4
:10097000010B0A60704710B5436913B1AFF30080F3
:1009800001E0FFF73AFD012010BD127800F12401CB
:100990000A7000224A700122EDE711684FF0FF3221
:1009A000E9E70000074B70B50D467B44FFF7CBFF2E
:1009B0000446284600F03AF810B14FF0FF3070BD01
:1009C000204670BD1798000010B5203AC0F00B808B
:1009D000B1E81850203AA0E81850B1E81850A0E843
:1009E0001850BFF4F5AF5FEA027C24BFB1E818509D
:1009F000A0E8185044BF18C918C0BDE810405FEA0D
:100A0000827C24BF51F8043B40F8043B08BF704788
:100A1000D20728BF31F8023B48BF11F8012B28BF8D
:100A200020F8023B48BF00F8012B7047007B00F024
:100A300080007047754600F02BF8AE460500694609
:100A4000534620F00700854618B020B5FFF704FC98
:100A5000BDE820404FF000064FF000074FF00008BF
:100A60004FF0000B21F00701AC46ACE8C009ACE840
:100A7000C009ACE8C009ACE8C0098D46704710B5A4
:100A80000446AFF300802046BDE81040FFF7D0BB1E
:100A90000048704728C3002030B50F4885B08169F1
:100AA00041F00801816180694FF4807400F0080012
:100AB00004900120CDE9004002900320074D0390EF
:100AC0006946284600F06AF900222146284600F0CF
:100AD00060FA05B030BD000000100240000C01407B
:100AE000FEE770470F4800B5816985B041F0040109
:100AF00081618069694600F0040004904FF48070C1
:100B000000900948019002200290084800F046F940
:100B100000221146172000F07FFA172000F070FA2B
:100B200005B000BD00100240000011100008014097
:100B30004FF4807000F026B970B5B3F5804F05D042
:100B40006FF0704140F82210002070BD0C688B6976
:100B5000F0251C4395FAA5F54B68B5FA85F5AB4031
:100B60004FF47F4696FAA6F68D68B6FA86F6B5403B
:100B70002B431C434FF47023C96893FAA3F3B3FAD1
:100B800083F399400C4350F82210034B19400C4357
:100B900040F82240D8E700000000F0CF30B50A68E6
:100BA00050F8223023F0010340F822308A68214BAC
:100BB000082A1ED04C681443D1E903252A43144364
:100BC0004A6914438A691443CA6914430A6A14437C
:100BD0004A6A14438A6A1443CA6A14430A6B09684E
:100BE000144350F821201A40144340F821400020BB
:100BF00030BD4A68D1E9034542F008022C43224344
:100C00004C6922438C692243CC6922430C6A2243FB
:100C10004C6A22438C6A2243CC6A22430C6B0968DB
:100C2000224350F821401C40224342F0400240F849
:100C30002120DCE78100F7FF70B5F025D1E9003411
:100C400095FAA5F5B5FA85F5AC4023434FF47F45F9
:100C500095FAA5F58C68B5FA85F5AC404FF4702689
:100C600096FAA6F6CD68B6FA86F6B5402C4323432D
:100C70004FF470050C6995FAA5F5B5FA85F5641E73
:100C8000AC4023434FF070654C6995FAA5F5B5FA71
:100C900085F5A41EAC408969234300EB82000B4319
:100CA000416801F040410B434360002070BD0000EB
:100CB00030B40C4601461546500700D0012000EB29
:100CC000D5006843C2B208784B78812809D3402BFD
:100CD00007D3FF2B05D0FF2803D07F2B0CD2403B3E
:100CE0000BE00023184603E05B1C04F8010BDBB2A9
:100CF0009342F9D330BC7047413B8138D9B2C0B27E
:100D0000C0EB401303EB801001EB400050430A4955
:100D10000C2D0AD0102D0BD0182DEBD1D1F81910B5
:100D20000144204630BC06F00DB9D1F80910F7E7B0
:100D3000D1F81110F4E70000C8C2002031B500F06E
:100D40002DF9044600F02AF90099001B8842F9D3D6
:100D500038BD0000B0F5807F0DD107490020C1F8F3
:100D600098010120C1F898010449C1F88C01044898
:100D70000178491C017070470080224200802142A6
:100D800025000020044910B50A68024202D008601C
:100D9000FFF7E0FF10BD0000140401402DE9F84FFB
:100DA000DFF8BC91002309F1040A0AF1040B1C4688
:100DB0004FF00F080BF1040E01270A68A7403A40D4
:100DC000BA4272D1DFF89CC14D68A5EB0C066545AF
:100DD0002BD00DDC032D34D005DC35B3012D19D01B
:100DE000022D2FD11BE0112D16D0122D2AD119E082
:100DF000B6F5881F19D006DCB6F5803F15D0B6F5DC
:100E0000801F1FD111E0B6F5001F0ED0B6F5041FEC
:100E100018D10AE0CB6815E0CB681B1D12E0CB6847
:100E200008330FE0CB680C330CE08B682BB1012B3F
:100E30004FF0080303D0476104E0042302E0076198
:100E400000E00023FF2A01D8064601E000F1040675
:100E50004FEA840501D9A5F12005376808FA05FC99
:100E600027EA0C0703FA05F547EA050737604D68DE
:100E7000ED006ED53C4DAE6946F00106AE61AD6940
:100E800024F0030605F001050095384D7719BE687A
:100E9000A5072D0F08FA05FC26EA0C06DFF8D0C0DE
:100EA000604503D14FF0000C25E052E0DFF8C4C0EC
:100EB000604502D14FF0010C1DE0DFF8BCC0604579
:100EC00002D14FF0020C16E0DFF8B0C0604502D14D
:100ED0004FF0030C0FE0DFF8A8C0604502D14FF0DF
:100EE000040C08E0DFF89CC0604502D14FF0050C0F
:100EF00001E04FF0060C0CFA05FC4CEA060CC7F8B2
:100F000008C04D68D9F80060ED034D4601D5164381
:100F100000E096432E604D68DAF80060AD03554658
:100F200001D5164300E096432E604D68DBF8006063
:100F3000ED025D4601D5164300E096432E604D68F4
:100F4000DEF80060AD02754601D5164300E0964319
:100F50002E60641C102CFFF42FAFBDE8F88F00004A
:100F60000004014000001110001002400000014088
:100F700000080140000C0140001001400014014035
:100F800000180140001C01408068084000D001208A
:100F900070470AB1016170470904FBE70148006826
:100FA000704700000400002002480168491C0160ED
:100FB0007047000004000020074810B5016841F0A8
:100FC00010010160052000F047F80F2000F006F83E
:100FD00000F015F8002010BD0020024010B50446B6
:100FE00000F00CF94FF47A71B0FBF1F001F08CFADB
:100FF00000222146501E00F00FF8002010BD70475F
:1010000000F01F02012191404009800000F1E02022
:10101000C0F8001170470000F0B40E4B1B68C3F31A
:101020000223C3F10704042C00D904241D1D072D3D
:1010300001D2002300E0DB1E012606FA04F56D1E36
:101040000D409D409E40761E164045EA0601F0BCCC
:1010500004F0D2BB0CED00E0064A00F00701106876
:101060004FF6FF03184040EA01200349084310608F
:10107000704700000CED00E00000FA052DE9F04794
:10108000DFF8688104460E46D8F8000000F007003B
:10109000B0420CD2D8F8001021F007013143C8F853
:1010A0000010D8F8000000F00700B04273D120789B
:1010B0004F4F800705D57868A16820F0F0000843FD
:1010C00078602078C00755D06068012201280CD0D4
:1010D000022828D0022393FAA3F1B1FA81F141F05A
:1010E0002001490904D0396803E04FF40033F2E7E6
:1010F000796A93FAA3F3B3FA83F303F01F039A40D8
:10110000114248D0796821F0030101437960FFF76B
:1011100045FF0546606841F2883101280CD002285D
:10112000894615D022E04FF00073D4E7FFF736FF71
:10113000411B494501D916E089467868C0F3810012
:101140000128F3D116E0FFF729FF411B49450AD8D2
:101150007868C0F381000228F5D10BE0FFF71EFF8D
:10116000411B494502D90320BDE8F087786810F09B
:101170000C0FF3D1D8F80010404601F00701B1423E
:101180000BD9016821F0070131430160006800F0CC
:101190000700B04201D00120E6E72078400705D5DE
:1011A0007868E16820F4E060084378602078000700
:1011B00006D57868216920F4605040EAC100786063
:1011C00000F052F87968F02292FAA2F201F0F001F0
:1011D000B2FA82F2D140074A515CC8400649086021
:1011E0000F20FFF7FBFE0020BEE7000000200240BA
:1011F00000100240A4CA0008000000200148006856
:10120000704700000000002008480949006849684C
:101210004FF4E06292FAA2F201F4E061B2FA82F2D3
:10122000D140044A515CC8407047000000000020D3
:1012300000100240B4CA000808480949006849681B
:101240004FF4605292FAA2F201F46051B2FA82F2C3
:10125000D140044A515CC8407047000000000020A3
:1012600000100240B4CA000810B519A085B00FC81C
:101270008DE80F001AA01B4B0068049059681A48AB
:1012800001F00C02042A1DD0082A1BD14FF470145F
:1012900094FAA4F401F47012B4FA84F4E240C9039D
:1012A0001DF8022010D559684FF4003393FAA3F3C8
:1012B00001F40031B3FA83F3D94004AB595CB0FBBD
:1012C000F1F0504305B010BD08485043FAE7000064
:1012D00002030405060708090A0B0C0D0E0F101077
:1012E000010200000010024000127A0000093D00D7
:1012F0002DE9F84F04460078FE4EC0074FF0010577
:101300007FD070684FF40038C0F38100012807D007
:101310007068C0F3810002281BD17068C00318D523
:1013200098FAA8F0B0FA80F040F02000400901D00F
:10133000306800E0706A98FAA8F1B1FA81F101F022
:101340001F0105FA01F108425BD06068002879D0DE
:1013500057E06068B0F5803F0BD010B1B0F5A02F1A
:1013600011D0306820F480303060306820F4802064
:1013700002E0306840F480303060606818B3FFF7F6
:101380000DFE074609E0306840F480203060F0E749
:10139000FFF704FEC01B642870D898FAA8F0B0FAD2
:1013A00080F040F02000400901D0306800E0706A11
:1013B00098FAA8F1B1FA81F101F01F0105FA01F1E3
:1013C0000842E5D01DE0FFF7E9FD074604E0FFF71E
:1013D000E5FDC01B6428DFD898FAA8F0B0FA80F0C9
:1013E00040F02000400901D0306800E0706A98FAAF
:1013F000A8F1B1FA81F101F01F0105FA01F10842EB
:10140000E5D12078DFF8F08280074FF0000A4FF036
:1014100002075AD570684FF0F80B10F00C0F07D088
:101420007068C0F3810002281CD17068C00319D411
:1014300097FAA7F0B0FA80F040F02000400902D0FF
:10144000306801E08AE0706A97FAA7F1B1FA81F199
:1014500001F01F0105FA01F108422BD02069012893
:101460007CD127E0206988B395FAA5F0B0FA80F026
:1014700048F82050FFF792FD814606E04DE1FFF766
:101480008DFDA0EB0900022886D897FAA7F0B0FAE4
:1014900080F040F02000400901D0306800E0706A20
:1014A00097FAA7F1B1FA81F101F01F0105FA01F1F4
:1014B0000842E4D030689BFAABF220F0F801606992
:1014C000B2FA82F290400143316025E0FFE795FADD
:1014D000A5F1B1FA81F148F821A0FFF75FFD81463F
:1014E00005E0FFF75BFDA0EB09000228CCD897FAD6
:1014F000A7F0B0FA80F040F02000400901D0306839
:1015000000E0706A97FAA7F1B1FA81F101F01F01CA
:1015100005FA01F10842E4D1207800076DD5A069F1
:10152000B8B395FAA5F0B0FA80F008EB8000C0F8E7
:101530008054FFF733FD814605E0FFF72FFDA0EB58
:1015400009000228A0D897FAA7F0B0FA80F040F07E
:101550006000B5EB501F02D130680CE063E197FAF0
:10156000A7F0B0FA80F040F06000B7EB501F01D157
:10157000306A00E0706A97FAA7F1B1FA81F101F0E0
:101580001F0105FA01F21042D7D00120FFF7D6FB68
:1015900033E0FFE795FAA5F1B1FA81F108EB81019B
:1015A000C1F880A4FFF7FAFC814605E0FFF7F6FCDE
:1015B000A0EB0900022899D897FAA7F0B0FA80F0BA
:1015C00040F06000B5EB501F01D130680BE097FA96
:1015D000A7F0B0FA80F040F06000B7EB501F01D1E7
:1015E000306A00E0706A97FAA7F1B1FA81F101F070
:1015F0001F0105FA01F21042D8D12078400763D5C7
:10160000F06940F08050F061F069DFF8F0B000F070
:1016100080500090DBF8001041F48071CBF800108E
:10162000FFF7BCFC814605E0FFF7B8FCA0EB090022
:10163000642872D8DBF80000C005F5D5E068012801
:101640000AD008B1052813D0306A20F001003062BA
:10165000306A20F0040002E0306A40F0010030629D
:10166000E06841F2883B80B3FFF798FC81460AE0CE
:10167000306A40F004003062EEE7FFF78FFCA0EB29
:101680000901594549D897FAA7F0B0FA80F040F01F
:101690004000B5EB501F01D130680BE097FAA7F07E
:1016A000B0FA80F040F04000B7EB501F01D1306A33
:1016B00000E0706A97FAA7F1B1FA81F101F01F0218
:1016C00005FA02F10842D8D033E0FFE7FFF766FCE5
:1016D000814605E0FFF762FCA0EB090159451CD8E3
:1016E00097FAA7F0B0FA80F040F04000B5EB501F39
:1016F00008D105E0001002400000424200700040A6
:1017000030680CE097FAA7F0B0FA80F040F04000A3
:10171000B7EB501F02D1306A01E08AE0706A97FA95
:10172000A7F1B1FA81F101F01F0205FA02F10842B6
:10173000D0D1E06998B37168C1F38101022972D0F8
:1017400002284FF080714FF0007B50460AD091FA8A
:10175000A1F1B1FA81F148F82100FFF71FFC04461E
:101760005F4669E08A4691FAA1F1B1FA81F1C1467A
:1017700048F82100FFF712FCA84607465D4604E042
:10178000FFF70CFCC01B022853D895FAA5F0B0FA5D
:1017900080F040F02000400902D0306801E060E0B5
:1017A000706A95FAA5F1B1FA81F101F01F0208FA09
:1017B00002F10842E4D1206AB0F5803F05D170689B
:1017C000A16820F4003008437060D4E908010843A0
:1017D000716821F47411084370609AFAAAF0B0FAA3
:1017E00080F0474649F82080FFF7D8FB044604E024
:1017F000FFF7D4FB001B02281BD895FAA5F0B0FA1E
:1018000080F040F02000400901D0306800E0706AAC
:1018100095FAA5F1B1FA81F101F01F0107FA01F182
:101820000842E5D01DE01EE0FFF7B8FB001B0228D0
:1018300002D90320BDE8F88F97FAA7F0B0FA80F03C
:1018400040F02000400901D0306800E0706A97FA4B
:10185000A7F1B1FA81F101F01F0105FA01F1084287
:10186000E2D10020E6E70120E4E72DE9F04790F817
:10187000202081F85620828CA1F85420826A00230F
:10188000120E94090C70C2F383044C7002F0030230
:101890008A70826A120CCA70028D120A0A7190F85C
:1018A00028204A71C26A4FF6FF7A120E0AEA021223
:1018B000CA80C26ACC88C2F3074244EA1214CC80C0
:1018C00002F00F020A72828DC2F30722D4094C7211
:1018D000C2F380148C72C2F34014CC72C2F30014B1
:1018E0000C7300264E73046A4FF00109002C7DD062
:1018F000012CFCD0022C7AD02923C2F380144C7620
:101900009206520E01F81A2F10F8302F0C7844EA84
:10191000D21401F8014B02F07F0201F8012B50F8BC
:10192000042F120ED4090C70C2F341144C70C2F390
:1019300082048C709207120FCA7004C8CC78C2F36C
:10194000074244EA9214CC70C2F340140C714E71F9
:1019500002F001028A7130F8042CC2F30722D40984
:10196000CC71C2F380140C72C2F340144C72C2F3F7
:1019700000148C72C2F38104CC7202F003020A7369
:1019800010F8042C52084A734C4681F80E9050F817
:10199000082B120E0A7450F8082C120C0AEA0222C4
:1019A0004A8230F8082C4D8AC2F3072215434D8233
:1019B00010F8082C120641F8142F50F8042C0D686A
:1019C000120E45EA02420A6050F8042C0D68C2F378
:1019D000074245EA02220A6030F8042C0D68C2F37F
:1019E0000722154320C110F8042C01E034E076E012
:1019F00001F8012B0268120E01F8032B0268120C89
:101A000012060A6002880D68C2F3072245EA024204
:101A10000A6002780D6845EA02220A6042680D6891
:101A200045EA126520C142680D78C2F3074245EAD3
:101A3000121501F8025B1207120D0A8082880D88C8
:101A4000C2F30722154321F8025B007940080870B1
:101A50004C701846BDE8F0879207120D0A6190F8A5
:101A60002C200C6944EA82020A61026B0C69120E96
:101A700044EA92140C61C2F3C2040C7502F007022E
:101A80004A75026BC2F3074254098C75C2F3820493
:101A9000CC759207520F0A76028E0C7EC2F3072293
:101AA00044EAD2140C760C690F7EBF1C09FA07F5C4
:101AB000641CA4FB05784FEAE57C06FB058504FB66
:101AC0000C5591F808C009FA0CF4A7FB04C80C6582
:101AD00005FB048407FB0644C1E912C40DE790F836
:101AE0002C209206920A0A61026B0C69120E44EADB
:101AF00002220A61026B0C69C2F3074214430C61B3
:101B0000028E0C69C2F30722641C46F10005ED0445
:101B100045EA5435E404C1E912454FF400740C65FC
:101B2000EBE670B58CB000240E4605468DF80C40EF
:101B3000182105A8FEF739FE284600F051F8059453
:101B400006940794C3200894CDE909400094CDE998
:101B50000140234622462146286804F0BFF8284663
:101B600004F0A2FB8DF80C009DF80C0038B9284653
:101B700004F07AFA8DF80C009DF80C0018B19DF86D
:101B80000C000CB070BD31462846FFF76EFE8DF894
:101B90000C009DF80C00C0B9B6F8540014210604DE
:101BA0006846FEF702FE0720CDE900604020CDE93F
:101BB0000204000104906946286804F0A8F807218F
:101BC000284604F0B9F88DF80C0005F1100007C89C
:101BD0008DE8070095E80F0004F080F8CFE70000DB
:101BE0001B4800B5416985B041F48061416141699C
:101BF00001F480610491416941F002014161416950
:101C000001F002010491816941F010018161816953
:101C100001F010010491816941F020018161806926
:101C2000694600F0200004904FF4F8500090022024
:101C3000019001200290032003900648FFF7AEF8C0
:101C40000420009069460448FFF7A8F805B000BDDD
:101C50000010024000100140001401402DE9F04F37
:101C60008BB00D46DDE914780446164699461421DA
:101C70006846FEF79AFD182105A8FEF796FD206834
:101C80000021C162206A022803D10702760A46EACF
:101C9000C9561020CDE900704020CDE902010001B5
:101CA0008A4604906946206804F031F810212046E5
:101CB00004F042F800286DD14FF0FF3908FB07F01F
:101CC000CDE9059090204FF0020BCDE9070B0120E4
:101CD000CDE909A005A9206803F0DFFFB8F1010FE5
:101CE00001D9122000E01120CDE90060694620688A
:101CF00004F00DF8B8F1010F1AD91221204604F0B2
:101D00001BF8070046D140F22A3A2068416B11EADD
:101D10000A0F28D1406B0004F7D50026206803F095
:101D2000F3FF45F82600761C082EF7D32035ECE7A4
:101D30001121204604F000F807002BD140F22A6A56
:101D40002068416B11EA0A0F0DD1406B0004F7D5F2
:101D50000026206803F0D8FF45F82600761C082EE0
:101D6000F7D32035ECE7406BC0050CD5B8F1010F77
:101D700009D9206A18B1012801D0022803D12046D0
:101D800000F033F807462168486B000705D50820A6
:101D9000886304200BB0BDE8F08F486B800703D543
:101DA0005846C1F838B0F5E7486B800603D52020C7
:101DB00088630620EEE7486B800504D54FF4007079
:101DC00088630720E6E74E4603E003F09DFF01C568
:101DD000761E2068416B890201D5002EF5D121685D
:101DE00040F2FF5088633846D4E710B586B0044609
:101DF00014216846FEF7D9FC00200C21CDE9000132
:101E00004021CDE90210080104906946206803F0E2
:101E10007EFF0C21204603F08FFF06B010BD70B589
:101E20008AB00E460546182103A8FEF7BEFC286AB4
:101E3000032811D038B1012805D0022803D0292465
:101E40000AB0204670BDB6F5805F05D0B6F5006FCC
:101E500004D03EB12624F3E72724F1E7284604F016
:101E600067FB02E0284604F025FB0400E8D168681F
:101E70000390A8680490E868CDE9050668690790B2
:101E8000A8690890DDE907120096CDE901120DF16D
:101E90000C0C28689CE80E0003F020FFD0E72DE929
:101EA000F04F8DB00C46DDE91698064617469A4667
:101EB00014216846FEF779FC182105A8FEF775FC89
:101EC00000258DF82C5031682846CD62316A4FF4D8
:101ED000007B022903D17F0AD94647EACA5710215D
:101EE000CDE900914021824608010291CDE903A08D
:101EF0006946306803F00BFF1021304603F01CFFE9
:101F000000287ED1B8F1010F01D9192000E0182076
:101F1000CDE900706946306803F0F9FEB8F1010FB1
:101F200001D9192100E01821304603F005FF0028EF
:101F300067D1411E09FB08F99020CDE90690059173
:101F4000CDF820A00120CDE909A005A9306803F053
:101F5000A4FEB8F1010F24D84EE0406B400420D518
:101F6000A9EB0500202811D281074FEA900000D08C
:101F7000401C8246002706E02146306803F0D7FE69
:101F8000241D2D1D7F1C57450BD2F5E7002704EBC0
:101F90008701306803F0CBFE7F1C082FF7D3203475
:101FA00020353068416B40F21A321142D5D02BE017
:101FB000406B400420D5A9EB0500202811D28107F1
:101FC0004FEA900000D0401C8246002706E02146E0
:101FD000306803F0ACFE241D2D1D7F1C57450BD22D
:101FE000F5E7002704EB8701306803F0A0FE7F1CB3
:101FF000082FF7D3203420353068416B40F21A6245
:1020000000E017E01142D3D0406BC0050BD5B8F10A
:10201000010F08D9306A18B1012801D0022802D175
:102020003046FFF7E2FE3168486B000705D508200F
:10203000886304200DB0BDE8F08F486B800702D59F
:1020400002208863F6E7486BC00603D5102088633A
:102050000520EFE7486B800503D5C1F838B00720AD
:10206000E8E740F2FF5088630BA9304604F07AF8A5
:102070000028DFD19DF82C100729F5D00629F3D0D0
:10208000D8E7000010B5040003D094F8510010B157
:1020900004E0012010BD204600F038F8022084F84A
:1020A00051002068016821F040010160D4E901017C
:1020B0000843D4E903121143084361690843218BA3
:1020C00001F400710843E1690843216A0843A16AE9
:1020D000084321680860A069042101EA1040616A90
:1020E0000843216848602168E06A08612068C16986
:1020F00021F40061C161044900200870606501207D
:1021000084F85100002010BD08000020104800B5E0
:10211000816985B041F008018161816901F00801A0
:102120000491C16941F48041C161C069694600F40C
:10213000804004904FF46040009002200190012004
:102140000290032003900348FEF728FE05B000BD6F
:1021500000100240000C01402DE9F8430026DDF894
:1021600020800446ADF8006090F85100012803D0AB
:1021700094F8510022287DD169B162B15BB194F825
:102180005000012876D0012784F8507094F851004F
:10219000012803D005E00120BDE8F883322084F84F
:1021A00051006665A263A387E3872163A386E38664
:1021B000A664E664A06A4FF40055A84209D12068DD
:1021C000016821F4005101602068016841F4005168
:1021D000016020680168490603D4016841F04001AC
:1021E0000160E0684FF48271B0F5006F606807D05D
:1021F000002867D088426ED1E08E012862D06AE064
:1022000020B188420CD1E08E012809D1206B2168D1
:102210000088C860206B801C2063E08E401EE08632
:10222000E08E80B9A06AA84244D12068016841F4D8
:10223000805101603EE02068C068A16B0880A06BFF
:10224000801CA0639EE0434600220221204604F049
:102250003FFA002874D1206B21680088C860206B89
:10226000801C2063E08E401E0004000CE08609D133
:10227000A06A00E0C7E0A84204D12068016841F4E8
:1022800080510160434600220121204604F020FADB
:1022900000286FD12068C068A16B0880A06B801CEB
:1022A000A063E08F401EE087E08E0028CBD16068FD
:1022B00000286AD1434600220121204604F008FA92
:1022C000F0BBB8E7206B411C216321680078C8602F
:1022D000E08E401EE086E08E98B9A06AA84204D144
:1022E0002068016841F480510160434600220121C9
:1022F000204604F0EDF918BB2068C068A16B087097
:1023000040E0434600220221204604F0E1F9B8B93A
:10231000206B411C216321680078C860E08E401E5C
:102320000004000CE08607D1A06AA84204D120680E
:10233000016841F48051016000224346012100E020
:1023400018E0204604F0C4F9A0B92068C168A06B69
:10235000421CA2630170E08F401EE087E08E0028DF
:10236000CFD1606888B9434600220121204604F09D
:10237000AFF908B103200FE72068C168A06B421CC9
:10238000A2630170E08F401EE087A06AA84210D1CE
:10239000434600220121204604F09AF918B1606DED
:1023A00040F002000FE02068C068ADF80000BDF802
:1023B0000000434601228021204604F089F920B123
:1023C000606D40F010006065D4E784F85170A06A39
:1023D000A84214D120688168C943C9060FD4616D31
:1023E00041F002016165016821F40051016020683B
:1023F000016841F40051016084F85060CBE684F834
:1024000050600020C8E60220C6E670B515460E46AC
:10241000040003D094F83D0010B107E0012070BD26
:10242000002084F83C00204600F01AF804F108016E
:102430002068FEF7B3FB3146A2682068FEF7FCFB7C
:10244000D4E901022946236BFEF776FBA1682068D8
:1024500050F8212042F0010240F82120002070BDF8
:102460001F4800B5416985B041F4807141614169FF
:1024700001F480710491816941F0200181618169D9
:1024800001F020010491816941F04001816181697D
:1024900001F040010491816941F48071816180699A
:1024A000694600F4807004904CF233700090022072
:1024B000019001200290032003900A48FEF76EFC71
:1024C0004FF68070009069460748FEF767FC41F2BE
:1024D0000100009069460548FEF760FC05B000BDAC
:1024E000001002400014014000180140002001408B
:1024F0004FF0E0210428086903D020F004000861AF
:10250000704740F00400FAE710B5401EB0F1807F3C
:1025100001D3012010BD4FF0E02460610F2160174E
:1025200003F06AF90020A06107202061002010BD9F
:102530007047704710B5040003D094F8390010B10B
:1025400007E0012010BD002084F83800204600F08C
:102550000DF8022084F83900211D206804F0AEFA3D
:10256000012084F83900002010BD000008B5006883
:102570000B49884212D10B48C16941F01001C16179
:10258000C069032200F01000009001213620FEF700
:1025900043FDBDE808403620FEF732BD08BD00000F
:1025A00000100040001002400168CA6842F00102B9
:1025B000CA600068016841F00101016000207047B5
:1025C000704770B50446006801694FF00005C943C3
:1025D000890715D4C168C943890711D4E91E01616F
:1025E00001202076206880698007204602D0FFF70E
:1025F000E7FF04E000F098F8204600F096F8257612
:1026000020680169C943490717D4C168C94349070C
:1026100013D46FF0040101610220207620688069E4
:1026200010F4407F204602D0FFF7CAFF04E000F01C
:102630007BF8204600F079F8257620680169C943C7
:10264000090716D4C168C943090712D46FF00801FD
:102650000161042020762068C0698007204602D0EE
:10266000FFF7AEFF04E000F05FF8204600F05DF8F1
:10267000257620680169C943C90617D4C168C943D2
:10268000C90613D46FF0100101610820207620687C
:10269000C06910F4407F204602D0FFF791FF04E0AC
:1026A00000F042F8204600F040F8257620680169E5
:1026B000C943C90708D1C168C943C90704D1891EE4
:1026C0000161204600F032F820680169C94309061B
:1026D00009D4C168C943090605D46FF080010161BE
:1026E0002046FFF725FF20680169C943490609D440
:1026F000C168C943490605D46FF040010161204615
:1027000000F02CF820680169C94389060BD4C16820
:10271000C943890607D46FF0200101612046BDE856
:102720007040FFF706BF70BD7047704710B5054990
:10273000884206D1044C05A02178FDF717FE002041
:10274000207010BD08170020240000206672616D03
:10275000653A25646670730D0A0000007047704783
:1027600090F83900704738B5044600680168C268BF
:10277000C1F3000102F4807221B11AB1E16B41F0A2
:102780000101E1630168C1F34002416901F0010107
:1027900022B119B1E26B42F00402E2630268C2F3B3
:1027A000800222B119B1E26B42F00202E2630268D8
:1027B000C2F3C00222B119B1E16B41F00801E1633B
:1027C0000168C068C1F3401100F0200019B110B1D8
:1027D000204604F0DFF920680168C068C1F3C01129
:1027E00000F0800019B110B1204604F0DFFA216832
:1027F0000868CA68C0F3801002F04002012568B181
:1028000062B1CA68204622F04002CA6094F83910CA
:10281000322910D080F8395000F0E6F8E06B00283B
:1028200008D0206801684068009084F8395020463C
:10283000FFF795FF38BD222180F83910ECE770B51D
:10284000040004D094F83900002510B106E00120FE
:1028500070BD84F83850204600F020F8022084F83B
:1028600039002068C16821F40051C160204604F09D
:10287000E5F92068016921F490410161206841690E
:1028800021F02A0141612068C16841F40051C16012
:10289000E563012084F83900002070BD10B50068A0
:1028A0001E4986B0884236D11D48816941F0040135
:1028B0008161816901F004010491816941F48041E1
:1028C0008161816901F480410491816941F00101D4
:1028D00081618069134C00F0010004904FF4007096
:1028E000009002200190012002900320039069468D
:1028F0002046FEF753FA2115009100210191694607
:102900002046FEF74BFA2520FEF77AFB03221146FC
:102910002520FEF781FB06B010BD00000038014005
:10292000001002400008014090F83930012B01D01E
:10293000122B2BD131B32AB390F83830012B25D08C
:10294000012380F8383081628285C2850021C1630D
:1029500090F83920122A17D0222280F8392080F8E6
:1029600038100168CA6842F48072CA6001684A6916
:1029700042F001024A610068C16841F02001C16073
:1029800000207047012070473222E6E7022070479E
:1029900030B50068114988420CD1114A50880104B1
:1029A00008D41146440409784FF0000306D50A29DB
:1029B00001D0538030BD40F400400DE00D2909D016
:1029C000C0F30D04074D401C80B229555080C72824
:1029D000EFD830BD40F48040508030BD0038014019
:1029E00010000020580200207047FEE772B67047C2
:1029F00062B6704770B5144886B0816941F0040131
:102A00008161816901F004010491816941F0400113
:102A100081618069032400F04000049002200126B7
:102A20000025CDE90204CDE9006569460748FEF7B7
:102A3000B5F91C2003948DE8610069460448FEF74F
:102A4000ADF906B070BD0000001002400008014062
:102A5000001801402DE9F04101262E4C2E4F2F4D3C
:102A600001281DD02078A0B110212846FEF78CFA4D
:102A7000C0B108212846FEF787FA98B104212846FC
:102A8000FEF782FA70B101213846FEF77DFA01287F
:102A900008D010212846FEF777FA012826D037E023
:102AA0002670E1E70A2004F0BFFF0020207010210B
:102AB0002846FEF769FA80B108212846FEF764FA35
:102AC00070B104212846FEF75FFA58B1012138465B
:102AD000FEF75AFA012807D01AE00120BDE8F0817C
:102AE0000220FBE70320F9E70420F7E70821284646
:102AF000FEF74AFA01280BD104212846FEF744FAD2
:102B0000012805D101213846FEF73EFA00B92670AA
:102B10000020E3E7200000200008014000180140E9
:102B200070B50646094800240188458820464D4373
:102B3000214602F02FFC02F013FEB1B2044801E07E
:102B40000180641CAC42FBD370BD0000A4030020D4
:102B50000008006C2DE9F04F334B2C241946987176
:102B60002A2589882B2645F2105B4FF4305E4FF4FE
:102B700048774FF0F00949F2413A4FF4A07845F216
:102B8000103C4FF4F07258B1A3F80080A3F8029003
:102B9000514501D0614529D11C815D819E8139E07B
:102BA000A3F80090A3F80280514501D0614508D1F7
:102BB0001C815D819E81614531D1A3F800805A80DE
:102BC0002DE0594508D1A3F808E04FF4285058816A
:102BD0004FF42C50988106E0A1F5C85063381ED1FF
:102BE0001C815E819D811A805F8018E0594508D163
:102BF000A3F808E04FF4285058814FF42C509881E6
:102C000006E0A1F5C850633804D11C815D819E8126
:102C10001F805A80614502D11A80A3F80280BDE866
:102C2000F04F002002F0DABAA40300202DE9F041B1
:102C3000364D90460C4602460F0AA8882946160AC9
:102C40004989A0F51343413B0BD0A0F5A643103BA7
:102C500007D0B3F5007311D0A0F5C853633B27D05C
:102C60004BE0084602F070FD304602F061FDD0B244
:102C700002F05EFDA88902F067FD38E0084602F028
:102C800063FD304602F054FD6889401C80B202F0BA
:102C90005BFDD0B202F04CFDA88902F055FD38462C
:102CA00002F046FDA889401C80B202F04DFD21E0F3
:102CB000A87918B92888801A401E82B2084602F006
:102CC00043FD160A304602F033FDD0B202F030FD6B
:102CD000304602F02DFDD0B202F02AFDA88902F0A4
:102CE00033FD384602F024FDE0B202F021FD384603
:102CF00002F01EFDE0B202F01BFD054928890880A4
:102D0000891CA1F80080BDE8F0810000A403002028
:102D1000FE07006C2DE9F0431F468146A2EB090037
:102D2000079B401C0C4686B29DB2DFF82C800FE05A
:102D30002146484602F02EFB02F012FD00204146DB
:102D400002E00D80401C80B2B042FAD3641CA4B2F1
:102D5000BC42EDD9BDE8F0830008006C2DE9F04FCE
:102D6000FE4895B0816941F00801816180694FF0AA
:102D7000010900F008000090CDF844900325CDF83B
:102D80004890CDE9139511A9F548FEF707F8F548E5
:102D90004FF02044F44906220460C0E901120021EA
:102DA0001023C160C0E9041381611B02C161C0E945
:102DB00009139B00C0E90B13416381631A200A9237
:102DC000CDE90B10CDE904121091069109910395FC
:102DD00003AA0AA9E348FFF718FB322004F024FEF7
:102DE000D32002F0B1FC02F085F9DE4A4432908033
:102DF00002F080F9908002F07DF94FF6FF7B0BEA3C
:102E00000020908002F076F9918849F2413A084317
:102E1000908045F2103645F2105541F66317504543
:102E200048D0D42002F090FC02F064F9908002F0C7
:102E300061F9908002F05EF90BEA0020D84690809C
:102E400002F058F9918808439080B04232D04FF494
:102E50005A4002F079FC02F04DF990804FF45B404B
:102E600002F072FC02F046F908EA002090804FF46C
:102E70005C4002F069FC02F03DF9918808439080C3
:102E8000B0F5004F7ED0A84214D0A12002F05CFC27
:102E900002F030F9908002F02DF908EA00209080CD
:102EA00002F028F991880843A0F5AE41908061397D
:102EB00000D1978090469188ACA0FDF757FAB8F8FA
:102EC000040050457ED1CF2002F03EFC002002F0ED
:102ED0002FFCC12002F02CFC302002F029FCED2058
:102EE00002F032FC642002F023FC032002F020FCFC
:102EF000122002F01DFC812002F01AFCE82002F0F2
:102F000023FC852002F014FC102002F011FC7A2032
:102F100002F00EFCCB2002F017FC392002F008FC76
:102F20002C2002F005FC002002F002FC342002F00C
:102F3000FFFB022002F0FCFBF72002F005FC202042
:102F400002F0F6FBEA2002F0FFFB002002F0F0FBAB
:102F5000002002F0EDFBC02002F0F6FB1B2002F087
:102F6000E7FBC12002F0F0FB012002F0E1FBC520ED
:102F700002F0EAFB302002F0DBFB302002F0D8FB4D
:102F8000C72000E0B7E002F0DFFBB72002F0D0FB83
:102F9000362002F0D9FB482002F0CAFB3A2002F0AA
:102FA000D3FB552002F0C4FBB12002F0CDFB002082
:102FB00002F0BEFB1A2002F0BBFBB62002F0C4FBFD
:102FC0000A2000E099E002F0B3FBA22002F0B0FB7F
:102FD000F22002F0B9FB002002F0AAFB262002F04A
:102FE000B3FB012002F0A4FBE02002F0ADFB0F20B8
:102FF00002F09EFB2A2002F09BFB282002F098FBA7
:10300000082002F095FB0E2002F092FB082002F04F
:103010008FFB542002F08CFBA92002F089FB432097
:1030200002F086FB0A2002F083FB0F2002F080FBF7
:10303000002002F07DFB002002F07AFB002002F06D
:1030400077FB002002F074FBE12002F07DFB002002
:1030500002F06EFB152002F06BFB172002F068FBFC
:10306000072002F065FB112002F062FB062002F04F
:103070005FFB2B2002F05CFB562002F059FB3C204A
:1030800002F056FB052002F053FB102002F050FB2B
:103090000F2002F04DFB3F2002F04AFB3F2002F0E0
:1030A00047FB0F2002F044FB2B2002F04DFB0020D9
:1030B00002F03EFB002002F03BFB012002F038FB57
:1030C0003F2002F035FB2A2002F03EFB002002F0F8
:1030D0002FFB002002F02CFB002002F029FBEF2048
:1030E00002F026FB112002F02FFB782004F09CFC5C
:1030F000292001F011BF9580DCE6B0427ED1ED20A1
:1031000002F022FB012002F013FBFE2002F010FB74
:10311000EE2002F019FBDE2002F00AFB212002F073
:1031200007FBF12002F010FB012002F001FBDF2081
:1031300002F00AFB102002F0FBFAC42002F004FBAC
:103140008F2002F0F5FAC62002F0FEFA002002F00D
:10315000EFFAE22002F0ECFAE2200FE00010024069
:10316000000C014060030020040100A0204C4344F7
:103170002049443A25780D0A0000000002F0D8FAF0
:10318000E22002F0D5FABF2002F0DEFAAA2002F017
:10319000CFFAB02002F0D8FA0D2002F0C9FA0020D0
:1031A00002F0C6FA0D2002F0C3FA002002F0C0FAC5
:1031B000112002F0BDFA002002F0BAFA192002F044
:1031C000B7FA002002F0B4FA212002F0B1FA002090
:1031D00002F0AEFA2D2002F0ABFA002002F0A8FABD
:1031E0003D2002F0A5FA002002F0A2FA5D2002F0D4
:1031F0009FFA002002F09CFA5D2000E0FEE302F05E
:1032000097FA002002F094FAB12002F09DFA802093
:1032100002F08EFA002002F08BFA8B2002F088FA7E
:10322000002002F085FA962002F082FA002002F0D7
:103230007FFAB22002F088FA002002F079FA00202A
:1032400002F076FA022002F073FA002002F070FA1F
:10325000032002F06DFA002002F06AFAB32002F0B7
:1032600073FA002002F064FA002002F061FA0020F4
:1032700002F05EFA002002F05BFA002002F058FA39
:10328000002002F055FA002002F052FA002002F06D
:103290004FFA002002F04CFA002002F049FA002018
:1032A00002F046FA002002F043FA002002F040FA51
:1032B000002002F03DFA002002F03AFA002002F06D
:1032C00037FA002002F034FA002002F031FA002030
:1032D00002F02EFA002002F02BFA002002F028FA69
:1032E000002002F025FA002002F022FA002002F06D
:1032F0001FFAB42002F028FA8B2002F019FA0020FD
:1033000002F016FA962002F013FA002002F010FAEA
:10331000A12002F00DFA002002F00AFAB52002F016
:1033200013FA022002F004FA002002F001FA03204E
:1033300002F0FEF9002002F0FBF9042002F0F8F997
:10334000002002F0F5F9B62002F0FEF9002002F0AC
:10335000EFF9002002F0ECF9B72002F0F5F90020B7
:1033600002F0E6F9002002F0E3F93F2002F0E0F974
:10337000002002F0DDF95E2002F0DAF9002002F010
:10338000D7F9642002F0D4F9002002F0D1F98C20A2
:1033900002F0CEF9002002F0CBF9AC2002F0C8F91F
:1033A000002002F0C5F9DC2002F0C2F9002002F092
:1033B000BFF9702002F0BCF9002002F0B9F99020AA
:1033C00002F0B6F9002002F0B3F9EB2002F0B0F9F8
:1033D000002002F0ADF9DC2002F0AAF9002002F092
:1033E000A7F9B82002F0B0F9002002F0A1F90020FE
:1033F00002F09EF9002002F09BF9002002F098F9FB
:10340000002002F095F9002002F092F9002002F06D
:103410008FF9002002F08CF9BA2002F095F92420EF
:1034200002F086F9002002F083F9002002F080F912
:10343000002002F07DF9C12002F086F9202002F080
:1034400077F9002002F074F9542002F071F900209D
:1034500002F06EF9FF2002F06BF9002002F068F92B
:10346000C22002F071F90A2002F062F9002002F095
:103470005FF9042002F05CF9002002F059F9C32042
:1034800002F062F93C2002F053F9002002F050F9FA
:103490003A2002F04DF9002002F04AF9392002F0FA
:1034A00047F9002002F044F9372002F041F90020EA
:1034B00002F03EF93C2002F03BF9002002F038F91E
:1034C000362002F035F9002002F032F9322002F005
:1034D0002FF9002002F02CF92F2002F029F900200A
:1034E00002F026F92C2002F023F9002002F020F946
:1034F000292002F01DF9002002F01AF9262002F01E
:1035000017F9002002F014F9242002F011F900202C
:1035100002F00EF9242002F00BF9002002F008F965
:10352000232002F005F9002002F002F93C2002F00D
:10353000FFF8002002F0FCF8362002F0F9F8002035
:1035400002F0F6F8322002F0F3F8002002F0F0F872
:103550002F2002F0EDF8002002F0EAF82C2002F013
:10356000E7F8002002F0E4F8292002F0E1F800205A
:1035700002F0DEF8262002F0DBF8002002F0D8F896
:10358000242002F0D5F8002002F0D2F8242002F026
:10359000CFF8002002F0CCF8232002F0C9F8002078
:1035A00002F0C6F8C42002F0CFF8622002F0C0F8A2
:1035B000002002F0BDF8052002F0BAF8002002F069
:1035C000B7F8842002F0B4F8002002F0B1F8F0203F
:1035D00002F0AEF8002002F0ABF8182002F0A8F8D4
:1035E000002002F0A5F8A42002F0A2F8002002F0CA
:1035F0009FF8182002F09CF8002002F099F8502063
:1036000002F096F8002002F093F80C2002F090F8F7
:10361000002002F08DF8172002F08AF8002002F056
:1036200087F8952002F084F8002002F081F8F3205A
:1036300002F07EF8002002F07BF8E62002F078F835
:10364000002002F075F8C52002F07EF8322002F06A
:103650006FF8002002F06CF8442002F069F80020B6
:1036600002F066F8652002F063F8002002F060F8CE
:10367000762002F05DF8002002F05AF8882002F06F
:1036800057F8002002F054F8C62002F05DF8202020
:1036900002F04EF8002002F04BF8172002F048F834
:1036A000002002F045F8012002F042F8002002F06C
:1036B0003FF8C72002F048F8002002F039F8002057
:1036C00002F036F8002002F033F8002002F030F863
:1036D000C82002F039F8002002F02AF8002002F099
:1036E00027F8002002F024F8002002F021F8C92079
:1036F00002F02AF8002002F01BF8002002F018F86F
:10370000002002F015F8002002F012F8002002F06C
:103710000FF8002002F00CF8002002F009F8002059
:1037200002F006F8002002F003F8002002F000F892
:10373000002001F0FDFF002001F0FAFF002001F061
:10374000F7FF002001F0F4FF002001F0F1FF00205E
:1037500001F0EEFFE02001F0F7FF162001F0E8FF96
:10376000002001F0E5FF1C2001F0E2FF002001F045
:10377000DFFF212001F0DCFF002001F0D9FF36201F
:1037800001F0D6FF002001F0D3FF462001F0D0FF6A
:10379000002001F0CDFF522001F0CAFF002001F00F
:1037A000C7FF642001F0C4FF002001F0C1FF7A20B0
:1037B00001F0BEFF002001F0BBFF8B2001F0B8FF3D
:1037C000002001F0B5FF992001F0B2FF002001F0C8
:1037D000AFFFA82001F0ACFF002001F0A9FFB92045
:1037E00001F0A6FF002001F0A3FFC42001F0A0FF1C
:1037F000002001F09DFFCA2001F09AFF002001F097
:1038000097FFD22001F094FF002001F091FFD92012
:1038100001F08EFF002001F08BFFE02001F088FF17
:10382000002001F085FFF32001F082FF002001F06D
:103830007FFFE12001F088FF162001F079FF0020D2
:1038400001F076FF1C2001F073FF002001F070FFF3
:10385000222001F06DFF002001F06AFF362001F008
:1038600067FF002001F064FF452001F061FF0020A8
:1038700001F05EFF522001F05BFF002001F058FFD5
:10388000642001F055FF002001F052FF7A2001F082
:103890004FFF002001F04CFF8B2001F049FF00207A
:1038A00001F046FF992001F043FF002001F040FFA6
:1038B000A82001F03DFF002001F03AFFB92001F0FF
:1038C00037FF002001F034FFC42001F031FF002059
:1038D00001F02EFFCA2001F02BFF002001F028FF8D
:1038E000D22001F025FF002001F022FFD82001F0B6
:1038F0001FFF002001F01CFFE02001F019FF002055
:1039000001F016FFF32001F013FF002001F010FF7B
:10391000E22001F019FF052001F00AFF002001F06C
:1039200007FF0B2001F004FF002001F001FF1B2026
:1039300001F0FEFE002001F0FBFE342001F0F8FE55
:10394000002001F0F5FE442001F0F2FE002001F01D
:10395000EFFE4F2001F0ECFE002001F0E9FE6120B7
:1039600001F0E6FE002001F0E3FE792001F0E0FE28
:10397000002001F0DDFE882001F0DAFE002001F0D9
:10398000D7FE972001F0D4FE002001F0D1FEA62042
:1039900001F0CEFE002001F0CBFEB72001F0C8FE02
:1039A000002001F0C5FEC22001F0C2FE002001F09F
:1039B000BFFEC72001F0BCFE002001F0B9FED120FF
:1039C00001F0B6FE002001F0B3FED62001F0B0FEFB
:1039D000002001F0ADFEDD2001F0AAFE002001F084
:1039E000A7FEF32001F0A4FE002001F0A1FEE320D9
:1039F00001F0AAFE052001F09BFE00E00AE3002092
:103A000001F096FE0A2001F093FE002001F090FEE6
:103A10001C2001F08DFE002001F08AFE332001F011
:103A200087FE002001F084FE442001F081FE00208A
:103A300001F07EFE502001F07BFE002001F078FEB8
:103A4000622001F075FE002001F072FE782001F086
:103A50006FFE002001F06CFE882001F069FE00205E
:103A600001F066FE972001F063FE002001F060FE89
:103A7000A62001F05DFE002001F05AFEB72001F003
:103A800057FE002001F054FEC22001F051FE00203C
:103A900001F04EFEC72001F04BFE002001F048FE71
:103AA000D12001F045FE002001F042FED52001F0BA
:103AB0003FFE002001F03CFEDD2001F039FE002039
:103AC00001F036FEF32001F033FE002001F030FE5D
:103AD000E42001F039FE012001F02AFE002001F06F
:103AE00027FE012001F024FE002001F021FE02202B
:103AF00001F01EFE002001F01BFE2A2001F018FE3E
:103B0000002001F015FE3C2001F012FE002001F023
:103B10000FFE4B2001F00CFE002001F009FE5D209D
:103B200001F006FE002001F003FE742001F000FE0B
:103B3000002001F0FDFD842001F0FAFD002001F0DD
:103B4000F7FD932001F0F4FD002001F0F1FDA2202B
:103B500001F0EEFD002001F0EBFDB32001F0E8FDE7
:103B6000002001F0E5FDBE2001F0E2FD002001F0A3
:103B7000DFFDC42001F0DCFD002001F0D9FDCD20E7
:103B800001F0D6FD002001F0D3FDD32001F0D0FDDF
:103B9000002001F0CDFDDD2001F0CAFD002001F084
:103BA000C7FDF32001F0C4FD002001F0C1FDE520B8
:103BB00001F0CAFD002001F0BBFD002001F0B8FDBE
:103BC000002001F0B5FD002001F0B2FD022001F05F
:103BD000AFFD002001F0ACFD292001F0A9FD00207F
:103BE00001F0A6FD3C2001F0A3FD002001F0A0FDA6
:103BF0004B2001F09DFD002001F09AFD5D2001F0B9
:103C000097FD002001F094FD742001F091FD00204B
:103C100001F08EFD842001F08BFD002001F088FD75
:103C2000932001F085FD002001F082FDA22001F02B
:103C30007FFD002001F07CFDB32001F079FD002024
:103C400001F076FDBE2001F073FD002001F070FD53
:103C5000C42001F06DFD002001F06AFDCD2001F0CF
:103C600067FD002001F064FDD32001F061FD00201C
:103C700001F05EFDDC2001F05BFD002001F058FD4D
:103C8000F32001F055FD002001F052FDE62001F087
:103C90005BFD112001F04CFD002001F049FD3420B6
:103CA00001F046FD002001F043FD562001F040FDEB
:103CB000002001F03DFD762001F03AFD002001F0EA
:103CC00037FD772001F034FD002001F031FD662042
:103CD00001F02EFD002001F02BFD882001F028FDD1
:103CE000002001F025FD992001F022FD002001F0C7
:103CF0001FFDBB2001F01CFD002001F019FD9920E3
:103D000001F016FD002001F013FD662001F010FD0A
:103D1000002001F00DFD552001F00AFD002001F00A
:103D200007FD552001F004FD002001F001FD4520B4
:103D300001F0FEFC002001F0FBFC432001F0F8FC48
:103D4000002001F0F5FC442001F0F2FC002001F01D
:103D5000EFFCE72001F0F8FC322001F0E9FC002044
:103D600001F0E6FC552001F0E3FC002001F0E0FC4E
:103D7000762001F0DDFC002001F0DAFC662001F085
:103D8000D7FC002001F0D4FC672001F0D1FC00201A
:103D900001F0CEFC672001F0CBFC002001F0C8FC54
:103DA000872001F0C5FC002001F0C2FC992001F041
:103DB000BFFC002001F0BCFCBB2001F0B9FC0020DE
:103DC00001F0B6FC992001F0B3FC002001F0B0FC3A
:103DD000772001F0ADFC002001F0AAFC442001F0A6
:103DE000A7FC002001F0A4FC562001F0A1FC00205B
:103DF00001F09EFC232001F09BFC002001F098FCC8
:103E0000332001F095FC002001F092FC452001F0E8
:103E10008FFC002001F08CFCE82001F095FC0020D4
:103E200001F086FC002001F083FC992001F080FC69
:103E3000002001F07DFC872001F07AFC002001F0D9
:103E400077FC882001F074FC002001F071FC7720E1
:103E500001F06EFC002001F06BFC662001F068FCB4
:103E6000002001F065FC882001F062FC002001F0D8
:103E70005FFCAA2001F05CFC002001F059FCBB2093
:103E800001F056FC002001F053FC992001F050FC99
:103E9000002001F04DFC662001F04AFC002001F0FA
:103EA00047FC552001F044FC002001F041FC552066
:103EB00001F03EFC002001F03BFC442001F038FC06
:103EC000002001F035FC442001F032FC002001F01C
:103ED0002FFC552001F02CFC002001F029FCE920EA
:103EE00001F032FCAA2001F023FC002001F020FCAC
:103EF000002001F01DFC002001F01AFC002001F060
:103F000023FCAA2001F014FCCF2001F01DFC0020AE
:103F100001F00EFC002001F00BFC002001F008FC79
:103F2000002001F005FC002001F002FC002001F05F
:103F3000FFFB002001F0FCFB002001F0F9FB00205A
:103F400001F0F6FB002001F0F3FB002001F0F0FB94
:103F5000002001F0EDFB002001F0EAFB002001F061
:103F6000E7FB002001F0E4FB002001F0E1FB002072
:103F700001F0DEFBF02001F0E7FB002001F0D8FBB0
:103F8000502001F0D5FB002001F0D2FB002001F011
:103F9000CFFB002001F0CCFBF32001F0D5FB00208B
:103FA00001F0C6FBF92001F0CFFB062001F0C0FBB9
:103FB000102001F0BDFB292001F0BAFB002001F028
:103FC000B7FB3A2001F0C0FB552001F0B1FB1120F6
:103FD00001F0BAFB642003F027FD292001F0B4FBB7
:103FE000352001F0B1FB002001F0A2FB512001F0CF
:103FF000ABFBFF2001F09CFB532001F0A5FB2C2024
:1040000001F096FB552001F09FFB822001F090FB10
:104010002C20FDE3A8427CD14FF470435521184673
:1040200001F0A8FBAA214FF2010001F0A3FB5221ED
:104030004FF2020001F09EFB08214FF2030001F055
:1040400099FB01214FF2040001F094FB0D214FF484
:10405000304001F08FFB0D214BF2010001F08AFB93
:104060000D214BF2020001F085FB34214FF4364064
:1040700001F080FB34214BF2016001F07BFB342125
:104080004BF2026001F076FB0D214FF4314001F05C
:1040900071FB0D214BF2011001F06CFB0D214BF275
:1040A000021001F067FB34214FF4374001F062FB4E
:1040B00034214BF2017001F05DFB34214BF20270B0
:1040C00001F058FB00214FF4324001F053FB002176
:1040D0004BF2012001F04EFB00214BF2022001F0D7
:1040E00049FB24214FF4384001F044FB24214BF6D6
:1040F000010001F03FFB24214BF6020001F03AFBE6
:1041000001214FF43F4001F035FB0F214FF43340C4
:1041100000E0FCE301F02EFB0F214BF2013001F037
:1041200029FB0F214BF2023001F024FB34214FF424
:10413000394001F01FFB34214BF6011001F01AFB4E
:1041400034214BF6021001F015FB08214FF43540E5
:1041500001F010FB08214BF2015001F00BFB08218C
:104160004BF2025001F006FB03214FF4424001F0F4
:1041700001FB24214FF43A4001F0FCFA24214BF6D4
:10418000012001F0F7FA24214BF6022001F0F2FAA7
:1041900000214FF43C4001F0EDFA78214BF601404C
:1041A00001F0E8FA00214BF6024001F0E3FA0021A9
:1041B0004FF43D4001F0DEFA78214BF6015001F05A
:1041C000D9FA00214BF6025001F0D4FA00214FF445
:1041D0003E4001F0CFFA64214BF6016001F0CAFACB
:1041E00000214FF4514001F0C5FA33214DF2011086
:1041F00001F0C0FA00214DF2021001F0BBFA3421A7
:104200004DF2031001F0B6FA00214DF2041001F056
:10421000B1FA3A214DF2051001F0ACFA00214DF24D
:10422000061001F0A7FA4A214DF2071001F0A2FA98
:1042300000214DF2081001F09DFA5C214DF20910A9
:1042400001F098FA00214DF20A1001F093FA812151
:104250004DF20B1001F08EFA00214DF20C1001F01E
:1042600089FAA6214DF20D1001F084FA00214DF2D9
:104270000E1001F07FFAE5214DF20F1001F07AFAED
:1042800001214DF2101001F075FA13214DF21110B9
:1042900001F070FA01214DF2121001F06BFA542175
:1042A0004DF2131001F066FA01214DF2141001F0E5
:1042B00061FA82214DF2151001F05CFA01214DF2F4
:1042C000161001F057FACA214DF2171001F052FAF8
:1042D00002214DF2181001F04DFA00214DF2191093
:1042E00001F048FA02214DF21A1001F043FA0121BF
:1042F0004DF21B1001F03EFA02214DF21C1001F0AC
:1043000039FA34214DF21D1001F034FA02214DF238
:104310001E1001F02FFA67214DF21F1001F02AFA4A
:1043200002214DF2201001F025FA84214DF22110D6
:1043300001F020FA02214DF2221001F01BFAA42113
:104340004DF2231001F016FA02214DF2241001F073
:1043500011FAB7214DF2251001F00CFA02214DF2AD
:10436000261001F007FACF214DF2271001F002FAD2
:1043700002214DF2281001F0FDF9DE214DF2291045
:1043800001F0F8F902214DF22A1001F0F3F9F221BF
:104390004DF22B1001F0EEF902214DF22C1001F03C
:1043A000E9F9FE214DF22D1001F0E4F903214DF25F
:1043B0002E1001F0DFF910214DF22F1001F0DAF983
:1043C00003214DF2301001F0D5F933214DF23110B7
:1043D00001F0D0F903214DF2321001F0CBF96D213B
:1043E0004DF2331001F0C6F900214FF4524001F0B4
:1043F000C1F933214DF2012001F0BCF900214DF249
:10440000022001F0B7F934214DF2032001F0B2F996
:1044100000214DF2042001F0ADF93A214DF20520C2
:1044200001F0A8F900214DF2062001F0A3F94A217C
:104430004DF2072001F09EF900214DF2082001F015
:1044400099F95C214DF2092001F094F900214DF217
:104450000A2001F08FF981214DF20B2001F08AF939
:1044600000214DF20C2001F085F9A6214DF20D201E
:1044700001F080F900214DF20E2001F07BF9E521D9
:104480004DF20F2001F076F901214DF2102001F0DC
:1044900071F913214DF2112001F06CF901214DF257
:1044A000122001F067F954214DF2132001F062F956
:1044B00001214DF2142001F05DF982214DF2152009
:1044C00001F058F901214DF2162001F053F9CA21EB
:1044D0004DF2172001F04EF902214DF2182001F0A3
:1044E00049F900214DF2192001F044F902214DF261
:1044F0001A2001F03FF901214DF21B2001F03AF999
:1045000002214DF21C2001F035F934214DF21D201D
:1045100001F030F902214DF21E2001F02BF9672144
:104520004DF21F2001F026F902214DF2202001F06A
:1045300021F984214DF2212001F01CF902214DF2D4
:10454000222001F017F9A4214DF2232001F012F9E5
:1045500002214DF2242001F00DF9B7214DF2252062
:1045600001F008F902214DF2262001F003F9CF21D4
:104570004DF2272001F0FEF802214DF2282001F033
:10458000F9F8DE214DF2292001F0F4F802214DF274
:104590002A2001F0EFF8F2214DF22B2001F0EAF889
:1045A00002214DF22C2001F0E5F8FE214DF22D20E4
:1045B00001F0E0F803214DF22E2001F0DBF810218C
:1045C0004DF22F2001F0D6F803214DF2302001F0FA
:1045D000D1F833214DF2312001F0CCF803214DF216
:1045E000322001F0C7F86D214DF2332001F0C2F8FE
:1045F00000214FF4534001F0BDF833214DF201305A
:1046000001F0B8F800214DF2023001F0B3F8342186
:104610004DF2033001F0AEF800214DF2043001F00C
:10462000A9F83A214DF2053001F0A4F800214DF22D
:10463000063001F09FF84A214DF2073001F09AF858
:1046400000214DF2083001F095F85C214DF209305F
:1046500001F090F800214DF20A3001F08BF8812131
:104660004DF20B3001F086F800214DF20C3001F0D4
:1046700081F8A6214DF20D3001F07CF800214DF2B9
:104680000E3001F077F8E5214DF20F3001F072F8AD
:1046900001214DF2103001F06DF813214DF211306F
:1046A00001F068F801214DF2123001F063F8542155
:1046B0004DF2133001F05EF801214DF2143001F09B
:1046C00059F882214DF2153001F054F801214DF2D4
:1046D000163001F04FF8CA214DF2173001F04AF8B8
:1046E00002214DF2183001F045F800214DF2193049
:1046F00001F040F802214DF21A3001F03BF801219F
:104700004DF21B3001F036F802214DF21C3001F061
:1047100031F834214DF21D3001F02CF802214DF218
:104720001E3001F027F867214DF21F3001F022F80A
:1047300002214DF2203001F01DF884214DF221308C
:1047400001F018F802214DF2223001F013F8A421F3
:104750004DF2233001F00EF802214DF2243001F029
:1047600009F8B7214DF2253001F004F802214DF28D
:10477000263000F0FFFFCF214DF2273000F0FAFF86
:1047800002214DF2283000F0F5FFDE214DF22930F4
:1047900000F0F0FF02214DF22A3000F0EBFFF22191
:1047A0004DF22B3000F0E6FF02214DF22C3000F0EC
:1047B000E1FFFE214DF22D3000F0DCFF03214DF230
:1047C0002E3000F0D7FF10214DF22F3000F0D2FF35
:1047D00003214DF2303000F0CDFF33214DF2313066
:1047E00000F0C8FF03214DF2323000F0C3FF6D210D
:1047F0004DF2333000F0BEFF00214FF4544000F082
:10480000B9FF33214DF2014000F0B4FF002100E078
:1048100082E34DF2024000F0ADFF34214DF203403F
:1048200000F0A8FF00214DF2044000F0A3FF3A2160
:104830004DF2054000F09EFF00214DF2064000F0D1
:1048400099FF4A214DF2074000F094FF00214DF2FC
:10485000084000F08FFF5C214DF2094000F08AFF14
:1048600000214DF20A4000F085FF81214DF20B40FE
:1048700000F080FF00214DF20C4000F07BFFA621EC
:104880004DF20D4000F076FF00214DF20E4000F099
:1048900071FFE5214DF20F4000F06CFF01214DF258
:1048A000104000F067FF13214DF2114000F062FF4D
:1048B00001214DF2124000F05DFF54214DF21340F2
:1048C00000F058FF01214DF2144000F053FF822107
:1048D0004DF2154000F04EFF01214DF2164000F060
:1048E00049FFCA214DF2174000F044FF02214DF26A
:1048F000184000F03FFF00214DF2194000F03AFF50
:1049000002214DF21A4000F035FF012100E006E3DC
:104910004DF21B4000F02EFF02214DF21C4000F032
:1049200029FF34214DF21D4000F024FF02214DF2F9
:104930001E4000F01FFF67214DF21F4000F01AFFDC
:1049400002214DF2204000F015FF84214DF221405C
:1049500000F010FF02214DF2224000F00BFFA421D5
:104960004DF2234000F006FF02214DF2244000F0FA
:1049700001FFB7214DF2254000F0FCFE02214DF26F
:10498000264000F0F7FECF214DF2274000F0F2FE66
:1049900002214DF2284000F0EDFEDE214DF22940CB
:1049A00000F0E8FE02214DF22A4000F0E3FEF22181
:1049B0004DF22B4000F0DEFE02214DF22C4000F0C3
:1049C000D9FEFE214DF22D4000F0D4FE03214DF220
:1049D0002E4000F0CFFE10214DF22F4000F0CAFE15
:1049E00003214DF2304000F0C5FE33214DF231403D
:1049F00000F0C0FE03214DF2324000F0BBFE6D21FD
:104A00004DF2334000F0B6FE00214FF4554000F067
:104A1000B1FE33214DF2015000F0ACFE00214DF209
:104A2000025000F0A7FE34214DF2035000F0A2FE28
:104A300000214DF2045000F09DFE3A214DF2055048
:104A400000F098FE00214DF2065000F093FE4A213E
:104A50004DF2075000F08EFE00214DF2085000F09C
:104A600089FE5C214DF2095000F084FE00214DF2D8
:104A70000A5000F07FFE81214DF20B5000F07AFECB
:104A800000214DF20C5000F075FEA6214DF20D50A4
:104A900000F070FE00214DF20E5000F06BFEE5219B
:104AA0004DF20F5000F066FE01214DF2105000F063
:104AB00061FE13214DF2115000F05CFE01214DF218
:104AC000125000F057FE54214DF2135000F052FEE8
:104AD00001214DF2145000F04DFE82214DF215508F
:104AE00000F048FE01214DF2165000F043FECA21AD
:104AF0004DF2175000F03EFE02214DF2185000F02A
:104B000039FE00214DF2195000F034FE02214DF221
:104B10001A5000F02FFE01214DF21B5000F02AFE2A
:104B200002214DF21C5000F025FE34214DF21D50A3
:104B300000F020FE02214DF21E5000F01BFE672106
:104B40004DF21F5000F016FE02214DF2205000F0F1
:104B500011FE84214DF2215000F00CFE02214DF295
:104B6000225000F007FEA4214DF2235000F002FE77
:104B700002214DF2245000F0FDFDB7214DF22550E9
:104B800000F0F8FD02214DF2265000F0F3FDCF2198
:104B90004DF2275000F0EEFD02214DF2285000F0BA
:104BA000E9FDDE214DF2295000F0E4FD02214DF235
:104BB0002A5000F0DFFDF2214DF22B5000F0DAFD1B
:104BC00002214DF22C5000F0D5FDFE214DF22D506A
:104BD00000F0D0FD03214DF22E5000F0CBFD10214E
:104BE0004DF22F5000F0C6FD03214DF2305000F081
:104BF000C1FD33214DF2315000F0BCFD03214DF2D7
:104C0000325000F0B7FD6D214DF2335000F0B2FD8F
:104C100000214FF4564000F0ADFD33214DF201600C
:104C200000F0A8FD00214DF2026000F0A3FD342148
:104C30004DF2036000F09EFD00214DF2046000F093
:104C400099FD3A214DF2056000F094FD00214DF2EE
:104C5000066000F08FFD4A214DF2076000F08AFDEA
:104C600000214DF2086000F085FD5C214DF20960E5
:104C700000F080FD00214DF20A6000F07BFD8121F3
:104C80004DF20B6000F076FD00214DF20C6000F05B
:104C900071FDA6214DF20D6000F06CFD00214DF27A
:104CA0000E6000F067FDE5214DF20F6000F062FD3F
:104CB00001214DF2106000F05DFD13214DF21160F5
:104CC00000F058FD01214DF2126000F053FD542117
:104CD0004DF2136000F04EFD01214DF2146000F022
:104CE00049FD82214DF2156000F044FD01214DF295
:104CF000166000F03FFDCA214DF2176000F03AFD4A
:104D000002214DF2186000F035FD00214DF21960CE
:104D100000F030FD02214DF21A6000F02BFD012160
:104D20004DF21B6000F026FD02214DF21C6000F0E8
:104D300021FD34214DF21D6000F01CFD02214DF2D9
:104D40001E6000F017FD67214DF21F6000F012FD9C
:104D500002214DF2206000F00DFD84214DF2216012
:104D600000F008FD02214DF2226000F003FDA421B5
:104D70004DF2236000F0FEFC02214DF2246000F0B1
:104D8000F9FCB7214DF2256000F0F4FC02214DF250
:104D9000266000F0EFFCCF214DF2276000F0EAFC26
:104DA00002214DF2286000F0E5FCDE214DF2296081
:104DB00000F0E0FC02214DF22A6000F0DBFCF22161
:104DC0004DF22B6000F0D6FC02214DF22C6000F079
:104DD000D1FCFE214DF22D6000F0CCFC03214DF200
:104DE0002E6000F0C7FC10214DF22F6000F0C2FCD5
:104DF00003214DF2306000F0BDFC33214DF23160F3
:104E000000F0B8FC03214DF2326000F0B3FC6D21DC
:104E10004DF2336000F0AEFC5521184600F0AAFCBC
:104E2000AA214FF2010000F0A5FC52214FF202002E
:104E300000F0A0FC08214FF2030000F09BFC0021D1
:104E40004FF2040000F096FCCC214FF4314000F00A
:104E500091FC00214BF2011000F08CFC05214FF475
:104E6000364000F087FC70214FF4374000F082FCA0
:104E700070214BF2017000F07DFC01214FF43840AD
:104E800000F078FC03214BF6010000F073FC0321D5
:104E90004BF6020000F06EFC03214BF6030000F01D
:104EA00069FC02214FF43C4000F064FC00214BF609
:104EB000014000F05FFC00214BF6024000F05AFC7C
:104EC000D0214FF4494000F055FC02214CF601106E
:104ED00000F050FC50214CF6021000F04BFC502129
:104EE0004CF6031000F046FC50214CF6041000F084
:104EF00041FC00214FF4545000F03CFC55214FF48C
:104F0000685000F037FC4FF4885000F01DFC78200A
:104F100002F098FD4FF4245000F016FCB9E0B842BE
:104F2000FCD1E22000F010FC1D2000F001FC02206A
:104F300000F0FEFB042000F0FBFB642002F082FD89
:104F4000E02000F001FC012000F0F2FB0A2002F05A
:104F50006BFDE02000F0F8FB032000F0E9FB0C20E3
:104F600002F062FD012000F0EFFB0A2002F05CFD80
:104F7000E62000F0E9FB2F2000F0DAFBFF2000F034
:104F8000D7FBFF2000F0D4FBB02000F0DDFB202099
:104F900000F0CEFB002000F0CBFB032000F0C8FBAC
:104FA00040F21F3000F0C4FB012000F0C1FB40F2D2
:104FB000DF1000F0BDFB002000F0BAFBB42000F0D1
:104FC000C3FB042000F0B4FB40F21F4000F0B0FB34
:104FD000002000F0ADFB2E2000F0AAFB002000F026
:104FE000A7FB002000F0A4FB002000F0A1FB0020A4
:104FF00000F09EFBB62000F0A7FB022000F098FB1B
:105000004FF4037000F094FB002000F091FB172098
:1050100000F08EFB152000F08BFB002000F088FBD9
:10502000002000F085FBF02000F08EFB032000F054
:105030007FFB292000F088FBD02000F085FB0020BA
:1050400000F076FBBE2000F07FFB052000F070FB37
:10505000FE2000F06DFB012000F06AFB002000F054
:1050600067FB002000F064FB002000F061FBB8202B
:1050700000F06AFB032000F05BFB012000F058FB0E
:10508000BA2000F061FB012000F052FB642000F028
:105090007FF8B8F80400504505D0B04203D0A842CC
:1050A00001D0B84217D1D4F81C0120F00F00C4F889
:1050B0001C01D4F81C0120F47060C4F81C01D4F861
:1050C0001C0140F00100C4F81C01D4F81C0140F49C
:1050D0008070C4F81C010020FDF73CFD0449C1F8B4
:1050E00080915846FDF71CFD15B0BDE8F08F00001B
:1050F00000802142034808B50088ADF80000BDF8E3
:10510000000008BD0008006C10B5204C22888242C7
:1051100002D962888A4201D8002010BD00F03AF915
:10512000A08841F66312A0F51341413905D0A0F5DE
:10513000A641103901D0904201D12E2005E0A0F502
:10514000AA41103903D14FF4385000F0FDFAFFF7AF
:10515000D1FFA1889142E0D00220401EC0B2FCD213
:10516000FFF7C8FF04460221491EC9B2FCD2FFF76F
:10517000C1FFE1B24FF6FF7202EA012124EA621296
:10518000890A42EA411141EAD02010BDA40300205F
:1051900010B50246BE2000F0D7FA052000F0C8FA8C
:1051A000104607F06EFB4FF066320B4B07F07CFBAE
:1051B00007F03AFB80B200F0BBFA012000F0B8FA29
:1051C000FF2000F0B5FA002000F0B2FABDE8104070
:1051D000002000F0ADBA000066660440F0B56C4DEA
:1051E00000232946AA79898841F66314012A01D04F
:1051F0001AB11BE0A14202D118E0A14216D1082841
:1052000014D2DFE800F00406080A0C0E1012062083
:105210000CE007200AE0042008E0052006E0012059
:1052200004E0002002E0032000E00220A1F5134783
:1052300045F2103245F21056413F05D0914203D05D
:10524000B14201D0A14277D1082812D2DFE800F0A4
:10525000110406080A0C0E1080230AE0402308E01F
:10526000C02306E0202304E0602302E0A02300E046
:10527000E023B14202D14FF4585000E03620914271
:1052800005D0B14203D0A14201D043F00803194632
:1052900000F070FAAA88A2420AD098062888698885
:1052A00002D5884202D303E0884201D92980688070
:1052B0006889B24241D100F047FA002000F038FA84
:1052C0006889401C80B200F03FFA002000F030FAFC
:1052D0006889801C80B200F037FA2888401EC0F32D
:1052E0000F2000F025FA6889C01C80B200F02CFA6B
:1052F0002878401EC0B200F01BFAA88900F024FAFA
:10530000002000F015FAA889401C80B200F01CFAB9
:10531000002000F00DFAA889801C80B200F014FA79
:105320006888401EC0F30F2000F002FAA889C01C54
:1053300080B200F009FA22E028E000F005FA00202F
:1053400000F0F6F9002000F0F3F92888401EC0F3C1
:105350000F2000F0EDF92878401EC0B200F0E8F907
:10536000A88900F0F1F9002000F0E2F9002000F037
:10537000DFF96888401EC0F30F2000F0D9F9A87843
:10538000BDE8F040401EC0B200F0D2B9F0BD000050
:10539000A4030020F0B53F4D0C460246060AA9883A
:1053A0002846270A4089A1F51343413B28D0A1F59F
:1053B000A643103B24D0A1F5C853633B2FD0A1F5E1
:1053C000AA43103B64D100F0BFF9304600F0B0F9B9
:1053D0006889401C80B200F0B7F9D0B200F0A8F99B
:1053E000A88900F0B1F9384600F0A2F9A889401C5C
:1053F00080B200F0A9F9E0B2BDE8F04000F098B941
:1054000000F0A2F9304600F093F9D0B200F090F924
:10541000A88900F099F9384600F08AF9EBE7A979F4
:1054200029B300F091F9304600F082F9D0B200F0D3
:105430007FF92888401EC0F30F2000F079F9287802
:10544000401EC0B200F074F9A88900F07DF938461A
:1054500000F06EF9E0B200F06BF96888401EC0F30E
:105460000F2000F065F9A878401EC0B2C4E7298873
:10547000891A491E8AB200F067F9002000F058F935
:10548000002000F055F9100A00F052F9D0B2D9E727
:10549000F0BD0000A40300202DE9FC4F0D4604469A
:1054A00019441044DFF85491401E1FFA80F8491E39
:1054B000B9F80430C1F307200190280A0090A01821
:1054C000401EC0F3072B4846A3F5134640898FB210
:1054D0004FEA142A413E0BD0A3F5A646103E07D052
:1054E00099F8066041F6631C012E1CD163451AD160
:1054F0004A4600F029F9504600F01AF9E0B200F0EF
:1055000017F9584600F014F908F0FF0000F010F900
:10551000908900F019F9009800F00AF9E8B200F05B
:1055200007F9019822E04E46634522D133888FB2B5
:105530009B1A1B1B9CB200F007F9200A00F0F8F838
:10554000E0B200F0F5F82244521EC2F30F2000F042
:10555000EFF8D0B200F0ECF8B08900F0F5F8009860
:1055600000F0E6F8E8B200F0E3F8380A00F0E0F8FE
:105570003CE0A3F5AA4110393DD100F0E5F85046D2
:1055800000F0D6F87089401C80B200F0DDF8E0B27F
:1055900000F0CEF87089801C80B200F0D5F8584633
:1055A00000F0C6F87089C01C80B200F0CDF808F099
:1055B000FF0000F0BDF8B08900F0C6F8009800F0D8
:1055C000B7F8B089401C80B200F0BEF8E8B200F035
:1055D000AFF8B089801C80B200F0B6F8019800F0F6
:1055E000A7F8B089C01C80B200F0AEF8F8B2BDE8F0
:1055F000FC4F00F09DB8BDE8FC8F0000A403002024
:105600002DE9F84F82461F460E468B46580700D0BC
:10561000012000EBD70079084843203AC0B202F0DD
:10562000FF090025009047E00C2F10D0102F12D05A
:10563000182F14D0202F42D1224901EBC9104FF06E
:105640000008445D200610D51F48026811E009EBF0
:1056500049001E4906E01E4901EB0910EFE71D490C
:1056600009EBC90001EB8000E9E70A9828B9164860
:10567000426831465046FDF7D9FA6006040E1648D6
:10568000761CB6B24088B04219D9A6EB0B00B842DE
:1056900009D10AF101001FFA80FA0F485E4601881D
:1056A00051450CD906E008F1010000F0FF08B8F1FF
:1056B000080FC7D36D1CEDB200988542B4D3BDE886
:1056C000F88F00007CE2000818000020BCCA000827
:1056D00030CF000820D50008A40300202DE9F84FA2
:1056E000044600F0FF0810190D46DDE90A761FFA9E
:1056F00080FA58191FFA80F94FF0000B11E0544559
:1057000002D3E819444685B24D450FD23B4629469F
:105710002046CDF800B0FFF773FF04EB570084B2CA
:10572000761C3278A2F120005E28E8D9BDE8F88F17
:1057300001B5BDF80000ADF80000BDF8000001495A
:10574000088008BD0008006C01B5BDF80000ADF888
:105750000000BDF800000149088008BDFE07006C8C
:10576000024803490089088070470000A403002014
:10577000FE07006C024A1080901C018070470000F8
:10578000FE07006C30B5184885B0816941F008010A
:105790008161816901F008010491816941F0400152
:1057A00081618069202400F0400004900120CDE94F
:1057B0000040029003200D4D039069462846FBF7F8
:1057C000EDFA00940A4C69462046FBF7E7FA0122FD
:1057D00020212846FBF7DDFB012220212046FBF794
:1057E000D8FB05B030BD000000100240000C0140A5
:1057F00000180140FEE770470907090E002806DA85
:1058000000F00F0000F1E02080F8141D704700F157
:10581000E02080F80014704770B54B4886B0002433
:10582000816941F008018161816901F008010491F9
:10583000816941F010018161816901F010010491D9
:10584000816941F020018161816901F020010491A9
:10585000816941F480718161816901F480710491F1
:10586000816941F0010181618069012500F0010039
:105870000490FF2000900020CDE901050320039053
:1058800069463248FBF78AFA1820CDE90005304E08
:1058900069463046FBF782FA012208213046FBF7C1
:1058A00078FB012210213046FBF773FB4020CDE945
:1058B0000005284E69463046FBF770FA0122402168
:1058C0003046FBF766FB4FF44040CDE90005224D22
:1058D00069462846FBF762FA012291032846FBF746
:1058E00058FB0122D1032846FBF753FB1B484168B4
:1058F00021F0E06141F08061416000F06BF88021AF
:10590000122000F0ABF910B1012006B070BD3220BA
:1059100002F08AF80B2000F0FDF8732804D10A2069
:1059200000F0F8F8762801D00220EEE70C4D05EBE8
:105930004400417815F8140000F090F9641CA4B2FA
:10594000A82CF4D30020E0E7001002400010014032
:10595000000C014000140140002001400000014003
:10596000FC1101082DE9F041054600EB420086B22A
:1059700001EB430084B20F46B4F5447F02D9A4F58D
:105980004474A4B2032000F0C5F806F003022946CF
:1059900000F0F00062F39F010143032000F05EF984
:1059A000C5F38701192000F059F9C6F387011A20C1
:1059B00000F054F9322000F0ADF8C7F3C70117200A
:1059C00000F04CF9C4F3C701BDE8F041182000F025
:1059D00045B9704770B51E4886B0816941F0200115
:1059E0008161816901F020010491816941F4807134
:1059F000816180694FF4005600F480700490009635
:105A000000200125CDE901050320124C03906946D1
:105A10002046FBF7C3F90820CDE900050E4D694685
:105A20002846FBF7BBF9012231462046FBF7B1FAC5
:105A3000012208212846FBF7ACFA606820F47000C8
:105A40006060606840F44010606006B070BD0000A7
:105A500000100240002001400014014070B53220C7
:105A600001F0F0FF0C4D0120C5F8B4010B4EC6F853
:105A70008C01322005F5DA7506F5C67601F0E2FFF5
:105A800000243460322001F0DDFF2C60BDE870405E
:105A9000322001F0D7BF00000000244200802242E3
:105AA0002DE9F047184F0024786820F470007860E2
:105AB000786840F400007860DFF85090144E0825B4
:105AC0004FF00108A246322001F0BCFFC6F88C81DD
:105AD0006006040ED9F8340108B1641CE4B2322027
